{
  "abi": [
    {
      "inputs": [],
      "stateMutability": "payable",
      "type": "constructor"
    },
    {
      "inputs": [
        {
          "internalType": "uint256",
          "name": "total",
          "type": "uint256"
        }
      ],
      "name": "TotalSubStringTooLarge",
      "type": "error"
    },
    {
      "anonymous": false,
      "inputs": [
        {
          "indexed": true,
          "internalType": "address",
          "name": "operator",
          "type": "address"
        },
        {
          "indexed": false,
          "internalType": "uint256",
          "name": "wordCount",
          "type": "uint256"
        },
        {
          "indexed": false,
          "internalType": "bool",
          "name": "shouldForbid",
          "type": "bool"
        }
      ],
      "name": "ForbiddenWordsUpdated",
      "type": "event"
    },
    {
      "anonymous": false,
      "inputs": [
        {
          "indexed": false,
          "internalType": "uint8",
          "name": "version",
          "type": "uint8"
        }
      ],
      "name": "Initialized",
      "type": "event"
    },
    {
      "anonymous": false,
      "inputs": [
        {
          "indexed": true,
          "internalType": "bytes32",
          "name": "role",
          "type": "bytes32"
        },
        {
          "indexed": true,
          "internalType": "bytes32",
          "name": "previousAdminRole",
          "type": "bytes32"
        },
        {
          "indexed": true,
          "internalType": "bytes32",
          "name": "newAdminRole",
          "type": "bytes32"
        }
      ],
      "name": "RoleAdminChanged",
      "type": "event"
    },
    {
      "anonymous": false,
      "inputs": [
        {
          "indexed": true,
          "internalType": "bytes32",
          "name": "role",
          "type": "bytes32"
        },
        {
          "indexed": true,
          "internalType": "address",
          "name": "account",
          "type": "address"
        },
        {
          "indexed": true,
          "internalType": "address",
          "name": "sender",
          "type": "address"
        }
      ],
      "name": "RoleGranted",
      "type": "event"
    },
    {
      "anonymous": false,
      "inputs": [
        {
          "indexed": true,
          "internalType": "bytes32",
          "name": "role",
          "type": "bytes32"
        },
        {
          "indexed": true,
          "internalType": "address",
          "name": "account",
          "type": "address"
        },
        {
          "indexed": true,
          "internalType": "address",
          "name": "sender",
          "type": "address"
        }
      ],
      "name": "RoleRevoked",
      "type": "event"
    },
    {
      "anonymous": false,
      "inputs": [
        {
          "indexed": true,
          "internalType": "address",
          "name": "operator",
          "type": "address"
        },
        {
          "indexed": false,
          "internalType": "uint8",
          "name": "min",
          "type": "uint8"
        },
        {
          "indexed": false,
          "internalType": "uint8",
          "name": "max",
          "type": "uint8"
        }
      ],
      "name": "WordRangeUpdated",
      "type": "event"
    },
    {
      "inputs": [],
      "name": "DEFAULT_ADMIN_ROLE",
      "outputs": [
        {
          "internalType": "bytes32",
          "name": "",
          "type": "bytes32"
        }
      ],
      "stateMutability": "view",
      "type": "function"
    },
    {
      "inputs": [
        {
          "internalType": "string",
          "name": "name",
          "type": "string"
        }
      ],
      "name": "containsBlacklistedWord",
      "outputs": [
        {
          "internalType": "bool",
          "name": "",
          "type": "bool"
        }
      ],
      "stateMutability": "view",
      "type": "function"
    },
    {
      "inputs": [
        {
          "internalType": "string",
          "name": "name",
          "type": "string"
        }
      ],
      "name": "containsInvalidCharacter",
      "outputs": [
        {
          "internalType": "bool",
          "name": "",
          "type": "bool"
        }
      ],
      "stateMutability": "pure",
      "type": "function"
    },
    {
      "inputs": [
        {
          "internalType": "string",
          "name": "name",
          "type": "string"
        }
      ],
      "name": "forbidden",
      "outputs": [
        {
          "internalType": "bool",
          "name": "",
          "type": "bool"
        }
      ],
      "stateMutability": "view",
      "type": "function"
    },
    {
      "inputs": [
        {
          "internalType": "string",
          "name": "str",
          "type": "string"
        }
      ],
      "name": "getAllSubStrings",
      "outputs": [
        {
          "internalType": "string[]",
          "name": "subStrings",
          "type": "string[]"
        }
      ],
      "stateMutability": "view",
      "type": "function"
    },
    {
      "inputs": [
        {
          "internalType": "bytes32",
          "name": "role",
          "type": "bytes32"
        }
      ],
      "name": "getRoleAdmin",
      "outputs": [
        {
          "internalType": "bytes32",
          "name": "",
          "type": "bytes32"
        }
      ],
      "stateMutability": "view",
      "type": "function"
    },
    {
      "inputs": [
        {
          "internalType": "bytes32",
          "name": "role",
          "type": "bytes32"
        },
        {
          "internalType": "uint256",
          "name": "index",
          "type": "uint256"
        }
      ],
      "name": "getRoleMember",
      "outputs": [
        {
          "internalType": "address",
          "name": "",
          "type": "address"
        }
      ],
      "stateMutability": "view",
      "type": "function"
    },
    {
      "inputs": [
        {
          "internalType": "bytes32",
          "name": "role",
          "type": "bytes32"
        }
      ],
      "name": "getRoleMemberCount",
      "outputs": [
        {
          "internalType": "uint256",
          "name": "",
          "type": "uint256"
        }
      ],
      "stateMutability": "view",
      "type": "function"
    },
    {
      "inputs": [],
      "name": "getWordRange",
      "outputs": [
        {
          "internalType": "uint8",
          "name": "min",
          "type": "uint8"
        },
        {
          "internalType": "uint8",
          "name": "max",
          "type": "uint8"
        }
      ],
      "stateMutability": "view",
      "type": "function"
    },
    {
      "inputs": [
        {
          "internalType": "bytes32",
          "name": "role",
          "type": "bytes32"
        },
        {
          "internalType": "address",
          "name": "account",
          "type": "address"
        }
      ],
      "name": "grantRole",
      "outputs": [],
      "stateMutability": "nonpayable",
      "type": "function"
    },
    {
      "inputs": [
        {
          "internalType": "bytes32",
          "name": "role",
          "type": "bytes32"
        },
        {
          "internalType": "address",
          "name": "account",
          "type": "address"
        }
      ],
      "name": "hasRole",
      "outputs": [
        {
          "internalType": "bool",
          "name": "",
          "type": "bool"
        }
      ],
      "stateMutability": "view",
      "type": "function"
    },
    {
      "inputs": [
        {
          "internalType": "address",
          "name": "admin",
          "type": "address"
        },
        {
          "internalType": "uint8",
          "name": "min",
          "type": "uint8"
        },
        {
          "internalType": "uint8",
          "name": "max",
          "type": "uint8"
        }
      ],
      "name": "initialize",
      "outputs": [],
      "stateMutability": "nonpayable",
      "type": "function"
    },
    {
      "inputs": [
        {
          "internalType": "string",
          "name": "str",
          "type": "string"
        }
      ],
      "name": "pack",
      "outputs": [
        {
          "internalType": "uint256",
          "name": "packed",
          "type": "uint256"
        }
      ],
      "stateMutability": "pure",
      "type": "function"
    },
    {
      "inputs": [
        {
          "internalType": "string[]",
          "name": "strs",
          "type": "string[]"
        }
      ],
      "name": "packBulk",
      "outputs": [
        {
          "internalType": "uint256[]",
          "name": "packeds",
          "type": "uint256[]"
        }
      ],
      "stateMutability": "pure",
      "type": "function"
    },
    {
      "inputs": [
        {
          "internalType": "bytes32",
          "name": "role",
          "type": "bytes32"
        },
        {
          "internalType": "address",
          "name": "account",
          "type": "address"
        }
      ],
      "name": "renounceRole",
      "outputs": [],
      "stateMutability": "nonpayable",
      "type": "function"
    },
    {
      "inputs": [
        {
          "internalType": "bytes32",
          "name": "role",
          "type": "bytes32"
        },
        {
          "internalType": "address",
          "name": "account",
          "type": "address"
        }
      ],
      "name": "revokeRole",
      "outputs": [],
      "stateMutability": "nonpayable",
      "type": "function"
    },
    {
      "inputs": [
        {
          "internalType": "uint256[]",
          "name": "packedWords",
          "type": "uint256[]"
        },
        {
          "internalType": "bool",
          "name": "shouldForbid",
          "type": "bool"
        }
      ],
      "name": "setForbiddenWords",
      "outputs": [],
      "stateMutability": "nonpayable",
      "type": "function"
    },
    {
      "inputs": [
        {
          "internalType": "string[]",
          "name": "words",
          "type": "string[]"
        },
        {
          "internalType": "bool",
          "name": "shouldForbid",
          "type": "bool"
        }
      ],
      "name": "setForbiddenWords",
      "outputs": [],
      "stateMutability": "nonpayable",
      "type": "function"
    },
    {
      "inputs": [
        {
          "internalType": "uint8",
          "name": "min",
          "type": "uint8"
        },
        {
          "internalType": "uint8",
          "name": "max",
          "type": "uint8"
        }
      ],
      "name": "setWordRange",
      "outputs": [],
      "stateMutability": "nonpayable",
      "type": "function"
    },
    {
      "inputs": [
        {
          "internalType": "bytes4",
          "name": "interfaceId",
          "type": "bytes4"
        }
      ],
      "name": "supportsInterface",
      "outputs": [
        {
          "internalType": "bool",
          "name": "",
          "type": "bool"
        }
      ],
      "stateMutability": "view",
      "type": "function"
    },
    {
      "inputs": [
        {
          "internalType": "uint256",
          "name": "strlen",
          "type": "uint256"
        }
      ],
      "name": "totalSubString",
      "outputs": [
        {
          "internalType": "uint256",
          "name": "total",
          "type": "uint256"
        },
        {
          "internalType": "uint256",
          "name": "min",
          "type": "uint256"
        },
        {
          "internalType": "uint256",
          "name": "max",
          "type": "uint256"
        }
      ],
      "stateMutability": "view",
      "type": "function"
    }
  ],
  "address": "0xdB8eABf4F27baA9C5EBaD23fEe1cB12037B58065",
  "args": "0x",
  "blockNumber": 29373564,
  "bytecode": "0x608060405261000c610011565b6100d0565b600054610100900460ff161561007d5760405162461bcd60e51b815260206004820152602760248201527f496e697469616c697a61626c653a20636f6e747261637420697320696e697469604482015266616c697a696e6760c81b606482015260840160405180910390fd5b60005460ff908116146100ce576000805460ff191660ff9081179091556040519081527f7f26b83ff96e1f2b6a682f133852f6798a09c465da95921460cefb38474024989060200160405180910390a15b565b611aee806100df6000396000f3fe608060405234801561001057600080fd5b50600436106101375760003560e01c806391d14854116100b8578063ca5f79951161007c578063ca5f7995146102df578063d547741f1461030d578063e04af3b714610320578063e786c3ad14610340578063fb3809be14610360578063fbc639091461037357600080fd5b806391d148541461027957806392aec2fc1461028c57806396237206146102b1578063a217fddf146102c4578063ca15c873146102cc57600080fd5b80632f2ff15d116100ff5780632f2ff15d1461020257806336568abe14610215578063439e42e7146102285780635c0a3caa1461023b5780639010d07c1461024e57600080fd5b806301ffc9a71461013c5780630fda4464146101645780631d367b5714610177578063245ed654146101bb578063248a9ca3146101d0575b600080fd5b61014f61014a366004611467565b610386565b60405190151581526020015b60405180910390f35b61014f610172366004611491565b6103b1565b6101a16040805180820190915260355460ff80821680845261010090920416602090920182905291565b6040805160ff93841681529290911660208301520161015b565b6101ce6101c9366004611564565b6103d4565b005b6101f46101de3660046115b8565b6000908152600160208190526040909120015490565b60405190815260200161015b565b6101ce6102103660046115e8565b610423565b6101ce6102233660046115e8565b61044e565b61014f610236366004611491565b6104d1565b61014f610249366004611491565b6105ea565b61026161025c366004611614565b61076c565b6040516001600160a01b03909116815260200161015b565b61014f6102873660046115e8565b610784565b6101f461029a3660046116ed565b6000601f600183510310601f830151029050919050565b6101ce6102bf366004611564565b6107af565b6101f4600081565b6101f46102da3660046115b8565b6107dc565b6102f26102ed3660046115b8565b6107f3565b6040805193845260208401929092529082015260600161015b565b6101ce61031b3660046115e8565b610832565b61033361032e3660046117af565b610858565b60405161015b91906117f8565b61035361034e366004611491565b61090d565b60405161015b919061188c565b6101ce61036e3660046118ff565b61093d565b6101ce610381366004611939565b610a5d565b60006001600160e01b03198216635a05180f60e01b14806103ab57506103ab82610a72565b92915050565b60006103bd83836105ea565b806103cd57506103cd83836104d1565b9392505050565b60006103df81610aa7565b61041d848480806020026020016040519081016040528093929190818152602001838360200280828437600092019190915250869250610ab4915050565b50505050565b6000828152600160208190526040909120015461043f81610aa7565b6104498383610c54565b505050565b6001600160a01b03811633146104c35760405162461bcd60e51b815260206004820152602f60248201527f416363657373436f6e74726f6c3a2063616e206f6e6c792072656e6f756e636560448201526e103937b632b9903337b91039b2b63360891b60648201526084015b60405180910390fd5b6104cd8282610c76565b5050565b6000818180805b838210156105dd578686838181106104f2576104f2611963565b9050013560f81c60f81b925061050783610c98565b156105d25750600181015b8381101561054b5761053e87878381811061052f5761052f611963565b9050013560f81c60f81b610c98565b1561054b57600101610512565b6105bc61059761055d83858a8c611979565b8080601f01602080910402602001604051908101604052809392919081815260200183838082843760009201919091525061029a92505050565b600881901c600090815260366020526040902054600160ff9092169190911b16151590565b156105ce5760019450505050506103ab565b8091505b6001909101906104d8565b5060009695505050505050565b600080600084848080601f016020809104026020016040519081016040528093929190818152602001838380828437600092019190915250508251929350506000198201905081158061066257508260008151811061064b5761064b611963565b6020910101516001600160f81b031916602d60f81b145b80610691575082818151811061067a5761067a611963565b6020910101516001600160f81b031916602d60f81b145b156106a35760019450505050506103ab565b60005b8281101561075e578381815181106106c0576106c0611963565b01602001516001600160f81b0319169450602d60f81b85900361072c5781811415801561071457508381600101815181106106fd576106fd611963565b6020910101516001600160f81b031916602d60f81b145b15610727576001955050505050506103ab565b610756565b61073585610ccb565b80610744575061074485610c98565b610756576001955050505050506103ab565b6001016106a6565b506000979650505050505050565b60008281526002602052604081206103cd9083610cfe565b60009182526001602090815260408084206001600160a01b0393909316845291905290205460ff1690565b60006107ba81610aa7565b60006107c961032e85876119a3565b90506107d58184610ab4565b5050505050565b60008181526002602052604081206103ab90610d0a565b6040805180820190915260355460ff808216835261010090910416602082015260009081908190610825908590610d14565b9196909550909350915050565b6000828152600160208190526040909120015461084e81610aa7565b6104498383610c76565b80516060908067ffffffffffffffff81111561087657610876611636565b60405190808252806020026020018201604052801561089f578160200160208202803683370190505b50915060005b81811015610906576108e18482815181106108c2576108c2611963565b60200260200101516000601f600183510310601f830151029050919050565b8382815181106108f3576108f3611963565b60209081029190910101526001016108a5565b5050919050565b6040805180820190915260355460ff80821683526101009091041660208201526060906103cd9084908490610d85565b600054610100900460ff161580801561095d5750600054600160ff909116105b806109775750303b158015610977575060005460ff166001145b6109da5760405162461bcd60e51b815260206004820152602e60248201527f496e697469616c697a61626c653a20636f6e747261637420697320616c72656160448201526d191e481a5b9a5d1a585b1a5e995960921b60648201526084016104ba565b6000805460ff1916600117905580156109fd576000805461ff0019166101001790555b610a08600085610e94565b610a128383610e9e565b801561041d576000805461ff0019169055604051600181527f7f26b83ff96e1f2b6a682f133852f6798a09c465da95921460cefb38474024989060200160405180910390a150505050565b6000610a6881610aa7565b6104498383610e9e565b60006001600160e01b03198216637965db0b60e01b14806103ab57506301ffc9a760e01b6001600160e01b03198316146103ab565b610ab18133610f84565b50565b8151600080600019815b84811015610b9e57868181518110610ad857610ad8611963565b6020026020010151600003610b2f5760405162461bcd60e51b815260206004820181905260248201527f4e616d65436865636b65723a20696e76616c6964207061636b656420776f726460448201526064016104ba565b60f8878281518110610b4357610b43611963565b6020026020010151901c9350610b598285610fdd565b9150610b658385610ff3565b9250610b96878281518110610b7c57610b7c611963565b60200260200101518760366110029092919063ffffffff16565b600101610abe565b508415610c10576040805180820190915260355460ff808216808452610100909204166020830152610bd1908390610fdd565b9150610be483826020015160ff16610ff3565b815190935060ff1682148015610c005750806020015160ff1683145b610c0e57610c0e8284610e9e565b505b60408051858152861515602082015233917f060d5a3fc05fdd11d7ba941d00a4fdcde096fb95171930e19997ce2b7df89174910160405180910390a2505050505050565b610c5e8282611051565b600082815260026020526040902061044990826110bc565b610c8082826110d1565b60008281526002602052604090206104499082611138565b6000606160f81b6001600160f81b03198316108015906103ab5750603d60f91b6001600160f81b03198316111592915050565b6000600360fc1b6001600160f81b03198316108015906103ab5750603960f81b6001600160f81b03198316111592915050565b60006103cd838361114d565b60006103ab825490565b6000806000610d2a846000015160ff1686610fdd565b9150610d3d846020015160ff1686610fdd565b8281036001818101808302821c868a039092010203945090915061ffff841115610d7d57604051630faa3ef560e11b8152600481018590526024016104ba565b509250925092565b60608260008080610d968487610d14565b9250925092508267ffffffffffffffff811115610db557610db5611636565b604051908082528060200260200182016040528015610de857816020015b6060815260200190600190039081610dd35790505b50945060008060005b86811015610e8657610e0584820188610fdd565b91508085015b828111610e7d57610e1e81838d8f611979565b8080601f016020809104026020016040519081016040528093929190818152602001838380828437600092019190915250508b5160018801978d935091508110610e6a57610e6a611963565b6020908102919091010152600101610e0b565b50600101610df1565b505050505050509392505050565b6104cd8282610c54565b60ff821615801590610eb657508060ff168260ff1611155b610f195760405162461bcd60e51b815260206004820152602e60248201527f4e616d65436865636b65723a206d696e20776f7264206c656e677468203e206d60448201526d0c2f040eedee4c840d8cadccee8d60931b60648201526084016104ba565b60408051808201825260ff84811680835290841660209283018190526035805461ffff191683176101008302179055835191825291810191909152815133927faabf778cd749a472313a9476aa3b29565e69697c48eb0f82b52fc9f071fd3c95928290030190a25050565b610f8e8282610784565b6104cd57610f9b81611177565b610fa6836020611189565b604051602001610fb79291906119b0565b60408051601f198184030181529082905262461bcd60e51b82526104ba91600401611a25565b6000818310610fec57816103cd565b5090919050565b6000818311610fec57816103cd565b801561102c57600882901c60009081526020849052604090208054600160ff85161b179055505050565b600882901c60009081526020849052604090208054600160ff85161b19169055505050565b61105b8282610784565b6104cd5760008281526001602081815260408084206001600160a01b0386168086529252808420805460ff19169093179092559051339285917f2f8788117e7eff1d82e926ec794901d17c78024a50270940304540a733656f0d9190a45050565b60006103cd836001600160a01b038416611325565b6110db8282610784565b156104cd5760008281526001602090815260408083206001600160a01b0385168085529252808320805460ff1916905551339285917ff6391f5c32d9c69d2a47ea670b442974b53935d1edc7fd64eb21e047a839171b9190a45050565b60006103cd836001600160a01b038416611374565b600082600001828154811061116457611164611963565b9060005260206000200154905092915050565b60606103ab6001600160a01b03831660145b60606000611198836002611a4e565b6111a3906002611a65565b67ffffffffffffffff8111156111bb576111bb611636565b6040519080825280601f01601f1916602001820160405280156111e5576020820181803683370190505b509050600360fc1b8160008151811061120057611200611963565b60200101906001600160f81b031916908160001a905350600f60fb1b8160018151811061122f5761122f611963565b60200101906001600160f81b031916908160001a9053506000611253846002611a4e565b61125e906001611a65565b90505b60018111156112d6576f181899199a1a9b1b9c1cb0b131b232b360811b85600f166010811061129257611292611963565b1a60f81b8282815181106112a8576112a8611963565b60200101906001600160f81b031916908160001a90535060049490941c936112cf81611a78565b9050611261565b5083156103cd5760405162461bcd60e51b815260206004820181905260248201527f537472696e67733a20686578206c656e67746820696e73756666696369656e7460448201526064016104ba565b600081815260018301602052604081205461136c575081546001818101845560008481526020808220909301849055845484825282860190935260409020919091556103ab565b5060006103ab565b6000818152600183016020526040812054801561145d576000611398600183611a8f565b85549091506000906113ac90600190611a8f565b90508181146114115760008660000182815481106113cc576113cc611963565b90600052602060002001549050808760000184815481106113ef576113ef611963565b6000918252602080832090910192909255918252600188019052604090208390555b855486908061142257611422611aa2565b6001900381819060005260206000200160009055905585600101600086815260200190815260200160002060009055600193505050506103ab565b60009150506103ab565b60006020828403121561147957600080fd5b81356001600160e01b0319811681146103cd57600080fd5b600080602083850312156114a457600080fd5b823567ffffffffffffffff808211156114bc57600080fd5b818501915085601f8301126114d057600080fd5b8135818111156114df57600080fd5b8660208285010111156114f157600080fd5b60209290920196919550909350505050565b60008083601f84011261151557600080fd5b50813567ffffffffffffffff81111561152d57600080fd5b6020830191508360208260051b850101111561154857600080fd5b9250929050565b8035801515811461155f57600080fd5b919050565b60008060006040848603121561157957600080fd5b833567ffffffffffffffff81111561159057600080fd5b61159c86828701611503565b90945092506115af90506020850161154f565b90509250925092565b6000602082840312156115ca57600080fd5b5035919050565b80356001600160a01b038116811461155f57600080fd5b600080604083850312156115fb57600080fd5b8235915061160b602084016115d1565b90509250929050565b6000806040838503121561162757600080fd5b50508035926020909101359150565b634e487b7160e01b600052604160045260246000fd5b604051601f8201601f1916810167ffffffffffffffff8111828210171561167557611675611636565b604052919050565b600082601f83011261168e57600080fd5b813567ffffffffffffffff8111156116a8576116a8611636565b6116bb601f8201601f191660200161164c565b8181528460208386010111156116d057600080fd5b816020850160208301376000918101602001919091529392505050565b6000602082840312156116ff57600080fd5b813567ffffffffffffffff81111561171657600080fd5b6117228482850161167d565b949350505050565b600067ffffffffffffffff8084111561174557611745611636565b8360051b602061175681830161164c565b8681529350908401908084018783111561176f57600080fd5b855b838110156117a3578035858111156117895760008081fd5b6117958a828a0161167d565b835250908201908201611771565b50505050509392505050565b6000602082840312156117c157600080fd5b813567ffffffffffffffff8111156117d857600080fd5b8201601f810184136117e957600080fd5b6117228482356020840161172a565b6020808252825182820181905260009190848201906040850190845b8181101561183057835183529284019291840191600101611814565b50909695505050505050565b60005b8381101561185757818101518382015260200161183f565b50506000910152565b6000815180845261187881602086016020860161183c565b601f01601f19169290920160200192915050565b6000602080830181845280855180835260408601915060408160051b870101925083870160005b828110156118e157603f198886030184526118cf858351611860565b945092850192908501906001016118b3565b5092979650505050505050565b803560ff8116811461155f57600080fd5b60008060006060848603121561191457600080fd5b61191d846115d1565b925061192b602085016118ee565b91506115af604085016118ee565b6000806040838503121561194c57600080fd5b611955836118ee565b915061160b602084016118ee565b634e487b7160e01b600052603260045260246000fd5b6000808585111561198957600080fd5b8386111561199657600080fd5b5050820193919092039150565b60006103cd36848461172a565b7f416363657373436f6e74726f6c3a206163636f756e74200000000000000000008152600083516119e881601785016020880161183c565b7001034b99036b4b9b9b4b733903937b6329607d1b6017918401918201528351611a1981602884016020880161183c565b01602801949350505050565b6020815260006103cd6020830184611860565b634e487b7160e01b600052601160045260246000fd5b80820281158282048414176103ab576103ab611a38565b808201808211156103ab576103ab611a38565b600081611a8757611a87611a38565b506000190190565b818103818111156103ab576103ab611a38565b634e487b7160e01b600052603160045260246000fdfea264697066735822122017485fa2231ef418500ce1c216428ce0f07371b27ce11d36e480e5613b06352464736f6c63430008150033",
  "chainId": 2020,
  "contractName": "NameChecker",
  "deployer": "0x0F68eDBE14C8f68481771016d7E2871d6a35DE11",
  "devdoc": {
    "version": 1,
    "kind": "dev",
    "methods": {
      "containsBlacklistedWord(string)": {
        "params": {
          "name": "The string to check."
        },
        "returns": {
          "_0": "true if the name contains blacklisted words, false otherwise."
        }
      },
      "containsInvalidCharacter(string)": {
        "params": {
          "name": "The string to check."
        },
        "returns": {
          "_0": "true if the name contains invalid characters, false otherwise."
        }
      },
      "forbidden(string)": {
        "params": {
          "name": "The string to check."
        },
        "returns": {
          "_0": "true if the name contains forbidden characters or blacklisted words, false otherwise."
        }
      },
      "getAllSubStrings(string)": {
        "details": "Returns an array of all substrings of a given string.",
        "params": {
          "str": "The input string to analyze."
        },
        "returns": {
          "subStrings": "An array of all substrings."
        }
      },
      "getRoleAdmin(bytes32)": {
        "details": "Returns the admin role that controls `role`. See {grantRole} and {revokeRole}. To change a role's admin, use {_setRoleAdmin}."
      },
      "getRoleMember(bytes32,uint256)": {
        "details": "Returns one of the accounts that have `role`. `index` must be a value between 0 and {getRoleMemberCount}, non-inclusive. Role bearers are not sorted in any particular way, and their ordering may change at any point. WARNING: When using {getRoleMember} and {getRoleMemberCount}, make sure you perform all queries on the same block. See the following https://forum.openzeppelin.com/t/iterating-over-elements-on-enumerableset-in-openzeppelin-contracts/2296[forum post] for more information."
      },
      "getRoleMemberCount(bytes32)": {
        "details": "Returns the number of accounts that have `role`. Can be used together with {getRoleMember} to enumerate all bearers of a role."
      },
      "getWordRange()": {
        "details": "Retrieves the current minimum and maximum word lengths allowed.",
        "returns": {
          "max": "The maximum word length allowed.",
          "min": "The minimum word length allowed."
        }
      },
      "grantRole(bytes32,address)": {
        "details": "Grants `role` to `account`. If `account` had not been already granted `role`, emits a {RoleGranted} event. Requirements: - the caller must have ``role``'s admin role. May emit a {RoleGranted} event."
      },
      "hasRole(bytes32,address)": {
        "details": "Returns `true` if `account` has been granted `role`."
      },
      "pack(string)": {
        "details": "Packs a string into a single word representation.",
        "params": {
          "str": "The string to be packed."
        },
        "returns": {
          "packed": "The packed value of the input string."
        }
      },
      "packBulk(string[])": {
        "details": "Packs an array of strings into their single word representations.",
        "params": {
          "strs": "The array of strings to be packed."
        },
        "returns": {
          "packeds": "An array containing the packed values of the input strings."
        }
      },
      "renounceRole(bytes32,address)": {
        "details": "Revokes `role` from the calling account. Roles are often managed via {grantRole} and {revokeRole}: this function's purpose is to provide a mechanism for accounts to lose their privileges if they are compromised (such as when a trusted device is misplaced). If the calling account had been revoked `role`, emits a {RoleRevoked} event. Requirements: - the caller must be `account`. May emit a {RoleRevoked} event."
      },
      "revokeRole(bytes32,address)": {
        "details": "Revokes `role` from `account`. If `account` had been granted `role`, emits a {RoleRevoked} event. Requirements: - the caller must have ``role``'s admin role. May emit a {RoleRevoked} event."
      },
      "setForbiddenWords(string[],bool)": {
        "details": "Sets a list of forbidden words and specifies whether they should be forbidden.",
        "params": {
          "shouldForbid": "Boolean indicating whether the specified words should be forbidden.",
          "words": "An array of raw words in string representations."
        }
      },
      "setForbiddenWords(uint256[],bool)": {
        "details": "Sets a list of forbidden words and specifies whether they should be forbidden.",
        "params": {
          "packedWords": "An array of packed word representations.",
          "shouldForbid": "Boolean indicating whether the specified words should be forbidden."
        }
      },
      "setWordRange(uint8,uint8)": {
        "details": "Sets the minimum and maximum word lengths allowed.",
        "params": {
          "max": "The maximum word length.",
          "min": "The minimum word length."
        }
      },
      "supportsInterface(bytes4)": {
        "details": "See {IERC165-supportsInterface}."
      },
      "totalSubString(uint256)": {
        "details": "Returns the total number of substrings for a given string length, as well as the minimum and maximum allowed word lengths.",
        "params": {
          "strlen": "The length of the input string."
        },
        "returns": {
          "max": "The maximum word length allowed.",
          "min": "The minimum word length allowed.",
          "total": "The total number of substrings."
        }
      }
    },
    "events": {
      "ForbiddenWordsUpdated(address,uint256,bool)": {
        "details": "Emitted when the forbidden words are updated.",
        "params": {
          "operator": "The address that updated the forbidden words list.",
          "shouldForbid": "Boolean indicating whether the specified words should be forbidden.",
          "wordCount": "The number of words in the list."
        }
      },
      "Initialized(uint8)": {
        "details": "Triggered when the contract has been initialized or reinitialized."
      },
      "RoleAdminChanged(bytes32,bytes32,bytes32)": {
        "details": "Emitted when `newAdminRole` is set as ``role``'s admin role, replacing `previousAdminRole` `DEFAULT_ADMIN_ROLE` is the starting admin for all roles, despite {RoleAdminChanged} not being emitted signaling this. _Available since v3.1._"
      },
      "RoleGranted(bytes32,address,address)": {
        "details": "Emitted when `account` is granted `role`. `sender` is the account that originated the contract call, an admin role bearer except when using {AccessControl-_setupRole}."
      },
      "RoleRevoked(bytes32,address,address)": {
        "details": "Emitted when `account` is revoked `role`. `sender` is the account that originated the contract call:   - if using `revokeRole`, it is the admin role bearer   - if using `renounceRole`, it is the role bearer (i.e. `account`)"
      },
      "WordRangeUpdated(address,uint8,uint8)": {
        "details": "Emitted when the word range is updated.",
        "params": {
          "max": "The maximum word length allowed.",
          "min": "The minimum word length allowed.",
          "operator": "The address that updated the word range."
        }
      }
    }
  },
  "isFoundry": true,
  "nonce": 1800,
  "numDeployments": 2,
  "storageLayout": {
    "storage": [
      {
        "astId": 49718,
        "contract": "src/NameChecker.sol:NameChecker",
        "label": "_initialized",
        "offset": 0,
        "slot": "0",
        "type": "t_uint8"
      },
      {
        "astId": 49721,
        "contract": "src/NameChecker.sol:NameChecker",
        "label": "_initializing",
        "offset": 1,
        "slot": "0",
        "type": "t_bool"
      },
      {
        "astId": 48191,
        "contract": "src/NameChecker.sol:NameChecker",
        "label": "_roles",
        "offset": 0,
        "slot": "1",
        "type": "t_mapping(t_bytes32,t_struct(RoleData)48186_storage)"
      },
      {
        "astId": 48501,
        "contract": "src/NameChecker.sol:NameChecker",
        "label": "_roleMembers",
        "offset": 0,
        "slot": "2",
        "type": "t_mapping(t_bytes32,t_struct(AddressSet)54070_storage)"
      },
      {
        "astId": 59521,
        "contract": "src/NameChecker.sol:NameChecker",
        "label": "____gap",
        "offset": 0,
        "slot": "3",
        "type": "t_array(t_uint256)50_storage"
      },
      {
        "astId": 59524,
        "contract": "src/NameChecker.sol:NameChecker",
        "label": "_wordRange",
        "offset": 0,
        "slot": "53",
        "type": "t_struct(WordRange)67990_storage"
      },
      {
        "astId": 59527,
        "contract": "src/NameChecker.sol:NameChecker",
        "label": "_forbiddenWordMap",
        "offset": 0,
        "slot": "54",
        "type": "t_struct(BitMap)53614_storage"
      }
    ],
    "types": {
      "t_address": {
        "encoding": "inplace",
        "label": "address",
        "numberOfBytes": "20"
      },
      "t_array(t_bytes32)dyn_storage": {
        "encoding": "dynamic_array",
        "label": "bytes32[]",
        "numberOfBytes": "32",
        "base": "t_bytes32"
      },
      "t_array(t_uint256)50_storage": {
        "encoding": "inplace",
        "label": "uint256[50]",
        "numberOfBytes": "1600",
        "base": "t_uint256"
      },
      "t_bool": {
        "encoding": "inplace",
        "label": "bool",
        "numberOfBytes": "1"
      },
      "t_bytes32": {
        "encoding": "inplace",
        "label": "bytes32",
        "numberOfBytes": "32"
      },
      "t_mapping(t_address,t_bool)": {
        "encoding": "mapping",
        "key": "t_address",
        "label": "mapping(address => bool)",
        "numberOfBytes": "32",
        "value": "t_bool"
      },
      "t_mapping(t_bytes32,t_struct(AddressSet)54070_storage)": {
        "encoding": "mapping",
        "key": "t_bytes32",
        "label": "mapping(bytes32 => struct EnumerableSet.AddressSet)",
        "numberOfBytes": "32",
        "value": "t_struct(AddressSet)54070_storage"
      },
      "t_mapping(t_bytes32,t_struct(RoleData)48186_storage)": {
        "encoding": "mapping",
        "key": "t_bytes32",
        "label": "mapping(bytes32 => struct AccessControl.RoleData)",
        "numberOfBytes": "32",
        "value": "t_struct(RoleData)48186_storage"
      },
      "t_mapping(t_bytes32,t_uint256)": {
        "encoding": "mapping",
        "key": "t_bytes32",
        "label": "mapping(bytes32 => uint256)",
        "numberOfBytes": "32",
        "value": "t_uint256"
      },
      "t_mapping(t_uint256,t_uint256)": {
        "encoding": "mapping",
        "key": "t_uint256",
        "label": "mapping(uint256 => uint256)",
        "numberOfBytes": "32",
        "value": "t_uint256"
      },
      "t_struct(AddressSet)54070_storage": {
        "encoding": "inplace",
        "label": "struct EnumerableSet.AddressSet",
        "numberOfBytes": "64",
        "members": [
          {
            "astId": 54069,
            "contract": "src/NameChecker.sol:NameChecker",
            "label": "_inner",
            "offset": 0,
            "slot": "0",
            "type": "t_struct(Set)53755_storage"
          }
        ]
      },
      "t_struct(BitMap)53614_storage": {
        "encoding": "inplace",
        "label": "struct BitMaps.BitMap",
        "numberOfBytes": "32",
        "members": [
          {
            "astId": 53613,
            "contract": "src/NameChecker.sol:NameChecker",
            "label": "_data",
            "offset": 0,
            "slot": "0",
            "type": "t_mapping(t_uint256,t_uint256)"
          }
        ]
      },
      "t_struct(RoleData)48186_storage": {
        "encoding": "inplace",
        "label": "struct AccessControl.RoleData",
        "numberOfBytes": "64",
        "members": [
          {
            "astId": 48183,
            "contract": "src/NameChecker.sol:NameChecker",
            "label": "members",
            "offset": 0,
            "slot": "0",
            "type": "t_mapping(t_address,t_bool)"
          },
          {
            "astId": 48185,
            "contract": "src/NameChecker.sol:NameChecker",
            "label": "adminRole",
            "offset": 0,
            "slot": "1",
            "type": "t_bytes32"
          }
        ]
      },
      "t_struct(Set)53755_storage": {
        "encoding": "inplace",
        "label": "struct EnumerableSet.Set",
        "numberOfBytes": "64",
        "members": [
          {
            "astId": 53750,
            "contract": "src/NameChecker.sol:NameChecker",
            "label": "_values",
            "offset": 0,
            "slot": "0",
            "type": "t_array(t_bytes32)dyn_storage"
          },
          {
            "astId": 53754,
            "contract": "src/NameChecker.sol:NameChecker",
            "label": "_indexes",
            "offset": 0,
            "slot": "1",
            "type": "t_mapping(t_bytes32,t_uint256)"
          }
        ]
      },
      "t_struct(WordRange)67990_storage": {
        "encoding": "inplace",
        "label": "struct LibSubString.WordRange",
        "numberOfBytes": "32",
        "members": [
          {
            "astId": 67987,
            "contract": "src/NameChecker.sol:NameChecker",
            "label": "min",
            "offset": 0,
            "slot": "0",
            "type": "t_uint8"
          },
          {
            "astId": 67989,
            "contract": "src/NameChecker.sol:NameChecker",
            "label": "max",
            "offset": 1,
            "slot": "0",
            "type": "t_uint8"
          }
        ]
      },
      "t_uint256": {
        "encoding": "inplace",
        "label": "uint256",
        "numberOfBytes": "32"
      },
      "t_uint8": {
        "encoding": "inplace",
        "label": "uint8",
        "numberOfBytes": "1"
      }
    }
  },
  "timestamp": 1699948299,
  "userdoc": {
    "version": 1,
    "kind": "user",
    "methods": {
      "containsBlacklistedWord(string)": {
        "notice": "Checks if a given name contains any blacklisted words."
      },
      "containsInvalidCharacter(string)": {
        "notice": "Checks if a given name contains any invalid characters. requirements: - all characters in name must in range [a-z] or [0-9]."
      },
      "forbidden(string)": {
        "notice": "Checks if a given name contains any forbidden characters or blacklisted words."
      },
      "pack(string)": {
        "notice": "Returns `uint256(0)` if the length is zero or greater than 31."
      },
      "packBulk(string[])": {
        "notice": "Returns an array of packed values, along with the minimum and maximum string lengths."
      }
    }
  }
}