{
  "abi": [
    {
      "inputs": [
        {
          "internalType": "address",
          "name": "owner_",
          "type": "address"
        }
      ],
      "stateMutability": "nonpayable",
      "type": "constructor"
    },
    {
      "anonymous": false,
      "inputs": [
        {
          "indexed": true,
          "internalType": "address",
          "name": "previousOwner",
          "type": "address"
        },
        {
          "indexed": true,
          "internalType": "address",
          "name": "newOwner",
          "type": "address"
        }
      ],
      "name": "OwnershipTransferred",
      "type": "event"
    },
    {
      "inputs": [],
      "name": "kill",
      "outputs": [],
      "stateMutability": "nonpayable",
      "type": "function"
    },
    {
      "inputs": [
        {
          "internalType": "contract INSUnified",
          "name": "rns",
          "type": "address"
        },
        {
          "internalType": "uint256",
          "name": "parentId",
          "type": "uint256"
        },
        {
          "internalType": "address",
          "name": "resolver",
          "type": "address"
        },
        {
          "internalType": "uint64",
          "name": "duration",
          "type": "uint64"
        },
        {
          "internalType": "address[]",
          "name": "tos",
          "type": "address[]"
        },
        {
          "internalType": "string[]",
          "name": "labels",
          "type": "string[]"
        }
      ],
      "name": "multiMint",
      "outputs": [],
      "stateMutability": "nonpayable",
      "type": "function"
    },
    {
      "inputs": [
        {
          "internalType": "address[]",
          "name": "tos",
          "type": "address[]"
        },
        {
          "internalType": "bytes[]",
          "name": "callDatas",
          "type": "bytes[]"
        },
        {
          "internalType": "uint256[]",
          "name": "values",
          "type": "uint256[]"
        }
      ],
      "name": "multicall",
      "outputs": [
        {
          "internalType": "bool[]",
          "name": "results",
          "type": "bool[]"
        },
        {
          "internalType": "bytes[]",
          "name": "returnDatas",
          "type": "bytes[]"
        }
      ],
      "stateMutability": "payable",
      "type": "function"
    },
    {
      "inputs": [],
      "name": "owner",
      "outputs": [
        {
          "internalType": "address",
          "name": "",
          "type": "address"
        }
      ],
      "stateMutability": "view",
      "type": "function"
    },
    {
      "inputs": [],
      "name": "renounceOwnership",
      "outputs": [],
      "stateMutability": "nonpayable",
      "type": "function"
    },
    {
      "inputs": [
        {
          "internalType": "address",
          "name": "newOwner",
          "type": "address"
        }
      ],
      "name": "transferOwnership",
      "outputs": [],
      "stateMutability": "nonpayable",
      "type": "function"
    }
  ],
  "address": "0x8975923D01132bEB6c412F827f63D44712726E13",
  "args": "0x0000000000000000000000000f68edbe14c8f68481771016d7e2871d6a35de11",
  "blockNumber": 29173308,
  "bytecode": "0x608060405234801561001057600080fd5b50604051610b16380380610b1683398101604081905261002f916100f1565b610038336100a1565b6001600160a01b0381166100925760405162461bcd60e51b815260206004820152601660248201527f6f776e65725f203d3d2061646472657373283078302900000000000000000000604482015260640160405180910390fd5b61009b816100a1565b50610121565b600080546001600160a01b038381166001600160a01b0319831681178455604051919092169283917f8be0079c531659141344cd1fd0a4f28419497f9722a3daafe3b4186f6b6457e09190a35050565b60006020828403121561010357600080fd5b81516001600160a01b038116811461011a57600080fd5b9392505050565b6109e6806101306000396000f3fe6080604052600436106100555760003560e01c8063281818291461005a578063387451801461008457806341c0e1b5146100a6578063715018a6146100bb5780638da5cb5b146100d0578063f2fde38b146100f8575b600080fd5b61006d610068366004610618565b610118565b60405161007b9291906106b2565b60405180910390f35b34801561009057600080fd5b506100a461009f3660046107a6565b610372565b005b3480156100b257600080fd5b506100a4610463565b3480156100c757600080fd5b506100a461046e565b3480156100dc57600080fd5b506000546040516001600160a01b03909116815260200161007b565b34801561010457600080fd5b506100a4610113366004610857565b610482565b6060806101236104fb565b868514801561013157508683145b6101735760405162461bcd60e51b815260206004820152600e60248201526d0d2dcecc2d8d2c840d8cadccee8d60931b60448201526064015b60405180910390fd5b8667ffffffffffffffff81111561018c5761018c61087b565b6040519080825280602002602001820160405280156101b5578160200160208202803683370190505b5091508667ffffffffffffffff8111156101d1576101d161087b565b60405190808252806020026020018201604052801561020457816020015b60608152602001906001900390816101ef5790505b50905060005b878110156103665788888281811061022457610224610891565b90506020020160208101906102399190610857565b6001600160a01b031685858381811061025457610254610891565b9050602002013588888481811061026d5761026d610891565b905060200281019061027f91906108a7565b60405161028d9291906108ee565b60006040518083038185875af1925050503d80600081146102ca576040519150601f19603f3d011682016040523d82523d6000602084013e6102cf565b606091505b508483815181106102e2576102e2610891565b602002602001018484815181106102fb576102fb610891565b602002602001018290528215151515815250505061035682828151811061032457610324610891565b602002602001015184838151811061033e5761033e610891565b6020026020010151151561055590919063ffffffff16565b61035f816108fe565b905061020a565b50965096945050505050565b61037a6104fb565b60005b8181101561045857886001600160a01b0316630570891f898585858181106103a7576103a7610891565b90506020028101906103b991906108a7565b8b8a8a888181106103cc576103cc610891565b90506020020160208101906103e19190610857565b8c6040518763ffffffff1660e01b815260040161040396959493929190610925565b60408051808303816000875af1158015610421573d6000803e3d6000fd5b505050506040513d601f19601f820116820180604052508101906104459190610982565b505080610451906108fe565b905061037d565b505050505050505050565b61046b6104fb565b33ff5b6104766104fb565b610480600061057c565b565b61048a6104fb565b6001600160a01b0381166104ef5760405162461bcd60e51b815260206004820152602660248201527f4f776e61626c653a206e6577206f776e657220697320746865207a65726f206160448201526564647265737360d01b606482015260840161016a565b6104f88161057c565b50565b6000546001600160a01b031633146104805760405162461bcd60e51b815260206004820181905260248201527f4f776e61626c653a2063616c6c6572206973206e6f7420746865206f776e6572604482015260640161016a565b816105785780518015610569578060208301fd5b5063350c20f16000526004601cfd5b5050565b600080546001600160a01b038381166001600160a01b0319831681178455604051919092169283917f8be0079c531659141344cd1fd0a4f28419497f9722a3daafe3b4186f6b6457e09190a35050565b60008083601f8401126105de57600080fd5b50813567ffffffffffffffff8111156105f657600080fd5b6020830191508360208260051b850101111561061157600080fd5b9250929050565b6000806000806000806060878903121561063157600080fd5b863567ffffffffffffffff8082111561064957600080fd5b6106558a838b016105cc565b9098509650602089013591508082111561066e57600080fd5b61067a8a838b016105cc565b9096509450604089013591508082111561069357600080fd5b506106a089828a016105cc565b979a9699509497509295939492505050565b604080825283519082018190526000906020906060840190828701845b828110156106ed5781511515845292840192908401906001016106cf565b50505083810382850152845180825282820190600581901b8301840187850160005b8381101561076c57601f19808785030186528251805180865260005b81811015610746578281018b01518782018c01528a0161072b565b5060008682018b015296890196601f01909116909301870192509086019060010161070f565b50909998505050505050505050565b6001600160a01b03811681146104f857600080fd5b67ffffffffffffffff811681146104f857600080fd5b60008060008060008060008060c0898b0312156107c257600080fd5b88356107cd8161077b565b97506020890135965060408901356107e48161077b565b955060608901356107f481610790565b9450608089013567ffffffffffffffff8082111561081157600080fd5b61081d8c838d016105cc565b909650945060a08b013591508082111561083657600080fd5b506108438b828c016105cc565b999c989b5096995094979396929594505050565b60006020828403121561086957600080fd5b81356108748161077b565b9392505050565b634e487b7160e01b600052604160045260246000fd5b634e487b7160e01b600052603260045260246000fd5b6000808335601e198436030181126108be57600080fd5b83018035915067ffffffffffffffff8211156108d957600080fd5b60200191503681900382131561061157600080fd5b8183823760009101908152919050565b60006001820161091e57634e487b7160e01b600052601160045260246000fd5b5060010190565b86815260a060208201528460a0820152848660c0830137600060c08683018101919091526001600160a01b03948516604083015292909316606084015267ffffffffffffffff166080830152601f909201601f1916010192915050565b6000806040838503121561099557600080fd5b82516109a081610790565b602093909301519294929350505056fea264697066735822122012bd3f094f885f140be9c6457fdeaec77d126758f41b77d9fe178dbec6cf7fb664736f6c63430008150033",
  "chainId": 2020,
  "contractName": "OwnedMulticaller",
  "deployer": "0x0F68eDBE14C8f68481771016d7E2871d6a35DE11",
  "devdoc": {
    "version": 1,
    "kind": "dev",
    "methods": {
      "owner()": {
        "details": "Returns the address of the current owner."
      },
      "renounceOwnership()": {
        "details": "Leaves the contract without owner. It will not be possible to call `onlyOwner` functions. Can only be called by the current owner. NOTE: Renouncing ownership will leave the contract without an owner, thereby disabling any functionality that is only available to the owner."
      },
      "transferOwnership(address)": {
        "details": "Transfers ownership of the contract to a new account (`newOwner`). Can only be called by the current owner."
      }
    }
  },
  "isFoundry": true,
  "nonce": 286,
  "numDeployments": 1,
  "storageLayout": {
    "storage": [
      {
        "astId": 48713,
        "contract": "src/utils/OwnedMulticaller.sol:OwnedMulticaller",
        "label": "_owner",
        "offset": 0,
        "slot": "0",
        "type": "t_address"
      }
    ],
    "types": {
      "t_address": {
        "encoding": "inplace",
        "label": "address",
        "numberOfBytes": "20"
      }
    }
  },
  "timestamp": 1699347511,
  "userdoc": {
    "version": 1,
    "kind": "user"
  }
}