{
  "abi": [
    {
      "inputs": [],
      "stateMutability": "payable",
      "type": "constructor"
    },
    {
      "inputs": [],
      "name": "InvalidContentType",
      "type": "error"
    },
    {
      "anonymous": false,
      "inputs": [
        {
          "indexed": true,
          "internalType": "bytes32",
          "name": "node",
          "type": "bytes32"
        },
        {
          "indexed": true,
          "internalType": "uint256",
          "name": "contentType",
          "type": "uint256"
        }
      ],
      "name": "ABIChanged",
      "type": "event"
    },
    {
      "anonymous": false,
      "inputs": [
        {
          "indexed": true,
          "internalType": "bytes32",
          "name": "node",
          "type": "bytes32"
        },
        {
          "indexed": false,
          "internalType": "address",
          "name": "addr",
          "type": "address"
        }
      ],
      "name": "AddrChanged",
      "type": "event"
    },
    {
      "anonymous": false,
      "inputs": [
        {
          "indexed": true,
          "internalType": "address",
          "name": "owner",
          "type": "address"
        },
        {
          "indexed": true,
          "internalType": "address",
          "name": "operator",
          "type": "address"
        },
        {
          "indexed": false,
          "internalType": "bool",
          "name": "approved",
          "type": "bool"
        }
      ],
      "name": "ApprovalForAll",
      "type": "event"
    },
    {
      "anonymous": false,
      "inputs": [
        {
          "indexed": false,
          "internalType": "address",
          "name": "owner",
          "type": "address"
        },
        {
          "indexed": true,
          "internalType": "bytes32",
          "name": "node",
          "type": "bytes32"
        },
        {
          "indexed": true,
          "internalType": "address",
          "name": "delegate",
          "type": "address"
        },
        {
          "indexed": true,
          "internalType": "bool",
          "name": "approved",
          "type": "bool"
        }
      ],
      "name": "Approved",
      "type": "event"
    },
    {
      "anonymous": false,
      "inputs": [
        {
          "indexed": true,
          "internalType": "bytes32",
          "name": "node",
          "type": "bytes32"
        },
        {
          "indexed": false,
          "internalType": "bytes",
          "name": "hash",
          "type": "bytes"
        }
      ],
      "name": "ContentHashChanged",
      "type": "event"
    },
    {
      "anonymous": false,
      "inputs": [
        {
          "indexed": true,
          "internalType": "bytes32",
          "name": "node",
          "type": "bytes32"
        },
        {
          "indexed": false,
          "internalType": "bytes",
          "name": "name",
          "type": "bytes"
        },
        {
          "indexed": false,
          "internalType": "uint16",
          "name": "resource",
          "type": "uint16"
        },
        {
          "indexed": false,
          "internalType": "bytes",
          "name": "record",
          "type": "bytes"
        }
      ],
      "name": "DNSRecordChanged",
      "type": "event"
    },
    {
      "anonymous": false,
      "inputs": [
        {
          "indexed": true,
          "internalType": "bytes32",
          "name": "node",
          "type": "bytes32"
        },
        {
          "indexed": false,
          "internalType": "bytes",
          "name": "name",
          "type": "bytes"
        },
        {
          "indexed": false,
          "internalType": "uint16",
          "name": "resource",
          "type": "uint16"
        }
      ],
      "name": "DNSRecordDeleted",
      "type": "event"
    },
    {
      "anonymous": false,
      "inputs": [
        {
          "indexed": true,
          "internalType": "bytes32",
          "name": "node",
          "type": "bytes32"
        },
        {
          "indexed": false,
          "internalType": "bytes",
          "name": "lastzonehash",
          "type": "bytes"
        },
        {
          "indexed": false,
          "internalType": "bytes",
          "name": "zonehash",
          "type": "bytes"
        }
      ],
      "name": "DNSZonehashChanged",
      "type": "event"
    },
    {
      "anonymous": false,
      "inputs": [
        {
          "indexed": false,
          "internalType": "uint8",
          "name": "version",
          "type": "uint8"
        }
      ],
      "name": "Initialized",
      "type": "event"
    },
    {
      "anonymous": false,
      "inputs": [
        {
          "indexed": true,
          "internalType": "bytes32",
          "name": "node",
          "type": "bytes32"
        },
        {
          "indexed": true,
          "internalType": "bytes4",
          "name": "interfaceID",
          "type": "bytes4"
        },
        {
          "indexed": false,
          "internalType": "address",
          "name": "implementer",
          "type": "address"
        }
      ],
      "name": "InterfaceChanged",
      "type": "event"
    },
    {
      "anonymous": false,
      "inputs": [
        {
          "indexed": true,
          "internalType": "bytes32",
          "name": "node",
          "type": "bytes32"
        },
        {
          "indexed": false,
          "internalType": "string",
          "name": "name",
          "type": "string"
        }
      ],
      "name": "NameChanged",
      "type": "event"
    },
    {
      "anonymous": false,
      "inputs": [
        {
          "indexed": true,
          "internalType": "bytes32",
          "name": "node",
          "type": "bytes32"
        },
        {
          "indexed": false,
          "internalType": "bytes32",
          "name": "x",
          "type": "bytes32"
        },
        {
          "indexed": false,
          "internalType": "bytes32",
          "name": "y",
          "type": "bytes32"
        }
      ],
      "name": "PubkeyChanged",
      "type": "event"
    },
    {
      "anonymous": false,
      "inputs": [
        {
          "indexed": true,
          "internalType": "bytes32",
          "name": "node",
          "type": "bytes32"
        },
        {
          "indexed": true,
          "internalType": "string",
          "name": "indexedKey",
          "type": "string"
        },
        {
          "indexed": false,
          "internalType": "string",
          "name": "key",
          "type": "string"
        },
        {
          "indexed": false,
          "internalType": "string",
          "name": "value",
          "type": "string"
        }
      ],
      "name": "TextChanged",
      "type": "event"
    },
    {
      "anonymous": false,
      "inputs": [
        {
          "indexed": true,
          "internalType": "bytes32",
          "name": "node",
          "type": "bytes32"
        },
        {
          "indexed": false,
          "internalType": "uint64",
          "name": "newVersion",
          "type": "uint64"
        }
      ],
      "name": "VersionChanged",
      "type": "event"
    },
    {
      "inputs": [
        {
          "internalType": "bytes32",
          "name": "node",
          "type": "bytes32"
        },
        {
          "internalType": "uint256",
          "name": "contentTypes",
          "type": "uint256"
        }
      ],
      "name": "ABI",
      "outputs": [
        {
          "internalType": "uint256",
          "name": "",
          "type": "uint256"
        },
        {
          "internalType": "bytes",
          "name": "",
          "type": "bytes"
        }
      ],
      "stateMutability": "view",
      "type": "function"
    },
    {
      "inputs": [
        {
          "internalType": "bytes32",
          "name": "node",
          "type": "bytes32"
        }
      ],
      "name": "addr",
      "outputs": [
        {
          "internalType": "address payable",
          "name": "",
          "type": "address"
        }
      ],
      "stateMutability": "view",
      "type": "function"
    },
    {
      "inputs": [
        {
          "internalType": "bytes32",
          "name": "node",
          "type": "bytes32"
        }
      ],
      "name": "clearRecords",
      "outputs": [],
      "stateMutability": "nonpayable",
      "type": "function"
    },
    {
      "inputs": [
        {
          "internalType": "bytes32",
          "name": "node",
          "type": "bytes32"
        }
      ],
      "name": "contentHash",
      "outputs": [
        {
          "internalType": "bytes",
          "name": "",
          "type": "bytes"
        }
      ],
      "stateMutability": "view",
      "type": "function"
    },
    {
      "inputs": [
        {
          "internalType": "bytes32",
          "name": "node",
          "type": "bytes32"
        },
        {
          "internalType": "bytes32",
          "name": "name",
          "type": "bytes32"
        },
        {
          "internalType": "uint16",
          "name": "resource",
          "type": "uint16"
        }
      ],
      "name": "dnsRecord",
      "outputs": [
        {
          "internalType": "bytes",
          "name": "",
          "type": "bytes"
        }
      ],
      "stateMutability": "view",
      "type": "function"
    },
    {
      "inputs": [],
      "name": "getRNSUnified",
      "outputs": [
        {
          "internalType": "contract INSUnified",
          "name": "",
          "type": "address"
        }
      ],
      "stateMutability": "view",
      "type": "function"
    },
    {
      "inputs": [],
      "name": "getReverseRegistrar",
      "outputs": [
        {
          "internalType": "contract INSReverseRegistrar",
          "name": "",
          "type": "address"
        }
      ],
      "stateMutability": "view",
      "type": "function"
    },
    {
      "inputs": [
        {
          "internalType": "bytes32",
          "name": "node",
          "type": "bytes32"
        },
        {
          "internalType": "bytes32",
          "name": "name",
          "type": "bytes32"
        }
      ],
      "name": "hasDNSRecords",
      "outputs": [
        {
          "internalType": "bool",
          "name": "",
          "type": "bool"
        }
      ],
      "stateMutability": "view",
      "type": "function"
    },
    {
      "inputs": [
        {
          "internalType": "contract INSUnified",
          "name": "rnsUnified",
          "type": "address"
        },
        {
          "internalType": "contract INSReverseRegistrar",
          "name": "reverseRegistrar",
          "type": "address"
        }
      ],
      "name": "initialize",
      "outputs": [],
      "stateMutability": "nonpayable",
      "type": "function"
    },
    {
      "inputs": [
        {
          "internalType": "bytes32",
          "name": "node",
          "type": "bytes32"
        },
        {
          "internalType": "bytes4",
          "name": "interfaceID",
          "type": "bytes4"
        }
      ],
      "name": "interfaceImplementer",
      "outputs": [
        {
          "internalType": "address",
          "name": "",
          "type": "address"
        }
      ],
      "stateMutability": "view",
      "type": "function"
    },
    {
      "inputs": [
        {
          "internalType": "bytes32",
          "name": "node",
          "type": "bytes32"
        },
        {
          "internalType": "address",
          "name": "account",
          "type": "address"
        }
      ],
      "name": "isAuthorized",
      "outputs": [
        {
          "internalType": "bool",
          "name": "authorized",
          "type": "bool"
        }
      ],
      "stateMutability": "view",
      "type": "function"
    },
    {
      "inputs": [
        {
          "internalType": "bytes[]",
          "name": "data",
          "type": "bytes[]"
        }
      ],
      "name": "multicall",
      "outputs": [
        {
          "internalType": "bytes[]",
          "name": "results",
          "type": "bytes[]"
        }
      ],
      "stateMutability": "nonpayable",
      "type": "function"
    },
    {
      "inputs": [
        {
          "internalType": "bytes32",
          "name": "node",
          "type": "bytes32"
        },
        {
          "internalType": "bytes[]",
          "name": "data",
          "type": "bytes[]"
        }
      ],
      "name": "multicallWithNodeCheck",
      "outputs": [
        {
          "internalType": "bytes[]",
          "name": "results",
          "type": "bytes[]"
        }
      ],
      "stateMutability": "nonpayable",
      "type": "function"
    },
    {
      "inputs": [
        {
          "internalType": "bytes32",
          "name": "node",
          "type": "bytes32"
        }
      ],
      "name": "name",
      "outputs": [
        {
          "internalType": "string",
          "name": "",
          "type": "string"
        }
      ],
      "stateMutability": "view",
      "type": "function"
    },
    {
      "inputs": [
        {
          "internalType": "bytes32",
          "name": "node",
          "type": "bytes32"
        }
      ],
      "name": "pubkey",
      "outputs": [
        {
          "internalType": "bytes32",
          "name": "x",
          "type": "bytes32"
        },
        {
          "internalType": "bytes32",
          "name": "y",
          "type": "bytes32"
        }
      ],
      "stateMutability": "view",
      "type": "function"
    },
    {
      "inputs": [
        {
          "internalType": "bytes32",
          "name": "node",
          "type": "bytes32"
        }
      ],
      "name": "recordVersions",
      "outputs": [
        {
          "internalType": "uint64",
          "name": "",
          "type": "uint64"
        }
      ],
      "stateMutability": "view",
      "type": "function"
    },
    {
      "inputs": [
        {
          "internalType": "bytes32",
          "name": "node",
          "type": "bytes32"
        },
        {
          "internalType": "uint256",
          "name": "contentType",
          "type": "uint256"
        },
        {
          "internalType": "bytes",
          "name": "data",
          "type": "bytes"
        }
      ],
      "name": "setABI",
      "outputs": [],
      "stateMutability": "nonpayable",
      "type": "function"
    },
    {
      "inputs": [
        {
          "internalType": "bytes32",
          "name": "node",
          "type": "bytes32"
        },
        {
          "internalType": "address",
          "name": "addr_",
          "type": "address"
        }
      ],
      "name": "setAddr",
      "outputs": [],
      "stateMutability": "nonpayable",
      "type": "function"
    },
    {
      "inputs": [
        {
          "internalType": "bytes32",
          "name": "node",
          "type": "bytes32"
        },
        {
          "internalType": "bytes",
          "name": "hash",
          "type": "bytes"
        }
      ],
      "name": "setContentHash",
      "outputs": [],
      "stateMutability": "nonpayable",
      "type": "function"
    },
    {
      "inputs": [
        {
          "internalType": "bytes32",
          "name": "node",
          "type": "bytes32"
        },
        {
          "internalType": "bytes",
          "name": "data",
          "type": "bytes"
        }
      ],
      "name": "setDNSRecords",
      "outputs": [],
      "stateMutability": "nonpayable",
      "type": "function"
    },
    {
      "inputs": [
        {
          "internalType": "bytes32",
          "name": "node",
          "type": "bytes32"
        },
        {
          "internalType": "bytes4",
          "name": "interfaceID",
          "type": "bytes4"
        },
        {
          "internalType": "address",
          "name": "implementer",
          "type": "address"
        }
      ],
      "name": "setInterface",
      "outputs": [],
      "stateMutability": "nonpayable",
      "type": "function"
    },
    {
      "inputs": [
        {
          "internalType": "bytes32",
          "name": "node",
          "type": "bytes32"
        },
        {
          "internalType": "string",
          "name": "newName",
          "type": "string"
        }
      ],
      "name": "setName",
      "outputs": [],
      "stateMutability": "nonpayable",
      "type": "function"
    },
    {
      "inputs": [
        {
          "internalType": "bytes32",
          "name": "node",
          "type": "bytes32"
        },
        {
          "internalType": "bytes32",
          "name": "x",
          "type": "bytes32"
        },
        {
          "internalType": "bytes32",
          "name": "y",
          "type": "bytes32"
        }
      ],
      "name": "setPubkey",
      "outputs": [],
      "stateMutability": "nonpayable",
      "type": "function"
    },
    {
      "inputs": [
        {
          "internalType": "bytes32",
          "name": "node",
          "type": "bytes32"
        },
        {
          "internalType": "string",
          "name": "key",
          "type": "string"
        },
        {
          "internalType": "string",
          "name": "value",
          "type": "string"
        }
      ],
      "name": "setText",
      "outputs": [],
      "stateMutability": "nonpayable",
      "type": "function"
    },
    {
      "inputs": [
        {
          "internalType": "bytes32",
          "name": "node",
          "type": "bytes32"
        },
        {
          "internalType": "bytes",
          "name": "hash",
          "type": "bytes"
        }
      ],
      "name": "setZonehash",
      "outputs": [],
      "stateMutability": "nonpayable",
      "type": "function"
    },
    {
      "inputs": [
        {
          "internalType": "bytes4",
          "name": "interfaceID",
          "type": "bytes4"
        }
      ],
      "name": "supportsInterface",
      "outputs": [
        {
          "internalType": "bool",
          "name": "",
          "type": "bool"
        }
      ],
      "stateMutability": "view",
      "type": "function"
    },
    {
      "inputs": [
        {
          "internalType": "bytes32",
          "name": "node",
          "type": "bytes32"
        },
        {
          "internalType": "string",
          "name": "key",
          "type": "string"
        }
      ],
      "name": "text",
      "outputs": [
        {
          "internalType": "string",
          "name": "",
          "type": "string"
        }
      ],
      "stateMutability": "view",
      "type": "function"
    },
    {
      "inputs": [
        {
          "internalType": "bool",
          "name": "requireSuccess",
          "type": "bool"
        },
        {
          "internalType": "bytes[]",
          "name": "data",
          "type": "bytes[]"
        }
      ],
      "name": "tryMulticall",
      "outputs": [
        {
          "internalType": "bytes[]",
          "name": "results",
          "type": "bytes[]"
        }
      ],
      "stateMutability": "nonpayable",
      "type": "function"
    },
    {
      "inputs": [
        {
          "internalType": "bytes32",
          "name": "node",
          "type": "bytes32"
        }
      ],
      "name": "zonehash",
      "outputs": [
        {
          "internalType": "bytes",
          "name": "",
          "type": "bytes"
        }
      ],
      "stateMutability": "view",
      "type": "function"
    }
  ],
  "address": "0x507eB5107c59A2B5Af923c38e83Af8d59443b62D",
  "args": "0x",
  "blockNumber": 29142324,
  "bytecode": "0x60806040526200000e62000014565b620000d8565b6101cd54610100900460ff1615620000825760405162461bcd60e51b815260206004820152602760248201527f496e697469616c697a61626c653a20636f6e747261637420697320696e697469604482015266616c697a696e6760c81b606482015260840160405180910390fd5b6101cd5460ff90811614620000d6576101cd805460ff191660ff9081179091556040519081527f7f26b83ff96e1f2b6a682f133852f6798a09c465da95921460cefb38474024989060200160405180910390a15b565b612b7680620000e86000396000f3fe608060405234801561001057600080fd5b50600436106101cf5760003560e01c8063691f343111610104578063ac9650d8116100a2578063d700ff3311610071578063d700ff3314610486578063e32954eb146104c7578063e59d895d146104da578063f8014891146104ed57600080fd5b8063ac9650d8146103e5578063c869023314610405578063ce3decdc14610460578063d5fa2b001461047357600080fd5b80638c843314116100de5780638c8433141461039a578063956db465146103ac578063a821a728146103bf578063a8fa5682146103d257600080fd5b8063691f34311461036157806370687fcb14610374578063773722131461038757600080fd5b80633603d758116101715780634cbf6ba41161014b5780634cbf6ba4146102ce57806359d1d43c1461031b5780635c98042b1461033b578063623195b01461034e57600080fd5b80633603d758146102955780633b3b57de146102a8578063485cc955146102bb57600080fd5b8063124a319c116101ad578063124a319c146102245780632203ab561461024f578063237a78fb1461027057806329cd62ea1461028257600080fd5b806301ffc9a7146101d45780630af179d7146101fc57806310f13a8c14610211575b600080fd5b6101e76101e236600461219e565b610500565b60405190151581526020015b60405180910390f35b61020f61020a3660046121fc565b610511565b005b61020f61021f366004612247565b61052d565b6102376102323660046122c0565b61054d565b6040516001600160a01b0390911681526020016101f3565b61026261025d3660046122f0565b610745565b6040516101f3929190612362565b610201546001600160a01b0316610237565b61020f61029036600461237b565b61087e565b61020f6102a33660046123a7565b610894565b6102376102b63660046123a7565b6108ac565b61020f6102c93660046123d5565b61091b565b6101e76102dc3660046122f0565b6000828152603260209081526040808320546001600160401b0316835260ff825280832094835293815283822092825291909152205461ffff16151590565b61032e6103293660046121fc565b610a63565b6040516101f39190612403565b61032e6103493660046123a7565b610b45565b61020f61035c366004612416565b610c06565b61032e61036f3660046123a7565b610c24565b61020f6103823660046121fc565b610dbf565b61020f6103953660046121fc565b610dd5565b610200546001600160a01b0316610237565b6101e76103ba366004612468565b610e20565b61032e6103cd3660046123a7565b610ea5565b61032e6103e036600461248d565b610ee0565b6103f86103f3366004612511565b610f2f565b6040516101f39190612552565b61044b6104133660046123a7565b6000818152603260209081526040808320546001600160401b0316835261019982528083209383529290522080546001909101549091565b604080519283526020830191909152016101f3565b61020f61046e3660046121fc565b610f44565b61020f610481366004612468565b610f5a565b6104af6104943660046123a7565b6000908152603260205260409020546001600160401b031690565b6040516001600160401b0390911681526020016101f3565b6103f86104d53660046125b4565b610fb8565b61020f6104e83660046125f2565b611099565b6103f86104fb366004612637565b6110af565b600061050b826110bc565b92915050565b8261051c81336110e1565b610527848484611143565b50505050565b8461053881336110e1565b610545868686868661133a565b505050505050565b6000828152603260209081526040808320546001600160401b03168352610133825280832085845282528083206001600160e01b0319851684529091528120546001600160a01b031680156105a357905061050b565b60006105ae856108ac565b90506001600160a01b0381166105c95760009250505061050b565b6040516301ffc9a760e01b60248201526000906060906001600160a01b0384169060440160408051601f198184030181529181526020820180516001600160e01b03166301ffc9a760e01b179052516106229190612672565b600060405180830381855afa9150503d806000811461065d576040519150601f19603f3d011682016040523d82523d6000602084013e610662565b606091505b50909250905061067282826113f5565b61068357600094505050505061050b565b6040516001600160e01b0319871660248201526001600160a01b0384169060440160408051601f198184030181529181526020820180516001600160e01b03166301ffc9a760e01b179052516106d99190612672565b600060405180830381855afa9150503d8060008114610714576040519150601f19603f3d011682016040523d82523d6000602084013e610719565b606091505b50909250905061072982826113f5565b61073a57600094505050505061050b565b509095945050505050565b6000828152603260209081526040808320546001600160401b0316835260658252808320858452909152812060609060015b84811161085e57808516158015906107a75750600081815260208390526040812080546107a39061268e565b9050115b1561085657808260008381526020019081526020016000208080546107cb9061268e565b80601f01602080910402602001604051908101604052809291908181526020018280546107f79061268e565b80156108445780601f1061081957610100808354040283529160200191610844565b820191906000526020600020905b81548152906001019060200180831161082757829003601f168201915b50505050509050935093505050610877565b60011b610777565b5060006040518060200160405280600081525092509250505b9250929050565b8261088981336110e1565b610527848484611435565b8061089f81336110e1565b6108a8826114bd565b5050565b610200546040516331a9108f60e11b8152600481018390526000916001600160a01b031690636352211e90602401602060405180830381865afa1580156108f7573d6000803e3d6000fd5b505050506040513d601f19601f8201168201806040525081019061050b91906126c8565b6101cd54610100900460ff161580801561093d57506101cd54600160ff909116105b806109585750303b15801561095857506101cd5460ff166001145b6109c05760405162461bcd60e51b815260206004820152602e60248201527f496e697469616c697a61626c653a20636f6e747261637420697320616c72656160448201526d191e481a5b9a5d1a585b1a5e995960921b60648201526084015b60405180910390fd5b6101cd805460ff1916600117905580156109e5576101cd805461ff0019166101001790555b61020080546001600160a01b038086166001600160a01b0319928316179092556102018054928516929091169190911790558015610a5e576101cd805461ff0019169055604051600181527f7f26b83ff96e1f2b6a682f133852f6798a09c465da95921460cefb38474024989060200160405180910390a15b505050565b6000838152603260209081526040808320546001600160401b031683526101cc825280832086845290915290819020905160609190610aa590859085906126e5565b90815260200160405180910390208054610abe9061268e565b80601f0160208091040260200160405190810160405280929190818152602001828054610aea9061268e565b8015610b375780601f10610b0c57610100808354040283529160200191610b37565b820191906000526020600020905b815481529060010190602001808311610b1a57829003601f168201915b505050505090509392505050565b6000818152603260209081526040808320546001600160401b0316835261010082528083208484529091529020805460609190610b819061268e565b80601f0160208091040260200160405190810160405280929190818152602001828054610bad9061268e565b8015610bfa5780601f10610bcf57610100808354040283529160200191610bfa565b820191906000526020600020905b815481529060010190602001808311610bdd57829003601f168201915b50505050509050919050565b83610c1181336110e1565b610c1d85858585611527565b5050505050565b61020154604051635c9fcd8560e11b8152600481018390526060916000916001600160a01b039091169063b93f9b0a90602401602060405180830381865afa158015610c74573d6000803e3d6000fd5b505050506040513d601f19601f82011682018060405250810190610c9891906126c8565b90506000610ca5846115c5565b610200546040516304c3ccb160e11b81529192506000916001600160a01b0390911690630987996290610cdc908590600401612403565b602060405180830381865afa158015610cf9573d6000803e3d6000fd5b505050506040513d601f19601f82011682018060405250810190610d1d91906126f5565b610200546040516331a9108f60e11b8152600481018390529192506001600160a01b0385811692911690636352211e90602401602060405180830381865afa158015610d6d573d6000803e3d6000fd5b505050506040513d601f19601f82011682018060405250810190610d9191906126c8565b6001600160a01b031614610db45760405180602001604052806000815250610db6565b815b95945050505050565b82610dca81336110e1565b610527848484611601565b82610de081336110e1565b6105278484848080601f01602080910402602001604051908101604052809392919081815260200183838082843760009201919091525061166b92505050565b6102005460405163fd3fa91960e01b81526001600160a01b0383811660048301526024820185905260186044830152600092169063fd3fa919906064016040805180830381865afa158015610e79573d6000803e3d6000fd5b505050506040513d601f19601f82011682018060405250810190610e9d919061270e565b509392505050565b6000818152603260209081526040808320546001600160401b0316835260cb82528083208484529091529020805460609190610b819061268e565b6000838152603260209081526040808320546001600160401b0316835260fe82528083208684528252808320858452825280832061ffff851684529091529020805460609190610abe9061268e565b6060610f3d600184846116df565b9392505050565b82610f4f81336110e1565b6105278484846117fb565b81610f6581336110e1565b60405162461bcd60e51b815260206004820152602260248201527f5075626c69635265736f6c7665723a2043616e6e6f7420736574206164647265604482015261737360f01b60648201526084016109b7565b606083156110855760005b8281101561108357838382818110610fdd57610fdd61273d565b9050602002810190610fef9190612753565b610ffe91602491600491612799565b611007916127c3565b851461107b5760405162461bcd60e51b815260206004820152603960248201527f5075626c69635265736f6c7665723a20416c6c207265636f726473206d75737460448201527f20686176652061206d61746368696e67206e616d65686173680000000000000060648201526084016109b7565b600101610fc3565b505b611091600184846116df565b949350505050565b826110a481336110e1565b61052784848461192c565b60606110918484846116df565b60006001600160e01b03198216635497184960e01b148061050b575061050b826119c1565b6110eb8282610e20565b6108a85760405162461bcd60e51b815260206004820152602360248201527f5075626c69635265736f6c7665723a20756e617574686f72697a65642063616c6044820152623632b960e91b60648201526084016109b7565b6000838152603260209081526040808320548151601f86018490048402810184019092528482528392606092839285926001600160401b039091169183916111aa9183918c908c908190840183828082843760009201919091525092939250506119e69050565b90505b805151602082015110156112d4578661ffff1660000361121257806040015196506111d781611a47565b9450846040516020016111ea9190612672565b60405160208183030381529060405280519060200120925061120b81611a68565b93506112c6565b600061121d82611a47565b9050816040015161ffff168861ffff16141580611241575061123f8682611a84565b155b156112c45761129d8b878a8d8d8080601f016020809104026020016040519081016040528093929190818152602001838380828437600092019190915250505060208801518d91506112949082906127f7565b8b51158a611aa2565b8160400151975081602001519650809550858051906020012093506112c182611a68565b94505b505b6112cf81611d0a565b6111ad565b5083511561132f5761132f8985888b8b8080601f0160208091040260200160405190810160405280939291908181526020018383808284376000920191909152508c925061132691508290508e6127f7565b89511588611aa2565b505050505050505050565b6000858152603260209081526040808320546001600160401b031683526101cc82528083208884529091529081902090518391839161137c90889088906126e5565b90815260200160405180910390209182611397929190612866565b5083836040516113a89291906126e5565b6040518091039020857f448bc014f1536726cf8d54ff3d6481ed3cbc683c2591ca204274009afa09b1a1868686866040516113e6949392919061294e565b60405180910390a35050505050565b60008280611404575060208251105b80610f3d575081601f8151811061141d5761141d61273d565b01602001516001600160f81b03191615905092915050565b6040805180820182528381526020808201848152600087815260328352848120546001600160401b03168152610199835284812088825283528490209251835551600190920191909155815184815290810183905284917f1d6f5e03d3f63eb58751986629a5439baee5079ff04f345becb66e23eb154e4691015b60405180910390a2505050565b60008181526032602090815260409182902080546001600160401b038082166001011667ffffffffffffffff199091168117909155915191825282917fc6621ccb8f3f5a04bb6502154b2caf6adf5983fe76dfef1cfc9c42e3579db444910160405180910390a250565b826115336001826127f7565b161561155257604051631e76820d60e31b815260040160405180910390fd5b6000848152603260209081526040808320546001600160401b031683526065825280832087845282528083208684529091529020611591828483612866565b50604051839085907faa121bbeef5f32f5961a2a28966e769023910fc9479059ee3495d4c1a696efe390600090a350505050565b6000818152603260209081526040808320546001600160401b0316835261016682528083208484529091529020805460609190610b819061268e565b6000838152603260209081526040808320546001600160401b0316835260cb82528083208684529091529020611638828483612866565b50827ff138098ddddc53c41c8649e6533fdf517348a8e9d24e9db5e5628db793fb76b483836040516114b0929190612980565b6000828152603260209081526040808320546001600160401b03168352610166825280832085845290915290206116a28282612994565b50817fb7d29e911041e8d9b843369e890bcb72c9388692ba48b65ac54e7214c4c348f7826040516116d39190612403565b60405180910390a25050565b606081806001600160401b038111156116fa576116fa61280a565b60405190808252806020026020018201604052801561172d57816020015b60608152602001906001900390816117185790505b5091506000606060005b838110156117f057308787838181106117525761175261273d565b90506020028101906117649190612753565b6040516117729291906126e5565b600060405180830381855af49150503d80600081146117ad576040519150601f19603f3d011682016040523d82523d6000602084013e6117b2565b606091505b50909350915087156117ca576117ca83151583611df2565b818582815181106117dd576117dd61273d565b6020908102919091010152600101611737565b505050509392505050565b6000838152603260209081526040808320546001600160401b03168084526101008352818420878552909252822080549192916118379061268e565b80601f01602080910402602001604051908101604052809291908181526020018280546118639061268e565b80156118b05780601f10611885576101008083540402835291602001916118b0565b820191906000526020600020905b81548152906001019060200180831161189357829003601f168201915b505050506001600160401b0384166000908152610100602090815260408083208a845290915290209192506118e89050848683612866565b50847f8f15ed4b723ef428f250961da8315675b507046737e19319fc1a4d81bfe87f8582868660405161191d93929190612a53565b60405180910390a25050505050565b6000838152603260209081526040808320546001600160401b03168352610133825280832086845282528083206001600160e01b031986168085529083529281902080546001600160a01b0319166001600160a01b038616908117909155905190815285917f7c69f06bea0bdef565b709e93a147836b0063ba2dd89f02d0b7e8d931e6a6daa910160405180910390a3505050565b60006001600160e01b031982166304920eeb60e41b148061050b575061050b82611e15565b611a346040518060e001604052806060815260200160008152602001600061ffff168152602001600061ffff168152602001600063ffffffff16815260200160008152602001600081525090565b82815260c0810182905261050b81611d0a565b6020810151815160609161050b91611a5f9082611e3a565b84519190611e94565b60a081015160c082015160609161050b91611a5f9082906127f7565b600081518351148015610f3d5750610f3d8360008460008751611f0a565b865160208801206000611ab6878787611e94565b90508315611bdd576001600160401b038316600090815260fe602090815260408083208d84528252808320858452825280832061ffff8c16845290915290208054611b009061268e565b159050611b5e576001600160401b038316600090815260ff602090815260408083208d845282528083208584529091528120805461ffff1691611b4283612a83565b91906101000a81548161ffff021916908361ffff160217905550505b6001600160401b038316600090815260fe602090815260408083208d84528252808320858452825280832061ffff8c1684529091528120611b9e91612132565b897f03528ed0c2a3ebc993b12ce3c16bb382f9c7d88ef7d8a1bf290eaf35955a12078a8a604051611bd0929190612aa1565b60405180910390a2611cfe565b6001600160401b038316600090815260fe602090815260408083208d84528252808320858452825280832061ffff8c16845290915290208054611c1f9061268e565b9050600003611c7f576001600160401b038316600090815260ff602090815260408083208d845282528083208584529091528120805461ffff1691611c6383612ac7565b91906101000a81548161ffff021916908361ffff160217905550505b6001600160401b038316600090815260fe602090815260408083208d84528252808320858452825280832061ffff8c1684529091529020611cc08282612994565b50897f52a608b3303a48862d07a73d82fa221318c0027fbbcfb1b2329bface3f19ff2b8a8a84604051611cf593929190612ae8565b60405180910390a25b50505050505050505050565b60c08101516020820181905281515111611d215750565b6000611d3582600001518360200151611e3a565b8260200151611d449190612b17565b8251909150611d539082611f2d565b61ffff166040830152611d67600282612b17565b8251909150611d769082611f2d565b61ffff166060830152611d8a600282612b17565b8251909150611d999082611f55565b63ffffffff166080830152611daf600482612b17565b8251909150600090611dc19083611f2d565b61ffff169050611dd2600283612b17565b60a084018190529150611de58183612b17565b60c0909301929092525050565b816108a85780518015611e06578060208301fd5b5063350c20f16000526004601cfd5b60006001600160e01b0319821663e1a460d960e01b148061050b575061050b82611f7f565b6000815b83518110611e4e57611e4e612b2a565b6000611e5a8583611fa4565b60ff169050611e6a816001612b17565b611e749083612b17565b915080600003611e845750611e8a565b50611e3e565b61109183826127f7565b8251606090611ea38385612b17565b1115611eae57600080fd5b6000826001600160401b03811115611ec857611ec861280a565b6040519080825280601f01601f191660200182016040528015611ef2576020820181803683370190505b5090506020808201908686010161073a828287611fc8565b6000611f1784848461201e565b611f2287878561201e565b149695505050505050565b8151600090611f3d836002612b17565b1115611f4857600080fd5b50016002015161ffff1690565b8151600090611f65836004612b17565b1115611f7057600080fd5b50016004015163ffffffff1690565b60006001600160e01b03198216630f140b1160e11b148061050b575061050b82612042565b6000828281518110611fb857611fb861273d565b016020015160f81c905092915050565b602081106120005781518352611fdf602084612b17565b9250611fec602083612b17565b9150611ff96020826127f7565b9050611fc8565b905182516020929092036101000a6000190180199091169116179052565b825160009061202d8385612b17565b111561203857600080fd5b5091016020012090565b60006001600160e01b0319821663f7d7b8c160e01b148061050b575061050b8260006001600160e01b0319821663a20b2f5560e01b148061209357506001600160e01b031982166392a5e8f760e01b145b8061050b575061050b8260006001600160e01b0319821663d849d8e360e01b148061050b575061050b8260006001600160e01b03198216637760be6f60e11b148061050b575061050b8260006001600160e01b031982166320191f7360e11b148061050b575061050b8260006001600160e01b0319821663e103286b60e01b148061050b57506301ffc9a760e01b6001600160e01b031983161461050b565b50805461213e9061268e565b6000825580601f1061214e575050565b601f01602090049060005260206000209081019061216c919061216f565b50565b5b808211156121845760008155600101612170565b5090565b6001600160e01b03198116811461216c57600080fd5b6000602082840312156121b057600080fd5b8135610f3d81612188565b60008083601f8401126121cd57600080fd5b5081356001600160401b038111156121e457600080fd5b60208301915083602082850101111561087757600080fd5b60008060006040848603121561221157600080fd5b8335925060208401356001600160401b0381111561222e57600080fd5b61223a868287016121bb565b9497909650939450505050565b60008060008060006060868803121561225f57600080fd5b8535945060208601356001600160401b038082111561227d57600080fd5b61228989838a016121bb565b909650945060408801359150808211156122a257600080fd5b506122af888289016121bb565b969995985093965092949392505050565b600080604083850312156122d357600080fd5b8235915060208301356122e581612188565b809150509250929050565b6000806040838503121561230357600080fd5b50508035926020909101359150565b60005b8381101561232d578181015183820152602001612315565b50506000910152565b6000815180845261234e816020860160208601612312565b601f01601f19169290920160200192915050565b8281526040602082015260006110916040830184612336565b60008060006060848603121561239057600080fd5b505081359360208301359350604090920135919050565b6000602082840312156123b957600080fd5b5035919050565b6001600160a01b038116811461216c57600080fd5b600080604083850312156123e857600080fd5b82356123f3816123c0565b915060208301356122e5816123c0565b602081526000610f3d6020830184612336565b6000806000806060858703121561242c57600080fd5b843593506020850135925060408501356001600160401b0381111561245057600080fd5b61245c878288016121bb565b95989497509550505050565b6000806040838503121561247b57600080fd5b8235915060208301356122e5816123c0565b6000806000606084860312156124a257600080fd5b8335925060208401359150604084013561ffff811681146124c257600080fd5b809150509250925092565b60008083601f8401126124df57600080fd5b5081356001600160401b038111156124f657600080fd5b6020830191508360208260051b850101111561087757600080fd5b6000806020838503121561252457600080fd5b82356001600160401b0381111561253a57600080fd5b612546858286016124cd565b90969095509350505050565b6000602080830181845280855180835260408601915060408160051b870101925083870160005b828110156125a757603f19888603018452612595858351612336565b94509285019290850190600101612579565b5092979650505050505050565b6000806000604084860312156125c957600080fd5b8335925060208401356001600160401b038111156125e657600080fd5b61223a868287016124cd565b60008060006060848603121561260757600080fd5b83359250602084013561261981612188565b915060408401356124c2816123c0565b801515811461216c57600080fd5b60008060006040848603121561264c57600080fd5b833561265781612629565b925060208401356001600160401b038111156125e657600080fd5b60008251612684818460208701612312565b9190910192915050565b600181811c908216806126a257607f821691505b6020821081036126c257634e487b7160e01b600052602260045260246000fd5b50919050565b6000602082840312156126da57600080fd5b8151610f3d816123c0565b8183823760009101908152919050565b60006020828403121561270757600080fd5b5051919050565b6000806040838503121561272157600080fd5b825161272c81612629565b60208401519092506122e581612188565b634e487b7160e01b600052603260045260246000fd5b6000808335601e1984360301811261276a57600080fd5b8301803591506001600160401b0382111561278457600080fd5b60200191503681900382131561087757600080fd5b600080858511156127a957600080fd5b838611156127b657600080fd5b5050820193919092039150565b8035602083101561050b57600019602084900360031b1b1692915050565b634e487b7160e01b600052601160045260246000fd5b8181038181111561050b5761050b6127e1565b634e487b7160e01b600052604160045260246000fd5b601f821115610a5e57600081815260208120601f850160051c810160208610156128475750805b601f850160051c820191505b8181101561054557828155600101612853565b6001600160401b0383111561287d5761287d61280a565b6128918361288b835461268e565b83612820565b6000601f8411600181146128c557600085156128ad5750838201355b600019600387901b1c1916600186901b178355610c1d565b600083815260209020601f19861690835b828110156128f657868501358255602094850194600190920191016128d6565b50868210156129135760001960f88860031b161c19848701351681555b505060018560011b0183555050505050565b81835281816020850137506000828201602090810191909152601f909101601f19169091010190565b604081526000612962604083018688612925565b8281036020840152612975818587612925565b979650505050505050565b602081526000611091602083018486612925565b81516001600160401b038111156129ad576129ad61280a565b6129c1816129bb845461268e565b84612820565b602080601f8311600181146129f657600084156129de5750858301515b600019600386901b1c1916600185901b178555610545565b600085815260208120601f198616915b82811015612a2557888601518255948401946001909101908401612a06565b5085821015612a435787850151600019600388901b60f8161c191681555b5050505050600190811b01905550565b604081526000612a666040830186612336565b8281036020840152612a79818587612925565b9695505050505050565b600061ffff821680612a9757612a976127e1565b6000190192915050565b604081526000612ab46040830185612336565b905061ffff831660208301529392505050565b600061ffff808316818103612ade57612ade6127e1565b6001019392505050565b606081526000612afb6060830186612336565b61ffff851660208401528281036040840152612a798185612336565b8082018082111561050b5761050b6127e1565b634e487b7160e01b600052600160045260246000fdfea26469706673582212204ca152a79de349ea0468132387bb5edc5165c2c6510730f027cfbf00457e3e2f64736f6c63430008150033",
  "chainId": 2020,
  "contractName": "PublicResolver",
  "deployer": "0x0F68eDBE14C8f68481771016d7E2871d6a35DE11",
  "devdoc": {
    "version": 1,
    "kind": "dev",
    "details": "A simple resolver anyone can use, only allows the owner of a node to set its address.",
    "methods": {
      "ABI(bytes32,uint256)": {
        "details": "Returns the ABI associated with an INS node. Defined in EIP-205, see more at https://eips.ethereum.org/EIPS/eip-205",
        "params": {
          "contentTypes": "A bitwise OR of the ABI formats accepted by the caller.",
          "node": "The INS node to query"
        },
        "returns": {
          "_0": "The content type of the return value",
          "_1": "The ABI data"
        }
      },
      "addr(bytes32)": {
        "details": "Override {IAddressResolvable-addr}."
      },
      "clearRecords(bytes32)": {
        "details": "Increments the record version associated with an INS node. Requirements: - The method caller must be authorized to change user fields of RNS Token `node`. See indicator {ModifyingIndicator.USER_FIELDS_INDICATOR}. Emits an event {VersionChanged}.",
        "params": {
          "node": "The node to update."
        }
      },
      "contentHash(bytes32)": {
        "details": "Returns the content hash associated with an INS node.",
        "params": {
          "node": "The INS node to query."
        },
        "returns": {
          "_0": "The associated content hash."
        }
      },
      "dnsRecord(bytes32,bytes32,uint16)": {
        "details": "Obtain a DNS record.",
        "params": {
          "name": "the keccak-256 hash of the fully-qualified name for which to fetch the record",
          "node": "the namehash of the node for which to fetch the record",
          "resource": "the ID of the resource as per https://en.wikipedia.org/wiki/List_of_DNS_record_types"
        },
        "returns": {
          "_0": "the DNS record in wire format if present, otherwise empty"
        }
      },
      "getRNSUnified()": {
        "details": "Retrieves the RNSUnified associated with this resolver."
      },
      "getReverseRegistrar()": {
        "details": "Retrieves the reverse registrar associated with this resolver."
      },
      "hasDNSRecords(bytes32,bytes32)": {
        "details": "Checks whether a given node has records.",
        "params": {
          "name": "the namehash of the node for which to check the records",
          "node": "the namehash of the node for which to check the records"
        }
      },
      "interfaceImplementer(bytes32,bytes4)": {
        "details": "Returns the address of a contract that implements the specified interface for this name. If an implementer has not been set for this interfaceID and name, the resolver will query the contract at `addr()`. If `addr()` is set, a contract exists at that address, and that contract implements EIP165 and returns `true` for the specified interfaceID, its address will be returned.",
        "params": {
          "interfaceID": "The EIP 165 interface ID to check for.",
          "node": "The INS node to query."
        },
        "returns": {
          "_0": "The address that implements this interface, or 0 if the interface is unsupported."
        }
      },
      "isAuthorized(bytes32,address)": {
        "details": "Checks if an account is authorized to manage the resolution of a specific RNS node.",
        "params": {
          "account": "The account address being checked for authorization.",
          "node": "The RNS node."
        },
        "returns": {
          "authorized": "A boolean indicating whether the account is authorized."
        }
      },
      "multicall(bytes[])": {
        "details": "Executes bulk action to the original contract. Reverts if there is a single call failed.",
        "params": {
          "data": "The calldata to original contract."
        }
      },
      "multicallWithNodeCheck(bytes32,bytes[])": {
        "details": "This function provides an extra security check when called from privileged contracts (such as RONRegistrarController) that can set records on behalf of the node owners. Reverts if the node is not null but calldata is mismatched."
      },
      "name(bytes32)": {
        "details": "Override {INameResolver-name}."
      },
      "pubkey(bytes32)": {
        "details": "See {IPublicKeyResolver-pubkey}."
      },
      "recordVersions(bytes32)": {
        "details": "Returns the latest version of a node."
      },
      "setABI(bytes32,uint256,bytes)": {
        "details": "Sets the ABI associated with an INS node. Nodes may have one ABI of each content type. To remove an ABI, set it to the empty string. Requirements: - The method caller must be authorized to change user fields of RNS Token `node`. See indicator {ModifyingIndicator.USER_FIELDS_INDICATOR}. - The content type must be powers of 2. Emitted an event {ABIChanged}.",
        "params": {
          "contentType": "The content type of the ABI",
          "data": "The ABI data.",
          "node": "The node to update."
        }
      },
      "setAddr(bytes32,address)": {
        "details": "Sets the address associated with an INS node. Requirement: - The method caller must be authorized to change user fields of RNS Token `node`. See indicator {ModifyingIndicator.USER_FIELDS_INDICATOR}. Emits an event {AddrChanged}.",
        "params": {
          "addr": "The address to set.",
          "node": "The node to update."
        }
      },
      "setContentHash(bytes32,bytes)": {
        "details": "Sets the content hash associated with an INS node. Requirements: - The method caller must be authorized to change user fields of RNS Token `node`. See indicator {ModifyingIndicator.USER_FIELDS_INDICATOR}. Emits an event {ContentHashChanged}.",
        "params": {
          "hash": "The content hash to set",
          "node": "The node to update."
        }
      },
      "setDNSRecords(bytes32,bytes)": {
        "details": "Set one or more DNS records.  Records are supplied in wire-format.  Records with the same node/name/resource must be supplied one after the other to ensure the data is updated correctly. For example, if the data was supplied:   a.example.com IN A 1.2.3.4   a.example.com IN A 5.6.7.8   www.example.com IN CNAME a.example.com. then this would store the two A records for a.example.com correctly as a single RRSET, however if the data was supplied:   a.example.com IN A 1.2.3.4   www.example.com IN CNAME a.example.com.   a.example.com IN A 5.6.7.8 then this would store the first A record, the CNAME, then the second A record which would overwrite the first. Requirements: - The method caller must be authorized to change user fields of RNS Token `node`. See indicator {ModifyingIndicator.USER_FIELDS_INDICATOR}.",
        "params": {
          "data": "the DNS wire format records to set",
          "node": "the namehash of the node for which to set the records"
        }
      },
      "setInterface(bytes32,bytes4,address)": {
        "details": "Sets an interface associated with a name. Setting the address to 0 restores the default behaviour of querying the contract at `addr()` for interface support. Requirements: - The method caller must be authorized to change user fields of RNS Token `node`. See indicator {ModifyingIndicator.USER_FIELDS_INDICATOR}.",
        "params": {
          "implementer": "The address of a contract that implements this interface for this node.",
          "interfaceID": "The EIP 165 interface ID.",
          "node": "The node to update."
        }
      },
      "setName(bytes32,string)": {
        "details": "Sets the name associated with an INS node, for reverse records. Requirements: - The method caller must be authorized to change user fields of RNS Token `node`. See indicator {ModifyingIndicator.USER_FIELDS_INDICATOR}. Emits an event {NameChanged}.",
        "params": {
          "node": "The node to update."
        }
      },
      "setPubkey(bytes32,bytes32,bytes32)": {
        "details": "Sets the SECP256k1 public key associated with an INS node. Requirements: - The method caller must be authorized to change user fields of RNS Token `node`. See indicator {ModifyingIndicator.USER_FIELDS_INDICATOR}. Emits an event {PubkeyChanged}.",
        "params": {
          "node": "The INS node to query",
          "x": "the X coordinate of the curve point for the public key.",
          "y": "the Y coordinate of the curve point for the public key."
        }
      },
      "setText(bytes32,string,string)": {
        "details": "Sets the text data associated with an INS node and key. Requirements: - The method caller must be authorized to change user fields of RNS Token `node`. See indicator {ModifyingIndicator.USER_FIELDS_INDICATOR}. Emits an event {TextChanged}.",
        "params": {
          "key": "The key to set.",
          "node": "The node to update.",
          "value": "The text data value to set."
        }
      },
      "setZonehash(bytes32,bytes)": {
        "details": "Sets the hash for the zone. Requirements: - The method caller must be authorized to change user fields of RNS Token `node`. See indicator {ModifyingIndicator.USER_FIELDS_INDICATOR}. Emits an event {DNSZonehashChanged}.",
        "params": {
          "hash": "The zonehash to set",
          "node": "The node to update."
        }
      },
      "supportsInterface(bytes4)": {
        "details": "Override {IERC165-supportsInterface}."
      },
      "text(bytes32,string)": {
        "params": {
          "key": "The text data key to query.",
          "node": "The INS node to query."
        },
        "returns": {
          "_0": "The associated text data."
        }
      },
      "tryMulticall(bool,bytes[])": {
        "details": "Executes bulk action to the original contract.",
        "params": {
          "data": "The calldata to original contract.",
          "requireSuccess": "Flag to indicating whether the contract reverts if there is a single call failed."
        }
      },
      "zonehash(bytes32)": {
        "details": "Obtains the hash for the zone.",
        "params": {
          "node": "The INS node to query."
        },
        "returns": {
          "_0": "The associated contenthash."
        }
      }
    },
    "events": {
      "ABIChanged(bytes32,uint256)": {
        "details": "Emitted when the ABI is changed."
      },
      "AddrChanged(bytes32,address)": {
        "details": "Emitted when an address of a node is changed."
      },
      "ApprovalForAll(address,address,bool)": {
        "details": "See {IERC1155-ApprovalForAll}. Logged when an operator is added or removed."
      },
      "Approved(address,bytes32,address,bool)": {
        "details": "Logged when a delegate is approved or an approval is revoked."
      },
      "ContentHashChanged(bytes32,bytes)": {
        "details": "Emitted when the content hash of a node is changed."
      },
      "DNSRecordChanged(bytes32,bytes,uint16,bytes)": {
        "details": "Emitted whenever a given node/name/resource's RRSET is updated."
      },
      "DNSRecordDeleted(bytes32,bytes,uint16)": {
        "details": "Emitted whenever a given node/name/resource's RRSET is deleted."
      },
      "DNSZonehashChanged(bytes32,bytes,bytes)": {
        "details": "Emitted whenever a given node's zone hash is updated."
      },
      "Initialized(uint8)": {
        "details": "Triggered when the contract has been initialized or reinitialized."
      },
      "InterfaceChanged(bytes32,bytes4,address)": {
        "details": "Emitted when the interface of node is changed."
      },
      "NameChanged(bytes32,string)": {
        "details": "Emitted when a node name is changed."
      },
      "PubkeyChanged(bytes32,bytes32,bytes32)": {
        "details": "Emitted when a node public key is changed."
      },
      "TextChanged(bytes32,string,string,string)": {
        "details": "Emitted when a node text is changed."
      },
      "VersionChanged(bytes32,uint64)": {
        "details": "Emitted when the version of a node is changed."
      }
    },
    "title": "Public Resolver"
  },
  "isFoundry": true,
  "nonce": 270,
  "numDeployments": 1,
  "storageLayout": {
    "storage": [
      {
        "astId": 69776,
        "contract": "src/resolvers/PublicResolver.sol:PublicResolver",
        "label": "____gap",
        "offset": 0,
        "slot": "0",
        "type": "t_array(t_uint256)50_storage"
      },
      {
        "astId": 69781,
        "contract": "src/resolvers/PublicResolver.sol:PublicResolver",
        "label": "_recordVersion",
        "offset": 0,
        "slot": "50",
        "type": "t_mapping(t_bytes32,t_uint64)"
      },
      {
        "astId": 69531,
        "contract": "src/resolvers/PublicResolver.sol:PublicResolver",
        "label": "____gap",
        "offset": 0,
        "slot": "51",
        "type": "t_array(t_uint256)50_storage"
      },
      {
        "astId": 69540,
        "contract": "src/resolvers/PublicResolver.sol:PublicResolver",
        "label": "_versionalAbi",
        "offset": 0,
        "slot": "101",
        "type": "t_mapping(t_uint64,t_mapping(t_bytes32,t_mapping(t_uint256,t_bytes_storage)))"
      },
      {
        "astId": 69686,
        "contract": "src/resolvers/PublicResolver.sol:PublicResolver",
        "label": "____gap",
        "offset": 0,
        "slot": "102",
        "type": "t_array(t_uint256)50_storage"
      },
      {
        "astId": 69693,
        "contract": "src/resolvers/PublicResolver.sol:PublicResolver",
        "label": "_versionAddress",
        "offset": 0,
        "slot": "152",
        "type": "t_mapping(t_uint64,t_mapping(t_bytes32,t_address))"
      },
      {
        "astId": 69849,
        "contract": "src/resolvers/PublicResolver.sol:PublicResolver",
        "label": "____gap",
        "offset": 0,
        "slot": "153",
        "type": "t_array(t_uint256)50_storage"
      },
      {
        "astId": 69856,
        "contract": "src/resolvers/PublicResolver.sol:PublicResolver",
        "label": "_versionContentHash",
        "offset": 0,
        "slot": "203",
        "type": "t_mapping(t_uint64,t_mapping(t_bytes32,t_bytes_storage))"
      },
      {
        "astId": 69948,
        "contract": "src/resolvers/PublicResolver.sol:PublicResolver",
        "label": "____gap",
        "offset": 0,
        "slot": "204",
        "type": "t_array(t_uint256)50_storage"
      },
      {
        "astId": 69959,
        "contract": "src/resolvers/PublicResolver.sol:PublicResolver",
        "label": "_versionRecord",
        "offset": 0,
        "slot": "254",
        "type": "t_mapping(t_uint64,t_mapping(t_bytes32,t_mapping(t_bytes32,t_mapping(t_uint16,t_bytes_storage))))"
      },
      {
        "astId": 69968,
        "contract": "src/resolvers/PublicResolver.sol:PublicResolver",
        "label": "_versionNameEntriesCount",
        "offset": 0,
        "slot": "255",
        "type": "t_mapping(t_uint64,t_mapping(t_bytes32,t_mapping(t_bytes32,t_uint16)))"
      },
      {
        "astId": 69975,
        "contract": "src/resolvers/PublicResolver.sol:PublicResolver",
        "label": "_versionZonehash",
        "offset": 0,
        "slot": "256",
        "type": "t_mapping(t_uint64,t_mapping(t_bytes32,t_bytes_storage))"
      },
      {
        "astId": 70426,
        "contract": "src/resolvers/PublicResolver.sol:PublicResolver",
        "label": "____gap",
        "offset": 0,
        "slot": "257",
        "type": "t_array(t_uint256)50_storage"
      },
      {
        "astId": 70435,
        "contract": "src/resolvers/PublicResolver.sol:PublicResolver",
        "label": "_versionInterface",
        "offset": 0,
        "slot": "307",
        "type": "t_mapping(t_uint64,t_mapping(t_bytes32,t_mapping(t_bytes4,t_address)))"
      },
      {
        "astId": 70650,
        "contract": "src/resolvers/PublicResolver.sol:PublicResolver",
        "label": "____gap",
        "offset": 0,
        "slot": "308",
        "type": "t_array(t_uint256)50_storage"
      },
      {
        "astId": 70657,
        "contract": "src/resolvers/PublicResolver.sol:PublicResolver",
        "label": "_versionName",
        "offset": 0,
        "slot": "358",
        "type": "t_mapping(t_uint64,t_mapping(t_bytes32,t_string_storage))"
      },
      {
        "astId": 70737,
        "contract": "src/resolvers/PublicResolver.sol:PublicResolver",
        "label": "____gap",
        "offset": 0,
        "slot": "359",
        "type": "t_array(t_uint256)50_storage"
      },
      {
        "astId": 70745,
        "contract": "src/resolvers/PublicResolver.sol:PublicResolver",
        "label": "_versionPublicKey",
        "offset": 0,
        "slot": "409",
        "type": "t_mapping(t_uint64,t_mapping(t_bytes32,t_struct(PublicKey)67754_storage))"
      },
      {
        "astId": 71341,
        "contract": "src/resolvers/PublicResolver.sol:PublicResolver",
        "label": "____gap",
        "offset": 0,
        "slot": "410",
        "type": "t_array(t_uint256)50_storage"
      },
      {
        "astId": 71350,
        "contract": "src/resolvers/PublicResolver.sol:PublicResolver",
        "label": "_versionText",
        "offset": 0,
        "slot": "460",
        "type": "t_mapping(t_uint64,t_mapping(t_bytes32,t_mapping(t_string_memory_ptr,t_string_storage)))"
      },
      {
        "astId": 50086,
        "contract": "src/resolvers/PublicResolver.sol:PublicResolver",
        "label": "_initialized",
        "offset": 0,
        "slot": "461",
        "type": "t_uint8"
      },
      {
        "astId": 50089,
        "contract": "src/resolvers/PublicResolver.sol:PublicResolver",
        "label": "_initializing",
        "offset": 1,
        "slot": "461",
        "type": "t_bool"
      },
      {
        "astId": 70885,
        "contract": "src/resolvers/PublicResolver.sol:PublicResolver",
        "label": "____gap",
        "offset": 0,
        "slot": "462",
        "type": "t_array(t_uint256)50_storage"
      },
      {
        "astId": 70889,
        "contract": "src/resolvers/PublicResolver.sol:PublicResolver",
        "label": "_rnsUnified",
        "offset": 0,
        "slot": "512",
        "type": "t_contract(INSUnified)67046"
      },
      {
        "astId": 70893,
        "contract": "src/resolvers/PublicResolver.sol:PublicResolver",
        "label": "_reverseRegistrar",
        "offset": 0,
        "slot": "513",
        "type": "t_contract(INSReverseRegistrar)66789"
      }
    ],
    "types": {
      "t_address": {
        "encoding": "inplace",
        "label": "address",
        "numberOfBytes": "20"
      },
      "t_array(t_uint256)50_storage": {
        "encoding": "inplace",
        "label": "uint256[50]",
        "numberOfBytes": "1600",
        "base": "t_uint256"
      },
      "t_bool": {
        "encoding": "inplace",
        "label": "bool",
        "numberOfBytes": "1"
      },
      "t_bytes32": {
        "encoding": "inplace",
        "label": "bytes32",
        "numberOfBytes": "32"
      },
      "t_bytes4": {
        "encoding": "inplace",
        "label": "bytes4",
        "numberOfBytes": "4"
      },
      "t_bytes_storage": {
        "encoding": "bytes",
        "label": "bytes",
        "numberOfBytes": "32"
      },
      "t_contract(INSReverseRegistrar)66789": {
        "encoding": "inplace",
        "label": "contract INSReverseRegistrar",
        "numberOfBytes": "20"
      },
      "t_contract(INSUnified)67046": {
        "encoding": "inplace",
        "label": "contract INSUnified",
        "numberOfBytes": "20"
      },
      "t_mapping(t_bytes32,t_address)": {
        "encoding": "mapping",
        "key": "t_bytes32",
        "label": "mapping(bytes32 => address)",
        "numberOfBytes": "32",
        "value": "t_address"
      },
      "t_mapping(t_bytes32,t_bytes_storage)": {
        "encoding": "mapping",
        "key": "t_bytes32",
        "label": "mapping(bytes32 => bytes)",
        "numberOfBytes": "32",
        "value": "t_bytes_storage"
      },
      "t_mapping(t_bytes32,t_mapping(t_bytes32,t_mapping(t_uint16,t_bytes_storage)))": {
        "encoding": "mapping",
        "key": "t_bytes32",
        "label": "mapping(bytes32 => mapping(bytes32 => mapping(uint16 => bytes)))",
        "numberOfBytes": "32",
        "value": "t_mapping(t_bytes32,t_mapping(t_uint16,t_bytes_storage))"
      },
      "t_mapping(t_bytes32,t_mapping(t_bytes32,t_uint16))": {
        "encoding": "mapping",
        "key": "t_bytes32",
        "label": "mapping(bytes32 => mapping(bytes32 => uint16))",
        "numberOfBytes": "32",
        "value": "t_mapping(t_bytes32,t_uint16)"
      },
      "t_mapping(t_bytes32,t_mapping(t_bytes4,t_address))": {
        "encoding": "mapping",
        "key": "t_bytes32",
        "label": "mapping(bytes32 => mapping(bytes4 => address))",
        "numberOfBytes": "32",
        "value": "t_mapping(t_bytes4,t_address)"
      },
      "t_mapping(t_bytes32,t_mapping(t_string_memory_ptr,t_string_storage))": {
        "encoding": "mapping",
        "key": "t_bytes32",
        "label": "mapping(bytes32 => mapping(string => string))",
        "numberOfBytes": "32",
        "value": "t_mapping(t_string_memory_ptr,t_string_storage)"
      },
      "t_mapping(t_bytes32,t_mapping(t_uint16,t_bytes_storage))": {
        "encoding": "mapping",
        "key": "t_bytes32",
        "label": "mapping(bytes32 => mapping(uint16 => bytes))",
        "numberOfBytes": "32",
        "value": "t_mapping(t_uint16,t_bytes_storage)"
      },
      "t_mapping(t_bytes32,t_mapping(t_uint256,t_bytes_storage))": {
        "encoding": "mapping",
        "key": "t_bytes32",
        "label": "mapping(bytes32 => mapping(uint256 => bytes))",
        "numberOfBytes": "32",
        "value": "t_mapping(t_uint256,t_bytes_storage)"
      },
      "t_mapping(t_bytes32,t_string_storage)": {
        "encoding": "mapping",
        "key": "t_bytes32",
        "label": "mapping(bytes32 => string)",
        "numberOfBytes": "32",
        "value": "t_string_storage"
      },
      "t_mapping(t_bytes32,t_struct(PublicKey)67754_storage)": {
        "encoding": "mapping",
        "key": "t_bytes32",
        "label": "mapping(bytes32 => struct IPublicKeyResolver.PublicKey)",
        "numberOfBytes": "32",
        "value": "t_struct(PublicKey)67754_storage"
      },
      "t_mapping(t_bytes32,t_uint16)": {
        "encoding": "mapping",
        "key": "t_bytes32",
        "label": "mapping(bytes32 => uint16)",
        "numberOfBytes": "32",
        "value": "t_uint16"
      },
      "t_mapping(t_bytes32,t_uint64)": {
        "encoding": "mapping",
        "key": "t_bytes32",
        "label": "mapping(bytes32 => uint64)",
        "numberOfBytes": "32",
        "value": "t_uint64"
      },
      "t_mapping(t_bytes4,t_address)": {
        "encoding": "mapping",
        "key": "t_bytes4",
        "label": "mapping(bytes4 => address)",
        "numberOfBytes": "32",
        "value": "t_address"
      },
      "t_mapping(t_string_memory_ptr,t_string_storage)": {
        "encoding": "mapping",
        "key": "t_string_memory_ptr",
        "label": "mapping(string => string)",
        "numberOfBytes": "32",
        "value": "t_string_storage"
      },
      "t_mapping(t_uint16,t_bytes_storage)": {
        "encoding": "mapping",
        "key": "t_uint16",
        "label": "mapping(uint16 => bytes)",
        "numberOfBytes": "32",
        "value": "t_bytes_storage"
      },
      "t_mapping(t_uint256,t_bytes_storage)": {
        "encoding": "mapping",
        "key": "t_uint256",
        "label": "mapping(uint256 => bytes)",
        "numberOfBytes": "32",
        "value": "t_bytes_storage"
      },
      "t_mapping(t_uint64,t_mapping(t_bytes32,t_address))": {
        "encoding": "mapping",
        "key": "t_uint64",
        "label": "mapping(uint64 => mapping(bytes32 => address))",
        "numberOfBytes": "32",
        "value": "t_mapping(t_bytes32,t_address)"
      },
      "t_mapping(t_uint64,t_mapping(t_bytes32,t_bytes_storage))": {
        "encoding": "mapping",
        "key": "t_uint64",
        "label": "mapping(uint64 => mapping(bytes32 => bytes))",
        "numberOfBytes": "32",
        "value": "t_mapping(t_bytes32,t_bytes_storage)"
      },
      "t_mapping(t_uint64,t_mapping(t_bytes32,t_mapping(t_bytes32,t_mapping(t_uint16,t_bytes_storage))))": {
        "encoding": "mapping",
        "key": "t_uint64",
        "label": "mapping(uint64 => mapping(bytes32 => mapping(bytes32 => mapping(uint16 => bytes))))",
        "numberOfBytes": "32",
        "value": "t_mapping(t_bytes32,t_mapping(t_bytes32,t_mapping(t_uint16,t_bytes_storage)))"
      },
      "t_mapping(t_uint64,t_mapping(t_bytes32,t_mapping(t_bytes32,t_uint16)))": {
        "encoding": "mapping",
        "key": "t_uint64",
        "label": "mapping(uint64 => mapping(bytes32 => mapping(bytes32 => uint16)))",
        "numberOfBytes": "32",
        "value": "t_mapping(t_bytes32,t_mapping(t_bytes32,t_uint16))"
      },
      "t_mapping(t_uint64,t_mapping(t_bytes32,t_mapping(t_bytes4,t_address)))": {
        "encoding": "mapping",
        "key": "t_uint64",
        "label": "mapping(uint64 => mapping(bytes32 => mapping(bytes4 => address)))",
        "numberOfBytes": "32",
        "value": "t_mapping(t_bytes32,t_mapping(t_bytes4,t_address))"
      },
      "t_mapping(t_uint64,t_mapping(t_bytes32,t_mapping(t_string_memory_ptr,t_string_storage)))": {
        "encoding": "mapping",
        "key": "t_uint64",
        "label": "mapping(uint64 => mapping(bytes32 => mapping(string => string)))",
        "numberOfBytes": "32",
        "value": "t_mapping(t_bytes32,t_mapping(t_string_memory_ptr,t_string_storage))"
      },
      "t_mapping(t_uint64,t_mapping(t_bytes32,t_mapping(t_uint256,t_bytes_storage)))": {
        "encoding": "mapping",
        "key": "t_uint64",
        "label": "mapping(uint64 => mapping(bytes32 => mapping(uint256 => bytes)))",
        "numberOfBytes": "32",
        "value": "t_mapping(t_bytes32,t_mapping(t_uint256,t_bytes_storage))"
      },
      "t_mapping(t_uint64,t_mapping(t_bytes32,t_string_storage))": {
        "encoding": "mapping",
        "key": "t_uint64",
        "label": "mapping(uint64 => mapping(bytes32 => string))",
        "numberOfBytes": "32",
        "value": "t_mapping(t_bytes32,t_string_storage)"
      },
      "t_mapping(t_uint64,t_mapping(t_bytes32,t_struct(PublicKey)67754_storage))": {
        "encoding": "mapping",
        "key": "t_uint64",
        "label": "mapping(uint64 => mapping(bytes32 => struct IPublicKeyResolver.PublicKey))",
        "numberOfBytes": "32",
        "value": "t_mapping(t_bytes32,t_struct(PublicKey)67754_storage)"
      },
      "t_string_memory_ptr": {
        "encoding": "bytes",
        "label": "string",
        "numberOfBytes": "32"
      },
      "t_string_storage": {
        "encoding": "bytes",
        "label": "string",
        "numberOfBytes": "32"
      },
      "t_struct(PublicKey)67754_storage": {
        "encoding": "inplace",
        "label": "struct IPublicKeyResolver.PublicKey",
        "numberOfBytes": "64",
        "members": [
          {
            "astId": 67751,
            "contract": "src/resolvers/PublicResolver.sol:PublicResolver",
            "label": "x",
            "offset": 0,
            "slot": "0",
            "type": "t_bytes32"
          },
          {
            "astId": 67753,
            "contract": "src/resolvers/PublicResolver.sol:PublicResolver",
            "label": "y",
            "offset": 0,
            "slot": "1",
            "type": "t_bytes32"
          }
        ]
      },
      "t_uint16": {
        "encoding": "inplace",
        "label": "uint16",
        "numberOfBytes": "2"
      },
      "t_uint256": {
        "encoding": "inplace",
        "label": "uint256",
        "numberOfBytes": "32"
      },
      "t_uint64": {
        "encoding": "inplace",
        "label": "uint64",
        "numberOfBytes": "8"
      },
      "t_uint8": {
        "encoding": "inplace",
        "label": "uint8",
        "numberOfBytes": "1"
      }
    }
  },
  "timestamp": 1699254558,
  "userdoc": {
    "version": 1,
    "kind": "user",
    "methods": {
      "text(bytes32,string)": {
        "notice": "Returns the text data associated with an INS node and key."
      }
    },
    "errors": {
      "InvalidContentType()": [
        {
          "notice": "Thrown when the input content type is invalid."
        }
      ]
    },
    "notice": "Customized version of PublicResolver: https://github.com/ensdomains/ens-contracts/blob/0c75ba23fae76165d51c9c80d76d22261e06179d/contracts/resolvers/PublicResolver.sol"
  }
}