{
  "abi": [
    {
      "type": "constructor",
      "inputs": [],
      "stateMutability": "nonpayable"
    },
    {
      "type": "receive",
      "stateMutability": "payable"
    },
    {
      "type": "function",
      "name": "DEFAULT_ADMIN_ROLE",
      "inputs": [],
      "outputs": [
        {
          "name": "",
          "type": "bytes32",
          "internalType": "bytes32"
        }
      ],
      "stateMutability": "view"
    },
    {
      "type": "function",
      "name": "MAX_PERCENTAGE",
      "inputs": [],
      "outputs": [
        {
          "name": "",
          "type": "uint256",
          "internalType": "uint256"
        }
      ],
      "stateMutability": "view"
    },
    {
      "type": "function",
      "name": "SENDER_ROLE",
      "inputs": [],
      "outputs": [
        {
          "name": "",
          "type": "bytes32",
          "internalType": "bytes32"
        }
      ],
      "stateMutability": "view"
    },
    {
      "type": "function",
      "name": "getCommissions",
      "inputs": [],
      "outputs": [
        {
          "name": "commissionInfos",
          "type": "tuple[]",
          "internalType": "struct INSCommission.Commission[]",
          "components": [
            {
              "name": "recipient",
              "type": "address",
              "internalType": "address payable"
            },
            {
              "name": "ratio",
              "type": "uint256",
              "internalType": "uint256"
            },
            {
              "name": "name",
              "type": "string",
              "internalType": "string"
            }
          ]
        }
      ],
      "stateMutability": "view"
    },
    {
      "type": "function",
      "name": "getRoleAdmin",
      "inputs": [
        {
          "name": "role",
          "type": "bytes32",
          "internalType": "bytes32"
        }
      ],
      "outputs": [
        {
          "name": "",
          "type": "bytes32",
          "internalType": "bytes32"
        }
      ],
      "stateMutability": "view"
    },
    {
      "type": "function",
      "name": "getRoleMember",
      "inputs": [
        {
          "name": "role",
          "type": "bytes32",
          "internalType": "bytes32"
        },
        {
          "name": "index",
          "type": "uint256",
          "internalType": "uint256"
        }
      ],
      "outputs": [
        {
          "name": "",
          "type": "address",
          "internalType": "address"
        }
      ],
      "stateMutability": "view"
    },
    {
      "type": "function",
      "name": "getRoleMemberCount",
      "inputs": [
        {
          "name": "role",
          "type": "bytes32",
          "internalType": "bytes32"
        }
      ],
      "outputs": [
        {
          "name": "",
          "type": "uint256",
          "internalType": "uint256"
        }
      ],
      "stateMutability": "view"
    },
    {
      "type": "function",
      "name": "grantRole",
      "inputs": [
        {
          "name": "role",
          "type": "bytes32",
          "internalType": "bytes32"
        },
        {
          "name": "account",
          "type": "address",
          "internalType": "address"
        }
      ],
      "outputs": [],
      "stateMutability": "nonpayable"
    },
    {
      "type": "function",
      "name": "hasRole",
      "inputs": [
        {
          "name": "role",
          "type": "bytes32",
          "internalType": "bytes32"
        },
        {
          "name": "account",
          "type": "address",
          "internalType": "address"
        }
      ],
      "outputs": [
        {
          "name": "",
          "type": "bool",
          "internalType": "bool"
        }
      ],
      "stateMutability": "view"
    },
    {
      "type": "function",
      "name": "initialize",
      "inputs": [
        {
          "name": "admin",
          "type": "address",
          "internalType": "address"
        },
        {
          "name": "commissionInfos",
          "type": "tuple[]",
          "internalType": "struct INSCommission.Commission[]",
          "components": [
            {
              "name": "recipient",
              "type": "address",
              "internalType": "address payable"
            },
            {
              "name": "ratio",
              "type": "uint256",
              "internalType": "uint256"
            },
            {
              "name": "name",
              "type": "string",
              "internalType": "string"
            }
          ]
        },
        {
          "name": "allowedSenders",
          "type": "address[]",
          "internalType": "address[]"
        }
      ],
      "outputs": [],
      "stateMutability": "nonpayable"
    },
    {
      "type": "function",
      "name": "renounceRole",
      "inputs": [
        {
          "name": "role",
          "type": "bytes32",
          "internalType": "bytes32"
        },
        {
          "name": "account",
          "type": "address",
          "internalType": "address"
        }
      ],
      "outputs": [],
      "stateMutability": "nonpayable"
    },
    {
      "type": "function",
      "name": "revokeRole",
      "inputs": [
        {
          "name": "role",
          "type": "bytes32",
          "internalType": "bytes32"
        },
        {
          "name": "account",
          "type": "address",
          "internalType": "address"
        }
      ],
      "outputs": [],
      "stateMutability": "nonpayable"
    },
    {
      "type": "function",
      "name": "setCommissionInfo",
      "inputs": [
        {
          "name": "commissionIdx",
          "type": "uint256",
          "internalType": "uint256"
        },
        {
          "name": "newRecipient",
          "type": "address",
          "internalType": "address payable"
        },
        {
          "name": "newName",
          "type": "string",
          "internalType": "string"
        }
      ],
      "outputs": [],
      "stateMutability": "nonpayable"
    },
    {
      "type": "function",
      "name": "setCommissions",
      "inputs": [
        {
          "name": "commissionInfos",
          "type": "tuple[]",
          "internalType": "struct INSCommission.Commission[]",
          "components": [
            {
              "name": "recipient",
              "type": "address",
              "internalType": "address payable"
            },
            {
              "name": "ratio",
              "type": "uint256",
              "internalType": "uint256"
            },
            {
              "name": "name",
              "type": "string",
              "internalType": "string"
            }
          ]
        }
      ],
      "outputs": [],
      "stateMutability": "nonpayable"
    },
    {
      "type": "function",
      "name": "supportsInterface",
      "inputs": [
        {
          "name": "interfaceId",
          "type": "bytes4",
          "internalType": "bytes4"
        }
      ],
      "outputs": [
        {
          "name": "",
          "type": "bool",
          "internalType": "bool"
        }
      ],
      "stateMutability": "view"
    },
    {
      "type": "event",
      "name": "CommissionInfoUpdated",
      "inputs": [
        {
          "name": "updatedBy",
          "type": "address",
          "indexed": true,
          "internalType": "address"
        },
        {
          "name": "commissionIdx",
          "type": "uint256",
          "indexed": true,
          "internalType": "uint256"
        },
        {
          "name": "newRecipient",
          "type": "address",
          "indexed": false,
          "internalType": "address payable"
        },
        {
          "name": "newName",
          "type": "string",
          "indexed": false,
          "internalType": "string"
        }
      ],
      "anonymous": false
    },
    {
      "type": "event",
      "name": "CommissionsUpdated",
      "inputs": [
        {
          "name": "updatedBy",
          "type": "address",
          "indexed": true,
          "internalType": "address"
        },
        {
          "name": "commissionInfos",
          "type": "tuple[]",
          "indexed": false,
          "internalType": "struct INSCommission.Commission[]",
          "components": [
            {
              "name": "recipient",
              "type": "address",
              "internalType": "address payable"
            },
            {
              "name": "ratio",
              "type": "uint256",
              "internalType": "uint256"
            },
            {
              "name": "name",
              "type": "string",
              "internalType": "string"
            }
          ]
        }
      ],
      "anonymous": false
    },
    {
      "type": "event",
      "name": "Distributed",
      "inputs": [
        {
          "name": "recipient",
          "type": "address",
          "indexed": true,
          "internalType": "address"
        },
        {
          "name": "commissionAmount",
          "type": "uint256",
          "indexed": false,
          "internalType": "uint256"
        }
      ],
      "anonymous": false
    },
    {
      "type": "event",
      "name": "Initialized",
      "inputs": [
        {
          "name": "version",
          "type": "uint8",
          "indexed": false,
          "internalType": "uint8"
        }
      ],
      "anonymous": false
    },
    {
      "type": "event",
      "name": "RoleAdminChanged",
      "inputs": [
        {
          "name": "role",
          "type": "bytes32",
          "indexed": true,
          "internalType": "bytes32"
        },
        {
          "name": "previousAdminRole",
          "type": "bytes32",
          "indexed": true,
          "internalType": "bytes32"
        },
        {
          "name": "newAdminRole",
          "type": "bytes32",
          "indexed": true,
          "internalType": "bytes32"
        }
      ],
      "anonymous": false
    },
    {
      "type": "event",
      "name": "RoleGranted",
      "inputs": [
        {
          "name": "role",
          "type": "bytes32",
          "indexed": true,
          "internalType": "bytes32"
        },
        {
          "name": "account",
          "type": "address",
          "indexed": true,
          "internalType": "address"
        },
        {
          "name": "sender",
          "type": "address",
          "indexed": true,
          "internalType": "address"
        }
      ],
      "anonymous": false
    },
    {
      "type": "event",
      "name": "RoleRevoked",
      "inputs": [
        {
          "name": "role",
          "type": "bytes32",
          "indexed": true,
          "internalType": "bytes32"
        },
        {
          "name": "account",
          "type": "address",
          "indexed": true,
          "internalType": "address"
        },
        {
          "name": "sender",
          "type": "address",
          "indexed": true,
          "internalType": "address"
        }
      ],
      "anonymous": false
    },
    {
      "type": "error",
      "name": "InvalidAmountOfRON",
      "inputs": []
    },
    {
      "type": "error",
      "name": "InvalidArrayLength",
      "inputs": []
    },
    {
      "type": "error",
      "name": "InvalidRatio",
      "inputs": []
    },
    {
      "type": "error",
      "name": "NullAddress",
      "inputs": []
    }
  ],
  "absolutePath": "RNSCommission.sol",
  "address": "0x70D1A6f75161e8D5De10E4AAa82AA1B423B4362a",
  "blockNumber": 36083767,
  "bytecode": "0x608060405234801561001057600080fd5b5061001961001e565b6100dd565b600054610100900460ff161561008a5760405162461bcd60e51b815260206004820152602760248201527f496e697469616c697a61626c653a20636f6e747261637420697320696e697469604482015266616c697a696e6760c81b606482015260840160405180910390fd5b60005460ff908116146100db576000805460ff191660ff9081179091556040519081527f7f26b83ff96e1f2b6a682f133852f6798a09c465da95921460cefb38474024989060200160405180910390a15b565b611c46806100ec6000396000f3fe6080604052600436106100ec5760003560e01c806391cbc73f1161008a578063c42ef38c11610059578063c42ef38c14610297578063ca15c873146102cb578063d547741f146102eb578063e92108b51461030b57600080fd5b806391cbc73f1461022257806391d14854146102425780639fd50e5814610262578063a217fddf1461028257600080fd5b806336568abe116100c657806336568abe146101945780634c255c97146101b45780635dc30fe5146101ca5780639010d07c146101ea57600080fd5b806301ffc9a714610100578063248a9ca3146101355780632f2ff15d1461017457600080fd5b366100fb576100f961032d565b005b600080fd5b34801561010c57600080fd5b5061012061011b366004611324565b610367565b60405190151581526020015b60405180910390f35b34801561014157600080fd5b5061016661015036600461134e565b6000908152600160208190526040909120015490565b60405190815260200161012c565b34801561018057600080fd5b506100f961018f36600461137c565b610392565b3480156101a057600080fd5b506100f96101af36600461137c565b6103bd565b3480156101c057600080fd5b5061016661271081565b3480156101d657600080fd5b506100f96101e53660046113f8565b610440565b3480156101f657600080fd5b5061020a61020536600461143a565b610455565b6040516001600160a01b03909116815260200161012c565b34801561022e57600080fd5b506100f961023d36600461145c565b610474565b34801561024e57600080fd5b5061012061025d36600461137c565b610605565b34801561026e57600080fd5b506100f961027d3660046114df565b610630565b34801561028e57600080fd5b50610166600081565b3480156102a357600080fd5b506101667f76d12de99ad2ca162840505be9b657c2e7a650cc3ee0284048f3f9def3c1adf281565b3480156102d757600080fd5b506101666102e636600461134e565b61074e565b3480156102f757600080fd5b506100f961030636600461137c565b610765565b34801561031757600080fd5b5061032061078b565b60405161012c91906115b8565b6103577f76d12de99ad2ca162840505be9b657c2e7a650cc3ee0284048f3f9def3c1adf233610605565b15610365576103653461089c565b565b60006001600160e01b03198216635a05180f60e01b148061038c575061038c82610a9d565b92915050565b600082815260016020819052604090912001546103ae81610ad2565b6103b88383610adf565b505050565b6001600160a01b03811633146104325760405162461bcd60e51b815260206004820152602f60248201527f416363657373436f6e74726f6c3a2063616e206f6e6c792072656e6f756e636560448201526e103937b632b9903337b91039b2b63360891b60648201526084015b60405180910390fd5b61043c8282610b01565b5050565b600061044b81610ad2565b6103b88383610b23565b600082815260026020526040812061046d9083610ca6565b9392505050565b600054610100900460ff16158080156104945750600054600160ff909116105b806104ae5750303b1580156104ae575060005460ff166001145b6105115760405162461bcd60e51b815260206004820152602e60248201527f496e697469616c697a61626c653a20636f6e747261637420697320616c72656160448201526d191e481a5b9a5d1a585b1a5e995960921b6064820152608401610429565b6000805460ff191660011790558015610534576000805461ff0019166101001790555b61053f600087610cb2565b8160005b818110156105ab5761059b7f76d12de99ad2ca162840505be9b657c2e7a650cc3ee0284048f3f9def3c1adf286868481811061058157610581611640565b90506020020160208101906105969190611656565b610cb2565b6105a481611689565b9050610543565b506105b68686610b23565b5080156105fd576000805461ff0019169055604051600181527f7f26b83ff96e1f2b6a682f133852f6798a09c465da95921460cefb38474024989060200160405180910390a15b505050505050565b60009182526001602090815260408084206001600160a01b0393909316845291905290205460ff1690565b600061063b81610ad2565b603554851061065d57604051634ec4810560e11b815260040160405180910390fd5b6001600160a01b0384166106845760405163e99d5ac560e01b815260040160405180910390fd5b836035868154811061069857610698611640565b906000526020600020906003020160000160006101000a8154816001600160a01b0302191690836001600160a01b031602179055508282603587815481106106e2576106e2611640565b90600052602060002090600302016002019182610700929190611738565b5084336001600160a01b03167faa3076bb2e00a425a96ce6aa8762a984fe8ed14922e3fba98cfa90683cb05ff886868660405161073f93929190611822565b60405180910390a35050505050565b600081815260026020526040812061038c90610cbc565b6000828152600160208190526040909120015461078181610ad2565b6103b88383610b01565b60606035805480602002602001604051908101604052809291908181526020016000905b82821015610893576000848152602090819020604080516060810182526003860290920180546001600160a01b0316835260018101549383019390935260028301805492939291840191610802906116b8565b80601f016020809104026020016040519081016040528092919081815260200182805461082e906116b8565b801561087b5780601f106108505761010080835404028352916020019161087b565b820191906000526020600020905b81548152906001019060200180831161085e57829003601f168201915b505050505081525050815260200190600101906107af565b50505050905090565b806000036108bd576040516370bf851360e11b815260040160405180910390fd5b60355460008190036108e257604051634ec4810560e11b815260040160405180910390fd5b60006108ef600183611850565b90506000805b828110156109e457600061092d866035848154811061091657610916611640565b906000526020600020906003020160010154610cc6565b90506109398184611863565b92506109716035838154811061095157610951611640565b60009182526020909120600390910201546001600160a01b031682610cdf565b6035828154811061098457610984611640565b6000918252602091829020600390910201546040518381526001600160a01b03909116917fb649c98f58055c520df0dcb5709eff2e931217ff2fb1e21376130d31bbb1c0af910160405180910390a2506109dd81611689565b90506108f5565b5083811015610a9757610a2c60358381548110610a0357610a03611640565b60009182526020909120600390910201546001600160a01b0316610a278387611850565b610cdf565b60358281548110610a3f57610a3f611640565b60009182526020909120600390910201546001600160a01b03167fb649c98f58055c520df0dcb5709eff2e931217ff2fb1e21376130d31bbb1c0af610a848387611850565b6040519081526020015b60405180910390a25b50505050565b60006001600160e01b03198216637965db0b60e01b148061038c57506301ffc9a760e01b6001600160e01b031983161461038c565b610adc8133610d44565b50565b610ae98282610d77565b60008281526002602052604090206103b89082610de2565b610b0b8282610df7565b60008281526002602052604090206103b89082610e5e565b806000819003610b4657604051634ec4810560e11b815260040160405180910390fd5b610b5260356000611284565b6000805b82811015610c48576000858583818110610b7257610b72611640565b9050602002810190610b849190611876565b610b92906020810190611656565b6001600160a01b031603610bb95760405163e99d5ac560e01b815260040160405180910390fd5b848482818110610bcb57610bcb611640565b9050602002810190610bdd9190611876565b610beb906020013583611863565b91506035858583818110610c0157610c01611640565b9050602002810190610c139190611876565b815460018101835560009283526020909220909160030201610c358282611896565b505080610c4190611689565b9050610b56565b506127108114610c6b5760405163648564d360e01b815260040160405180910390fd5b336001600160a01b03167f28d7f0d68cf2a192abb8ce94479d236f99759d18e31ee7cbfb0a473764374c008585604051610a8e9291906119c0565b600061046d8383610e73565b61043c8282610adf565b600061038c825490565b6000612710610cd58385611a92565b61046d9190611aa9565b6000610ceb8383610e9d565b9050806103b857610d04836001600160a01b0316610f13565b610d0d83610f29565b604051602001610d1e929190611acb565b60408051601f198184030181529082905262461bcd60e51b825261042991600401611b49565b610d4e8282610605565b61043c57610d5b81610f13565b610d66836020610f3c565b604051602001610d1e929190611b5c565b610d818282610605565b61043c5760008281526001602081815260408084206001600160a01b0386168086529252808420805460ff19169093179092559051339285917f2f8788117e7eff1d82e926ec794901d17c78024a50270940304540a733656f0d9190a45050565b600061046d836001600160a01b0384166110d8565b610e018282610605565b1561043c5760008281526001602090815260408083206001600160a01b0385168085529252808320805460ff1916905551339285917ff6391f5c32d9c69d2a47ea670b442974b53935d1edc7fd64eb21e047a839171b9190a45050565b600061046d836001600160a01b038416611127565b6000826000018281548110610e8a57610e8a611640565b9060005260206000200154905092915050565b604080516000808252602082019092526001600160a01b038416908390604051610ec79190611bd1565b60006040518083038185875af1925050503d8060008114610f04576040519150601f19603f3d011682016040523d82523d6000602084013e610f09565b606091505b5090949350505050565b606061038c6001600160a01b0383166014610f3c565b606061038c82610f388461121a565b6001015b60606000610f4b836002611a92565b610f56906002611863565b67ffffffffffffffff811115610f6e57610f6e6116a2565b6040519080825280601f01601f191660200182016040528015610f98576020820181803683370190505b509050600360fc1b81600081518110610fb357610fb3611640565b60200101906001600160f81b031916908160001a905350600f60fb1b81600181518110610fe257610fe2611640565b60200101906001600160f81b031916908160001a9053506000611006846002611a92565b611011906001611863565b90505b6001811115611089576f181899199a1a9b1b9c1cb0b131b232b360811b85600f166010811061104557611045611640565b1a60f81b82828151811061105b5761105b611640565b60200101906001600160f81b031916908160001a90535060049490941c9361108281611be3565b9050611014565b50831561046d5760405162461bcd60e51b815260206004820181905260248201527f537472696e67733a20686578206c656e67746820696e73756666696369656e746044820152606401610429565b600081815260018301602052604081205461111f5750815460018181018455600084815260208082209093018490558454848252828601909352604090209190915561038c565b50600061038c565b6000818152600183016020526040812054801561121057600061114b600183611850565b855490915060009061115f90600190611850565b90508181146111c457600086600001828154811061117f5761117f611640565b90600052602060002001549050808760000184815481106111a2576111a2611640565b6000918252602080832090910192909255918252600188019052604090208390555b85548690806111d5576111d5611bfa565b60019003818190600052602060002001600090559055856001016000868152602001908152602001600020600090556001935050505061038c565b600091505061038c565b600080608083901c156112325760809290921c916010015b604083901c156112475760409290921c916008015b602083901c1561125c5760209290921c916004015b601083901c156112715760109290921c916002015b600883901c1561038c5760010192915050565b5080546000825560030290600052602060002090810190610adc91905b808211156112d65780546001600160a01b03191681556000600182018190556112cd60028301826112da565b506003016112a1565b5090565b5080546112e6906116b8565b6000825580601f106112f6575050565b601f016020900490600052602060002090810190610adc91905b808211156112d65760008155600101611310565b60006020828403121561133657600080fd5b81356001600160e01b03198116811461046d57600080fd5b60006020828403121561136057600080fd5b5035919050565b6001600160a01b0381168114610adc57600080fd5b6000806040838503121561138f57600080fd5b8235915060208301356113a181611367565b809150509250929050565b60008083601f8401126113be57600080fd5b50813567ffffffffffffffff8111156113d657600080fd5b6020830191508360208260051b85010111156113f157600080fd5b9250929050565b6000806020838503121561140b57600080fd5b823567ffffffffffffffff81111561142257600080fd5b61142e858286016113ac565b90969095509350505050565b6000806040838503121561144d57600080fd5b50508035926020909101359150565b60008060008060006060868803121561147457600080fd5b853561147f81611367565b9450602086013567ffffffffffffffff8082111561149c57600080fd5b6114a889838a016113ac565b909650945060408801359150808211156114c157600080fd5b506114ce888289016113ac565b969995985093965092949392505050565b600080600080606085870312156114f557600080fd5b84359350602085013561150781611367565b9250604085013567ffffffffffffffff8082111561152457600080fd5b818701915087601f83011261153857600080fd5b81358181111561154757600080fd5b88602082850101111561155957600080fd5b95989497505060200194505050565b60005b8381101561158357818101518382015260200161156b565b50506000910152565b600081518084526115a4816020860160208601611568565b601f01601f19169290920160200192915050565b60006020808301818452808551808352604092508286019150828160051b87010184880160005b8381101561163257888303603f19018552815180516001600160a01b031684528781015188850152860151606087850181905261161e8186018361158c565b9689019694505050908601906001016115df565b509098975050505050505050565b634e487b7160e01b600052603260045260246000fd5b60006020828403121561166857600080fd5b813561046d81611367565b634e487b7160e01b600052601160045260246000fd5b60006001820161169b5761169b611673565b5060010190565b634e487b7160e01b600052604160045260246000fd5b600181811c908216806116cc57607f821691505b6020821081036116ec57634e487b7160e01b600052602260045260246000fd5b50919050565b601f8211156103b857600081815260208120601f850160051c810160208610156117195750805b601f850160051c820191505b818110156105fd57828155600101611725565b67ffffffffffffffff831115611750576117506116a2565b6117648361175e83546116b8565b836116f2565b6000601f84116001811461179857600085156117805750838201355b600019600387901b1c1916600186901b1783556117f2565b600083815260209020601f19861690835b828110156117c957868501358255602094850194600190920191016117a9565b50868210156117e65760001960f88860031b161c19848701351681555b505060018560011b0183555b5050505050565b81835281816020850137506000828201602090810191909152601f909101601f19169091010190565b6001600160a01b038416815260406020820181905260009061184790830184866117f9565b95945050505050565b8181038181111561038c5761038c611673565b8082018082111561038c5761038c611673565b60008235605e1983360301811261188c57600080fd5b9190910192915050565b81356118a181611367565b81546001600160a01b0319166001600160a01b03919091161781556020828101356001838101919091559060028301604085013536869003601e190181126118e857600080fd5b8501803567ffffffffffffffff81111561190157600080fd5b803603848301131561191257600080fd5b6119268161192085546116b8565b856116f2565b6000601f82116001811461195c576000831561194457508382018601355b600019600385901b1c1916600184901b1785556119b5565b600085815260209020601f19841690835b8281101561198c5786850189013582559388019390890190880161196d565b50848210156119ab5760001960f88660031b161c198885880101351681555b50508683881b0185555b505050505050505050565b60208082528181018390526000906040808401600586901b8501820187855b8881101561163257878303603f190184528135368b9003605e19018112611a0557600080fd5b8a0160608135611a1481611367565b6001600160a01b0316855281880135888601528682013536839003601e19018112611a3e57600080fd5b90910187810191903567ffffffffffffffff811115611a5c57600080fd5b803603831315611a6b57600080fd5b8188870152611a7d82870182856117f9565b968901969550505091860191506001016119df565b808202811582820484141761038c5761038c611673565b600082611ac657634e487b7160e01b600052601260045260246000fd5b500490565b7f5472616e7366657248656c7065723a20636f756c64206e6f74207472616e7366815269032b9102927a7103a37960b51b602082015260008351611b1681602a850160208801611568565b660103b30b63ab2960cd1b602a918401918201528351611b3d816031840160208801611568565b01603101949350505050565b60208152600061046d602083018461158c565b7f416363657373436f6e74726f6c3a206163636f756e7420000000000000000000815260008351611b94816017850160208801611568565b7001034b99036b4b9b9b4b733903937b6329607d1b6017918401918201528351611bc5816028840160208801611568565b01602801949350505050565b6000825161188c818460208701611568565b600081611bf257611bf2611673565b506000190190565b634e487b7160e01b600052603160045260246000fdfea26469706673582212208d51978c729b6a9c0e0ecd5b61562f366dfd09974e656890ad9d58de84f6745264736f6c63430008150033",
  "callValue": 0,
  "chainId": 2020,
  "constructorArgs": "0x",
  "contractName": "RNSCommission",
  "deployer": "0x4d58Ea7231c394d5804e8B06B1365915f906E27F",
  "devdoc": {
    "version": 1,
    "kind": "dev",
    "methods": {
      "getCommissions()": {
        "details": "Returns commissions information."
      },
      "getRoleAdmin(bytes32)": {
        "details": "Returns the admin role that controls `role`. See {grantRole} and {revokeRole}. To change a role's admin, use {_setRoleAdmin}."
      },
      "getRoleMember(bytes32,uint256)": {
        "details": "Returns one of the accounts that have `role`. `index` must be a value between 0 and {getRoleMemberCount}, non-inclusive. Role bearers are not sorted in any particular way, and their ordering may change at any point. WARNING: When using {getRoleMember} and {getRoleMemberCount}, make sure you perform all queries on the same block. See the following https://forum.openzeppelin.com/t/iterating-over-elements-on-enumerableset-in-openzeppelin-contracts/2296[forum post] for more information."
      },
      "getRoleMemberCount(bytes32)": {
        "details": "Returns the number of accounts that have `role`. Can be used together with {getRoleMember} to enumerate all bearers of a role."
      },
      "grantRole(bytes32,address)": {
        "details": "Grants `role` to `account`. If `account` had not been already granted `role`, emits a {RoleGranted} event. Requirements: - the caller must have ``role``'s admin role. May emit a {RoleGranted} event."
      },
      "hasRole(bytes32,address)": {
        "details": "Returns `true` if `account` has been granted `role`."
      },
      "renounceRole(bytes32,address)": {
        "details": "Revokes `role` from the calling account. Roles are often managed via {grantRole} and {revokeRole}: this function's purpose is to provide a mechanism for accounts to lose their privileges if they are compromised (such as when a trusted device is misplaced). If the calling account had been revoked `role`, emits a {RoleRevoked} event. Requirements: - the caller must be `account`. May emit a {RoleRevoked} event."
      },
      "revokeRole(bytes32,address)": {
        "details": "Revokes `role` from `account`. If `account` had been granted `role`, emits a {RoleRevoked} event. Requirements: - the caller must have ``role``'s admin role. May emit a {RoleRevoked} event."
      },
      "setCommissionInfo(uint256,address,string)": {
        "details": "Sets for specific commission information based on the `commissionIdx`. Requirements: - The method caller is setter role. Emits the event `CommissionInfoUpdated`."
      },
      "setCommissions((address,uint256,string)[])": {
        "details": "Sets all commission information Requirements: - The method caller is setter role. - The total ratio must be equal to 100%. Emits the event `CommissionsUpdated`."
      },
      "supportsInterface(bytes4)": {
        "details": "See {IERC165-supportsInterface}."
      }
    },
    "events": {
      "CommissionInfoUpdated(address,uint256,address,string)": {
        "details": "Emitted when specific commission info is updated."
      },
      "CommissionsUpdated(address,(address,uint256,string)[])": {
        "details": "Emitted when all the commission info is updated."
      },
      "Distributed(address,uint256)": {
        "details": "Emitted when transfer RON to commission's recipient."
      },
      "Initialized(uint8)": {
        "details": "Triggered when the contract has been initialized or reinitialized."
      },
      "RoleAdminChanged(bytes32,bytes32,bytes32)": {
        "details": "Emitted when `newAdminRole` is set as ``role``'s admin role, replacing `previousAdminRole` `DEFAULT_ADMIN_ROLE` is the starting admin for all roles, despite {RoleAdminChanged} not being emitted signaling this. _Available since v3.1._"
      },
      "RoleGranted(bytes32,address,address)": {
        "details": "Emitted when `account` is granted `role`. `sender` is the account that originated the contract call, an admin role bearer except when using {AccessControl-_setupRole}."
      },
      "RoleRevoked(bytes32,address,address)": {
        "details": "Emitted when `account` is revoked `role`. `sender` is the account that originated the contract call:   - if using `revokeRole`, it is the admin role bearer   - if using `renounceRole`, it is the role bearer (i.e. `account`)"
      }
    },
    "errors": {
      "InvalidAmountOfRON()": [
        {
          "details": "Revert when amount of RON is invalid"
        }
      ],
      "InvalidArrayLength()": [
        {
          "details": "Revert when index is out of range"
        }
      ],
      "InvalidRatio()": [
        {
          "details": "Revert when ratio is invalid"
        }
      ],
      "NullAddress()": [
        {
          "details": "Revert when recipient address is null"
        }
      ]
    }
  },
  "isFoundry": true,
  "nonce": 196,
  "storageLayout": {
    "storage": [
      {
        "astId": 60342,
        "contract": "src/RNSCommission.sol:RNSCommission",
        "label": "_initialized",
        "offset": 0,
        "slot": "0",
        "type": "t_uint8"
      },
      {
        "astId": 60345,
        "contract": "src/RNSCommission.sol:RNSCommission",
        "label": "_initializing",
        "offset": 1,
        "slot": "0",
        "type": "t_bool"
      },
      {
        "astId": 58815,
        "contract": "src/RNSCommission.sol:RNSCommission",
        "label": "_roles",
        "offset": 0,
        "slot": "1",
        "type": "t_mapping(t_bytes32,t_struct(RoleData)58810_storage)"
      },
      {
        "astId": 59125,
        "contract": "src/RNSCommission.sol:RNSCommission",
        "label": "_roleMembers",
        "offset": 0,
        "slot": "2",
        "type": "t_mapping(t_bytes32,t_struct(AddressSet)64694_storage)"
      },
      {
        "astId": 79107,
        "contract": "src/RNSCommission.sol:RNSCommission",
        "label": "____gap",
        "offset": 0,
        "slot": "3",
        "type": "t_array(t_uint256)50_storage"
      },
      {
        "astId": 79112,
        "contract": "src/RNSCommission.sol:RNSCommission",
        "label": "_commissionInfos",
        "offset": 0,
        "slot": "53",
        "type": "t_array(t_struct(Commission)84580_storage)dyn_storage"
      }
    ],
    "types": {
      "t_address": {
        "encoding": "inplace",
        "label": "address",
        "numberOfBytes": "20"
      },
      "t_address_payable": {
        "encoding": "inplace",
        "label": "address payable",
        "numberOfBytes": "20"
      },
      "t_array(t_bytes32)dyn_storage": {
        "encoding": "dynamic_array",
        "label": "bytes32[]",
        "numberOfBytes": "32",
        "base": "t_bytes32"
      },
      "t_array(t_struct(Commission)84580_storage)dyn_storage": {
        "encoding": "dynamic_array",
        "label": "struct INSCommission.Commission[]",
        "numberOfBytes": "32",
        "base": "t_struct(Commission)84580_storage"
      },
      "t_array(t_uint256)50_storage": {
        "encoding": "inplace",
        "label": "uint256[50]",
        "numberOfBytes": "1600",
        "base": "t_uint256"
      },
      "t_bool": {
        "encoding": "inplace",
        "label": "bool",
        "numberOfBytes": "1"
      },
      "t_bytes32": {
        "encoding": "inplace",
        "label": "bytes32",
        "numberOfBytes": "32"
      },
      "t_mapping(t_address,t_bool)": {
        "encoding": "mapping",
        "key": "t_address",
        "label": "mapping(address => bool)",
        "numberOfBytes": "32",
        "value": "t_bool"
      },
      "t_mapping(t_bytes32,t_struct(AddressSet)64694_storage)": {
        "encoding": "mapping",
        "key": "t_bytes32",
        "label": "mapping(bytes32 => struct EnumerableSet.AddressSet)",
        "numberOfBytes": "32",
        "value": "t_struct(AddressSet)64694_storage"
      },
      "t_mapping(t_bytes32,t_struct(RoleData)58810_storage)": {
        "encoding": "mapping",
        "key": "t_bytes32",
        "label": "mapping(bytes32 => struct AccessControl.RoleData)",
        "numberOfBytes": "32",
        "value": "t_struct(RoleData)58810_storage"
      },
      "t_mapping(t_bytes32,t_uint256)": {
        "encoding": "mapping",
        "key": "t_bytes32",
        "label": "mapping(bytes32 => uint256)",
        "numberOfBytes": "32",
        "value": "t_uint256"
      },
      "t_string_storage": {
        "encoding": "bytes",
        "label": "string",
        "numberOfBytes": "32"
      },
      "t_struct(AddressSet)64694_storage": {
        "encoding": "inplace",
        "label": "struct EnumerableSet.AddressSet",
        "numberOfBytes": "64",
        "members": [
          {
            "astId": 64693,
            "contract": "src/RNSCommission.sol:RNSCommission",
            "label": "_inner",
            "offset": 0,
            "slot": "0",
            "type": "t_struct(Set)64379_storage"
          }
        ]
      },
      "t_struct(Commission)84580_storage": {
        "encoding": "inplace",
        "label": "struct INSCommission.Commission",
        "numberOfBytes": "96",
        "members": [
          {
            "astId": 84575,
            "contract": "src/RNSCommission.sol:RNSCommission",
            "label": "recipient",
            "offset": 0,
            "slot": "0",
            "type": "t_address_payable"
          },
          {
            "astId": 84577,
            "contract": "src/RNSCommission.sol:RNSCommission",
            "label": "ratio",
            "offset": 0,
            "slot": "1",
            "type": "t_uint256"
          },
          {
            "astId": 84579,
            "contract": "src/RNSCommission.sol:RNSCommission",
            "label": "name",
            "offset": 0,
            "slot": "2",
            "type": "t_string_storage"
          }
        ]
      },
      "t_struct(RoleData)58810_storage": {
        "encoding": "inplace",
        "label": "struct AccessControl.RoleData",
        "numberOfBytes": "64",
        "members": [
          {
            "astId": 58807,
            "contract": "src/RNSCommission.sol:RNSCommission",
            "label": "members",
            "offset": 0,
            "slot": "0",
            "type": "t_mapping(t_address,t_bool)"
          },
          {
            "astId": 58809,
            "contract": "src/RNSCommission.sol:RNSCommission",
            "label": "adminRole",
            "offset": 0,
            "slot": "1",
            "type": "t_bytes32"
          }
        ]
      },
      "t_struct(Set)64379_storage": {
        "encoding": "inplace",
        "label": "struct EnumerableSet.Set",
        "numberOfBytes": "64",
        "members": [
          {
            "astId": 64374,
            "contract": "src/RNSCommission.sol:RNSCommission",
            "label": "_values",
            "offset": 0,
            "slot": "0",
            "type": "t_array(t_bytes32)dyn_storage"
          },
          {
            "astId": 64378,
            "contract": "src/RNSCommission.sol:RNSCommission",
            "label": "_indexes",
            "offset": 0,
            "slot": "1",
            "type": "t_mapping(t_bytes32,t_uint256)"
          }
        ]
      },
      "t_uint256": {
        "encoding": "inplace",
        "label": "uint256",
        "numberOfBytes": "32"
      },
      "t_uint8": {
        "encoding": "inplace",
        "label": "uint8",
        "numberOfBytes": "1"
      }
    }
  },
  "timestamp": 1720084974,
  "userdoc": {
    "version": 1,
    "kind": "user"
  }
}