{
  "abi": [
    {
      "inputs": [],
      "stateMutability": "payable",
      "type": "constructor"
    },
    {
      "inputs": [
        {
          "internalType": "bytes1",
          "name": "char",
          "type": "bytes1"
        }
      ],
      "name": "InvalidCharacter",
      "type": "error"
    },
    {
      "inputs": [],
      "name": "InvalidConfig",
      "type": "error"
    },
    {
      "inputs": [],
      "name": "InvalidId",
      "type": "error"
    },
    {
      "inputs": [],
      "name": "InvalidStringLength",
      "type": "error"
    },
    {
      "inputs": [],
      "name": "NullAssignment",
      "type": "error"
    },
    {
      "inputs": [],
      "name": "Unauthorized",
      "type": "error"
    },
    {
      "anonymous": false,
      "inputs": [
        {
          "indexed": true,
          "internalType": "contract INameResolver",
          "name": "resolver",
          "type": "address"
        }
      ],
      "name": "DefaultResolverChanged",
      "type": "event"
    },
    {
      "anonymous": false,
      "inputs": [
        {
          "indexed": false,
          "internalType": "uint8",
          "name": "version",
          "type": "uint8"
        }
      ],
      "name": "Initialized",
      "type": "event"
    },
    {
      "anonymous": false,
      "inputs": [
        {
          "indexed": true,
          "internalType": "address",
          "name": "previousOwner",
          "type": "address"
        },
        {
          "indexed": true,
          "internalType": "address",
          "name": "newOwner",
          "type": "address"
        }
      ],
      "name": "OwnershipTransferred",
      "type": "event"
    },
    {
      "anonymous": false,
      "inputs": [
        {
          "indexed": true,
          "internalType": "address",
          "name": "addr",
          "type": "address"
        },
        {
          "indexed": true,
          "internalType": "uint256",
          "name": "id",
          "type": "uint256"
        }
      ],
      "name": "ReverseClaimed",
      "type": "event"
    },
    {
      "inputs": [],
      "name": "CONTROLLER_ROLE",
      "outputs": [
        {
          "internalType": "bytes32",
          "name": "",
          "type": "bytes32"
        }
      ],
      "stateMutability": "view",
      "type": "function"
    },
    {
      "inputs": [
        {
          "internalType": "address",
          "name": "addr",
          "type": "address"
        }
      ],
      "name": "claim",
      "outputs": [
        {
          "internalType": "uint256",
          "name": "id",
          "type": "uint256"
        }
      ],
      "stateMutability": "nonpayable",
      "type": "function"
    },
    {
      "inputs": [
        {
          "internalType": "address",
          "name": "addr",
          "type": "address"
        },
        {
          "internalType": "address",
          "name": "resolver",
          "type": "address"
        }
      ],
      "name": "claimWithResolver",
      "outputs": [
        {
          "internalType": "uint256",
          "name": "id",
          "type": "uint256"
        }
      ],
      "stateMutability": "nonpayable",
      "type": "function"
    },
    {
      "inputs": [
        {
          "internalType": "address",
          "name": "addr",
          "type": "address"
        }
      ],
      "name": "computeId",
      "outputs": [
        {
          "internalType": "uint256",
          "name": "id",
          "type": "uint256"
        }
      ],
      "stateMutability": "pure",
      "type": "function"
    },
    {
      "inputs": [
        {
          "internalType": "uint256",
          "name": "id",
          "type": "uint256"
        }
      ],
      "name": "getAddress",
      "outputs": [
        {
          "internalType": "address",
          "name": "",
          "type": "address"
        }
      ],
      "stateMutability": "view",
      "type": "function"
    },
    {
      "inputs": [],
      "name": "getDefaultResolver",
      "outputs": [
        {
          "internalType": "contract INameResolver",
          "name": "",
          "type": "address"
        }
      ],
      "stateMutability": "view",
      "type": "function"
    },
    {
      "inputs": [],
      "name": "getRNSUnified",
      "outputs": [
        {
          "internalType": "contract INSUnified",
          "name": "",
          "type": "address"
        }
      ],
      "stateMutability": "view",
      "type": "function"
    },
    {
      "inputs": [
        {
          "internalType": "address",
          "name": "admin",
          "type": "address"
        },
        {
          "internalType": "contract INSUnified",
          "name": "rnsUnified",
          "type": "address"
        }
      ],
      "name": "initialize",
      "outputs": [],
      "stateMutability": "nonpayable",
      "type": "function"
    },
    {
      "inputs": [],
      "name": "owner",
      "outputs": [
        {
          "internalType": "address",
          "name": "",
          "type": "address"
        }
      ],
      "stateMutability": "view",
      "type": "function"
    },
    {
      "inputs": [],
      "name": "renounceOwnership",
      "outputs": [],
      "stateMutability": "nonpayable",
      "type": "function"
    },
    {
      "inputs": [
        {
          "internalType": "contract INameResolver",
          "name": "resolver",
          "type": "address"
        }
      ],
      "name": "setDefaultResolver",
      "outputs": [],
      "stateMutability": "nonpayable",
      "type": "function"
    },
    {
      "inputs": [
        {
          "internalType": "string",
          "name": "name",
          "type": "string"
        }
      ],
      "name": "setName",
      "outputs": [
        {
          "internalType": "uint256",
          "name": "id",
          "type": "uint256"
        }
      ],
      "stateMutability": "nonpayable",
      "type": "function"
    },
    {
      "inputs": [
        {
          "internalType": "address",
          "name": "addr",
          "type": "address"
        },
        {
          "internalType": "string",
          "name": "name",
          "type": "string"
        }
      ],
      "name": "setNameForAddr",
      "outputs": [
        {
          "internalType": "uint256",
          "name": "id",
          "type": "uint256"
        }
      ],
      "stateMutability": "nonpayable",
      "type": "function"
    },
    {
      "inputs": [
        {
          "internalType": "bytes4",
          "name": "interfaceId",
          "type": "bytes4"
        }
      ],
      "name": "supportsInterface",
      "outputs": [
        {
          "internalType": "bool",
          "name": "",
          "type": "bool"
        }
      ],
      "stateMutability": "pure",
      "type": "function"
    },
    {
      "inputs": [
        {
          "internalType": "address",
          "name": "newOwner",
          "type": "address"
        }
      ],
      "name": "transferOwnership",
      "outputs": [],
      "stateMutability": "nonpayable",
      "type": "function"
    }
  ],
  "address": "0x2DcFb418410Bc9c58Ee58029fA3C69833A8F3231",
  "args": "0x",
  "blockNumber": 29142324,
  "bytecode": "0x608060405261000d3361001a565b610015610075565b610134565b600080546001600160a01b038381166201000081810262010000600160b01b0319851617855560405193049190911692909183917f8be0079c531659141344cd1fd0a4f28419497f9722a3daafe3b4186f6b6457e091a35050565b600054610100900460ff16156100e15760405162461bcd60e51b815260206004820152602760248201527f496e697469616c697a61626c653a20636f6e747261637420697320696e697469604482015266616c697a696e6760c81b606482015260840160405180910390fd5b60005460ff90811614610132576000805460ff191660ff9081179091556040519081527f7f26b83ff96e1f2b6a682f133852f6798a09c465da95921460cefb38474024989060200160405180910390a15b565b6113db806101436000396000f3fe608060405234801561001057600080fd5b50600436106100f55760003560e01c80638c84331411610097578063c66485b211610066578063c66485b21461020d578063c911994114610220578063d472ad0414610233578063f2fde38b1461024657600080fd5b80638c843314146101bf5780638da5cb5b146101d0578063b93f9b0a146101e7578063c47f0027146101fa57600080fd5b80631e83409a116100d35780631e83409a1461016a5780633efa047f1461017d578063485cc955146101a2578063715018a6146101b757600080fd5b806301ffc9a7146100fa578063092c5b3b146101225780630f5a546614610157575b600080fd5b61010d610108366004610e5b565b610259565b60405190151581526020015b60405180910390f35b6101497f7b765e0e932d348852a6f810bfa1ab891e259123f02db8cdcde614c57022335781565b604051908152602001610119565b610149610165366004610e9a565b6102ab565b610149610178366004610ed3565b6102d1565b6034546001600160a01b03165b6040516001600160a01b039091168152602001610119565b6101b56101b0366004610e9a565b6102eb565b005b6101b561041f565b6033546001600160a01b031661018a565b6000546201000090046001600160a01b031661018a565b61018a6101f5366004610ef0565b610433565b610149610208366004610f52565b6104f5565b6101b561021b366004610ed3565b610502565b61014961022e366004610f94565b61057b565b610149610241366004610ed3565b61073a565b6101b5610254366004610ed3565b610776565b60006001600160e01b0319821663d96a46ad60e01b148061028a57506001600160e01b031982166301ffc9a760e01b145b806102a557506001600160e01b0319821663d5a614db60e01b145b92915050565b60006102b56107ef565b826102bf8161098e565b6102c98484610acd565b949350505050565b6034546000906102a59083906001600160a01b03166102ab565b600054610100900460ff161580801561030b5750600054600160ff909116105b806103255750303b158015610325575060005460ff166001145b61038d5760405162461bcd60e51b815260206004820152602e60248201527f496e697469616c697a61626c653a20636f6e747261637420697320616c72656160448201526d191e481a5b9a5d1a585b1a5e995960921b60648201526084015b60405180910390fd5b6000805460ff1916600117905580156103b0576000805461ff0019166101001790555b603380546001600160a01b0319166001600160a01b0384161790556103d483610bb4565b801561041a576000805461ff0019169055604051600181527f7f26b83ff96e1f2b6a682f133852f6798a09c465da95921460cefb38474024989060200160405180910390a15b505050565b610427610c0f565b6104316000610bb4565b565b6033546040516303e9e60960e01b81526004810183905260009182916001600160a01b03909116906303e9e60990602401600060405180830381865afa158015610481573d6000803e3d6000fd5b505050506040513d6000823e601f3d908101601f191682016040526104a9919081019061114e565b805160200151909150600080516020611386833981519152146104df57604051631bf4348160e31b815260040160405180910390fd5b8051604001516104ee90610c70565b9392505050565b60006104ee33848461057b565b61050a610c0f565b6001600160a01b038116610531576040516362daafb160e11b815260040160405180910390fd5b603480546001600160a01b0319166001600160a01b0383169081179091556040517feae17a84d9eb83d8c8eb317f9e7d64857bc363fa51674d996c023f4340c577cf90600090a250565b60006105856107ef565b8361058f8161098e565b6105988561073a565b6033546040516331a9108f60e11b8152600481018390529193506001600160a01b03169030908290636352211e90602401602060405180830381865afa1580156105e6573d6000803e3d6000fd5b505050506040513d601f19601f8201168201806040525081019061060a9190611271565b6001600160a01b031614610656576034546000906106329088906001600160a01b0316610acd565b905083811461065457604051631bf4348160e31b815260040160405180910390fd5b505b6040516303e9e60960e01b8152600481018490526000906001600160a01b038316906303e9e60990602401600060405180830381865afa15801561069e573d6000803e3d6000fd5b505050506040513d6000823e601f3d908101601f191682016040526106c6919081019061114e565b602081015151604051637737221360e01b81529192506001600160a01b0316906377372213906106fe9087908a908a9060040161128e565b600060405180830381600087803b15801561071857600080fd5b505af115801561072c573d6000803e3d6000fd5b505050505050509392505050565b60006102a5600080516020611386833981519152610760846001600160a01b0316610d0a565b6000918252805160209182012090526040902090565b61077e610c0f565b6001600160a01b0381166107e35760405162461bcd60e51b815260206004820152602660248201527f4f776e61626c653a206e6577206f776e657220697320746865207a65726f206160448201526564647265737360d01b6064820152608401610384565b6107ec81610bb4565b50565b6033546040516331a9108f60e11b8152600080516020611386833981519152600482018190526001600160a01b0390921691906000908390636352211e90602401602060405180830381865afa15801561084d573d6000803e3d6000fd5b505050506040513d601f19601f820116820180604052508101906108719190611271565b90506001600160a01b0381163014806108fb575060405163020604bf60e21b81526004810183905230906001600160a01b0385169063081812fc90602401602060405180830381865afa1580156108cc573d6000803e3d6000fd5b505050506040513d601f19601f820116820180604052508101906108f09190611271565b6001600160a01b0316145b80610971575060405163e985e9c560e01b81526001600160a01b03828116600483015230602483015284169063e985e9c590604401602060405180830381865afa15801561094d573d6000803e3d6000fd5b505050506040513d601f19601f8201168201806040525081019061097191906112c4565b61041a576040516306b7c75960e31b815260040160405180910390fd5b60335433906001600160a01b03908116908316821480610a395750604051632474521560e21b81527f7b765e0e932d348852a6f810bfa1ab891e259123f02db8cdcde614c57022335760048201526001600160a01b0383811660248301528216906391d1485490604401602060405180830381865afa158015610a15573d6000803e3d6000fd5b505050506040513d601f19601f82011682018060405250810190610a3991906112c4565b80610ab1575060405163e985e9c560e01b81526001600160a01b038481166004830152838116602483015282169063e985e9c590604401602060405180830381865afa158015610a8d573d6000803e3d6000fd5b505050506040513d601f19601f82011682018060405250810190610ab191906112c4565b61041a576040516282b42960e81b815260040160405180910390fd5b600080610ae2846001600160a01b0316610d0a565b603354604051630570891f60e01b81529192506001600160a01b031690630570891f90610b31906000805160206113868339815191529085908890309067ffffffffffffffff906004016112df565b60408051808303816000875af1158015610b4f573d6000803e3d6000fd5b505050506040513d601f19601f82011682018060405250810190610b739190611343565b6040519093508391506001600160a01b038616907f53591c13f73c953042ec59cc15c968c03041980e380816e0b08dfcead86c89ac90600090a35092915050565b600080546001600160a01b038381166201000081810262010000600160b01b0319851617855560405193049190911692909183917f8be0079c531659141344cd1fd0a4f28419497f9722a3daafe3b4186f6b6457e091a35050565b6000546001600160a01b03620100009091041633146104315760405162461bcd60e51b815260206004820181905260248201527f4f776e61626c653a2063616c6c6572206973206e6f7420746865206f776e65726044820152606401610384565b60008151602814610c9457604051638dc6ac0160e01b815260040160405180910390fd5b6000805b6028811015610d035761010082029150610cd1848281518110610cbd57610cbd61136f565b01602001516001600160f81b031916610d7b565b60ff1660100282019150610cf3848260010181518110610cbd57610cbd61136f565b60ff169190910190600201610c98565b5092915050565b6060602881526020810160285b8015610d74576001810390506f181899199a1a9b1b9c1cb0b131b232b360811b600f85161a828201536010840493506001810390506f181899199a1a9b1b9c1cb0b131b232b360811b600f85161a82820153601084049350610d17565b5050919050565b60006001600160f81b03198216606160f81b11801590610da95750603360f91b6001600160f81b0319831611155b15610db9575060f81c6056190190565b6001600160f81b03198216604160f81b11801590610de55750602360f91b6001600160f81b0319831611155b15610df5575060f81c6036190190565b6001600160f81b03198216600360fc1b11801590610e215750603960f81b6001600160f81b0319831611155b15610e31575060f81c602f190190565b604051633fd7c86760e01b81526001600160f81b031983166004820152602401610384565b919050565b600060208284031215610e6d57600080fd5b81356001600160e01b0319811681146104ee57600080fd5b6001600160a01b03811681146107ec57600080fd5b60008060408385031215610ead57600080fd5b8235610eb881610e85565b91506020830135610ec881610e85565b809150509250929050565b600060208284031215610ee557600080fd5b81356104ee81610e85565b600060208284031215610f0257600080fd5b5035919050565b60008083601f840112610f1b57600080fd5b50813567ffffffffffffffff811115610f3357600080fd5b602083019150836020828501011115610f4b57600080fd5b9250929050565b60008060208385031215610f6557600080fd5b823567ffffffffffffffff811115610f7c57600080fd5b610f8885828601610f09565b90969095509350505050565b600080600060408486031215610fa957600080fd5b8335610fb481610e85565b9250602084013567ffffffffffffffff811115610fd057600080fd5b610fdc86828701610f09565b9497909650939450505050565b634e487b7160e01b600052604160045260246000fd5b6040805190810167ffffffffffffffff8111828210171561102257611022610fe9565b60405290565b6040516060810167ffffffffffffffff8111828210171561102257611022610fe9565b604051601f8201601f1916810167ffffffffffffffff8111828210171561107457611074610fe9565b604052919050565b60005b8381101561109757818101518382015260200161107f565b50506000910152565b805167ffffffffffffffff81168114610e5657600080fd5b80518015158114610e5657600080fd5b6000608082840312156110da57600080fd5b6040516080810181811067ffffffffffffffff821117156110fd576110fd610fe9565b8060405250809150825161111081610e85565b8152602083015161112081610e85565b6020820152611131604084016110a0565b6040820152611142606084016110b8565b60608201525092915050565b6000602080838503121561116157600080fd5b825167ffffffffffffffff8082111561117957600080fd5b9084019060a0828703121561118d57600080fd5b611195610fff565b8251828111156111a457600080fd5b8301606081890312156111b657600080fd5b6111be611028565b815160ff811681146111cf57600080fd5b815281860151868201526040820151848111156111eb57600080fd5b80830192505088601f83011261120057600080fd5b81518481111561121257611212610fe9565b611224601f8201601f1916880161104b565b9450808552898782850101111561123a57600080fd5b6112498188870189860161107c565b5060408101849052825250611260878486016110c8565b848201528094505050505092915050565b60006020828403121561128357600080fd5b81516104ee81610e85565b83815260406020820152816040820152818360608301376000818301606090810191909152601f909201601f1916010192915050565b6000602082840312156112d657600080fd5b6104ee826110b8565b85815260a06020820152600085518060a08401526113048160c0850160208a0161107c565b6001600160a01b03958616604084015293909416606082015267ffffffffffffffff91909116608082015260c0601f909201601f191601019392505050565b6000806040838503121561135657600080fd5b61135f836110a0565b9150602083015190509250929050565b634e487b7160e01b600052603260045260246000fdfe91d1777781884d03a6757a803996e38de2a42967fb37eeaca72729271025a9e2a2646970667358221220a08b9f6b89a9e4966176fa2b4cf0142ddf4236162fbaf94ce4dd18a53db2e7a764736f6c63430008150033",
  "chainId": 2020,
  "contractName": "RNSReverseRegistrar",
  "deployer": "0x0F68eDBE14C8f68481771016d7E2871d6a35DE11",
  "devdoc": {
    "version": 1,
    "kind": "dev",
    "details": "The reverse registrar provides functions to claim a reverse record, as well as a convenience function to configure the record as it's most commonly used, as a way of specifying a canonical name for an address. The reverse registrar is specified in EIP 181 https://eips.ethereum.org/EIPS/eip-181.",
    "methods": {
      "claim(address)": {
        "details": "Claims the name hex(addr) + '.addr.reverse' for addr.",
        "params": {
          "addr": "The address to set as the addr of the reverse record in INS."
        },
        "returns": {
          "id": "The INS node hash of the reverse record."
        }
      },
      "claimWithResolver(address,address)": {
        "details": "Claims the name hex(owner) + '.addr.reverse' for owner and sets resolver.",
        "params": {
          "addr": "The address to set as the owner of the reverse record in INS.",
          "resolver": "The address of the resolver to set; 0 to leave unchanged."
        },
        "returns": {
          "id": "The INS node hash of the reverse record."
        }
      },
      "computeId(address)": {
        "details": "Returns the id hash for a given account's reverse records.",
        "params": {
          "addr": "The address to hash"
        },
        "returns": {
          "id": "The INS node hash."
        }
      },
      "getAddress(uint256)": {
        "details": "Returns address that the reverse node resolves for. Eg. node namehash('{addr}.addr.reverse') will always resolve for `addr`."
      },
      "getDefaultResolver()": {
        "details": "Returns default resolver."
      },
      "getRNSUnified()": {
        "details": "Returns RNSUnified contract."
      },
      "owner()": {
        "details": "Returns the address of the current owner."
      },
      "renounceOwnership()": {
        "details": "Leaves the contract without owner. It will not be possible to call `onlyOwner` functions. Can only be called by the current owner. NOTE: Renouncing ownership will leave the contract without an owner, thereby disabling any functionality that is only available to the owner."
      },
      "setDefaultResolver(address)": {
        "details": "Sets default resolver. Requirement: - The method caller must be admin. Emitted an event {DefaultResolverChanged}."
      },
      "setName(string)": {
        "details": "Sets the name record for the reverse INS record associated with the calling account. First updates the resolver to the default reverse resolver if necessary.",
        "params": {
          "name": "The name to set for this address."
        },
        "returns": {
          "id": "The INS node hash of the reverse record."
        }
      },
      "setNameForAddr(address,string)": {
        "details": "Same as {IERC181-setName}."
      },
      "supportsInterface(bytes4)": {
        "details": "Returns true if this contract implements the interface defined by `interfaceId`. See the corresponding https://eips.ethereum.org/EIPS/eip-165#how-interfaces-are-identified[EIP section] to learn more about how these ids are created. This function call must use less than 30 000 gas."
      },
      "transferOwnership(address)": {
        "details": "Transfers ownership of the contract to a new account (`newOwner`). Can only be called by the current owner."
      }
    },
    "events": {
      "DefaultResolverChanged(address)": {
        "details": "Emitted when the default resolver is changed."
      },
      "Initialized(uint8)": {
        "details": "Triggered when the contract has been initialized or reinitialized."
      },
      "ReverseClaimed(address,uint256)": {
        "details": "Emitted when reverse node is claimed."
      }
    },
    "errors": {
      "InvalidConfig()": [
        {
          "details": "Error: The contract is not authorized for minting or modifying domain hex(addr) + '.addr.reverse'."
        }
      ],
      "InvalidId()": [
        {
          "details": "Error: The provided id is not child node of `ADDR_REVERSE_ID`"
        }
      ],
      "NullAssignment()": [
        {
          "details": "Error: The provided resolver address is null."
        }
      ],
      "Unauthorized()": [
        {
          "details": "Error: The sender lacks the necessary permissions."
        }
      ]
    }
  },
  "isFoundry": true,
  "nonce": 268,
  "numDeployments": 1,
  "storageLayout": {
    "storage": [
      {
        "astId": 50086,
        "contract": "src/RNSReverseRegistrar.sol:RNSReverseRegistrar",
        "label": "_initialized",
        "offset": 0,
        "slot": "0",
        "type": "t_uint8"
      },
      {
        "astId": 50089,
        "contract": "src/RNSReverseRegistrar.sol:RNSReverseRegistrar",
        "label": "_initializing",
        "offset": 1,
        "slot": "0",
        "type": "t_bool"
      },
      {
        "astId": 49081,
        "contract": "src/RNSReverseRegistrar.sol:RNSReverseRegistrar",
        "label": "_owner",
        "offset": 2,
        "slot": "0",
        "type": "t_address"
      },
      {
        "astId": 62789,
        "contract": "src/RNSReverseRegistrar.sol:RNSReverseRegistrar",
        "label": "____gap",
        "offset": 0,
        "slot": "1",
        "type": "t_array(t_uint256)50_storage"
      },
      {
        "astId": 62793,
        "contract": "src/RNSReverseRegistrar.sol:RNSReverseRegistrar",
        "label": "_rnsUnified",
        "offset": 0,
        "slot": "51",
        "type": "t_contract(INSUnified)67046"
      },
      {
        "astId": 62797,
        "contract": "src/RNSReverseRegistrar.sol:RNSReverseRegistrar",
        "label": "_defaultResolver",
        "offset": 0,
        "slot": "52",
        "type": "t_contract(INameResolver)67747"
      }
    ],
    "types": {
      "t_address": {
        "encoding": "inplace",
        "label": "address",
        "numberOfBytes": "20"
      },
      "t_array(t_uint256)50_storage": {
        "encoding": "inplace",
        "label": "uint256[50]",
        "numberOfBytes": "1600",
        "base": "t_uint256"
      },
      "t_bool": {
        "encoding": "inplace",
        "label": "bool",
        "numberOfBytes": "1"
      },
      "t_contract(INSUnified)67046": {
        "encoding": "inplace",
        "label": "contract INSUnified",
        "numberOfBytes": "20"
      },
      "t_contract(INameResolver)67747": {
        "encoding": "inplace",
        "label": "contract INameResolver",
        "numberOfBytes": "20"
      },
      "t_uint256": {
        "encoding": "inplace",
        "label": "uint256",
        "numberOfBytes": "32"
      },
      "t_uint8": {
        "encoding": "inplace",
        "label": "uint8",
        "numberOfBytes": "1"
      }
    }
  },
  "timestamp": 1699254558,
  "userdoc": {
    "version": 1,
    "kind": "user",
    "notice": "Customized version of ReverseRegistrar: https://github.com/ensdomains/ens-contracts/blob/0c75ba23fae76165d51c9c80d76d22261e06179d/contracts/reverseRegistrar/ReverseRegistrar.sol"
  }
}