{
  "abi": [
    {
      "inputs": [],
      "stateMutability": "payable",
      "type": "constructor"
    },
    {
      "inputs": [
        {
          "internalType": "uint256",
          "name": "total",
          "type": "uint256"
        }
      ],
      "name": "TotalSubStringTooLarge",
      "type": "error"
    },
    {
      "anonymous": false,
      "inputs": [
        {
          "indexed": true,
          "internalType": "address",
          "name": "operator",
          "type": "address"
        },
        {
          "indexed": false,
          "internalType": "uint256",
          "name": "wordCount",
          "type": "uint256"
        },
        {
          "indexed": false,
          "internalType": "bool",
          "name": "shouldForbid",
          "type": "bool"
        }
      ],
      "name": "ForbiddenWordsUpdated",
      "type": "event"
    },
    {
      "anonymous": false,
      "inputs": [
        {
          "indexed": false,
          "internalType": "uint8",
          "name": "version",
          "type": "uint8"
        }
      ],
      "name": "Initialized",
      "type": "event"
    },
    {
      "anonymous": false,
      "inputs": [
        {
          "indexed": true,
          "internalType": "bytes32",
          "name": "role",
          "type": "bytes32"
        },
        {
          "indexed": true,
          "internalType": "bytes32",
          "name": "previousAdminRole",
          "type": "bytes32"
        },
        {
          "indexed": true,
          "internalType": "bytes32",
          "name": "newAdminRole",
          "type": "bytes32"
        }
      ],
      "name": "RoleAdminChanged",
      "type": "event"
    },
    {
      "anonymous": false,
      "inputs": [
        {
          "indexed": true,
          "internalType": "bytes32",
          "name": "role",
          "type": "bytes32"
        },
        {
          "indexed": true,
          "internalType": "address",
          "name": "account",
          "type": "address"
        },
        {
          "indexed": true,
          "internalType": "address",
          "name": "sender",
          "type": "address"
        }
      ],
      "name": "RoleGranted",
      "type": "event"
    },
    {
      "anonymous": false,
      "inputs": [
        {
          "indexed": true,
          "internalType": "bytes32",
          "name": "role",
          "type": "bytes32"
        },
        {
          "indexed": true,
          "internalType": "address",
          "name": "account",
          "type": "address"
        },
        {
          "indexed": true,
          "internalType": "address",
          "name": "sender",
          "type": "address"
        }
      ],
      "name": "RoleRevoked",
      "type": "event"
    },
    {
      "anonymous": false,
      "inputs": [
        {
          "indexed": true,
          "internalType": "address",
          "name": "operator",
          "type": "address"
        },
        {
          "indexed": false,
          "internalType": "uint8",
          "name": "min",
          "type": "uint8"
        },
        {
          "indexed": false,
          "internalType": "uint8",
          "name": "max",
          "type": "uint8"
        }
      ],
      "name": "WordRangeUpdated",
      "type": "event"
    },
    {
      "inputs": [],
      "name": "DEFAULT_ADMIN_ROLE",
      "outputs": [
        {
          "internalType": "bytes32",
          "name": "",
          "type": "bytes32"
        }
      ],
      "stateMutability": "view",
      "type": "function"
    },
    {
      "inputs": [
        {
          "internalType": "string",
          "name": "name",
          "type": "string"
        }
      ],
      "name": "containsBlacklistedWord",
      "outputs": [
        {
          "internalType": "bool",
          "name": "",
          "type": "bool"
        }
      ],
      "stateMutability": "view",
      "type": "function"
    },
    {
      "inputs": [
        {
          "internalType": "string",
          "name": "name",
          "type": "string"
        }
      ],
      "name": "containsInvalidCharacter",
      "outputs": [
        {
          "internalType": "bool",
          "name": "",
          "type": "bool"
        }
      ],
      "stateMutability": "pure",
      "type": "function"
    },
    {
      "inputs": [
        {
          "internalType": "string",
          "name": "name",
          "type": "string"
        }
      ],
      "name": "forbidden",
      "outputs": [
        {
          "internalType": "bool",
          "name": "",
          "type": "bool"
        }
      ],
      "stateMutability": "view",
      "type": "function"
    },
    {
      "inputs": [
        {
          "internalType": "string",
          "name": "str",
          "type": "string"
        }
      ],
      "name": "getAllSubStrings",
      "outputs": [
        {
          "internalType": "string[]",
          "name": "subStrings",
          "type": "string[]"
        }
      ],
      "stateMutability": "view",
      "type": "function"
    },
    {
      "inputs": [
        {
          "internalType": "bytes32",
          "name": "role",
          "type": "bytes32"
        }
      ],
      "name": "getRoleAdmin",
      "outputs": [
        {
          "internalType": "bytes32",
          "name": "",
          "type": "bytes32"
        }
      ],
      "stateMutability": "view",
      "type": "function"
    },
    {
      "inputs": [
        {
          "internalType": "bytes32",
          "name": "role",
          "type": "bytes32"
        },
        {
          "internalType": "uint256",
          "name": "index",
          "type": "uint256"
        }
      ],
      "name": "getRoleMember",
      "outputs": [
        {
          "internalType": "address",
          "name": "",
          "type": "address"
        }
      ],
      "stateMutability": "view",
      "type": "function"
    },
    {
      "inputs": [
        {
          "internalType": "bytes32",
          "name": "role",
          "type": "bytes32"
        }
      ],
      "name": "getRoleMemberCount",
      "outputs": [
        {
          "internalType": "uint256",
          "name": "",
          "type": "uint256"
        }
      ],
      "stateMutability": "view",
      "type": "function"
    },
    {
      "inputs": [],
      "name": "getWordRange",
      "outputs": [
        {
          "internalType": "uint8",
          "name": "min",
          "type": "uint8"
        },
        {
          "internalType": "uint8",
          "name": "max",
          "type": "uint8"
        }
      ],
      "stateMutability": "view",
      "type": "function"
    },
    {
      "inputs": [
        {
          "internalType": "bytes32",
          "name": "role",
          "type": "bytes32"
        },
        {
          "internalType": "address",
          "name": "account",
          "type": "address"
        }
      ],
      "name": "grantRole",
      "outputs": [],
      "stateMutability": "nonpayable",
      "type": "function"
    },
    {
      "inputs": [
        {
          "internalType": "bytes32",
          "name": "role",
          "type": "bytes32"
        },
        {
          "internalType": "address",
          "name": "account",
          "type": "address"
        }
      ],
      "name": "hasRole",
      "outputs": [
        {
          "internalType": "bool",
          "name": "",
          "type": "bool"
        }
      ],
      "stateMutability": "view",
      "type": "function"
    },
    {
      "inputs": [
        {
          "internalType": "address",
          "name": "admin",
          "type": "address"
        },
        {
          "internalType": "uint8",
          "name": "min",
          "type": "uint8"
        },
        {
          "internalType": "uint8",
          "name": "max",
          "type": "uint8"
        }
      ],
      "name": "initialize",
      "outputs": [],
      "stateMutability": "nonpayable",
      "type": "function"
    },
    {
      "inputs": [
        {
          "internalType": "string",
          "name": "str",
          "type": "string"
        }
      ],
      "name": "pack",
      "outputs": [
        {
          "internalType": "uint256",
          "name": "packed",
          "type": "uint256"
        }
      ],
      "stateMutability": "pure",
      "type": "function"
    },
    {
      "inputs": [
        {
          "internalType": "string[]",
          "name": "strs",
          "type": "string[]"
        }
      ],
      "name": "packBulk",
      "outputs": [
        {
          "internalType": "uint256[]",
          "name": "packeds",
          "type": "uint256[]"
        }
      ],
      "stateMutability": "pure",
      "type": "function"
    },
    {
      "inputs": [
        {
          "internalType": "bytes32",
          "name": "role",
          "type": "bytes32"
        },
        {
          "internalType": "address",
          "name": "account",
          "type": "address"
        }
      ],
      "name": "renounceRole",
      "outputs": [],
      "stateMutability": "nonpayable",
      "type": "function"
    },
    {
      "inputs": [
        {
          "internalType": "bytes32",
          "name": "role",
          "type": "bytes32"
        },
        {
          "internalType": "address",
          "name": "account",
          "type": "address"
        }
      ],
      "name": "revokeRole",
      "outputs": [],
      "stateMutability": "nonpayable",
      "type": "function"
    },
    {
      "inputs": [
        {
          "internalType": "uint256[]",
          "name": "packedWords",
          "type": "uint256[]"
        },
        {
          "internalType": "bool",
          "name": "shouldForbid",
          "type": "bool"
        }
      ],
      "name": "setForbiddenWords",
      "outputs": [],
      "stateMutability": "nonpayable",
      "type": "function"
    },
    {
      "inputs": [
        {
          "internalType": "string[]",
          "name": "words",
          "type": "string[]"
        },
        {
          "internalType": "bool",
          "name": "shouldForbid",
          "type": "bool"
        }
      ],
      "name": "setForbiddenWords",
      "outputs": [],
      "stateMutability": "nonpayable",
      "type": "function"
    },
    {
      "inputs": [
        {
          "internalType": "uint8",
          "name": "min",
          "type": "uint8"
        },
        {
          "internalType": "uint8",
          "name": "max",
          "type": "uint8"
        }
      ],
      "name": "setWordRange",
      "outputs": [],
      "stateMutability": "nonpayable",
      "type": "function"
    },
    {
      "inputs": [
        {
          "internalType": "bytes4",
          "name": "interfaceId",
          "type": "bytes4"
        }
      ],
      "name": "supportsInterface",
      "outputs": [
        {
          "internalType": "bool",
          "name": "",
          "type": "bool"
        }
      ],
      "stateMutability": "view",
      "type": "function"
    },
    {
      "inputs": [
        {
          "internalType": "uint256",
          "name": "strlen",
          "type": "uint256"
        }
      ],
      "name": "totalSubString",
      "outputs": [
        {
          "internalType": "uint256",
          "name": "total",
          "type": "uint256"
        },
        {
          "internalType": "uint256",
          "name": "min",
          "type": "uint256"
        },
        {
          "internalType": "uint256",
          "name": "max",
          "type": "uint256"
        }
      ],
      "stateMutability": "view",
      "type": "function"
    }
  ],
  "address": "0xAf4a77BC41320bedf62d33ad278d76731EAAbCF4",
  "args": "0x",
  "blockNumber": 21224275,
  "bytecode": "0x608060405261000c610011565b6100d0565b600054610100900460ff161561007d5760405162461bcd60e51b815260206004820152602760248201527f496e697469616c697a61626c653a20636f6e747261637420697320696e697469604482015266616c697a696e6760c81b606482015260840160405180910390fd5b60005460ff908116146100ce576000805460ff191660ff9081179091556040519081527f7f26b83ff96e1f2b6a682f133852f6798a09c465da95921460cefb38474024989060200160405180910390a15b565b611a34806100df6000396000f3fe608060405234801561001057600080fd5b50600436106101375760003560e01c806391d14854116100b8578063ca5f79951161007c578063ca5f7995146102df578063d547741f1461030d578063e04af3b714610320578063e786c3ad14610340578063fb3809be14610360578063fbc639091461037357600080fd5b806391d148541461027957806392aec2fc1461028c57806396237206146102b1578063a217fddf146102c4578063ca15c873146102cc57600080fd5b80632f2ff15d116100ff5780632f2ff15d1461020257806336568abe14610215578063439e42e7146102285780635c0a3caa1461023b5780639010d07c1461024e57600080fd5b806301ffc9a71461013c5780630fda4464146101645780631d367b5714610177578063245ed654146101bb578063248a9ca3146101d0575b600080fd5b61014f61014a3660046113ad565b610386565b60405190151581526020015b60405180910390f35b61014f6101723660046113d7565b6103b1565b6101a16040805180820190915260355460ff80821680845261010090920416602090920182905291565b6040805160ff93841681529290911660208301520161015b565b6101ce6101c93660046114aa565b6103d4565b005b6101f46101de3660046114fe565b6000908152600160208190526040909120015490565b60405190815260200161015b565b6101ce61021036600461152e565b610423565b6101ce61022336600461152e565b61044e565b61014f6102363660046113d7565b6104d1565b61014f6102493660046113d7565b61056f565b61026161025c36600461155a565b610737565b6040516001600160a01b03909116815260200161015b565b61014f61028736600461152e565b61074f565b6101f461029a366004611633565b6000601f600183510310601f830151029050919050565b6101ce6102bf3660046114aa565b61077a565b6101f4600081565b6101f46102da3660046114fe565b6107a7565b6102f26102ed3660046114fe565b6107be565b6040805193845260208401929092529082015260600161015b565b6101ce61031b36600461152e565b6107fd565b61033361032e3660046116f5565b610823565b60405161015b919061173e565b61035361034e3660046113d7565b6108b9565b60405161015b91906117d2565b6101ce61036e366004611845565b6108e9565b6101ce61038136600461187f565b610a09565b60006001600160e01b03198216635a05180f60e01b14806103ab57506103ab82610a1e565b92915050565b60006103bd838361056f565b806103cd57506103cd83836104d1565b9392505050565b60006103df81610a53565b61041d848480806020026020016040519081016040528093929190818152602001838360200280828437600092019190915250869250610a60915050565b50505050565b6000828152600160208190526040909120015461043f81610a53565b6104498383610c00565b505050565b6001600160a01b03811633146104c35760405162461bcd60e51b815260206004820152602f60248201527f416363657373436f6e74726f6c3a2063616e206f6e6c792072656e6f756e636560448201526e103937b632b9903337b91039b2b63360891b60648201526084015b60405180910390fd5b6104cd8282610c22565b5050565b6000806104de84846108b9565b805190915060005b818110156105635761054a610525848381518110610506576105066118a9565b60200260200101516000601f600183510310601f830151029050919050565b600881901c600090815260366020526040902054600160ff9092169190911b16151590565b1561055b57600193505050506103ab565b6001016104e6565b50600095945050505050565b600080600084848080601f01602080910402602001604051908101604052809392919081815260200183838082843760009201919091525050825192935050600019820190508115806105e75750826000815181106105d0576105d06118a9565b6020910101516001600160f81b031916602d60f81b145b8061061657508281815181106105ff576105ff6118a9565b6020910101516001600160f81b031916602d60f81b145b156106285760019450505050506103ab565b60005b8281101561072957838181518110610645576106456118a9565b01602001516001600160f81b0319169450602d60f81b8590036106b1578181141580156106995750838160010181518110610682576106826118a9565b6020910101516001600160f81b031916602d60f81b145b156106ac576001955050505050506103ab565b610721565b600360fc1b6001600160f81b03198616108015906106dd5750603960f81b6001600160f81b0319861611155b8061070f5750606160f81b6001600160f81b031986161080159061070f5750603d60f91b6001600160f81b0319861611155b610721576001955050505050506103ab565b60010161062b565b506000979650505050505050565b60008281526002602052604081206103cd9083610c44565b60009182526001602090815260408084206001600160a01b0393909316845291905290205460ff1690565b600061078581610a53565b600061079461032e85876118bf565b90506107a08184610a60565b5050505050565b60008181526002602052604081206103ab90610c50565b6040805180820190915260355460ff8082168352610100909104166020820152600090819081906107f0908590610c5a565b9196909550909350915050565b6000828152600160208190526040909120015461081981610a53565b6104498383610c22565b80516060908067ffffffffffffffff8111156108415761084161157c565b60405190808252806020026020018201604052801561086a578160200160208202803683370190505b50915060005b818110156108b25761088d848281518110610506576105066118a9565b83828151811061089f5761089f6118a9565b6020908102919091010152600101610870565b5050919050565b6040805180820190915260355460ff80821683526101009091041660208201526060906103cd9084908490610ccb565b600054610100900460ff16158080156109095750600054600160ff909116105b806109235750303b158015610923575060005460ff166001145b6109865760405162461bcd60e51b815260206004820152602e60248201527f496e697469616c697a61626c653a20636f6e747261637420697320616c72656160448201526d191e481a5b9a5d1a585b1a5e995960921b60648201526084016104ba565b6000805460ff1916600117905580156109a9576000805461ff0019166101001790555b6109b4600085610dda565b6109be8383610de4565b801561041d576000805461ff0019169055604051600181527f7f26b83ff96e1f2b6a682f133852f6798a09c465da95921460cefb38474024989060200160405180910390a150505050565b6000610a1481610a53565b6104498383610de4565b60006001600160e01b03198216637965db0b60e01b14806103ab57506301ffc9a760e01b6001600160e01b03198316146103ab565b610a5d8133610eca565b50565b8151600080600019815b84811015610b4a57868181518110610a8457610a846118a9565b6020026020010151600003610adb5760405162461bcd60e51b815260206004820181905260248201527f4e616d65436865636b65723a20696e76616c6964207061636b656420776f726460448201526064016104ba565b60f8878281518110610aef57610aef6118a9565b6020026020010151901c9350610b058285610f23565b9150610b118385610f39565b9250610b42878281518110610b2857610b286118a9565b6020026020010151876036610f489092919063ffffffff16565b600101610a6a565b508415610bbc576040805180820190915260355460ff808216808452610100909204166020830152610b7d908390610f23565b9150610b9083826020015160ff16610f39565b815190935060ff1682148015610bac5750806020015160ff1683145b610bba57610bba8284610de4565b505b60408051858152861515602082015233917f060d5a3fc05fdd11d7ba941d00a4fdcde096fb95171930e19997ce2b7df89174910160405180910390a2505050505050565b610c0a8282610f97565b60008281526002602052604090206104499082611002565b610c2c8282611017565b6000828152600260205260409020610449908261107e565b60006103cd8383611093565b60006103ab825490565b6000806000610c70846000015160ff1686610f23565b9150610c83846020015160ff1686610f23565b8281036001818101808302821c868a039092010203945090915061ffff841115610cc357604051630faa3ef560e11b8152600481018590526024016104ba565b509250925092565b60608260008080610cdc8487610c5a565b9250925092508267ffffffffffffffff811115610cfb57610cfb61157c565b604051908082528060200260200182016040528015610d2e57816020015b6060815260200190600190039081610d195790505b50945060008060005b86811015610dcc57610d4b84820188610f23565b91508085015b828111610dc357610d6481838d8f6118cc565b8080601f016020809104026020016040519081016040528093929190818152602001838380828437600092019190915250508b5160018801978d935091508110610db057610db06118a9565b6020908102919091010152600101610d51565b50600101610d37565b505050505050509392505050565b6104cd8282610c00565b60ff821615801590610dfc57508060ff168260ff1611155b610e5f5760405162461bcd60e51b815260206004820152602e60248201527f4e616d65436865636b65723a206d696e20776f7264206c656e677468203e206d60448201526d0c2f040eedee4c840d8cadccee8d60931b60648201526084016104ba565b60408051808201825260ff84811680835290841660209283018190526035805461ffff191683176101008302179055835191825291810191909152815133927faabf778cd749a472313a9476aa3b29565e69697c48eb0f82b52fc9f071fd3c95928290030190a25050565b610ed4828261074f565b6104cd57610ee1816110bd565b610eec8360206110cf565b604051602001610efd9291906118f6565b60408051601f198184030181529082905262461bcd60e51b82526104ba9160040161196b565b6000818310610f3257816103cd565b5090919050565b6000818311610f3257816103cd565b8015610f7257600882901c60009081526020849052604090208054600160ff85161b179055505050565b600882901c60009081526020849052604090208054600160ff85161b19169055505050565b610fa1828261074f565b6104cd5760008281526001602081815260408084206001600160a01b0386168086529252808420805460ff19169093179092559051339285917f2f8788117e7eff1d82e926ec794901d17c78024a50270940304540a733656f0d9190a45050565b60006103cd836001600160a01b03841661126b565b611021828261074f565b156104cd5760008281526001602090815260408083206001600160a01b0385168085529252808320805460ff1916905551339285917ff6391f5c32d9c69d2a47ea670b442974b53935d1edc7fd64eb21e047a839171b9190a45050565b60006103cd836001600160a01b0384166112ba565b60008260000182815481106110aa576110aa6118a9565b9060005260206000200154905092915050565b60606103ab6001600160a01b03831660145b606060006110de836002611994565b6110e99060026119ab565b67ffffffffffffffff8111156111015761110161157c565b6040519080825280601f01601f19166020018201604052801561112b576020820181803683370190505b509050600360fc1b81600081518110611146576111466118a9565b60200101906001600160f81b031916908160001a905350600f60fb1b81600181518110611175576111756118a9565b60200101906001600160f81b031916908160001a9053506000611199846002611994565b6111a49060016119ab565b90505b600181111561121c576f181899199a1a9b1b9c1cb0b131b232b360811b85600f16601081106111d8576111d86118a9565b1a60f81b8282815181106111ee576111ee6118a9565b60200101906001600160f81b031916908160001a90535060049490941c93611215816119be565b90506111a7565b5083156103cd5760405162461bcd60e51b815260206004820181905260248201527f537472696e67733a20686578206c656e67746820696e73756666696369656e7460448201526064016104ba565b60008181526001830160205260408120546112b2575081546001818101845560008481526020808220909301849055845484825282860190935260409020919091556103ab565b5060006103ab565b600081815260018301602052604081205480156113a35760006112de6001836119d5565b85549091506000906112f2906001906119d5565b9050818114611357576000866000018281548110611312576113126118a9565b9060005260206000200154905080876000018481548110611335576113356118a9565b6000918252602080832090910192909255918252600188019052604090208390555b8554869080611368576113686119e8565b6001900381819060005260206000200160009055905585600101600086815260200190815260200160002060009055600193505050506103ab565b60009150506103ab565b6000602082840312156113bf57600080fd5b81356001600160e01b0319811681146103cd57600080fd5b600080602083850312156113ea57600080fd5b823567ffffffffffffffff8082111561140257600080fd5b818501915085601f83011261141657600080fd5b81358181111561142557600080fd5b86602082850101111561143757600080fd5b60209290920196919550909350505050565b60008083601f84011261145b57600080fd5b50813567ffffffffffffffff81111561147357600080fd5b6020830191508360208260051b850101111561148e57600080fd5b9250929050565b803580151581146114a557600080fd5b919050565b6000806000604084860312156114bf57600080fd5b833567ffffffffffffffff8111156114d657600080fd5b6114e286828701611449565b90945092506114f5905060208501611495565b90509250925092565b60006020828403121561151057600080fd5b5035919050565b80356001600160a01b03811681146114a557600080fd5b6000806040838503121561154157600080fd5b8235915061155160208401611517565b90509250929050565b6000806040838503121561156d57600080fd5b50508035926020909101359150565b634e487b7160e01b600052604160045260246000fd5b604051601f8201601f1916810167ffffffffffffffff811182821017156115bb576115bb61157c565b604052919050565b600082601f8301126115d457600080fd5b813567ffffffffffffffff8111156115ee576115ee61157c565b611601601f8201601f1916602001611592565b81815284602083860101111561161657600080fd5b816020850160208301376000918101602001919091529392505050565b60006020828403121561164557600080fd5b813567ffffffffffffffff81111561165c57600080fd5b611668848285016115c3565b949350505050565b600067ffffffffffffffff8084111561168b5761168b61157c565b8360051b602061169c818301611592565b868152935090840190808401878311156116b557600080fd5b855b838110156116e9578035858111156116cf5760008081fd5b6116db8a828a016115c3565b8352509082019082016116b7565b50505050509392505050565b60006020828403121561170757600080fd5b813567ffffffffffffffff81111561171e57600080fd5b8201601f8101841361172f57600080fd5b61166884823560208401611670565b6020808252825182820181905260009190848201906040850190845b818110156117765783518352928401929184019160010161175a565b50909695505050505050565b60005b8381101561179d578181015183820152602001611785565b50506000910152565b600081518084526117be816020860160208601611782565b601f01601f19169290920160200192915050565b6000602080830181845280855180835260408601915060408160051b870101925083870160005b8281101561182757603f198886030184526118158583516117a6565b945092850192908501906001016117f9565b5092979650505050505050565b803560ff811681146114a557600080fd5b60008060006060848603121561185a57600080fd5b61186384611517565b925061187160208501611834565b91506114f560408501611834565b6000806040838503121561189257600080fd5b61189b83611834565b915061155160208401611834565b634e487b7160e01b600052603260045260246000fd5b60006103cd368484611670565b600080858511156118dc57600080fd5b838611156118e957600080fd5b5050820193919092039150565b7f416363657373436f6e74726f6c3a206163636f756e742000000000000000000081526000835161192e816017850160208801611782565b7001034b99036b4b9b9b4b733903937b6329607d1b601791840191820152835161195f816028840160208801611782565b01602801949350505050565b6020815260006103cd60208301846117a6565b634e487b7160e01b600052601160045260246000fd5b80820281158282048414176103ab576103ab61197e565b808201808211156103ab576103ab61197e565b6000816119cd576119cd61197e565b506000190190565b818103818111156103ab576103ab61197e565b634e487b7160e01b600052603160045260246000fdfea26469706673582212202247f1c7e637d2639344dd5ecdf7446256de2b88f161ff1c1c345bfb1a96a16764736f6c63430008150033",
  "chainId": 2021,
  "contractName": "NameChecker",
  "deployer": "0x968D0Cd7343f711216817E617d3f92a23dC91c07",
  "devdoc": {
    "version": 1,
    "kind": "dev",
    "methods": {
      "containsBlacklistedWord(string)": {
        "params": {
          "name": "The string to check."
        },
        "returns": {
          "_0": "true if the name contains blacklisted words, false otherwise."
        }
      },
      "containsInvalidCharacter(string)": {
        "params": {
          "name": "The string to check."
        },
        "returns": {
          "_0": "true if the name contains invalid characters, false otherwise."
        }
      },
      "forbidden(string)": {
        "params": {
          "name": "The string to check."
        },
        "returns": {
          "_0": "true if the name contains forbidden characters or blacklisted words, false otherwise."
        }
      },
      "getAllSubStrings(string)": {
        "details": "Returns an array of all substrings of a given string.",
        "params": {
          "str": "The input string to analyze."
        },
        "returns": {
          "subStrings": "An array of all substrings."
        }
      },
      "getRoleAdmin(bytes32)": {
        "details": "Returns the admin role that controls `role`. See {grantRole} and {revokeRole}. To change a role's admin, use {_setRoleAdmin}."
      },
      "getRoleMember(bytes32,uint256)": {
        "details": "Returns one of the accounts that have `role`. `index` must be a value between 0 and {getRoleMemberCount}, non-inclusive. Role bearers are not sorted in any particular way, and their ordering may change at any point. WARNING: When using {getRoleMember} and {getRoleMemberCount}, make sure you perform all queries on the same block. See the following https://forum.openzeppelin.com/t/iterating-over-elements-on-enumerableset-in-openzeppelin-contracts/2296[forum post] for more information."
      },
      "getRoleMemberCount(bytes32)": {
        "details": "Returns the number of accounts that have `role`. Can be used together with {getRoleMember} to enumerate all bearers of a role."
      },
      "getWordRange()": {
        "details": "Retrieves the current minimum and maximum word lengths allowed.",
        "returns": {
          "max": "The maximum word length allowed.",
          "min": "The minimum word length allowed."
        }
      },
      "grantRole(bytes32,address)": {
        "details": "Grants `role` to `account`. If `account` had not been already granted `role`, emits a {RoleGranted} event. Requirements: - the caller must have ``role``'s admin role. May emit a {RoleGranted} event."
      },
      "hasRole(bytes32,address)": {
        "details": "Returns `true` if `account` has been granted `role`."
      },
      "pack(string)": {
        "details": "Packs a string into a single word representation.",
        "params": {
          "str": "The string to be packed."
        },
        "returns": {
          "packed": "The packed value of the input string."
        }
      },
      "packBulk(string[])": {
        "details": "Packs an array of strings into their single word representations.",
        "params": {
          "strs": "The array of strings to be packed."
        },
        "returns": {
          "packeds": "An array containing the packed values of the input strings."
        }
      },
      "renounceRole(bytes32,address)": {
        "details": "Revokes `role` from the calling account. Roles are often managed via {grantRole} and {revokeRole}: this function's purpose is to provide a mechanism for accounts to lose their privileges if they are compromised (such as when a trusted device is misplaced). If the calling account had been revoked `role`, emits a {RoleRevoked} event. Requirements: - the caller must be `account`. May emit a {RoleRevoked} event."
      },
      "revokeRole(bytes32,address)": {
        "details": "Revokes `role` from `account`. If `account` had been granted `role`, emits a {RoleRevoked} event. Requirements: - the caller must have ``role``'s admin role. May emit a {RoleRevoked} event."
      },
      "setForbiddenWords(string[],bool)": {
        "details": "Sets a list of forbidden words and specifies whether they should be forbidden.",
        "params": {
          "shouldForbid": "Boolean indicating whether the specified words should be forbidden.",
          "words": "An array of raw words in string representations."
        }
      },
      "setForbiddenWords(uint256[],bool)": {
        "details": "Sets a list of forbidden words and specifies whether they should be forbidden.",
        "params": {
          "packedWords": "An array of packed word representations.",
          "shouldForbid": "Boolean indicating whether the specified words should be forbidden."
        }
      },
      "setWordRange(uint8,uint8)": {
        "details": "Sets the minimum and maximum word lengths allowed.",
        "params": {
          "max": "The maximum word length.",
          "min": "The minimum word length."
        }
      },
      "supportsInterface(bytes4)": {
        "details": "See {IERC165-supportsInterface}."
      },
      "totalSubString(uint256)": {
        "details": "Returns the total number of substrings for a given string length, as well as the minimum and maximum allowed word lengths.",
        "params": {
          "strlen": "The length of the input string."
        },
        "returns": {
          "max": "The maximum word length allowed.",
          "min": "The minimum word length allowed.",
          "total": "The total number of substrings."
        }
      }
    },
    "events": {
      "ForbiddenWordsUpdated(address,uint256,bool)": {
        "details": "Emitted when the forbidden words are updated.",
        "params": {
          "operator": "The address that updated the forbidden words list.",
          "shouldForbid": "Boolean indicating whether the specified words should be forbidden.",
          "wordCount": "The number of words in the list."
        }
      },
      "Initialized(uint8)": {
        "details": "Triggered when the contract has been initialized or reinitialized."
      },
      "RoleAdminChanged(bytes32,bytes32,bytes32)": {
        "details": "Emitted when `newAdminRole` is set as ``role``'s admin role, replacing `previousAdminRole` `DEFAULT_ADMIN_ROLE` is the starting admin for all roles, despite {RoleAdminChanged} not being emitted signaling this. _Available since v3.1._"
      },
      "RoleGranted(bytes32,address,address)": {
        "details": "Emitted when `account` is granted `role`. `sender` is the account that originated the contract call, an admin role bearer except when using {AccessControl-_setupRole}."
      },
      "RoleRevoked(bytes32,address,address)": {
        "details": "Emitted when `account` is revoked `role`. `sender` is the account that originated the contract call:   - if using `revokeRole`, it is the admin role bearer   - if using `renounceRole`, it is the role bearer (i.e. `account`)"
      },
      "WordRangeUpdated(address,uint8,uint8)": {
        "details": "Emitted when the word range is updated.",
        "params": {
          "max": "The maximum word length allowed.",
          "min": "The minimum word length allowed.",
          "operator": "The address that updated the word range."
        }
      }
    }
  },
  "isFoundry": true,
  "nonce": 182499,
  "numDeployments": 1,
  "storageLayout": {
    "storage": [
      {
        "astId": 50000,
        "contract": "src/NameChecker.sol:NameChecker",
        "label": "_initialized",
        "offset": 0,
        "slot": "0",
        "type": "t_uint8"
      },
      {
        "astId": 50003,
        "contract": "src/NameChecker.sol:NameChecker",
        "label": "_initializing",
        "offset": 1,
        "slot": "0",
        "type": "t_bool"
      },
      {
        "astId": 48473,
        "contract": "src/NameChecker.sol:NameChecker",
        "label": "_roles",
        "offset": 0,
        "slot": "1",
        "type": "t_mapping(t_bytes32,t_struct(RoleData)48468_storage)"
      },
      {
        "astId": 48783,
        "contract": "src/NameChecker.sol:NameChecker",
        "label": "_roleMembers",
        "offset": 0,
        "slot": "2",
        "type": "t_mapping(t_bytes32,t_struct(AddressSet)54352_storage)"
      },
      {
        "astId": 58252,
        "contract": "src/NameChecker.sol:NameChecker",
        "label": "____gap",
        "offset": 0,
        "slot": "3",
        "type": "t_array(t_uint256)50_storage"
      },
      {
        "astId": 58255,
        "contract": "src/NameChecker.sol:NameChecker",
        "label": "_wordRange",
        "offset": 0,
        "slot": "53",
        "type": "t_struct(WordRange)66492_storage"
      },
      {
        "astId": 58258,
        "contract": "src/NameChecker.sol:NameChecker",
        "label": "_forbiddenWordMap",
        "offset": 0,
        "slot": "54",
        "type": "t_struct(BitMap)53896_storage"
      }
    ],
    "types": {
      "t_address": {
        "encoding": "inplace",
        "label": "address",
        "numberOfBytes": "20"
      },
      "t_array(t_bytes32)dyn_storage": {
        "encoding": "dynamic_array",
        "label": "bytes32[]",
        "numberOfBytes": "32",
        "base": "t_bytes32"
      },
      "t_array(t_uint256)50_storage": {
        "encoding": "inplace",
        "label": "uint256[50]",
        "numberOfBytes": "1600",
        "base": "t_uint256"
      },
      "t_bool": {
        "encoding": "inplace",
        "label": "bool",
        "numberOfBytes": "1"
      },
      "t_bytes32": {
        "encoding": "inplace",
        "label": "bytes32",
        "numberOfBytes": "32"
      },
      "t_mapping(t_address,t_bool)": {
        "encoding": "mapping",
        "key": "t_address",
        "label": "mapping(address => bool)",
        "numberOfBytes": "32",
        "value": "t_bool"
      },
      "t_mapping(t_bytes32,t_struct(AddressSet)54352_storage)": {
        "encoding": "mapping",
        "key": "t_bytes32",
        "label": "mapping(bytes32 => struct EnumerableSet.AddressSet)",
        "numberOfBytes": "32",
        "value": "t_struct(AddressSet)54352_storage"
      },
      "t_mapping(t_bytes32,t_struct(RoleData)48468_storage)": {
        "encoding": "mapping",
        "key": "t_bytes32",
        "label": "mapping(bytes32 => struct AccessControl.RoleData)",
        "numberOfBytes": "32",
        "value": "t_struct(RoleData)48468_storage"
      },
      "t_mapping(t_bytes32,t_uint256)": {
        "encoding": "mapping",
        "key": "t_bytes32",
        "label": "mapping(bytes32 => uint256)",
        "numberOfBytes": "32",
        "value": "t_uint256"
      },
      "t_mapping(t_uint256,t_uint256)": {
        "encoding": "mapping",
        "key": "t_uint256",
        "label": "mapping(uint256 => uint256)",
        "numberOfBytes": "32",
        "value": "t_uint256"
      },
      "t_struct(AddressSet)54352_storage": {
        "encoding": "inplace",
        "label": "struct EnumerableSet.AddressSet",
        "numberOfBytes": "64",
        "members": [
          {
            "astId": 54351,
            "contract": "src/NameChecker.sol:NameChecker",
            "label": "_inner",
            "offset": 0,
            "slot": "0",
            "type": "t_struct(Set)54037_storage"
          }
        ]
      },
      "t_struct(BitMap)53896_storage": {
        "encoding": "inplace",
        "label": "struct BitMaps.BitMap",
        "numberOfBytes": "32",
        "members": [
          {
            "astId": 53895,
            "contract": "src/NameChecker.sol:NameChecker",
            "label": "_data",
            "offset": 0,
            "slot": "0",
            "type": "t_mapping(t_uint256,t_uint256)"
          }
        ]
      },
      "t_struct(RoleData)48468_storage": {
        "encoding": "inplace",
        "label": "struct AccessControl.RoleData",
        "numberOfBytes": "64",
        "members": [
          {
            "astId": 48465,
            "contract": "src/NameChecker.sol:NameChecker",
            "label": "members",
            "offset": 0,
            "slot": "0",
            "type": "t_mapping(t_address,t_bool)"
          },
          {
            "astId": 48467,
            "contract": "src/NameChecker.sol:NameChecker",
            "label": "adminRole",
            "offset": 0,
            "slot": "1",
            "type": "t_bytes32"
          }
        ]
      },
      "t_struct(Set)54037_storage": {
        "encoding": "inplace",
        "label": "struct EnumerableSet.Set",
        "numberOfBytes": "64",
        "members": [
          {
            "astId": 54032,
            "contract": "src/NameChecker.sol:NameChecker",
            "label": "_values",
            "offset": 0,
            "slot": "0",
            "type": "t_array(t_bytes32)dyn_storage"
          },
          {
            "astId": 54036,
            "contract": "src/NameChecker.sol:NameChecker",
            "label": "_indexes",
            "offset": 0,
            "slot": "1",
            "type": "t_mapping(t_bytes32,t_uint256)"
          }
        ]
      },
      "t_struct(WordRange)66492_storage": {
        "encoding": "inplace",
        "label": "struct LibSubString.WordRange",
        "numberOfBytes": "32",
        "members": [
          {
            "astId": 66489,
            "contract": "src/NameChecker.sol:NameChecker",
            "label": "min",
            "offset": 0,
            "slot": "0",
            "type": "t_uint8"
          },
          {
            "astId": 66491,
            "contract": "src/NameChecker.sol:NameChecker",
            "label": "max",
            "offset": 1,
            "slot": "0",
            "type": "t_uint8"
          }
        ]
      },
      "t_uint256": {
        "encoding": "inplace",
        "label": "uint256",
        "numberOfBytes": "32"
      },
      "t_uint8": {
        "encoding": "inplace",
        "label": "uint8",
        "numberOfBytes": "1"
      }
    }
  },
  "timestamp": 1697372891,
  "userdoc": {
    "version": 1,
    "kind": "user",
    "methods": {
      "containsBlacklistedWord(string)": {
        "notice": "Checks if a given name contains any blacklisted words."
      },
      "containsInvalidCharacter(string)": {
        "notice": "Checks if a given name contains any invalid characters. requirements: - all characters in name must in range [a-z] or [0-9]."
      },
      "forbidden(string)": {
        "notice": "Checks if a given name contains any forbidden characters or blacklisted words."
      },
      "pack(string)": {
        "notice": "Returns `uint256(0)` if the length is zero or greater than 31."
      },
      "packBulk(string[])": {
        "notice": "Returns an array of packed values, along with the minimum and maximum string lengths."
      }
    }
  }
}