{
  "abi": [
    {
      "inputs": [],
      "stateMutability": "payable",
      "type": "constructor"
    },
    {
      "inputs": [
        {
          "internalType": "uint256",
          "name": "id",
          "type": "uint256"
        }
      ],
      "name": "AlreadyBidding",
      "type": "error"
    },
    {
      "inputs": [],
      "name": "ContractBidderIsForbidden",
      "type": "error"
    },
    {
      "inputs": [],
      "name": "EventIsNotCreatedOrAlreadyStarted",
      "type": "error"
    },
    {
      "inputs": [],
      "name": "InsufficientAmount",
      "type": "error"
    },
    {
      "inputs": [],
      "name": "InvalidArrayLength",
      "type": "error"
    },
    {
      "inputs": [],
      "name": "InvalidEventRange",
      "type": "error"
    },
    {
      "inputs": [],
      "name": "NameNotReserved",
      "type": "error"
    },
    {
      "inputs": [],
      "name": "NoOneBidded",
      "type": "error"
    },
    {
      "inputs": [],
      "name": "NotYetEnded",
      "type": "error"
    },
    {
      "inputs": [],
      "name": "NullAssignment",
      "type": "error"
    },
    {
      "inputs": [],
      "name": "QueryIsNotInPeriod",
      "type": "error"
    },
    {
      "inputs": [],
      "name": "RatioIsTooLarge",
      "type": "error"
    },
    {
      "anonymous": false,
      "inputs": [
        {
          "indexed": true,
          "internalType": "bytes32",
          "name": "auctionId",
          "type": "bytes32"
        },
        {
          "components": [
            {
              "internalType": "uint256",
              "name": "startedAt",
              "type": "uint256"
            },
            {
              "internalType": "uint256",
              "name": "endedAt",
              "type": "uint256"
            }
          ],
          "indexed": false,
          "internalType": "struct EventRange",
          "name": "range",
          "type": "tuple"
        }
      ],
      "name": "AuctionEventSet",
      "type": "event"
    },
    {
      "anonymous": false,
      "inputs": [
        {
          "indexed": false,
          "internalType": "uint256",
          "name": "ratio",
          "type": "uint256"
        }
      ],
      "name": "BidGapRatioUpdated",
      "type": "event"
    },
    {
      "anonymous": false,
      "inputs": [
        {
          "indexed": true,
          "internalType": "bytes32",
          "name": "auctionId",
          "type": "bytes32"
        },
        {
          "indexed": true,
          "internalType": "uint256",
          "name": "id",
          "type": "uint256"
        },
        {
          "indexed": false,
          "internalType": "uint256",
          "name": "price",
          "type": "uint256"
        },
        {
          "indexed": false,
          "internalType": "address payable",
          "name": "bidder",
          "type": "address"
        },
        {
          "indexed": false,
          "internalType": "uint256",
          "name": "previousPrice",
          "type": "uint256"
        },
        {
          "indexed": false,
          "internalType": "address",
          "name": "previousBidder",
          "type": "address"
        }
      ],
      "name": "BidPlaced",
      "type": "event"
    },
    {
      "anonymous": false,
      "inputs": [
        {
          "indexed": false,
          "internalType": "uint8",
          "name": "version",
          "type": "uint8"
        }
      ],
      "name": "Initialized",
      "type": "event"
    },
    {
      "anonymous": false,
      "inputs": [
        {
          "indexed": true,
          "internalType": "bytes32",
          "name": "auctionId",
          "type": "bytes32"
        },
        {
          "indexed": false,
          "internalType": "uint256[]",
          "name": "ids",
          "type": "uint256[]"
        },
        {
          "indexed": false,
          "internalType": "uint256[]",
          "name": "startingPrices",
          "type": "uint256[]"
        }
      ],
      "name": "LabelsListed",
      "type": "event"
    },
    {
      "anonymous": false,
      "inputs": [
        {
          "indexed": true,
          "internalType": "bytes32",
          "name": "role",
          "type": "bytes32"
        },
        {
          "indexed": true,
          "internalType": "bytes32",
          "name": "previousAdminRole",
          "type": "bytes32"
        },
        {
          "indexed": true,
          "internalType": "bytes32",
          "name": "newAdminRole",
          "type": "bytes32"
        }
      ],
      "name": "RoleAdminChanged",
      "type": "event"
    },
    {
      "anonymous": false,
      "inputs": [
        {
          "indexed": true,
          "internalType": "bytes32",
          "name": "role",
          "type": "bytes32"
        },
        {
          "indexed": true,
          "internalType": "address",
          "name": "account",
          "type": "address"
        },
        {
          "indexed": true,
          "internalType": "address",
          "name": "sender",
          "type": "address"
        }
      ],
      "name": "RoleGranted",
      "type": "event"
    },
    {
      "anonymous": false,
      "inputs": [
        {
          "indexed": true,
          "internalType": "bytes32",
          "name": "role",
          "type": "bytes32"
        },
        {
          "indexed": true,
          "internalType": "address",
          "name": "account",
          "type": "address"
        },
        {
          "indexed": true,
          "internalType": "address",
          "name": "sender",
          "type": "address"
        }
      ],
      "name": "RoleRevoked",
      "type": "event"
    },
    {
      "anonymous": false,
      "inputs": [
        {
          "indexed": true,
          "internalType": "address",
          "name": "addr",
          "type": "address"
        }
      ],
      "name": "TreasuryUpdated",
      "type": "event"
    },
    {
      "inputs": [],
      "name": "DEFAULT_ADMIN_ROLE",
      "outputs": [
        {
          "internalType": "bytes32",
          "name": "",
          "type": "bytes32"
        }
      ],
      "stateMutability": "view",
      "type": "function"
    },
    {
      "inputs": [],
      "name": "DOMAIN_EXPIRY_DURATION",
      "outputs": [
        {
          "internalType": "uint64",
          "name": "",
          "type": "uint64"
        }
      ],
      "stateMutability": "view",
      "type": "function"
    },
    {
      "inputs": [],
      "name": "MAX_AUCTION_DOMAIN_EXPIRY",
      "outputs": [
        {
          "internalType": "uint64",
          "name": "",
          "type": "uint64"
        }
      ],
      "stateMutability": "view",
      "type": "function"
    },
    {
      "inputs": [],
      "name": "MAX_EXPIRY",
      "outputs": [
        {
          "internalType": "uint64",
          "name": "",
          "type": "uint64"
        }
      ],
      "stateMutability": "view",
      "type": "function"
    },
    {
      "inputs": [],
      "name": "MAX_PERCENTAGE",
      "outputs": [
        {
          "internalType": "uint256",
          "name": "",
          "type": "uint256"
        }
      ],
      "stateMutability": "view",
      "type": "function"
    },
    {
      "inputs": [],
      "name": "OPERATOR_ROLE",
      "outputs": [
        {
          "internalType": "bytes32",
          "name": "",
          "type": "bytes32"
        }
      ],
      "stateMutability": "view",
      "type": "function"
    },
    {
      "inputs": [
        {
          "internalType": "uint256[]",
          "name": "ids",
          "type": "uint256[]"
        }
      ],
      "name": "bulkClaimBidNames",
      "outputs": [
        {
          "internalType": "uint256[]",
          "name": "claimedAts",
          "type": "uint256[]"
        }
      ],
      "stateMutability": "nonpayable",
      "type": "function"
    },
    {
      "inputs": [
        {
          "internalType": "address[]",
          "name": "tos",
          "type": "address[]"
        },
        {
          "internalType": "uint256[]",
          "name": "ids",
          "type": "uint256[]"
        },
        {
          "internalType": "bool",
          "name": "allowFailure",
          "type": "bool"
        }
      ],
      "name": "bulkClaimUnbiddedNames",
      "outputs": [
        {
          "internalType": "bool[]",
          "name": "claimeds",
          "type": "bool[]"
        }
      ],
      "stateMutability": "nonpayable",
      "type": "function"
    },
    {
      "inputs": [
        {
          "internalType": "string[]",
          "name": "labels",
          "type": "string[]"
        }
      ],
      "name": "bulkRegister",
      "outputs": [
        {
          "internalType": "uint256[]",
          "name": "ids",
          "type": "uint256[]"
        }
      ],
      "stateMutability": "nonpayable",
      "type": "function"
    },
    {
      "inputs": [
        {
          "components": [
            {
              "internalType": "uint256",
              "name": "startedAt",
              "type": "uint256"
            },
            {
              "internalType": "uint256",
              "name": "endedAt",
              "type": "uint256"
            }
          ],
          "internalType": "struct EventRange",
          "name": "range",
          "type": "tuple"
        }
      ],
      "name": "createAuctionEvent",
      "outputs": [
        {
          "internalType": "bytes32",
          "name": "auctionId",
          "type": "bytes32"
        }
      ],
      "stateMutability": "nonpayable",
      "type": "function"
    },
    {
      "inputs": [
        {
          "internalType": "uint256",
          "name": "id",
          "type": "uint256"
        }
      ],
      "name": "getAuction",
      "outputs": [
        {
          "components": [
            {
              "internalType": "bytes32",
              "name": "auctionId",
              "type": "bytes32"
            },
            {
              "internalType": "uint256",
              "name": "startingPrice",
              "type": "uint256"
            },
            {
              "components": [
                {
                  "internalType": "address payable",
                  "name": "bidder",
                  "type": "address"
                },
                {
                  "internalType": "uint256",
                  "name": "price",
                  "type": "uint256"
                },
                {
                  "internalType": "uint256",
                  "name": "timestamp",
                  "type": "uint256"
                },
                {
                  "internalType": "uint256",
                  "name": "claimedAt",
                  "type": "uint256"
                }
              ],
              "internalType": "struct INSAuction.Bid",
              "name": "bid",
              "type": "tuple"
            }
          ],
          "internalType": "struct INSAuction.DomainAuction",
          "name": "auction",
          "type": "tuple"
        },
        {
          "internalType": "uint256",
          "name": "beatPrice",
          "type": "uint256"
        }
      ],
      "stateMutability": "view",
      "type": "function"
    },
    {
      "inputs": [
        {
          "internalType": "bytes32",
          "name": "auctionId",
          "type": "bytes32"
        }
      ],
      "name": "getAuctionEvent",
      "outputs": [
        {
          "components": [
            {
              "internalType": "uint256",
              "name": "startedAt",
              "type": "uint256"
            },
            {
              "internalType": "uint256",
              "name": "endedAt",
              "type": "uint256"
            }
          ],
          "internalType": "struct EventRange",
          "name": "",
          "type": "tuple"
        }
      ],
      "stateMutability": "view",
      "type": "function"
    },
    {
      "inputs": [],
      "name": "getBidGapRatio",
      "outputs": [
        {
          "internalType": "uint256",
          "name": "",
          "type": "uint256"
        }
      ],
      "stateMutability": "view",
      "type": "function"
    },
    {
      "inputs": [],
      "name": "getRNSUnified",
      "outputs": [
        {
          "internalType": "contract INSUnified",
          "name": "",
          "type": "address"
        }
      ],
      "stateMutability": "view",
      "type": "function"
    },
    {
      "inputs": [
        {
          "internalType": "bytes32",
          "name": "role",
          "type": "bytes32"
        }
      ],
      "name": "getRoleAdmin",
      "outputs": [
        {
          "internalType": "bytes32",
          "name": "",
          "type": "bytes32"
        }
      ],
      "stateMutability": "view",
      "type": "function"
    },
    {
      "inputs": [
        {
          "internalType": "bytes32",
          "name": "role",
          "type": "bytes32"
        },
        {
          "internalType": "uint256",
          "name": "index",
          "type": "uint256"
        }
      ],
      "name": "getRoleMember",
      "outputs": [
        {
          "internalType": "address",
          "name": "",
          "type": "address"
        }
      ],
      "stateMutability": "view",
      "type": "function"
    },
    {
      "inputs": [
        {
          "internalType": "bytes32",
          "name": "role",
          "type": "bytes32"
        }
      ],
      "name": "getRoleMemberCount",
      "outputs": [
        {
          "internalType": "uint256",
          "name": "",
          "type": "uint256"
        }
      ],
      "stateMutability": "view",
      "type": "function"
    },
    {
      "inputs": [],
      "name": "getTreasury",
      "outputs": [
        {
          "internalType": "address",
          "name": "",
          "type": "address"
        }
      ],
      "stateMutability": "view",
      "type": "function"
    },
    {
      "inputs": [
        {
          "internalType": "bytes32",
          "name": "role",
          "type": "bytes32"
        },
        {
          "internalType": "address",
          "name": "account",
          "type": "address"
        }
      ],
      "name": "grantRole",
      "outputs": [],
      "stateMutability": "nonpayable",
      "type": "function"
    },
    {
      "inputs": [
        {
          "internalType": "bytes32",
          "name": "role",
          "type": "bytes32"
        },
        {
          "internalType": "address",
          "name": "account",
          "type": "address"
        }
      ],
      "name": "hasRole",
      "outputs": [
        {
          "internalType": "bool",
          "name": "",
          "type": "bool"
        }
      ],
      "stateMutability": "view",
      "type": "function"
    },
    {
      "inputs": [
        {
          "internalType": "address",
          "name": "admin",
          "type": "address"
        },
        {
          "internalType": "address[]",
          "name": "operators",
          "type": "address[]"
        },
        {
          "internalType": "contract INSUnified",
          "name": "rnsUnified",
          "type": "address"
        },
        {
          "internalType": "address payable",
          "name": "treasury",
          "type": "address"
        },
        {
          "internalType": "uint256",
          "name": "bidGapRatio",
          "type": "uint256"
        }
      ],
      "name": "initialize",
      "outputs": [],
      "stateMutability": "nonpayable",
      "type": "function"
    },
    {
      "inputs": [
        {
          "internalType": "bytes32",
          "name": "auctionId",
          "type": "bytes32"
        },
        {
          "internalType": "uint256[]",
          "name": "ids",
          "type": "uint256[]"
        },
        {
          "internalType": "uint256[]",
          "name": "startingPrices",
          "type": "uint256[]"
        }
      ],
      "name": "listNamesForAuction",
      "outputs": [],
      "stateMutability": "nonpayable",
      "type": "function"
    },
    {
      "inputs": [
        {
          "internalType": "uint256",
          "name": "id",
          "type": "uint256"
        }
      ],
      "name": "placeBid",
      "outputs": [],
      "stateMutability": "payable",
      "type": "function"
    },
    {
      "inputs": [
        {
          "internalType": "bytes32",
          "name": "role",
          "type": "bytes32"
        },
        {
          "internalType": "address",
          "name": "account",
          "type": "address"
        }
      ],
      "name": "renounceRole",
      "outputs": [],
      "stateMutability": "nonpayable",
      "type": "function"
    },
    {
      "inputs": [
        {
          "internalType": "uint256",
          "name": "id",
          "type": "uint256"
        }
      ],
      "name": "reserved",
      "outputs": [
        {
          "internalType": "bool",
          "name": "",
          "type": "bool"
        }
      ],
      "stateMutability": "view",
      "type": "function"
    },
    {
      "inputs": [
        {
          "internalType": "bytes32",
          "name": "role",
          "type": "bytes32"
        },
        {
          "internalType": "address",
          "name": "account",
          "type": "address"
        }
      ],
      "name": "revokeRole",
      "outputs": [],
      "stateMutability": "nonpayable",
      "type": "function"
    },
    {
      "inputs": [
        {
          "internalType": "bytes32",
          "name": "auctionId",
          "type": "bytes32"
        },
        {
          "components": [
            {
              "internalType": "uint256",
              "name": "startedAt",
              "type": "uint256"
            },
            {
              "internalType": "uint256",
              "name": "endedAt",
              "type": "uint256"
            }
          ],
          "internalType": "struct EventRange",
          "name": "range",
          "type": "tuple"
        }
      ],
      "name": "setAuctionEvent",
      "outputs": [],
      "stateMutability": "nonpayable",
      "type": "function"
    },
    {
      "inputs": [
        {
          "internalType": "uint256",
          "name": "ratio",
          "type": "uint256"
        }
      ],
      "name": "setBidGapRatio",
      "outputs": [],
      "stateMutability": "nonpayable",
      "type": "function"
    },
    {
      "inputs": [
        {
          "internalType": "address payable",
          "name": "addr",
          "type": "address"
        }
      ],
      "name": "setTreasury",
      "outputs": [],
      "stateMutability": "nonpayable",
      "type": "function"
    },
    {
      "inputs": [
        {
          "internalType": "bytes4",
          "name": "interfaceId",
          "type": "bytes4"
        }
      ],
      "name": "supportsInterface",
      "outputs": [
        {
          "internalType": "bool",
          "name": "",
          "type": "bool"
        }
      ],
      "stateMutability": "view",
      "type": "function"
    }
  ],
  "address": "0xA38C0e64c79BBF5Ba4406794943f8F3012Be5618",
  "args": "0x",
  "blockNumber": 22370168,
  "bytecode": "0x608060405261000c610011565b6100d0565b600054610100900460ff161561007d5760405162461bcd60e51b815260206004820152602760248201527f496e697469616c697a61626c653a20636f6e747261637420697320696e697469604482015266616c697a696e6760c81b606482015260840160405180910390fd5b60005460ff908116146100ce576000805460ff191660ff9081179091556040519081527f7f26b83ff96e1f2b6a682f133852f6798a09c465da95921460cefb38474024989060200160405180910390a15b565b61283180620000e06000396000f3fe6080604052600436106101cd5760003560e01c806381bec1b3116100f7578063a282d4ae11610095578063db5e1ec611610064578063db5e1ec6146105ec578063ec14cf371461060c578063f0f442601461062c578063f5b541a61461064c57600080fd5b8063a282d4ae1461057c578063b967169014610591578063ca15c873146105ac578063d547741f146105cc57600080fd5b806391a3823f116100d157806391a3823f1461050757806391d14854146105345780639979ef4514610554578063a217fddf1461056757600080fd5b806381bec1b3146104a95780638c843314146104c95780639010d07c146104e757600080fd5b80633b19e84a1161016f5780636e7d60f21161013e5780636e7d60f2146103cc578063777b0a18146103f957806378bd793514610419578063791a26b41461048957600080fd5b80633b19e84a146103445780634c255c971461037657806353f9195e1461038c57806360223b44146103ac57600080fd5b806319a3ee40116101ab57806319a3ee40146102ab578063248a9ca3146102c35780632f2ff15d1461030257806336568abe1461032457600080fd5b806301ffc9a7146101d25780630afe1bb31461020757806315a2916214610237575b600080fd5b3480156101de57600080fd5b506101f26101ed366004612022565b61066e565b60405190151581526020015b60405180910390f35b34801561021357600080fd5b5061021f6305a39a8081565b6040516001600160401b0390911681526020016101fe565b34801561024357600080fd5b5061029061025236600461204c565b604080518082019091526000808252602082015250600090815260366020908152604091829020825180840190935280548352600101549082015290565b604080518251815260209283015192810192909252016101fe565b3480156102b757600080fd5b5061021f6301e1338081565b3480156102cf57600080fd5b506102f46102de36600461204c565b6000908152600160208190526040909120015490565b6040519081526020016101fe565b34801561030e57600080fd5b5061032261031d36600461207a565b610699565b005b34801561033057600080fd5b5061032261033f36600461207a565b6106c4565b34801561035057600080fd5b506038546001600160a01b03165b6040516001600160a01b0390911681526020016101fe565b34801561038257600080fd5b506102f461271081565b34801561039857600080fd5b506101f26103a736600461204c565b610747565b3480156103b857600080fd5b506103226103c736600461204c565b61076a565b3480156103d857600080fd5b506103ec6103e73660046120f5565b61077e565b6040516101fe9190612136565b34801561040557600080fd5b5061032261041436600461217a565b610a6d565b34801561042557600080fd5b5061043961043436600461204c565b610bd3565b6040805183518152602080850151818301529382015180516001600160a01b0316828401529384015160608083019190915291840151608082015292015160a083015260c082015260e0016101fe565b34801561049557600080fd5b506103ec6104a43660046120f5565b610c88565b3480156104b557600080fd5b506103226104c436600461220b565b610e43565b3480156104d557600080fd5b506035546001600160a01b031661035e565b3480156104f357600080fd5b5061035e610502366004612238565b610ec0565b34801561051357600080fd5b5061052761052236600461225a565b610edf565b6040516101fe91906122e2565b34801561054057600080fd5b506101f261054f36600461207a565b6111d0565b61032261056236600461204c565b6111fb565b34801561057357600080fd5b506102f4600081565b34801561058857600080fd5b506039546102f4565b34801561059d57600080fd5b5061021f6001600160401b0381565b3480156105b857600080fd5b506102f46105c736600461204c565b6113ad565b3480156105d857600080fd5b506103226105e736600461207a565b6113c4565b3480156105f857600080fd5b506102f461060736600461231c565b6113ea565b34801561061857600080fd5b50610322610627366004612338565b611487565b34801561063857600080fd5b506103226106473660046123bc565b611624565b34801561065857600080fd5b506102f46000805160206127dc83398151915281565b60006001600160e01b03198216635a05180f60e01b1480610693575061069382611638565b92915050565b600082815260016020819052604090912001546106b58161166d565b6106bf838361167a565b505050565b6001600160a01b03811633146107395760405162461bcd60e51b815260206004820152602f60248201527f416363657373436f6e74726f6c3a2063616e206f6e6c792072656e6f756e636560448201526e103937b632b9903337b91039b2b63360891b60648201526084015b60405180910390fd5b610743828261169c565b5050565b600881901c6000908152603a6020526040812054600160ff84161b161515610693565b60006107758161166d565b610743826116be565b60606000806107a0604051806040016040528060008152602001600081525090565b6107a8611fcd565b85806001600160401b038111156107c1576107c16123d9565b6040519080825280602002602001820160405280156107ea578160200160208202803683370190505b506035549096506001600160a01b03166000610812426301e133806001600160401b0361171c565b905060005b83811015610a49578a8a82818110610831576108316123ef565b60209081029290920135600081815260378452604080822081516060808201845282548252600180840154838a0152845160808101865260028501546001600160a01b031681526003850154818b0152600485015481870152600590940154848301528285019384528251865260368952848620855180870190965280548652015497840197909752905190950151929c5099509297509091039050610a415760208601514210156108f6576040516372d1250d60e01b815260040160405180910390fd5b84604001516040015160000361091f576040516323bbcc0160e01b815260040160405180910390fd5b604085015160200151610932908861241b565b60405163fc284d1160e01b8152600481018a90526001600160401b03841660248201529097506001600160a01b0384169063fc284d1190604401600060405180830381600087803b15801561098657600080fd5b505af115801561099a573d6000803e3d6000fd5b505050506040858101515190516323b872dd60e01b81523060048201526001600160a01b039182166024820152604481018a9052908416906323b872dd90606401600060405180830381600087803b1580156109f557600080fd5b505af1158015610a09573d6000803e3d6000fd5b5050505042898281518110610a2057610a206123ef565b602090810291909101810182905260008a8152603790915260409020600501555b600101610817565b50603854610a60906001600160a01b031687611752565b5050505050505092915050565b6000805160206127dc833981519152610a858161166d565b85610a8f816117b7565b84801580610a9d5750808414155b15610abb57604051634ec4810560e11b815260040160405180910390fd5b6000806000805b84811015610b87578a8a82818110610adc57610adc6123ef565b905060200201359350610aee84610747565b610b0b57604051637d6fe8d760e11b815260040160405180910390fd5b6000848152603760205260409020805493509150821580610b2b57508b83145b80610b3857506004820154155b610b5857604051631480ec2760e31b815260048101859052602401610730565b8b8255888882818110610b6d57610b6d6123ef565b905060200201358260010181905550806001019050610ac2565b508a7f9a845a1c4235343a450f5e39d4179b7e2a6c9586c02bff45d956717f4a19dd948b8b8b8b604051610bbe9493929190612460565b60405180910390a25050505050505050505050565b610bdb611fcd565b5060008181526037602090815260408083208151606080820184528254825260018084015483870152845160808101865260028501546001600160a01b03168152600385015481880152600485015481870152600590940154918401919091528184019290925280518351808501855286815285018690528552603684528285208351808501909452805484529091015492820192909252909190610c808382611804565b915050915091565b60606000805160206127dc833981519152610ca28161166d565b826000819003610cc557604051634ec4810560e11b815260040160405180910390fd5b806001600160401b03811115610cdd57610cdd6123d9565b604051908082528060200260200182016040528015610d06578160200160208202803683370190505b506035549093506001600160a01b03167fba69923fa107dbf5a25a073a10b7c9216ae39fbadc95dc891d460d9ae315d6886301e1338060005b84811015610e3757836001600160a01b0316630570891f848b8b85818110610d6957610d696123ef565b9050602002810190610d7b9190612492565b600030886040518763ffffffff1660e01b8152600401610da0969594939291906124d8565b60408051808303816000875af1158015610dbe573d6000803e3d6000fd5b505050506040513d601f19601f82011682018060405250810190610de29190612534565b9050878281518110610df657610df66123ef565b602002602001018181525050610e2f878281518110610e1757610e176123ef565b6020026020010151603a61185c90919063ffffffff16565b600101610d3f565b50505050505092915050565b6000610e4e8161166d565b81610e5881611885565b83610e62816117b7565b60008581526036602090815260409091208535815590850135600182015550847fd8960c7efc6464cdd8dd07f4dc149b0a33bf7f60bf357838722d5b80f988fb1b85604051610eb1919061256e565b60405180910390a25050505050565b6000828152600260205260408120610ed890836118ca565b9392505050565b60606000805160206127dc833981519152610ef98161166d565b858414610f1957604051634ec4810560e11b815260040160405180910390fd5b6000610f31426301e133806001600160401b0361171c565b9050846001600160401b03811115610f4b57610f4b6123d9565b604051908082528060200260200182016040528015610f74578160200160208202803683370190505b506035549093506001600160a01b0316610f8c611fcd565b6000805b888110156111c157898982818110610faa57610faa6123ef565b6020908102929092013560008181526037845260409081902081516060808201845282548252600183015482880152835160808101855260028401546001600160a01b0390811682526003850154988201989098526004840154818601526005909301549083015291820181905251909650909450909116905061119857600082815260376020526040808220828155600181018390556002810180546001600160a01b03191690556003810183905560048082018490556005909101929092555163fc284d1160e01b81529081018390526001600160401b03861660248201526001600160a01b0385169063fc284d1190604401600060405180830381600087803b1580156110b957600080fd5b505af11580156110cd573d6000803e3d6000fd5b50505050836001600160a01b03166323b872dd308e8e858181106110f3576110f36123ef565b905060200201602081019061110891906123bc565b6040516001600160e01b031960e085901b1681526001600160a01b0392831660048201529116602482015260448101859052606401600060405180830381600087803b15801561115757600080fd5b505af115801561116b573d6000803e3d6000fd5b505050506001878281518110611183576111836123ef565b911515602092830291909101909101526111b9565b876111b957604051631480ec2760e31b815260048101839052602401610730565b600101610f90565b50505050505095945050505050565b60009182526001602090815260408084206001600160a01b0393909316845291905290205460ff1690565b60008181526037602090815260408083208151606080820184528254825260018084015483870152845160808101865260028501546001600160a01b03168152600385015481880152600485015481870152600590940154918401919091528184019290925280518552603684528285208351808501909452805484529091015492820192909252909161128f8383611804565b905061129a826118d6565b6112b7576040516348c6117b60e11b815260040160405180910390fd5b803410156112d857604051632ca2f52b60e11b815260040160405180910390fd5b333281146112f8576040516259ca3d60e61b815260040160405180910390fd5b604084810151805160209182015160008981526037845284902034600382018190556002820180546001600160a01b0319166001600160a01b038981169182178355426004909501949094558b5188519384529683015295810183905290831660608201529193909290918991907f5934294f4724ea4bb71fee8511b9ccb8dd6d2249ac4d120a81ccfcbbd0ad905f9060800160405180910390a381156113a3576113a38383611752565b5050505050505050565b6000818152600260205260408120610693906118f1565b600082815260016020819052604090912001546113e08161166d565b6106bf838361169c565b6000806113f68161166d565b8261140081611885565b3384604051602001611413929190612585565b60408051808303601f1901815291815281516020928301206000818152603684529190912086358155918601356001830155935050827fd8960c7efc6464cdd8dd07f4dc149b0a33bf7f60bf357838722d5b80f988fb1b85604051611478919061256e565b60405180910390a25050919050565b600054610100900460ff16158080156114a75750600054600160ff909116105b806114c15750303b1580156114c1575060005460ff166001145b6115245760405162461bcd60e51b815260206004820152602e60248201527f496e697469616c697a61626c653a20636f6e747261637420697320616c72656160448201526d191e481a5b9a5d1a585b1a5e995960921b6064820152608401610730565b6000805460ff191660011790558015611547576000805461ff0019166101001790555b611550836118fb565b611559826116be565b61156460008861196c565b846000805160206127dc83398151915260005b828110156115b7576115af828a8a84818110611595576115956123ef565b90506020020160208101906115aa91906123bc565b61196c565b600101611577565b5050603580546001600160a01b0319166001600160a01b03871617905550801561161b576000805461ff0019169055604051600181527f7f26b83ff96e1f2b6a682f133852f6798a09c465da95921460cefb38474024989060200160405180910390a15b50505050505050565b600061162f8161166d565b610743826118fb565b60006001600160e01b03198216637965db0b60e01b148061069357506301ffc9a760e01b6001600160e01b0319831614610693565b6116778133611976565b50565b61168482826119a9565b60008281526002602052604090206106bf9082611a14565b6116a68282611a29565b60008281526002602052604090206106bf9082611a90565b6127108111156116e15760405163220f1a1560e01b815260040160405180910390fd5b60398190556040518181527f846b33625d74f443855144a5f2aef4dda303cda3dfb1c704cb58ab70671823429060200160405180910390a150565b60008184118061172b57508183115b15611737575080610ed8565b6117418484611aa5565b905081811115610ed8575092915050565b600061175e8383611ab9565b9050806106bf57611777836001600160a01b0316611b2f565b61178083611b45565b6040516020016117919291906125d0565b60408051601f198184030181529082905262461bcd60e51b82526107309160040161264e565b60008181526036602090815260409182902082518084019093528054835260010154908201526117e79051421090565b6116775760405163028e4e9760e51b815260040160405180910390fd5b600061181c8360200151846040015160200151611b5c565b905082604001516020015160001415801561183a5750602082015142105b15610693576118528360200151603954612710611b72565b610ed8908261241b565b600881901c600090815260209290925260409091208054600160ff9093169290921b9091179055565b60208101358135111580156118ad57506118ad6118a736839003830183612681565b51421090565b611677576040516302ef0c7360e21b815260040160405180910390fd5b6000610ed88383611c5c565b60004282600001511115801561069357505060200151421090565b6000610693825490565b6001600160a01b038116611922576040516362daafb160e11b815260040160405180910390fd5b603880546001600160a01b0319166001600160a01b0383169081179091556040517f7dae230f18360d76a040c81f050aa14eb9d6dc7901b20fc5d855e2a20fe814d190600090a250565b610743828261167a565b61198082826111d0565b6107435761198d81611b2f565b611998836020611c86565b6040516020016117919291906126dd565b6119b382826111d0565b6107435760008281526001602081815260408084206001600160a01b0386168086529252808420805460ff19169093179092559051339285917f2f8788117e7eff1d82e926ec794901d17c78024a50270940304540a733656f0d9190a45050565b6000610ed8836001600160a01b038416611e21565b611a3382826111d0565b156107435760008281526001602090815260408083206001600160a01b0385168085529252808320805460ff1916905551339285917ff6391f5c32d9c69d2a47ea670b442974b53935d1edc7fd64eb21e047a839171b9190a45050565b6000610ed8836001600160a01b038416611e70565b818101828110156106935750600019610693565b604080516000808252602082019092526001600160a01b038416908390604051611ae39190612752565b60006040518083038185875af1925050503d8060008114611b20576040519150601f19603f3d011682016040523d82523d6000602084013e611b25565b606091505b5090949350505050565b60606106936001600160a01b0383166014611c86565b606061069382611b5484611f63565b600101611c86565b6000818311611b6b5781610ed8565b5090919050565b6000808060001985870985870292508281108382030391505080600003611bac57838281611ba257611ba261276e565b0492505050610ed8565b808411611bf35760405162461bcd60e51b81526020600482015260156024820152744d6174683a206d756c446976206f766572666c6f7760581b6044820152606401610730565b60008486880960026001871981018816978890046003810283188082028403028082028403028082028403028082028403028082028403029081029092039091026000889003889004909101858311909403939093029303949094049190911702949350505050565b6000826000018281548110611c7357611c736123ef565b9060005260206000200154905092915050565b60606000611c95836002612784565b611ca090600261241b565b6001600160401b03811115611cb757611cb76123d9565b6040519080825280601f01601f191660200182016040528015611ce1576020820181803683370190505b509050600360fc1b81600081518110611cfc57611cfc6123ef565b60200101906001600160f81b031916908160001a905350600f60fb1b81600181518110611d2b57611d2b6123ef565b60200101906001600160f81b031916908160001a9053506000611d4f846002612784565b611d5a90600161241b565b90505b6001811115611dd2576f181899199a1a9b1b9c1cb0b131b232b360811b85600f1660108110611d8e57611d8e6123ef565b1a60f81b828281518110611da457611da46123ef565b60200101906001600160f81b031916908160001a90535060049490941c93611dcb8161279b565b9050611d5d565b508315610ed85760405162461bcd60e51b815260206004820181905260248201527f537472696e67733a20686578206c656e67746820696e73756666696369656e746044820152606401610730565b6000818152600183016020526040812054611e6857508154600181810184556000848152602080822090930184905584548482528286019093526040902091909155610693565b506000610693565b60008181526001830160205260408120548015611f59576000611e946001836127b2565b8554909150600090611ea8906001906127b2565b9050818114611f0d576000866000018281548110611ec857611ec86123ef565b9060005260206000200154905080876000018481548110611eeb57611eeb6123ef565b6000918252602080832090910192909255918252600188019052604090208390555b8554869080611f1e57611f1e6127c5565b600190038181906000526020600020016000905590558560010160008681526020019081526020016000206000905560019350505050610693565b6000915050610693565b600080608083901c15611f7b5760809290921c916010015b604083901c15611f905760409290921c916008015b602083901c15611fa55760209290921c916004015b601083901c15611fba5760109290921c916002015b600883901c156106935760010192915050565b6040518060600160405280600080191681526020016000815260200161201d604051806080016040528060006001600160a01b031681526020016000815260200160008152602001600081525090565b905290565b60006020828403121561203457600080fd5b81356001600160e01b031981168114610ed857600080fd5b60006020828403121561205e57600080fd5b5035919050565b6001600160a01b038116811461167757600080fd5b6000806040838503121561208d57600080fd5b82359150602083013561209f81612065565b809150509250929050565b60008083601f8401126120bc57600080fd5b5081356001600160401b038111156120d357600080fd5b6020830191508360208260051b85010111156120ee57600080fd5b9250929050565b6000806020838503121561210857600080fd5b82356001600160401b0381111561211e57600080fd5b61212a858286016120aa565b90969095509350505050565b6020808252825182820181905260009190848201906040850190845b8181101561216e57835183529284019291840191600101612152565b50909695505050505050565b60008060008060006060868803121561219257600080fd5b8535945060208601356001600160401b03808211156121b057600080fd5b6121bc89838a016120aa565b909650945060408801359150808211156121d557600080fd5b506121e2888289016120aa565b969995985093965092949392505050565b60006040828403121561220557600080fd5b50919050565b6000806060838503121561221e57600080fd5b8235915061222f84602085016121f3565b90509250929050565b6000806040838503121561224b57600080fd5b50508035926020909101359150565b60008060008060006060868803121561227257600080fd5b85356001600160401b038082111561228957600080fd5b61229589838a016120aa565b909750955060208801359150808211156122ae57600080fd5b506122bb888289016120aa565b909450925050604086013580151581146122d457600080fd5b809150509295509295909350565b6020808252825182820181905260009190848201906040850190845b8181101561216e5783511515835292840192918401916001016122fe565b60006040828403121561232e57600080fd5b610ed883836121f3565b60008060008060008060a0878903121561235157600080fd5b863561235c81612065565b955060208701356001600160401b0381111561237757600080fd5b61238389828a016120aa565b909650945050604087013561239781612065565b925060608701356123a781612065565b80925050608087013590509295509295509295565b6000602082840312156123ce57600080fd5b8135610ed881612065565b634e487b7160e01b600052604160045260246000fd5b634e487b7160e01b600052603260045260246000fd5b634e487b7160e01b600052601160045260246000fd5b8082018082111561069357610693612405565b81835260006001600160fb1b0383111561244757600080fd5b8260051b80836020870137939093016020019392505050565b60408152600061247460408301868861242e565b828103602084015261248781858761242e565b979650505050505050565b6000808335601e198436030181126124a957600080fd5b8301803591506001600160401b038211156124c357600080fd5b6020019150368190038213156120ee57600080fd5b86815260a060208201528460a0820152848660c0830137600060c08683018101919091526001600160a01b0394851660408301529290931660608401526001600160401b03166080830152601f909201601f1916010192915050565b6000806040838503121561254757600080fd5b82516001600160401b038116811461255e57600080fd5b6020939093015192949293505050565b813581526020808301359082015260408101610693565b6001600160a01b038316815260608101610ed8602083018480358252602090810135910152565b60005b838110156125c75781810151838201526020016125af565b50506000910152565b7f5472616e7366657248656c7065723a20636f756c64206e6f74207472616e7366815269032b9102927a7103a37960b51b60208201526000835161261b81602a8501602088016125ac565b660103b30b63ab2960cd1b602a9184019182015283516126428160318401602088016125ac565b01603101949350505050565b602081526000825180602084015261266d8160408501602087016125ac565b601f01601f19169190910160400192915050565b60006040828403121561269357600080fd5b604051604081018181106001600160401b03821117156126c357634e487b7160e01b600052604160045260246000fd5b604052823581526020928301359281019290925250919050565b7f416363657373436f6e74726f6c3a206163636f756e74200000000000000000008152600083516127158160178501602088016125ac565b7001034b99036b4b9b9b4b733903937b6329607d1b60179184019182015283516127468160288401602088016125ac565b01602801949350505050565b600082516127648184602087016125ac565b9190910192915050565b634e487b7160e01b600052601260045260246000fd5b808202811582820484141761069357610693612405565b6000816127aa576127aa612405565b506000190190565b8181038181111561069357610693612405565b634e487b7160e01b600052603160045260246000fdfe97667070c54ef182b0f5858b034beac1b6f3089aa2d3188bb1e8929f4fa9b929a2646970667358221220885ebec3d0dabb62ac47daf2f9d99eaeb14286e2e2cd36f2870522b082386b5b64736f6c63430008150033",
  "chainId": 2021,
  "contractName": "RNSAuction",
  "deployer": "0x968D0Cd7343f711216817E617d3f92a23dC91c07",
  "devdoc": {
    "version": 1,
    "kind": "dev",
    "methods": {
      "bulkClaimBidNames(uint256[])": {
        "details": "Bulk claims the bid name. Requirements: - Must be called after ended time. - The method caller can be anyone.",
        "params": {
          "ids": "The namehash id of domain name. Eg, namehash('foo.ron') for 'foo.ron'"
        }
      },
      "bulkClaimUnbiddedNames(address[],uint256[],bool)": {
        "details": "Claim unbidded names and transfer them to the specified addresses. Requirements: - The method caller must be contract operator.",
        "params": {
          "allowFailure": "Flag to indicate whether to allow failure if a domain is already being bid on.",
          "ids": "The id corresponding for namehash of domain names.",
          "tos": "The array of addresses to transfer domain names to."
        },
        "returns": {
          "claimeds": "An array indicating whether each domain name was successfully claimed."
        }
      },
      "bulkRegister(string[])": {
        "details": "Claims domain names for auction. Requirements: - The method caller must be contract operator.",
        "params": {
          "labels": "The domain names. Eg, ['foo'] for 'foo.ron'"
        },
        "returns": {
          "ids": "The id corresponding for namehash of domain names."
        }
      },
      "createAuctionEvent((uint256,uint256))": {
        "details": "Creates a new auction to sale with a specific time period. Requirements: - The method caller must be admin. Emits an event {AuctionEventSet}.",
        "returns": {
          "auctionId": "The auction id"
        }
      },
      "getAuction(uint256)": {
        "details": "Returns the highest bid and address of the bidder.",
        "params": {
          "id": "The namehash id of domain name. Eg, namehash('foo.ron') for 'foo.ron'"
        }
      },
      "getAuctionEvent(bytes32)": {
        "details": "Returns the event range of an auction."
      },
      "getBidGapRatio()": {
        "details": "Returns the gap ratio between 2 bids with the starting price. Value in range [0;100_00] is 0%-100%."
      },
      "getRNSUnified()": {
        "details": "Returns RNSUnified contract."
      },
      "getRoleAdmin(bytes32)": {
        "details": "Returns the admin role that controls `role`. See {grantRole} and {revokeRole}. To change a role's admin, use {_setRoleAdmin}."
      },
      "getRoleMember(bytes32,uint256)": {
        "details": "Returns one of the accounts that have `role`. `index` must be a value between 0 and {getRoleMemberCount}, non-inclusive. Role bearers are not sorted in any particular way, and their ordering may change at any point. WARNING: When using {getRoleMember} and {getRoleMemberCount}, make sure you perform all queries on the same block. See the following https://forum.openzeppelin.com/t/iterating-over-elements-on-enumerableset-in-openzeppelin-contracts/2296[forum post] for more information."
      },
      "getRoleMemberCount(bytes32)": {
        "details": "Returns the number of accounts that have `role`. Can be used together with {getRoleMember} to enumerate all bearers of a role."
      },
      "getTreasury()": {
        "details": "Returns the treasury."
      },
      "grantRole(bytes32,address)": {
        "details": "Grants `role` to `account`. If `account` had not been already granted `role`, emits a {RoleGranted} event. Requirements: - the caller must have ``role``'s admin role. May emit a {RoleGranted} event."
      },
      "hasRole(bytes32,address)": {
        "details": "Returns `true` if `account` has been granted `role`."
      },
      "listNamesForAuction(bytes32,uint256[],uint256[])": {
        "details": "Lists reserved names to sale in a specified auction. Requirements: - The method caller must be contract operator. - Array length are matched and larger than 0. - Only allow to set when the domain is:   + Not in any auction.   + Or, in the current auction.   + Or, this name is not bided. Emits an event {LabelsListed}. Note: If the name is already listed, this method replaces with a new input value.",
        "params": {
          "ids": "The namehashes id of domain names. Eg, namehash('foo.ron') for 'foo.ron'"
        }
      },
      "placeBid(uint256)": {
        "details": "Places a bid for a domain name. Requirements: - The name is listed, or the auction is happening. - The msg.value is larger than the current bid price or the auction starting price. Emits an event {BidPlaced}.",
        "params": {
          "id": "The namehash id of domain name. Eg, namehash('foo.ron') for 'foo.ron'"
        }
      },
      "renounceRole(bytes32,address)": {
        "details": "Revokes `role` from the calling account. Roles are often managed via {grantRole} and {revokeRole}: this function's purpose is to provide a mechanism for accounts to lose their privileges if they are compromised (such as when a trusted device is misplaced). If the calling account had been revoked `role`, emits a {RoleRevoked} event. Requirements: - the caller must be `account`. May emit a {RoleRevoked} event."
      },
      "reserved(uint256)": {
        "details": "Checks whether a domain name is currently reserved for auction or not.",
        "params": {
          "id": "The namehash id of domain name. Eg, namehash('foo.ron') for 'foo.ron'"
        }
      },
      "revokeRole(bytes32,address)": {
        "details": "Revokes `role` from `account`. If `account` had been granted `role`, emits a {RoleRevoked} event. Requirements: - the caller must have ``role``'s admin role. May emit a {RoleRevoked} event."
      },
      "setAuctionEvent(bytes32,(uint256,uint256))": {
        "details": "Updates the auction details. Requirements: - The method caller must be admin. Emits an event {AuctionEventSet}."
      },
      "setBidGapRatio(uint256)": {
        "details": "Sets commission ratio. Value in range [0;100_00] is 0%-100%. Requirements: - The method caller must be admin Emits an event {BidGapRatioUpdated}."
      },
      "setTreasury(address)": {
        "details": "Sets the treasury. Requirements: - The method caller must be admin Emits an event {TreasuryUpdated}."
      },
      "supportsInterface(bytes4)": {
        "details": "See {IERC165-supportsInterface}."
      }
    },
    "events": {
      "AuctionEventSet(bytes32,(uint256,uint256))": {
        "details": "Emitted when an auction is set."
      },
      "BidGapRatioUpdated(uint256)": {
        "details": "Emitted when bid gap ratio is updated."
      },
      "BidPlaced(bytes32,uint256,uint256,address,uint256,address)": {
        "details": "Emitted when a bid is placed for a name."
      },
      "Initialized(uint8)": {
        "details": "Triggered when the contract has been initialized or reinitialized."
      },
      "LabelsListed(bytes32,uint256[],uint256[])": {
        "details": "Emitted when the labels are listed for auction."
      },
      "RoleAdminChanged(bytes32,bytes32,bytes32)": {
        "details": "Emitted when `newAdminRole` is set as ``role``'s admin role, replacing `previousAdminRole` `DEFAULT_ADMIN_ROLE` is the starting admin for all roles, despite {RoleAdminChanged} not being emitted signaling this. _Available since v3.1._"
      },
      "RoleGranted(bytes32,address,address)": {
        "details": "Emitted when `account` is granted `role`. `sender` is the account that originated the contract call, an admin role bearer except when using {AccessControl-_setupRole}."
      },
      "RoleRevoked(bytes32,address,address)": {
        "details": "Emitted when `account` is revoked `role`. `sender` is the account that originated the contract call:   - if using `revokeRole`, it is the admin role bearer   - if using `renounceRole`, it is the role bearer (i.e. `account`)"
      },
      "TreasuryUpdated(address)": {
        "details": "Emitted when the treasury is updated."
      }
    }
  },
  "isFoundry": true,
  "nonce": 185287,
  "numDeployments": 5,
  "storageLayout": {
    "storage": [
      {
        "astId": 50094,
        "contract": "src/RNSAuction.sol:RNSAuction",
        "label": "_initialized",
        "offset": 0,
        "slot": "0",
        "type": "t_uint8"
      },
      {
        "astId": 50097,
        "contract": "src/RNSAuction.sol:RNSAuction",
        "label": "_initializing",
        "offset": 1,
        "slot": "0",
        "type": "t_bool"
      },
      {
        "astId": 48567,
        "contract": "src/RNSAuction.sol:RNSAuction",
        "label": "_roles",
        "offset": 0,
        "slot": "1",
        "type": "t_mapping(t_bytes32,t_struct(RoleData)48562_storage)"
      },
      {
        "astId": 48877,
        "contract": "src/RNSAuction.sol:RNSAuction",
        "label": "_roleMembers",
        "offset": 0,
        "slot": "2",
        "type": "t_mapping(t_bytes32,t_struct(AddressSet)54446_storage)"
      },
      {
        "astId": 62170,
        "contract": "src/RNSAuction.sol:RNSAuction",
        "label": "____gap",
        "offset": 0,
        "slot": "3",
        "type": "t_array(t_uint256)50_storage"
      },
      {
        "astId": 62174,
        "contract": "src/RNSAuction.sol:RNSAuction",
        "label": "_rnsUnified",
        "offset": 0,
        "slot": "53",
        "type": "t_contract(INSUnified)68718"
      },
      {
        "astId": 62180,
        "contract": "src/RNSAuction.sol:RNSAuction",
        "label": "_auctionRange",
        "offset": 0,
        "slot": "54",
        "type": "t_mapping(t_bytes32,t_struct(EventRange)69638_storage)"
      },
      {
        "astId": 62186,
        "contract": "src/RNSAuction.sol:RNSAuction",
        "label": "_domainAuction",
        "offset": 0,
        "slot": "55",
        "type": "t_mapping(t_uint256,t_struct(DomainAuction)67867_storage)"
      },
      {
        "astId": 62189,
        "contract": "src/RNSAuction.sol:RNSAuction",
        "label": "_treasury",
        "offset": 0,
        "slot": "56",
        "type": "t_address_payable"
      },
      {
        "astId": 62192,
        "contract": "src/RNSAuction.sol:RNSAuction",
        "label": "_bidGapRatio",
        "offset": 0,
        "slot": "57",
        "type": "t_uint256"
      },
      {
        "astId": 62196,
        "contract": "src/RNSAuction.sol:RNSAuction",
        "label": "_reserved",
        "offset": 0,
        "slot": "58",
        "type": "t_struct(BitMap)53990_storage"
      }
    ],
    "types": {
      "t_address": {
        "encoding": "inplace",
        "label": "address",
        "numberOfBytes": "20"
      },
      "t_address_payable": {
        "encoding": "inplace",
        "label": "address payable",
        "numberOfBytes": "20"
      },
      "t_array(t_bytes32)dyn_storage": {
        "encoding": "dynamic_array",
        "label": "bytes32[]",
        "numberOfBytes": "32",
        "base": "t_bytes32"
      },
      "t_array(t_uint256)50_storage": {
        "encoding": "inplace",
        "label": "uint256[50]",
        "numberOfBytes": "1600",
        "base": "t_uint256"
      },
      "t_bool": {
        "encoding": "inplace",
        "label": "bool",
        "numberOfBytes": "1"
      },
      "t_bytes32": {
        "encoding": "inplace",
        "label": "bytes32",
        "numberOfBytes": "32"
      },
      "t_contract(INSUnified)68718": {
        "encoding": "inplace",
        "label": "contract INSUnified",
        "numberOfBytes": "20"
      },
      "t_mapping(t_address,t_bool)": {
        "encoding": "mapping",
        "key": "t_address",
        "label": "mapping(address => bool)",
        "numberOfBytes": "32",
        "value": "t_bool"
      },
      "t_mapping(t_bytes32,t_struct(AddressSet)54446_storage)": {
        "encoding": "mapping",
        "key": "t_bytes32",
        "label": "mapping(bytes32 => struct EnumerableSet.AddressSet)",
        "numberOfBytes": "32",
        "value": "t_struct(AddressSet)54446_storage"
      },
      "t_mapping(t_bytes32,t_struct(EventRange)69638_storage)": {
        "encoding": "mapping",
        "key": "t_bytes32",
        "label": "mapping(bytes32 => struct EventRange)",
        "numberOfBytes": "32",
        "value": "t_struct(EventRange)69638_storage"
      },
      "t_mapping(t_bytes32,t_struct(RoleData)48562_storage)": {
        "encoding": "mapping",
        "key": "t_bytes32",
        "label": "mapping(bytes32 => struct AccessControl.RoleData)",
        "numberOfBytes": "32",
        "value": "t_struct(RoleData)48562_storage"
      },
      "t_mapping(t_bytes32,t_uint256)": {
        "encoding": "mapping",
        "key": "t_bytes32",
        "label": "mapping(bytes32 => uint256)",
        "numberOfBytes": "32",
        "value": "t_uint256"
      },
      "t_mapping(t_uint256,t_struct(DomainAuction)67867_storage)": {
        "encoding": "mapping",
        "key": "t_uint256",
        "label": "mapping(uint256 => struct INSAuction.DomainAuction)",
        "numberOfBytes": "32",
        "value": "t_struct(DomainAuction)67867_storage"
      },
      "t_mapping(t_uint256,t_uint256)": {
        "encoding": "mapping",
        "key": "t_uint256",
        "label": "mapping(uint256 => uint256)",
        "numberOfBytes": "32",
        "value": "t_uint256"
      },
      "t_struct(AddressSet)54446_storage": {
        "encoding": "inplace",
        "label": "struct EnumerableSet.AddressSet",
        "numberOfBytes": "64",
        "members": [
          {
            "astId": 54445,
            "contract": "src/RNSAuction.sol:RNSAuction",
            "label": "_inner",
            "offset": 0,
            "slot": "0",
            "type": "t_struct(Set)54131_storage"
          }
        ]
      },
      "t_struct(Bid)67859_storage": {
        "encoding": "inplace",
        "label": "struct INSAuction.Bid",
        "numberOfBytes": "128",
        "members": [
          {
            "astId": 67852,
            "contract": "src/RNSAuction.sol:RNSAuction",
            "label": "bidder",
            "offset": 0,
            "slot": "0",
            "type": "t_address_payable"
          },
          {
            "astId": 67854,
            "contract": "src/RNSAuction.sol:RNSAuction",
            "label": "price",
            "offset": 0,
            "slot": "1",
            "type": "t_uint256"
          },
          {
            "astId": 67856,
            "contract": "src/RNSAuction.sol:RNSAuction",
            "label": "timestamp",
            "offset": 0,
            "slot": "2",
            "type": "t_uint256"
          },
          {
            "astId": 67858,
            "contract": "src/RNSAuction.sol:RNSAuction",
            "label": "claimedAt",
            "offset": 0,
            "slot": "3",
            "type": "t_uint256"
          }
        ]
      },
      "t_struct(BitMap)53990_storage": {
        "encoding": "inplace",
        "label": "struct BitMaps.BitMap",
        "numberOfBytes": "32",
        "members": [
          {
            "astId": 53989,
            "contract": "src/RNSAuction.sol:RNSAuction",
            "label": "_data",
            "offset": 0,
            "slot": "0",
            "type": "t_mapping(t_uint256,t_uint256)"
          }
        ]
      },
      "t_struct(DomainAuction)67867_storage": {
        "encoding": "inplace",
        "label": "struct INSAuction.DomainAuction",
        "numberOfBytes": "192",
        "members": [
          {
            "astId": 67861,
            "contract": "src/RNSAuction.sol:RNSAuction",
            "label": "auctionId",
            "offset": 0,
            "slot": "0",
            "type": "t_bytes32"
          },
          {
            "astId": 67863,
            "contract": "src/RNSAuction.sol:RNSAuction",
            "label": "startingPrice",
            "offset": 0,
            "slot": "1",
            "type": "t_uint256"
          },
          {
            "astId": 67866,
            "contract": "src/RNSAuction.sol:RNSAuction",
            "label": "bid",
            "offset": 0,
            "slot": "2",
            "type": "t_struct(Bid)67859_storage"
          }
        ]
      },
      "t_struct(EventRange)69638_storage": {
        "encoding": "inplace",
        "label": "struct EventRange",
        "numberOfBytes": "64",
        "members": [
          {
            "astId": 69635,
            "contract": "src/RNSAuction.sol:RNSAuction",
            "label": "startedAt",
            "offset": 0,
            "slot": "0",
            "type": "t_uint256"
          },
          {
            "astId": 69637,
            "contract": "src/RNSAuction.sol:RNSAuction",
            "label": "endedAt",
            "offset": 0,
            "slot": "1",
            "type": "t_uint256"
          }
        ]
      },
      "t_struct(RoleData)48562_storage": {
        "encoding": "inplace",
        "label": "struct AccessControl.RoleData",
        "numberOfBytes": "64",
        "members": [
          {
            "astId": 48559,
            "contract": "src/RNSAuction.sol:RNSAuction",
            "label": "members",
            "offset": 0,
            "slot": "0",
            "type": "t_mapping(t_address,t_bool)"
          },
          {
            "astId": 48561,
            "contract": "src/RNSAuction.sol:RNSAuction",
            "label": "adminRole",
            "offset": 0,
            "slot": "1",
            "type": "t_bytes32"
          }
        ]
      },
      "t_struct(Set)54131_storage": {
        "encoding": "inplace",
        "label": "struct EnumerableSet.Set",
        "numberOfBytes": "64",
        "members": [
          {
            "astId": 54126,
            "contract": "src/RNSAuction.sol:RNSAuction",
            "label": "_values",
            "offset": 0,
            "slot": "0",
            "type": "t_array(t_bytes32)dyn_storage"
          },
          {
            "astId": 54130,
            "contract": "src/RNSAuction.sol:RNSAuction",
            "label": "_indexes",
            "offset": 0,
            "slot": "1",
            "type": "t_mapping(t_bytes32,t_uint256)"
          }
        ]
      },
      "t_uint256": {
        "encoding": "inplace",
        "label": "uint256",
        "numberOfBytes": "32"
      },
      "t_uint8": {
        "encoding": "inplace",
        "label": "uint8",
        "numberOfBytes": "1"
      }
    }
  },
  "timestamp": 1700810597,
  "userdoc": {
    "version": 1,
    "kind": "user",
    "methods": {
      "createAuctionEvent((uint256,uint256))": {
        "notice": "Please use the method `setAuctionNames` to list all the reserved names."
      }
    }
  }
}