{
  "abi": [
    {
      "inputs": [],
      "stateMutability": "payable",
      "type": "constructor"
    },
    {
      "inputs": [],
      "name": "AlreadyBidding",
      "type": "error"
    },
    {
      "inputs": [],
      "name": "BidderCannotReceiveRON",
      "type": "error"
    },
    {
      "inputs": [],
      "name": "EventIsNotCreatedOrAlreadyStarted",
      "type": "error"
    },
    {
      "inputs": [],
      "name": "InsufficientAmount",
      "type": "error"
    },
    {
      "inputs": [],
      "name": "InvalidArrayLength",
      "type": "error"
    },
    {
      "inputs": [],
      "name": "InvalidEventRange",
      "type": "error"
    },
    {
      "inputs": [],
      "name": "NameNotReserved",
      "type": "error"
    },
    {
      "inputs": [],
      "name": "NoOneBidded",
      "type": "error"
    },
    {
      "inputs": [],
      "name": "NotYetEnded",
      "type": "error"
    },
    {
      "inputs": [],
      "name": "NullAssignment",
      "type": "error"
    },
    {
      "inputs": [],
      "name": "QueryIsNotInPeriod",
      "type": "error"
    },
    {
      "inputs": [],
      "name": "RatioIsTooLarge",
      "type": "error"
    },
    {
      "anonymous": false,
      "inputs": [
        {
          "indexed": true,
          "internalType": "bytes32",
          "name": "auctionId",
          "type": "bytes32"
        },
        {
          "components": [
            {
              "internalType": "uint256",
              "name": "startedAt",
              "type": "uint256"
            },
            {
              "internalType": "uint256",
              "name": "endedAt",
              "type": "uint256"
            }
          ],
          "indexed": false,
          "internalType": "struct EventRange",
          "name": "range",
          "type": "tuple"
        }
      ],
      "name": "AuctionEventSet",
      "type": "event"
    },
    {
      "anonymous": false,
      "inputs": [
        {
          "indexed": false,
          "internalType": "uint256",
          "name": "ratio",
          "type": "uint256"
        }
      ],
      "name": "BidGapRatioUpdated",
      "type": "event"
    },
    {
      "anonymous": false,
      "inputs": [
        {
          "indexed": true,
          "internalType": "bytes32",
          "name": "auctionId",
          "type": "bytes32"
        },
        {
          "indexed": true,
          "internalType": "uint256",
          "name": "id",
          "type": "uint256"
        },
        {
          "indexed": false,
          "internalType": "uint256",
          "name": "price",
          "type": "uint256"
        },
        {
          "indexed": false,
          "internalType": "address payable",
          "name": "bidder",
          "type": "address"
        },
        {
          "indexed": false,
          "internalType": "uint256",
          "name": "previousPrice",
          "type": "uint256"
        },
        {
          "indexed": false,
          "internalType": "address",
          "name": "previousBidder",
          "type": "address"
        }
      ],
      "name": "BidPlaced",
      "type": "event"
    },
    {
      "anonymous": false,
      "inputs": [
        {
          "indexed": false,
          "internalType": "uint8",
          "name": "version",
          "type": "uint8"
        }
      ],
      "name": "Initialized",
      "type": "event"
    },
    {
      "anonymous": false,
      "inputs": [
        {
          "indexed": true,
          "internalType": "bytes32",
          "name": "auctionId",
          "type": "bytes32"
        },
        {
          "indexed": false,
          "internalType": "uint256[]",
          "name": "ids",
          "type": "uint256[]"
        },
        {
          "indexed": false,
          "internalType": "uint256[]",
          "name": "startingPrices",
          "type": "uint256[]"
        }
      ],
      "name": "LabelsListed",
      "type": "event"
    },
    {
      "anonymous": false,
      "inputs": [
        {
          "indexed": true,
          "internalType": "bytes32",
          "name": "role",
          "type": "bytes32"
        },
        {
          "indexed": true,
          "internalType": "bytes32",
          "name": "previousAdminRole",
          "type": "bytes32"
        },
        {
          "indexed": true,
          "internalType": "bytes32",
          "name": "newAdminRole",
          "type": "bytes32"
        }
      ],
      "name": "RoleAdminChanged",
      "type": "event"
    },
    {
      "anonymous": false,
      "inputs": [
        {
          "indexed": true,
          "internalType": "bytes32",
          "name": "role",
          "type": "bytes32"
        },
        {
          "indexed": true,
          "internalType": "address",
          "name": "account",
          "type": "address"
        },
        {
          "indexed": true,
          "internalType": "address",
          "name": "sender",
          "type": "address"
        }
      ],
      "name": "RoleGranted",
      "type": "event"
    },
    {
      "anonymous": false,
      "inputs": [
        {
          "indexed": true,
          "internalType": "bytes32",
          "name": "role",
          "type": "bytes32"
        },
        {
          "indexed": true,
          "internalType": "address",
          "name": "account",
          "type": "address"
        },
        {
          "indexed": true,
          "internalType": "address",
          "name": "sender",
          "type": "address"
        }
      ],
      "name": "RoleRevoked",
      "type": "event"
    },
    {
      "anonymous": false,
      "inputs": [
        {
          "indexed": true,
          "internalType": "address",
          "name": "addr",
          "type": "address"
        }
      ],
      "name": "TreasuryUpdated",
      "type": "event"
    },
    {
      "inputs": [],
      "name": "DEFAULT_ADMIN_ROLE",
      "outputs": [
        {
          "internalType": "bytes32",
          "name": "",
          "type": "bytes32"
        }
      ],
      "stateMutability": "view",
      "type": "function"
    },
    {
      "inputs": [],
      "name": "DOMAIN_EXPIRY_DURATION",
      "outputs": [
        {
          "internalType": "uint64",
          "name": "",
          "type": "uint64"
        }
      ],
      "stateMutability": "view",
      "type": "function"
    },
    {
      "inputs": [],
      "name": "MAX_EXPIRY",
      "outputs": [
        {
          "internalType": "uint64",
          "name": "",
          "type": "uint64"
        }
      ],
      "stateMutability": "view",
      "type": "function"
    },
    {
      "inputs": [],
      "name": "MAX_PERCENTAGE",
      "outputs": [
        {
          "internalType": "uint256",
          "name": "",
          "type": "uint256"
        }
      ],
      "stateMutability": "view",
      "type": "function"
    },
    {
      "inputs": [],
      "name": "OPERATOR_ROLE",
      "outputs": [
        {
          "internalType": "bytes32",
          "name": "",
          "type": "bytes32"
        }
      ],
      "stateMutability": "view",
      "type": "function"
    },
    {
      "inputs": [
        {
          "internalType": "uint256[]",
          "name": "ids",
          "type": "uint256[]"
        }
      ],
      "name": "bulkClaimBidNames",
      "outputs": [
        {
          "internalType": "bool[]",
          "name": "claimeds",
          "type": "bool[]"
        }
      ],
      "stateMutability": "nonpayable",
      "type": "function"
    },
    {
      "inputs": [
        {
          "internalType": "string[]",
          "name": "labels",
          "type": "string[]"
        }
      ],
      "name": "bulkRegister",
      "outputs": [
        {
          "internalType": "uint256[]",
          "name": "ids",
          "type": "uint256[]"
        }
      ],
      "stateMutability": "nonpayable",
      "type": "function"
    },
    {
      "inputs": [
        {
          "components": [
            {
              "internalType": "uint256",
              "name": "startedAt",
              "type": "uint256"
            },
            {
              "internalType": "uint256",
              "name": "endedAt",
              "type": "uint256"
            }
          ],
          "internalType": "struct EventRange",
          "name": "range",
          "type": "tuple"
        }
      ],
      "name": "createAuctionEvent",
      "outputs": [
        {
          "internalType": "bytes32",
          "name": "auctionId",
          "type": "bytes32"
        }
      ],
      "stateMutability": "nonpayable",
      "type": "function"
    },
    {
      "inputs": [
        {
          "internalType": "uint256",
          "name": "id",
          "type": "uint256"
        }
      ],
      "name": "getAuction",
      "outputs": [
        {
          "components": [
            {
              "internalType": "bytes32",
              "name": "auctionId",
              "type": "bytes32"
            },
            {
              "internalType": "uint256",
              "name": "startingPrice",
              "type": "uint256"
            },
            {
              "components": [
                {
                  "internalType": "address payable",
                  "name": "bidder",
                  "type": "address"
                },
                {
                  "internalType": "uint256",
                  "name": "price",
                  "type": "uint256"
                },
                {
                  "internalType": "uint256",
                  "name": "timestamp",
                  "type": "uint256"
                },
                {
                  "internalType": "bool",
                  "name": "claimed",
                  "type": "bool"
                }
              ],
              "internalType": "struct INSAuction.Bid",
              "name": "bid",
              "type": "tuple"
            }
          ],
          "internalType": "struct INSAuction.DomainAuction",
          "name": "auction",
          "type": "tuple"
        },
        {
          "internalType": "uint256",
          "name": "beatPrice",
          "type": "uint256"
        }
      ],
      "stateMutability": "view",
      "type": "function"
    },
    {
      "inputs": [
        {
          "internalType": "bytes32",
          "name": "auctionId",
          "type": "bytes32"
        }
      ],
      "name": "getAuctionEvent",
      "outputs": [
        {
          "components": [
            {
              "internalType": "uint256",
              "name": "startedAt",
              "type": "uint256"
            },
            {
              "internalType": "uint256",
              "name": "endedAt",
              "type": "uint256"
            }
          ],
          "internalType": "struct EventRange",
          "name": "",
          "type": "tuple"
        }
      ],
      "stateMutability": "view",
      "type": "function"
    },
    {
      "inputs": [],
      "name": "getBidGapRatio",
      "outputs": [
        {
          "internalType": "uint256",
          "name": "",
          "type": "uint256"
        }
      ],
      "stateMutability": "view",
      "type": "function"
    },
    {
      "inputs": [],
      "name": "getRNSUnified",
      "outputs": [
        {
          "internalType": "contract INSUnified",
          "name": "",
          "type": "address"
        }
      ],
      "stateMutability": "view",
      "type": "function"
    },
    {
      "inputs": [
        {
          "internalType": "bytes32",
          "name": "role",
          "type": "bytes32"
        }
      ],
      "name": "getRoleAdmin",
      "outputs": [
        {
          "internalType": "bytes32",
          "name": "",
          "type": "bytes32"
        }
      ],
      "stateMutability": "view",
      "type": "function"
    },
    {
      "inputs": [
        {
          "internalType": "bytes32",
          "name": "role",
          "type": "bytes32"
        },
        {
          "internalType": "uint256",
          "name": "index",
          "type": "uint256"
        }
      ],
      "name": "getRoleMember",
      "outputs": [
        {
          "internalType": "address",
          "name": "",
          "type": "address"
        }
      ],
      "stateMutability": "view",
      "type": "function"
    },
    {
      "inputs": [
        {
          "internalType": "bytes32",
          "name": "role",
          "type": "bytes32"
        }
      ],
      "name": "getRoleMemberCount",
      "outputs": [
        {
          "internalType": "uint256",
          "name": "",
          "type": "uint256"
        }
      ],
      "stateMutability": "view",
      "type": "function"
    },
    {
      "inputs": [],
      "name": "getTreasury",
      "outputs": [
        {
          "internalType": "address",
          "name": "",
          "type": "address"
        }
      ],
      "stateMutability": "view",
      "type": "function"
    },
    {
      "inputs": [
        {
          "internalType": "bytes32",
          "name": "role",
          "type": "bytes32"
        },
        {
          "internalType": "address",
          "name": "account",
          "type": "address"
        }
      ],
      "name": "grantRole",
      "outputs": [],
      "stateMutability": "nonpayable",
      "type": "function"
    },
    {
      "inputs": [
        {
          "internalType": "bytes32",
          "name": "role",
          "type": "bytes32"
        },
        {
          "internalType": "address",
          "name": "account",
          "type": "address"
        }
      ],
      "name": "hasRole",
      "outputs": [
        {
          "internalType": "bool",
          "name": "",
          "type": "bool"
        }
      ],
      "stateMutability": "view",
      "type": "function"
    },
    {
      "inputs": [
        {
          "internalType": "address",
          "name": "admin",
          "type": "address"
        },
        {
          "internalType": "address[]",
          "name": "operators",
          "type": "address[]"
        },
        {
          "internalType": "contract INSUnified",
          "name": "rnsUnified",
          "type": "address"
        },
        {
          "internalType": "address payable",
          "name": "treasury",
          "type": "address"
        },
        {
          "internalType": "uint256",
          "name": "bidGapRatio",
          "type": "uint256"
        }
      ],
      "name": "initialize",
      "outputs": [],
      "stateMutability": "nonpayable",
      "type": "function"
    },
    {
      "inputs": [
        {
          "internalType": "bytes32",
          "name": "auctionId",
          "type": "bytes32"
        },
        {
          "internalType": "uint256[]",
          "name": "ids",
          "type": "uint256[]"
        },
        {
          "internalType": "uint256[]",
          "name": "startingPrices",
          "type": "uint256[]"
        }
      ],
      "name": "listNamesForAuction",
      "outputs": [],
      "stateMutability": "nonpayable",
      "type": "function"
    },
    {
      "inputs": [
        {
          "internalType": "uint256",
          "name": "id",
          "type": "uint256"
        }
      ],
      "name": "placeBid",
      "outputs": [],
      "stateMutability": "payable",
      "type": "function"
    },
    {
      "inputs": [
        {
          "internalType": "bytes32",
          "name": "role",
          "type": "bytes32"
        },
        {
          "internalType": "address",
          "name": "account",
          "type": "address"
        }
      ],
      "name": "renounceRole",
      "outputs": [],
      "stateMutability": "nonpayable",
      "type": "function"
    },
    {
      "inputs": [
        {
          "internalType": "uint256",
          "name": "id",
          "type": "uint256"
        }
      ],
      "name": "reserved",
      "outputs": [
        {
          "internalType": "bool",
          "name": "",
          "type": "bool"
        }
      ],
      "stateMutability": "view",
      "type": "function"
    },
    {
      "inputs": [
        {
          "internalType": "bytes32",
          "name": "role",
          "type": "bytes32"
        },
        {
          "internalType": "address",
          "name": "account",
          "type": "address"
        }
      ],
      "name": "revokeRole",
      "outputs": [],
      "stateMutability": "nonpayable",
      "type": "function"
    },
    {
      "inputs": [
        {
          "internalType": "bytes32",
          "name": "auctionId",
          "type": "bytes32"
        },
        {
          "components": [
            {
              "internalType": "uint256",
              "name": "startedAt",
              "type": "uint256"
            },
            {
              "internalType": "uint256",
              "name": "endedAt",
              "type": "uint256"
            }
          ],
          "internalType": "struct EventRange",
          "name": "range",
          "type": "tuple"
        }
      ],
      "name": "setAuctionEvent",
      "outputs": [],
      "stateMutability": "nonpayable",
      "type": "function"
    },
    {
      "inputs": [
        {
          "internalType": "uint256",
          "name": "ratio",
          "type": "uint256"
        }
      ],
      "name": "setBidGapRatio",
      "outputs": [],
      "stateMutability": "nonpayable",
      "type": "function"
    },
    {
      "inputs": [
        {
          "internalType": "address payable",
          "name": "addr",
          "type": "address"
        }
      ],
      "name": "setTreasury",
      "outputs": [],
      "stateMutability": "nonpayable",
      "type": "function"
    },
    {
      "inputs": [
        {
          "internalType": "bytes4",
          "name": "interfaceId",
          "type": "bytes4"
        }
      ],
      "name": "supportsInterface",
      "outputs": [
        {
          "internalType": "bool",
          "name": "",
          "type": "bool"
        }
      ],
      "stateMutability": "view",
      "type": "function"
    }
  ],
  "address": "0xCcD3837278C083027DeF4537b3e66343D940377F",
  "args": "0x",
  "blockNumber": 21224275,
  "bytecode": "0x608060405261000c610011565b6100d0565b600054610100900460ff161561007d5760405162461bcd60e51b815260206004820152602760248201527f496e697469616c697a61626c653a20636f6e747261637420697320696e697469604482015266616c697a696e6760c81b606482015260840160405180910390fd5b60005460ff908116146100ce576000805460ff191660ff9081179091556040519081527f7f26b83ff96e1f2b6a682f133852f6798a09c465da95921460cefb38474024989060200160405180910390a15b565b6124a6806100df6000396000f3fe6080604052600436106101b75760003560e01c806381bec1b3116100ec578063b96716901161008a578063db5e1ec611610064578063db5e1ec6146105a0578063ec14cf37146105c0578063f0f44260146105e0578063f5b541a61461060057600080fd5b8063b967169014610545578063ca15c87314610560578063d547741f1461058057600080fd5b806391d14854116100c657806391d14854146104e85780639979ef4514610508578063a217fddf1461051b578063a282d4ae1461053057600080fd5b806381bec1b31461048a5780638c843314146104aa5780639010d07c146104c857600080fd5b80634c255c97116101595780636e7d60f2116101335780636e7d60f21461039e578063777b0a18146103cb57806378bd7935146103eb578063791a26b41461045d57600080fd5b80634c255c971461034857806353f9195e1461035e57806360223b441461037e57600080fd5b8063248a9ca311610195578063248a9ca3146102955780632f2ff15d146102d457806336568abe146102f65780633b19e84a1461031657600080fd5b806301ffc9a7146101bc57806315a29162146101f157806319a3ee4014610265575b600080fd5b3480156101c857600080fd5b506101dc6101d7366004611d1f565b610622565b60405190151581526020015b60405180910390f35b3480156101fd57600080fd5b5061024a61020c366004611d49565b604080518082019091526000808252602082015250600090815260366020908152604091829020825180840190935280548352600101549082015290565b604080518251815260209283015192810192909252016101e8565b34801561027157600080fd5b5061027d6301e1338081565b6040516001600160401b0390911681526020016101e8565b3480156102a157600080fd5b506102c66102b0366004611d49565b6000908152600160208190526040909120015490565b6040519081526020016101e8565b3480156102e057600080fd5b506102f46102ef366004611d77565b61064d565b005b34801561030257600080fd5b506102f4610311366004611d77565b610678565b34801561032257600080fd5b506038546001600160a01b03165b6040516001600160a01b0390911681526020016101e8565b34801561035457600080fd5b506102c661271081565b34801561036a57600080fd5b506101dc610379366004611d49565b6106fb565b34801561038a57600080fd5b506102f4610399366004611d49565b61071e565b3480156103aa57600080fd5b506103be6103b9366004611df2565b610732565b6040516101e89190611e33565b3480156103d757600080fd5b506102f46103e6366004611e79565b610a6a565b3480156103f757600080fd5b5061040b610406366004611d49565b610bcd565b6040805183518152602080850151818301529382015180516001600160a01b03168284015293840151606080830191909152918401516080820152920151151560a083015260c082015260e0016101e8565b34801561046957600080fd5b5061047d610478366004611df2565b610cbd565b6040516101e89190611ef2565b34801561049657600080fd5b506102f46104a5366004611f42565b610e78565b3480156104b657600080fd5b506035546001600160a01b0316610330565b3480156104d457600080fd5b506103306104e3366004611f6f565b610ef5565b3480156104f457600080fd5b506101dc610503366004611d77565b610f14565b6102f4610516366004611d49565b610f3f565b34801561052757600080fd5b506102c6600081565b34801561053c57600080fd5b506039546102c6565b34801561055157600080fd5b5061027d6001600160401b0381565b34801561056c57600080fd5b506102c661057b366004611d49565b6110ff565b34801561058c57600080fd5b506102f461059b366004611d77565b611116565b3480156105ac57600080fd5b506102c66105bb366004611f91565b61113c565b3480156105cc57600080fd5b506102f46105db366004611fad565b6111d9565b3480156105ec57600080fd5b506102f46105fb366004612031565b611376565b34801561060c57600080fd5b506102c660008051602061245183398151915281565b60006001600160e01b03198216635a05180f60e01b148061064757506106478261138a565b92915050565b60008281526001602081905260409091200154610669816113bf565b61067383836113cc565b505050565b6001600160a01b03811633146106ed5760405162461bcd60e51b815260206004820152602f60248201527f416363657373436f6e74726f6c3a2063616e206f6e6c792072656e6f756e636560448201526e103937b632b9903337b91039b2b63360891b60648201526084015b60405180910390fd5b6106f782826113ee565b5050565b600881901c6000908152603a6020526040812054600160ff84161b161515610647565b6000610729816113bf565b6106f782611410565b6060600080610754604051806040016040528060008152602001600081525090565b610792604080516060808201835260008083526020808401829052845160808101865282815290810182905280850182905291820152909182015290565b85806001600160401b038111156107ab576107ab61204e565b6040519080825280602002602001820160405280156107d4578160200160208202803683370190505b506035549096506001600160a01b031660006107fc426301e133806001600160401b0361146e565b905060005b83811015610a46578a8a8281811061081b5761081b612064565b60209081029290920135600081815260378452604080822081516060808201845282548252600180840154838a0152845160808101865260028501546001600160a01b031681526003850154818b015260048501548187015260059094015460ff1615158483015282850193845282518652603689529484902084518086019095528054855290940154968301969096525190910151919b509850919650610a3e90505760208601514210156108e4576040516372d1250d60e01b815260040160405180910390fd5b84604001516040015160000361090d576040516323bbcc0160e01b815260040160405180910390fd5b6040850151602001516109209088612090565b60405163fc284d1160e01b8152600481018a90526001600160401b03841660248201529097506001600160a01b0384169063fc284d1190604401600060405180830381600087803b15801561097457600080fd5b505af1158015610988573d6000803e3d6000fd5b505050506040858101515190516323b872dd60e01b81523060048201526001600160a01b039182166024820152604481018a9052908416906323b872dd90606401600060405180830381600087803b1580156109e357600080fd5b505af11580156109f7573d6000803e3d6000fd5b505050506001898281518110610a0f57610a0f612064565b911515602092830291909101820181905260008a815260379092526040909120600501805460ff191690911790555b600101610801565b50603854610a5d906001600160a01b0316876114a4565b5050505050505092915050565b600080516020612451833981519152610a82816113bf565b85610a8c81611509565b84801580610a9a5750808414155b15610ab857604051634ec4810560e11b815260040160405180910390fd5b6000806000805b84811015610b81578a8a82818110610ad957610ad9612064565b905060200201359350610aeb846106fb565b610b0857604051637d6fe8d760e11b815260040160405180910390fd5b6000848152603760205260409020805493509150821580610b2857508b83145b80610b3557506004820154155b610b5257604051631dc8374160e01b815260040160405180910390fd5b8b8255888882818110610b6757610b67612064565b905060200201358260010181905550806001019050610abf565b508a7f9a845a1c4235343a450f5e39d4179b7e2a6c9586c02bff45d956717f4a19dd948b8b8b8b604051610bb894939291906120d5565b60405180910390a25050505050505050505050565b610c0b604080516060808201835260008083526020808401829052845160808101865282815290810182905280850182905291820152909182015290565b5060008181526037602090815260408083208151606080820184528254825260018084015483870152845160808101865260028501546001600160a01b0316815260038501548188015260048501548187015260059094015460ff161515918401919091528184019290925280518351808501855286815285018690528552603684528285208351808501909452805484529091015492820192909252909190610cb58382611556565b915050915091565b6060600080516020612451833981519152610cd7816113bf565b826000819003610cfa57604051634ec4810560e11b815260040160405180910390fd5b806001600160401b03811115610d1257610d1261204e565b604051908082528060200260200182016040528015610d3b578160200160208202803683370190505b506035549093506001600160a01b03167fba69923fa107dbf5a25a073a10b7c9216ae39fbadc95dc891d460d9ae315d6886301e1338060005b84811015610e6c57836001600160a01b0316630570891f848b8b85818110610d9e57610d9e612064565b9050602002810190610db09190612107565b600030886040518763ffffffff1660e01b8152600401610dd59695949392919061214d565b60408051808303816000875af1158015610df3573d6000803e3d6000fd5b505050506040513d601f19601f82011682018060405250810190610e1791906121a9565b9050878281518110610e2b57610e2b612064565b602002602001018181525050610e64878281518110610e4c57610e4c612064565b6020026020010151603a6115ae90919063ffffffff16565b600101610d74565b50505050505092915050565b6000610e83816113bf565b81610e8d816115d7565b83610e9781611509565b60008581526036602090815260409091208535815590850135600182015550847fd8960c7efc6464cdd8dd07f4dc149b0a33bf7f60bf357838722d5b80f988fb1b85604051610ee691906121e3565b60405180910390a25050505050565b6000828152600260205260408120610f0d908361161c565b9392505050565b60009182526001602090815260408084206001600160a01b0393909316845291905290205460ff1690565b60008181526037602090815260408083208151606080820184528254825260018084015483870152845160808101865260028501546001600160a01b0316815260038501548188015260048501548187015260059094015460ff1615159184019190915281840192909252805185526036845282852083518085019094528054845290910154928201929092529091610fd88383611556565b9050610fe382611628565b611000576040516348c6117b60e11b815260040160405180910390fd5b8034101561102157604051632ca2f52b60e11b815260040160405180910390fd5b3361102d816000611643565b61104a57604051634bad17b360e01b815260040160405180910390fd5b604084810151805160209182015160008981526037845284902034600382018190556002820180546001600160a01b0319166001600160a01b038981169182178355426004909501949094558b5188519384529683015295810183905290831660608201529193909290918991907f5934294f4724ea4bb71fee8511b9ccb8dd6d2249ac4d120a81ccfcbbd0ad905f9060800160405180910390a381156110f5576110f583836114a4565b5050505050505050565b6000818152600260205260408120610647906116b9565b60008281526001602081905260409091200154611132816113bf565b61067383836113ee565b600080611148816113bf565b82611152816115d7565b33846040516020016111659291906121fa565b60408051808303601f1901815291815281516020928301206000818152603684529190912086358155918601356001830155935050827fd8960c7efc6464cdd8dd07f4dc149b0a33bf7f60bf357838722d5b80f988fb1b856040516111ca91906121e3565b60405180910390a25050919050565b600054610100900460ff16158080156111f95750600054600160ff909116105b806112135750303b158015611213575060005460ff166001145b6112765760405162461bcd60e51b815260206004820152602e60248201527f496e697469616c697a61626c653a20636f6e747261637420697320616c72656160448201526d191e481a5b9a5d1a585b1a5e995960921b60648201526084016106e4565b6000805460ff191660011790558015611299576000805461ff0019166101001790555b6112a2836116c3565b6112ab82611410565b6112b6600088611734565b8460008051602061245183398151915260005b8281101561130957611301828a8a848181106112e7576112e7612064565b90506020020160208101906112fc9190612031565b611734565b6001016112c9565b5050603580546001600160a01b0319166001600160a01b03871617905550801561136d576000805461ff0019169055604051600181527f7f26b83ff96e1f2b6a682f133852f6798a09c465da95921460cefb38474024989060200160405180910390a15b50505050505050565b6000611381816113bf565b6106f7826116c3565b60006001600160e01b03198216637965db0b60e01b148061064757506301ffc9a760e01b6001600160e01b0319831614610647565b6113c9813361173e565b50565b6113d68282611771565b600082815260026020526040902061067390826117dc565b6113f882826117f1565b60008281526002602052604090206106739082611858565b6127108111156114335760405163220f1a1560e01b815260040160405180910390fd5b60398190556040518181527f846b33625d74f443855144a5f2aef4dda303cda3dfb1c704cb58ab70671823429060200160405180910390a150565b60008184118061147d57508183115b15611489575080610f0d565b611493848461186d565b905081811115610f0d575092915050565b60006114b08383611643565b905080610673576114c9836001600160a01b0316611881565b6114d283611897565b6040516020016114e3929190612245565b60408051601f198184030181529082905262461bcd60e51b82526106e4916004016122c3565b60008181526036602090815260409182902082518084019093528054835260010154908201526115399051421090565b6113c95760405163028e4e9760e51b815260040160405180910390fd5b600061156e83602001518460400151602001516118ae565b905082604001516020015160001415801561158c5750602082015142105b15610647576115a483602001516039546127106118c4565b610f0d9082612090565b600881901c600090815260209290925260409091208054600160ff9093169290921b9091179055565b60208101358135111580156115ff57506115ff6115f9368390038301836122f6565b51421090565b6113c9576040516302ef0c7360e21b815260040160405180910390fd5b6000610f0d83836119ae565b60004282600001511115801561064757505060200151421090565b604080516000808252602082019092526001600160a01b03841690839060405161166d9190612352565b60006040518083038185875af1925050503d80600081146116aa576040519150601f19603f3d011682016040523d82523d6000602084013e6116af565b606091505b5090949350505050565b6000610647825490565b6001600160a01b0381166116ea576040516362daafb160e11b815260040160405180910390fd5b603880546001600160a01b0319166001600160a01b0383169081179091556040517f7dae230f18360d76a040c81f050aa14eb9d6dc7901b20fc5d855e2a20fe814d190600090a250565b6106f782826113cc565b6117488282610f14565b6106f75761175581611881565b6117608360206119d8565b6040516020016114e392919061236e565b61177b8282610f14565b6106f75760008281526001602081815260408084206001600160a01b0386168086529252808420805460ff19169093179092559051339285917f2f8788117e7eff1d82e926ec794901d17c78024a50270940304540a733656f0d9190a45050565b6000610f0d836001600160a01b038416611b73565b6117fb8282610f14565b156106f75760008281526001602090815260408083206001600160a01b0385168085529252808320805460ff1916905551339285917ff6391f5c32d9c69d2a47ea670b442974b53935d1edc7fd64eb21e047a839171b9190a45050565b6000610f0d836001600160a01b038416611bc2565b818101828110156106475750600019610647565b60606106476001600160a01b03831660146119d8565b6060610647826118a684611cb5565b6001016119d8565b60008183116118bd5781610f0d565b5090919050565b60008080600019858709858702925082811083820303915050806000036118fe578382816118f4576118f46123e3565b0492505050610f0d565b8084116119455760405162461bcd60e51b81526020600482015260156024820152744d6174683a206d756c446976206f766572666c6f7760581b60448201526064016106e4565b60008486880960026001871981018816978890046003810283188082028403028082028403028082028403028082028403028082028403029081029092039091026000889003889004909101858311909403939093029303949094049190911702949350505050565b60008260000182815481106119c5576119c5612064565b9060005260206000200154905092915050565b606060006119e78360026123f9565b6119f2906002612090565b6001600160401b03811115611a0957611a0961204e565b6040519080825280601f01601f191660200182016040528015611a33576020820181803683370190505b509050600360fc1b81600081518110611a4e57611a4e612064565b60200101906001600160f81b031916908160001a905350600f60fb1b81600181518110611a7d57611a7d612064565b60200101906001600160f81b031916908160001a9053506000611aa18460026123f9565b611aac906001612090565b90505b6001811115611b24576f181899199a1a9b1b9c1cb0b131b232b360811b85600f1660108110611ae057611ae0612064565b1a60f81b828281518110611af657611af6612064565b60200101906001600160f81b031916908160001a90535060049490941c93611b1d81612410565b9050611aaf565b508315610f0d5760405162461bcd60e51b815260206004820181905260248201527f537472696e67733a20686578206c656e67746820696e73756666696369656e7460448201526064016106e4565b6000818152600183016020526040812054611bba57508154600181810184556000848152602080822090930184905584548482528286019093526040902091909155610647565b506000610647565b60008181526001830160205260408120548015611cab576000611be6600183612427565b8554909150600090611bfa90600190612427565b9050818114611c5f576000866000018281548110611c1a57611c1a612064565b9060005260206000200154905080876000018481548110611c3d57611c3d612064565b6000918252602080832090910192909255918252600188019052604090208390555b8554869080611c7057611c7061243a565b600190038181906000526020600020016000905590558560010160008681526020019081526020016000206000905560019350505050610647565b6000915050610647565b600080608083901c15611ccd5760809290921c916010015b604083901c15611ce25760409290921c916008015b602083901c15611cf75760209290921c916004015b601083901c15611d0c5760109290921c916002015b600883901c156106475760010192915050565b600060208284031215611d3157600080fd5b81356001600160e01b031981168114610f0d57600080fd5b600060208284031215611d5b57600080fd5b5035919050565b6001600160a01b03811681146113c957600080fd5b60008060408385031215611d8a57600080fd5b823591506020830135611d9c81611d62565b809150509250929050565b60008083601f840112611db957600080fd5b5081356001600160401b03811115611dd057600080fd5b6020830191508360208260051b8501011115611deb57600080fd5b9250929050565b60008060208385031215611e0557600080fd5b82356001600160401b03811115611e1b57600080fd5b611e2785828601611da7565b90969095509350505050565b6020808252825182820181905260009190848201906040850190845b81811015611e6d578351151583529284019291840191600101611e4f565b50909695505050505050565b600080600080600060608688031215611e9157600080fd5b8535945060208601356001600160401b0380821115611eaf57600080fd5b611ebb89838a01611da7565b90965094506040880135915080821115611ed457600080fd5b50611ee188828901611da7565b969995985093965092949392505050565b6020808252825182820181905260009190848201906040850190845b81811015611e6d57835183529284019291840191600101611f0e565b600060408284031215611f3c57600080fd5b50919050565b60008060608385031215611f5557600080fd5b82359150611f668460208501611f2a565b90509250929050565b60008060408385031215611f8257600080fd5b50508035926020909101359150565b600060408284031215611fa357600080fd5b610f0d8383611f2a565b60008060008060008060a08789031215611fc657600080fd5b8635611fd181611d62565b955060208701356001600160401b03811115611fec57600080fd5b611ff889828a01611da7565b909650945050604087013561200c81611d62565b9250606087013561201c81611d62565b80925050608087013590509295509295509295565b60006020828403121561204357600080fd5b8135610f0d81611d62565b634e487b7160e01b600052604160045260246000fd5b634e487b7160e01b600052603260045260246000fd5b634e487b7160e01b600052601160045260246000fd5b808201808211156106475761064761207a565b81835260006001600160fb1b038311156120bc57600080fd5b8260051b80836020870137939093016020019392505050565b6040815260006120e96040830186886120a3565b82810360208401526120fc8185876120a3565b979650505050505050565b6000808335601e1984360301811261211e57600080fd5b8301803591506001600160401b0382111561213857600080fd5b602001915036819003821315611deb57600080fd5b86815260a060208201528460a0820152848660c0830137600060c08683018101919091526001600160a01b0394851660408301529290931660608401526001600160401b03166080830152601f909201601f1916010192915050565b600080604083850312156121bc57600080fd5b82516001600160401b03811681146121d357600080fd5b6020939093015192949293505050565b813581526020808301359082015260408101610647565b6001600160a01b038316815260608101610f0d602083018480358252602090810135910152565b60005b8381101561223c578181015183820152602001612224565b50506000910152565b7f5472616e7366657248656c7065723a20636f756c64206e6f74207472616e7366815269032b9102927a7103a37960b51b60208201526000835161229081602a850160208801612221565b660103b30b63ab2960cd1b602a9184019182015283516122b7816031840160208801612221565b01603101949350505050565b60208152600082518060208401526122e2816040850160208701612221565b601f01601f19169190910160400192915050565b60006040828403121561230857600080fd5b604051604081018181106001600160401b038211171561233857634e487b7160e01b600052604160045260246000fd5b604052823581526020928301359281019290925250919050565b60008251612364818460208701612221565b9190910192915050565b7f416363657373436f6e74726f6c3a206163636f756e74200000000000000000008152600083516123a6816017850160208801612221565b7001034b99036b4b9b9b4b733903937b6329607d1b60179184019182015283516123d7816028840160208801612221565b01602801949350505050565b634e487b7160e01b600052601260045260246000fd5b80820281158282048414176106475761064761207a565b60008161241f5761241f61207a565b506000190190565b818103818111156106475761064761207a565b634e487b7160e01b600052603160045260246000fdfe97667070c54ef182b0f5858b034beac1b6f3089aa2d3188bb1e8929f4fa9b929a2646970667358221220b309f671b8e19d4b799039d85a64646c38d5a7039b741c8381d1403a8713f8bf64736f6c63430008150033",
  "chainId": 2021,
  "contractName": "RNSAuction",
  "deployer": "0x968D0Cd7343f711216817E617d3f92a23dC91c07",
  "devdoc": {
    "version": 1,
    "kind": "dev",
    "methods": {
      "bulkClaimBidNames(uint256[])": {
        "details": "Bulk claims the bid name. Requirements: - Must be called after ended time. - The method caller can be anyone.",
        "params": {
          "ids": "The namehash id of domain name. Eg, namehash('foo.ron') for 'foo.ron'"
        }
      },
      "bulkRegister(string[])": {
        "details": "Claims domain names for auction. Requirements: - The method caller must be contract operator.",
        "params": {
          "labels": "The domain names. Eg, ['foo'] for 'foo.ron'"
        },
        "returns": {
          "ids": "The id corresponding for namehash of domain names."
        }
      },
      "createAuctionEvent((uint256,uint256))": {
        "details": "Creates a new auction to sale with a specific time period. Requirements: - The method caller must be admin. Emits an event {AuctionEventSet}.",
        "returns": {
          "auctionId": "The auction id"
        }
      },
      "getAuction(uint256)": {
        "details": "Returns the highest bid and address of the bidder.",
        "params": {
          "id": "The namehash id of domain name. Eg, namehash('foo.ron') for 'foo.ron'"
        }
      },
      "getAuctionEvent(bytes32)": {
        "details": "Returns the event range of an auction."
      },
      "getBidGapRatio()": {
        "details": "Returns the gap ratio between 2 bids with the starting price. Value in range [0;100_00] is 0%-100%."
      },
      "getRNSUnified()": {
        "details": "Returns RNSUnified contract."
      },
      "getRoleAdmin(bytes32)": {
        "details": "Returns the admin role that controls `role`. See {grantRole} and {revokeRole}. To change a role's admin, use {_setRoleAdmin}."
      },
      "getRoleMember(bytes32,uint256)": {
        "details": "Returns one of the accounts that have `role`. `index` must be a value between 0 and {getRoleMemberCount}, non-inclusive. Role bearers are not sorted in any particular way, and their ordering may change at any point. WARNING: When using {getRoleMember} and {getRoleMemberCount}, make sure you perform all queries on the same block. See the following https://forum.openzeppelin.com/t/iterating-over-elements-on-enumerableset-in-openzeppelin-contracts/2296[forum post] for more information."
      },
      "getRoleMemberCount(bytes32)": {
        "details": "Returns the number of accounts that have `role`. Can be used together with {getRoleMember} to enumerate all bearers of a role."
      },
      "getTreasury()": {
        "details": "Returns the treasury."
      },
      "grantRole(bytes32,address)": {
        "details": "Grants `role` to `account`. If `account` had not been already granted `role`, emits a {RoleGranted} event. Requirements: - the caller must have ``role``'s admin role. May emit a {RoleGranted} event."
      },
      "hasRole(bytes32,address)": {
        "details": "Returns `true` if `account` has been granted `role`."
      },
      "listNamesForAuction(bytes32,uint256[],uint256[])": {
        "details": "Lists reserved names to sale in a specified auction. Requirements: - The method caller must be contract operator. - Array length are matched and larger than 0. - Only allow to set when the domain is:   + Not in any auction.   + Or, in the current auction.   + Or, this name is not bided. Emits an event {LabelsListed}. Note: If the name is already listed, this method replaces with a new input value.",
        "params": {
          "ids": "The namehashes id of domain names. Eg, namehash('foo.ron') for 'foo.ron'"
        }
      },
      "placeBid(uint256)": {
        "details": "Places a bid for a domain name. Requirements: - The name is listed, or the auction is happening. - The msg.value is larger than the current bid price or the auction starting price. Emits an event {BidPlaced}.",
        "params": {
          "id": "The namehash id of domain name. Eg, namehash('foo.ron') for 'foo.ron'"
        }
      },
      "renounceRole(bytes32,address)": {
        "details": "Revokes `role` from the calling account. Roles are often managed via {grantRole} and {revokeRole}: this function's purpose is to provide a mechanism for accounts to lose their privileges if they are compromised (such as when a trusted device is misplaced). If the calling account had been revoked `role`, emits a {RoleRevoked} event. Requirements: - the caller must be `account`. May emit a {RoleRevoked} event."
      },
      "reserved(uint256)": {
        "details": "Checks whether a domain name is currently reserved for auction or not.",
        "params": {
          "id": "The namehash id of domain name. Eg, namehash('foo.ron') for 'foo.ron'"
        }
      },
      "revokeRole(bytes32,address)": {
        "details": "Revokes `role` from `account`. If `account` had been granted `role`, emits a {RoleRevoked} event. Requirements: - the caller must have ``role``'s admin role. May emit a {RoleRevoked} event."
      },
      "setAuctionEvent(bytes32,(uint256,uint256))": {
        "details": "Updates the auction details. Requirements: - The method caller must be admin. Emits an event {AuctionEventSet}."
      },
      "setBidGapRatio(uint256)": {
        "details": "Sets commission ratio. Value in range [0;100_00] is 0%-100%. Requirements: - The method caller must be admin Emits an event {BidGapRatioUpdated}."
      },
      "setTreasury(address)": {
        "details": "Sets the treasury. Requirements: - The method caller must be admin Emits an event {TreasuryUpdated}."
      },
      "supportsInterface(bytes4)": {
        "details": "See {IERC165-supportsInterface}."
      }
    },
    "events": {
      "AuctionEventSet(bytes32,(uint256,uint256))": {
        "details": "Emitted when an auction is set."
      },
      "BidGapRatioUpdated(uint256)": {
        "details": "Emitted when bid gap ratio is updated."
      },
      "BidPlaced(bytes32,uint256,uint256,address,uint256,address)": {
        "details": "Emitted when a bid is placed for a name."
      },
      "Initialized(uint8)": {
        "details": "Triggered when the contract has been initialized or reinitialized."
      },
      "LabelsListed(bytes32,uint256[],uint256[])": {
        "details": "Emitted when the labels are listed for auction."
      },
      "RoleAdminChanged(bytes32,bytes32,bytes32)": {
        "details": "Emitted when `newAdminRole` is set as ``role``'s admin role, replacing `previousAdminRole` `DEFAULT_ADMIN_ROLE` is the starting admin for all roles, despite {RoleAdminChanged} not being emitted signaling this. _Available since v3.1._"
      },
      "RoleGranted(bytes32,address,address)": {
        "details": "Emitted when `account` is granted `role`. `sender` is the account that originated the contract call, an admin role bearer except when using {AccessControl-_setupRole}."
      },
      "RoleRevoked(bytes32,address,address)": {
        "details": "Emitted when `account` is revoked `role`. `sender` is the account that originated the contract call:   - if using `revokeRole`, it is the admin role bearer   - if using `renounceRole`, it is the role bearer (i.e. `account`)"
      },
      "TreasuryUpdated(address)": {
        "details": "Emitted when the treasury is updated."
      }
    }
  },
  "isFoundry": true,
  "nonce": 182497,
  "numDeployments": 1,
  "storageLayout": {
    "storage": [
      {
        "astId": 50000,
        "contract": "src/RNSAuction.sol:RNSAuction",
        "label": "_initialized",
        "offset": 0,
        "slot": "0",
        "type": "t_uint8"
      },
      {
        "astId": 50003,
        "contract": "src/RNSAuction.sol:RNSAuction",
        "label": "_initializing",
        "offset": 1,
        "slot": "0",
        "type": "t_bool"
      },
      {
        "astId": 48473,
        "contract": "src/RNSAuction.sol:RNSAuction",
        "label": "_roles",
        "offset": 0,
        "slot": "1",
        "type": "t_mapping(t_bytes32,t_struct(RoleData)48468_storage)"
      },
      {
        "astId": 48783,
        "contract": "src/RNSAuction.sol:RNSAuction",
        "label": "_roleMembers",
        "offset": 0,
        "slot": "2",
        "type": "t_mapping(t_bytes32,t_struct(AddressSet)54352_storage)"
      },
      {
        "astId": 58885,
        "contract": "src/RNSAuction.sol:RNSAuction",
        "label": "____gap",
        "offset": 0,
        "slot": "3",
        "type": "t_array(t_uint256)50_storage"
      },
      {
        "astId": 58889,
        "contract": "src/RNSAuction.sol:RNSAuction",
        "label": "_rnsUnified",
        "offset": 0,
        "slot": "53",
        "type": "t_contract(INSUnified)65128"
      },
      {
        "astId": 58895,
        "contract": "src/RNSAuction.sol:RNSAuction",
        "label": "_auctionRange",
        "offset": 0,
        "slot": "54",
        "type": "t_mapping(t_bytes32,t_struct(EventRange)66048_storage)"
      },
      {
        "astId": 58901,
        "contract": "src/RNSAuction.sol:RNSAuction",
        "label": "_domainAuction",
        "offset": 0,
        "slot": "55",
        "type": "t_mapping(t_uint256,t_struct(DomainAuction)64309_storage)"
      },
      {
        "astId": 58904,
        "contract": "src/RNSAuction.sol:RNSAuction",
        "label": "_treasury",
        "offset": 0,
        "slot": "56",
        "type": "t_address_payable"
      },
      {
        "astId": 58907,
        "contract": "src/RNSAuction.sol:RNSAuction",
        "label": "_bidGapRatio",
        "offset": 0,
        "slot": "57",
        "type": "t_uint256"
      },
      {
        "astId": 58911,
        "contract": "src/RNSAuction.sol:RNSAuction",
        "label": "_reserved",
        "offset": 0,
        "slot": "58",
        "type": "t_struct(BitMap)53896_storage"
      }
    ],
    "types": {
      "t_address": {
        "encoding": "inplace",
        "label": "address",
        "numberOfBytes": "20"
      },
      "t_address_payable": {
        "encoding": "inplace",
        "label": "address payable",
        "numberOfBytes": "20"
      },
      "t_array(t_bytes32)dyn_storage": {
        "encoding": "dynamic_array",
        "label": "bytes32[]",
        "numberOfBytes": "32",
        "base": "t_bytes32"
      },
      "t_array(t_uint256)50_storage": {
        "encoding": "inplace",
        "label": "uint256[50]",
        "numberOfBytes": "1600",
        "base": "t_uint256"
      },
      "t_bool": {
        "encoding": "inplace",
        "label": "bool",
        "numberOfBytes": "1"
      },
      "t_bytes32": {
        "encoding": "inplace",
        "label": "bytes32",
        "numberOfBytes": "32"
      },
      "t_contract(INSUnified)65128": {
        "encoding": "inplace",
        "label": "contract INSUnified",
        "numberOfBytes": "20"
      },
      "t_mapping(t_address,t_bool)": {
        "encoding": "mapping",
        "key": "t_address",
        "label": "mapping(address => bool)",
        "numberOfBytes": "32",
        "value": "t_bool"
      },
      "t_mapping(t_bytes32,t_struct(AddressSet)54352_storage)": {
        "encoding": "mapping",
        "key": "t_bytes32",
        "label": "mapping(bytes32 => struct EnumerableSet.AddressSet)",
        "numberOfBytes": "32",
        "value": "t_struct(AddressSet)54352_storage"
      },
      "t_mapping(t_bytes32,t_struct(EventRange)66048_storage)": {
        "encoding": "mapping",
        "key": "t_bytes32",
        "label": "mapping(bytes32 => struct EventRange)",
        "numberOfBytes": "32",
        "value": "t_struct(EventRange)66048_storage"
      },
      "t_mapping(t_bytes32,t_struct(RoleData)48468_storage)": {
        "encoding": "mapping",
        "key": "t_bytes32",
        "label": "mapping(bytes32 => struct AccessControl.RoleData)",
        "numberOfBytes": "32",
        "value": "t_struct(RoleData)48468_storage"
      },
      "t_mapping(t_bytes32,t_uint256)": {
        "encoding": "mapping",
        "key": "t_bytes32",
        "label": "mapping(bytes32 => uint256)",
        "numberOfBytes": "32",
        "value": "t_uint256"
      },
      "t_mapping(t_uint256,t_struct(DomainAuction)64309_storage)": {
        "encoding": "mapping",
        "key": "t_uint256",
        "label": "mapping(uint256 => struct INSAuction.DomainAuction)",
        "numberOfBytes": "32",
        "value": "t_struct(DomainAuction)64309_storage"
      },
      "t_mapping(t_uint256,t_uint256)": {
        "encoding": "mapping",
        "key": "t_uint256",
        "label": "mapping(uint256 => uint256)",
        "numberOfBytes": "32",
        "value": "t_uint256"
      },
      "t_struct(AddressSet)54352_storage": {
        "encoding": "inplace",
        "label": "struct EnumerableSet.AddressSet",
        "numberOfBytes": "64",
        "members": [
          {
            "astId": 54351,
            "contract": "src/RNSAuction.sol:RNSAuction",
            "label": "_inner",
            "offset": 0,
            "slot": "0",
            "type": "t_struct(Set)54037_storage"
          }
        ]
      },
      "t_struct(Bid)64301_storage": {
        "encoding": "inplace",
        "label": "struct INSAuction.Bid",
        "numberOfBytes": "128",
        "members": [
          {
            "astId": 64294,
            "contract": "src/RNSAuction.sol:RNSAuction",
            "label": "bidder",
            "offset": 0,
            "slot": "0",
            "type": "t_address_payable"
          },
          {
            "astId": 64296,
            "contract": "src/RNSAuction.sol:RNSAuction",
            "label": "price",
            "offset": 0,
            "slot": "1",
            "type": "t_uint256"
          },
          {
            "astId": 64298,
            "contract": "src/RNSAuction.sol:RNSAuction",
            "label": "timestamp",
            "offset": 0,
            "slot": "2",
            "type": "t_uint256"
          },
          {
            "astId": 64300,
            "contract": "src/RNSAuction.sol:RNSAuction",
            "label": "claimed",
            "offset": 0,
            "slot": "3",
            "type": "t_bool"
          }
        ]
      },
      "t_struct(BitMap)53896_storage": {
        "encoding": "inplace",
        "label": "struct BitMaps.BitMap",
        "numberOfBytes": "32",
        "members": [
          {
            "astId": 53895,
            "contract": "src/RNSAuction.sol:RNSAuction",
            "label": "_data",
            "offset": 0,
            "slot": "0",
            "type": "t_mapping(t_uint256,t_uint256)"
          }
        ]
      },
      "t_struct(DomainAuction)64309_storage": {
        "encoding": "inplace",
        "label": "struct INSAuction.DomainAuction",
        "numberOfBytes": "192",
        "members": [
          {
            "astId": 64303,
            "contract": "src/RNSAuction.sol:RNSAuction",
            "label": "auctionId",
            "offset": 0,
            "slot": "0",
            "type": "t_bytes32"
          },
          {
            "astId": 64305,
            "contract": "src/RNSAuction.sol:RNSAuction",
            "label": "startingPrice",
            "offset": 0,
            "slot": "1",
            "type": "t_uint256"
          },
          {
            "astId": 64308,
            "contract": "src/RNSAuction.sol:RNSAuction",
            "label": "bid",
            "offset": 0,
            "slot": "2",
            "type": "t_struct(Bid)64301_storage"
          }
        ]
      },
      "t_struct(EventRange)66048_storage": {
        "encoding": "inplace",
        "label": "struct EventRange",
        "numberOfBytes": "64",
        "members": [
          {
            "astId": 66045,
            "contract": "src/RNSAuction.sol:RNSAuction",
            "label": "startedAt",
            "offset": 0,
            "slot": "0",
            "type": "t_uint256"
          },
          {
            "astId": 66047,
            "contract": "src/RNSAuction.sol:RNSAuction",
            "label": "endedAt",
            "offset": 0,
            "slot": "1",
            "type": "t_uint256"
          }
        ]
      },
      "t_struct(RoleData)48468_storage": {
        "encoding": "inplace",
        "label": "struct AccessControl.RoleData",
        "numberOfBytes": "64",
        "members": [
          {
            "astId": 48465,
            "contract": "src/RNSAuction.sol:RNSAuction",
            "label": "members",
            "offset": 0,
            "slot": "0",
            "type": "t_mapping(t_address,t_bool)"
          },
          {
            "astId": 48467,
            "contract": "src/RNSAuction.sol:RNSAuction",
            "label": "adminRole",
            "offset": 0,
            "slot": "1",
            "type": "t_bytes32"
          }
        ]
      },
      "t_struct(Set)54037_storage": {
        "encoding": "inplace",
        "label": "struct EnumerableSet.Set",
        "numberOfBytes": "64",
        "members": [
          {
            "astId": 54032,
            "contract": "src/RNSAuction.sol:RNSAuction",
            "label": "_values",
            "offset": 0,
            "slot": "0",
            "type": "t_array(t_bytes32)dyn_storage"
          },
          {
            "astId": 54036,
            "contract": "src/RNSAuction.sol:RNSAuction",
            "label": "_indexes",
            "offset": 0,
            "slot": "1",
            "type": "t_mapping(t_bytes32,t_uint256)"
          }
        ]
      },
      "t_uint256": {
        "encoding": "inplace",
        "label": "uint256",
        "numberOfBytes": "32"
      },
      "t_uint8": {
        "encoding": "inplace",
        "label": "uint8",
        "numberOfBytes": "1"
      }
    }
  },
  "timestamp": 1697372891,
  "userdoc": {
    "version": 1,
    "kind": "user",
    "methods": {
      "createAuctionEvent((uint256,uint256))": {
        "notice": "Please use the method `setAuctionNames` to list all the reserved names."
      }
    }
  }
}