{
  "abi": [
    {
      "inputs": [],
      "stateMutability": "payable",
      "type": "constructor"
    },
    {
      "inputs": [],
      "name": "AlreadyBidding",
      "type": "error"
    },
    {
      "inputs": [],
      "name": "ContractBidderIsForbidden",
      "type": "error"
    },
    {
      "inputs": [],
      "name": "EventIsNotCreatedOrAlreadyStarted",
      "type": "error"
    },
    {
      "inputs": [],
      "name": "InsufficientAmount",
      "type": "error"
    },
    {
      "inputs": [],
      "name": "InvalidArrayLength",
      "type": "error"
    },
    {
      "inputs": [],
      "name": "InvalidEventRange",
      "type": "error"
    },
    {
      "inputs": [],
      "name": "NameNotReserved",
      "type": "error"
    },
    {
      "inputs": [],
      "name": "NoOneBidded",
      "type": "error"
    },
    {
      "inputs": [],
      "name": "NotYetEnded",
      "type": "error"
    },
    {
      "inputs": [],
      "name": "NullAssignment",
      "type": "error"
    },
    {
      "inputs": [],
      "name": "QueryIsNotInPeriod",
      "type": "error"
    },
    {
      "inputs": [],
      "name": "RatioIsTooLarge",
      "type": "error"
    },
    {
      "anonymous": false,
      "inputs": [
        {
          "indexed": true,
          "internalType": "bytes32",
          "name": "auctionId",
          "type": "bytes32"
        },
        {
          "components": [
            {
              "internalType": "uint256",
              "name": "startedAt",
              "type": "uint256"
            },
            {
              "internalType": "uint256",
              "name": "endedAt",
              "type": "uint256"
            }
          ],
          "indexed": false,
          "internalType": "struct EventRange",
          "name": "range",
          "type": "tuple"
        }
      ],
      "name": "AuctionEventSet",
      "type": "event"
    },
    {
      "anonymous": false,
      "inputs": [
        {
          "indexed": false,
          "internalType": "uint256",
          "name": "ratio",
          "type": "uint256"
        }
      ],
      "name": "BidGapRatioUpdated",
      "type": "event"
    },
    {
      "anonymous": false,
      "inputs": [
        {
          "indexed": true,
          "internalType": "bytes32",
          "name": "auctionId",
          "type": "bytes32"
        },
        {
          "indexed": true,
          "internalType": "uint256",
          "name": "id",
          "type": "uint256"
        },
        {
          "indexed": false,
          "internalType": "uint256",
          "name": "price",
          "type": "uint256"
        },
        {
          "indexed": false,
          "internalType": "address payable",
          "name": "bidder",
          "type": "address"
        },
        {
          "indexed": false,
          "internalType": "uint256",
          "name": "previousPrice",
          "type": "uint256"
        },
        {
          "indexed": false,
          "internalType": "address",
          "name": "previousBidder",
          "type": "address"
        }
      ],
      "name": "BidPlaced",
      "type": "event"
    },
    {
      "anonymous": false,
      "inputs": [
        {
          "indexed": false,
          "internalType": "uint8",
          "name": "version",
          "type": "uint8"
        }
      ],
      "name": "Initialized",
      "type": "event"
    },
    {
      "anonymous": false,
      "inputs": [
        {
          "indexed": true,
          "internalType": "bytes32",
          "name": "auctionId",
          "type": "bytes32"
        },
        {
          "indexed": false,
          "internalType": "uint256[]",
          "name": "ids",
          "type": "uint256[]"
        },
        {
          "indexed": false,
          "internalType": "uint256[]",
          "name": "startingPrices",
          "type": "uint256[]"
        }
      ],
      "name": "LabelsListed",
      "type": "event"
    },
    {
      "anonymous": false,
      "inputs": [
        {
          "indexed": true,
          "internalType": "bytes32",
          "name": "role",
          "type": "bytes32"
        },
        {
          "indexed": true,
          "internalType": "bytes32",
          "name": "previousAdminRole",
          "type": "bytes32"
        },
        {
          "indexed": true,
          "internalType": "bytes32",
          "name": "newAdminRole",
          "type": "bytes32"
        }
      ],
      "name": "RoleAdminChanged",
      "type": "event"
    },
    {
      "anonymous": false,
      "inputs": [
        {
          "indexed": true,
          "internalType": "bytes32",
          "name": "role",
          "type": "bytes32"
        },
        {
          "indexed": true,
          "internalType": "address",
          "name": "account",
          "type": "address"
        },
        {
          "indexed": true,
          "internalType": "address",
          "name": "sender",
          "type": "address"
        }
      ],
      "name": "RoleGranted",
      "type": "event"
    },
    {
      "anonymous": false,
      "inputs": [
        {
          "indexed": true,
          "internalType": "bytes32",
          "name": "role",
          "type": "bytes32"
        },
        {
          "indexed": true,
          "internalType": "address",
          "name": "account",
          "type": "address"
        },
        {
          "indexed": true,
          "internalType": "address",
          "name": "sender",
          "type": "address"
        }
      ],
      "name": "RoleRevoked",
      "type": "event"
    },
    {
      "anonymous": false,
      "inputs": [
        {
          "indexed": true,
          "internalType": "address",
          "name": "addr",
          "type": "address"
        }
      ],
      "name": "TreasuryUpdated",
      "type": "event"
    },
    {
      "inputs": [],
      "name": "DEFAULT_ADMIN_ROLE",
      "outputs": [
        {
          "internalType": "bytes32",
          "name": "",
          "type": "bytes32"
        }
      ],
      "stateMutability": "view",
      "type": "function"
    },
    {
      "inputs": [],
      "name": "DOMAIN_EXPIRY_DURATION",
      "outputs": [
        {
          "internalType": "uint64",
          "name": "",
          "type": "uint64"
        }
      ],
      "stateMutability": "view",
      "type": "function"
    },
    {
      "inputs": [],
      "name": "MAX_AUCTION_DOMAIN_EXPIRY",
      "outputs": [
        {
          "internalType": "uint64",
          "name": "",
          "type": "uint64"
        }
      ],
      "stateMutability": "view",
      "type": "function"
    },
    {
      "inputs": [],
      "name": "MAX_EXPIRY",
      "outputs": [
        {
          "internalType": "uint64",
          "name": "",
          "type": "uint64"
        }
      ],
      "stateMutability": "view",
      "type": "function"
    },
    {
      "inputs": [],
      "name": "MAX_PERCENTAGE",
      "outputs": [
        {
          "internalType": "uint256",
          "name": "",
          "type": "uint256"
        }
      ],
      "stateMutability": "view",
      "type": "function"
    },
    {
      "inputs": [],
      "name": "OPERATOR_ROLE",
      "outputs": [
        {
          "internalType": "bytes32",
          "name": "",
          "type": "bytes32"
        }
      ],
      "stateMutability": "view",
      "type": "function"
    },
    {
      "inputs": [
        {
          "internalType": "uint256[]",
          "name": "ids",
          "type": "uint256[]"
        }
      ],
      "name": "bulkClaimBidNames",
      "outputs": [
        {
          "internalType": "uint256[]",
          "name": "claimedAts",
          "type": "uint256[]"
        }
      ],
      "stateMutability": "nonpayable",
      "type": "function"
    },
    {
      "inputs": [
        {
          "internalType": "string[]",
          "name": "labels",
          "type": "string[]"
        }
      ],
      "name": "bulkRegister",
      "outputs": [
        {
          "internalType": "uint256[]",
          "name": "ids",
          "type": "uint256[]"
        }
      ],
      "stateMutability": "nonpayable",
      "type": "function"
    },
    {
      "inputs": [
        {
          "components": [
            {
              "internalType": "uint256",
              "name": "startedAt",
              "type": "uint256"
            },
            {
              "internalType": "uint256",
              "name": "endedAt",
              "type": "uint256"
            }
          ],
          "internalType": "struct EventRange",
          "name": "range",
          "type": "tuple"
        }
      ],
      "name": "createAuctionEvent",
      "outputs": [
        {
          "internalType": "bytes32",
          "name": "auctionId",
          "type": "bytes32"
        }
      ],
      "stateMutability": "nonpayable",
      "type": "function"
    },
    {
      "inputs": [
        {
          "internalType": "uint256",
          "name": "id",
          "type": "uint256"
        }
      ],
      "name": "getAuction",
      "outputs": [
        {
          "components": [
            {
              "internalType": "bytes32",
              "name": "auctionId",
              "type": "bytes32"
            },
            {
              "internalType": "uint256",
              "name": "startingPrice",
              "type": "uint256"
            },
            {
              "components": [
                {
                  "internalType": "address payable",
                  "name": "bidder",
                  "type": "address"
                },
                {
                  "internalType": "uint256",
                  "name": "price",
                  "type": "uint256"
                },
                {
                  "internalType": "uint256",
                  "name": "timestamp",
                  "type": "uint256"
                },
                {
                  "internalType": "uint256",
                  "name": "claimedAt",
                  "type": "uint256"
                }
              ],
              "internalType": "struct INSAuction.Bid",
              "name": "bid",
              "type": "tuple"
            }
          ],
          "internalType": "struct INSAuction.DomainAuction",
          "name": "auction",
          "type": "tuple"
        },
        {
          "internalType": "uint256",
          "name": "beatPrice",
          "type": "uint256"
        }
      ],
      "stateMutability": "view",
      "type": "function"
    },
    {
      "inputs": [
        {
          "internalType": "bytes32",
          "name": "auctionId",
          "type": "bytes32"
        }
      ],
      "name": "getAuctionEvent",
      "outputs": [
        {
          "components": [
            {
              "internalType": "uint256",
              "name": "startedAt",
              "type": "uint256"
            },
            {
              "internalType": "uint256",
              "name": "endedAt",
              "type": "uint256"
            }
          ],
          "internalType": "struct EventRange",
          "name": "",
          "type": "tuple"
        }
      ],
      "stateMutability": "view",
      "type": "function"
    },
    {
      "inputs": [],
      "name": "getBidGapRatio",
      "outputs": [
        {
          "internalType": "uint256",
          "name": "",
          "type": "uint256"
        }
      ],
      "stateMutability": "view",
      "type": "function"
    },
    {
      "inputs": [],
      "name": "getRNSUnified",
      "outputs": [
        {
          "internalType": "contract INSUnified",
          "name": "",
          "type": "address"
        }
      ],
      "stateMutability": "view",
      "type": "function"
    },
    {
      "inputs": [
        {
          "internalType": "bytes32",
          "name": "role",
          "type": "bytes32"
        }
      ],
      "name": "getRoleAdmin",
      "outputs": [
        {
          "internalType": "bytes32",
          "name": "",
          "type": "bytes32"
        }
      ],
      "stateMutability": "view",
      "type": "function"
    },
    {
      "inputs": [
        {
          "internalType": "bytes32",
          "name": "role",
          "type": "bytes32"
        },
        {
          "internalType": "uint256",
          "name": "index",
          "type": "uint256"
        }
      ],
      "name": "getRoleMember",
      "outputs": [
        {
          "internalType": "address",
          "name": "",
          "type": "address"
        }
      ],
      "stateMutability": "view",
      "type": "function"
    },
    {
      "inputs": [
        {
          "internalType": "bytes32",
          "name": "role",
          "type": "bytes32"
        }
      ],
      "name": "getRoleMemberCount",
      "outputs": [
        {
          "internalType": "uint256",
          "name": "",
          "type": "uint256"
        }
      ],
      "stateMutability": "view",
      "type": "function"
    },
    {
      "inputs": [],
      "name": "getTreasury",
      "outputs": [
        {
          "internalType": "address",
          "name": "",
          "type": "address"
        }
      ],
      "stateMutability": "view",
      "type": "function"
    },
    {
      "inputs": [
        {
          "internalType": "bytes32",
          "name": "role",
          "type": "bytes32"
        },
        {
          "internalType": "address",
          "name": "account",
          "type": "address"
        }
      ],
      "name": "grantRole",
      "outputs": [],
      "stateMutability": "nonpayable",
      "type": "function"
    },
    {
      "inputs": [
        {
          "internalType": "bytes32",
          "name": "role",
          "type": "bytes32"
        },
        {
          "internalType": "address",
          "name": "account",
          "type": "address"
        }
      ],
      "name": "hasRole",
      "outputs": [
        {
          "internalType": "bool",
          "name": "",
          "type": "bool"
        }
      ],
      "stateMutability": "view",
      "type": "function"
    },
    {
      "inputs": [
        {
          "internalType": "address",
          "name": "admin",
          "type": "address"
        },
        {
          "internalType": "address[]",
          "name": "operators",
          "type": "address[]"
        },
        {
          "internalType": "contract INSUnified",
          "name": "rnsUnified",
          "type": "address"
        },
        {
          "internalType": "address payable",
          "name": "treasury",
          "type": "address"
        },
        {
          "internalType": "uint256",
          "name": "bidGapRatio",
          "type": "uint256"
        }
      ],
      "name": "initialize",
      "outputs": [],
      "stateMutability": "nonpayable",
      "type": "function"
    },
    {
      "inputs": [
        {
          "internalType": "bytes32",
          "name": "auctionId",
          "type": "bytes32"
        },
        {
          "internalType": "uint256[]",
          "name": "ids",
          "type": "uint256[]"
        },
        {
          "internalType": "uint256[]",
          "name": "startingPrices",
          "type": "uint256[]"
        }
      ],
      "name": "listNamesForAuction",
      "outputs": [],
      "stateMutability": "nonpayable",
      "type": "function"
    },
    {
      "inputs": [
        {
          "internalType": "uint256",
          "name": "id",
          "type": "uint256"
        }
      ],
      "name": "placeBid",
      "outputs": [],
      "stateMutability": "payable",
      "type": "function"
    },
    {
      "inputs": [
        {
          "internalType": "bytes32",
          "name": "role",
          "type": "bytes32"
        },
        {
          "internalType": "address",
          "name": "account",
          "type": "address"
        }
      ],
      "name": "renounceRole",
      "outputs": [],
      "stateMutability": "nonpayable",
      "type": "function"
    },
    {
      "inputs": [
        {
          "internalType": "uint256",
          "name": "id",
          "type": "uint256"
        }
      ],
      "name": "reserved",
      "outputs": [
        {
          "internalType": "bool",
          "name": "",
          "type": "bool"
        }
      ],
      "stateMutability": "view",
      "type": "function"
    },
    {
      "inputs": [
        {
          "internalType": "bytes32",
          "name": "role",
          "type": "bytes32"
        },
        {
          "internalType": "address",
          "name": "account",
          "type": "address"
        }
      ],
      "name": "revokeRole",
      "outputs": [],
      "stateMutability": "nonpayable",
      "type": "function"
    },
    {
      "inputs": [
        {
          "internalType": "bytes32",
          "name": "auctionId",
          "type": "bytes32"
        },
        {
          "components": [
            {
              "internalType": "uint256",
              "name": "startedAt",
              "type": "uint256"
            },
            {
              "internalType": "uint256",
              "name": "endedAt",
              "type": "uint256"
            }
          ],
          "internalType": "struct EventRange",
          "name": "range",
          "type": "tuple"
        }
      ],
      "name": "setAuctionEvent",
      "outputs": [],
      "stateMutability": "nonpayable",
      "type": "function"
    },
    {
      "inputs": [
        {
          "internalType": "uint256",
          "name": "ratio",
          "type": "uint256"
        }
      ],
      "name": "setBidGapRatio",
      "outputs": [],
      "stateMutability": "nonpayable",
      "type": "function"
    },
    {
      "inputs": [
        {
          "internalType": "address payable",
          "name": "addr",
          "type": "address"
        }
      ],
      "name": "setTreasury",
      "outputs": [],
      "stateMutability": "nonpayable",
      "type": "function"
    },
    {
      "inputs": [
        {
          "internalType": "bytes4",
          "name": "interfaceId",
          "type": "bytes4"
        }
      ],
      "name": "supportsInterface",
      "outputs": [
        {
          "internalType": "bool",
          "name": "",
          "type": "bool"
        }
      ],
      "stateMutability": "view",
      "type": "function"
    }
  ],
  "address": "0xc1A64532aB6e3EC0E01f2064A9075311B483Acb9",
  "args": "0x",
  "blockNumber": 21474288,
  "bytecode": "0x608060405261000c610011565b6100d0565b600054610100900460ff161561007d5760405162461bcd60e51b815260206004820152602760248201527f496e697469616c697a61626c653a20636f6e747261637420697320696e697469604482015266616c697a696e6760c81b606482015260840160405180910390fd5b60005460ff908116146100ce576000805460ff191660ff9081179091556040519081527f7f26b83ff96e1f2b6a682f133852f6798a09c465da95921460cefb38474024989060200160405180910390a15b565b612443806100df6000396000f3fe6080604052600436106101c25760003560e01c8063791a26b4116100f7578063a282d4ae11610095578063db5e1ec611610064578063db5e1ec6146105b4578063ec14cf37146105d4578063f0f44260146105f4578063f5b541a61461061457600080fd5b8063a282d4ae14610544578063b967169014610559578063ca15c87314610574578063d547741f1461059457600080fd5b80639010d07c116100d15780639010d07c146104dc57806391d14854146104fc5780639979ef451461051c578063a217fddf1461052f57600080fd5b8063791a26b41461047e57806381bec1b31461049e5780638c843314146104be57600080fd5b80633b19e84a1161016457806360223b441161013e57806360223b44146103a15780636e7d60f2146103c1578063777b0a18146103ee57806378bd79351461040e57600080fd5b80633b19e84a146103395780634c255c971461036b57806353f9195e1461038157600080fd5b806319a3ee40116101a057806319a3ee40146102a0578063248a9ca3146102b85780632f2ff15d146102f757806336568abe1461031957600080fd5b806301ffc9a7146101c75780630afe1bb3146101fc57806315a291621461022c575b600080fd5b3480156101d357600080fd5b506101e76101e2366004611cf6565b610636565b60405190151581526020015b60405180910390f35b34801561020857600080fd5b506102146305a39a8081565b6040516001600160401b0390911681526020016101f3565b34801561023857600080fd5b50610285610247366004611d20565b604080518082019091526000808252602082015250600090815260366020908152604091829020825180840190935280548352600101549082015290565b604080518251815260209283015192810192909252016101f3565b3480156102ac57600080fd5b506102146301e1338081565b3480156102c457600080fd5b506102e96102d3366004611d20565b6000908152600160208190526040909120015490565b6040519081526020016101f3565b34801561030357600080fd5b50610317610312366004611d4e565b610661565b005b34801561032557600080fd5b50610317610334366004611d4e565b61068c565b34801561034557600080fd5b506038546001600160a01b03165b6040516001600160a01b0390911681526020016101f3565b34801561037757600080fd5b506102e961271081565b34801561038d57600080fd5b506101e761039c366004611d20565b61070f565b3480156103ad57600080fd5b506103176103bc366004611d20565b610732565b3480156103cd57600080fd5b506103e16103dc366004611dc9565b610746565b6040516101f39190611e0a565b3480156103fa57600080fd5b50610317610409366004611e4e565b610a35565b34801561041a57600080fd5b5061042e610429366004611d20565b610b98565b6040805183518152602080850151818301529382015180516001600160a01b0316828401529384015160608083019190915291840151608082015292015160a083015260c082015260e0016101f3565b34801561048a57600080fd5b506103e1610499366004611dc9565b610c4d565b3480156104aa57600080fd5b506103176104b9366004611edf565b610e08565b3480156104ca57600080fd5b506035546001600160a01b0316610353565b3480156104e857600080fd5b506103536104f7366004611f0c565b610e85565b34801561050857600080fd5b506101e7610517366004611d4e565b610ea4565b61031761052a366004611d20565b610ecf565b34801561053b57600080fd5b506102e9600081565b34801561055057600080fd5b506039546102e9565b34801561056557600080fd5b506102146001600160401b0381565b34801561058057600080fd5b506102e961058f366004611d20565b611081565b3480156105a057600080fd5b506103176105af366004611d4e565b611098565b3480156105c057600080fd5b506102e96105cf366004611f2e565b6110be565b3480156105e057600080fd5b506103176105ef366004611f4a565b61115b565b34801561060057600080fd5b5061031761060f366004611fce565b6112f8565b34801561062057600080fd5b506102e96000805160206123ee83398151915281565b60006001600160e01b03198216635a05180f60e01b148061065b575061065b8261130c565b92915050565b6000828152600160208190526040909120015461067d81611341565b610687838361134e565b505050565b6001600160a01b03811633146107015760405162461bcd60e51b815260206004820152602f60248201527f416363657373436f6e74726f6c3a2063616e206f6e6c792072656e6f756e636560448201526e103937b632b9903337b91039b2b63360891b60648201526084015b60405180910390fd5b61070b8282611370565b5050565b600881901c6000908152603a6020526040812054600160ff84161b16151561065b565b600061073d81611341565b61070b82611392565b6060600080610768604051806040016040528060008152602001600081525090565b610770611ca1565b85806001600160401b0381111561078957610789611feb565b6040519080825280602002602001820160405280156107b2578160200160208202803683370190505b506035549096506001600160a01b031660006107da426301e133806001600160401b036113f0565b905060005b83811015610a11578a8a828181106107f9576107f9612001565b60209081029290920135600081815260378452604080822081516060808201845282548252600180840154838a0152845160808101865260028501546001600160a01b031681526003850154818b0152600485015481870152600590940154848301528285019384528251865260368952848620855180870190965280548652015497840197909752905190950151929c5099509297509091039050610a095760208601514210156108be576040516372d1250d60e01b815260040160405180910390fd5b8460400151604001516000036108e7576040516323bbcc0160e01b815260040160405180910390fd5b6040850151602001516108fa908861202d565b60405163fc284d1160e01b8152600481018a90526001600160401b03841660248201529097506001600160a01b0384169063fc284d1190604401600060405180830381600087803b15801561094e57600080fd5b505af1158015610962573d6000803e3d6000fd5b505050506040858101515190516323b872dd60e01b81523060048201526001600160a01b039182166024820152604481018a9052908416906323b872dd90606401600060405180830381600087803b1580156109bd57600080fd5b505af11580156109d1573d6000803e3d6000fd5b50505050428982815181106109e8576109e8612001565b602090810291909101810182905260008a8152603790915260409020600501555b6001016107df565b50603854610a28906001600160a01b031687611426565b5050505050505092915050565b6000805160206123ee833981519152610a4d81611341565b85610a578161148b565b84801580610a655750808414155b15610a8357604051634ec4810560e11b815260040160405180910390fd5b6000806000805b84811015610b4c578a8a82818110610aa457610aa4612001565b905060200201359350610ab68461070f565b610ad357604051637d6fe8d760e11b815260040160405180910390fd5b6000848152603760205260409020805493509150821580610af357508b83145b80610b0057506004820154155b610b1d57604051631dc8374160e01b815260040160405180910390fd5b8b8255888882818110610b3257610b32612001565b905060200201358260010181905550806001019050610a8a565b508a7f9a845a1c4235343a450f5e39d4179b7e2a6c9586c02bff45d956717f4a19dd948b8b8b8b604051610b839493929190612072565b60405180910390a25050505050505050505050565b610ba0611ca1565b5060008181526037602090815260408083208151606080820184528254825260018084015483870152845160808101865260028501546001600160a01b03168152600385015481880152600485015481870152600590940154918401919091528184019290925280518351808501855286815285018690528552603684528285208351808501909452805484529091015492820192909252909190610c4583826114d8565b915050915091565b60606000805160206123ee833981519152610c6781611341565b826000819003610c8a57604051634ec4810560e11b815260040160405180910390fd5b806001600160401b03811115610ca257610ca2611feb565b604051908082528060200260200182016040528015610ccb578160200160208202803683370190505b506035549093506001600160a01b03167fba69923fa107dbf5a25a073a10b7c9216ae39fbadc95dc891d460d9ae315d6886301e1338060005b84811015610dfc57836001600160a01b0316630570891f848b8b85818110610d2e57610d2e612001565b9050602002810190610d4091906120a4565b600030886040518763ffffffff1660e01b8152600401610d65969594939291906120ea565b60408051808303816000875af1158015610d83573d6000803e3d6000fd5b505050506040513d601f19601f82011682018060405250810190610da79190612146565b9050878281518110610dbb57610dbb612001565b602002602001018181525050610df4878281518110610ddc57610ddc612001565b6020026020010151603a61153090919063ffffffff16565b600101610d04565b50505050505092915050565b6000610e1381611341565b81610e1d81611559565b83610e278161148b565b60008581526036602090815260409091208535815590850135600182015550847fd8960c7efc6464cdd8dd07f4dc149b0a33bf7f60bf357838722d5b80f988fb1b85604051610e769190612180565b60405180910390a25050505050565b6000828152600260205260408120610e9d908361159e565b9392505050565b60009182526001602090815260408084206001600160a01b0393909316845291905290205460ff1690565b60008181526037602090815260408083208151606080820184528254825260018084015483870152845160808101865260028501546001600160a01b031681526003850154818801526004850154818701526005909401549184019190915281840192909252805185526036845282852083518085019094528054845290910154928201929092529091610f6383836114d8565b9050610f6e826115aa565b610f8b576040516348c6117b60e11b815260040160405180910390fd5b80341015610fac57604051632ca2f52b60e11b815260040160405180910390fd5b33328114610fcc576040516259ca3d60e61b815260040160405180910390fd5b604084810151805160209182015160008981526037845284902034600382018190556002820180546001600160a01b0319166001600160a01b038981169182178355426004909501949094558b5188519384529683015295810183905290831660608201529193909290918991907f5934294f4724ea4bb71fee8511b9ccb8dd6d2249ac4d120a81ccfcbbd0ad905f9060800160405180910390a38115611077576110778383611426565b5050505050505050565b600081815260026020526040812061065b906115c5565b600082815260016020819052604090912001546110b481611341565b6106878383611370565b6000806110ca81611341565b826110d481611559565b33846040516020016110e7929190612197565b60408051808303601f1901815291815281516020928301206000818152603684529190912086358155918601356001830155935050827fd8960c7efc6464cdd8dd07f4dc149b0a33bf7f60bf357838722d5b80f988fb1b8560405161114c9190612180565b60405180910390a25050919050565b600054610100900460ff161580801561117b5750600054600160ff909116105b806111955750303b158015611195575060005460ff166001145b6111f85760405162461bcd60e51b815260206004820152602e60248201527f496e697469616c697a61626c653a20636f6e747261637420697320616c72656160448201526d191e481a5b9a5d1a585b1a5e995960921b60648201526084016106f8565b6000805460ff19166001179055801561121b576000805461ff0019166101001790555b611224836115cf565b61122d82611392565b611238600088611640565b846000805160206123ee83398151915260005b8281101561128b57611283828a8a8481811061126957611269612001565b905060200201602081019061127e9190611fce565b611640565b60010161124b565b5050603580546001600160a01b0319166001600160a01b0387161790555080156112ef576000805461ff0019169055604051600181527f7f26b83ff96e1f2b6a682f133852f6798a09c465da95921460cefb38474024989060200160405180910390a15b50505050505050565b600061130381611341565b61070b826115cf565b60006001600160e01b03198216637965db0b60e01b148061065b57506301ffc9a760e01b6001600160e01b031983161461065b565b61134b813361164a565b50565b611358828261167d565b600082815260026020526040902061068790826116e8565b61137a82826116fd565b60008281526002602052604090206106879082611764565b6127108111156113b55760405163220f1a1560e01b815260040160405180910390fd5b60398190556040518181527f846b33625d74f443855144a5f2aef4dda303cda3dfb1c704cb58ab70671823429060200160405180910390a150565b6000818411806113ff57508183115b1561140b575080610e9d565b6114158484611779565b905081811115610e9d575092915050565b6000611432838361178d565b9050806106875761144b836001600160a01b0316611803565b61145483611819565b6040516020016114659291906121e2565b60408051601f198184030181529082905262461bcd60e51b82526106f891600401612260565b60008181526036602090815260409182902082518084019093528054835260010154908201526114bb9051421090565b61134b5760405163028e4e9760e51b815260040160405180910390fd5b60006114f08360200151846040015160200151611830565b905082604001516020015160001415801561150e5750602082015142105b1561065b576115268360200151603954612710611846565b610e9d908261202d565b600881901c600090815260209290925260409091208054600160ff9093169290921b9091179055565b6020810135813511158015611581575061158161157b36839003830183612293565b51421090565b61134b576040516302ef0c7360e21b815260040160405180910390fd5b6000610e9d8383611930565b60004282600001511115801561065b57505060200151421090565b600061065b825490565b6001600160a01b0381166115f6576040516362daafb160e11b815260040160405180910390fd5b603880546001600160a01b0319166001600160a01b0383169081179091556040517f7dae230f18360d76a040c81f050aa14eb9d6dc7901b20fc5d855e2a20fe814d190600090a250565b61070b828261134e565b6116548282610ea4565b61070b5761166181611803565b61166c83602061195a565b6040516020016114659291906122ef565b6116878282610ea4565b61070b5760008281526001602081815260408084206001600160a01b0386168086529252808420805460ff19169093179092559051339285917f2f8788117e7eff1d82e926ec794901d17c78024a50270940304540a733656f0d9190a45050565b6000610e9d836001600160a01b038416611af5565b6117078282610ea4565b1561070b5760008281526001602090815260408083206001600160a01b0385168085529252808320805460ff1916905551339285917ff6391f5c32d9c69d2a47ea670b442974b53935d1edc7fd64eb21e047a839171b9190a45050565b6000610e9d836001600160a01b038416611b44565b8181018281101561065b575060001961065b565b604080516000808252602082019092526001600160a01b0384169083906040516117b79190612364565b60006040518083038185875af1925050503d80600081146117f4576040519150601f19603f3d011682016040523d82523d6000602084013e6117f9565b606091505b5090949350505050565b606061065b6001600160a01b038316601461195a565b606061065b8261182884611c37565b60010161195a565b600081831161183f5781610e9d565b5090919050565b60008080600019858709858702925082811083820303915050806000036118805783828161187657611876612380565b0492505050610e9d565b8084116118c75760405162461bcd60e51b81526020600482015260156024820152744d6174683a206d756c446976206f766572666c6f7760581b60448201526064016106f8565b60008486880960026001871981018816978890046003810283188082028403028082028403028082028403028082028403028082028403029081029092039091026000889003889004909101858311909403939093029303949094049190911702949350505050565b600082600001828154811061194757611947612001565b9060005260206000200154905092915050565b60606000611969836002612396565b61197490600261202d565b6001600160401b0381111561198b5761198b611feb565b6040519080825280601f01601f1916602001820160405280156119b5576020820181803683370190505b509050600360fc1b816000815181106119d0576119d0612001565b60200101906001600160f81b031916908160001a905350600f60fb1b816001815181106119ff576119ff612001565b60200101906001600160f81b031916908160001a9053506000611a23846002612396565b611a2e90600161202d565b90505b6001811115611aa6576f181899199a1a9b1b9c1cb0b131b232b360811b85600f1660108110611a6257611a62612001565b1a60f81b828281518110611a7857611a78612001565b60200101906001600160f81b031916908160001a90535060049490941c93611a9f816123ad565b9050611a31565b508315610e9d5760405162461bcd60e51b815260206004820181905260248201527f537472696e67733a20686578206c656e67746820696e73756666696369656e7460448201526064016106f8565b6000818152600183016020526040812054611b3c5750815460018181018455600084815260208082209093018490558454848252828601909352604090209190915561065b565b50600061065b565b60008181526001830160205260408120548015611c2d576000611b686001836123c4565b8554909150600090611b7c906001906123c4565b9050818114611be1576000866000018281548110611b9c57611b9c612001565b9060005260206000200154905080876000018481548110611bbf57611bbf612001565b6000918252602080832090910192909255918252600188019052604090208390555b8554869080611bf257611bf26123d7565b60019003818190600052602060002001600090559055856001016000868152602001908152602001600020600090556001935050505061065b565b600091505061065b565b600080608083901c15611c4f5760809290921c916010015b604083901c15611c645760409290921c916008015b602083901c15611c795760209290921c916004015b601083901c15611c8e5760109290921c916002015b600883901c1561065b5760010192915050565b60405180606001604052806000801916815260200160008152602001611cf1604051806080016040528060006001600160a01b031681526020016000815260200160008152602001600081525090565b905290565b600060208284031215611d0857600080fd5b81356001600160e01b031981168114610e9d57600080fd5b600060208284031215611d3257600080fd5b5035919050565b6001600160a01b038116811461134b57600080fd5b60008060408385031215611d6157600080fd5b823591506020830135611d7381611d39565b809150509250929050565b60008083601f840112611d9057600080fd5b5081356001600160401b03811115611da757600080fd5b6020830191508360208260051b8501011115611dc257600080fd5b9250929050565b60008060208385031215611ddc57600080fd5b82356001600160401b03811115611df257600080fd5b611dfe85828601611d7e565b90969095509350505050565b6020808252825182820181905260009190848201906040850190845b81811015611e4257835183529284019291840191600101611e26565b50909695505050505050565b600080600080600060608688031215611e6657600080fd5b8535945060208601356001600160401b0380821115611e8457600080fd5b611e9089838a01611d7e565b90965094506040880135915080821115611ea957600080fd5b50611eb688828901611d7e565b969995985093965092949392505050565b600060408284031215611ed957600080fd5b50919050565b60008060608385031215611ef257600080fd5b82359150611f038460208501611ec7565b90509250929050565b60008060408385031215611f1f57600080fd5b50508035926020909101359150565b600060408284031215611f4057600080fd5b610e9d8383611ec7565b60008060008060008060a08789031215611f6357600080fd5b8635611f6e81611d39565b955060208701356001600160401b03811115611f8957600080fd5b611f9589828a01611d7e565b9096509450506040870135611fa981611d39565b92506060870135611fb981611d39565b80925050608087013590509295509295509295565b600060208284031215611fe057600080fd5b8135610e9d81611d39565b634e487b7160e01b600052604160045260246000fd5b634e487b7160e01b600052603260045260246000fd5b634e487b7160e01b600052601160045260246000fd5b8082018082111561065b5761065b612017565b81835260006001600160fb1b0383111561205957600080fd5b8260051b80836020870137939093016020019392505050565b604081526000612086604083018688612040565b8281036020840152612099818587612040565b979650505050505050565b6000808335601e198436030181126120bb57600080fd5b8301803591506001600160401b038211156120d557600080fd5b602001915036819003821315611dc257600080fd5b86815260a060208201528460a0820152848660c0830137600060c08683018101919091526001600160a01b0394851660408301529290931660608401526001600160401b03166080830152601f909201601f1916010192915050565b6000806040838503121561215957600080fd5b82516001600160401b038116811461217057600080fd5b6020939093015192949293505050565b81358152602080830135908201526040810161065b565b6001600160a01b038316815260608101610e9d602083018480358252602090810135910152565b60005b838110156121d95781810151838201526020016121c1565b50506000910152565b7f5472616e7366657248656c7065723a20636f756c64206e6f74207472616e7366815269032b9102927a7103a37960b51b60208201526000835161222d81602a8501602088016121be565b660103b30b63ab2960cd1b602a9184019182015283516122548160318401602088016121be565b01603101949350505050565b602081526000825180602084015261227f8160408501602087016121be565b601f01601f19169190910160400192915050565b6000604082840312156122a557600080fd5b604051604081018181106001600160401b03821117156122d557634e487b7160e01b600052604160045260246000fd5b604052823581526020928301359281019290925250919050565b7f416363657373436f6e74726f6c3a206163636f756e74200000000000000000008152600083516123278160178501602088016121be565b7001034b99036b4b9b9b4b733903937b6329607d1b60179184019182015283516123588160288401602088016121be565b01602801949350505050565b600082516123768184602087016121be565b9190910192915050565b634e487b7160e01b600052601260045260246000fd5b808202811582820484141761065b5761065b612017565b6000816123bc576123bc612017565b506000190190565b8181038181111561065b5761065b612017565b634e487b7160e01b600052603160045260246000fdfe97667070c54ef182b0f5858b034beac1b6f3089aa2d3188bb1e8929f4fa9b929a2646970667358221220af269df2a00739b1d11f4b9dfe6c9748aae7893d5be6658d7c88083e147efb3764736f6c63430008150033",
  "chainId": 2021,
  "contractName": "RNSAuction",
  "deployer": "0x968D0Cd7343f711216817E617d3f92a23dC91c07",
  "devdoc": {
    "version": 1,
    "kind": "dev",
    "methods": {
      "bulkClaimBidNames(uint256[])": {
        "details": "Bulk claims the bid name. Requirements: - Must be called after ended time. - The method caller can be anyone.",
        "params": {
          "ids": "The namehash id of domain name. Eg, namehash('foo.ron') for 'foo.ron'"
        }
      },
      "bulkRegister(string[])": {
        "details": "Claims domain names for auction. Requirements: - The method caller must be contract operator.",
        "params": {
          "labels": "The domain names. Eg, ['foo'] for 'foo.ron'"
        },
        "returns": {
          "ids": "The id corresponding for namehash of domain names."
        }
      },
      "createAuctionEvent((uint256,uint256))": {
        "details": "Creates a new auction to sale with a specific time period. Requirements: - The method caller must be admin. Emits an event {AuctionEventSet}.",
        "returns": {
          "auctionId": "The auction id"
        }
      },
      "getAuction(uint256)": {
        "details": "Returns the highest bid and address of the bidder.",
        "params": {
          "id": "The namehash id of domain name. Eg, namehash('foo.ron') for 'foo.ron'"
        }
      },
      "getAuctionEvent(bytes32)": {
        "details": "Returns the event range of an auction."
      },
      "getBidGapRatio()": {
        "details": "Returns the gap ratio between 2 bids with the starting price. Value in range [0;100_00] is 0%-100%."
      },
      "getRNSUnified()": {
        "details": "Returns RNSUnified contract."
      },
      "getRoleAdmin(bytes32)": {
        "details": "Returns the admin role that controls `role`. See {grantRole} and {revokeRole}. To change a role's admin, use {_setRoleAdmin}."
      },
      "getRoleMember(bytes32,uint256)": {
        "details": "Returns one of the accounts that have `role`. `index` must be a value between 0 and {getRoleMemberCount}, non-inclusive. Role bearers are not sorted in any particular way, and their ordering may change at any point. WARNING: When using {getRoleMember} and {getRoleMemberCount}, make sure you perform all queries on the same block. See the following https://forum.openzeppelin.com/t/iterating-over-elements-on-enumerableset-in-openzeppelin-contracts/2296[forum post] for more information."
      },
      "getRoleMemberCount(bytes32)": {
        "details": "Returns the number of accounts that have `role`. Can be used together with {getRoleMember} to enumerate all bearers of a role."
      },
      "getTreasury()": {
        "details": "Returns the treasury."
      },
      "grantRole(bytes32,address)": {
        "details": "Grants `role` to `account`. If `account` had not been already granted `role`, emits a {RoleGranted} event. Requirements: - the caller must have ``role``'s admin role. May emit a {RoleGranted} event."
      },
      "hasRole(bytes32,address)": {
        "details": "Returns `true` if `account` has been granted `role`."
      },
      "listNamesForAuction(bytes32,uint256[],uint256[])": {
        "details": "Lists reserved names to sale in a specified auction. Requirements: - The method caller must be contract operator. - Array length are matched and larger than 0. - Only allow to set when the domain is:   + Not in any auction.   + Or, in the current auction.   + Or, this name is not bided. Emits an event {LabelsListed}. Note: If the name is already listed, this method replaces with a new input value.",
        "params": {
          "ids": "The namehashes id of domain names. Eg, namehash('foo.ron') for 'foo.ron'"
        }
      },
      "placeBid(uint256)": {
        "details": "Places a bid for a domain name. Requirements: - The name is listed, or the auction is happening. - The msg.value is larger than the current bid price or the auction starting price. Emits an event {BidPlaced}.",
        "params": {
          "id": "The namehash id of domain name. Eg, namehash('foo.ron') for 'foo.ron'"
        }
      },
      "renounceRole(bytes32,address)": {
        "details": "Revokes `role` from the calling account. Roles are often managed via {grantRole} and {revokeRole}: this function's purpose is to provide a mechanism for accounts to lose their privileges if they are compromised (such as when a trusted device is misplaced). If the calling account had been revoked `role`, emits a {RoleRevoked} event. Requirements: - the caller must be `account`. May emit a {RoleRevoked} event."
      },
      "reserved(uint256)": {
        "details": "Checks whether a domain name is currently reserved for auction or not.",
        "params": {
          "id": "The namehash id of domain name. Eg, namehash('foo.ron') for 'foo.ron'"
        }
      },
      "revokeRole(bytes32,address)": {
        "details": "Revokes `role` from `account`. If `account` had been granted `role`, emits a {RoleRevoked} event. Requirements: - the caller must have ``role``'s admin role. May emit a {RoleRevoked} event."
      },
      "setAuctionEvent(bytes32,(uint256,uint256))": {
        "details": "Updates the auction details. Requirements: - The method caller must be admin. Emits an event {AuctionEventSet}."
      },
      "setBidGapRatio(uint256)": {
        "details": "Sets commission ratio. Value in range [0;100_00] is 0%-100%. Requirements: - The method caller must be admin Emits an event {BidGapRatioUpdated}."
      },
      "setTreasury(address)": {
        "details": "Sets the treasury. Requirements: - The method caller must be admin Emits an event {TreasuryUpdated}."
      },
      "supportsInterface(bytes4)": {
        "details": "See {IERC165-supportsInterface}."
      }
    },
    "events": {
      "AuctionEventSet(bytes32,(uint256,uint256))": {
        "details": "Emitted when an auction is set."
      },
      "BidGapRatioUpdated(uint256)": {
        "details": "Emitted when bid gap ratio is updated."
      },
      "BidPlaced(bytes32,uint256,uint256,address,uint256,address)": {
        "details": "Emitted when a bid is placed for a name."
      },
      "Initialized(uint8)": {
        "details": "Triggered when the contract has been initialized or reinitialized."
      },
      "LabelsListed(bytes32,uint256[],uint256[])": {
        "details": "Emitted when the labels are listed for auction."
      },
      "RoleAdminChanged(bytes32,bytes32,bytes32)": {
        "details": "Emitted when `newAdminRole` is set as ``role``'s admin role, replacing `previousAdminRole` `DEFAULT_ADMIN_ROLE` is the starting admin for all roles, despite {RoleAdminChanged} not being emitted signaling this. _Available since v3.1._"
      },
      "RoleGranted(bytes32,address,address)": {
        "details": "Emitted when `account` is granted `role`. `sender` is the account that originated the contract call, an admin role bearer except when using {AccessControl-_setupRole}."
      },
      "RoleRevoked(bytes32,address,address)": {
        "details": "Emitted when `account` is revoked `role`. `sender` is the account that originated the contract call:   - if using `revokeRole`, it is the admin role bearer   - if using `renounceRole`, it is the role bearer (i.e. `account`)"
      },
      "TreasuryUpdated(address)": {
        "details": "Emitted when the treasury is updated."
      }
    }
  },
  "isFoundry": true,
  "nonce": 182592,
  "numDeployments": 3,
  "storageLayout": {
    "storage": [
      {
        "astId": 49702,
        "contract": "src/RNSAuction.sol:RNSAuction",
        "label": "_initialized",
        "offset": 0,
        "slot": "0",
        "type": "t_uint8"
      },
      {
        "astId": 49705,
        "contract": "src/RNSAuction.sol:RNSAuction",
        "label": "_initializing",
        "offset": 1,
        "slot": "0",
        "type": "t_bool"
      },
      {
        "astId": 48175,
        "contract": "src/RNSAuction.sol:RNSAuction",
        "label": "_roles",
        "offset": 0,
        "slot": "1",
        "type": "t_mapping(t_bytes32,t_struct(RoleData)48170_storage)"
      },
      {
        "astId": 48485,
        "contract": "src/RNSAuction.sol:RNSAuction",
        "label": "_roleMembers",
        "offset": 0,
        "slot": "2",
        "type": "t_mapping(t_bytes32,t_struct(AddressSet)54054_storage)"
      },
      {
        "astId": 58721,
        "contract": "src/RNSAuction.sol:RNSAuction",
        "label": "____gap",
        "offset": 0,
        "slot": "3",
        "type": "t_array(t_uint256)50_storage"
      },
      {
        "astId": 58725,
        "contract": "src/RNSAuction.sol:RNSAuction",
        "label": "_rnsUnified",
        "offset": 0,
        "slot": "53",
        "type": "t_contract(INSUnified)65048"
      },
      {
        "astId": 58731,
        "contract": "src/RNSAuction.sol:RNSAuction",
        "label": "_auctionRange",
        "offset": 0,
        "slot": "54",
        "type": "t_mapping(t_bytes32,t_struct(EventRange)65968_storage)"
      },
      {
        "astId": 58737,
        "contract": "src/RNSAuction.sol:RNSAuction",
        "label": "_domainAuction",
        "offset": 0,
        "slot": "55",
        "type": "t_mapping(t_uint256,t_struct(DomainAuction)64221_storage)"
      },
      {
        "astId": 58740,
        "contract": "src/RNSAuction.sol:RNSAuction",
        "label": "_treasury",
        "offset": 0,
        "slot": "56",
        "type": "t_address_payable"
      },
      {
        "astId": 58743,
        "contract": "src/RNSAuction.sol:RNSAuction",
        "label": "_bidGapRatio",
        "offset": 0,
        "slot": "57",
        "type": "t_uint256"
      },
      {
        "astId": 58747,
        "contract": "src/RNSAuction.sol:RNSAuction",
        "label": "_reserved",
        "offset": 0,
        "slot": "58",
        "type": "t_struct(BitMap)53598_storage"
      }
    ],
    "types": {
      "t_address": {
        "encoding": "inplace",
        "label": "address",
        "numberOfBytes": "20"
      },
      "t_address_payable": {
        "encoding": "inplace",
        "label": "address payable",
        "numberOfBytes": "20"
      },
      "t_array(t_bytes32)dyn_storage": {
        "encoding": "dynamic_array",
        "label": "bytes32[]",
        "numberOfBytes": "32",
        "base": "t_bytes32"
      },
      "t_array(t_uint256)50_storage": {
        "encoding": "inplace",
        "label": "uint256[50]",
        "numberOfBytes": "1600",
        "base": "t_uint256"
      },
      "t_bool": {
        "encoding": "inplace",
        "label": "bool",
        "numberOfBytes": "1"
      },
      "t_bytes32": {
        "encoding": "inplace",
        "label": "bytes32",
        "numberOfBytes": "32"
      },
      "t_contract(INSUnified)65048": {
        "encoding": "inplace",
        "label": "contract INSUnified",
        "numberOfBytes": "20"
      },
      "t_mapping(t_address,t_bool)": {
        "encoding": "mapping",
        "key": "t_address",
        "label": "mapping(address => bool)",
        "numberOfBytes": "32",
        "value": "t_bool"
      },
      "t_mapping(t_bytes32,t_struct(AddressSet)54054_storage)": {
        "encoding": "mapping",
        "key": "t_bytes32",
        "label": "mapping(bytes32 => struct EnumerableSet.AddressSet)",
        "numberOfBytes": "32",
        "value": "t_struct(AddressSet)54054_storage"
      },
      "t_mapping(t_bytes32,t_struct(EventRange)65968_storage)": {
        "encoding": "mapping",
        "key": "t_bytes32",
        "label": "mapping(bytes32 => struct EventRange)",
        "numberOfBytes": "32",
        "value": "t_struct(EventRange)65968_storage"
      },
      "t_mapping(t_bytes32,t_struct(RoleData)48170_storage)": {
        "encoding": "mapping",
        "key": "t_bytes32",
        "label": "mapping(bytes32 => struct AccessControl.RoleData)",
        "numberOfBytes": "32",
        "value": "t_struct(RoleData)48170_storage"
      },
      "t_mapping(t_bytes32,t_uint256)": {
        "encoding": "mapping",
        "key": "t_bytes32",
        "label": "mapping(bytes32 => uint256)",
        "numberOfBytes": "32",
        "value": "t_uint256"
      },
      "t_mapping(t_uint256,t_struct(DomainAuction)64221_storage)": {
        "encoding": "mapping",
        "key": "t_uint256",
        "label": "mapping(uint256 => struct INSAuction.DomainAuction)",
        "numberOfBytes": "32",
        "value": "t_struct(DomainAuction)64221_storage"
      },
      "t_mapping(t_uint256,t_uint256)": {
        "encoding": "mapping",
        "key": "t_uint256",
        "label": "mapping(uint256 => uint256)",
        "numberOfBytes": "32",
        "value": "t_uint256"
      },
      "t_struct(AddressSet)54054_storage": {
        "encoding": "inplace",
        "label": "struct EnumerableSet.AddressSet",
        "numberOfBytes": "64",
        "members": [
          {
            "astId": 54053,
            "contract": "src/RNSAuction.sol:RNSAuction",
            "label": "_inner",
            "offset": 0,
            "slot": "0",
            "type": "t_struct(Set)53739_storage"
          }
        ]
      },
      "t_struct(Bid)64213_storage": {
        "encoding": "inplace",
        "label": "struct INSAuction.Bid",
        "numberOfBytes": "128",
        "members": [
          {
            "astId": 64206,
            "contract": "src/RNSAuction.sol:RNSAuction",
            "label": "bidder",
            "offset": 0,
            "slot": "0",
            "type": "t_address_payable"
          },
          {
            "astId": 64208,
            "contract": "src/RNSAuction.sol:RNSAuction",
            "label": "price",
            "offset": 0,
            "slot": "1",
            "type": "t_uint256"
          },
          {
            "astId": 64210,
            "contract": "src/RNSAuction.sol:RNSAuction",
            "label": "timestamp",
            "offset": 0,
            "slot": "2",
            "type": "t_uint256"
          },
          {
            "astId": 64212,
            "contract": "src/RNSAuction.sol:RNSAuction",
            "label": "claimedAt",
            "offset": 0,
            "slot": "3",
            "type": "t_uint256"
          }
        ]
      },
      "t_struct(BitMap)53598_storage": {
        "encoding": "inplace",
        "label": "struct BitMaps.BitMap",
        "numberOfBytes": "32",
        "members": [
          {
            "astId": 53597,
            "contract": "src/RNSAuction.sol:RNSAuction",
            "label": "_data",
            "offset": 0,
            "slot": "0",
            "type": "t_mapping(t_uint256,t_uint256)"
          }
        ]
      },
      "t_struct(DomainAuction)64221_storage": {
        "encoding": "inplace",
        "label": "struct INSAuction.DomainAuction",
        "numberOfBytes": "192",
        "members": [
          {
            "astId": 64215,
            "contract": "src/RNSAuction.sol:RNSAuction",
            "label": "auctionId",
            "offset": 0,
            "slot": "0",
            "type": "t_bytes32"
          },
          {
            "astId": 64217,
            "contract": "src/RNSAuction.sol:RNSAuction",
            "label": "startingPrice",
            "offset": 0,
            "slot": "1",
            "type": "t_uint256"
          },
          {
            "astId": 64220,
            "contract": "src/RNSAuction.sol:RNSAuction",
            "label": "bid",
            "offset": 0,
            "slot": "2",
            "type": "t_struct(Bid)64213_storage"
          }
        ]
      },
      "t_struct(EventRange)65968_storage": {
        "encoding": "inplace",
        "label": "struct EventRange",
        "numberOfBytes": "64",
        "members": [
          {
            "astId": 65965,
            "contract": "src/RNSAuction.sol:RNSAuction",
            "label": "startedAt",
            "offset": 0,
            "slot": "0",
            "type": "t_uint256"
          },
          {
            "astId": 65967,
            "contract": "src/RNSAuction.sol:RNSAuction",
            "label": "endedAt",
            "offset": 0,
            "slot": "1",
            "type": "t_uint256"
          }
        ]
      },
      "t_struct(RoleData)48170_storage": {
        "encoding": "inplace",
        "label": "struct AccessControl.RoleData",
        "numberOfBytes": "64",
        "members": [
          {
            "astId": 48167,
            "contract": "src/RNSAuction.sol:RNSAuction",
            "label": "members",
            "offset": 0,
            "slot": "0",
            "type": "t_mapping(t_address,t_bool)"
          },
          {
            "astId": 48169,
            "contract": "src/RNSAuction.sol:RNSAuction",
            "label": "adminRole",
            "offset": 0,
            "slot": "1",
            "type": "t_bytes32"
          }
        ]
      },
      "t_struct(Set)53739_storage": {
        "encoding": "inplace",
        "label": "struct EnumerableSet.Set",
        "numberOfBytes": "64",
        "members": [
          {
            "astId": 53734,
            "contract": "src/RNSAuction.sol:RNSAuction",
            "label": "_values",
            "offset": 0,
            "slot": "0",
            "type": "t_array(t_bytes32)dyn_storage"
          },
          {
            "astId": 53738,
            "contract": "src/RNSAuction.sol:RNSAuction",
            "label": "_indexes",
            "offset": 0,
            "slot": "1",
            "type": "t_mapping(t_bytes32,t_uint256)"
          }
        ]
      },
      "t_uint256": {
        "encoding": "inplace",
        "label": "uint256",
        "numberOfBytes": "32"
      },
      "t_uint8": {
        "encoding": "inplace",
        "label": "uint8",
        "numberOfBytes": "1"
      }
    }
  },
  "timestamp": 1698122937,
  "userdoc": {
    "version": 1,
    "kind": "user",
    "methods": {
      "createAuctionEvent((uint256,uint256))": {
        "notice": "Please use the method `setAuctionNames` to list all the reserved names."
      }
    }
  }
}