{
  "abi": [
    {
      "inputs": [],
      "stateMutability": "payable",
      "type": "constructor"
    },
    {
      "inputs": [
        {
          "internalType": "int32",
          "name": "expo1",
          "type": "int32"
        },
        {
          "internalType": "int32",
          "name": "expo2",
          "type": "int32"
        },
        {
          "internalType": "int64",
          "name": "price1",
          "type": "int64"
        }
      ],
      "name": "ErrComputedPriceTooLarge",
      "type": "error"
    },
    {
      "inputs": [
        {
          "internalType": "int32",
          "name": "expo",
          "type": "int32"
        }
      ],
      "name": "ErrExponentTooLarge",
      "type": "error"
    },
    {
      "inputs": [],
      "name": "ExceedAuctionDomainExpiry",
      "type": "error"
    },
    {
      "inputs": [],
      "name": "InvalidArrayLength",
      "type": "error"
    },
    {
      "inputs": [
        {
          "internalType": "uint256",
          "name": "n",
          "type": "uint256"
        }
      ],
      "name": "PeriodNumOverflowedUint16",
      "type": "error"
    },
    {
      "inputs": [],
      "name": "RenewalFeeIsNotOverriden",
      "type": "error"
    },
    {
      "anonymous": false,
      "inputs": [
        {
          "indexed": true,
          "internalType": "address",
          "name": "operator",
          "type": "address"
        },
        {
          "indexed": false,
          "internalType": "uint192",
          "name": "ratio",
          "type": "uint192"
        },
        {
          "indexed": false,
          "internalType": "uint64",
          "name": "period",
          "type": "uint64"
        }
      ],
      "name": "DomainPriceScaleRuleUpdated",
      "type": "event"
    },
    {
      "anonymous": false,
      "inputs": [
        {
          "indexed": true,
          "internalType": "address",
          "name": "operator",
          "type": "address"
        },
        {
          "indexed": true,
          "internalType": "bytes32",
          "name": "labelHash",
          "type": "bytes32"
        },
        {
          "indexed": false,
          "internalType": "uint256",
          "name": "price",
          "type": "uint256"
        },
        {
          "indexed": true,
          "internalType": "bytes32",
          "name": "proofHash",
          "type": "bytes32"
        },
        {
          "indexed": false,
          "internalType": "uint256",
          "name": "setType",
          "type": "uint256"
        }
      ],
      "name": "DomainPriceUpdated",
      "type": "event"
    },
    {
      "anonymous": false,
      "inputs": [
        {
          "indexed": false,
          "internalType": "uint8",
          "name": "version",
          "type": "uint8"
        }
      ],
      "name": "Initialized",
      "type": "event"
    },
    {
      "anonymous": false,
      "inputs": [
        {
          "indexed": true,
          "internalType": "address",
          "name": "operator",
          "type": "address"
        },
        {
          "indexed": true,
          "internalType": "uint256",
          "name": "maxLength",
          "type": "uint256"
        }
      ],
      "name": "MaxRenewalFeeLengthUpdated",
      "type": "event"
    },
    {
      "anonymous": false,
      "inputs": [
        {
          "indexed": true,
          "internalType": "address",
          "name": "operator",
          "type": "address"
        },
        {
          "indexed": true,
          "internalType": "contract IPyth",
          "name": "pyth",
          "type": "address"
        },
        {
          "indexed": false,
          "internalType": "uint256",
          "name": "maxAcceptableAge",
          "type": "uint256"
        },
        {
          "indexed": true,
          "internalType": "bytes32",
          "name": "pythIdForRONUSD",
          "type": "bytes32"
        }
      ],
      "name": "PythOracleConfigUpdated",
      "type": "event"
    },
    {
      "anonymous": false,
      "inputs": [
        {
          "indexed": true,
          "internalType": "address",
          "name": "operator",
          "type": "address"
        },
        {
          "indexed": true,
          "internalType": "uint256",
          "name": "labelLength",
          "type": "uint256"
        },
        {
          "indexed": false,
          "internalType": "uint256",
          "name": "renewalFee",
          "type": "uint256"
        }
      ],
      "name": "RenewalFeeByLengthUpdated",
      "type": "event"
    },
    {
      "anonymous": false,
      "inputs": [
        {
          "indexed": true,
          "internalType": "address",
          "name": "operator",
          "type": "address"
        },
        {
          "indexed": true,
          "internalType": "bytes32",
          "name": "labelHash",
          "type": "bytes32"
        },
        {
          "indexed": false,
          "internalType": "uint256",
          "name": "inverseRenewalFee",
          "type": "uint256"
        }
      ],
      "name": "RenewalFeeOverridingUpdated",
      "type": "event"
    },
    {
      "anonymous": false,
      "inputs": [
        {
          "indexed": true,
          "internalType": "bytes32",
          "name": "role",
          "type": "bytes32"
        },
        {
          "indexed": true,
          "internalType": "bytes32",
          "name": "previousAdminRole",
          "type": "bytes32"
        },
        {
          "indexed": true,
          "internalType": "bytes32",
          "name": "newAdminRole",
          "type": "bytes32"
        }
      ],
      "name": "RoleAdminChanged",
      "type": "event"
    },
    {
      "anonymous": false,
      "inputs": [
        {
          "indexed": true,
          "internalType": "bytes32",
          "name": "role",
          "type": "bytes32"
        },
        {
          "indexed": true,
          "internalType": "address",
          "name": "account",
          "type": "address"
        },
        {
          "indexed": true,
          "internalType": "address",
          "name": "sender",
          "type": "address"
        }
      ],
      "name": "RoleGranted",
      "type": "event"
    },
    {
      "anonymous": false,
      "inputs": [
        {
          "indexed": true,
          "internalType": "bytes32",
          "name": "role",
          "type": "bytes32"
        },
        {
          "indexed": true,
          "internalType": "address",
          "name": "account",
          "type": "address"
        },
        {
          "indexed": true,
          "internalType": "address",
          "name": "sender",
          "type": "address"
        }
      ],
      "name": "RoleRevoked",
      "type": "event"
    },
    {
      "anonymous": false,
      "inputs": [
        {
          "indexed": true,
          "internalType": "address",
          "name": "operator",
          "type": "address"
        },
        {
          "indexed": true,
          "internalType": "uint256",
          "name": "ratio",
          "type": "uint256"
        }
      ],
      "name": "TaxRatioUpdated",
      "type": "event"
    },
    {
      "inputs": [],
      "name": "DEFAULT_ADMIN_ROLE",
      "outputs": [
        {
          "internalType": "bytes32",
          "name": "",
          "type": "bytes32"
        }
      ],
      "stateMutability": "view",
      "type": "function"
    },
    {
      "inputs": [],
      "name": "MAX_PERCENTAGE",
      "outputs": [
        {
          "internalType": "uint64",
          "name": "",
          "type": "uint64"
        }
      ],
      "stateMutability": "view",
      "type": "function"
    },
    {
      "inputs": [],
      "name": "OPERATOR_ROLE",
      "outputs": [
        {
          "internalType": "bytes32",
          "name": "",
          "type": "bytes32"
        }
      ],
      "stateMutability": "view",
      "type": "function"
    },
    {
      "inputs": [],
      "name": "USD_DECIMALS",
      "outputs": [
        {
          "internalType": "uint8",
          "name": "",
          "type": "uint8"
        }
      ],
      "stateMutability": "view",
      "type": "function"
    },
    {
      "inputs": [
        {
          "internalType": "bytes32[]",
          "name": "lbHashes",
          "type": "bytes32[]"
        },
        {
          "internalType": "uint256[]",
          "name": "usdPrices",
          "type": "uint256[]"
        }
      ],
      "name": "bulkOverrideRenewalFees",
      "outputs": [],
      "stateMutability": "nonpayable",
      "type": "function"
    },
    {
      "inputs": [
        {
          "internalType": "bytes32[]",
          "name": "lbHashes",
          "type": "bytes32[]"
        },
        {
          "internalType": "uint256[]",
          "name": "ronPrices",
          "type": "uint256[]"
        },
        {
          "internalType": "bytes32[]",
          "name": "proofHashes",
          "type": "bytes32[]"
        },
        {
          "internalType": "uint256[]",
          "name": "setTypes",
          "type": "uint256[]"
        }
      ],
      "name": "bulkSetDomainPrice",
      "outputs": [],
      "stateMutability": "nonpayable",
      "type": "function"
    },
    {
      "inputs": [
        {
          "internalType": "bytes32[]",
          "name": "lbHashes",
          "type": "bytes32[]"
        },
        {
          "internalType": "uint256[]",
          "name": "ronPrices",
          "type": "uint256[]"
        },
        {
          "internalType": "bytes32[]",
          "name": "proofHashes",
          "type": "bytes32[]"
        },
        {
          "internalType": "uint256[]",
          "name": "setTypes",
          "type": "uint256[]"
        }
      ],
      "name": "bulkTrySetDomainPrice",
      "outputs": [
        {
          "internalType": "bool[]",
          "name": "updated",
          "type": "bool[]"
        }
      ],
      "stateMutability": "nonpayable",
      "type": "function"
    },
    {
      "inputs": [
        {
          "internalType": "uint256",
          "name": "ronWei",
          "type": "uint256"
        }
      ],
      "name": "convertRONToUSD",
      "outputs": [
        {
          "internalType": "uint256",
          "name": "usdWei",
          "type": "uint256"
        }
      ],
      "stateMutability": "view",
      "type": "function"
    },
    {
      "inputs": [
        {
          "internalType": "uint256",
          "name": "usdWei",
          "type": "uint256"
        }
      ],
      "name": "convertUSDToRON",
      "outputs": [
        {
          "internalType": "uint256",
          "name": "ronWei",
          "type": "uint256"
        }
      ],
      "stateMutability": "view",
      "type": "function"
    },
    {
      "inputs": [
        {
          "internalType": "string",
          "name": "label",
          "type": "string"
        }
      ],
      "name": "getDomainPrice",
      "outputs": [
        {
          "internalType": "uint256",
          "name": "usdPrice",
          "type": "uint256"
        },
        {
          "internalType": "uint256",
          "name": "ronPrice",
          "type": "uint256"
        }
      ],
      "stateMutability": "view",
      "type": "function"
    },
    {
      "inputs": [
        {
          "internalType": "string",
          "name": "label",
          "type": "string"
        }
      ],
      "name": "getOverriddenRenewalFee",
      "outputs": [
        {
          "internalType": "uint256",
          "name": "usdFee",
          "type": "uint256"
        }
      ],
      "stateMutability": "view",
      "type": "function"
    },
    {
      "inputs": [],
      "name": "getPythOracleConfig",
      "outputs": [
        {
          "internalType": "contract IPyth",
          "name": "pyth",
          "type": "address"
        },
        {
          "internalType": "uint256",
          "name": "maxAcceptableAge",
          "type": "uint256"
        },
        {
          "internalType": "bytes32",
          "name": "pythIdForRONUSD",
          "type": "bytes32"
        }
      ],
      "stateMutability": "view",
      "type": "function"
    },
    {
      "inputs": [
        {
          "internalType": "string",
          "name": "label",
          "type": "string"
        },
        {
          "internalType": "uint256",
          "name": "duration",
          "type": "uint256"
        }
      ],
      "name": "getRenewalFee",
      "outputs": [
        {
          "components": [
            {
              "internalType": "uint256",
              "name": "usd",
              "type": "uint256"
            },
            {
              "internalType": "uint256",
              "name": "ron",
              "type": "uint256"
            }
          ],
          "internalType": "struct INSDomainPrice.UnitPrice",
          "name": "basePrice",
          "type": "tuple"
        },
        {
          "components": [
            {
              "internalType": "uint256",
              "name": "usd",
              "type": "uint256"
            },
            {
              "internalType": "uint256",
              "name": "ron",
              "type": "uint256"
            }
          ],
          "internalType": "struct INSDomainPrice.UnitPrice",
          "name": "tax",
          "type": "tuple"
        }
      ],
      "stateMutability": "view",
      "type": "function"
    },
    {
      "inputs": [],
      "name": "getRenewalFeeByLengths",
      "outputs": [
        {
          "components": [
            {
              "internalType": "uint256",
              "name": "labelLength",
              "type": "uint256"
            },
            {
              "internalType": "uint256",
              "name": "fee",
              "type": "uint256"
            }
          ],
          "internalType": "struct INSDomainPrice.RenewalFee[]",
          "name": "renewalFees",
          "type": "tuple[]"
        }
      ],
      "stateMutability": "view",
      "type": "function"
    },
    {
      "inputs": [
        {
          "internalType": "bytes32",
          "name": "role",
          "type": "bytes32"
        }
      ],
      "name": "getRoleAdmin",
      "outputs": [
        {
          "internalType": "bytes32",
          "name": "",
          "type": "bytes32"
        }
      ],
      "stateMutability": "view",
      "type": "function"
    },
    {
      "inputs": [
        {
          "internalType": "bytes32",
          "name": "role",
          "type": "bytes32"
        },
        {
          "internalType": "uint256",
          "name": "index",
          "type": "uint256"
        }
      ],
      "name": "getRoleMember",
      "outputs": [
        {
          "internalType": "address",
          "name": "",
          "type": "address"
        }
      ],
      "stateMutability": "view",
      "type": "function"
    },
    {
      "inputs": [
        {
          "internalType": "bytes32",
          "name": "role",
          "type": "bytes32"
        }
      ],
      "name": "getRoleMemberCount",
      "outputs": [
        {
          "internalType": "uint256",
          "name": "",
          "type": "uint256"
        }
      ],
      "stateMutability": "view",
      "type": "function"
    },
    {
      "inputs": [],
      "name": "getScaleDownRuleForDomainPrice",
      "outputs": [
        {
          "components": [
            {
              "internalType": "uint192",
              "name": "ratio",
              "type": "uint192"
            },
            {
              "internalType": "uint64",
              "name": "period",
              "type": "uint64"
            }
          ],
          "internalType": "struct PeriodScaler",
          "name": "scaleRule",
          "type": "tuple"
        }
      ],
      "stateMutability": "view",
      "type": "function"
    },
    {
      "inputs": [],
      "name": "getTaxRatio",
      "outputs": [
        {
          "internalType": "uint256",
          "name": "ratio",
          "type": "uint256"
        }
      ],
      "stateMutability": "view",
      "type": "function"
    },
    {
      "inputs": [
        {
          "internalType": "bytes32",
          "name": "role",
          "type": "bytes32"
        },
        {
          "internalType": "address",
          "name": "account",
          "type": "address"
        }
      ],
      "name": "grantRole",
      "outputs": [],
      "stateMutability": "nonpayable",
      "type": "function"
    },
    {
      "inputs": [
        {
          "internalType": "bytes32",
          "name": "role",
          "type": "bytes32"
        },
        {
          "internalType": "address",
          "name": "account",
          "type": "address"
        }
      ],
      "name": "hasRole",
      "outputs": [
        {
          "internalType": "bool",
          "name": "",
          "type": "bool"
        }
      ],
      "stateMutability": "view",
      "type": "function"
    },
    {
      "inputs": [
        {
          "internalType": "address",
          "name": "admin",
          "type": "address"
        },
        {
          "internalType": "address[]",
          "name": "operators",
          "type": "address[]"
        },
        {
          "components": [
            {
              "internalType": "uint256",
              "name": "labelLength",
              "type": "uint256"
            },
            {
              "internalType": "uint256",
              "name": "fee",
              "type": "uint256"
            }
          ],
          "internalType": "struct INSDomainPrice.RenewalFee[]",
          "name": "renewalFees",
          "type": "tuple[]"
        },
        {
          "internalType": "uint256",
          "name": "taxRatio",
          "type": "uint256"
        },
        {
          "components": [
            {
              "internalType": "uint192",
              "name": "ratio",
              "type": "uint192"
            },
            {
              "internalType": "uint64",
              "name": "period",
              "type": "uint64"
            }
          ],
          "internalType": "struct PeriodScaler",
          "name": "domainPriceScaleRule",
          "type": "tuple"
        },
        {
          "internalType": "contract IPyth",
          "name": "pyth",
          "type": "address"
        },
        {
          "internalType": "contract INSAuction",
          "name": "auction",
          "type": "address"
        },
        {
          "internalType": "uint256",
          "name": "maxAcceptableAge",
          "type": "uint256"
        },
        {
          "internalType": "bytes32",
          "name": "pythIdForRONUSD",
          "type": "bytes32"
        }
      ],
      "name": "initialize",
      "outputs": [],
      "stateMutability": "nonpayable",
      "type": "function"
    },
    {
      "inputs": [
        {
          "internalType": "bytes32",
          "name": "role",
          "type": "bytes32"
        },
        {
          "internalType": "address",
          "name": "account",
          "type": "address"
        }
      ],
      "name": "renounceRole",
      "outputs": [],
      "stateMutability": "nonpayable",
      "type": "function"
    },
    {
      "inputs": [
        {
          "internalType": "bytes32",
          "name": "role",
          "type": "bytes32"
        },
        {
          "internalType": "address",
          "name": "account",
          "type": "address"
        }
      ],
      "name": "revokeRole",
      "outputs": [],
      "stateMutability": "nonpayable",
      "type": "function"
    },
    {
      "inputs": [
        {
          "internalType": "contract IPyth",
          "name": "pyth",
          "type": "address"
        },
        {
          "internalType": "uint256",
          "name": "maxAcceptableAge",
          "type": "uint256"
        },
        {
          "internalType": "bytes32",
          "name": "pythIdForRONUSD",
          "type": "bytes32"
        }
      ],
      "name": "setPythOracleConfig",
      "outputs": [],
      "stateMutability": "nonpayable",
      "type": "function"
    },
    {
      "inputs": [
        {
          "components": [
            {
              "internalType": "uint256",
              "name": "labelLength",
              "type": "uint256"
            },
            {
              "internalType": "uint256",
              "name": "fee",
              "type": "uint256"
            }
          ],
          "internalType": "struct INSDomainPrice.RenewalFee[]",
          "name": "renewalFees",
          "type": "tuple[]"
        }
      ],
      "name": "setRenewalFeeByLengths",
      "outputs": [],
      "stateMutability": "nonpayable",
      "type": "function"
    },
    {
      "inputs": [
        {
          "components": [
            {
              "internalType": "uint192",
              "name": "ratio",
              "type": "uint192"
            },
            {
              "internalType": "uint64",
              "name": "period",
              "type": "uint64"
            }
          ],
          "internalType": "struct PeriodScaler",
          "name": "scaleRule",
          "type": "tuple"
        }
      ],
      "name": "setScaleDownRuleForDomainPrice",
      "outputs": [],
      "stateMutability": "nonpayable",
      "type": "function"
    },
    {
      "inputs": [
        {
          "internalType": "uint256",
          "name": "ratio",
          "type": "uint256"
        }
      ],
      "name": "setTaxRatio",
      "outputs": [],
      "stateMutability": "nonpayable",
      "type": "function"
    },
    {
      "inputs": [
        {
          "internalType": "bytes4",
          "name": "interfaceId",
          "type": "bytes4"
        }
      ],
      "name": "supportsInterface",
      "outputs": [
        {
          "internalType": "bool",
          "name": "",
          "type": "bool"
        }
      ],
      "stateMutability": "view",
      "type": "function"
    }
  ],
  "address": "0xa45Dd6a8DE1bCcb4C390f0504cC440B8Ef2a5b05",
  "args": "0x",
  "blockNumber": 21444223,
  "bytecode": "0x60806040526200000e62000014565b620000d5565b600054610100900460ff1615620000815760405162461bcd60e51b815260206004820152602760248201527f496e697469616c697a61626c653a20636f6e747261637420697320696e697469604482015266616c697a696e6760c81b606482015260840160405180910390fd5b60005460ff90811614620000d3576000805460ff191660ff9081179091556040519081527f7f26b83ff96e1f2b6a682f133852f6798a09c465da95921460cefb38474024989060200160405180910390a15b565b6130fb80620000e56000396000f3fe608060405234801561001057600080fd5b50600436106101cf5760003560e01c80635c68c83011610104578063ca15c873116100a2578063e229a67011610071578063e229a67014610480578063f4651f4914610493578063f5b541a6146104b4578063fe303ebf146104c957600080fd5b8063ca15c87314610434578063d40ed58c14610447578063d547741f1461045a578063dd28776d1461046d57600080fd5b80637174026e116100de5780637174026e146103db5780639010d07c146103ee57806391d1485414610419578063a217fddf1461042c57600080fd5b80635c68c830146103985780635ef32e2c146103ab578063713a69a7146103b357600080fd5b80632f6ee6951161017157806339e47da71161014b57806339e47da7146102ec5780634c255c971461034457806353faf90914610365578063599eaabf1461038557600080fd5b80632f6ee695146102ac57806335feb741146102c657806336568abe146102d957600080fd5b8063248a9ca3116101ad578063248a9ca31461023257806328dd3065146102565780632be09ecc1461026b5780632f2ff15d1461029957600080fd5b806301ffc9a7146101d4578063037f1769146101fc5780630a44f51f1461021d575b600080fd5b6101e76101e23660046122e1565b6104dc565b60405190151581526020015b60405180910390f35b61020f61020a36600461230b565b610507565b6040519081526020016101f3565b610225610599565b6040516101f39190612324565b61020f61024036600461230b565b6000908152600160208190526040909120015490565b61026961026436600461239b565b610676565b005b603554603954603a54604080516001600160a01b0390941684526020840192909252908201526060016101f3565b6102696102a73660046123d0565b610692565b6102b4601281565b60405160ff90911681526020016101f3565b6102696102d4366004612444565b6106bd565b6102696102e73660046123d0565b6106d2565b604080518082018252600080825260209182015281518083018352603b546001600160c01b0381168083526001600160401b03600160c01b9092048216928401928352845190815291511691810191909152016101f3565b61034d61271081565b6040516001600160401b0390911681526020016101f3565b6103786103733660046124c9565b610755565b6040516101f3919061258c565b6102696103933660046124c9565b61087c565b61020f6103a63660046125d2565b61093a565b60375461020f565b6103c66103c1366004612772565b6109b8565b604080519283526020830191909152016101f3565b61020f6103e936600461230b565b6109e4565b6104016103fc3660046127a6565b610a77565b6040516001600160a01b0390911681526020016101f3565b6101e76104273660046123d0565b610a96565b61020f600081565b61020f61044236600461230b565b610ac1565b6102696104553660046127e0565b610ad8565b6102696104683660046123d0565b610c8e565b61026961047b3660046128b9565b610cb4565b61026961048e366004612924565b610dc0565b6104a66104a1366004612940565b610dd4565b6040516101f3929190612984565b61020f6000805160206130a683398151915281565b6102696104d736600461230b565b61118a565b60006001600160e01b03198216635a05180f60e01b148061050157506105018261119e565b92915050565b603554603a5460395460405163052571af60e51b815260009361050193869360129384936001600160a01b03169263a4ae35e09261055092600401918252602082015260400190565b608060405180830381865afa15801561056d573d6000803e3d6000fd5b505050506040513d601f19601f8201168201806040525081019061059191906129bf565b9291906111d3565b603854606090806001600160401b038111156105b7576105b7612643565b6040519080825280602002602001820160405280156105fc57816020015b60408051808201909152600080825260208201528152602001906001900390816105d55790505b5091506000805b82811015610670578060010191508184828151811061062457610624612a2c565b60200260200101516000018181525050603c60008381526020019081526020016000205484828151811061065a5761065a612a2c565b6020908102919091018101510152600101610603565b50505090565b600061068181611214565b61068c848484611221565b50505050565b600082815260016020819052604090912001546106ae81611214565b6106b88383611293565b505050565b60006106c881611214565b6106b883836112b5565b6001600160a01b03811633146107475760405162461bcd60e51b815260206004820152602f60248201527f416363657373436f6e74726f6c3a2063616e206f6e6c792072656e6f756e636560448201526e103937b632b9903337b91039b2b63360891b60648201526084015b60405180910390fd5b61075182826113ce565b5050565b60606000805160206130a683398151915261076f81611214565b60006107818b8b8b8b8b8b8b8b6113f0565b905033816001600160401b0381111561079c5761079c612643565b6040519080825280602002602001820160405280156107c5578160200160208202803683370190505b50935060005b8281101561086c57610842828e8e848181106107e9576107e9612a2c565b905060200201358d8d8581811061080257610802612a2c565b905060200201358c8c8681811061081b5761081b612a2c565b905060200201358b8b8781811061083457610834612a2c565b90506020020135600061143e565b85828151811061085457610854612a2c565b911515602092830291909101909101526001016107cb565b5050505098975050505050505050565b6000805160206130a683398151915261089481611214565b60006108a68a8a8a8a8a8a8a8a6113f0565b90503360005b8281101561092c57610923828d8d848181106108ca576108ca612a2c565b905060200201358c8c858181106108e3576108e3612a2c565b905060200201358b8b868181106108fc576108fc612a2c565b905060200201358a8a8781811061091557610915612a2c565b90506020020135600161143e565b506001016108ac565b505050505050505050505050565b6000603e600061097f85858080601f0160208091040260200160405190810160405280939291908181526020018383808284376000920191909152506114cd92505050565b8152602001908152602001600020549050806000036109b157604051635421761560e11b815260040160405180910390fd5b1992915050565b6000806109d26109cd84805160209091012090565b6114d8565b91506109dd826109e4565b9050915091565b603554603a5460395460405163052571af60e51b815260048101929092526024820152600091610501918491601291829161059191601119916001600160a01b03169063a4ae35e090604401608060405180830381865afa158015610a4d573d6000803e3d6000fd5b505050506040513d601f19601f82011682018060405250810190610a7191906129bf565b90611552565b6000828152600260205260408120610a8f90836116ac565b9392505050565b60009182526001602090815260408084206001600160a01b0393909316845291905290205460ff1690565b6000818152600260205260408120610501906116b8565b600054610100900460ff1615808015610af85750600054600160ff909116105b80610b125750303b158015610b12575060005460ff166001145b610b755760405162461bcd60e51b815260206004820152602e60248201527f496e697469616c697a61626c653a20636f6e747261637420697320616c72656160448201526d191e481a5b9a5d1a585b1a5e995960921b606482015260840161073e565b6000805460ff191660011790558015610b98576000805461ff0019166101001790555b896000805160206130a683398151915260005b82811015610beb57610be3828f8f84818110610bc957610bc9612a2c565b9050602002016020810190610bde9190612a42565b6116c2565b600101610bab565b50603680546001600160a01b0319166001600160a01b038816179055610c1260008f6116c2565b610c1c8b8b6112b5565b610c25896116cc565b610c2e88611701565b610c39878686611221565b5050801561092c576000805461ff0019169055604051600181527f7f26b83ff96e1f2b6a682f133852f6798a09c465da95921460cefb38474024989060200160405180910390a1505050505050505050505050565b60008281526001602081905260409091200154610caa81611214565b6106b883836113ce565b6000805160206130a6833981519152610ccc81611214565b83801580610cda5750808314155b15610cf857604051634ec4810560e11b815260040160405180910390fd5b600033815b83811015610db557868682818110610d1757610d17612a2c565b9050602002013519925082603e60008b8b85818110610d3857610d38612a2c565b90506020020135815260200190815260200160002081905550888882818110610d6357610d63612a2c565b90506020020135826001600160a01b03167fb52d278cb3ef3b003bdfb385ce2eb23a83eb6d713724abfba1acaa16ccf6621485604051610da591815260200190565b60405180910390a3600101610cfd565b505050505050505050565b6000610dcb81611214565b61075182611701565b604080518082019091526000808252602082015260408051808201909152600080825260208201526000610e078561177d565b855160208701209091506000906000818152603e60205260409020549091508015610e3e57610e37811987612a75565b855261115d565b6000603c6000610e508660385461186b565b81526020019081526020016000205490508087610e6d9190612a75565b86526000610eac7fba69923fa107dbf5a25a073a10b7c9216ae39fbadc95dc891d460d9ae315d6888a6000918252805160209182012090526040902090565b6036546040516329fc8caf60e11b8152600481018390529192506001600160a01b03169081906353f9195e90602401602060405180830381865afa158015610ef8573d6000803e3d6000fd5b505050506040513d601f19601f82011682018060405250810190610f1c9190612a9c565b15611159576000816001600160a01b0316638c8433146040518163ffffffff1660e01b8152600401602060405180830381865afa158015610f61573d6000803e3d6000fd5b505050506040513d601f19601f82011682018060405250810190610f859190612ab7565b90506000611020826001600160a01b03166303e9e609866040518263ffffffff1660e01b8152600401610fba91815260200190565b600060405180830381865afa158015610fd7573d6000803e3d6000fd5b505050506040513d6000823e601f3d908101601f19168201604052610fff9190810190612b5e565b60200151604001516001600160401b03168c6001600160401b038016611881565b6040516378bd793560e01b8152600481018690529091506000906001600160a01b038516906378bd79359060240160e060405180830381865afa15801561106b573d6000803e3d6000fd5b505050506040513d601f19601f8201168201806040525081019061108f9190612c65565b50604081015160600151909150801580159061111d5750846001600160a01b0316630afe1bb36040518163ffffffff1660e01b8152600401602060405180830381865afa1580156110e4573d6000803e3d6000fd5b505050506040513d601f19601f820116820180604052508101906111089190612d02565b6001600160401b031661111b8285612d1f565b115b1561113b57604051631bb03f9d60e01b815260040160405180910390fd5b61115260375461114a8b6114d8565b6127106118b7565b8b52505050505b5050505b8351611168906109e4565b60208501528451611178906109e4565b60208601525092959194509092505050565b600061119581611214565b610751826116cc565b60006001600160e01b03198216637965db0b60e01b148061050157506301ffc9a760e01b6001600160e01b0319831614610501565b6000611209846111f9876000015160070b8860400151866111f49190612d32565b6119a1565b6112046001876119a1565b6118b7565b90505b949350505050565b61121e81336119fb565b50565b603580546001600160a01b0319166001600160a01b0385169081179091556039839055603a8290558190336001600160a01b03167f671083457675651266070f50f1438ef8190b7da64d38f16f5117246236b7dd5b8560405161128691815260200190565b60405180910390a4505050565b61129d8282611a54565b60008281526002602052604090206106b89082611abf565b60408051808201909152600080825260208201523390603854839060005b82811015611380578686828181106112ed576112ed612a2c565b9050604002018036038101906113039190612d59565b9350611313828560000151611ad4565b6020808601805187516000908152603c90935260409283902055865190519151929450916001600160a01b038816917f85211e946be6d537cd1b22a183d04151d4e5d0818e1ce75d2e5ebaecba0a5a779161137091815260200190565b60405180910390a36001016112d3565b5060385481146113c657603881905560405181906001600160a01b038616907f7e7c3a4273ac1af351af63a82e91a8335bcb389ba681375a32dbe4455d0d474b90600090a35b505050505050565b6113d88282611ae3565b60008281526002602052604090206106b89082611b4a565b868015806113fe5750858114155b806114095750838114155b806114145750818114155b1561143257604051634ec4810560e11b815260040160405180910390fd5b98975050505050505050565b60008061144a86610507565b6000888152603d6020526040902090915083806114675750805482115b925082156114c157818155426001820155604080518381526020810187905287918a916001600160a01b038d16917f60d5fd6d2284807447aae62f93c05517a647b8e8479c3af2c27ee1d1c85b540f910160405180910390a45b50509695505050505050565b805160209091012090565b6000818152603d6020526040812060018101548083036114fc575060009392505050565b60006115088242612d1f565b835460408051808201909152603b546001600160c01b0381168252600160c01b90046001600160401b03166020820152919250611549919061271084611b5f565b95945050505050565b604080516080810182526000808252602082018190529181018290526060810191909152600061158b600185604001516111f490612d8b565b90506001600160ff1b038111156115c1576040808501519051633e87ca5d60e11b815260039190910b600482015260240161073e565b60006115d160016111f486612d8b565b90506001600160ff1b0381111561160157604051633e87ca5d60e11b8152600385900b600482015260240161073e565b845160009060070b6116138385612dae565b61161d9190612df4565b9050677fffffffffffffff81131561166957604086810151875191516329b2fb5560e11b8152600391820b60048201529087900b602482015260079190910b604482015260640161073e565b60405180608001604052808260070b815260200187602001516001600160401b031681526020018660030b81526020018760600151815250935050505092915050565b6000610a8f8383611c35565b6000610501825490565b6107518282611293565b6037819055604051819033907f1e97e29c863545fad1ce79512b4deb3f0b7d30c3356bc7bbbd6588c9e68cf07390600090a350565b80603b61170e8282612e37565b503390507fa7f38b74141f9a2ac1b02640ded2b98431ef77f8cf2e3ade85c71d6c8420dc646117406020840184612e79565b6117506040850160208601612e96565b604080516001600160c01b0390931683526001600160401b0390911660208301520160405180910390a250565b600080600080845190505b808310156118635760008584815181106117a4576117a4612a2c565b01602001516001600160f81b0319169050600160ff1b8110156117cc57600184019350611857565b600760fd1b6001600160f81b0319821610156117ed57600284019350611857565b600f60fc1b6001600160f81b03198216101561180e57600384019350611857565b601f60fb1b6001600160f81b03198216101561182f57600484019350611857565b603f60fa1b6001600160f81b03198216101561185057600584019350611857565b6006840193505b50600190910190611788565b509392505050565b600081831061187a5781610a8f565b5090919050565b60008184118061189057508183115b1561189c575080610a8f565b6118a68484611c5f565b905081811115610a8f575092915050565b60008080600019858709858702925082811083820303915050806000036118f1578382816118e7576118e7612dde565b0492505050610a8f565b8084116119385760405162461bcd60e51b81526020600482015260156024820152744d6174683a206d756c446976206f766572666c6f7760581b604482015260640161073e565b60008486880960026001871981018816978890046003810283188082028403028082028403028082028403028082028403028082028403029081029092039091026000889003889004909101858311909403939093029303949094049190911702949350505050565b6000808260030b12156119d3576119b782612d8b565b6119c290600a612f97565b6119cc9084612fa9565b9050610501565b60008260030b13156119f4576119ea82600a612f97565b6119cc9084612a75565b5081610501565b611a058282610a96565b61075157611a1281611c73565b611a1d836020611c85565b604051602001611a2e929190612fbd565b60408051601f198184030181529082905262461bcd60e51b825261073e91600401613032565b611a5e8282610a96565b6107515760008281526001602081815260408084206001600160a01b0386168086529252808420805460ff19169093179092559051339285917f2f8788117e7eff1d82e926ec794901d17c78024a50270940304540a733656f0d9190a45050565b6000610a8f836001600160a01b038416611e20565b600081831161187a5781610a8f565b611aed8282610a96565b156107515760008281526001602090815260408083206001600160a01b0385168085529252808320805460ff1916905551339285917ff6391f5c32d9c69d2a47ea670b442974b53935d1edc7fd64eb21e047a839171b9190a45050565b6000610a8f836001600160a01b038416611e6f565b60008085602001516001600160401b031683611b7b9190612fa9565b9050801580611b92575085516001600160c01b0316155b15611ba0578491505061120c565b85516001600160c01b03166001600160401b03851603611bc457600091505061120c565b61ffff811115611bea57604051637359f25f60e01b81526004810182905260240161073e565b6000611c1a8760000151866001600160401b0316036001600160c01b0316612710876001600160401b03166118b7565b9050611c2a868261271085611f62565b979650505050505050565b6000826000018281548110611c4c57611c4c612a2c565b9060005260206000200154905092915050565b818101828110156105015750600019610501565b60606105016001600160a01b03831660145b60606000611c94836002612a75565b611c9f906002613065565b6001600160401b03811115611cb657611cb6612643565b6040519080825280601f01601f191660200182016040528015611ce0576020820181803683370190505b509050600360fc1b81600081518110611cfb57611cfb612a2c565b60200101906001600160f81b031916908160001a905350600f60fb1b81600181518110611d2a57611d2a612a2c565b60200101906001600160f81b031916908160001a9053506000611d4e846002612a75565b611d59906001613065565b90505b6001811115611dd1576f181899199a1a9b1b9c1cb0b131b232b360811b85600f1660108110611d8d57611d8d612a2c565b1a60f81b828281518110611da357611da3612a2c565b60200101906001600160f81b031916908160001a90535060049490941c93611dca81613078565b9050611d5c565b508315610a8f5760405162461bcd60e51b815260206004820181905260248201527f537472696e67733a20686578206c656e67746820696e73756666696369656e74604482015260640161073e565b6000818152600183016020526040812054611e6757508154600181810184556000848152602080822090930184905584548482528286019093526040902091909155610501565b506000610501565b60008181526001830160205260408120548015611f58576000611e93600183612d1f565b8554909150600090611ea790600190612d1f565b9050818114611f0c576000866000018281548110611ec757611ec7612a2c565b9060005260206000200154905080876000018481548110611eea57611eea612a2c565b6000918252602080832090910192909255918252600188019052604090208390555b8554869080611f1d57611f1d61308f565b600190038181906000526020600020016000905590558560010160008681526020019081526020016000206000905560019350505050610501565b6000915050610501565b600082841480611f74575061ffff8216155b15611f8057508361120c565b50836000808080611fa161ffff8716611f988a6120c5565b61ffff1661186b565b90505b61ffff811615611ff757611fbe8561ffff83168a0a612296565b90945092508315611fd757829450808603955080820191505b611ff0600261ffff83160461ffff168761ffff1661186b565b9050611fa4565b505b61ffff85161561206a5761200d8488612296565b9093509150821561202c57600019909401939092508290600101611ff9565b61ffff8116156120515785848161204557612045612dde565b04935060001901611ff9565b61205c8488886118b7565b600019909501949350611ff9565b6000612075876120c5565b90505b61ffff8216156120b95760006120968261ffff168461ffff1661186b565b90508061ffff16880a86816120ad576120ad612dde565b04955090910390612078565b50505050949350505050565b600060038210156120d8575060ff919050565b60048210156120e957506080919050565b60108210156120fa57506040919050565b61010082101561210c57506020919050565b611bdc82101561211e57506014919050565b612c7082101561213057506013919050565b614aa982101561214257506012919050565b61855482101561215457506011919050565b6201000082101561216757506010919050565b6202183782101561217a5750600f919050565b6204e04682101561218d5750600e919050565b620ced4c8210156121a05750600d919050565b622851468210156121b35750600c919050565b629aa2ad8210156121c65750600b919050565b6303080c018210156121da5750600a919050565b6315c5cbbd8210156121ee57506009919050565b64010000000082101561220357506008919050565b6417c6a1f29f82101561221857506007919050565b6506597fa94f5c82101561222e57506006919050565b66093088c35d733b82101561224557506005919050565b6801000000000000000082101561225e57506004919050565b6a285145f31ae515c447bb5782101561227957506003919050565b600160801b82101561228d57506002919050565b5060015b919050565b600080836000036122ad57506001905060006122da565b838302838582816122c0576122c0612dde565b04146122d35760008092509250506122da565b6001925090505b9250929050565b6000602082840312156122f357600080fd5b81356001600160e01b031981168114610a8f57600080fd5b60006020828403121561231d57600080fd5b5035919050565b602080825282518282018190526000919060409081850190868401855b8281101561236e5761235e84835180518252602090810151910152565b9284019290850190600101612341565b5091979650505050505050565b6001600160a01b038116811461121e57600080fd5b80356122918161237b565b6000806000606084860312156123b057600080fd5b83356123bb8161237b565b95602085013595506040909401359392505050565b600080604083850312156123e357600080fd5b8235915060208301356123f58161237b565b809150509250929050565b60008083601f84011261241257600080fd5b5081356001600160401b0381111561242957600080fd5b6020830191508360208260061b85010111156122da57600080fd5b6000806020838503121561245757600080fd5b82356001600160401b0381111561246d57600080fd5b61247985828601612400565b90969095509350505050565b60008083601f84011261249757600080fd5b5081356001600160401b038111156124ae57600080fd5b6020830191508360208260051b85010111156122da57600080fd5b6000806000806000806000806080898b0312156124e557600080fd5b88356001600160401b03808211156124fc57600080fd5b6125088c838d01612485565b909a50985060208b013591508082111561252157600080fd5b61252d8c838d01612485565b909850965060408b013591508082111561254657600080fd5b6125528c838d01612485565b909650945060608b013591508082111561256b57600080fd5b506125788b828c01612485565b999c989b5096995094979396929594505050565b6020808252825182820181905260009190848201906040850190845b818110156125c65783511515835292840192918401916001016125a8565b50909695505050505050565b600080602083850312156125e557600080fd5b82356001600160401b03808211156125fc57600080fd5b818501915085601f83011261261057600080fd5b81358181111561261f57600080fd5b86602082850101111561263157600080fd5b60209290920196919550909350505050565b634e487b7160e01b600052604160045260246000fd5b604051608081016001600160401b038111828210171561267b5761267b612643565b60405290565b604080519081016001600160401b038111828210171561267b5761267b612643565b604051606081016001600160401b038111828210171561267b5761267b612643565b604051601f8201601f191681016001600160401b03811182821017156126ed576126ed612643565b604052919050565b60006001600160401b0382111561270e5761270e612643565b50601f01601f191660200190565b600082601f83011261272d57600080fd5b813561274061273b826126f5565b6126c5565b81815284602083860101111561275557600080fd5b816020850160208301376000918101602001919091529392505050565b60006020828403121561278457600080fd5b81356001600160401b0381111561279a57600080fd5b61120c8482850161271c565b600080604083850312156127b957600080fd5b50508035926020909101359150565b6000604082840312156127da57600080fd5b50919050565b60008060008060008060008060008060006101408c8e03121561280257600080fd5b61280c8c3561237b565b8b359a506001600160401b038060208e0135111561282957600080fd5b6128398e60208f01358f01612485565b909b50995060408d013581101561284f57600080fd5b506128608d60408e01358e01612400565b909850965060608c013595506128798d60808e016127c8565b945060c08c01356128898161237b565b935061289760e08d01612390565b92506101008c013591506101208c013590509295989b509295989b9093969950565b600080600080604085870312156128cf57600080fd5b84356001600160401b03808211156128e657600080fd5b6128f288838901612485565b9096509450602087013591508082111561290b57600080fd5b5061291887828801612485565b95989497509550505050565b60006040828403121561293657600080fd5b610a8f83836127c8565b6000806040838503121561295357600080fd5b82356001600160401b0381111561296957600080fd5b6129758582860161271c565b95602094909401359450505050565b825181526020808401518183015282516040830152820151606082015260808101610a8f565b6001600160401b038116811461121e57600080fd5b6000608082840312156129d157600080fd5b6129d9612659565b82518060070b81146129ea57600080fd5b815260208301516129fa816129aa565b60208201526040830151600381900b8114612a1457600080fd5b60408201526060928301519281019290925250919050565b634e487b7160e01b600052603260045260246000fd5b600060208284031215612a5457600080fd5b8135610a8f8161237b565b634e487b7160e01b600052601160045260246000fd5b808202811582820484141761050157610501612a5f565b8051801515811461229157600080fd5b600060208284031215612aae57600080fd5b610a8f82612a8c565b600060208284031215612ac957600080fd5b8151610a8f8161237b565b60005b83811015612aef578181015183820152602001612ad7565b50506000910152565b600060808284031215612b0a57600080fd5b612b12612659565b90508151612b1f8161237b565b81526020820151612b2f8161237b565b60208201526040820151612b42816129aa565b6040820152612b5360608301612a8c565b606082015292915050565b60006020808385031215612b7157600080fd5b82516001600160401b0380821115612b8857600080fd5b9084019060a08287031215612b9c57600080fd5b612ba4612681565b825182811115612bb357600080fd5b830160608189031215612bc557600080fd5b612bcd6126a3565b815160ff81168114612bde57600080fd5b81528186015186820152604082015184811115612bfa57600080fd5b82019350601f84018913612c0d57600080fd5b83519150612c1d61273b836126f5565b8281528987848701011115612c3157600080fd5b612c4083888301898801612ad4565b6040820152825250612c5487848601612af8565b848201528094505050505092915050565b60008082840360e0811215612c7957600080fd5b60c0811215612c8757600080fd5b612c8f6126a3565b84518152602085015160208201526080603f1983011215612caf57600080fd5b612cb7612659565b91506040850151612cc78161237b565b80835250606085015160208301526080850151604083015260a08501516060830152816040820152809350505060c083015190509250929050565b600060208284031215612d1457600080fd5b8151610a8f816129aa565b8181038181111561050157610501612a5f565b600381810b9083900b01637fffffff8113637fffffff198212171561050157610501612a5f565b600060408284031215612d6b57600080fd5b612d73612681565b82358152602083013560208201528091505092915050565b60008160030b637fffffff198103612da557612da5612a5f565b60000392915050565b80820260008212600160ff1b84141615612dca57612dca612a5f565b818105831482151761050157610501612a5f565b634e487b7160e01b600052601260045260246000fd5b600082612e0357612e03612dde565b600160ff1b821460001984141615612e1d57612e1d612a5f565b500590565b6001600160c01b038116811461121e57600080fd5b8135612e4281612e22565b81546001600160c01b03199081166001600160c01b039290921691821783556020840135612e6f816129aa565b60c01b1617905550565b600060208284031215612e8b57600080fd5b8135610a8f81612e22565b600060208284031215612ea857600080fd5b8135610a8f816129aa565b600181815b80851115612eee578160001904821115612ed457612ed4612a5f565b80851615612ee157918102915b93841c9390800290612eb8565b509250929050565b600082612f0557506001610501565b81612f1257506000610501565b8160018114612f285760028114612f3257612f4e565b6001915050610501565b60ff841115612f4357612f43612a5f565b50506001821b610501565b5060208310610133831016604e8410600b8410161715612f71575081810a610501565b612f7b8383612eb3565b8060001904821115612f8f57612f8f612a5f565b029392505050565b6000610a8f63ffffffff841683612ef6565b600082612fb857612fb8612dde565b500490565b7f416363657373436f6e74726f6c3a206163636f756e7420000000000000000000815260008351612ff5816017850160208801612ad4565b7001034b99036b4b9b9b4b733903937b6329607d1b6017918401918201528351613026816028840160208801612ad4565b01602801949350505050565b6020815260008251806020840152613051816040850160208701612ad4565b601f01601f19169190910160400192915050565b8082018082111561050157610501612a5f565b60008161308757613087612a5f565b506000190190565b634e487b7160e01b600052603160045260246000fdfe97667070c54ef182b0f5858b034beac1b6f3089aa2d3188bb1e8929f4fa9b929a2646970667358221220ba899357ff149897aea9e63c3a06e271fed944932d819738c722c1c923e6a3d464736f6c63430008150033",
  "chainId": 2021,
  "contractName": "RNSDomainPrice",
  "deployer": "0x968D0Cd7343f711216817E617d3f92a23dC91c07",
  "devdoc": {
    "version": 1,
    "kind": "dev",
    "methods": {
      "bulkOverrideRenewalFees(bytes32[],uint256[])": {
        "details": "Bulk override renewal fees. Requirements: - The method caller is operator. - The input array lengths must be larger than 0 and the same. Emits events {RenewalFeeOverridingUpdated}.",
        "params": {
          "lbHashes": "Array of label hashes. (Eg, ['foo'].map(keccak256) for 'foo.ron')",
          "usdPrices": "Array of prices in USD. Leave 2^256 - 1 to remove overriding."
        }
      },
      "bulkSetDomainPrice(bytes32[],uint256[],bytes32[],uint256[])": {
        "details": "Bulk override domain prices. Requirements: - The method caller is operator. - The input array lengths must be larger than 0 and the same. Emits events {DomainPriceUpdated}.",
        "params": {
          "lbHashes": "Array of label hashes. (Eg, ['foo'].map(keccak256) for 'foo.ron')",
          "proofHashes": "Array of proof hashes.",
          "ronPrices": "Array of prices in (W)RON token.",
          "setTypes": "Array of update types from the operator service."
        }
      },
      "bulkTrySetDomainPrice(bytes32[],uint256[],bytes32[],uint256[])": {
        "details": "Bulk try to set domain prices. Returns a boolean array indicating whether domain prices at the corresponding indexes if set or not. Requirements: - The method caller is operator. - The input array lengths must be larger than 0 and the same. - The price should be larger than current domain price or it will not be updated. Emits events {DomainPriceUpdated} optionally.",
        "params": {
          "lbHashes": "Array of label hashes. (Eg, ['foo'].map(keccak256) for 'foo.ron')",
          "proofHashes": "Array of proof hashes.",
          "ronPrices": "Array of prices in (W)RON token.",
          "setTypes": "Array of update types from the operator service."
        }
      },
      "convertRONToUSD(uint256)": {
        "details": "Returns the converted amount from RON to USD."
      },
      "convertUSDToRON(uint256)": {
        "details": "Returns the converted amount from USD to RON."
      },
      "getDomainPrice(string)": {
        "details": "Return the domain price.",
        "params": {
          "label": "The domain label to register (Eg, 'foo' for 'foo.ron')."
        }
      },
      "getOverriddenRenewalFee(string)": {
        "details": "Returns the renewal fee of a label. Reverts if not overridden."
      },
      "getPythOracleConfig()": {
        "details": "Returns the Pyth oracle config."
      },
      "getRenewalFee(string,uint256)": {
        "details": "Returns the renewal fee in USD and RON.",
        "params": {
          "duration": "Amount of second(s).",
          "label": "The domain label to register (Eg, 'foo' for 'foo.ron')."
        }
      },
      "getRenewalFeeByLengths()": {
        "details": "Returns the renewal fee by lengths."
      },
      "getRoleAdmin(bytes32)": {
        "details": "Returns the admin role that controls `role`. See {grantRole} and {revokeRole}. To change a role's admin, use {_setRoleAdmin}."
      },
      "getRoleMember(bytes32,uint256)": {
        "details": "Returns one of the accounts that have `role`. `index` must be a value between 0 and {getRoleMemberCount}, non-inclusive. Role bearers are not sorted in any particular way, and their ordering may change at any point. WARNING: When using {getRoleMember} and {getRoleMemberCount}, make sure you perform all queries on the same block. See the following https://forum.openzeppelin.com/t/iterating-over-elements-on-enumerableset-in-openzeppelin-contracts/2296[forum post] for more information."
      },
      "getRoleMemberCount(bytes32)": {
        "details": "Returns the number of accounts that have `role`. Can be used together with {getRoleMember} to enumerate all bearers of a role."
      },
      "getScaleDownRuleForDomainPrice()": {
        "details": "Returns the percentage to scale from domain price each period."
      },
      "getTaxRatio()": {
        "details": "Returns tax ratio."
      },
      "grantRole(bytes32,address)": {
        "details": "Grants `role` to `account`. If `account` had not been already granted `role`, emits a {RoleGranted} event. Requirements: - the caller must have ``role``'s admin role. May emit a {RoleGranted} event."
      },
      "hasRole(bytes32,address)": {
        "details": "Returns `true` if `account` has been granted `role`."
      },
      "renounceRole(bytes32,address)": {
        "details": "Revokes `role` from the calling account. Roles are often managed via {grantRole} and {revokeRole}: this function's purpose is to provide a mechanism for accounts to lose their privileges if they are compromised (such as when a trusted device is misplaced). If the calling account had been revoked `role`, emits a {RoleRevoked} event. Requirements: - the caller must be `account`. May emit a {RoleRevoked} event."
      },
      "revokeRole(bytes32,address)": {
        "details": "Revokes `role` from `account`. If `account` had been granted `role`, emits a {RoleRevoked} event. Requirements: - the caller must have ``role``'s admin role. May emit a {RoleRevoked} event."
      },
      "setPythOracleConfig(address,uint256,bytes32)": {
        "details": "Sets the Pyth oracle config. Requirements: - The method caller is admin. Emits events {PythOracleConfigUpdated}."
      },
      "setRenewalFeeByLengths((uint256,uint256)[])": {
        "details": "Sets the renewal fee by lengths Requirements: - The method caller is admin. Emits events {RenewalFeeByLengthUpdated}. Emits an event {MaxRenewalFeeLengthUpdated} optionally."
      },
      "setScaleDownRuleForDomainPrice((uint192,uint64))": {
        "details": "Sets the percentage to scale from domain price each period. Requirements: - The method caller is admin. Emits events {DomainPriceScaleRuleUpdated}."
      },
      "setTaxRatio(uint256)": {
        "details": "Sets renewal reservation ratio. Requirements: - The method caller is admin. Emits an event {TaxRatioUpdated}."
      },
      "supportsInterface(bytes4)": {
        "details": "See {IERC165-supportsInterface}."
      }
    },
    "events": {
      "DomainPriceScaleRuleUpdated(address,uint192,uint64)": {
        "details": "Emitted when the rule to rescale domain price is updated."
      },
      "DomainPriceUpdated(address,bytes32,uint256,bytes32,uint256)": {
        "details": "Emitted when the domain price is updated."
      },
      "Initialized(uint8)": {
        "details": "Triggered when the contract has been initialized or reinitialized."
      },
      "MaxRenewalFeeLengthUpdated(address,uint256)": {
        "details": "Emitted when the maximum length of renewal fee is updated."
      },
      "PythOracleConfigUpdated(address,address,uint256,bytes32)": {
        "details": "Emitted when the Pyth Oracle config is updated."
      },
      "RenewalFeeByLengthUpdated(address,uint256,uint256)": {
        "details": "Emitted when the renew fee is updated."
      },
      "RenewalFeeOverridingUpdated(address,bytes32,uint256)": {
        "details": "Emitted when the renew fee of a domain is overridden. Value of `inverseRenewalFee` is 0 when not overridden."
      },
      "RoleAdminChanged(bytes32,bytes32,bytes32)": {
        "details": "Emitted when `newAdminRole` is set as ``role``'s admin role, replacing `previousAdminRole` `DEFAULT_ADMIN_ROLE` is the starting admin for all roles, despite {RoleAdminChanged} not being emitted signaling this. _Available since v3.1._"
      },
      "RoleGranted(bytes32,address,address)": {
        "details": "Emitted when `account` is granted `role`. `sender` is the account that originated the contract call, an admin role bearer except when using {AccessControl-_setupRole}."
      },
      "RoleRevoked(bytes32,address,address)": {
        "details": "Emitted when `account` is revoked `role`. `sender` is the account that originated the contract call:   - if using `revokeRole`, it is the admin role bearer   - if using `renounceRole`, it is the role bearer (i.e. `account`)"
      },
      "TaxRatioUpdated(address,uint256)": {
        "details": "Emitted when the renewal reservation ratio is updated."
      }
    }
  },
  "isFoundry": true,
  "nonce": 182568,
  "numDeployments": 2,
  "storageLayout": {
    "storage": [
      {
        "astId": 49702,
        "contract": "src/RNSDomainPrice.sol:RNSDomainPrice",
        "label": "_initialized",
        "offset": 0,
        "slot": "0",
        "type": "t_uint8"
      },
      {
        "astId": 49705,
        "contract": "src/RNSDomainPrice.sol:RNSDomainPrice",
        "label": "_initializing",
        "offset": 1,
        "slot": "0",
        "type": "t_bool"
      },
      {
        "astId": 48175,
        "contract": "src/RNSDomainPrice.sol:RNSDomainPrice",
        "label": "_roles",
        "offset": 0,
        "slot": "1",
        "type": "t_mapping(t_bytes32,t_struct(RoleData)48170_storage)"
      },
      {
        "astId": 48485,
        "contract": "src/RNSDomainPrice.sol:RNSDomainPrice",
        "label": "_roleMembers",
        "offset": 0,
        "slot": "2",
        "type": "t_mapping(t_bytes32,t_struct(AddressSet)54054_storage)"
      },
      {
        "astId": 59676,
        "contract": "src/RNSDomainPrice.sol:RNSDomainPrice",
        "label": "____gap",
        "offset": 0,
        "slot": "3",
        "type": "t_array(t_uint256)50_storage"
      },
      {
        "astId": 59680,
        "contract": "src/RNSDomainPrice.sol:RNSDomainPrice",
        "label": "_pyth",
        "offset": 0,
        "slot": "53",
        "type": "t_contract(IPyth)54460"
      },
      {
        "astId": 59684,
        "contract": "src/RNSDomainPrice.sol:RNSDomainPrice",
        "label": "_auction",
        "offset": 0,
        "slot": "54",
        "type": "t_contract(INSAuction)64365"
      },
      {
        "astId": 59687,
        "contract": "src/RNSDomainPrice.sol:RNSDomainPrice",
        "label": "_taxRatio",
        "offset": 0,
        "slot": "55",
        "type": "t_uint256"
      },
      {
        "astId": 59690,
        "contract": "src/RNSDomainPrice.sol:RNSDomainPrice",
        "label": "_rnfMaxLength",
        "offset": 0,
        "slot": "56",
        "type": "t_uint256"
      },
      {
        "astId": 59693,
        "contract": "src/RNSDomainPrice.sol:RNSDomainPrice",
        "label": "_maxAcceptableAge",
        "offset": 0,
        "slot": "57",
        "type": "t_uint256"
      },
      {
        "astId": 59696,
        "contract": "src/RNSDomainPrice.sol:RNSDomainPrice",
        "label": "_pythIdForRONUSD",
        "offset": 0,
        "slot": "58",
        "type": "t_bytes32"
      },
      {
        "astId": 59700,
        "contract": "src/RNSDomainPrice.sol:RNSDomainPrice",
        "label": "_dpDownScaler",
        "offset": 0,
        "slot": "59",
        "type": "t_struct(PeriodScaler)66624_storage"
      },
      {
        "astId": 59705,
        "contract": "src/RNSDomainPrice.sol:RNSDomainPrice",
        "label": "_rnFee",
        "offset": 0,
        "slot": "60",
        "type": "t_mapping(t_uint256,t_uint256)"
      },
      {
        "astId": 59711,
        "contract": "src/RNSDomainPrice.sol:RNSDomainPrice",
        "label": "_dp",
        "offset": 0,
        "slot": "61",
        "type": "t_mapping(t_bytes32,t_struct(TimestampWrapper)66547_storage)"
      },
      {
        "astId": 59716,
        "contract": "src/RNSDomainPrice.sol:RNSDomainPrice",
        "label": "_rnFeeOverriding",
        "offset": 0,
        "slot": "62",
        "type": "t_mapping(t_bytes32,t_uint256)"
      }
    ],
    "types": {
      "t_address": {
        "encoding": "inplace",
        "label": "address",
        "numberOfBytes": "20"
      },
      "t_array(t_bytes32)dyn_storage": {
        "encoding": "dynamic_array",
        "label": "bytes32[]",
        "numberOfBytes": "32",
        "base": "t_bytes32"
      },
      "t_array(t_uint256)50_storage": {
        "encoding": "inplace",
        "label": "uint256[50]",
        "numberOfBytes": "1600",
        "base": "t_uint256"
      },
      "t_bool": {
        "encoding": "inplace",
        "label": "bool",
        "numberOfBytes": "1"
      },
      "t_bytes32": {
        "encoding": "inplace",
        "label": "bytes32",
        "numberOfBytes": "32"
      },
      "t_contract(INSAuction)64365": {
        "encoding": "inplace",
        "label": "contract INSAuction",
        "numberOfBytes": "20"
      },
      "t_contract(IPyth)54460": {
        "encoding": "inplace",
        "label": "contract IPyth",
        "numberOfBytes": "20"
      },
      "t_mapping(t_address,t_bool)": {
        "encoding": "mapping",
        "key": "t_address",
        "label": "mapping(address => bool)",
        "numberOfBytes": "32",
        "value": "t_bool"
      },
      "t_mapping(t_bytes32,t_struct(AddressSet)54054_storage)": {
        "encoding": "mapping",
        "key": "t_bytes32",
        "label": "mapping(bytes32 => struct EnumerableSet.AddressSet)",
        "numberOfBytes": "32",
        "value": "t_struct(AddressSet)54054_storage"
      },
      "t_mapping(t_bytes32,t_struct(RoleData)48170_storage)": {
        "encoding": "mapping",
        "key": "t_bytes32",
        "label": "mapping(bytes32 => struct AccessControl.RoleData)",
        "numberOfBytes": "32",
        "value": "t_struct(RoleData)48170_storage"
      },
      "t_mapping(t_bytes32,t_struct(TimestampWrapper)66547_storage)": {
        "encoding": "mapping",
        "key": "t_bytes32",
        "label": "mapping(bytes32 => struct TimestampWrapper)",
        "numberOfBytes": "32",
        "value": "t_struct(TimestampWrapper)66547_storage"
      },
      "t_mapping(t_bytes32,t_uint256)": {
        "encoding": "mapping",
        "key": "t_bytes32",
        "label": "mapping(bytes32 => uint256)",
        "numberOfBytes": "32",
        "value": "t_uint256"
      },
      "t_mapping(t_uint256,t_uint256)": {
        "encoding": "mapping",
        "key": "t_uint256",
        "label": "mapping(uint256 => uint256)",
        "numberOfBytes": "32",
        "value": "t_uint256"
      },
      "t_struct(AddressSet)54054_storage": {
        "encoding": "inplace",
        "label": "struct EnumerableSet.AddressSet",
        "numberOfBytes": "64",
        "members": [
          {
            "astId": 54053,
            "contract": "src/RNSDomainPrice.sol:RNSDomainPrice",
            "label": "_inner",
            "offset": 0,
            "slot": "0",
            "type": "t_struct(Set)53739_storage"
          }
        ]
      },
      "t_struct(PeriodScaler)66624_storage": {
        "encoding": "inplace",
        "label": "struct PeriodScaler",
        "numberOfBytes": "32",
        "members": [
          {
            "astId": 66621,
            "contract": "src/RNSDomainPrice.sol:RNSDomainPrice",
            "label": "ratio",
            "offset": 0,
            "slot": "0",
            "type": "t_uint192"
          },
          {
            "astId": 66623,
            "contract": "src/RNSDomainPrice.sol:RNSDomainPrice",
            "label": "period",
            "offset": 24,
            "slot": "0",
            "type": "t_uint64"
          }
        ]
      },
      "t_struct(RoleData)48170_storage": {
        "encoding": "inplace",
        "label": "struct AccessControl.RoleData",
        "numberOfBytes": "64",
        "members": [
          {
            "astId": 48167,
            "contract": "src/RNSDomainPrice.sol:RNSDomainPrice",
            "label": "members",
            "offset": 0,
            "slot": "0",
            "type": "t_mapping(t_address,t_bool)"
          },
          {
            "astId": 48169,
            "contract": "src/RNSDomainPrice.sol:RNSDomainPrice",
            "label": "adminRole",
            "offset": 0,
            "slot": "1",
            "type": "t_bytes32"
          }
        ]
      },
      "t_struct(Set)53739_storage": {
        "encoding": "inplace",
        "label": "struct EnumerableSet.Set",
        "numberOfBytes": "64",
        "members": [
          {
            "astId": 53734,
            "contract": "src/RNSDomainPrice.sol:RNSDomainPrice",
            "label": "_values",
            "offset": 0,
            "slot": "0",
            "type": "t_array(t_bytes32)dyn_storage"
          },
          {
            "astId": 53738,
            "contract": "src/RNSDomainPrice.sol:RNSDomainPrice",
            "label": "_indexes",
            "offset": 0,
            "slot": "1",
            "type": "t_mapping(t_bytes32,t_uint256)"
          }
        ]
      },
      "t_struct(TimestampWrapper)66547_storage": {
        "encoding": "inplace",
        "label": "struct TimestampWrapper",
        "numberOfBytes": "64",
        "members": [
          {
            "astId": 66544,
            "contract": "src/RNSDomainPrice.sol:RNSDomainPrice",
            "label": "value",
            "offset": 0,
            "slot": "0",
            "type": "t_uint256"
          },
          {
            "astId": 66546,
            "contract": "src/RNSDomainPrice.sol:RNSDomainPrice",
            "label": "timestamp",
            "offset": 0,
            "slot": "1",
            "type": "t_uint256"
          }
        ]
      },
      "t_uint192": {
        "encoding": "inplace",
        "label": "uint192",
        "numberOfBytes": "24"
      },
      "t_uint256": {
        "encoding": "inplace",
        "label": "uint256",
        "numberOfBytes": "32"
      },
      "t_uint64": {
        "encoding": "inplace",
        "label": "uint64",
        "numberOfBytes": "8"
      },
      "t_uint8": {
        "encoding": "inplace",
        "label": "uint8",
        "numberOfBytes": "1"
      }
    }
  },
  "timestamp": 1698032742,
  "userdoc": {
    "version": 1,
    "kind": "user",
    "methods": {
      "getOverriddenRenewalFee(string)": {
        "notice": "This method is to help developers check the domain renewal fee overriding. Consider using method {getRenewalFee} instead for full handling of renewal fees."
      },
      "setScaleDownRuleForDomainPrice((uint192,uint64))": {
        "notice": "Applies for the business rule: -x% each y seconds."
      }
    }
  }
}