{
  "abi": [
    {
      "inputs": [],
      "stateMutability": "payable",
      "type": "constructor"
    },
    {
      "inputs": [
        {
          "internalType": "int32",
          "name": "expo1",
          "type": "int32"
        },
        {
          "internalType": "int32",
          "name": "expo2",
          "type": "int32"
        },
        {
          "internalType": "int64",
          "name": "price1",
          "type": "int64"
        }
      ],
      "name": "ErrComputedPriceTooLarge",
      "type": "error"
    },
    {
      "inputs": [
        {
          "internalType": "int32",
          "name": "expo",
          "type": "int32"
        }
      ],
      "name": "ErrExponentTooLarge",
      "type": "error"
    },
    {
      "inputs": [],
      "name": "InvalidArrayLength",
      "type": "error"
    },
    {
      "inputs": [
        {
          "internalType": "uint256",
          "name": "n",
          "type": "uint256"
        }
      ],
      "name": "PeriodNumOverflowedUint16",
      "type": "error"
    },
    {
      "inputs": [],
      "name": "RenewalFeeIsNotOverriden",
      "type": "error"
    },
    {
      "anonymous": false,
      "inputs": [
        {
          "indexed": true,
          "internalType": "address",
          "name": "operator",
          "type": "address"
        },
        {
          "indexed": false,
          "internalType": "uint192",
          "name": "ratio",
          "type": "uint192"
        },
        {
          "indexed": false,
          "internalType": "uint64",
          "name": "period",
          "type": "uint64"
        }
      ],
      "name": "DomainPriceScaleRuleUpdated",
      "type": "event"
    },
    {
      "anonymous": false,
      "inputs": [
        {
          "indexed": true,
          "internalType": "address",
          "name": "operator",
          "type": "address"
        },
        {
          "indexed": true,
          "internalType": "bytes32",
          "name": "labelHash",
          "type": "bytes32"
        },
        {
          "indexed": false,
          "internalType": "uint256",
          "name": "price",
          "type": "uint256"
        },
        {
          "indexed": true,
          "internalType": "bytes32",
          "name": "proofHash",
          "type": "bytes32"
        },
        {
          "indexed": false,
          "internalType": "uint256",
          "name": "setType",
          "type": "uint256"
        }
      ],
      "name": "DomainPriceUpdated",
      "type": "event"
    },
    {
      "anonymous": false,
      "inputs": [
        {
          "indexed": false,
          "internalType": "uint8",
          "name": "version",
          "type": "uint8"
        }
      ],
      "name": "Initialized",
      "type": "event"
    },
    {
      "anonymous": false,
      "inputs": [
        {
          "indexed": true,
          "internalType": "address",
          "name": "operator",
          "type": "address"
        },
        {
          "indexed": true,
          "internalType": "uint256",
          "name": "maxLength",
          "type": "uint256"
        }
      ],
      "name": "MaxRenewalFeeLengthUpdated",
      "type": "event"
    },
    {
      "anonymous": false,
      "inputs": [
        {
          "indexed": true,
          "internalType": "address",
          "name": "operator",
          "type": "address"
        },
        {
          "indexed": true,
          "internalType": "contract IPyth",
          "name": "pyth",
          "type": "address"
        },
        {
          "indexed": false,
          "internalType": "uint256",
          "name": "maxAcceptableAge",
          "type": "uint256"
        },
        {
          "indexed": true,
          "internalType": "bytes32",
          "name": "pythIdForRONUSD",
          "type": "bytes32"
        }
      ],
      "name": "PythOracleConfigUpdated",
      "type": "event"
    },
    {
      "anonymous": false,
      "inputs": [
        {
          "indexed": true,
          "internalType": "address",
          "name": "operator",
          "type": "address"
        },
        {
          "indexed": true,
          "internalType": "uint256",
          "name": "labelLength",
          "type": "uint256"
        },
        {
          "indexed": false,
          "internalType": "uint256",
          "name": "renewalFee",
          "type": "uint256"
        }
      ],
      "name": "RenewalFeeByLengthUpdated",
      "type": "event"
    },
    {
      "anonymous": false,
      "inputs": [
        {
          "indexed": true,
          "internalType": "address",
          "name": "operator",
          "type": "address"
        },
        {
          "indexed": true,
          "internalType": "bytes32",
          "name": "labelHash",
          "type": "bytes32"
        },
        {
          "indexed": false,
          "internalType": "uint256",
          "name": "inverseRenewalFee",
          "type": "uint256"
        }
      ],
      "name": "RenewalFeeOverridingUpdated",
      "type": "event"
    },
    {
      "anonymous": false,
      "inputs": [
        {
          "indexed": true,
          "internalType": "bytes32",
          "name": "role",
          "type": "bytes32"
        },
        {
          "indexed": true,
          "internalType": "bytes32",
          "name": "previousAdminRole",
          "type": "bytes32"
        },
        {
          "indexed": true,
          "internalType": "bytes32",
          "name": "newAdminRole",
          "type": "bytes32"
        }
      ],
      "name": "RoleAdminChanged",
      "type": "event"
    },
    {
      "anonymous": false,
      "inputs": [
        {
          "indexed": true,
          "internalType": "bytes32",
          "name": "role",
          "type": "bytes32"
        },
        {
          "indexed": true,
          "internalType": "address",
          "name": "account",
          "type": "address"
        },
        {
          "indexed": true,
          "internalType": "address",
          "name": "sender",
          "type": "address"
        }
      ],
      "name": "RoleGranted",
      "type": "event"
    },
    {
      "anonymous": false,
      "inputs": [
        {
          "indexed": true,
          "internalType": "bytes32",
          "name": "role",
          "type": "bytes32"
        },
        {
          "indexed": true,
          "internalType": "address",
          "name": "account",
          "type": "address"
        },
        {
          "indexed": true,
          "internalType": "address",
          "name": "sender",
          "type": "address"
        }
      ],
      "name": "RoleRevoked",
      "type": "event"
    },
    {
      "anonymous": false,
      "inputs": [
        {
          "indexed": true,
          "internalType": "address",
          "name": "operator",
          "type": "address"
        },
        {
          "indexed": true,
          "internalType": "uint256",
          "name": "ratio",
          "type": "uint256"
        }
      ],
      "name": "TaxRatioUpdated",
      "type": "event"
    },
    {
      "inputs": [],
      "name": "DEFAULT_ADMIN_ROLE",
      "outputs": [
        {
          "internalType": "bytes32",
          "name": "",
          "type": "bytes32"
        }
      ],
      "stateMutability": "view",
      "type": "function"
    },
    {
      "inputs": [],
      "name": "MAX_PERCENTAGE",
      "outputs": [
        {
          "internalType": "uint64",
          "name": "",
          "type": "uint64"
        }
      ],
      "stateMutability": "view",
      "type": "function"
    },
    {
      "inputs": [],
      "name": "OPERATOR_ROLE",
      "outputs": [
        {
          "internalType": "bytes32",
          "name": "",
          "type": "bytes32"
        }
      ],
      "stateMutability": "view",
      "type": "function"
    },
    {
      "inputs": [],
      "name": "USD_DECIMALS",
      "outputs": [
        {
          "internalType": "uint8",
          "name": "",
          "type": "uint8"
        }
      ],
      "stateMutability": "view",
      "type": "function"
    },
    {
      "inputs": [
        {
          "internalType": "bytes32[]",
          "name": "lbHashes",
          "type": "bytes32[]"
        },
        {
          "internalType": "uint256[]",
          "name": "usdPrices",
          "type": "uint256[]"
        }
      ],
      "name": "bulkOverrideRenewalFees",
      "outputs": [],
      "stateMutability": "nonpayable",
      "type": "function"
    },
    {
      "inputs": [
        {
          "internalType": "bytes32[]",
          "name": "lbHashes",
          "type": "bytes32[]"
        },
        {
          "internalType": "uint256[]",
          "name": "ronPrices",
          "type": "uint256[]"
        },
        {
          "internalType": "bytes32[]",
          "name": "proofHashes",
          "type": "bytes32[]"
        },
        {
          "internalType": "uint256[]",
          "name": "setTypes",
          "type": "uint256[]"
        }
      ],
      "name": "bulkSetDomainPrice",
      "outputs": [],
      "stateMutability": "nonpayable",
      "type": "function"
    },
    {
      "inputs": [
        {
          "internalType": "bytes32[]",
          "name": "lbHashes",
          "type": "bytes32[]"
        },
        {
          "internalType": "uint256[]",
          "name": "ronPrices",
          "type": "uint256[]"
        },
        {
          "internalType": "bytes32[]",
          "name": "proofHashes",
          "type": "bytes32[]"
        },
        {
          "internalType": "uint256[]",
          "name": "setTypes",
          "type": "uint256[]"
        }
      ],
      "name": "bulkTrySetDomainPrice",
      "outputs": [
        {
          "internalType": "bool[]",
          "name": "updated",
          "type": "bool[]"
        }
      ],
      "stateMutability": "nonpayable",
      "type": "function"
    },
    {
      "inputs": [
        {
          "internalType": "uint256",
          "name": "ronWei",
          "type": "uint256"
        }
      ],
      "name": "convertRONToUSD",
      "outputs": [
        {
          "internalType": "uint256",
          "name": "usdWei",
          "type": "uint256"
        }
      ],
      "stateMutability": "view",
      "type": "function"
    },
    {
      "inputs": [
        {
          "internalType": "uint256",
          "name": "usdWei",
          "type": "uint256"
        }
      ],
      "name": "convertUSDToRON",
      "outputs": [
        {
          "internalType": "uint256",
          "name": "ronWei",
          "type": "uint256"
        }
      ],
      "stateMutability": "view",
      "type": "function"
    },
    {
      "inputs": [
        {
          "internalType": "string",
          "name": "label",
          "type": "string"
        }
      ],
      "name": "getDomainPrice",
      "outputs": [
        {
          "internalType": "uint256",
          "name": "usdPrice",
          "type": "uint256"
        },
        {
          "internalType": "uint256",
          "name": "ronPrice",
          "type": "uint256"
        }
      ],
      "stateMutability": "view",
      "type": "function"
    },
    {
      "inputs": [
        {
          "internalType": "string",
          "name": "label",
          "type": "string"
        }
      ],
      "name": "getOverriddenRenewalFee",
      "outputs": [
        {
          "internalType": "uint256",
          "name": "usdFee",
          "type": "uint256"
        }
      ],
      "stateMutability": "view",
      "type": "function"
    },
    {
      "inputs": [],
      "name": "getPythOracleConfig",
      "outputs": [
        {
          "internalType": "contract IPyth",
          "name": "pyth",
          "type": "address"
        },
        {
          "internalType": "uint256",
          "name": "maxAcceptableAge",
          "type": "uint256"
        },
        {
          "internalType": "bytes32",
          "name": "pythIdForRONUSD",
          "type": "bytes32"
        }
      ],
      "stateMutability": "view",
      "type": "function"
    },
    {
      "inputs": [
        {
          "internalType": "string",
          "name": "label",
          "type": "string"
        },
        {
          "internalType": "uint256",
          "name": "duration",
          "type": "uint256"
        }
      ],
      "name": "getRenewalFee",
      "outputs": [
        {
          "components": [
            {
              "internalType": "uint256",
              "name": "usd",
              "type": "uint256"
            },
            {
              "internalType": "uint256",
              "name": "ron",
              "type": "uint256"
            }
          ],
          "internalType": "struct INSDomainPrice.UnitPrice",
          "name": "basePrice",
          "type": "tuple"
        },
        {
          "components": [
            {
              "internalType": "uint256",
              "name": "usd",
              "type": "uint256"
            },
            {
              "internalType": "uint256",
              "name": "ron",
              "type": "uint256"
            }
          ],
          "internalType": "struct INSDomainPrice.UnitPrice",
          "name": "tax",
          "type": "tuple"
        }
      ],
      "stateMutability": "view",
      "type": "function"
    },
    {
      "inputs": [],
      "name": "getRenewalFeeByLengths",
      "outputs": [
        {
          "components": [
            {
              "internalType": "uint256",
              "name": "labelLength",
              "type": "uint256"
            },
            {
              "internalType": "uint256",
              "name": "fee",
              "type": "uint256"
            }
          ],
          "internalType": "struct INSDomainPrice.RenewalFee[]",
          "name": "renewalFees",
          "type": "tuple[]"
        }
      ],
      "stateMutability": "view",
      "type": "function"
    },
    {
      "inputs": [
        {
          "internalType": "bytes32",
          "name": "role",
          "type": "bytes32"
        }
      ],
      "name": "getRoleAdmin",
      "outputs": [
        {
          "internalType": "bytes32",
          "name": "",
          "type": "bytes32"
        }
      ],
      "stateMutability": "view",
      "type": "function"
    },
    {
      "inputs": [
        {
          "internalType": "bytes32",
          "name": "role",
          "type": "bytes32"
        },
        {
          "internalType": "uint256",
          "name": "index",
          "type": "uint256"
        }
      ],
      "name": "getRoleMember",
      "outputs": [
        {
          "internalType": "address",
          "name": "",
          "type": "address"
        }
      ],
      "stateMutability": "view",
      "type": "function"
    },
    {
      "inputs": [
        {
          "internalType": "bytes32",
          "name": "role",
          "type": "bytes32"
        }
      ],
      "name": "getRoleMemberCount",
      "outputs": [
        {
          "internalType": "uint256",
          "name": "",
          "type": "uint256"
        }
      ],
      "stateMutability": "view",
      "type": "function"
    },
    {
      "inputs": [],
      "name": "getScaleDownRuleForDomainPrice",
      "outputs": [
        {
          "components": [
            {
              "internalType": "uint192",
              "name": "ratio",
              "type": "uint192"
            },
            {
              "internalType": "uint64",
              "name": "period",
              "type": "uint64"
            }
          ],
          "internalType": "struct PeriodScaler",
          "name": "scaleRule",
          "type": "tuple"
        }
      ],
      "stateMutability": "view",
      "type": "function"
    },
    {
      "inputs": [],
      "name": "getTaxRatio",
      "outputs": [
        {
          "internalType": "uint256",
          "name": "ratio",
          "type": "uint256"
        }
      ],
      "stateMutability": "view",
      "type": "function"
    },
    {
      "inputs": [
        {
          "internalType": "bytes32",
          "name": "role",
          "type": "bytes32"
        },
        {
          "internalType": "address",
          "name": "account",
          "type": "address"
        }
      ],
      "name": "grantRole",
      "outputs": [],
      "stateMutability": "nonpayable",
      "type": "function"
    },
    {
      "inputs": [
        {
          "internalType": "bytes32",
          "name": "role",
          "type": "bytes32"
        },
        {
          "internalType": "address",
          "name": "account",
          "type": "address"
        }
      ],
      "name": "hasRole",
      "outputs": [
        {
          "internalType": "bool",
          "name": "",
          "type": "bool"
        }
      ],
      "stateMutability": "view",
      "type": "function"
    },
    {
      "inputs": [
        {
          "internalType": "address",
          "name": "admin",
          "type": "address"
        },
        {
          "internalType": "address[]",
          "name": "operators",
          "type": "address[]"
        },
        {
          "components": [
            {
              "internalType": "uint256",
              "name": "labelLength",
              "type": "uint256"
            },
            {
              "internalType": "uint256",
              "name": "fee",
              "type": "uint256"
            }
          ],
          "internalType": "struct INSDomainPrice.RenewalFee[]",
          "name": "renewalFees",
          "type": "tuple[]"
        },
        {
          "internalType": "uint256",
          "name": "taxRatio",
          "type": "uint256"
        },
        {
          "components": [
            {
              "internalType": "uint192",
              "name": "ratio",
              "type": "uint192"
            },
            {
              "internalType": "uint64",
              "name": "period",
              "type": "uint64"
            }
          ],
          "internalType": "struct PeriodScaler",
          "name": "domainPriceScaleRule",
          "type": "tuple"
        },
        {
          "internalType": "contract IPyth",
          "name": "pyth",
          "type": "address"
        },
        {
          "internalType": "contract INSAuction",
          "name": "auction",
          "type": "address"
        },
        {
          "internalType": "uint256",
          "name": "maxAcceptableAge",
          "type": "uint256"
        },
        {
          "internalType": "bytes32",
          "name": "pythIdForRONUSD",
          "type": "bytes32"
        }
      ],
      "name": "initialize",
      "outputs": [],
      "stateMutability": "nonpayable",
      "type": "function"
    },
    {
      "inputs": [
        {
          "internalType": "bytes32",
          "name": "role",
          "type": "bytes32"
        },
        {
          "internalType": "address",
          "name": "account",
          "type": "address"
        }
      ],
      "name": "renounceRole",
      "outputs": [],
      "stateMutability": "nonpayable",
      "type": "function"
    },
    {
      "inputs": [
        {
          "internalType": "bytes32",
          "name": "role",
          "type": "bytes32"
        },
        {
          "internalType": "address",
          "name": "account",
          "type": "address"
        }
      ],
      "name": "revokeRole",
      "outputs": [],
      "stateMutability": "nonpayable",
      "type": "function"
    },
    {
      "inputs": [
        {
          "internalType": "contract IPyth",
          "name": "pyth",
          "type": "address"
        },
        {
          "internalType": "uint256",
          "name": "maxAcceptableAge",
          "type": "uint256"
        },
        {
          "internalType": "bytes32",
          "name": "pythIdForRONUSD",
          "type": "bytes32"
        }
      ],
      "name": "setPythOracleConfig",
      "outputs": [],
      "stateMutability": "nonpayable",
      "type": "function"
    },
    {
      "inputs": [
        {
          "components": [
            {
              "internalType": "uint256",
              "name": "labelLength",
              "type": "uint256"
            },
            {
              "internalType": "uint256",
              "name": "fee",
              "type": "uint256"
            }
          ],
          "internalType": "struct INSDomainPrice.RenewalFee[]",
          "name": "renewalFees",
          "type": "tuple[]"
        }
      ],
      "name": "setRenewalFeeByLengths",
      "outputs": [],
      "stateMutability": "nonpayable",
      "type": "function"
    },
    {
      "inputs": [
        {
          "components": [
            {
              "internalType": "uint192",
              "name": "ratio",
              "type": "uint192"
            },
            {
              "internalType": "uint64",
              "name": "period",
              "type": "uint64"
            }
          ],
          "internalType": "struct PeriodScaler",
          "name": "scaleRule",
          "type": "tuple"
        }
      ],
      "name": "setScaleDownRuleForDomainPrice",
      "outputs": [],
      "stateMutability": "nonpayable",
      "type": "function"
    },
    {
      "inputs": [
        {
          "internalType": "uint256",
          "name": "ratio",
          "type": "uint256"
        }
      ],
      "name": "setTaxRatio",
      "outputs": [],
      "stateMutability": "nonpayable",
      "type": "function"
    },
    {
      "inputs": [
        {
          "internalType": "bytes4",
          "name": "interfaceId",
          "type": "bytes4"
        }
      ],
      "name": "supportsInterface",
      "outputs": [
        {
          "internalType": "bool",
          "name": "",
          "type": "bool"
        }
      ],
      "stateMutability": "view",
      "type": "function"
    }
  ],
  "address": "0x7aC1624287b0959D664Cced3A01a51A440353B42",
  "args": "0x",
  "blockNumber": 21224275,
  "bytecode": "0x60806040526200000e62000014565b620000d5565b600054610100900460ff1615620000815760405162461bcd60e51b815260206004820152602760248201527f496e697469616c697a61626c653a20636f6e747261637420697320696e697469604482015266616c697a696e6760c81b606482015260840160405180910390fd5b60005460ff90811614620000d3576000805460ff191660ff9081179091556040519081527f7f26b83ff96e1f2b6a682f133852f6798a09c465da95921460cefb38474024989060200160405180910390a15b565b612bee80620000e56000396000f3fe608060405234801561001057600080fd5b50600436106101cf5760003560e01c80635c68c83011610104578063ca15c873116100a2578063e229a67011610071578063e229a67014610480578063f4651f4914610493578063f5b541a6146104b4578063fe303ebf146104c957600080fd5b8063ca15c87314610434578063d40ed58c14610447578063d547741f1461045a578063dd28776d1461046d57600080fd5b80637174026e116100de5780637174026e146103db5780639010d07c146103ee57806391d1485414610419578063a217fddf1461042c57600080fd5b80635c68c830146103985780635ef32e2c146103ab578063713a69a7146103b357600080fd5b80632f6ee6951161017157806339e47da71161014b57806339e47da7146102ec5780634c255c971461034457806353faf90914610365578063599eaabf1461038557600080fd5b80632f6ee695146102ac57806335feb741146102c657806336568abe146102d957600080fd5b8063248a9ca3116101ad578063248a9ca31461023257806328dd3065146102565780632be09ecc1461026b5780632f2ff15d1461029957600080fd5b806301ffc9a7146101d4578063037f1769146101fc5780630a44f51f1461021d575b600080fd5b6101e76101e2366004612074565b6104dc565b60405190151581526020015b60405180910390f35b61020f61020a36600461209e565b610507565b6040519081526020016101f3565b610225610599565b6040516101f391906120b7565b61020f61024036600461209e565b6000908152600160208190526040909120015490565b61026961026436600461212e565b610676565b005b603554603954603a54604080516001600160a01b0390941684526020840192909252908201526060016101f3565b6102696102a7366004612163565b610692565b6102b4601281565b60405160ff90911681526020016101f3565b6102696102d43660046121d7565b6106bd565b6102696102e7366004612163565b6106d2565b604080518082018252600080825260209182015281518083018352603b546001600160c01b0381168083526001600160401b03600160c01b9092048216928401928352845190815291511691810191909152016101f3565b61034d61271081565b6040516001600160401b0390911681526020016101f3565b61037861037336600461225c565b610755565b6040516101f3919061231f565b61026961039336600461225c565b61087c565b61020f6103a6366004612365565b61093a565b60375461020f565b6103c66103c1366004612478565b6109b8565b604080519283526020830191909152016101f3565b61020f6103e936600461209e565b6109e4565b6104016103fc3660046124ac565b610a77565b6040516001600160a01b0390911681526020016101f3565b6101e7610427366004612163565b610a96565b61020f600081565b61020f61044236600461209e565b610ac1565b6102696104553660046124e6565b610ad8565b610269610468366004612163565b610c8e565b61026961047b3660046125bf565b610cb4565b61026961048e36600461262a565b610dc0565b6104a66104a1366004612646565b610dd4565b6040516101f392919061268a565b61020f600080516020612b9983398151915281565b6102696104d736600461209e565b610f68565b60006001600160e01b03198216635a05180f60e01b1480610501575061050182610f7c565b92915050565b603554603a5460395460405163052571af60e51b815260009361050193869360129384936001600160a01b03169263a4ae35e09261055092600401918252602082015260400190565b608060405180830381865afa15801561056d573d6000803e3d6000fd5b505050506040513d601f19601f8201168201806040525081019061059191906126c5565b929190610fb1565b603854606090806001600160401b038111156105b7576105b76123d6565b6040519080825280602002602001820160405280156105fc57816020015b60408051808201909152600080825260208201528152602001906001900390816105d55790505b5091506000805b82811015610670578060010191508184828151811061062457610624612750565b60200260200101516000018181525050603c60008381526020019081526020016000205484828151811061065a5761065a612750565b6020908102919091018101510152600101610603565b50505090565b600061068181610ff2565b61068c848484610fff565b50505050565b600082815260016020819052604090912001546106ae81610ff2565b6106b88383611071565b505050565b60006106c881610ff2565b6106b88383611093565b6001600160a01b03811633146107475760405162461bcd60e51b815260206004820152602f60248201527f416363657373436f6e74726f6c3a2063616e206f6e6c792072656e6f756e636560448201526e103937b632b9903337b91039b2b63360891b60648201526084015b60405180910390fd5b61075182826111ac565b5050565b6060600080516020612b9983398151915261076f81610ff2565b60006107818b8b8b8b8b8b8b8b6111ce565b905033816001600160401b0381111561079c5761079c6123d6565b6040519080825280602002602001820160405280156107c5578160200160208202803683370190505b50935060005b8281101561086c57610842828e8e848181106107e9576107e9612750565b905060200201358d8d8581811061080257610802612750565b905060200201358c8c8681811061081b5761081b612750565b905060200201358b8b8781811061083457610834612750565b90506020020135600061121c565b85828151811061085457610854612750565b911515602092830291909101909101526001016107cb565b5050505098975050505050505050565b600080516020612b9983398151915261089481610ff2565b60006108a68a8a8a8a8a8a8a8a6111ce565b90503360005b8281101561092c57610923828d8d848181106108ca576108ca612750565b905060200201358c8c858181106108e3576108e3612750565b905060200201358b8b868181106108fc576108fc612750565b905060200201358a8a8781811061091557610915612750565b90506020020135600161121c565b506001016108ac565b505050505050505050505050565b6000603e600061097f85858080601f0160208091040260200160405190810160405280939291908181526020018383808284376000920191909152506112ab92505050565b8152602001908152602001600020549050806000036109b157604051635421761560e11b815260040160405180910390fd5b1992915050565b6000806109d26109cd84805160209091012090565b6112b6565b91506109dd826109e4565b9050915091565b603554603a5460395460405163052571af60e51b815260048101929092526024820152600091610501918491601291829161059191601119916001600160a01b03169063a4ae35e090604401608060405180830381865afa158015610a4d573d6000803e3d6000fd5b505050506040513d601f19601f82011682018060405250810190610a7191906126c5565b90611330565b6000828152600260205260408120610a8f908361148a565b9392505050565b60009182526001602090815260408084206001600160a01b0393909316845291905290205460ff1690565b600081815260026020526040812061050190611496565b600054610100900460ff1615808015610af85750600054600160ff909116105b80610b125750303b158015610b12575060005460ff166001145b610b755760405162461bcd60e51b815260206004820152602e60248201527f496e697469616c697a61626c653a20636f6e747261637420697320616c72656160448201526d191e481a5b9a5d1a585b1a5e995960921b606482015260840161073e565b6000805460ff191660011790558015610b98576000805461ff0019166101001790555b89600080516020612b9983398151915260005b82811015610beb57610be3828f8f84818110610bc957610bc9612750565b9050602002016020810190610bde9190612766565b6114a0565b600101610bab565b50603680546001600160a01b0319166001600160a01b038816179055610c1260008f6114a0565b610c1c8b8b611093565b610c25896114aa565b610c2e886114df565b610c39878686610fff565b5050801561092c576000805461ff0019169055604051600181527f7f26b83ff96e1f2b6a682f133852f6798a09c465da95921460cefb38474024989060200160405180910390a1505050505050505050505050565b60008281526001602081905260409091200154610caa81610ff2565b6106b883836111ac565b600080516020612b99833981519152610ccc81610ff2565b83801580610cda5750808314155b15610cf857604051634ec4810560e11b815260040160405180910390fd5b600033815b83811015610db557868682818110610d1757610d17612750565b9050602002013519925082603e60008b8b85818110610d3857610d38612750565b90506020020135815260200190815260200160002081905550888882818110610d6357610d63612750565b90506020020135826001600160a01b03167fb52d278cb3ef3b003bdfb385ce2eb23a83eb6d713724abfba1acaa16ccf6621485604051610da591815260200190565b60405180910390a3600101610cfd565b505050505050505050565b6000610dcb81610ff2565b610751826114df565b604080518082019091526000808252602082015260408051808201909152600080825260208201526000610e078561155b565b855160208701209091506000906000818152603e60205260409020549091508015610e3e57610e37811987612799565b8552610f3b565b6000603c6000610e5086603854611649565b81526020019081526020016000205490508087610e6d9190612799565b86526036546001600160a01b03166353f9195e610ebb7fba69923fa107dbf5a25a073a10b7c9216ae39fbadc95dc891d460d9ae315d6888b6000918252805160209182012090526040902090565b6040518263ffffffff1660e01b8152600401610ed991815260200190565b602060405180830381865afa158015610ef6573d6000803e3d6000fd5b505050506040513d601f19601f82011682018060405250810190610f1a91906127b0565b15610f3957610f36603754610f2e856112b6565b61271061165f565b85525b505b8351610f46906109e4565b60208501528451610f56906109e4565b60208601525092959194509092505050565b6000610f7381610ff2565b610751826114aa565b60006001600160e01b03198216637965db0b60e01b148061050157506301ffc9a760e01b6001600160e01b0319831614610501565b6000610fe784610fd7876000015160070b886040015186610fd291906127d2565b611748565b610fe2600187611748565b61165f565b90505b949350505050565b610ffc81336117a2565b50565b603580546001600160a01b0319166001600160a01b0385169081179091556039839055603a8290558190336001600160a01b03167f671083457675651266070f50f1438ef8190b7da64d38f16f5117246236b7dd5b8560405161106491815260200190565b60405180910390a4505050565b61107b82826117fb565b60008281526002602052604090206106b89082611866565b60408051808201909152600080825260208201523390603854839060005b8281101561115e578686828181106110cb576110cb612750565b9050604002018036038101906110e191906127f9565b93506110f182856000015161187b565b6020808601805187516000908152603c90935260409283902055865190519151929450916001600160a01b038816917f85211e946be6d537cd1b22a183d04151d4e5d0818e1ce75d2e5ebaecba0a5a779161114e91815260200190565b60405180910390a36001016110b1565b5060385481146111a457603881905560405181906001600160a01b038616907f7e7c3a4273ac1af351af63a82e91a8335bcb389ba681375a32dbe4455d0d474b90600090a35b505050505050565b6111b6828261188a565b60008281526002602052604090206106b890826118f1565b868015806111dc5750858114155b806111e75750838114155b806111f25750818114155b1561121057604051634ec4810560e11b815260040160405180910390fd5b98975050505050505050565b60008061122886610507565b6000888152603d6020526040902090915083806112455750805482115b9250821561129f57818155426001820155604080518381526020810187905287918a916001600160a01b038d16917f60d5fd6d2284807447aae62f93c05517a647b8e8479c3af2c27ee1d1c85b540f910160405180910390a45b50509695505050505050565b805160209091012090565b6000818152603d6020526040812060018101548083036112da575060009392505050565b60006112e68242612847565b835460408051808201909152603b546001600160c01b0381168252600160c01b90046001600160401b03166020820152919250611327919061271084611906565b95945050505050565b604080516080810182526000808252602082018190529181018290526060810191909152600061136960018560400151610fd29061285a565b90506001600160ff1b0381111561139f576040808501519051633e87ca5d60e11b815260039190910b600482015260240161073e565b60006113af6001610fd28661285a565b90506001600160ff1b038111156113df57604051633e87ca5d60e11b8152600385900b600482015260240161073e565b845160009060070b6113f1838561287d565b6113fb91906128c3565b9050677fffffffffffffff81131561144757604086810151875191516329b2fb5560e11b8152600391820b60048201529087900b602482015260079190910b604482015260640161073e565b60405180608001604052808260070b815260200187602001516001600160401b031681526020018660030b81526020018760600151815250935050505092915050565b6000610a8f83836119dc565b6000610501825490565b6107518282611071565b6037819055604051819033907f1e97e29c863545fad1ce79512b4deb3f0b7d30c3356bc7bbbd6588c9e68cf07390600090a350565b80603b6114ec8282612906565b503390507fa7f38b74141f9a2ac1b02640ded2b98431ef77f8cf2e3ade85c71d6c8420dc6461151e6020840184612948565b61152e6040850160208601612965565b604080516001600160c01b0390931683526001600160401b0390911660208301520160405180910390a250565b600080600080845190505b8083101561164157600085848151811061158257611582612750565b01602001516001600160f81b0319169050600160ff1b8110156115aa57600184019350611635565b600760fd1b6001600160f81b0319821610156115cb57600284019350611635565b600f60fc1b6001600160f81b0319821610156115ec57600384019350611635565b601f60fb1b6001600160f81b03198216101561160d57600484019350611635565b603f60fa1b6001600160f81b03198216101561162e57600584019350611635565b6006840193505b50600190910190611566565b509392505050565b60008183106116585781610a8f565b5090919050565b60008080600019858709858702925082811083820303915050806000036116995783828161168f5761168f6128ad565b0492505050610a8f565b8084116116e05760405162461bcd60e51b81526020600482015260156024820152744d6174683a206d756c446976206f766572666c6f7760581b604482015260640161073e565b600084868809600260036001881981018916988990049182028318808302840302808302840302808302840302808302840302808302840302918202909203026000889003889004909101858311909403939093029303949094049190911702949350505050565b6000808260030b121561177a5761175e8261285a565b61176990600a612a66565b6117739084612a78565b9050610501565b60008260030b131561179b5761179182600a612a66565b6117739084612799565b5081610501565b6117ac8282610a96565b610751576117b981611a06565b6117c4836020611a18565b6040516020016117d5929190612ab0565b60408051601f198184030181529082905262461bcd60e51b825261073e91600401612b25565b6118058282610a96565b6107515760008281526001602081815260408084206001600160a01b0386168086529252808420805460ff19169093179092559051339285917f2f8788117e7eff1d82e926ec794901d17c78024a50270940304540a733656f0d9190a45050565b6000610a8f836001600160a01b038416611bb3565b60008183116116585781610a8f565b6118948282610a96565b156107515760008281526001602090815260408083206001600160a01b0385168085529252808320805460ff1916905551339285917ff6391f5c32d9c69d2a47ea670b442974b53935d1edc7fd64eb21e047a839171b9190a45050565b6000610a8f836001600160a01b038416611c02565b60008085602001516001600160401b0316836119229190612a78565b9050801580611939575085516001600160c01b0316155b156119475784915050610fea565b85516001600160c01b03166001600160401b0385160361196b576000915050610fea565b61ffff81111561199157604051637359f25f60e01b81526004810182905260240161073e565b60006119c18760000151866001600160401b0316036001600160c01b0316612710876001600160401b031661165f565b90506119d1868261271085611cf5565b979650505050505050565b60008260000182815481106119f3576119f3612750565b9060005260206000200154905092915050565b60606105016001600160a01b03831660145b60606000611a27836002612799565b611a32906002612b58565b6001600160401b03811115611a4957611a496123d6565b6040519080825280601f01601f191660200182016040528015611a73576020820181803683370190505b509050600360fc1b81600081518110611a8e57611a8e612750565b60200101906001600160f81b031916908160001a905350600f60fb1b81600181518110611abd57611abd612750565b60200101906001600160f81b031916908160001a9053506000611ae1846002612799565b611aec906001612b58565b90505b6001811115611b64576f181899199a1a9b1b9c1cb0b131b232b360811b85600f1660108110611b2057611b20612750565b1a60f81b828281518110611b3657611b36612750565b60200101906001600160f81b031916908160001a90535060049490941c93611b5d81612b6b565b9050611aef565b508315610a8f5760405162461bcd60e51b815260206004820181905260248201527f537472696e67733a20686578206c656e67746820696e73756666696369656e74604482015260640161073e565b6000818152600183016020526040812054611bfa57508154600181810184556000848152602080822090930184905584548482528286019093526040902091909155610501565b506000610501565b60008181526001830160205260408120548015611ceb576000611c26600183612847565b8554909150600090611c3a90600190612847565b9050818114611c9f576000866000018281548110611c5a57611c5a612750565b9060005260206000200154905080876000018481548110611c7d57611c7d612750565b6000918252602080832090910192909255918252600188019052604090208390555b8554869080611cb057611cb0612b82565b600190038181906000526020600020016000905590558560010160008681526020019081526020016000206000905560019350505050610501565b6000915050610501565b600082841480611d07575061ffff8216155b15611d13575083610fea565b50836000808080611d3461ffff8716611d2b8a611e58565b61ffff16611649565b90505b61ffff811615611d8a57611d518561ffff83168a0a612029565b90945092508315611d6a57829450808603955080820191505b611d83600261ffff83160461ffff168761ffff16611649565b9050611d37565b505b61ffff851615611dfd57611da08488612029565b90935091508215611dbf57600019909401939092508290600101611d8c565b61ffff811615611de457858481611dd857611dd86128ad565b04935060001901611d8c565b611def84888861165f565b600019909501949350611d8c565b6000611e0887611e58565b90505b61ffff821615611e4c576000611e298261ffff168461ffff16611649565b90508061ffff16880a8681611e4057611e406128ad565b04955090910390611e0b565b50505050949350505050565b60006003821015611e6b575060ff919050565b6004821015611e7c57506080919050565b6010821015611e8d57506040919050565b610100821015611e9f57506020919050565b611bdc821015611eb157506014919050565b612c70821015611ec357506013919050565b614aa9821015611ed557506012919050565b618554821015611ee757506011919050565b62010000821015611efa57506010919050565b62021837821015611f0d5750600f919050565b6204e046821015611f205750600e919050565b620ced4c821015611f335750600d919050565b62285146821015611f465750600c919050565b629aa2ad821015611f595750600b919050565b6303080c01821015611f6d5750600a919050565b6315c5cbbd821015611f8157506009919050565b640100000000821015611f9657506008919050565b6417c6a1f29f821015611fab57506007919050565b6506597fa94f5c821015611fc157506006919050565b66093088c35d733b821015611fd857506005919050565b68010000000000000000821015611ff157506004919050565b6a285145f31ae515c447bb5782101561200c57506003919050565b600160801b82101561202057506002919050565b5060015b919050565b60008083600003612040575060019050600061206d565b83830283858281612053576120536128ad565b041461206657600080925092505061206d565b6001925090505b9250929050565b60006020828403121561208657600080fd5b81356001600160e01b031981168114610a8f57600080fd5b6000602082840312156120b057600080fd5b5035919050565b602080825282518282018190526000919060409081850190868401855b82811015612101576120f184835180518252602090810151910152565b92840192908501906001016120d4565b5091979650505050505050565b6001600160a01b0381168114610ffc57600080fd5b80356120248161210e565b60008060006060848603121561214357600080fd5b833561214e8161210e565b95602085013595506040909401359392505050565b6000806040838503121561217657600080fd5b8235915060208301356121888161210e565b809150509250929050565b60008083601f8401126121a557600080fd5b5081356001600160401b038111156121bc57600080fd5b6020830191508360208260061b850101111561206d57600080fd5b600080602083850312156121ea57600080fd5b82356001600160401b0381111561220057600080fd5b61220c85828601612193565b90969095509350505050565b60008083601f84011261222a57600080fd5b5081356001600160401b0381111561224157600080fd5b6020830191508360208260051b850101111561206d57600080fd5b6000806000806000806000806080898b03121561227857600080fd5b88356001600160401b038082111561228f57600080fd5b61229b8c838d01612218565b909a50985060208b01359150808211156122b457600080fd5b6122c08c838d01612218565b909850965060408b01359150808211156122d957600080fd5b6122e58c838d01612218565b909650945060608b01359150808211156122fe57600080fd5b5061230b8b828c01612218565b999c989b5096995094979396929594505050565b6020808252825182820181905260009190848201906040850190845b8181101561235957835115158352928401929184019160010161233b565b50909695505050505050565b6000806020838503121561237857600080fd5b82356001600160401b038082111561238f57600080fd5b818501915085601f8301126123a357600080fd5b8135818111156123b257600080fd5b8660208285010111156123c457600080fd5b60209290920196919550909350505050565b634e487b7160e01b600052604160045260246000fd5b600082601f8301126123fd57600080fd5b81356001600160401b0380821115612417576124176123d6565b604051601f8301601f19908116603f0116810190828211818310171561243f5761243f6123d6565b8160405283815286602085880101111561245857600080fd5b836020870160208301376000602085830101528094505050505092915050565b60006020828403121561248a57600080fd5b81356001600160401b038111156124a057600080fd5b610fea848285016123ec565b600080604083850312156124bf57600080fd5b50508035926020909101359150565b6000604082840312156124e057600080fd5b50919050565b60008060008060008060008060008060006101408c8e03121561250857600080fd5b6125128c3561210e565b8b359a506001600160401b038060208e0135111561252f57600080fd5b61253f8e60208f01358f01612218565b909b50995060408d013581101561255557600080fd5b506125668d60408e01358e01612193565b909850965060608c0135955061257f8d60808e016124ce565b945060c08c013561258f8161210e565b935061259d60e08d01612123565b92506101008c013591506101208c013590509295989b509295989b9093969950565b600080600080604085870312156125d557600080fd5b84356001600160401b03808211156125ec57600080fd5b6125f888838901612218565b9096509450602087013591508082111561261157600080fd5b5061261e87828801612218565b95989497509550505050565b60006040828403121561263c57600080fd5b610a8f83836124ce565b6000806040838503121561265957600080fd5b82356001600160401b0381111561266f57600080fd5b61267b858286016123ec565b95602094909401359450505050565b825181526020808401518183015282516040830152820151606082015260808101610a8f565b6001600160401b0381168114610ffc57600080fd5b6000608082840312156126d757600080fd5b604051608081018181106001600160401b03821117156126f9576126f96123d6565b6040528251600781900b811461270e57600080fd5b8152602083015161271e816126b0565b60208201526040830151600381900b811461273857600080fd5b60408201526060928301519281019290925250919050565b634e487b7160e01b600052603260045260246000fd5b60006020828403121561277857600080fd5b8135610a8f8161210e565b634e487b7160e01b600052601160045260246000fd5b808202811582820484141761050157610501612783565b6000602082840312156127c257600080fd5b81518015158114610a8f57600080fd5b600381810b9083900b01637fffffff8113637fffffff198212171561050157610501612783565b60006040828403121561280b57600080fd5b604051604081018181106001600160401b038211171561282d5761282d6123d6565b604052823581526020928301359281019290925250919050565b8181038181111561050157610501612783565b60008160030b637fffffff19810361287457612874612783565b60000392915050565b80820260008212600160ff1b8414161561289957612899612783565b818105831482151761050157610501612783565b634e487b7160e01b600052601260045260246000fd5b6000826128d2576128d26128ad565b600160ff1b8214600019841416156128ec576128ec612783565b500590565b6001600160c01b0381168114610ffc57600080fd5b8135612911816128f1565b81546001600160c01b03199081166001600160c01b03929092169182178355602084013561293e816126b0565b60c01b1617905550565b60006020828403121561295a57600080fd5b8135610a8f816128f1565b60006020828403121561297757600080fd5b8135610a8f816126b0565b600181815b808511156129bd5781600019048211156129a3576129a3612783565b808516156129b057918102915b93841c9390800290612987565b509250929050565b6000826129d457506001610501565b816129e157506000610501565b81600181146129f75760028114612a0157612a1d565b6001915050610501565b60ff841115612a1257612a12612783565b50506001821b610501565b5060208310610133831016604e8410600b8410161715612a40575081810a610501565b612a4a8383612982565b8060001904821115612a5e57612a5e612783565b029392505050565b6000610a8f63ffffffff8416836129c5565b600082612a8757612a876128ad565b500490565b60005b83811015612aa7578181015183820152602001612a8f565b50506000910152565b7f416363657373436f6e74726f6c3a206163636f756e7420000000000000000000815260008351612ae8816017850160208801612a8c565b7001034b99036b4b9b9b4b733903937b6329607d1b6017918401918201528351612b19816028840160208801612a8c565b01602801949350505050565b6020815260008251806020840152612b44816040850160208701612a8c565b601f01601f19169190910160400192915050565b8082018082111561050157610501612783565b600081612b7a57612b7a612783565b506000190190565b634e487b7160e01b600052603160045260246000fdfe97667070c54ef182b0f5858b034beac1b6f3089aa2d3188bb1e8929f4fa9b929a264697066735822122076690926c2db8bd93ce00d4367403bba09c400c1ff6d19c14bc2e66eb1b25abc64736f6c63430008150033",
  "chainId": 2021,
  "contractName": "RNSDomainPrice",
  "deployer": "0x968D0Cd7343f711216817E617d3f92a23dC91c07",
  "devdoc": {
    "version": 1,
    "kind": "dev",
    "methods": {
      "bulkOverrideRenewalFees(bytes32[],uint256[])": {
        "details": "Bulk override renewal fees. Requirements: - The method caller is operator. - The input array lengths must be larger than 0 and the same. Emits events {RenewalFeeOverridingUpdated}.",
        "params": {
          "lbHashes": "Array of label hashes. (Eg, ['foo'].map(keccak256) for 'foo.ron')",
          "usdPrices": "Array of prices in USD. Leave 2^256 - 1 to remove overriding."
        }
      },
      "bulkSetDomainPrice(bytes32[],uint256[],bytes32[],uint256[])": {
        "details": "Bulk override domain prices. Requirements: - The method caller is operator. - The input array lengths must be larger than 0 and the same. Emits events {DomainPriceUpdated}.",
        "params": {
          "lbHashes": "Array of label hashes. (Eg, ['foo'].map(keccak256) for 'foo.ron')",
          "proofHashes": "Array of proof hashes.",
          "ronPrices": "Array of prices in (W)RON token.",
          "setTypes": "Array of update types from the operator service."
        }
      },
      "bulkTrySetDomainPrice(bytes32[],uint256[],bytes32[],uint256[])": {
        "details": "Bulk try to set domain prices. Returns a boolean array indicating whether domain prices at the corresponding indexes if set or not. Requirements: - The method caller is operator. - The input array lengths must be larger than 0 and the same. - The price should be larger than current domain price or it will not be updated. Emits events {DomainPriceUpdated} optionally.",
        "params": {
          "lbHashes": "Array of label hashes. (Eg, ['foo'].map(keccak256) for 'foo.ron')",
          "proofHashes": "Array of proof hashes.",
          "ronPrices": "Array of prices in (W)RON token.",
          "setTypes": "Array of update types from the operator service."
        }
      },
      "convertRONToUSD(uint256)": {
        "details": "Returns the converted amount from RON to USD."
      },
      "convertUSDToRON(uint256)": {
        "details": "Returns the converted amount from USD to RON."
      },
      "getDomainPrice(string)": {
        "details": "Return the domain price.",
        "params": {
          "label": "The domain label to register (Eg, 'foo' for 'foo.ron')."
        }
      },
      "getOverriddenRenewalFee(string)": {
        "details": "Returns the renewal fee of a label. Reverts if not overridden."
      },
      "getPythOracleConfig()": {
        "details": "Returns the Pyth oracle config."
      },
      "getRenewalFee(string,uint256)": {
        "details": "Returns the renewal fee in USD and RON.",
        "params": {
          "duration": "Amount of second(s).",
          "label": "The domain label to register (Eg, 'foo' for 'foo.ron')."
        }
      },
      "getRenewalFeeByLengths()": {
        "details": "Returns the renewal fee by lengths."
      },
      "getRoleAdmin(bytes32)": {
        "details": "Returns the admin role that controls `role`. See {grantRole} and {revokeRole}. To change a role's admin, use {_setRoleAdmin}."
      },
      "getRoleMember(bytes32,uint256)": {
        "details": "Returns one of the accounts that have `role`. `index` must be a value between 0 and {getRoleMemberCount}, non-inclusive. Role bearers are not sorted in any particular way, and their ordering may change at any point. WARNING: When using {getRoleMember} and {getRoleMemberCount}, make sure you perform all queries on the same block. See the following https://forum.openzeppelin.com/t/iterating-over-elements-on-enumerableset-in-openzeppelin-contracts/2296[forum post] for more information."
      },
      "getRoleMemberCount(bytes32)": {
        "details": "Returns the number of accounts that have `role`. Can be used together with {getRoleMember} to enumerate all bearers of a role."
      },
      "getScaleDownRuleForDomainPrice()": {
        "details": "Returns the percentage to scale from domain price each period."
      },
      "getTaxRatio()": {
        "details": "Returns tax ratio."
      },
      "grantRole(bytes32,address)": {
        "details": "Grants `role` to `account`. If `account` had not been already granted `role`, emits a {RoleGranted} event. Requirements: - the caller must have ``role``'s admin role. May emit a {RoleGranted} event."
      },
      "hasRole(bytes32,address)": {
        "details": "Returns `true` if `account` has been granted `role`."
      },
      "renounceRole(bytes32,address)": {
        "details": "Revokes `role` from the calling account. Roles are often managed via {grantRole} and {revokeRole}: this function's purpose is to provide a mechanism for accounts to lose their privileges if they are compromised (such as when a trusted device is misplaced). If the calling account had been revoked `role`, emits a {RoleRevoked} event. Requirements: - the caller must be `account`. May emit a {RoleRevoked} event."
      },
      "revokeRole(bytes32,address)": {
        "details": "Revokes `role` from `account`. If `account` had been granted `role`, emits a {RoleRevoked} event. Requirements: - the caller must have ``role``'s admin role. May emit a {RoleRevoked} event."
      },
      "setPythOracleConfig(address,uint256,bytes32)": {
        "details": "Sets the Pyth oracle config. Requirements: - The method caller is admin. Emits events {PythOracleConfigUpdated}."
      },
      "setRenewalFeeByLengths((uint256,uint256)[])": {
        "details": "Sets the renewal fee by lengths Requirements: - The method caller is admin. Emits events {RenewalFeeByLengthUpdated}. Emits an event {MaxRenewalFeeLengthUpdated} optionally."
      },
      "setScaleDownRuleForDomainPrice((uint192,uint64))": {
        "details": "Sets the percentage to scale from domain price each period. Requirements: - The method caller is admin. Emits events {DomainPriceScaleRuleUpdated}."
      },
      "setTaxRatio(uint256)": {
        "details": "Sets renewal reservation ratio. Requirements: - The method caller is admin. Emits an event {TaxRatioUpdated}."
      },
      "supportsInterface(bytes4)": {
        "details": "See {IERC165-supportsInterface}."
      }
    },
    "events": {
      "DomainPriceScaleRuleUpdated(address,uint192,uint64)": {
        "details": "Emitted when the rule to rescale domain price is updated."
      },
      "DomainPriceUpdated(address,bytes32,uint256,bytes32,uint256)": {
        "details": "Emitted when the domain price is updated."
      },
      "Initialized(uint8)": {
        "details": "Triggered when the contract has been initialized or reinitialized."
      },
      "MaxRenewalFeeLengthUpdated(address,uint256)": {
        "details": "Emitted when the maximum length of renewal fee is updated."
      },
      "PythOracleConfigUpdated(address,address,uint256,bytes32)": {
        "details": "Emitted when the Pyth Oracle config is updated."
      },
      "RenewalFeeByLengthUpdated(address,uint256,uint256)": {
        "details": "Emitted when the renew fee is updated."
      },
      "RenewalFeeOverridingUpdated(address,bytes32,uint256)": {
        "details": "Emitted when the renew fee of a domain is overridden. Value of `inverseRenewalFee` is 0 when not overridden."
      },
      "RoleAdminChanged(bytes32,bytes32,bytes32)": {
        "details": "Emitted when `newAdminRole` is set as ``role``'s admin role, replacing `previousAdminRole` `DEFAULT_ADMIN_ROLE` is the starting admin for all roles, despite {RoleAdminChanged} not being emitted signaling this. _Available since v3.1._"
      },
      "RoleGranted(bytes32,address,address)": {
        "details": "Emitted when `account` is granted `role`. `sender` is the account that originated the contract call, an admin role bearer except when using {AccessControl-_setupRole}."
      },
      "RoleRevoked(bytes32,address,address)": {
        "details": "Emitted when `account` is revoked `role`. `sender` is the account that originated the contract call:   - if using `revokeRole`, it is the admin role bearer   - if using `renounceRole`, it is the role bearer (i.e. `account`)"
      },
      "TaxRatioUpdated(address,uint256)": {
        "details": "Emitted when the renewal reservation ratio is updated."
      }
    }
  },
  "isFoundry": true,
  "nonce": 182501,
  "numDeployments": 1,
  "storageLayout": {
    "storage": [
      {
        "astId": 50000,
        "contract": "src/RNSDomainPrice.sol:RNSDomainPrice",
        "label": "_initialized",
        "offset": 0,
        "slot": "0",
        "type": "t_uint8"
      },
      {
        "astId": 50003,
        "contract": "src/RNSDomainPrice.sol:RNSDomainPrice",
        "label": "_initializing",
        "offset": 1,
        "slot": "0",
        "type": "t_bool"
      },
      {
        "astId": 48473,
        "contract": "src/RNSDomainPrice.sol:RNSDomainPrice",
        "label": "_roles",
        "offset": 0,
        "slot": "1",
        "type": "t_mapping(t_bytes32,t_struct(RoleData)48468_storage)"
      },
      {
        "astId": 48783,
        "contract": "src/RNSDomainPrice.sol:RNSDomainPrice",
        "label": "_roleMembers",
        "offset": 0,
        "slot": "2",
        "type": "t_mapping(t_bytes32,t_struct(AddressSet)54352_storage)"
      },
      {
        "astId": 59876,
        "contract": "src/RNSDomainPrice.sol:RNSDomainPrice",
        "label": "____gap",
        "offset": 0,
        "slot": "3",
        "type": "t_array(t_uint256)50_storage"
      },
      {
        "astId": 59880,
        "contract": "src/RNSDomainPrice.sol:RNSDomainPrice",
        "label": "_pyth",
        "offset": 0,
        "slot": "53",
        "type": "t_contract(IPyth)54758"
      },
      {
        "astId": 59884,
        "contract": "src/RNSDomainPrice.sol:RNSDomainPrice",
        "label": "_auction",
        "offset": 0,
        "slot": "54",
        "type": "t_contract(INSAuction)64493"
      },
      {
        "astId": 59887,
        "contract": "src/RNSDomainPrice.sol:RNSDomainPrice",
        "label": "_taxRatio",
        "offset": 0,
        "slot": "55",
        "type": "t_uint256"
      },
      {
        "astId": 59890,
        "contract": "src/RNSDomainPrice.sol:RNSDomainPrice",
        "label": "_rnfMaxLength",
        "offset": 0,
        "slot": "56",
        "type": "t_uint256"
      },
      {
        "astId": 59893,
        "contract": "src/RNSDomainPrice.sol:RNSDomainPrice",
        "label": "_maxAcceptableAge",
        "offset": 0,
        "slot": "57",
        "type": "t_uint256"
      },
      {
        "astId": 59896,
        "contract": "src/RNSDomainPrice.sol:RNSDomainPrice",
        "label": "_pythIdForRONUSD",
        "offset": 0,
        "slot": "58",
        "type": "t_bytes32"
      },
      {
        "astId": 59900,
        "contract": "src/RNSDomainPrice.sol:RNSDomainPrice",
        "label": "_dpDownScaler",
        "offset": 0,
        "slot": "59",
        "type": "t_struct(PeriodScaler)66750_storage"
      },
      {
        "astId": 59905,
        "contract": "src/RNSDomainPrice.sol:RNSDomainPrice",
        "label": "_rnFee",
        "offset": 0,
        "slot": "60",
        "type": "t_mapping(t_uint256,t_uint256)"
      },
      {
        "astId": 59911,
        "contract": "src/RNSDomainPrice.sol:RNSDomainPrice",
        "label": "_dp",
        "offset": 0,
        "slot": "61",
        "type": "t_mapping(t_bytes32,t_struct(TimestampWrapper)66673_storage)"
      },
      {
        "astId": 59916,
        "contract": "src/RNSDomainPrice.sol:RNSDomainPrice",
        "label": "_rnFeeOverriding",
        "offset": 0,
        "slot": "62",
        "type": "t_mapping(t_bytes32,t_uint256)"
      }
    ],
    "types": {
      "t_address": {
        "encoding": "inplace",
        "label": "address",
        "numberOfBytes": "20"
      },
      "t_array(t_bytes32)dyn_storage": {
        "encoding": "dynamic_array",
        "label": "bytes32[]",
        "numberOfBytes": "32",
        "base": "t_bytes32"
      },
      "t_array(t_uint256)50_storage": {
        "encoding": "inplace",
        "label": "uint256[50]",
        "numberOfBytes": "1600",
        "base": "t_uint256"
      },
      "t_bool": {
        "encoding": "inplace",
        "label": "bool",
        "numberOfBytes": "1"
      },
      "t_bytes32": {
        "encoding": "inplace",
        "label": "bytes32",
        "numberOfBytes": "32"
      },
      "t_contract(INSAuction)64493": {
        "encoding": "inplace",
        "label": "contract INSAuction",
        "numberOfBytes": "20"
      },
      "t_contract(IPyth)54758": {
        "encoding": "inplace",
        "label": "contract IPyth",
        "numberOfBytes": "20"
      },
      "t_mapping(t_address,t_bool)": {
        "encoding": "mapping",
        "key": "t_address",
        "label": "mapping(address => bool)",
        "numberOfBytes": "32",
        "value": "t_bool"
      },
      "t_mapping(t_bytes32,t_struct(AddressSet)54352_storage)": {
        "encoding": "mapping",
        "key": "t_bytes32",
        "label": "mapping(bytes32 => struct EnumerableSet.AddressSet)",
        "numberOfBytes": "32",
        "value": "t_struct(AddressSet)54352_storage"
      },
      "t_mapping(t_bytes32,t_struct(RoleData)48468_storage)": {
        "encoding": "mapping",
        "key": "t_bytes32",
        "label": "mapping(bytes32 => struct AccessControl.RoleData)",
        "numberOfBytes": "32",
        "value": "t_struct(RoleData)48468_storage"
      },
      "t_mapping(t_bytes32,t_struct(TimestampWrapper)66673_storage)": {
        "encoding": "mapping",
        "key": "t_bytes32",
        "label": "mapping(bytes32 => struct TimestampWrapper)",
        "numberOfBytes": "32",
        "value": "t_struct(TimestampWrapper)66673_storage"
      },
      "t_mapping(t_bytes32,t_uint256)": {
        "encoding": "mapping",
        "key": "t_bytes32",
        "label": "mapping(bytes32 => uint256)",
        "numberOfBytes": "32",
        "value": "t_uint256"
      },
      "t_mapping(t_uint256,t_uint256)": {
        "encoding": "mapping",
        "key": "t_uint256",
        "label": "mapping(uint256 => uint256)",
        "numberOfBytes": "32",
        "value": "t_uint256"
      },
      "t_struct(AddressSet)54352_storage": {
        "encoding": "inplace",
        "label": "struct EnumerableSet.AddressSet",
        "numberOfBytes": "64",
        "members": [
          {
            "astId": 54351,
            "contract": "src/RNSDomainPrice.sol:RNSDomainPrice",
            "label": "_inner",
            "offset": 0,
            "slot": "0",
            "type": "t_struct(Set)54037_storage"
          }
        ]
      },
      "t_struct(PeriodScaler)66750_storage": {
        "encoding": "inplace",
        "label": "struct PeriodScaler",
        "numberOfBytes": "32",
        "members": [
          {
            "astId": 66747,
            "contract": "src/RNSDomainPrice.sol:RNSDomainPrice",
            "label": "ratio",
            "offset": 0,
            "slot": "0",
            "type": "t_uint192"
          },
          {
            "astId": 66749,
            "contract": "src/RNSDomainPrice.sol:RNSDomainPrice",
            "label": "period",
            "offset": 24,
            "slot": "0",
            "type": "t_uint64"
          }
        ]
      },
      "t_struct(RoleData)48468_storage": {
        "encoding": "inplace",
        "label": "struct AccessControl.RoleData",
        "numberOfBytes": "64",
        "members": [
          {
            "astId": 48465,
            "contract": "src/RNSDomainPrice.sol:RNSDomainPrice",
            "label": "members",
            "offset": 0,
            "slot": "0",
            "type": "t_mapping(t_address,t_bool)"
          },
          {
            "astId": 48467,
            "contract": "src/RNSDomainPrice.sol:RNSDomainPrice",
            "label": "adminRole",
            "offset": 0,
            "slot": "1",
            "type": "t_bytes32"
          }
        ]
      },
      "t_struct(Set)54037_storage": {
        "encoding": "inplace",
        "label": "struct EnumerableSet.Set",
        "numberOfBytes": "64",
        "members": [
          {
            "astId": 54032,
            "contract": "src/RNSDomainPrice.sol:RNSDomainPrice",
            "label": "_values",
            "offset": 0,
            "slot": "0",
            "type": "t_array(t_bytes32)dyn_storage"
          },
          {
            "astId": 54036,
            "contract": "src/RNSDomainPrice.sol:RNSDomainPrice",
            "label": "_indexes",
            "offset": 0,
            "slot": "1",
            "type": "t_mapping(t_bytes32,t_uint256)"
          }
        ]
      },
      "t_struct(TimestampWrapper)66673_storage": {
        "encoding": "inplace",
        "label": "struct TimestampWrapper",
        "numberOfBytes": "64",
        "members": [
          {
            "astId": 66670,
            "contract": "src/RNSDomainPrice.sol:RNSDomainPrice",
            "label": "value",
            "offset": 0,
            "slot": "0",
            "type": "t_uint256"
          },
          {
            "astId": 66672,
            "contract": "src/RNSDomainPrice.sol:RNSDomainPrice",
            "label": "timestamp",
            "offset": 0,
            "slot": "1",
            "type": "t_uint256"
          }
        ]
      },
      "t_uint192": {
        "encoding": "inplace",
        "label": "uint192",
        "numberOfBytes": "24"
      },
      "t_uint256": {
        "encoding": "inplace",
        "label": "uint256",
        "numberOfBytes": "32"
      },
      "t_uint64": {
        "encoding": "inplace",
        "label": "uint64",
        "numberOfBytes": "8"
      },
      "t_uint8": {
        "encoding": "inplace",
        "label": "uint8",
        "numberOfBytes": "1"
      }
    }
  },
  "timestamp": 1697372891,
  "userdoc": {
    "version": 1,
    "kind": "user",
    "methods": {
      "getOverriddenRenewalFee(string)": {
        "notice": "This method is to help developers check the domain renewal fee overriding. Consider using method {getRenewalFee} instead for full handling of renewal fees."
      },
      "setScaleDownRuleForDomainPrice((uint192,uint64))": {
        "notice": "Applies for the business rule: -x% each y seconds."
      }
    }
  }
}