{
  "abi": [
    {
      "type": "constructor",
      "inputs": [],
      "stateMutability": "payable"
    },
    {
      "type": "function",
      "name": "DEFAULT_ADMIN_ROLE",
      "inputs": [],
      "outputs": [
        {
          "name": "",
          "type": "bytes32",
          "internalType": "bytes32"
        }
      ],
      "stateMutability": "view"
    },
    {
      "type": "function",
      "name": "MAX_PERCENTAGE",
      "inputs": [],
      "outputs": [
        {
          "name": "",
          "type": "uint64",
          "internalType": "uint64"
        }
      ],
      "stateMutability": "view"
    },
    {
      "type": "function",
      "name": "OPERATOR_ROLE",
      "inputs": [],
      "outputs": [
        {
          "name": "",
          "type": "bytes32",
          "internalType": "bytes32"
        }
      ],
      "stateMutability": "view"
    },
    {
      "type": "function",
      "name": "OVERRIDER_ROLE",
      "inputs": [],
      "outputs": [
        {
          "name": "",
          "type": "bytes32",
          "internalType": "bytes32"
        }
      ],
      "stateMutability": "view"
    },
    {
      "type": "function",
      "name": "USD_DECIMALS",
      "inputs": [],
      "outputs": [
        {
          "name": "",
          "type": "uint8",
          "internalType": "uint8"
        }
      ],
      "stateMutability": "view"
    },
    {
      "type": "function",
      "name": "bulkOverrideRenewalFees",
      "inputs": [
        {
          "name": "lbHashes",
          "type": "bytes32[]",
          "internalType": "bytes32[]"
        },
        {
          "name": "usdPrices",
          "type": "uint256[]",
          "internalType": "uint256[]"
        }
      ],
      "outputs": [],
      "stateMutability": "nonpayable"
    },
    {
      "type": "function",
      "name": "bulkOverrideTiers",
      "inputs": [
        {
          "name": "lbHashes",
          "type": "bytes32[]",
          "internalType": "bytes32[]"
        },
        {
          "name": "tiers",
          "type": "uint8[]",
          "internalType": "enum INSDomainPrice.Tier[]"
        }
      ],
      "outputs": [],
      "stateMutability": "nonpayable"
    },
    {
      "type": "function",
      "name": "bulkSetDomainPrice",
      "inputs": [
        {
          "name": "lbHashes",
          "type": "bytes32[]",
          "internalType": "bytes32[]"
        },
        {
          "name": "ronPrices",
          "type": "uint256[]",
          "internalType": "uint256[]"
        },
        {
          "name": "proofHashes",
          "type": "bytes32[]",
          "internalType": "bytes32[]"
        },
        {
          "name": "setTypes",
          "type": "uint256[]",
          "internalType": "uint256[]"
        }
      ],
      "outputs": [],
      "stateMutability": "nonpayable"
    },
    {
      "type": "function",
      "name": "bulkTrySetDomainPrice",
      "inputs": [
        {
          "name": "lbHashes",
          "type": "bytes32[]",
          "internalType": "bytes32[]"
        },
        {
          "name": "ronPrices",
          "type": "uint256[]",
          "internalType": "uint256[]"
        },
        {
          "name": "proofHashes",
          "type": "bytes32[]",
          "internalType": "bytes32[]"
        },
        {
          "name": "setTypes",
          "type": "uint256[]",
          "internalType": "uint256[]"
        }
      ],
      "outputs": [
        {
          "name": "updated",
          "type": "bool[]",
          "internalType": "bool[]"
        }
      ],
      "stateMutability": "nonpayable"
    },
    {
      "type": "function",
      "name": "convertRONToUSD",
      "inputs": [
        {
          "name": "ronWei",
          "type": "uint256",
          "internalType": "uint256"
        }
      ],
      "outputs": [
        {
          "name": "usdWei",
          "type": "uint256",
          "internalType": "uint256"
        }
      ],
      "stateMutability": "view"
    },
    {
      "type": "function",
      "name": "convertUSDToRON",
      "inputs": [
        {
          "name": "usdWei",
          "type": "uint256",
          "internalType": "uint256"
        }
      ],
      "outputs": [
        {
          "name": "ronWei",
          "type": "uint256",
          "internalType": "uint256"
        }
      ],
      "stateMutability": "view"
    },
    {
      "type": "function",
      "name": "getDomainPrice",
      "inputs": [
        {
          "name": "label",
          "type": "string",
          "internalType": "string"
        }
      ],
      "outputs": [
        {
          "name": "usdPrice",
          "type": "uint256",
          "internalType": "uint256"
        },
        {
          "name": "ronPrice",
          "type": "uint256",
          "internalType": "uint256"
        }
      ],
      "stateMutability": "view"
    },
    {
      "type": "function",
      "name": "getOverriddenRenewalFee",
      "inputs": [
        {
          "name": "label",
          "type": "string",
          "internalType": "string"
        }
      ],
      "outputs": [
        {
          "name": "usdFee",
          "type": "uint256",
          "internalType": "uint256"
        }
      ],
      "stateMutability": "view"
    },
    {
      "type": "function",
      "name": "getOverriddenTier",
      "inputs": [
        {
          "name": "label",
          "type": "string",
          "internalType": "string"
        }
      ],
      "outputs": [
        {
          "name": "tier",
          "type": "uint8",
          "internalType": "enum INSDomainPrice.Tier"
        }
      ],
      "stateMutability": "view"
    },
    {
      "type": "function",
      "name": "getPythOracleConfig",
      "inputs": [],
      "outputs": [
        {
          "name": "pyth",
          "type": "address",
          "internalType": "contract IPyth"
        },
        {
          "name": "maxAcceptableAge",
          "type": "uint256",
          "internalType": "uint256"
        },
        {
          "name": "pythIdForRONUSD",
          "type": "bytes32",
          "internalType": "bytes32"
        }
      ],
      "stateMutability": "view"
    },
    {
      "type": "function",
      "name": "getRenewalFee",
      "inputs": [
        {
          "name": "label",
          "type": "string",
          "internalType": "string"
        },
        {
          "name": "duration",
          "type": "uint256",
          "internalType": "uint256"
        }
      ],
      "outputs": [
        {
          "name": "basePrice",
          "type": "tuple",
          "internalType": "struct INSDomainPrice.UnitPrice",
          "components": [
            {
              "name": "usd",
              "type": "uint256",
              "internalType": "uint256"
            },
            {
              "name": "ron",
              "type": "uint256",
              "internalType": "uint256"
            }
          ]
        },
        {
          "name": "tax",
          "type": "tuple",
          "internalType": "struct INSDomainPrice.UnitPrice",
          "components": [
            {
              "name": "usd",
              "type": "uint256",
              "internalType": "uint256"
            },
            {
              "name": "ron",
              "type": "uint256",
              "internalType": "uint256"
            }
          ]
        }
      ],
      "stateMutability": "view"
    },
    {
      "type": "function",
      "name": "getRenewalFeeByLengths",
      "inputs": [],
      "outputs": [
        {
          "name": "renewalFees",
          "type": "tuple[]",
          "internalType": "struct INSDomainPrice.RenewalFee[]",
          "components": [
            {
              "name": "labelLength",
              "type": "uint256",
              "internalType": "uint256"
            },
            {
              "name": "fee",
              "type": "uint256",
              "internalType": "uint256"
            }
          ]
        }
      ],
      "stateMutability": "view"
    },
    {
      "type": "function",
      "name": "getRoleAdmin",
      "inputs": [
        {
          "name": "role",
          "type": "bytes32",
          "internalType": "bytes32"
        }
      ],
      "outputs": [
        {
          "name": "",
          "type": "bytes32",
          "internalType": "bytes32"
        }
      ],
      "stateMutability": "view"
    },
    {
      "type": "function",
      "name": "getRoleMember",
      "inputs": [
        {
          "name": "role",
          "type": "bytes32",
          "internalType": "bytes32"
        },
        {
          "name": "index",
          "type": "uint256",
          "internalType": "uint256"
        }
      ],
      "outputs": [
        {
          "name": "",
          "type": "address",
          "internalType": "address"
        }
      ],
      "stateMutability": "view"
    },
    {
      "type": "function",
      "name": "getRoleMemberCount",
      "inputs": [
        {
          "name": "role",
          "type": "bytes32",
          "internalType": "bytes32"
        }
      ],
      "outputs": [
        {
          "name": "",
          "type": "uint256",
          "internalType": "uint256"
        }
      ],
      "stateMutability": "view"
    },
    {
      "type": "function",
      "name": "getScaleDownRuleForDomainPrice",
      "inputs": [],
      "outputs": [
        {
          "name": "scaleRule",
          "type": "tuple",
          "internalType": "struct PeriodScaler",
          "components": [
            {
              "name": "ratio",
              "type": "uint192",
              "internalType": "uint192"
            },
            {
              "name": "period",
              "type": "uint64",
              "internalType": "uint64"
            }
          ]
        }
      ],
      "stateMutability": "view"
    },
    {
      "type": "function",
      "name": "getTaxRatio",
      "inputs": [],
      "outputs": [
        {
          "name": "ratio",
          "type": "uint256",
          "internalType": "uint256"
        }
      ],
      "stateMutability": "view"
    },
    {
      "type": "function",
      "name": "getTier",
      "inputs": [
        {
          "name": "label",
          "type": "string",
          "internalType": "string"
        }
      ],
      "outputs": [
        {
          "name": "tier",
          "type": "uint8",
          "internalType": "enum INSDomainPrice.Tier"
        }
      ],
      "stateMutability": "view"
    },
    {
      "type": "function",
      "name": "grantRole",
      "inputs": [
        {
          "name": "role",
          "type": "bytes32",
          "internalType": "bytes32"
        },
        {
          "name": "account",
          "type": "address",
          "internalType": "address"
        }
      ],
      "outputs": [],
      "stateMutability": "nonpayable"
    },
    {
      "type": "function",
      "name": "hasRole",
      "inputs": [
        {
          "name": "role",
          "type": "bytes32",
          "internalType": "bytes32"
        },
        {
          "name": "account",
          "type": "address",
          "internalType": "address"
        }
      ],
      "outputs": [
        {
          "name": "",
          "type": "bool",
          "internalType": "bool"
        }
      ],
      "stateMutability": "view"
    },
    {
      "type": "function",
      "name": "initialize",
      "inputs": [
        {
          "name": "admin",
          "type": "address",
          "internalType": "address"
        },
        {
          "name": "operators",
          "type": "address[]",
          "internalType": "address[]"
        },
        {
          "name": "renewalFees",
          "type": "tuple[]",
          "internalType": "struct INSDomainPrice.RenewalFee[]",
          "components": [
            {
              "name": "labelLength",
              "type": "uint256",
              "internalType": "uint256"
            },
            {
              "name": "fee",
              "type": "uint256",
              "internalType": "uint256"
            }
          ]
        },
        {
          "name": "taxRatio",
          "type": "uint256",
          "internalType": "uint256"
        },
        {
          "name": "domainPriceScaleRule",
          "type": "tuple",
          "internalType": "struct PeriodScaler",
          "components": [
            {
              "name": "ratio",
              "type": "uint192",
              "internalType": "uint192"
            },
            {
              "name": "period",
              "type": "uint64",
              "internalType": "uint64"
            }
          ]
        },
        {
          "name": "pyth",
          "type": "address",
          "internalType": "contract IPyth"
        },
        {
          "name": "auction",
          "type": "address",
          "internalType": "contract INSAuction"
        },
        {
          "name": "maxAcceptableAge",
          "type": "uint256",
          "internalType": "uint256"
        },
        {
          "name": "pythIdForRONUSD",
          "type": "bytes32",
          "internalType": "bytes32"
        }
      ],
      "outputs": [],
      "stateMutability": "nonpayable"
    },
    {
      "type": "function",
      "name": "renounceRole",
      "inputs": [
        {
          "name": "role",
          "type": "bytes32",
          "internalType": "bytes32"
        },
        {
          "name": "account",
          "type": "address",
          "internalType": "address"
        }
      ],
      "outputs": [],
      "stateMutability": "nonpayable"
    },
    {
      "type": "function",
      "name": "revokeRole",
      "inputs": [
        {
          "name": "role",
          "type": "bytes32",
          "internalType": "bytes32"
        },
        {
          "name": "account",
          "type": "address",
          "internalType": "address"
        }
      ],
      "outputs": [],
      "stateMutability": "nonpayable"
    },
    {
      "type": "function",
      "name": "setPythOracleConfig",
      "inputs": [
        {
          "name": "pyth",
          "type": "address",
          "internalType": "contract IPyth"
        },
        {
          "name": "maxAcceptableAge",
          "type": "uint256",
          "internalType": "uint256"
        },
        {
          "name": "pythIdForRONUSD",
          "type": "bytes32",
          "internalType": "bytes32"
        }
      ],
      "outputs": [],
      "stateMutability": "nonpayable"
    },
    {
      "type": "function",
      "name": "setRenewalFeeByLengths",
      "inputs": [
        {
          "name": "renewalFees",
          "type": "tuple[]",
          "internalType": "struct INSDomainPrice.RenewalFee[]",
          "components": [
            {
              "name": "labelLength",
              "type": "uint256",
              "internalType": "uint256"
            },
            {
              "name": "fee",
              "type": "uint256",
              "internalType": "uint256"
            }
          ]
        }
      ],
      "outputs": [],
      "stateMutability": "nonpayable"
    },
    {
      "type": "function",
      "name": "setScaleDownRuleForDomainPrice",
      "inputs": [
        {
          "name": "scaleRule",
          "type": "tuple",
          "internalType": "struct PeriodScaler",
          "components": [
            {
              "name": "ratio",
              "type": "uint192",
              "internalType": "uint192"
            },
            {
              "name": "period",
              "type": "uint64",
              "internalType": "uint64"
            }
          ]
        }
      ],
      "outputs": [],
      "stateMutability": "nonpayable"
    },
    {
      "type": "function",
      "name": "setTaxRatio",
      "inputs": [
        {
          "name": "ratio",
          "type": "uint256",
          "internalType": "uint256"
        }
      ],
      "outputs": [],
      "stateMutability": "nonpayable"
    },
    {
      "type": "function",
      "name": "supportsInterface",
      "inputs": [
        {
          "name": "interfaceId",
          "type": "bytes4",
          "internalType": "bytes4"
        }
      ],
      "outputs": [
        {
          "name": "",
          "type": "bool",
          "internalType": "bool"
        }
      ],
      "stateMutability": "view"
    },
    {
      "type": "event",
      "name": "DomainPriceScaleRuleUpdated",
      "inputs": [
        {
          "name": "operator",
          "type": "address",
          "indexed": true,
          "internalType": "address"
        },
        {
          "name": "ratio",
          "type": "uint192",
          "indexed": false,
          "internalType": "uint192"
        },
        {
          "name": "period",
          "type": "uint64",
          "indexed": false,
          "internalType": "uint64"
        }
      ],
      "anonymous": false
    },
    {
      "type": "event",
      "name": "DomainPriceUpdated",
      "inputs": [
        {
          "name": "operator",
          "type": "address",
          "indexed": true,
          "internalType": "address"
        },
        {
          "name": "labelHash",
          "type": "bytes32",
          "indexed": true,
          "internalType": "bytes32"
        },
        {
          "name": "price",
          "type": "uint256",
          "indexed": false,
          "internalType": "uint256"
        },
        {
          "name": "proofHash",
          "type": "bytes32",
          "indexed": true,
          "internalType": "bytes32"
        },
        {
          "name": "setType",
          "type": "uint256",
          "indexed": false,
          "internalType": "uint256"
        }
      ],
      "anonymous": false
    },
    {
      "type": "event",
      "name": "Initialized",
      "inputs": [
        {
          "name": "version",
          "type": "uint8",
          "indexed": false,
          "internalType": "uint8"
        }
      ],
      "anonymous": false
    },
    {
      "type": "event",
      "name": "MaxRenewalFeeLengthUpdated",
      "inputs": [
        {
          "name": "operator",
          "type": "address",
          "indexed": true,
          "internalType": "address"
        },
        {
          "name": "maxLength",
          "type": "uint256",
          "indexed": true,
          "internalType": "uint256"
        }
      ],
      "anonymous": false
    },
    {
      "type": "event",
      "name": "PythOracleConfigUpdated",
      "inputs": [
        {
          "name": "operator",
          "type": "address",
          "indexed": true,
          "internalType": "address"
        },
        {
          "name": "pyth",
          "type": "address",
          "indexed": true,
          "internalType": "contract IPyth"
        },
        {
          "name": "maxAcceptableAge",
          "type": "uint256",
          "indexed": false,
          "internalType": "uint256"
        },
        {
          "name": "pythIdForRONUSD",
          "type": "bytes32",
          "indexed": true,
          "internalType": "bytes32"
        }
      ],
      "anonymous": false
    },
    {
      "type": "event",
      "name": "RenewalFeeByLengthUpdated",
      "inputs": [
        {
          "name": "operator",
          "type": "address",
          "indexed": true,
          "internalType": "address"
        },
        {
          "name": "labelLength",
          "type": "uint256",
          "indexed": true,
          "internalType": "uint256"
        },
        {
          "name": "renewalFee",
          "type": "uint256",
          "indexed": false,
          "internalType": "uint256"
        }
      ],
      "anonymous": false
    },
    {
      "type": "event",
      "name": "RenewalFeeOverridingUpdated",
      "inputs": [
        {
          "name": "operator",
          "type": "address",
          "indexed": true,
          "internalType": "address"
        },
        {
          "name": "labelHash",
          "type": "bytes32",
          "indexed": true,
          "internalType": "bytes32"
        },
        {
          "name": "inverseRenewalFee",
          "type": "uint256",
          "indexed": false,
          "internalType": "uint256"
        }
      ],
      "anonymous": false
    },
    {
      "type": "event",
      "name": "RoleAdminChanged",
      "inputs": [
        {
          "name": "role",
          "type": "bytes32",
          "indexed": true,
          "internalType": "bytes32"
        },
        {
          "name": "previousAdminRole",
          "type": "bytes32",
          "indexed": true,
          "internalType": "bytes32"
        },
        {
          "name": "newAdminRole",
          "type": "bytes32",
          "indexed": true,
          "internalType": "bytes32"
        }
      ],
      "anonymous": false
    },
    {
      "type": "event",
      "name": "RoleGranted",
      "inputs": [
        {
          "name": "role",
          "type": "bytes32",
          "indexed": true,
          "internalType": "bytes32"
        },
        {
          "name": "account",
          "type": "address",
          "indexed": true,
          "internalType": "address"
        },
        {
          "name": "sender",
          "type": "address",
          "indexed": true,
          "internalType": "address"
        }
      ],
      "anonymous": false
    },
    {
      "type": "event",
      "name": "RoleRevoked",
      "inputs": [
        {
          "name": "role",
          "type": "bytes32",
          "indexed": true,
          "internalType": "bytes32"
        },
        {
          "name": "account",
          "type": "address",
          "indexed": true,
          "internalType": "address"
        },
        {
          "name": "sender",
          "type": "address",
          "indexed": true,
          "internalType": "address"
        }
      ],
      "anonymous": false
    },
    {
      "type": "event",
      "name": "TaxRatioUpdated",
      "inputs": [
        {
          "name": "operator",
          "type": "address",
          "indexed": true,
          "internalType": "address"
        },
        {
          "name": "ratio",
          "type": "uint256",
          "indexed": true,
          "internalType": "uint256"
        }
      ],
      "anonymous": false
    },
    {
      "type": "event",
      "name": "TierOverridingUpdated",
      "inputs": [
        {
          "name": "operator",
          "type": "address",
          "indexed": true,
          "internalType": "address"
        },
        {
          "name": "labelHash",
          "type": "bytes32",
          "indexed": true,
          "internalType": "bytes32"
        },
        {
          "name": "tier",
          "type": "uint8",
          "indexed": true,
          "internalType": "enum INSDomainPrice.Tier"
        }
      ],
      "anonymous": false
    },
    {
      "type": "error",
      "name": "ErrComputedPriceTooLarge",
      "inputs": [
        {
          "name": "expo1",
          "type": "int32",
          "internalType": "int32"
        },
        {
          "name": "expo2",
          "type": "int32",
          "internalType": "int32"
        },
        {
          "name": "price1",
          "type": "int64",
          "internalType": "int64"
        }
      ]
    },
    {
      "type": "error",
      "name": "ErrExponentTooLarge",
      "inputs": [
        {
          "name": "expo",
          "type": "int32",
          "internalType": "int32"
        }
      ]
    },
    {
      "type": "error",
      "name": "ExceedAuctionDomainExpiry",
      "inputs": []
    },
    {
      "type": "error",
      "name": "InvalidArrayLength",
      "inputs": []
    },
    {
      "type": "error",
      "name": "PeriodNumOverflowedUint16",
      "inputs": [
        {
          "name": "n",
          "type": "uint256",
          "internalType": "uint256"
        }
      ]
    },
    {
      "type": "error",
      "name": "RenewalFeeIsNotOverriden",
      "inputs": []
    },
    {
      "type": "error",
      "name": "TierIsNotOverriden",
      "inputs": []
    }
  ],
  "absolutePath": "RNSDomainPrice.sol",
  "address": "0xc77EAbB5172037A1a82f4E6bb6813894121d8062",
  "blockNumber": 28516662,
  "bytecode": "0x60806040526200000e62000014565b620000d5565b600054610100900460ff1615620000815760405162461bcd60e51b815260206004820152602760248201527f496e697469616c697a61626c653a20636f6e747261637420697320696e697469604482015266616c697a696e6760c81b606482015260840160405180910390fd5b60005460ff90811614620000d3576000805460ff191660ff9081179091556040519081527f7f26b83ff96e1f2b6a682f133852f6798a09c465da95921460cefb38474024989060200160405180910390a15b565b61351380620000e56000396000f3fe608060405234801561001057600080fd5b50600436106101fb5760003560e01c80635ef32e2c1161011a578063ca15c873116100ad578063dfef64da1161007c578063dfef64da146104f4578063e229a67014610507578063f4651f491461051a578063f5b541a61461053b578063fe303ebf1461056257600080fd5b8063ca15c873146104a8578063d40ed58c146104bb578063d547741f146104ce578063dd28776d146104e157600080fd5b80637e32146a116100e95780637e32146a146104425780639010d07c1461046257806391d148541461048d578063a217fddf146104a057600080fd5b80635ef32e2c146103ea578063700213c8146103f2578063713a69a7146104075780637174026e1461042f57600080fd5b806335feb7411161019257806353faf9091161016157806353faf9091461039157806359228107146103b1578063599eaabf146103c45780635c68c830146103d757600080fd5b806335feb741146102f257806336568abe1461030557806339e47da7146103185780634c255c971461037057600080fd5b806328dd3065116101ce57806328dd3065146102825780632be09ecc146102975780632f2ff15d146102c55780632f6ee695146102d857600080fd5b806301ffc9a714610200578063037f1769146102285780630a44f51f14610249578063248a9ca31461025e575b600080fd5b61021361020e3660046126a2565b610575565b60405190151581526020015b60405180910390f35b61023b6102363660046126cc565b6105a0565b60405190815260200161021f565b610251610632565b60405161021f91906126e5565b61023b61026c3660046126cc565b6000908152600160208190526040909120015490565b61029561029036600461275c565b61070f565b005b603554603954603a54604080516001600160a01b03909416845260208401929092529082015260600161021f565b6102956102d3366004612791565b61072b565b6102e0601281565b60405160ff909116815260200161021f565b610295610300366004612805565b610756565b610295610313366004612791565b61076b565b604080518082018252600080825260209182015281518083018352603b546001600160c01b0381168083526001600160401b03600160c01b90920482169284019283528451908152915116918101919091520161021f565b61037961271081565b6040516001600160401b03909116815260200161021f565b6103a461039f36600461288a565b6107ee565b60405161021f919061294d565b6102956103bf366004612993565b610927565b6102956103d236600461288a565b610a91565b61023b6103e53660046129fe565b610b4f565b60375461023b565b61023b6000805160206134be83398151915281565b61041a610415366004612b9e565b610bcd565b6040805192835260208301919091520161021f565b61023b61043d3660046126cc565b610bf9565b6104556104503660046129fe565b610c8c565b60405161021f9190612be8565b610475610470366004612c10565b610d28565b6040516001600160a01b03909116815260200161021f565b61021361049b366004612791565b610d47565b61023b600081565b61023b6104b63660046126cc565b610d72565b6102956104c9366004612c4a565b610d89565b6102956104dc366004612791565b610f51565b6102956104ef366004612993565b610f77565b610455610502366004612b9e565b611078565b610295610515366004612d23565b611130565b61052d610528366004612d3f565b611144565b60405161021f929190612d83565b61023b7f97667070c54ef182b0f5858b034beac1b6f3089aa2d3188bb1e8929f4fa9b92981565b6102956105703660046126cc565b6111a1565b60006001600160e01b03198216635a05180f60e01b148061059a575061059a826111b5565b92915050565b603554603a5460395460405163052571af60e51b815260009361059a93869360129384936001600160a01b03169263a4ae35e0926105e992600401918252602082015260400190565b608060405180830381865afa158015610606573d6000803e3d6000fd5b505050506040513d601f19601f8201168201806040525081019061062a9190612dbe565b9291906111ea565b603854606090806001600160401b0381111561065057610650612a6f565b60405190808252806020026020018201604052801561069557816020015b604080518082019091526000808252602082015281526020019060019003908161066e5790505b5091506000805b8281101561070957806001019150818482815181106106bd576106bd612e2b565b60200260200101516000018181525050603c6000838152602001908152602001600020548482815181106106f3576106f3612e2b565b602090810291909101810151015260010161069c565b50505090565b600061071a81611229565b610725848484611236565b50505050565b6000828152600160208190526040909120015461074781611229565b61075183836112a8565b505050565b600061076181611229565b61075183836112ca565b6001600160a01b03811633146107e05760405162461bcd60e51b815260206004820152602f60248201527f416363657373436f6e74726f6c3a2063616e206f6e6c792072656e6f756e636560448201526e103937b632b9903337b91039b2b63360891b60648201526084015b60405180910390fd5b6107ea82826113e3565b5050565b60607f97667070c54ef182b0f5858b034beac1b6f3089aa2d3188bb1e8929f4fa9b92961081a81611229565b600061082c8b8b8b8b8b8b8b8b611405565b905033816001600160401b0381111561084757610847612a6f565b604051908082528060200260200182016040528015610870578160200160208202803683370190505b50935060005b82811015610917576108ed828e8e8481811061089457610894612e2b565b905060200201358d8d858181106108ad576108ad612e2b565b905060200201358c8c868181106108c6576108c6612e2b565b905060200201358b8b878181106108df576108df612e2b565b905060200201356000611453565b8582815181106108ff576108ff612e2b565b91151560209283029190910190910152600101610876565b5050505098975050505050505050565b6000805160206134be83398151915261093f81611229565b8380158061094d5750808314155b1561096b57604051634ec4810560e11b815260040160405180910390fd5b600033815b83811015610a865786868281811061098a5761098a612e2b565b905060200201602081019061099f9190612e41565b60038111156109b0576109b0612bd2565b19925082603f60008b8b858181106109ca576109ca612e2b565b90506020020135815260200190815260200160002060006101000a81548160ff021916908360ff160217905550868682818110610a0957610a09612e2b565b9050602002016020810190610a1e9190612e41565b6003811115610a2f57610a2f612bd2565b898983818110610a4157610a41612e2b565b90506020020135836001600160a01b03167f3f340e5d69d5f452290191bb7d417287ccd8896c4e4852a95c3702a834993ab160405160405180910390a4600101610970565b505050505050505050565b6000805160206134be833981519152610aa981611229565b6000610abb8a8a8a8a8a8a8a8a611405565b90503360005b82811015610b4157610b38828d8d84818110610adf57610adf612e2b565b905060200201358c8c85818110610af857610af8612e2b565b905060200201358b8b86818110610b1157610b11612e2b565b905060200201358a8a87818110610b2a57610b2a612e2b565b905060200201356001611453565b50600101610ac1565b505050505050505050505050565b6000603e6000610b9485858080601f0160208091040260200160405190810160405280939291908181526020018383808284376000920191909152506114e292505050565b815260200190815260200160002054905080600003610bc657604051635421761560e11b815260040160405180910390fd5b1992915050565b600080610be7610be284805160209091012090565b6114ed565b9150610bf282610bf9565b9050915091565b603554603a5460395460405163052571af60e51b81526004810192909252602482015260009161059a918491601291829161062a91601119916001600160a01b03169063a4ae35e090604401608060405180830381865afa158015610c62573d6000803e3d6000fd5b505050506040513d601f19601f82011682018060405250810190610c869190612dbe565b9061155e565b600080603f6000610cd286868080601f0160208091040260200160405190810160405280939291908181526020018383808284376000920191909152506114e292505050565b8152602081019190915260400160009081205460ff169150819003610d0a5760405163b34afcf160e01b815260040160405180910390fd5b801960ff166003811115610d2057610d20612bd2565b949350505050565b6000828152600260205260408120610d4090836116b8565b9392505050565b60009182526001602090815260408084206001600160a01b0393909316845291905290205460ff1690565b600081815260026020526040812061059a906116c4565b600054610100900460ff1615808015610da95750600054600160ff909116105b80610dc35750303b158015610dc3575060005460ff166001145b610e265760405162461bcd60e51b815260206004820152602e60248201527f496e697469616c697a61626c653a20636f6e747261637420697320616c72656160448201526d191e481a5b9a5d1a585b1a5e995960921b60648201526084016107d7565b6000805460ff191660011790558015610e49576000805461ff0019166101001790555b897f97667070c54ef182b0f5858b034beac1b6f3089aa2d3188bb1e8929f4fa9b92960005b82811015610eae57610ea6828f8f84818110610e8c57610e8c612e2b565b9050602002016020810190610ea19190612e62565b6116ce565b600101610e6e565b50603680546001600160a01b0319166001600160a01b038816179055610ed560008f6116ce565b610edf8b8b6112ca565b610ee8896116d8565b610ef18861170d565b610efc878686611236565b50508015610b41576000805461ff0019169055604051600181527f7f26b83ff96e1f2b6a682f133852f6798a09c465da95921460cefb38474024989060200160405180910390a1505050505050505050505050565b60008281526001602081905260409091200154610f6d81611229565b61075183836113e3565b6000805160206134be833981519152610f8f81611229565b83801580610f9d5750808314155b15610fbb57604051634ec4810560e11b815260040160405180910390fd5b600033815b83811015610a8657868682818110610fda57610fda612e2b565b9050602002013519925082603e60008b8b85818110610ffb57610ffb612e2b565b9050602002013581526020019081526020016000208190555088888281811061102657611026612e2b565b90506020020135826001600160a01b03167fb52d278cb3ef3b003bdfb385ce2eb23a83eb6d713724abfba1acaa16ccf662148560405161106891815260200190565b60405180910390a3600101610fc0565b80516020808301919091206000818152603f909252604082205460ff1680156110b157801960ff166003811115610d2057610d20612bd2565b60006110c1856301e13380611789565b50509050600060026110d2856114ed565b6110dc9190612eab565b82516110e89190612ebf565b9050680ad78ebc5ac62000008111156111075750600195945050505050565b6802b5e3af16b18800008111156111245750600295945050505050565b50600395945050505050565b600061113b81611229565b6107ea8261170d565b6040805180820190915260008082526020820152604080518082019091526000808252602082015260006111788585611789565b919450925090506001600160e01b0319811615611199578060005260046000fd5b509250929050565b60006111ac81611229565b6107ea826116d8565b60006001600160e01b03198216637965db0b60e01b148061059a57506301ffc9a760e01b6001600160e01b031983161461059a565b600061122084611210876000015160070b88604001518661120b9190612ed2565b611b3f565b61121b600187611b3f565b611b99565b95945050505050565b6112338133611c82565b50565b603580546001600160a01b0319166001600160a01b0385169081179091556039839055603a8290558190336001600160a01b03167f671083457675651266070f50f1438ef8190b7da64d38f16f5117246236b7dd5b8560405161129b91815260200190565b60405180910390a4505050565b6112b28282611cdb565b60008281526002602052604090206107519082611d46565b60408051808201909152600080825260208201523390603854839060005b828110156113955786868281811061130257611302612e2b565b9050604002018036038101906113189190612ef9565b9350611328828560000151611d5b565b6020808601805187516000908152603c90935260409283902055865190519151929450916001600160a01b038816917f85211e946be6d537cd1b22a183d04151d4e5d0818e1ce75d2e5ebaecba0a5a779161138591815260200190565b60405180910390a36001016112e8565b5060385481146113db57603881905560405181906001600160a01b038616907f7e7c3a4273ac1af351af63a82e91a8335bcb389ba681375a32dbe4455d0d474b90600090a35b505050505050565b6113ed8282611d71565b60008281526002602052604090206107519082611dd8565b868015806114135750858114155b8061141e5750838114155b806114295750818114155b1561144757604051634ec4810560e11b815260040160405180910390fd5b98975050505050505050565b60008061145f866105a0565b6000888152603d60205260409020909150838061147c5750805482115b925082156114d657818155426001820155604080518381526020810187905287918a916001600160a01b038d16917f60d5fd6d2284807447aae62f93c05517a647b8e8479c3af2c27ee1d1c85b540f910160405180910390a45b50509695505050505050565b805160209091012090565b6000818152603d602052604081206001810154808303611511575060009392505050565b600061151d8242612f2b565b835460408051808201909152603b546001600160c01b0381168252600160c01b90046001600160401b03166020820152919250611220919061271084611ded565b60408051608081018252600080825260208201819052918101829052606081019190915260006115976001856040015161120b90612f3e565b90506001600160ff1b038111156115cd576040808501519051633e87ca5d60e11b815260039190910b60048201526024016107d7565b60006115dd600161120b86612f3e565b90506001600160ff1b0381111561160d57604051633e87ca5d60e11b8152600385900b60048201526024016107d7565b845160009060070b61161f8385612f61565b6116299190612f91565b9050677fffffffffffffff81131561167557604086810151875191516329b2fb5560e11b8152600391820b60048201529087900b602482015260079190910b60448201526064016107d7565b60405180608001604052808260070b815260200187602001516001600160401b031681526020018660030b81526020018760600151815250935050505092915050565b6000610d408383611ec3565b600061059a825490565b6107ea82826112a8565b6037819055604051819033907f1e97e29c863545fad1ce79512b4deb3f0b7d30c3356bc7bbbd6588c9e68cf07390600090a350565b80603b61171a8282612fd4565b503390507fa7f38b74141f9a2ac1b02640ded2b98431ef77f8cf2e3ade85c71d6c8420dc6461174c6020840184613016565b61175c6040850160208601613033565b604080516001600160c01b0390931683526001600160401b0390911660208301520160405180910390a250565b604080518082019091526000808252602082015260408051808201909152600080825260208201526000806117bd86611eed565b865160208801209091506000906000818152603e602052604090205490915080156117f4576117ed811988613050565b8652611b14565b6000603c600061180686603854611fdb565b815260200190815260200160002054905080886118239190613050565b875260006118627fba69923fa107dbf5a25a073a10b7c9216ae39fbadc95dc891d460d9ae315d6888b6000918252805160209182012090526040902090565b6036546040516329fc8caf60e11b8152600481018390529192506001600160a01b03169081906353f9195e90602401602060405180830381865afa1580156118ae573d6000803e3d6000fd5b505050506040513d601f19601f820116820180604052508101906118d29190613077565b15611b10576000816001600160a01b0316638c8433146040518163ffffffff1660e01b8152600401602060405180830381865afa158015611917573d6000803e3d6000fd5b505050506040513d601f19601f8201168201806040525081019061193b9190613092565b905060006119d6826001600160a01b03166303e9e609866040518263ffffffff1660e01b815260040161197091815260200190565b600060405180830381865afa15801561198d573d6000803e3d6000fd5b505050506040513d6000823e601f3d908101601f191682016040526119b59190810190613139565b60200151604001516001600160401b03168d6001600160401b038016611fea565b6040516378bd793560e01b8152600481018690529091506000906001600160a01b038516906378bd79359060240160e060405180830381865afa158015611a21573d6000803e3d6000fd5b505050506040513d601f19601f82011682018060405250810190611a459190613240565b506040810151606001519091508015801590611ad35750846001600160a01b0316630afe1bb36040518163ffffffff1660e01b8152600401602060405180830381865afa158015611a9a573d6000803e3d6000fd5b505050506040513d601f19601f82011682018060405250810190611abe91906132dd565b6001600160401b0316611ad18285612f2b565b115b15611af25750631bb03f9d60e01b9950611b3898505050505050505050565b611b09603754611b018b6114ed565b612710611b99565b8c52505050505b5050505b8451611b1f90610bf9565b60208601528551611b2f90610bf9565b60208701525050505b9250925092565b6000808260030b1215611b7157611b5582612f3e565b611b6090600a6133d6565b611b6a9084612eab565b905061059a565b60008260030b1315611b9257611b8882600a6133d6565b611b6a9084613050565b508161059a565b6000808060001985870985870292508281108382030391505080600003611bd357838281611bc957611bc9612e7f565b0492505050610d40565b808411611c1a5760405162461bcd60e51b81526020600482015260156024820152744d6174683a206d756c446976206f766572666c6f7760581b60448201526064016107d7565b600084868809600260036001881981018916988990049182028318808302840302808302840302808302840302808302840302808302840302918202909203026000889003889004909101858311909403939093029303949094049190911702949350505050565b611c8c8282610d47565b6107ea57611c9981612020565b611ca4836020612032565b604051602001611cb59291906133e8565b60408051601f198184030181529082905262461bcd60e51b82526107d79160040161345d565b611ce58282610d47565b6107ea5760008281526001602081815260408084206001600160a01b0386168086529252808420805460ff19169093179092559051339285917f2f8788117e7eff1d82e926ec794901d17c78024a50270940304540a733656f0d9190a45050565b6000610d40836001600160a01b0384166121cd565b6000818311611d6a5781610d40565b5090919050565b611d7b8282610d47565b156107ea5760008281526001602090815260408083206001600160a01b0385168085529252808320805460ff1916905551339285917ff6391f5c32d9c69d2a47ea670b442974b53935d1edc7fd64eb21e047a839171b9190a45050565b6000610d40836001600160a01b03841661221c565b60008085602001516001600160401b031683611e099190612eab565b9050801580611e20575085516001600160c01b0316155b15611e2e5784915050610d20565b85516001600160c01b03166001600160401b03851603611e52576000915050610d20565b61ffff811115611e7857604051637359f25f60e01b8152600481018290526024016107d7565b6000611ea88760000151866001600160401b0316036001600160c01b0316612710876001600160401b0316611b99565b9050611eb886826127108561230f565b979650505050505050565b6000826000018281548110611eda57611eda612e2b565b9060005260206000200154905092915050565b600080600080845190505b80831015611fd3576000858481518110611f1457611f14612e2b565b01602001516001600160f81b0319169050600160ff1b811015611f3c57600184019350611fc7565b600760fd1b6001600160f81b031982161015611f5d57600284019350611fc7565b600f60fc1b6001600160f81b031982161015611f7e57600384019350611fc7565b601f60fb1b6001600160f81b031982161015611f9f57600484019350611fc7565b603f60fa1b6001600160f81b031982161015611fc057600584019350611fc7565b6006840193505b50600190910190611ef8565b509392505050565b6000818310611d6a5781610d40565b600081841180611ff957508183115b15612005575080610d40565b61200f8484612472565b905081811115610d40575080610d40565b606061059a6001600160a01b03831660145b60606000612041836002613050565b61204c906002612ebf565b6001600160401b0381111561206357612063612a6f565b6040519080825280601f01601f19166020018201604052801561208d576020820181803683370190505b509050600360fc1b816000815181106120a8576120a8612e2b565b60200101906001600160f81b031916908160001a905350600f60fb1b816001815181106120d7576120d7612e2b565b60200101906001600160f81b031916908160001a90535060006120fb846002613050565b612106906001612ebf565b90505b600181111561217e576f181899199a1a9b1b9c1cb0b131b232b360811b85600f166010811061213a5761213a612e2b565b1a60f81b82828151811061215057612150612e2b565b60200101906001600160f81b031916908160001a90535060049490941c9361217781613490565b9050612109565b508315610d405760405162461bcd60e51b815260206004820181905260248201527f537472696e67733a20686578206c656e67746820696e73756666696369656e7460448201526064016107d7565b60008181526001830160205260408120546122145750815460018181018455600084815260208082209093018490558454848252828601909352604090209190915561059a565b50600061059a565b60008181526001830160205260408120548015612305576000612240600183612f2b565b855490915060009061225490600190612f2b565b90508181146122b957600086600001828154811061227457612274612e2b565b906000526020600020015490508087600001848154811061229757612297612e2b565b6000918252602080832090910192909255918252600188019052604090208390555b85548690806122ca576122ca6134a7565b60019003818190600052602060002001600090559055856001016000868152602001908152602001600020600090556001935050505061059a565b600091505061059a565b600082841480612321575061ffff8216155b1561232d575083610d20565b5083600080808061234e61ffff87166123458a612486565b61ffff16611fdb565b90505b61ffff8116156123a45761236b8561ffff83168a0a612657565b9094509250831561238457829450808603955080820191505b61239d600261ffff83160461ffff168761ffff16611fdb565b9050612351565b505b61ffff851615612417576123ba8488612657565b909350915082156123d9576000199094019390925082906001016123a6565b61ffff8116156123fe578584816123f2576123f2612e7f565b049350600019016123a6565b612409848888611b99565b6000199095019493506123a6565b600061242287612486565b90505b61ffff8216156124665760006124438261ffff168461ffff16611fdb565b90508061ffff16880a868161245a5761245a612e7f565b04955090910390612425565b50505050949350505050565b8181018281101561059a575060001961059a565b60006003821015612499575060ff919050565b60048210156124aa57506080919050565b60108210156124bb57506040919050565b6101008210156124cd57506020919050565b611bdc8210156124df57506014919050565b612c708210156124f157506013919050565b614aa982101561250357506012919050565b61855482101561251557506011919050565b6201000082101561252857506010919050565b6202183782101561253b5750600f919050565b6204e04682101561254e5750600e919050565b620ced4c8210156125615750600d919050565b622851468210156125745750600c919050565b629aa2ad8210156125875750600b919050565b6303080c0182101561259b5750600a919050565b6315c5cbbd8210156125af57506009919050565b6401000000008210156125c457506008919050565b6417c6a1f29f8210156125d957506007919050565b6506597fa94f5c8210156125ef57506006919050565b66093088c35d733b82101561260657506005919050565b6801000000000000000082101561261f57506004919050565b6a285145f31ae515c447bb5782101561263a57506003919050565b600160801b82101561264e57506002919050565b5060015b919050565b6000808360000361266e575060019050600061269b565b8383028385828161268157612681612e7f565b041461269457600080925092505061269b565b6001925090505b9250929050565b6000602082840312156126b457600080fd5b81356001600160e01b031981168114610d4057600080fd5b6000602082840312156126de57600080fd5b5035919050565b602080825282518282018190526000919060409081850190868401855b8281101561272f5761271f84835180518252602090810151910152565b9284019290850190600101612702565b5091979650505050505050565b6001600160a01b038116811461123357600080fd5b80356126528161273c565b60008060006060848603121561277157600080fd5b833561277c8161273c565b95602085013595506040909401359392505050565b600080604083850312156127a457600080fd5b8235915060208301356127b68161273c565b809150509250929050565b60008083601f8401126127d357600080fd5b5081356001600160401b038111156127ea57600080fd5b6020830191508360208260061b850101111561269b57600080fd5b6000806020838503121561281857600080fd5b82356001600160401b0381111561282e57600080fd5b61283a858286016127c1565b90969095509350505050565b60008083601f84011261285857600080fd5b5081356001600160401b0381111561286f57600080fd5b6020830191508360208260051b850101111561269b57600080fd5b6000806000806000806000806080898b0312156128a657600080fd5b88356001600160401b03808211156128bd57600080fd5b6128c98c838d01612846565b909a50985060208b01359150808211156128e257600080fd5b6128ee8c838d01612846565b909850965060408b013591508082111561290757600080fd5b6129138c838d01612846565b909650945060608b013591508082111561292c57600080fd5b506129398b828c01612846565b999c989b5096995094979396929594505050565b6020808252825182820181905260009190848201906040850190845b81811015612987578351151583529284019291840191600101612969565b50909695505050505050565b600080600080604085870312156129a957600080fd5b84356001600160401b03808211156129c057600080fd5b6129cc88838901612846565b909650945060208701359150808211156129e557600080fd5b506129f287828801612846565b95989497509550505050565b60008060208385031215612a1157600080fd5b82356001600160401b0380821115612a2857600080fd5b818501915085601f830112612a3c57600080fd5b813581811115612a4b57600080fd5b866020828501011115612a5d57600080fd5b60209290920196919550909350505050565b634e487b7160e01b600052604160045260246000fd5b604051608081016001600160401b0381118282101715612aa757612aa7612a6f565b60405290565b604080519081016001600160401b0381118282101715612aa757612aa7612a6f565b604051606081016001600160401b0381118282101715612aa757612aa7612a6f565b604051601f8201601f191681016001600160401b0381118282101715612b1957612b19612a6f565b604052919050565b60006001600160401b03821115612b3a57612b3a612a6f565b50601f01601f191660200190565b600082601f830112612b5957600080fd5b8135612b6c612b6782612b21565b612af1565b818152846020838601011115612b8157600080fd5b816020850160208301376000918101602001919091529392505050565b600060208284031215612bb057600080fd5b81356001600160401b03811115612bc657600080fd5b610d2084828501612b48565b634e487b7160e01b600052602160045260246000fd5b6020810160048310612c0a57634e487b7160e01b600052602160045260246000fd5b91905290565b60008060408385031215612c2357600080fd5b50508035926020909101359150565b600060408284031215612c4457600080fd5b50919050565b60008060008060008060008060008060006101408c8e031215612c6c57600080fd5b612c768c3561273c565b8b359a506001600160401b038060208e01351115612c9357600080fd5b612ca38e60208f01358f01612846565b909b50995060408d0135811015612cb957600080fd5b50612cca8d60408e01358e016127c1565b909850965060608c01359550612ce38d60808e01612c32565b945060c08c0135612cf38161273c565b9350612d0160e08d01612751565b92506101008c013591506101208c013590509295989b509295989b9093969950565b600060408284031215612d3557600080fd5b610d408383612c32565b60008060408385031215612d5257600080fd5b82356001600160401b03811115612d6857600080fd5b612d7485828601612b48565b95602094909401359450505050565b825181526020808401518183015282516040830152820151606082015260808101610d40565b6001600160401b038116811461123357600080fd5b600060808284031215612dd057600080fd5b612dd8612a85565b82518060070b8114612de957600080fd5b81526020830151612df981612da9565b60208201526040830151600381900b8114612e1357600080fd5b60408201526060928301519281019290925250919050565b634e487b7160e01b600052603260045260246000fd5b600060208284031215612e5357600080fd5b813560048110610d4057600080fd5b600060208284031215612e7457600080fd5b8135610d408161273c565b634e487b7160e01b600052601260045260246000fd5b634e487b7160e01b600052601160045260246000fd5b600082612eba57612eba612e7f565b500490565b8082018082111561059a5761059a612e95565b600381810b9083900b01637fffffff8113637fffffff198212171561059a5761059a612e95565b600060408284031215612f0b57600080fd5b612f13612aad565b82358152602083013560208201528091505092915050565b8181038181111561059a5761059a612e95565b60008160030b637fffffff198103612f5857612f58612e95565b60000392915050565b80820260008212600160ff1b84141615612f7d57612f7d612e95565b818105831482151761059a5761059a612e95565b600082612fa057612fa0612e7f565b600160ff1b821460001984141615612fba57612fba612e95565b500590565b6001600160c01b038116811461123357600080fd5b8135612fdf81612fbf565b81546001600160c01b03199081166001600160c01b03929092169182178355602084013561300c81612da9565b60c01b1617905550565b60006020828403121561302857600080fd5b8135610d4081612fbf565b60006020828403121561304557600080fd5b8135610d4081612da9565b808202811582820484141761059a5761059a612e95565b8051801515811461265257600080fd5b60006020828403121561308957600080fd5b610d4082613067565b6000602082840312156130a457600080fd5b8151610d408161273c565b60005b838110156130ca5781810151838201526020016130b2565b50506000910152565b6000608082840312156130e557600080fd5b6130ed612a85565b905081516130fa8161273c565b8152602082015161310a8161273c565b6020820152604082015161311d81612da9565b604082015261312e60608301613067565b606082015292915050565b6000602080838503121561314c57600080fd5b82516001600160401b038082111561316357600080fd5b9084019060a0828703121561317757600080fd5b61317f612aad565b82518281111561318e57600080fd5b8301606081890312156131a057600080fd5b6131a8612acf565b815160ff811681146131b957600080fd5b815281860151868201526040820151848111156131d557600080fd5b82019350601f840189136131e857600080fd5b835191506131f8612b6783612b21565b828152898784870101111561320c57600080fd5b61321b838883018988016130af565b604082015282525061322f878486016130d3565b848201528094505050505092915050565b60008082840360e081121561325457600080fd5b60c081121561326257600080fd5b61326a612acf565b84518152602085015160208201526080603f198301121561328a57600080fd5b613292612a85565b915060408501516132a28161273c565b80835250606085015160208301526080850151604083015260a08501516060830152816040820152809350505060c083015190509250929050565b6000602082840312156132ef57600080fd5b8151610d4081612da9565b600181815b8085111561119957816000190482111561331b5761331b612e95565b8085161561332857918102915b93841c93908002906132ff565b6000826133445750600161059a565b816133515750600061059a565b816001811461336757600281146133715761338d565b600191505061059a565b60ff84111561338257613382612e95565b50506001821b61059a565b5060208310610133831016604e8410600b84101617156133b0575081810a61059a565b6133ba83836132fa565b80600019048211156133ce576133ce612e95565b029392505050565b6000610d4063ffffffff841683613335565b7f416363657373436f6e74726f6c3a206163636f756e74200000000000000000008152600083516134208160178501602088016130af565b7001034b99036b4b9b9b4b733903937b6329607d1b60179184019182015283516134518160288401602088016130af565b01602801949350505050565b602081526000825180602084015261347c8160408501602087016130af565b601f01601f19169190910160400192915050565b60008161349f5761349f612e95565b506000190190565b634e487b7160e01b600052603160045260246000fdfe033a42b04fa8bdb42a28dc41fe890f4b8409d5af5d3ed16a96b5fb479b0d3fada2646970667358221220a22162059b0382b55efe21704f538e8aee2a6b0cf84ef8ea034b86d4109e2d9e64736f6c63430008150033",
  "callValue": 0,
  "chainId": 2021,
  "constructorArgs": "0x",
  "contractName": "RNSDomainPrice",
  "deployer": "0x000000000000000000000000000000000000dEaD",
  "devdoc": {
    "version": 1,
    "kind": "dev",
    "methods": {
      "bulkOverrideRenewalFees(bytes32[],uint256[])": {
        "details": "Bulk override renewal fees. Requirements: - The method caller is operator. - The input array lengths must be larger than 0 and the same. Emits events {RenewalFeeOverridingUpdated}.",
        "params": {
          "lbHashes": "Array of label hashes. (Eg, ['foo'].map(keccak256) for 'foo.ron')",
          "usdPrices": "Array of prices in USD. Leave 2^256 - 1 to remove overriding."
        }
      },
      "bulkOverrideTiers(bytes32[],uint8[])": {
        "details": "Bulk override tiers. Requirements: - The method caller is operator. - The input array lengths must be larger than 0 and the same. Emits events {TierOverridingUpdated}.",
        "params": {
          "lbHashes": "Array of label hashes. (Eg, ['foo'].map(keccak256) for 'foo.ron')",
          "tiers": "Array of tiers. Leave 2^256 - 1 to remove overriding."
        }
      },
      "bulkSetDomainPrice(bytes32[],uint256[],bytes32[],uint256[])": {
        "details": "Bulk override domain prices. Requirements: - The method caller is operator. - The input array lengths must be larger than 0 and the same. Emits events {DomainPriceUpdated}.",
        "params": {
          "lbHashes": "Array of label hashes. (Eg, ['foo'].map(keccak256) for 'foo.ron')",
          "proofHashes": "Array of proof hashes.",
          "ronPrices": "Array of prices in (W)RON token.",
          "setTypes": "Array of update types from the operator service."
        }
      },
      "bulkTrySetDomainPrice(bytes32[],uint256[],bytes32[],uint256[])": {
        "details": "Bulk try to set domain prices. Returns a boolean array indicating whether domain prices at the corresponding indexes if set or not. Requirements: - The method caller is operator. - The input array lengths must be larger than 0 and the same. - The price should be larger than current domain price or it will not be updated. Emits events {DomainPriceUpdated} optionally.",
        "params": {
          "lbHashes": "Array of label hashes. (Eg, ['foo'].map(keccak256) for 'foo.ron')",
          "proofHashes": "Array of proof hashes.",
          "ronPrices": "Array of prices in (W)RON token.",
          "setTypes": "Array of update types from the operator service."
        }
      },
      "convertRONToUSD(uint256)": {
        "details": "Returns the converted amount from RON to USD."
      },
      "convertUSDToRON(uint256)": {
        "details": "Returns the converted amount from USD to RON."
      },
      "getDomainPrice(string)": {
        "details": "Return the domain price.",
        "params": {
          "label": "The domain label to register (Eg, 'foo' for 'foo.ron')."
        }
      },
      "getOverriddenRenewalFee(string)": {
        "details": "Returns the renewal fee of a label. Reverts if not overridden."
      },
      "getOverriddenTier(string)": {
        "details": "Returns the tier of a label. Reverts if not overridden."
      },
      "getPythOracleConfig()": {
        "details": "Returns the Pyth oracle config."
      },
      "getRenewalFee(string,uint256)": {
        "details": "Returns the renewal fee in USD and RON.",
        "params": {
          "duration": "Amount of second(s).",
          "label": "The domain label to register (Eg, 'foo' for 'foo.ron')."
        }
      },
      "getRenewalFeeByLengths()": {
        "details": "Returns the renewal fee by lengths."
      },
      "getRoleAdmin(bytes32)": {
        "details": "Returns the admin role that controls `role`. See {grantRole} and {revokeRole}. To change a role's admin, use {_setRoleAdmin}."
      },
      "getRoleMember(bytes32,uint256)": {
        "details": "Returns one of the accounts that have `role`. `index` must be a value between 0 and {getRoleMemberCount}, non-inclusive. Role bearers are not sorted in any particular way, and their ordering may change at any point. WARNING: When using {getRoleMember} and {getRoleMemberCount}, make sure you perform all queries on the same block. See the following https://forum.openzeppelin.com/t/iterating-over-elements-on-enumerableset-in-openzeppelin-contracts/2296[forum post] for more information."
      },
      "getRoleMemberCount(bytes32)": {
        "details": "Returns the number of accounts that have `role`. Can be used together with {getRoleMember} to enumerate all bearers of a role."
      },
      "getScaleDownRuleForDomainPrice()": {
        "details": "Returns the percentage to scale from domain price each period."
      },
      "getTaxRatio()": {
        "details": "Returns tax ratio."
      },
      "getTier(string)": {
        "details": "Returns the tier of a label.",
        "params": {
          "label": "The domain label to register (Eg, 'foo' for 'foo.ron')."
        },
        "returns": {
          "tier": "The tier of the label."
        }
      },
      "grantRole(bytes32,address)": {
        "details": "Grants `role` to `account`. If `account` had not been already granted `role`, emits a {RoleGranted} event. Requirements: - the caller must have ``role``'s admin role. May emit a {RoleGranted} event."
      },
      "hasRole(bytes32,address)": {
        "details": "Returns `true` if `account` has been granted `role`."
      },
      "renounceRole(bytes32,address)": {
        "details": "Revokes `role` from the calling account. Roles are often managed via {grantRole} and {revokeRole}: this function's purpose is to provide a mechanism for accounts to lose their privileges if they are compromised (such as when a trusted device is misplaced). If the calling account had been revoked `role`, emits a {RoleRevoked} event. Requirements: - the caller must be `account`. May emit a {RoleRevoked} event."
      },
      "revokeRole(bytes32,address)": {
        "details": "Revokes `role` from `account`. If `account` had been granted `role`, emits a {RoleRevoked} event. Requirements: - the caller must have ``role``'s admin role. May emit a {RoleRevoked} event."
      },
      "setPythOracleConfig(address,uint256,bytes32)": {
        "details": "Sets the Pyth oracle config. Requirements: - The method caller is admin. Emits events {PythOracleConfigUpdated}."
      },
      "setRenewalFeeByLengths((uint256,uint256)[])": {
        "details": "Sets the renewal fee by lengths Requirements: - The method caller is admin. Emits events {RenewalFeeByLengthUpdated}. Emits an event {MaxRenewalFeeLengthUpdated} optionally."
      },
      "setScaleDownRuleForDomainPrice((uint192,uint64))": {
        "details": "Sets the percentage to scale from domain price each period. Requirements: - The method caller is admin. Emits events {DomainPriceScaleRuleUpdated}."
      },
      "setTaxRatio(uint256)": {
        "details": "Sets renewal reservation ratio. Requirements: - The method caller is admin. Emits an event {TaxRatioUpdated}."
      },
      "supportsInterface(bytes4)": {
        "details": "See {IERC165-supportsInterface}."
      }
    },
    "events": {
      "DomainPriceScaleRuleUpdated(address,uint192,uint64)": {
        "details": "Emitted when the rule to rescale domain price is updated."
      },
      "DomainPriceUpdated(address,bytes32,uint256,bytes32,uint256)": {
        "details": "Emitted when the domain price is updated."
      },
      "Initialized(uint8)": {
        "details": "Triggered when the contract has been initialized or reinitialized."
      },
      "MaxRenewalFeeLengthUpdated(address,uint256)": {
        "details": "Emitted when the maximum length of renewal fee is updated."
      },
      "PythOracleConfigUpdated(address,address,uint256,bytes32)": {
        "details": "Emitted when the Pyth Oracle config is updated."
      },
      "RenewalFeeByLengthUpdated(address,uint256,uint256)": {
        "details": "Emitted when the renew fee is updated."
      },
      "RenewalFeeOverridingUpdated(address,bytes32,uint256)": {
        "details": "Emitted when the renew fee of a domain is overridden. Value of `inverseRenewalFee` is 0 when not overridden."
      },
      "RoleAdminChanged(bytes32,bytes32,bytes32)": {
        "details": "Emitted when `newAdminRole` is set as ``role``'s admin role, replacing `previousAdminRole` `DEFAULT_ADMIN_ROLE` is the starting admin for all roles, despite {RoleAdminChanged} not being emitted signaling this. _Available since v3.1._"
      },
      "RoleGranted(bytes32,address,address)": {
        "details": "Emitted when `account` is granted `role`. `sender` is the account that originated the contract call, an admin role bearer except when using {AccessControl-_setupRole}."
      },
      "RoleRevoked(bytes32,address,address)": {
        "details": "Emitted when `account` is revoked `role`. `sender` is the account that originated the contract call:   - if using `revokeRole`, it is the admin role bearer   - if using `renounceRole`, it is the role bearer (i.e. `account`)"
      },
      "TaxRatioUpdated(address,uint256)": {
        "details": "Emitted when the renewal reservation ratio is updated."
      },
      "TierOverridingUpdated(address,bytes32,uint8)": {
        "details": "Emitted when the tier of a domain is overridden."
      }
    }
  },
  "isFoundry": true,
  "nonce": 0,
  "storageLayout": {
    "storage": [
      {
        "astId": 60342,
        "contract": "src/RNSDomainPrice.sol:RNSDomainPrice",
        "label": "_initialized",
        "offset": 0,
        "slot": "0",
        "type": "t_uint8"
      },
      {
        "astId": 60345,
        "contract": "src/RNSDomainPrice.sol:RNSDomainPrice",
        "label": "_initializing",
        "offset": 1,
        "slot": "0",
        "type": "t_bool"
      },
      {
        "astId": 58815,
        "contract": "src/RNSDomainPrice.sol:RNSDomainPrice",
        "label": "_roles",
        "offset": 0,
        "slot": "1",
        "type": "t_mapping(t_bytes32,t_struct(RoleData)58810_storage)"
      },
      {
        "astId": 59125,
        "contract": "src/RNSDomainPrice.sol:RNSDomainPrice",
        "label": "_roleMembers",
        "offset": 0,
        "slot": "2",
        "type": "t_mapping(t_bytes32,t_struct(AddressSet)64694_storage)"
      },
      {
        "astId": 79515,
        "contract": "src/RNSDomainPrice.sol:RNSDomainPrice",
        "label": "____gap",
        "offset": 0,
        "slot": "3",
        "type": "t_array(t_uint256)50_storage"
      },
      {
        "astId": 79519,
        "contract": "src/RNSDomainPrice.sol:RNSDomainPrice",
        "label": "_pyth",
        "offset": 0,
        "slot": "53",
        "type": "t_contract(IPyth)65100"
      },
      {
        "astId": 79523,
        "contract": "src/RNSDomainPrice.sol:RNSDomainPrice",
        "label": "_auction",
        "offset": 0,
        "slot": "54",
        "type": "t_contract(INSAuction)84507"
      },
      {
        "astId": 79526,
        "contract": "src/RNSDomainPrice.sol:RNSDomainPrice",
        "label": "_taxRatio",
        "offset": 0,
        "slot": "55",
        "type": "t_uint256"
      },
      {
        "astId": 79529,
        "contract": "src/RNSDomainPrice.sol:RNSDomainPrice",
        "label": "_rnfMaxLength",
        "offset": 0,
        "slot": "56",
        "type": "t_uint256"
      },
      {
        "astId": 79532,
        "contract": "src/RNSDomainPrice.sol:RNSDomainPrice",
        "label": "_maxAcceptableAge",
        "offset": 0,
        "slot": "57",
        "type": "t_uint256"
      },
      {
        "astId": 79535,
        "contract": "src/RNSDomainPrice.sol:RNSDomainPrice",
        "label": "_pythIdForRONUSD",
        "offset": 0,
        "slot": "58",
        "type": "t_bytes32"
      },
      {
        "astId": 79539,
        "contract": "src/RNSDomainPrice.sol:RNSDomainPrice",
        "label": "_dpDownScaler",
        "offset": 0,
        "slot": "59",
        "type": "t_struct(PeriodScaler)86906_storage"
      },
      {
        "astId": 79544,
        "contract": "src/RNSDomainPrice.sol:RNSDomainPrice",
        "label": "_rnFee",
        "offset": 0,
        "slot": "60",
        "type": "t_mapping(t_uint256,t_uint256)"
      },
      {
        "astId": 79550,
        "contract": "src/RNSDomainPrice.sol:RNSDomainPrice",
        "label": "_dp",
        "offset": 0,
        "slot": "61",
        "type": "t_mapping(t_bytes32,t_struct(TimestampWrapper)86829_storage)"
      },
      {
        "astId": 79555,
        "contract": "src/RNSDomainPrice.sol:RNSDomainPrice",
        "label": "_rnFeeOverriding",
        "offset": 0,
        "slot": "62",
        "type": "t_mapping(t_bytes32,t_uint256)"
      },
      {
        "astId": 79560,
        "contract": "src/RNSDomainPrice.sol:RNSDomainPrice",
        "label": "_tierOverriding",
        "offset": 0,
        "slot": "63",
        "type": "t_mapping(t_bytes32,t_uint8)"
      }
    ],
    "types": {
      "t_address": {
        "encoding": "inplace",
        "label": "address",
        "numberOfBytes": "20"
      },
      "t_array(t_bytes32)dyn_storage": {
        "encoding": "dynamic_array",
        "label": "bytes32[]",
        "numberOfBytes": "32",
        "base": "t_bytes32"
      },
      "t_array(t_uint256)50_storage": {
        "encoding": "inplace",
        "label": "uint256[50]",
        "numberOfBytes": "1600",
        "base": "t_uint256"
      },
      "t_bool": {
        "encoding": "inplace",
        "label": "bool",
        "numberOfBytes": "1"
      },
      "t_bytes32": {
        "encoding": "inplace",
        "label": "bytes32",
        "numberOfBytes": "32"
      },
      "t_contract(INSAuction)84507": {
        "encoding": "inplace",
        "label": "contract INSAuction",
        "numberOfBytes": "20"
      },
      "t_contract(IPyth)65100": {
        "encoding": "inplace",
        "label": "contract IPyth",
        "numberOfBytes": "20"
      },
      "t_mapping(t_address,t_bool)": {
        "encoding": "mapping",
        "key": "t_address",
        "label": "mapping(address => bool)",
        "numberOfBytes": "32",
        "value": "t_bool"
      },
      "t_mapping(t_bytes32,t_struct(AddressSet)64694_storage)": {
        "encoding": "mapping",
        "key": "t_bytes32",
        "label": "mapping(bytes32 => struct EnumerableSet.AddressSet)",
        "numberOfBytes": "32",
        "value": "t_struct(AddressSet)64694_storage"
      },
      "t_mapping(t_bytes32,t_struct(RoleData)58810_storage)": {
        "encoding": "mapping",
        "key": "t_bytes32",
        "label": "mapping(bytes32 => struct AccessControl.RoleData)",
        "numberOfBytes": "32",
        "value": "t_struct(RoleData)58810_storage"
      },
      "t_mapping(t_bytes32,t_struct(TimestampWrapper)86829_storage)": {
        "encoding": "mapping",
        "key": "t_bytes32",
        "label": "mapping(bytes32 => struct TimestampWrapper)",
        "numberOfBytes": "32",
        "value": "t_struct(TimestampWrapper)86829_storage"
      },
      "t_mapping(t_bytes32,t_uint256)": {
        "encoding": "mapping",
        "key": "t_bytes32",
        "label": "mapping(bytes32 => uint256)",
        "numberOfBytes": "32",
        "value": "t_uint256"
      },
      "t_mapping(t_bytes32,t_uint8)": {
        "encoding": "mapping",
        "key": "t_bytes32",
        "label": "mapping(bytes32 => uint8)",
        "numberOfBytes": "32",
        "value": "t_uint8"
      },
      "t_mapping(t_uint256,t_uint256)": {
        "encoding": "mapping",
        "key": "t_uint256",
        "label": "mapping(uint256 => uint256)",
        "numberOfBytes": "32",
        "value": "t_uint256"
      },
      "t_struct(AddressSet)64694_storage": {
        "encoding": "inplace",
        "label": "struct EnumerableSet.AddressSet",
        "numberOfBytes": "64",
        "members": [
          {
            "astId": 64693,
            "contract": "src/RNSDomainPrice.sol:RNSDomainPrice",
            "label": "_inner",
            "offset": 0,
            "slot": "0",
            "type": "t_struct(Set)64379_storage"
          }
        ]
      },
      "t_struct(PeriodScaler)86906_storage": {
        "encoding": "inplace",
        "label": "struct PeriodScaler",
        "numberOfBytes": "32",
        "members": [
          {
            "astId": 86903,
            "contract": "src/RNSDomainPrice.sol:RNSDomainPrice",
            "label": "ratio",
            "offset": 0,
            "slot": "0",
            "type": "t_uint192"
          },
          {
            "astId": 86905,
            "contract": "src/RNSDomainPrice.sol:RNSDomainPrice",
            "label": "period",
            "offset": 24,
            "slot": "0",
            "type": "t_uint64"
          }
        ]
      },
      "t_struct(RoleData)58810_storage": {
        "encoding": "inplace",
        "label": "struct AccessControl.RoleData",
        "numberOfBytes": "64",
        "members": [
          {
            "astId": 58807,
            "contract": "src/RNSDomainPrice.sol:RNSDomainPrice",
            "label": "members",
            "offset": 0,
            "slot": "0",
            "type": "t_mapping(t_address,t_bool)"
          },
          {
            "astId": 58809,
            "contract": "src/RNSDomainPrice.sol:RNSDomainPrice",
            "label": "adminRole",
            "offset": 0,
            "slot": "1",
            "type": "t_bytes32"
          }
        ]
      },
      "t_struct(Set)64379_storage": {
        "encoding": "inplace",
        "label": "struct EnumerableSet.Set",
        "numberOfBytes": "64",
        "members": [
          {
            "astId": 64374,
            "contract": "src/RNSDomainPrice.sol:RNSDomainPrice",
            "label": "_values",
            "offset": 0,
            "slot": "0",
            "type": "t_array(t_bytes32)dyn_storage"
          },
          {
            "astId": 64378,
            "contract": "src/RNSDomainPrice.sol:RNSDomainPrice",
            "label": "_indexes",
            "offset": 0,
            "slot": "1",
            "type": "t_mapping(t_bytes32,t_uint256)"
          }
        ]
      },
      "t_struct(TimestampWrapper)86829_storage": {
        "encoding": "inplace",
        "label": "struct TimestampWrapper",
        "numberOfBytes": "64",
        "members": [
          {
            "astId": 86826,
            "contract": "src/RNSDomainPrice.sol:RNSDomainPrice",
            "label": "value",
            "offset": 0,
            "slot": "0",
            "type": "t_uint256"
          },
          {
            "astId": 86828,
            "contract": "src/RNSDomainPrice.sol:RNSDomainPrice",
            "label": "timestamp",
            "offset": 0,
            "slot": "1",
            "type": "t_uint256"
          }
        ]
      },
      "t_uint192": {
        "encoding": "inplace",
        "label": "uint192",
        "numberOfBytes": "24"
      },
      "t_uint256": {
        "encoding": "inplace",
        "label": "uint256",
        "numberOfBytes": "32"
      },
      "t_uint64": {
        "encoding": "inplace",
        "label": "uint64",
        "numberOfBytes": "8"
      },
      "t_uint8": {
        "encoding": "inplace",
        "label": "uint8",
        "numberOfBytes": "1"
      }
    }
  },
  "timestamp": 1719291706,
  "userdoc": {
    "version": 1,
    "kind": "user",
    "methods": {
      "getOverriddenRenewalFee(string)": {
        "notice": "This method is to help developers check the domain renewal fee overriding. Consider using method {getRenewalFee} instead for full handling of renewal fees."
      },
      "getOverriddenTier(string)": {
        "notice": "This method is to help developers check the domain tier overriding. Consider using method {getTier} instead for full handling of tiers."
      },
      "setScaleDownRuleForDomainPrice((uint192,uint64))": {
        "notice": "Applies for the business rule: -x% each y seconds."
      }
    }
  }
}