{
  "abi": [
    {
      "inputs": [],
      "stateMutability": "payable",
      "type": "constructor"
    },
    {
      "inputs": [
        {
          "internalType": "int32",
          "name": "expo1",
          "type": "int32"
        },
        {
          "internalType": "int32",
          "name": "expo2",
          "type": "int32"
        },
        {
          "internalType": "int64",
          "name": "price1",
          "type": "int64"
        }
      ],
      "name": "ErrComputedPriceTooLarge",
      "type": "error"
    },
    {
      "inputs": [
        {
          "internalType": "int32",
          "name": "expo",
          "type": "int32"
        }
      ],
      "name": "ErrExponentTooLarge",
      "type": "error"
    },
    {
      "inputs": [],
      "name": "ExceedAuctionDomainExpiry",
      "type": "error"
    },
    {
      "inputs": [],
      "name": "InvalidArrayLength",
      "type": "error"
    },
    {
      "inputs": [
        {
          "internalType": "uint256",
          "name": "n",
          "type": "uint256"
        }
      ],
      "name": "PeriodNumOverflowedUint16",
      "type": "error"
    },
    {
      "inputs": [],
      "name": "RenewalFeeIsNotOverriden",
      "type": "error"
    },
    {
      "anonymous": false,
      "inputs": [
        {
          "indexed": true,
          "internalType": "address",
          "name": "operator",
          "type": "address"
        },
        {
          "indexed": false,
          "internalType": "uint192",
          "name": "ratio",
          "type": "uint192"
        },
        {
          "indexed": false,
          "internalType": "uint64",
          "name": "period",
          "type": "uint64"
        }
      ],
      "name": "DomainPriceScaleRuleUpdated",
      "type": "event"
    },
    {
      "anonymous": false,
      "inputs": [
        {
          "indexed": true,
          "internalType": "address",
          "name": "operator",
          "type": "address"
        },
        {
          "indexed": true,
          "internalType": "bytes32",
          "name": "labelHash",
          "type": "bytes32"
        },
        {
          "indexed": false,
          "internalType": "uint256",
          "name": "price",
          "type": "uint256"
        },
        {
          "indexed": true,
          "internalType": "bytes32",
          "name": "proofHash",
          "type": "bytes32"
        },
        {
          "indexed": false,
          "internalType": "uint256",
          "name": "setType",
          "type": "uint256"
        }
      ],
      "name": "DomainPriceUpdated",
      "type": "event"
    },
    {
      "anonymous": false,
      "inputs": [
        {
          "indexed": false,
          "internalType": "uint8",
          "name": "version",
          "type": "uint8"
        }
      ],
      "name": "Initialized",
      "type": "event"
    },
    {
      "anonymous": false,
      "inputs": [
        {
          "indexed": true,
          "internalType": "address",
          "name": "operator",
          "type": "address"
        },
        {
          "indexed": true,
          "internalType": "uint256",
          "name": "maxLength",
          "type": "uint256"
        }
      ],
      "name": "MaxRenewalFeeLengthUpdated",
      "type": "event"
    },
    {
      "anonymous": false,
      "inputs": [
        {
          "indexed": true,
          "internalType": "address",
          "name": "operator",
          "type": "address"
        },
        {
          "indexed": true,
          "internalType": "contract IPyth",
          "name": "pyth",
          "type": "address"
        },
        {
          "indexed": false,
          "internalType": "uint256",
          "name": "maxAcceptableAge",
          "type": "uint256"
        },
        {
          "indexed": true,
          "internalType": "bytes32",
          "name": "pythIdForRONUSD",
          "type": "bytes32"
        }
      ],
      "name": "PythOracleConfigUpdated",
      "type": "event"
    },
    {
      "anonymous": false,
      "inputs": [
        {
          "indexed": true,
          "internalType": "address",
          "name": "operator",
          "type": "address"
        },
        {
          "indexed": true,
          "internalType": "uint256",
          "name": "labelLength",
          "type": "uint256"
        },
        {
          "indexed": false,
          "internalType": "uint256",
          "name": "renewalFee",
          "type": "uint256"
        }
      ],
      "name": "RenewalFeeByLengthUpdated",
      "type": "event"
    },
    {
      "anonymous": false,
      "inputs": [
        {
          "indexed": true,
          "internalType": "address",
          "name": "operator",
          "type": "address"
        },
        {
          "indexed": true,
          "internalType": "bytes32",
          "name": "labelHash",
          "type": "bytes32"
        },
        {
          "indexed": false,
          "internalType": "uint256",
          "name": "inverseRenewalFee",
          "type": "uint256"
        }
      ],
      "name": "RenewalFeeOverridingUpdated",
      "type": "event"
    },
    {
      "anonymous": false,
      "inputs": [
        {
          "indexed": true,
          "internalType": "bytes32",
          "name": "role",
          "type": "bytes32"
        },
        {
          "indexed": true,
          "internalType": "bytes32",
          "name": "previousAdminRole",
          "type": "bytes32"
        },
        {
          "indexed": true,
          "internalType": "bytes32",
          "name": "newAdminRole",
          "type": "bytes32"
        }
      ],
      "name": "RoleAdminChanged",
      "type": "event"
    },
    {
      "anonymous": false,
      "inputs": [
        {
          "indexed": true,
          "internalType": "bytes32",
          "name": "role",
          "type": "bytes32"
        },
        {
          "indexed": true,
          "internalType": "address",
          "name": "account",
          "type": "address"
        },
        {
          "indexed": true,
          "internalType": "address",
          "name": "sender",
          "type": "address"
        }
      ],
      "name": "RoleGranted",
      "type": "event"
    },
    {
      "anonymous": false,
      "inputs": [
        {
          "indexed": true,
          "internalType": "bytes32",
          "name": "role",
          "type": "bytes32"
        },
        {
          "indexed": true,
          "internalType": "address",
          "name": "account",
          "type": "address"
        },
        {
          "indexed": true,
          "internalType": "address",
          "name": "sender",
          "type": "address"
        }
      ],
      "name": "RoleRevoked",
      "type": "event"
    },
    {
      "anonymous": false,
      "inputs": [
        {
          "indexed": true,
          "internalType": "address",
          "name": "operator",
          "type": "address"
        },
        {
          "indexed": true,
          "internalType": "uint256",
          "name": "ratio",
          "type": "uint256"
        }
      ],
      "name": "TaxRatioUpdated",
      "type": "event"
    },
    {
      "inputs": [],
      "name": "DEFAULT_ADMIN_ROLE",
      "outputs": [
        {
          "internalType": "bytes32",
          "name": "",
          "type": "bytes32"
        }
      ],
      "stateMutability": "view",
      "type": "function"
    },
    {
      "inputs": [],
      "name": "MAX_PERCENTAGE",
      "outputs": [
        {
          "internalType": "uint64",
          "name": "",
          "type": "uint64"
        }
      ],
      "stateMutability": "view",
      "type": "function"
    },
    {
      "inputs": [],
      "name": "OPERATOR_ROLE",
      "outputs": [
        {
          "internalType": "bytes32",
          "name": "",
          "type": "bytes32"
        }
      ],
      "stateMutability": "view",
      "type": "function"
    },
    {
      "inputs": [],
      "name": "OVERRIDER_ROLE",
      "outputs": [
        {
          "internalType": "bytes32",
          "name": "",
          "type": "bytes32"
        }
      ],
      "stateMutability": "view",
      "type": "function"
    },
    {
      "inputs": [],
      "name": "USD_DECIMALS",
      "outputs": [
        {
          "internalType": "uint8",
          "name": "",
          "type": "uint8"
        }
      ],
      "stateMutability": "view",
      "type": "function"
    },
    {
      "inputs": [
        {
          "internalType": "bytes32[]",
          "name": "lbHashes",
          "type": "bytes32[]"
        },
        {
          "internalType": "uint256[]",
          "name": "usdPrices",
          "type": "uint256[]"
        }
      ],
      "name": "bulkOverrideRenewalFees",
      "outputs": [],
      "stateMutability": "nonpayable",
      "type": "function"
    },
    {
      "inputs": [
        {
          "internalType": "bytes32[]",
          "name": "lbHashes",
          "type": "bytes32[]"
        },
        {
          "internalType": "uint256[]",
          "name": "ronPrices",
          "type": "uint256[]"
        },
        {
          "internalType": "bytes32[]",
          "name": "proofHashes",
          "type": "bytes32[]"
        },
        {
          "internalType": "uint256[]",
          "name": "setTypes",
          "type": "uint256[]"
        }
      ],
      "name": "bulkSetDomainPrice",
      "outputs": [],
      "stateMutability": "nonpayable",
      "type": "function"
    },
    {
      "inputs": [
        {
          "internalType": "bytes32[]",
          "name": "lbHashes",
          "type": "bytes32[]"
        },
        {
          "internalType": "uint256[]",
          "name": "ronPrices",
          "type": "uint256[]"
        },
        {
          "internalType": "bytes32[]",
          "name": "proofHashes",
          "type": "bytes32[]"
        },
        {
          "internalType": "uint256[]",
          "name": "setTypes",
          "type": "uint256[]"
        }
      ],
      "name": "bulkTrySetDomainPrice",
      "outputs": [
        {
          "internalType": "bool[]",
          "name": "updated",
          "type": "bool[]"
        }
      ],
      "stateMutability": "nonpayable",
      "type": "function"
    },
    {
      "inputs": [
        {
          "internalType": "uint256",
          "name": "ronWei",
          "type": "uint256"
        }
      ],
      "name": "convertRONToUSD",
      "outputs": [
        {
          "internalType": "uint256",
          "name": "usdWei",
          "type": "uint256"
        }
      ],
      "stateMutability": "view",
      "type": "function"
    },
    {
      "inputs": [
        {
          "internalType": "uint256",
          "name": "usdWei",
          "type": "uint256"
        }
      ],
      "name": "convertUSDToRON",
      "outputs": [
        {
          "internalType": "uint256",
          "name": "ronWei",
          "type": "uint256"
        }
      ],
      "stateMutability": "view",
      "type": "function"
    },
    {
      "inputs": [
        {
          "internalType": "string",
          "name": "label",
          "type": "string"
        }
      ],
      "name": "getDomainPrice",
      "outputs": [
        {
          "internalType": "uint256",
          "name": "usdPrice",
          "type": "uint256"
        },
        {
          "internalType": "uint256",
          "name": "ronPrice",
          "type": "uint256"
        }
      ],
      "stateMutability": "view",
      "type": "function"
    },
    {
      "inputs": [
        {
          "internalType": "string",
          "name": "label",
          "type": "string"
        }
      ],
      "name": "getOverriddenRenewalFee",
      "outputs": [
        {
          "internalType": "uint256",
          "name": "usdFee",
          "type": "uint256"
        }
      ],
      "stateMutability": "view",
      "type": "function"
    },
    {
      "inputs": [],
      "name": "getPythOracleConfig",
      "outputs": [
        {
          "internalType": "contract IPyth",
          "name": "pyth",
          "type": "address"
        },
        {
          "internalType": "uint256",
          "name": "maxAcceptableAge",
          "type": "uint256"
        },
        {
          "internalType": "bytes32",
          "name": "pythIdForRONUSD",
          "type": "bytes32"
        }
      ],
      "stateMutability": "view",
      "type": "function"
    },
    {
      "inputs": [
        {
          "internalType": "string",
          "name": "label",
          "type": "string"
        },
        {
          "internalType": "uint256",
          "name": "duration",
          "type": "uint256"
        }
      ],
      "name": "getRenewalFee",
      "outputs": [
        {
          "components": [
            {
              "internalType": "uint256",
              "name": "usd",
              "type": "uint256"
            },
            {
              "internalType": "uint256",
              "name": "ron",
              "type": "uint256"
            }
          ],
          "internalType": "struct INSDomainPrice.UnitPrice",
          "name": "basePrice",
          "type": "tuple"
        },
        {
          "components": [
            {
              "internalType": "uint256",
              "name": "usd",
              "type": "uint256"
            },
            {
              "internalType": "uint256",
              "name": "ron",
              "type": "uint256"
            }
          ],
          "internalType": "struct INSDomainPrice.UnitPrice",
          "name": "tax",
          "type": "tuple"
        }
      ],
      "stateMutability": "view",
      "type": "function"
    },
    {
      "inputs": [],
      "name": "getRenewalFeeByLengths",
      "outputs": [
        {
          "components": [
            {
              "internalType": "uint256",
              "name": "labelLength",
              "type": "uint256"
            },
            {
              "internalType": "uint256",
              "name": "fee",
              "type": "uint256"
            }
          ],
          "internalType": "struct INSDomainPrice.RenewalFee[]",
          "name": "renewalFees",
          "type": "tuple[]"
        }
      ],
      "stateMutability": "view",
      "type": "function"
    },
    {
      "inputs": [
        {
          "internalType": "bytes32",
          "name": "role",
          "type": "bytes32"
        }
      ],
      "name": "getRoleAdmin",
      "outputs": [
        {
          "internalType": "bytes32",
          "name": "",
          "type": "bytes32"
        }
      ],
      "stateMutability": "view",
      "type": "function"
    },
    {
      "inputs": [
        {
          "internalType": "bytes32",
          "name": "role",
          "type": "bytes32"
        },
        {
          "internalType": "uint256",
          "name": "index",
          "type": "uint256"
        }
      ],
      "name": "getRoleMember",
      "outputs": [
        {
          "internalType": "address",
          "name": "",
          "type": "address"
        }
      ],
      "stateMutability": "view",
      "type": "function"
    },
    {
      "inputs": [
        {
          "internalType": "bytes32",
          "name": "role",
          "type": "bytes32"
        }
      ],
      "name": "getRoleMemberCount",
      "outputs": [
        {
          "internalType": "uint256",
          "name": "",
          "type": "uint256"
        }
      ],
      "stateMutability": "view",
      "type": "function"
    },
    {
      "inputs": [],
      "name": "getScaleDownRuleForDomainPrice",
      "outputs": [
        {
          "components": [
            {
              "internalType": "uint192",
              "name": "ratio",
              "type": "uint192"
            },
            {
              "internalType": "uint64",
              "name": "period",
              "type": "uint64"
            }
          ],
          "internalType": "struct PeriodScaler",
          "name": "scaleRule",
          "type": "tuple"
        }
      ],
      "stateMutability": "view",
      "type": "function"
    },
    {
      "inputs": [],
      "name": "getTaxRatio",
      "outputs": [
        {
          "internalType": "uint256",
          "name": "ratio",
          "type": "uint256"
        }
      ],
      "stateMutability": "view",
      "type": "function"
    },
    {
      "inputs": [
        {
          "internalType": "bytes32",
          "name": "role",
          "type": "bytes32"
        },
        {
          "internalType": "address",
          "name": "account",
          "type": "address"
        }
      ],
      "name": "grantRole",
      "outputs": [],
      "stateMutability": "nonpayable",
      "type": "function"
    },
    {
      "inputs": [
        {
          "internalType": "bytes32",
          "name": "role",
          "type": "bytes32"
        },
        {
          "internalType": "address",
          "name": "account",
          "type": "address"
        }
      ],
      "name": "hasRole",
      "outputs": [
        {
          "internalType": "bool",
          "name": "",
          "type": "bool"
        }
      ],
      "stateMutability": "view",
      "type": "function"
    },
    {
      "inputs": [
        {
          "internalType": "address",
          "name": "admin",
          "type": "address"
        },
        {
          "internalType": "address[]",
          "name": "operators",
          "type": "address[]"
        },
        {
          "components": [
            {
              "internalType": "uint256",
              "name": "labelLength",
              "type": "uint256"
            },
            {
              "internalType": "uint256",
              "name": "fee",
              "type": "uint256"
            }
          ],
          "internalType": "struct INSDomainPrice.RenewalFee[]",
          "name": "renewalFees",
          "type": "tuple[]"
        },
        {
          "internalType": "uint256",
          "name": "taxRatio",
          "type": "uint256"
        },
        {
          "components": [
            {
              "internalType": "uint192",
              "name": "ratio",
              "type": "uint192"
            },
            {
              "internalType": "uint64",
              "name": "period",
              "type": "uint64"
            }
          ],
          "internalType": "struct PeriodScaler",
          "name": "domainPriceScaleRule",
          "type": "tuple"
        },
        {
          "internalType": "contract IPyth",
          "name": "pyth",
          "type": "address"
        },
        {
          "internalType": "contract INSAuction",
          "name": "auction",
          "type": "address"
        },
        {
          "internalType": "uint256",
          "name": "maxAcceptableAge",
          "type": "uint256"
        },
        {
          "internalType": "bytes32",
          "name": "pythIdForRONUSD",
          "type": "bytes32"
        }
      ],
      "name": "initialize",
      "outputs": [],
      "stateMutability": "nonpayable",
      "type": "function"
    },
    {
      "inputs": [
        {
          "internalType": "bytes32",
          "name": "role",
          "type": "bytes32"
        },
        {
          "internalType": "address",
          "name": "account",
          "type": "address"
        }
      ],
      "name": "renounceRole",
      "outputs": [],
      "stateMutability": "nonpayable",
      "type": "function"
    },
    {
      "inputs": [
        {
          "internalType": "bytes32",
          "name": "role",
          "type": "bytes32"
        },
        {
          "internalType": "address",
          "name": "account",
          "type": "address"
        }
      ],
      "name": "revokeRole",
      "outputs": [],
      "stateMutability": "nonpayable",
      "type": "function"
    },
    {
      "inputs": [
        {
          "internalType": "contract IPyth",
          "name": "pyth",
          "type": "address"
        },
        {
          "internalType": "uint256",
          "name": "maxAcceptableAge",
          "type": "uint256"
        },
        {
          "internalType": "bytes32",
          "name": "pythIdForRONUSD",
          "type": "bytes32"
        }
      ],
      "name": "setPythOracleConfig",
      "outputs": [],
      "stateMutability": "nonpayable",
      "type": "function"
    },
    {
      "inputs": [
        {
          "components": [
            {
              "internalType": "uint256",
              "name": "labelLength",
              "type": "uint256"
            },
            {
              "internalType": "uint256",
              "name": "fee",
              "type": "uint256"
            }
          ],
          "internalType": "struct INSDomainPrice.RenewalFee[]",
          "name": "renewalFees",
          "type": "tuple[]"
        }
      ],
      "name": "setRenewalFeeByLengths",
      "outputs": [],
      "stateMutability": "nonpayable",
      "type": "function"
    },
    {
      "inputs": [
        {
          "components": [
            {
              "internalType": "uint192",
              "name": "ratio",
              "type": "uint192"
            },
            {
              "internalType": "uint64",
              "name": "period",
              "type": "uint64"
            }
          ],
          "internalType": "struct PeriodScaler",
          "name": "scaleRule",
          "type": "tuple"
        }
      ],
      "name": "setScaleDownRuleForDomainPrice",
      "outputs": [],
      "stateMutability": "nonpayable",
      "type": "function"
    },
    {
      "inputs": [
        {
          "internalType": "uint256",
          "name": "ratio",
          "type": "uint256"
        }
      ],
      "name": "setTaxRatio",
      "outputs": [],
      "stateMutability": "nonpayable",
      "type": "function"
    },
    {
      "inputs": [
        {
          "internalType": "bytes4",
          "name": "interfaceId",
          "type": "bytes4"
        }
      ],
      "name": "supportsInterface",
      "outputs": [
        {
          "internalType": "bool",
          "name": "",
          "type": "bool"
        }
      ],
      "stateMutability": "view",
      "type": "function"
    }
  ],
  "address": "0x79Abf4410D7c76d2b38F75eaE7bD6Fc6099797Ac",
  "args": "0x",
  "blockNumber": 21479653,
  "bytecode": "0x60806040526200000e62000014565b620000d5565b600054610100900460ff1615620000815760405162461bcd60e51b815260206004820152602760248201527f496e697469616c697a61626c653a20636f6e747261637420697320696e697469604482015266616c697a696e6760c81b606482015260840160405180910390fd5b60005460ff90811614620000d3576000805460ff191660ff9081179091556040519081527f7f26b83ff96e1f2b6a682f133852f6798a09c465da95921460cefb38474024989060200160405180910390a15b565b61316780620000e56000396000f3fe608060405234801561001057600080fd5b50600436106101da5760003560e01c80635ef32e2c11610104578063ca15c873116100a2578063e229a67011610071578063e229a670146104b2578063f4651f49146104c5578063f5b541a6146104e6578063fe303ebf1461050d57600080fd5b8063ca15c87314610466578063d40ed58c14610479578063d547741f1461048c578063dd28776d1461049f57600080fd5b80637174026e116100de5780637174026e1461040d5780639010d07c1461042057806391d148541461044b578063a217fddf1461045e57600080fd5b80635ef32e2c146103b6578063700213c8146103be578063713a69a7146103e557600080fd5b80632f6ee6951161017c5780634c255c971161014b5780634c255c971461034f57806353faf90914610370578063599eaabf146103905780635c68c830146103a357600080fd5b80632f6ee695146102b757806335feb741146102d157806336568abe146102e457806339e47da7146102f757600080fd5b8063248a9ca3116101b8578063248a9ca31461023d57806328dd3065146102615780632be09ecc146102765780632f2ff15d146102a457600080fd5b806301ffc9a7146101df578063037f1769146102075780630a44f51f14610228575b600080fd5b6101f26101ed36600461236d565b610520565b60405190151581526020015b60405180910390f35b61021a610215366004612397565b61054b565b6040519081526020016101fe565b6102306105dd565b6040516101fe91906123b0565b61021a61024b366004612397565b6000908152600160208190526040909120015490565b61027461026f366004612427565b6106ba565b005b603554603954603a54604080516001600160a01b0390941684526020840192909252908201526060016101fe565b6102746102b236600461245c565b6106d6565b6102bf601281565b60405160ff90911681526020016101fe565b6102746102df3660046124d0565b610701565b6102746102f236600461245c565b610716565b604080518082018252600080825260209182015281518083018352603b546001600160c01b0381168083526001600160401b03600160c01b9092048216928401928352845190815291511691810191909152016101fe565b61035861271081565b6040516001600160401b0390911681526020016101fe565b61038361037e366004612555565b610799565b6040516101fe9190612618565b61027461039e366004612555565b6108d2565b61021a6103b136600461265e565b6109a2565b60375461021a565b61021a7f033a42b04fa8bdb42a28dc41fe890f4b8409d5af5d3ed16a96b5fb479b0d3fad81565b6103f86103f33660046127fe565b610a20565b604080519283526020830191909152016101fe565b61021a61041b366004612397565b610a4c565b61043361042e366004612832565b610adf565b6040516001600160a01b0390911681526020016101fe565b6101f261045936600461245c565b610afe565b61021a600081565b61021a610474366004612397565b610b29565b61027461048736600461286c565b610b40565b61027461049a36600461245c565b610d08565b6102746104ad366004612945565b610d2e565b6102746104c03660046129b0565b610e4c565b6104d86104d33660046129cc565b610e60565b6040516101fe929190612a10565b61021a7f97667070c54ef182b0f5858b034beac1b6f3089aa2d3188bb1e8929f4fa9b92981565b61027461051b366004612397565b611216565b60006001600160e01b03198216635a05180f60e01b148061054557506105458261122a565b92915050565b603554603a5460395460405163052571af60e51b815260009361054593869360129384936001600160a01b03169263a4ae35e09261059492600401918252602082015260400190565b608060405180830381865afa1580156105b1573d6000803e3d6000fd5b505050506040513d601f19601f820116820180604052508101906105d59190612a4b565b92919061125f565b603854606090806001600160401b038111156105fb576105fb6126cf565b60405190808252806020026020018201604052801561064057816020015b60408051808201909152600080825260208201528152602001906001900390816106195790505b5091506000805b828110156106b4578060010191508184828151811061066857610668612ab8565b60200260200101516000018181525050603c60008381526020019081526020016000205484828151811061069e5761069e612ab8565b6020908102919091018101510152600101610647565b50505090565b60006106c5816112a0565b6106d08484846112ad565b50505050565b600082815260016020819052604090912001546106f2816112a0565b6106fc838361131f565b505050565b600061070c816112a0565b6106fc8383611341565b6001600160a01b038116331461078b5760405162461bcd60e51b815260206004820152602f60248201527f416363657373436f6e74726f6c3a2063616e206f6e6c792072656e6f756e636560448201526e103937b632b9903337b91039b2b63360891b60648201526084015b60405180910390fd5b610795828261145a565b5050565b60607f97667070c54ef182b0f5858b034beac1b6f3089aa2d3188bb1e8929f4fa9b9296107c5816112a0565b60006107d78b8b8b8b8b8b8b8b61147c565b905033816001600160401b038111156107f2576107f26126cf565b60405190808252806020026020018201604052801561081b578160200160208202803683370190505b50935060005b828110156108c257610898828e8e8481811061083f5761083f612ab8565b905060200201358d8d8581811061085857610858612ab8565b905060200201358c8c8681811061087157610871612ab8565b905060200201358b8b8781811061088a5761088a612ab8565b9050602002013560006114ca565b8582815181106108aa576108aa612ab8565b91151560209283029190910190910152600101610821565b5050505098975050505050505050565b7f033a42b04fa8bdb42a28dc41fe890f4b8409d5af5d3ed16a96b5fb479b0d3fad6108fc816112a0565b600061090e8a8a8a8a8a8a8a8a61147c565b90503360005b828110156109945761098b828d8d8481811061093257610932612ab8565b905060200201358c8c8581811061094b5761094b612ab8565b905060200201358b8b8681811061096457610964612ab8565b905060200201358a8a8781811061097d5761097d612ab8565b9050602002013560016114ca565b50600101610914565b505050505050505050505050565b6000603e60006109e785858080601f01602080910402602001604051908101604052809392919081815260200183838082843760009201919091525061155992505050565b815260200190815260200160002054905080600003610a1957604051635421761560e11b815260040160405180910390fd5b1992915050565b600080610a3a610a3584805160209091012090565b611564565b9150610a4582610a4c565b9050915091565b603554603a5460395460405163052571af60e51b81526004810192909252602482015260009161054591849160129182916105d591601119916001600160a01b03169063a4ae35e090604401608060405180830381865afa158015610ab5573d6000803e3d6000fd5b505050506040513d601f19601f82011682018060405250810190610ad99190612a4b565b906115de565b6000828152600260205260408120610af79083611738565b9392505050565b60009182526001602090815260408084206001600160a01b0393909316845291905290205460ff1690565b600081815260026020526040812061054590611744565b600054610100900460ff1615808015610b605750600054600160ff909116105b80610b7a5750303b158015610b7a575060005460ff166001145b610bdd5760405162461bcd60e51b815260206004820152602e60248201527f496e697469616c697a61626c653a20636f6e747261637420697320616c72656160448201526d191e481a5b9a5d1a585b1a5e995960921b6064820152608401610782565b6000805460ff191660011790558015610c00576000805461ff0019166101001790555b897f97667070c54ef182b0f5858b034beac1b6f3089aa2d3188bb1e8929f4fa9b92960005b82811015610c6557610c5d828f8f84818110610c4357610c43612ab8565b9050602002016020810190610c589190612ace565b61174e565b600101610c25565b50603680546001600160a01b0319166001600160a01b038816179055610c8c60008f61174e565b610c968b8b611341565b610c9f89611758565b610ca88861178d565b610cb38786866112ad565b50508015610994576000805461ff0019169055604051600181527f7f26b83ff96e1f2b6a682f133852f6798a09c465da95921460cefb38474024989060200160405180910390a1505050505050505050505050565b60008281526001602081905260409091200154610d24816112a0565b6106fc838361145a565b7f033a42b04fa8bdb42a28dc41fe890f4b8409d5af5d3ed16a96b5fb479b0d3fad610d58816112a0565b83801580610d665750808314155b15610d8457604051634ec4810560e11b815260040160405180910390fd5b600033815b83811015610e4157868682818110610da357610da3612ab8565b9050602002013519925082603e60008b8b85818110610dc457610dc4612ab8565b90506020020135815260200190815260200160002081905550888882818110610def57610def612ab8565b90506020020135826001600160a01b03167fb52d278cb3ef3b003bdfb385ce2eb23a83eb6d713724abfba1acaa16ccf6621485604051610e3191815260200190565b60405180910390a3600101610d89565b505050505050505050565b6000610e57816112a0565b6107958261178d565b604080518082019091526000808252602082015260408051808201909152600080825260208201526000610e9385611809565b855160208701209091506000906000818152603e60205260409020549091508015610eca57610ec3811987612b01565b85526111e9565b6000603c6000610edc866038546118f7565b81526020019081526020016000205490508087610ef99190612b01565b86526000610f387fba69923fa107dbf5a25a073a10b7c9216ae39fbadc95dc891d460d9ae315d6888a6000918252805160209182012090526040902090565b6036546040516329fc8caf60e11b8152600481018390529192506001600160a01b03169081906353f9195e90602401602060405180830381865afa158015610f84573d6000803e3d6000fd5b505050506040513d601f19601f82011682018060405250810190610fa89190612b28565b156111e5576000816001600160a01b0316638c8433146040518163ffffffff1660e01b8152600401602060405180830381865afa158015610fed573d6000803e3d6000fd5b505050506040513d601f19601f820116820180604052508101906110119190612b43565b905060006110ac826001600160a01b03166303e9e609866040518263ffffffff1660e01b815260040161104691815260200190565b600060405180830381865afa158015611063573d6000803e3d6000fd5b505050506040513d6000823e601f3d908101601f1916820160405261108b9190810190612bea565b60200151604001516001600160401b03168c6001600160401b03801661190d565b6040516378bd793560e01b8152600481018690529091506000906001600160a01b038516906378bd79359060240160e060405180830381865afa1580156110f7573d6000803e3d6000fd5b505050506040513d601f19601f8201168201806040525081019061111b9190612cf1565b5060408101516060015190915080158015906111a95750846001600160a01b0316630afe1bb36040518163ffffffff1660e01b8152600401602060405180830381865afa158015611170573d6000803e3d6000fd5b505050506040513d601f19601f820116820180604052508101906111949190612d8e565b6001600160401b03166111a78285612dab565b115b156111c757604051631bb03f9d60e01b815260040160405180910390fd5b6111de6037546111d68b611564565b612710611943565b8b52505050505b5050505b83516111f490610a4c565b6020850152845161120490610a4c565b60208601525092959194509092505050565b6000611221816112a0565b61079582611758565b60006001600160e01b03198216637965db0b60e01b148061054557506301ffc9a760e01b6001600160e01b0319831614610545565b600061129584611285876000015160070b8860400151866112809190612dbe565b611a2d565b611290600187611a2d565b611943565b90505b949350505050565b6112aa8133611a87565b50565b603580546001600160a01b0319166001600160a01b0385169081179091556039839055603a8290558190336001600160a01b03167f671083457675651266070f50f1438ef8190b7da64d38f16f5117246236b7dd5b8560405161131291815260200190565b60405180910390a4505050565b6113298282611ae0565b60008281526002602052604090206106fc9082611b4b565b60408051808201909152600080825260208201523390603854839060005b8281101561140c5786868281811061137957611379612ab8565b90506040020180360381019061138f9190612de5565b935061139f828560000151611b60565b6020808601805187516000908152603c90935260409283902055865190519151929450916001600160a01b038816917f85211e946be6d537cd1b22a183d04151d4e5d0818e1ce75d2e5ebaecba0a5a77916113fc91815260200190565b60405180910390a360010161135f565b50603854811461145257603881905560405181906001600160a01b038616907f7e7c3a4273ac1af351af63a82e91a8335bcb389ba681375a32dbe4455d0d474b90600090a35b505050505050565b6114648282611b6f565b60008281526002602052604090206106fc9082611bd6565b8680158061148a5750858114155b806114955750838114155b806114a05750818114155b156114be57604051634ec4810560e11b815260040160405180910390fd5b98975050505050505050565b6000806114d68661054b565b6000888152603d6020526040902090915083806114f35750805482115b9250821561154d57818155426001820155604080518381526020810187905287918a916001600160a01b038d16917f60d5fd6d2284807447aae62f93c05517a647b8e8479c3af2c27ee1d1c85b540f910160405180910390a45b50509695505050505050565b805160209091012090565b6000818152603d602052604081206001810154808303611588575060009392505050565b60006115948242612dab565b835460408051808201909152603b546001600160c01b0381168252600160c01b90046001600160401b031660208201529192506115d5919061271084611beb565b95945050505050565b60408051608081018252600080825260208201819052918101829052606081019190915260006116176001856040015161128090612e17565b90506001600160ff1b0381111561164d576040808501519051633e87ca5d60e11b815260039190910b6004820152602401610782565b600061165d600161128086612e17565b90506001600160ff1b0381111561168d57604051633e87ca5d60e11b8152600385900b6004820152602401610782565b845160009060070b61169f8385612e3a565b6116a99190612e80565b9050677fffffffffffffff8113156116f557604086810151875191516329b2fb5560e11b8152600391820b60048201529087900b602482015260079190910b6044820152606401610782565b60405180608001604052808260070b815260200187602001516001600160401b031681526020018660030b81526020018760600151815250935050505092915050565b6000610af78383611cc1565b6000610545825490565b610795828261131f565b6037819055604051819033907f1e97e29c863545fad1ce79512b4deb3f0b7d30c3356bc7bbbd6588c9e68cf07390600090a350565b80603b61179a8282612ec3565b503390507fa7f38b74141f9a2ac1b02640ded2b98431ef77f8cf2e3ade85c71d6c8420dc646117cc6020840184612f05565b6117dc6040850160208601612f22565b604080516001600160c01b0390931683526001600160401b0390911660208301520160405180910390a250565b600080600080845190505b808310156118ef57600085848151811061183057611830612ab8565b01602001516001600160f81b0319169050600160ff1b811015611858576001840193506118e3565b600760fd1b6001600160f81b031982161015611879576002840193506118e3565b600f60fc1b6001600160f81b03198216101561189a576003840193506118e3565b601f60fb1b6001600160f81b0319821610156118bb576004840193506118e3565b603f60fa1b6001600160f81b0319821610156118dc576005840193506118e3565b6006840193505b50600190910190611814565b509392505050565b60008183106119065781610af7565b5090919050565b60008184118061191c57508183115b15611928575080610af7565b6119328484611ceb565b905081811115610af7575092915050565b600080806000198587098587029250828110838203039150508060000361197d5783828161197357611973612e6a565b0492505050610af7565b8084116119c45760405162461bcd60e51b81526020600482015260156024820152744d6174683a206d756c446976206f766572666c6f7760581b6044820152606401610782565b60008486880960026001871981018816978890046003810283188082028403028082028403028082028403028082028403028082028403029081029092039091026000889003889004909101858311909403939093029303949094049190911702949350505050565b6000808260030b1215611a5f57611a4382612e17565b611a4e90600a613023565b611a589084613035565b9050610545565b60008260030b1315611a8057611a7682600a613023565b611a589084612b01565b5081610545565b611a918282610afe565b61079557611a9e81611cff565b611aa9836020611d11565b604051602001611aba929190613049565b60408051601f198184030181529082905262461bcd60e51b8252610782916004016130be565b611aea8282610afe565b6107955760008281526001602081815260408084206001600160a01b0386168086529252808420805460ff19169093179092559051339285917f2f8788117e7eff1d82e926ec794901d17c78024a50270940304540a733656f0d9190a45050565b6000610af7836001600160a01b038416611eac565b60008183116119065781610af7565b611b798282610afe565b156107955760008281526001602090815260408083206001600160a01b0385168085529252808320805460ff1916905551339285917ff6391f5c32d9c69d2a47ea670b442974b53935d1edc7fd64eb21e047a839171b9190a45050565b6000610af7836001600160a01b038416611efb565b60008085602001516001600160401b031683611c079190613035565b9050801580611c1e575085516001600160c01b0316155b15611c2c5784915050611298565b85516001600160c01b03166001600160401b03851603611c50576000915050611298565b61ffff811115611c7657604051637359f25f60e01b815260048101829052602401610782565b6000611ca68760000151866001600160401b0316036001600160c01b0316612710876001600160401b0316611943565b9050611cb6868261271085611fee565b979650505050505050565b6000826000018281548110611cd857611cd8612ab8565b9060005260206000200154905092915050565b818101828110156105455750600019610545565b60606105456001600160a01b03831660145b60606000611d20836002612b01565b611d2b9060026130f1565b6001600160401b03811115611d4257611d426126cf565b6040519080825280601f01601f191660200182016040528015611d6c576020820181803683370190505b509050600360fc1b81600081518110611d8757611d87612ab8565b60200101906001600160f81b031916908160001a905350600f60fb1b81600181518110611db657611db6612ab8565b60200101906001600160f81b031916908160001a9053506000611dda846002612b01565b611de59060016130f1565b90505b6001811115611e5d576f181899199a1a9b1b9c1cb0b131b232b360811b85600f1660108110611e1957611e19612ab8565b1a60f81b828281518110611e2f57611e2f612ab8565b60200101906001600160f81b031916908160001a90535060049490941c93611e5681613104565b9050611de8565b508315610af75760405162461bcd60e51b815260206004820181905260248201527f537472696e67733a20686578206c656e67746820696e73756666696369656e746044820152606401610782565b6000818152600183016020526040812054611ef357508154600181810184556000848152602080822090930184905584548482528286019093526040902091909155610545565b506000610545565b60008181526001830160205260408120548015611fe4576000611f1f600183612dab565b8554909150600090611f3390600190612dab565b9050818114611f98576000866000018281548110611f5357611f53612ab8565b9060005260206000200154905080876000018481548110611f7657611f76612ab8565b6000918252602080832090910192909255918252600188019052604090208390555b8554869080611fa957611fa961311b565b600190038181906000526020600020016000905590558560010160008681526020019081526020016000206000905560019350505050610545565b6000915050610545565b600082841480612000575061ffff8216155b1561200c575083611298565b5083600080808061202d61ffff87166120248a612151565b61ffff166118f7565b90505b61ffff8116156120835761204a8561ffff83168a0a612322565b9094509250831561206357829450808603955080820191505b61207c600261ffff83160461ffff168761ffff166118f7565b9050612030565b505b61ffff8516156120f6576120998488612322565b909350915082156120b857600019909401939092508290600101612085565b61ffff8116156120dd578584816120d1576120d1612e6a565b04935060001901612085565b6120e8848888611943565b600019909501949350612085565b600061210187612151565b90505b61ffff8216156121455760006121228261ffff168461ffff166118f7565b90508061ffff16880a868161213957612139612e6a565b04955090910390612104565b50505050949350505050565b60006003821015612164575060ff919050565b600482101561217557506080919050565b601082101561218657506040919050565b61010082101561219857506020919050565b611bdc8210156121aa57506014919050565b612c708210156121bc57506013919050565b614aa98210156121ce57506012919050565b6185548210156121e057506011919050565b620100008210156121f357506010919050565b620218378210156122065750600f919050565b6204e0468210156122195750600e919050565b620ced4c82101561222c5750600d919050565b6228514682101561223f5750600c919050565b629aa2ad8210156122525750600b919050565b6303080c018210156122665750600a919050565b6315c5cbbd82101561227a57506009919050565b64010000000082101561228f57506008919050565b6417c6a1f29f8210156122a457506007919050565b6506597fa94f5c8210156122ba57506006919050565b66093088c35d733b8210156122d157506005919050565b680100000000000000008210156122ea57506004919050565b6a285145f31ae515c447bb5782101561230557506003919050565b600160801b82101561231957506002919050565b5060015b919050565b600080836000036123395750600190506000612366565b8383028385828161234c5761234c612e6a565b041461235f576000809250925050612366565b6001925090505b9250929050565b60006020828403121561237f57600080fd5b81356001600160e01b031981168114610af757600080fd5b6000602082840312156123a957600080fd5b5035919050565b602080825282518282018190526000919060409081850190868401855b828110156123fa576123ea84835180518252602090810151910152565b92840192908501906001016123cd565b5091979650505050505050565b6001600160a01b03811681146112aa57600080fd5b803561231d81612407565b60008060006060848603121561243c57600080fd5b833561244781612407565b95602085013595506040909401359392505050565b6000806040838503121561246f57600080fd5b82359150602083013561248181612407565b809150509250929050565b60008083601f84011261249e57600080fd5b5081356001600160401b038111156124b557600080fd5b6020830191508360208260061b850101111561236657600080fd5b600080602083850312156124e357600080fd5b82356001600160401b038111156124f957600080fd5b6125058582860161248c565b90969095509350505050565b60008083601f84011261252357600080fd5b5081356001600160401b0381111561253a57600080fd5b6020830191508360208260051b850101111561236657600080fd5b6000806000806000806000806080898b03121561257157600080fd5b88356001600160401b038082111561258857600080fd5b6125948c838d01612511565b909a50985060208b01359150808211156125ad57600080fd5b6125b98c838d01612511565b909850965060408b01359150808211156125d257600080fd5b6125de8c838d01612511565b909650945060608b01359150808211156125f757600080fd5b506126048b828c01612511565b999c989b5096995094979396929594505050565b6020808252825182820181905260009190848201906040850190845b81811015612652578351151583529284019291840191600101612634565b50909695505050505050565b6000806020838503121561267157600080fd5b82356001600160401b038082111561268857600080fd5b818501915085601f83011261269c57600080fd5b8135818111156126ab57600080fd5b8660208285010111156126bd57600080fd5b60209290920196919550909350505050565b634e487b7160e01b600052604160045260246000fd5b604051608081016001600160401b0381118282101715612707576127076126cf565b60405290565b604080519081016001600160401b0381118282101715612707576127076126cf565b604051606081016001600160401b0381118282101715612707576127076126cf565b604051601f8201601f191681016001600160401b0381118282101715612779576127796126cf565b604052919050565b60006001600160401b0382111561279a5761279a6126cf565b50601f01601f191660200190565b600082601f8301126127b957600080fd5b81356127cc6127c782612781565b612751565b8181528460208386010111156127e157600080fd5b816020850160208301376000918101602001919091529392505050565b60006020828403121561281057600080fd5b81356001600160401b0381111561282657600080fd5b611298848285016127a8565b6000806040838503121561284557600080fd5b50508035926020909101359150565b60006040828403121561286657600080fd5b50919050565b60008060008060008060008060008060006101408c8e03121561288e57600080fd5b6128988c35612407565b8b359a506001600160401b038060208e013511156128b557600080fd5b6128c58e60208f01358f01612511565b909b50995060408d01358110156128db57600080fd5b506128ec8d60408e01358e0161248c565b909850965060608c013595506129058d60808e01612854565b945060c08c013561291581612407565b935061292360e08d0161241c565b92506101008c013591506101208c013590509295989b509295989b9093969950565b6000806000806040858703121561295b57600080fd5b84356001600160401b038082111561297257600080fd5b61297e88838901612511565b9096509450602087013591508082111561299757600080fd5b506129a487828801612511565b95989497509550505050565b6000604082840312156129c257600080fd5b610af78383612854565b600080604083850312156129df57600080fd5b82356001600160401b038111156129f557600080fd5b612a01858286016127a8565b95602094909401359450505050565b825181526020808401518183015282516040830152820151606082015260808101610af7565b6001600160401b03811681146112aa57600080fd5b600060808284031215612a5d57600080fd5b612a656126e5565b82518060070b8114612a7657600080fd5b81526020830151612a8681612a36565b60208201526040830151600381900b8114612aa057600080fd5b60408201526060928301519281019290925250919050565b634e487b7160e01b600052603260045260246000fd5b600060208284031215612ae057600080fd5b8135610af781612407565b634e487b7160e01b600052601160045260246000fd5b808202811582820484141761054557610545612aeb565b8051801515811461231d57600080fd5b600060208284031215612b3a57600080fd5b610af782612b18565b600060208284031215612b5557600080fd5b8151610af781612407565b60005b83811015612b7b578181015183820152602001612b63565b50506000910152565b600060808284031215612b9657600080fd5b612b9e6126e5565b90508151612bab81612407565b81526020820151612bbb81612407565b60208201526040820151612bce81612a36565b6040820152612bdf60608301612b18565b606082015292915050565b60006020808385031215612bfd57600080fd5b82516001600160401b0380821115612c1457600080fd5b9084019060a08287031215612c2857600080fd5b612c3061270d565b825182811115612c3f57600080fd5b830160608189031215612c5157600080fd5b612c5961272f565b815160ff81168114612c6a57600080fd5b81528186015186820152604082015184811115612c8657600080fd5b82019350601f84018913612c9957600080fd5b83519150612ca96127c783612781565b8281528987848701011115612cbd57600080fd5b612ccc83888301898801612b60565b6040820152825250612ce087848601612b84565b848201528094505050505092915050565b60008082840360e0811215612d0557600080fd5b60c0811215612d1357600080fd5b612d1b61272f565b84518152602085015160208201526080603f1983011215612d3b57600080fd5b612d436126e5565b91506040850151612d5381612407565b80835250606085015160208301526080850151604083015260a08501516060830152816040820152809350505060c083015190509250929050565b600060208284031215612da057600080fd5b8151610af781612a36565b8181038181111561054557610545612aeb565b600381810b9083900b01637fffffff8113637fffffff198212171561054557610545612aeb565b600060408284031215612df757600080fd5b612dff61270d565b82358152602083013560208201528091505092915050565b60008160030b637fffffff198103612e3157612e31612aeb565b60000392915050565b80820260008212600160ff1b84141615612e5657612e56612aeb565b818105831482151761054557610545612aeb565b634e487b7160e01b600052601260045260246000fd5b600082612e8f57612e8f612e6a565b600160ff1b821460001984141615612ea957612ea9612aeb565b500590565b6001600160c01b03811681146112aa57600080fd5b8135612ece81612eae565b81546001600160c01b03199081166001600160c01b039290921691821783556020840135612efb81612a36565b60c01b1617905550565b600060208284031215612f1757600080fd5b8135610af781612eae565b600060208284031215612f3457600080fd5b8135610af781612a36565b600181815b80851115612f7a578160001904821115612f6057612f60612aeb565b80851615612f6d57918102915b93841c9390800290612f44565b509250929050565b600082612f9157506001610545565b81612f9e57506000610545565b8160018114612fb45760028114612fbe57612fda565b6001915050610545565b60ff841115612fcf57612fcf612aeb565b50506001821b610545565b5060208310610133831016604e8410600b8410161715612ffd575081810a610545565b6130078383612f3f565b806000190482111561301b5761301b612aeb565b029392505050565b6000610af763ffffffff841683612f82565b60008261304457613044612e6a565b500490565b7f416363657373436f6e74726f6c3a206163636f756e7420000000000000000000815260008351613081816017850160208801612b60565b7001034b99036b4b9b9b4b733903937b6329607d1b60179184019182015283516130b2816028840160208801612b60565b01602801949350505050565b60208152600082518060208401526130dd816040850160208701612b60565b601f01601f19169190910160400192915050565b8082018082111561054557610545612aeb565b60008161311357613113612aeb565b506000190190565b634e487b7160e01b600052603160045260246000fdfea2646970667358221220d0496611adae861791435296e0aae2099af9499031b6826466a4fe91423b08e564736f6c63430008150033",
  "chainId": 2021,
  "contractName": "RNSDomainPrice",
  "deployer": "0x968D0Cd7343f711216817E617d3f92a23dC91c07",
  "devdoc": {
    "version": 1,
    "kind": "dev",
    "methods": {
      "bulkOverrideRenewalFees(bytes32[],uint256[])": {
        "details": "Bulk override renewal fees. Requirements: - The method caller is operator. - The input array lengths must be larger than 0 and the same. Emits events {RenewalFeeOverridingUpdated}.",
        "params": {
          "lbHashes": "Array of label hashes. (Eg, ['foo'].map(keccak256) for 'foo.ron')",
          "usdPrices": "Array of prices in USD. Leave 2^256 - 1 to remove overriding."
        }
      },
      "bulkSetDomainPrice(bytes32[],uint256[],bytes32[],uint256[])": {
        "details": "Bulk override domain prices. Requirements: - The method caller is operator. - The input array lengths must be larger than 0 and the same. Emits events {DomainPriceUpdated}.",
        "params": {
          "lbHashes": "Array of label hashes. (Eg, ['foo'].map(keccak256) for 'foo.ron')",
          "proofHashes": "Array of proof hashes.",
          "ronPrices": "Array of prices in (W)RON token.",
          "setTypes": "Array of update types from the operator service."
        }
      },
      "bulkTrySetDomainPrice(bytes32[],uint256[],bytes32[],uint256[])": {
        "details": "Bulk try to set domain prices. Returns a boolean array indicating whether domain prices at the corresponding indexes if set or not. Requirements: - The method caller is operator. - The input array lengths must be larger than 0 and the same. - The price should be larger than current domain price or it will not be updated. Emits events {DomainPriceUpdated} optionally.",
        "params": {
          "lbHashes": "Array of label hashes. (Eg, ['foo'].map(keccak256) for 'foo.ron')",
          "proofHashes": "Array of proof hashes.",
          "ronPrices": "Array of prices in (W)RON token.",
          "setTypes": "Array of update types from the operator service."
        }
      },
      "convertRONToUSD(uint256)": {
        "details": "Returns the converted amount from RON to USD."
      },
      "convertUSDToRON(uint256)": {
        "details": "Returns the converted amount from USD to RON."
      },
      "getDomainPrice(string)": {
        "details": "Return the domain price.",
        "params": {
          "label": "The domain label to register (Eg, 'foo' for 'foo.ron')."
        }
      },
      "getOverriddenRenewalFee(string)": {
        "details": "Returns the renewal fee of a label. Reverts if not overridden."
      },
      "getPythOracleConfig()": {
        "details": "Returns the Pyth oracle config."
      },
      "getRenewalFee(string,uint256)": {
        "details": "Returns the renewal fee in USD and RON.",
        "params": {
          "duration": "Amount of second(s).",
          "label": "The domain label to register (Eg, 'foo' for 'foo.ron')."
        }
      },
      "getRenewalFeeByLengths()": {
        "details": "Returns the renewal fee by lengths."
      },
      "getRoleAdmin(bytes32)": {
        "details": "Returns the admin role that controls `role`. See {grantRole} and {revokeRole}. To change a role's admin, use {_setRoleAdmin}."
      },
      "getRoleMember(bytes32,uint256)": {
        "details": "Returns one of the accounts that have `role`. `index` must be a value between 0 and {getRoleMemberCount}, non-inclusive. Role bearers are not sorted in any particular way, and their ordering may change at any point. WARNING: When using {getRoleMember} and {getRoleMemberCount}, make sure you perform all queries on the same block. See the following https://forum.openzeppelin.com/t/iterating-over-elements-on-enumerableset-in-openzeppelin-contracts/2296[forum post] for more information."
      },
      "getRoleMemberCount(bytes32)": {
        "details": "Returns the number of accounts that have `role`. Can be used together with {getRoleMember} to enumerate all bearers of a role."
      },
      "getScaleDownRuleForDomainPrice()": {
        "details": "Returns the percentage to scale from domain price each period."
      },
      "getTaxRatio()": {
        "details": "Returns tax ratio."
      },
      "grantRole(bytes32,address)": {
        "details": "Grants `role` to `account`. If `account` had not been already granted `role`, emits a {RoleGranted} event. Requirements: - the caller must have ``role``'s admin role. May emit a {RoleGranted} event."
      },
      "hasRole(bytes32,address)": {
        "details": "Returns `true` if `account` has been granted `role`."
      },
      "renounceRole(bytes32,address)": {
        "details": "Revokes `role` from the calling account. Roles are often managed via {grantRole} and {revokeRole}: this function's purpose is to provide a mechanism for accounts to lose their privileges if they are compromised (such as when a trusted device is misplaced). If the calling account had been revoked `role`, emits a {RoleRevoked} event. Requirements: - the caller must be `account`. May emit a {RoleRevoked} event."
      },
      "revokeRole(bytes32,address)": {
        "details": "Revokes `role` from `account`. If `account` had been granted `role`, emits a {RoleRevoked} event. Requirements: - the caller must have ``role``'s admin role. May emit a {RoleRevoked} event."
      },
      "setPythOracleConfig(address,uint256,bytes32)": {
        "details": "Sets the Pyth oracle config. Requirements: - The method caller is admin. Emits events {PythOracleConfigUpdated}."
      },
      "setRenewalFeeByLengths((uint256,uint256)[])": {
        "details": "Sets the renewal fee by lengths Requirements: - The method caller is admin. Emits events {RenewalFeeByLengthUpdated}. Emits an event {MaxRenewalFeeLengthUpdated} optionally."
      },
      "setScaleDownRuleForDomainPrice((uint192,uint64))": {
        "details": "Sets the percentage to scale from domain price each period. Requirements: - The method caller is admin. Emits events {DomainPriceScaleRuleUpdated}."
      },
      "setTaxRatio(uint256)": {
        "details": "Sets renewal reservation ratio. Requirements: - The method caller is admin. Emits an event {TaxRatioUpdated}."
      },
      "supportsInterface(bytes4)": {
        "details": "See {IERC165-supportsInterface}."
      }
    },
    "events": {
      "DomainPriceScaleRuleUpdated(address,uint192,uint64)": {
        "details": "Emitted when the rule to rescale domain price is updated."
      },
      "DomainPriceUpdated(address,bytes32,uint256,bytes32,uint256)": {
        "details": "Emitted when the domain price is updated."
      },
      "Initialized(uint8)": {
        "details": "Triggered when the contract has been initialized or reinitialized."
      },
      "MaxRenewalFeeLengthUpdated(address,uint256)": {
        "details": "Emitted when the maximum length of renewal fee is updated."
      },
      "PythOracleConfigUpdated(address,address,uint256,bytes32)": {
        "details": "Emitted when the Pyth Oracle config is updated."
      },
      "RenewalFeeByLengthUpdated(address,uint256,uint256)": {
        "details": "Emitted when the renew fee is updated."
      },
      "RenewalFeeOverridingUpdated(address,bytes32,uint256)": {
        "details": "Emitted when the renew fee of a domain is overridden. Value of `inverseRenewalFee` is 0 when not overridden."
      },
      "RoleAdminChanged(bytes32,bytes32,bytes32)": {
        "details": "Emitted when `newAdminRole` is set as ``role``'s admin role, replacing `previousAdminRole` `DEFAULT_ADMIN_ROLE` is the starting admin for all roles, despite {RoleAdminChanged} not being emitted signaling this. _Available since v3.1._"
      },
      "RoleGranted(bytes32,address,address)": {
        "details": "Emitted when `account` is granted `role`. `sender` is the account that originated the contract call, an admin role bearer except when using {AccessControl-_setupRole}."
      },
      "RoleRevoked(bytes32,address,address)": {
        "details": "Emitted when `account` is revoked `role`. `sender` is the account that originated the contract call:   - if using `revokeRole`, it is the admin role bearer   - if using `renounceRole`, it is the role bearer (i.e. `account`)"
      },
      "TaxRatioUpdated(address,uint256)": {
        "details": "Emitted when the renewal reservation ratio is updated."
      }
    }
  },
  "isFoundry": true,
  "nonce": 182602,
  "numDeployments": 3,
  "storageLayout": {
    "storage": [
      {
        "astId": 50078,
        "contract": "src/RNSDomainPrice.sol:RNSDomainPrice",
        "label": "_initialized",
        "offset": 0,
        "slot": "0",
        "type": "t_uint8"
      },
      {
        "astId": 50081,
        "contract": "src/RNSDomainPrice.sol:RNSDomainPrice",
        "label": "_initializing",
        "offset": 1,
        "slot": "0",
        "type": "t_bool"
      },
      {
        "astId": 48551,
        "contract": "src/RNSDomainPrice.sol:RNSDomainPrice",
        "label": "_roles",
        "offset": 0,
        "slot": "1",
        "type": "t_mapping(t_bytes32,t_struct(RoleData)48546_storage)"
      },
      {
        "astId": 48861,
        "contract": "src/RNSDomainPrice.sol:RNSDomainPrice",
        "label": "_roleMembers",
        "offset": 0,
        "slot": "2",
        "type": "t_mapping(t_bytes32,t_struct(AddressSet)54430_storage)"
      },
      {
        "astId": 60217,
        "contract": "src/RNSDomainPrice.sol:RNSDomainPrice",
        "label": "____gap",
        "offset": 0,
        "slot": "3",
        "type": "t_array(t_uint256)50_storage"
      },
      {
        "astId": 60221,
        "contract": "src/RNSDomainPrice.sol:RNSDomainPrice",
        "label": "_pyth",
        "offset": 0,
        "slot": "53",
        "type": "t_contract(IPyth)54836"
      },
      {
        "astId": 60225,
        "contract": "src/RNSDomainPrice.sol:RNSDomainPrice",
        "label": "_auction",
        "offset": 0,
        "slot": "54",
        "type": "t_contract(INSAuction)64912"
      },
      {
        "astId": 60228,
        "contract": "src/RNSDomainPrice.sol:RNSDomainPrice",
        "label": "_taxRatio",
        "offset": 0,
        "slot": "55",
        "type": "t_uint256"
      },
      {
        "astId": 60231,
        "contract": "src/RNSDomainPrice.sol:RNSDomainPrice",
        "label": "_rnfMaxLength",
        "offset": 0,
        "slot": "56",
        "type": "t_uint256"
      },
      {
        "astId": 60234,
        "contract": "src/RNSDomainPrice.sol:RNSDomainPrice",
        "label": "_maxAcceptableAge",
        "offset": 0,
        "slot": "57",
        "type": "t_uint256"
      },
      {
        "astId": 60237,
        "contract": "src/RNSDomainPrice.sol:RNSDomainPrice",
        "label": "_pythIdForRONUSD",
        "offset": 0,
        "slot": "58",
        "type": "t_bytes32"
      },
      {
        "astId": 60241,
        "contract": "src/RNSDomainPrice.sol:RNSDomainPrice",
        "label": "_dpDownScaler",
        "offset": 0,
        "slot": "59",
        "type": "t_struct(PeriodScaler)67177_storage"
      },
      {
        "astId": 60246,
        "contract": "src/RNSDomainPrice.sol:RNSDomainPrice",
        "label": "_rnFee",
        "offset": 0,
        "slot": "60",
        "type": "t_mapping(t_uint256,t_uint256)"
      },
      {
        "astId": 60252,
        "contract": "src/RNSDomainPrice.sol:RNSDomainPrice",
        "label": "_dp",
        "offset": 0,
        "slot": "61",
        "type": "t_mapping(t_bytes32,t_struct(TimestampWrapper)67100_storage)"
      },
      {
        "astId": 60257,
        "contract": "src/RNSDomainPrice.sol:RNSDomainPrice",
        "label": "_rnFeeOverriding",
        "offset": 0,
        "slot": "62",
        "type": "t_mapping(t_bytes32,t_uint256)"
      }
    ],
    "types": {
      "t_address": {
        "encoding": "inplace",
        "label": "address",
        "numberOfBytes": "20"
      },
      "t_array(t_bytes32)dyn_storage": {
        "encoding": "dynamic_array",
        "label": "bytes32[]",
        "numberOfBytes": "32",
        "base": "t_bytes32"
      },
      "t_array(t_uint256)50_storage": {
        "encoding": "inplace",
        "label": "uint256[50]",
        "numberOfBytes": "1600",
        "base": "t_uint256"
      },
      "t_bool": {
        "encoding": "inplace",
        "label": "bool",
        "numberOfBytes": "1"
      },
      "t_bytes32": {
        "encoding": "inplace",
        "label": "bytes32",
        "numberOfBytes": "32"
      },
      "t_contract(INSAuction)64912": {
        "encoding": "inplace",
        "label": "contract INSAuction",
        "numberOfBytes": "20"
      },
      "t_contract(IPyth)54836": {
        "encoding": "inplace",
        "label": "contract IPyth",
        "numberOfBytes": "20"
      },
      "t_mapping(t_address,t_bool)": {
        "encoding": "mapping",
        "key": "t_address",
        "label": "mapping(address => bool)",
        "numberOfBytes": "32",
        "value": "t_bool"
      },
      "t_mapping(t_bytes32,t_struct(AddressSet)54430_storage)": {
        "encoding": "mapping",
        "key": "t_bytes32",
        "label": "mapping(bytes32 => struct EnumerableSet.AddressSet)",
        "numberOfBytes": "32",
        "value": "t_struct(AddressSet)54430_storage"
      },
      "t_mapping(t_bytes32,t_struct(RoleData)48546_storage)": {
        "encoding": "mapping",
        "key": "t_bytes32",
        "label": "mapping(bytes32 => struct AccessControl.RoleData)",
        "numberOfBytes": "32",
        "value": "t_struct(RoleData)48546_storage"
      },
      "t_mapping(t_bytes32,t_struct(TimestampWrapper)67100_storage)": {
        "encoding": "mapping",
        "key": "t_bytes32",
        "label": "mapping(bytes32 => struct TimestampWrapper)",
        "numberOfBytes": "32",
        "value": "t_struct(TimestampWrapper)67100_storage"
      },
      "t_mapping(t_bytes32,t_uint256)": {
        "encoding": "mapping",
        "key": "t_bytes32",
        "label": "mapping(bytes32 => uint256)",
        "numberOfBytes": "32",
        "value": "t_uint256"
      },
      "t_mapping(t_uint256,t_uint256)": {
        "encoding": "mapping",
        "key": "t_uint256",
        "label": "mapping(uint256 => uint256)",
        "numberOfBytes": "32",
        "value": "t_uint256"
      },
      "t_struct(AddressSet)54430_storage": {
        "encoding": "inplace",
        "label": "struct EnumerableSet.AddressSet",
        "numberOfBytes": "64",
        "members": [
          {
            "astId": 54429,
            "contract": "src/RNSDomainPrice.sol:RNSDomainPrice",
            "label": "_inner",
            "offset": 0,
            "slot": "0",
            "type": "t_struct(Set)54115_storage"
          }
        ]
      },
      "t_struct(PeriodScaler)67177_storage": {
        "encoding": "inplace",
        "label": "struct PeriodScaler",
        "numberOfBytes": "32",
        "members": [
          {
            "astId": 67174,
            "contract": "src/RNSDomainPrice.sol:RNSDomainPrice",
            "label": "ratio",
            "offset": 0,
            "slot": "0",
            "type": "t_uint192"
          },
          {
            "astId": 67176,
            "contract": "src/RNSDomainPrice.sol:RNSDomainPrice",
            "label": "period",
            "offset": 24,
            "slot": "0",
            "type": "t_uint64"
          }
        ]
      },
      "t_struct(RoleData)48546_storage": {
        "encoding": "inplace",
        "label": "struct AccessControl.RoleData",
        "numberOfBytes": "64",
        "members": [
          {
            "astId": 48543,
            "contract": "src/RNSDomainPrice.sol:RNSDomainPrice",
            "label": "members",
            "offset": 0,
            "slot": "0",
            "type": "t_mapping(t_address,t_bool)"
          },
          {
            "astId": 48545,
            "contract": "src/RNSDomainPrice.sol:RNSDomainPrice",
            "label": "adminRole",
            "offset": 0,
            "slot": "1",
            "type": "t_bytes32"
          }
        ]
      },
      "t_struct(Set)54115_storage": {
        "encoding": "inplace",
        "label": "struct EnumerableSet.Set",
        "numberOfBytes": "64",
        "members": [
          {
            "astId": 54110,
            "contract": "src/RNSDomainPrice.sol:RNSDomainPrice",
            "label": "_values",
            "offset": 0,
            "slot": "0",
            "type": "t_array(t_bytes32)dyn_storage"
          },
          {
            "astId": 54114,
            "contract": "src/RNSDomainPrice.sol:RNSDomainPrice",
            "label": "_indexes",
            "offset": 0,
            "slot": "1",
            "type": "t_mapping(t_bytes32,t_uint256)"
          }
        ]
      },
      "t_struct(TimestampWrapper)67100_storage": {
        "encoding": "inplace",
        "label": "struct TimestampWrapper",
        "numberOfBytes": "64",
        "members": [
          {
            "astId": 67097,
            "contract": "src/RNSDomainPrice.sol:RNSDomainPrice",
            "label": "value",
            "offset": 0,
            "slot": "0",
            "type": "t_uint256"
          },
          {
            "astId": 67099,
            "contract": "src/RNSDomainPrice.sol:RNSDomainPrice",
            "label": "timestamp",
            "offset": 0,
            "slot": "1",
            "type": "t_uint256"
          }
        ]
      },
      "t_uint192": {
        "encoding": "inplace",
        "label": "uint192",
        "numberOfBytes": "24"
      },
      "t_uint256": {
        "encoding": "inplace",
        "label": "uint256",
        "numberOfBytes": "32"
      },
      "t_uint64": {
        "encoding": "inplace",
        "label": "uint64",
        "numberOfBytes": "8"
      },
      "t_uint8": {
        "encoding": "inplace",
        "label": "uint8",
        "numberOfBytes": "1"
      }
    }
  },
  "timestamp": 1698139032,
  "userdoc": {
    "version": 1,
    "kind": "user",
    "methods": {
      "getOverriddenRenewalFee(string)": {
        "notice": "This method is to help developers check the domain renewal fee overriding. Consider using method {getRenewalFee} instead for full handling of renewal fees."
      },
      "setScaleDownRuleForDomainPrice((uint192,uint64))": {
        "notice": "Applies for the business rule: -x% each y seconds."
      }
    }
  }
}