{
  "abi": [
    {
      "inputs": [
        {
          "internalType": "contract INSUnified",
          "name": "rns_",
          "type": "address"
        },
        {
          "internalType": "address",
          "name": "resolver_",
          "type": "address"
        },
        {
          "internalType": "contract INSAuction",
          "name": "auction_",
          "type": "address"
        },
        {
          "internalType": "contract INSDomainPrice",
          "name": "domainPrice_",
          "type": "address"
        }
      ],
      "stateMutability": "nonpayable",
      "type": "constructor"
    },
    {
      "anonymous": false,
      "inputs": [
        {
          "indexed": true,
          "internalType": "address",
          "name": "previousOwner",
          "type": "address"
        },
        {
          "indexed": true,
          "internalType": "address",
          "name": "newOwner",
          "type": "address"
        }
      ],
      "name": "OwnershipTransferred",
      "type": "event"
    },
    {
      "inputs": [],
      "name": "auction",
      "outputs": [
        {
          "internalType": "contract INSAuction",
          "name": "",
          "type": "address"
        }
      ],
      "stateMutability": "view",
      "type": "function"
    },
    {
      "inputs": [
        {
          "internalType": "address[]",
          "name": "tos",
          "type": "address[]"
        },
        {
          "internalType": "string[]",
          "name": "labels",
          "type": "string[]"
        },
        {
          "internalType": "uint64",
          "name": "duration",
          "type": "uint64"
        }
      ],
      "name": "bulkMint",
      "outputs": [],
      "stateMutability": "nonpayable",
      "type": "function"
    },
    {
      "inputs": [
        {
          "internalType": "string[]",
          "name": "labels",
          "type": "string[]"
        },
        {
          "internalType": "uint256[]",
          "name": "yearlyUSDPrices",
          "type": "uint256[]"
        }
      ],
      "name": "bulkOverrideRenewalFees",
      "outputs": [],
      "stateMutability": "nonpayable",
      "type": "function"
    },
    {
      "inputs": [
        {
          "internalType": "string[]",
          "name": "labels",
          "type": "string[]"
        },
        {
          "internalType": "bool",
          "name": "shouldProtect",
          "type": "bool"
        }
      ],
      "name": "bulkSetProtected",
      "outputs": [],
      "stateMutability": "nonpayable",
      "type": "function"
    },
    {
      "inputs": [],
      "name": "domainPrice",
      "outputs": [
        {
          "internalType": "contract INSDomainPrice",
          "name": "",
          "type": "address"
        }
      ],
      "stateMutability": "view",
      "type": "function"
    },
    {
      "inputs": [],
      "name": "owner",
      "outputs": [
        {
          "internalType": "address",
          "name": "",
          "type": "address"
        }
      ],
      "stateMutability": "view",
      "type": "function"
    },
    {
      "inputs": [
        {
          "internalType": "address[]",
          "name": "tos",
          "type": "address[]"
        },
        {
          "internalType": "string[]",
          "name": "labels",
          "type": "string[]"
        },
        {
          "internalType": "bool",
          "name": "allowFailure",
          "type": "bool"
        }
      ],
      "name": "reclaimUnbiddedNames",
      "outputs": [],
      "stateMutability": "nonpayable",
      "type": "function"
    },
    {
      "inputs": [],
      "name": "renounceOwnership",
      "outputs": [],
      "stateMutability": "nonpayable",
      "type": "function"
    },
    {
      "inputs": [],
      "name": "resolver",
      "outputs": [
        {
          "internalType": "address",
          "name": "",
          "type": "address"
        }
      ],
      "stateMutability": "view",
      "type": "function"
    },
    {
      "inputs": [],
      "name": "rns",
      "outputs": [
        {
          "internalType": "contract INSUnified",
          "name": "",
          "type": "address"
        }
      ],
      "stateMutability": "view",
      "type": "function"
    },
    {
      "inputs": [
        {
          "internalType": "string[]",
          "name": "labels",
          "type": "string[]"
        }
      ],
      "name": "toIds",
      "outputs": [
        {
          "internalType": "uint256[]",
          "name": "ids",
          "type": "uint256[]"
        }
      ],
      "stateMutability": "pure",
      "type": "function"
    },
    {
      "inputs": [
        {
          "internalType": "address",
          "name": "newOwner",
          "type": "address"
        }
      ],
      "name": "transferOwnership",
      "outputs": [],
      "stateMutability": "nonpayable",
      "type": "function"
    }
  ],
  "address": "0xF3CA35D04614c2B74159223C5d268E98C2fDFA39",
  "args": "0x000000000000000000000000f0c99c9677eda0d13291c093b27e6512e4acdf83000000000000000000000000803c459dcb8771e5354d1fc567ecc6885a9fd5e6000000000000000000000000b962edded164f55d136e491a3022246815e1b5a800000000000000000000000051caf51678f469e9dd4c878a7b0cebebbd4a4ab5",
  "blockNumber": 22372603,
  "bytecode": "0x6101006040523480156200001257600080fd5b506040516200122a3803806200122a8339810160408190526200003591620000cd565b620000403362000064565b6001600160a01b0393841660805290831660c05290821660a0521660e05262000135565b600080546001600160a01b038381166001600160a01b0319831681178455604051919092169283917f8be0079c531659141344cd1fd0a4f28419497f9722a3daafe3b4186f6b6457e09190a35050565b6001600160a01b0381168114620000ca57600080fd5b50565b60008060008060808587031215620000e457600080fd5b8451620000f181620000b4565b60208601519094506200010481620000b4565b60408601519093506200011781620000b4565b60608601519092506200012a81620000b4565b939692955090935050565b60805160a05160c05160e051611099620001916000396000818161013d015261062f0152600081816101c6015261021601526000818160be015261039b0152600081816101770152818161032701526106aa01526110996000f3fe608060405234801561001057600080fd5b50600436106100b45760003560e01c8063663b44c511610071578063663b44c514610172578063715018a61461019957806371e8704d146101a15780637d9f6db5146101c15780638da5cb5b146101e8578063f2fde38b146101f957600080fd5b806304f3bcec146100b957806319edebf2146100fd57806338d73f63146101125780634c5e4e81146101255780635c97404a146101385780635ca032941461015f575b600080fd5b6100e07f000000000000000000000000000000000000000000000000000000000000000081565b6040516001600160a01b0390911681526020015b60405180910390f35b61011061010b366004610ad3565b61020c565b005b610110610120366004610b6b565b6102be565b610110610133366004610be0565b610458565b6100e07f000000000000000000000000000000000000000000000000000000000000000081565b61011061016d366004610c4b565b6106a0565b6100e07f000000000000000000000000000000000000000000000000000000000000000081565b610110610736565b6101b46101af366004610ca1565b61074a565b6040516100f49190610d1d565b6100e07f000000000000000000000000000000000000000000000000000000000000000081565b6000546001600160a01b03166100e0565b610110610207366004610d4c565b610851565b6102146108ca565b7f00000000000000000000000000000000000000000000000000000000000000006001600160a01b03166391a3823f868661024f878761074a565b856040518563ffffffff1660e01b815260040161026f9493929190610d67565b6000604051808303816000875af115801561028e573d6000803e3d6000fd5b505050506040513d6000823e601f3d908101601f191682016040526102b69190810190610df1565b505050505050565b6102c66108ca565b81841461031a5760405162461bcd60e51b815260206004820152601d60248201527f524e534f7065726174696f6e3a206c656e677468206d69736d6174636800000060448201526064015b60405180910390fd5b60005b828110156102b6577f00000000000000000000000000000000000000000000000000000000000000006001600160a01b0316630570891f7fba69923fa107dbf5a25a073a10b7c9216ae39fbadc95dc891d460d9ae315d68886868581811061038757610387610eb5565b90506020028101906103999190610ecb565b7f00000000000000000000000000000000000000000000000000000000000000008b8b888181106103cc576103cc610eb5565b90506020020160208101906103e19190610d4c565b886040518763ffffffff1660e01b815260040161040396959493929190610f11565b60408051808303816000875af1158015610421573d6000803e3d6000fd5b505050506040513d601f19601f820116820180604052508101906104459190610f6d565b50508061045190610f9b565b905061031d565b6104606108ca565b8281146104af5760405162461bcd60e51b815260206004820152601d60248201527f524e534f7065726174696f6e3a206c656e677468206d69736d617463680000006044820152606401610311565b6000836001600160401b038111156104c9576104c9610dd0565b6040519080825280602002602001820160405280156104f2578160200160208202803683370190505b50905060005b81518110156105685785858281811061051357610513610eb5565b90506020028101906105259190610ecb565b604051610533929190610fc2565b604051809103902082828151811061054d5761054d610eb5565b602090810291909101015261056181610f9b565b90506104f8565b506000826001600160401b0381111561058357610583610dd0565b6040519080825280602002602001820160405280156105ac578160200160208202803683370190505b50905060005b8151811015610617576105ea8585838181106105d0576105d0610eb5565b90506020020135670de0b6b3a76400006301e13380610924565b8282815181106105fc576105fc610eb5565b602090810291909101015261061081610f9b565b90506105b2565b5060405163dd28776d60e01b81526001600160a01b037f0000000000000000000000000000000000000000000000000000000000000000169063dd28776d906106669085908590600401610fd2565b600060405180830381600087803b15801561068057600080fd5b505af1158015610694573d6000803e3d6000fd5b50505050505050505050565b6106a86108ca565b7f00000000000000000000000000000000000000000000000000000000000000006001600160a01b031663ec63b01f6106e1858561074a565b836040518363ffffffff1660e01b81526004016106ff929190611029565b600060405180830381600087803b15801561071957600080fd5b505af115801561072d573d6000803e3d6000fd5b50505050505050565b61073e6108ca565b6107486000610a14565b565b6060816001600160401b0381111561076457610764610dd0565b60405190808252806020026020018201604052801561078d578160200160208202803683370190505b50905060005b8281101561084a5761081d7fba69923fa107dbf5a25a073a10b7c9216ae39fbadc95dc891d460d9ae315d6888585848181106107d1576107d1610eb5565b90506020028101906107e39190610ecb565b8080601f016020809104026020016040519081016040528093929190818152602001838380828437600092019190915250610a6492505050565b82828151811061082f5761082f610eb5565b602090810291909101015261084381610f9b565b9050610793565b5092915050565b6108596108ca565b6001600160a01b0381166108be5760405162461bcd60e51b815260206004820152602660248201527f4f776e61626c653a206e6577206f776e657220697320746865207a65726f206160448201526564647265737360d01b6064820152608401610311565b6108c781610a14565b50565b6000546001600160a01b031633146107485760405162461bcd60e51b815260206004820181905260248201527f4f776e61626c653a2063616c6c6572206973206e6f7420746865206f776e65726044820152606401610311565b600080806000198587098587029250828110838203039150508060000361095e578382816109545761095461104d565b0492505050610a0d565b8084116109a55760405162461bcd60e51b81526020600482015260156024820152744d6174683a206d756c446976206f766572666c6f7760581b6044820152606401610311565b600084868809851960019081018716968790049682860381900495909211909303600082900391909104909201919091029190911760038402600290811880860282030280860282030280860282030280860282030280860282030280860290910302029150505b9392505050565b600080546001600160a01b038381166001600160a01b0319831681178455604051919092169283917f8be0079c531659141344cd1fd0a4f28419497f9722a3daafe3b4186f6b6457e09190a35050565b6000918252805160209182012090526040902090565b60008083601f840112610a8c57600080fd5b5081356001600160401b03811115610aa357600080fd5b6020830191508360208260051b8501011115610abe57600080fd5b9250929050565b80151581146108c757600080fd5b600080600080600060608688031215610aeb57600080fd5b85356001600160401b0380821115610b0257600080fd5b610b0e89838a01610a7a565b90975095506020880135915080821115610b2757600080fd5b50610b3488828901610a7a565b9094509250506040860135610b4881610ac5565b809150509295509295909350565b6001600160401b03811681146108c757600080fd5b600080600080600060608688031215610b8357600080fd5b85356001600160401b0380821115610b9a57600080fd5b610ba689838a01610a7a565b90975095506020880135915080821115610bbf57600080fd5b50610bcc88828901610a7a565b9094509250506040860135610b4881610b56565b60008060008060408587031215610bf657600080fd5b84356001600160401b0380821115610c0d57600080fd5b610c1988838901610a7a565b90965094506020870135915080821115610c3257600080fd5b50610c3f87828801610a7a565b95989497509550505050565b600080600060408486031215610c6057600080fd5b83356001600160401b03811115610c7657600080fd5b610c8286828701610a7a565b9094509250506020840135610c9681610ac5565b809150509250925092565b60008060208385031215610cb457600080fd5b82356001600160401b03811115610cca57600080fd5b610cd685828601610a7a565b90969095509350505050565b600081518084526020808501945080840160005b83811015610d1257815187529582019590820190600101610cf6565b509495945050505050565b602081526000610a0d6020830184610ce2565b80356001600160a01b0381168114610d4757600080fd5b919050565b600060208284031215610d5e57600080fd5b610a0d82610d30565b6060808252810184905260008560808301825b87811015610da8576001600160a01b03610d9384610d30565b16825260209283019290910190600101610d7a565b508381036020850152610dbb8187610ce2565b92505050821515604083015295945050505050565b634e487b7160e01b600052604160045260246000fd5b8051610d4781610ac5565b60006020808385031215610e0457600080fd5b82516001600160401b0380821115610e1b57600080fd5b818501915085601f830112610e2f57600080fd5b815181811115610e4157610e41610dd0565b8060051b604051601f19603f83011681018181108582111715610e6657610e66610dd0565b604052918252848201925083810185019188831115610e8457600080fd5b938501935b82851015610ea957610e9a85610de6565b84529385019392850192610e89565b98975050505050505050565b634e487b7160e01b600052603260045260246000fd5b6000808335601e19843603018112610ee257600080fd5b8301803591506001600160401b03821115610efc57600080fd5b602001915036819003821315610abe57600080fd5b86815260a060208201528460a0820152848660c0830137600060c08683018101919091526001600160a01b0394851660408301529290931660608401526001600160401b03166080830152601f909201601f1916010192915050565b60008060408385031215610f8057600080fd5b8251610f8b81610b56565b6020939093015192949293505050565b600060018201610fbb57634e487b7160e01b600052601160045260246000fd5b5060010190565b8183823760009101908152919050565b604080825283519082018190526000906020906060840190828701845b8281101561100b57815184529284019290840190600101610fef565b5050508381038285015261101f8186610ce2565b9695505050505050565b60408152600061103c6040830185610ce2565b905082151560208301529392505050565b634e487b7160e01b600052601260045260246000fdfea264697066735822122049e87e8e358e86733ec3bb679c8eefca87a70197ed44ec1efa9c80b7fcfc1b7a64736f6c63430008150033",
  "chainId": 2021,
  "contractName": "RNSOperation",
  "deployer": "0x968D0Cd7343f711216817E617d3f92a23dC91c07",
  "devdoc": {
    "version": 1,
    "kind": "dev",
    "methods": {
      "bulkMint(address[],string[],uint64)": {
        "details": "Allows the owner to mint RNS domains in bulk with specified labels and durations.",
        "params": {
          "duration": "The duration for which the domains will be owned.",
          "labels": "The array of labels for the minted domains.",
          "tos": "The array of addresses to receive the minted domains."
        }
      },
      "bulkOverrideRenewalFees(string[],uint256[])": {
        "details": "Allows the owner to bulk override the renewal fees for specified RNS domains.The `yearlyUSDPrices` array should represent the yearly renewal fees in USD for each domain.",
        "params": {
          "labels": "The array of labels for the RNS domains.",
          "yearlyUSDPrices": "The array of yearly renewal fees in USD (no decimals) for the corresponding RNS domains."
        }
      },
      "bulkSetProtected(string[],bool)": {
        "details": "Allows the owner to set the protection status of multiple RNS domains in bulk.",
        "params": {
          "labels": "The array of labels for the domains.",
          "shouldProtect": "A boolean indicating whether to protect or unprotect the specified domains."
        }
      },
      "owner()": {
        "details": "Returns the address of the current owner."
      },
      "reclaimUnbiddedNames(address[],string[],bool)": {
        "details": "Allows the owner to reclaim unbidded RNS domain names and transfer them to specified addresses.",
        "params": {
          "allowFailure": "Flag to indicate whether to allow failure if a domain is already being bid on.",
          "labels": "The array of labels for the unbidded domains to be reclaimed.",
          "tos": "The array of addresses to which the unbidded domains will be transferred."
        }
      },
      "renounceOwnership()": {
        "details": "Leaves the contract without owner. It will not be possible to call `onlyOwner` functions. Can only be called by the current owner. NOTE: Renouncing ownership will leave the contract without an owner, thereby disabling any functionality that is only available to the owner."
      },
      "toIds(string[])": {
        "details": "Converts an array of labels to an array of corresponding RNS domain IDs.",
        "params": {
          "labels": "The array of labels to be converted to IDs."
        },
        "returns": {
          "ids": "The array of RNS domain IDs."
        }
      },
      "transferOwnership(address)": {
        "details": "Transfers ownership of the contract to a new account (`newOwner`). Can only be called by the current owner."
      }
    }
  },
  "isFoundry": true,
  "nonce": 185294,
  "numDeployments": 3,
  "storageLayout": {
    "storage": [
      {
        "astId": 46382,
        "contract": "src/utils/RNSOperation.sol:RNSOperation",
        "label": "_owner",
        "offset": 0,
        "slot": "0",
        "type": "t_address"
      }
    ],
    "types": {
      "t_address": {
        "encoding": "inplace",
        "label": "address",
        "numberOfBytes": "20"
      }
    }
  },
  "timestamp": 1700817902,
  "userdoc": {
    "version": 1,
    "kind": "user"
  }
}