{
  "abi": [
    {
      "type": "constructor",
      "inputs": [
        {
          "name": "rns_",
          "type": "address",
          "internalType": "contract INSUnified"
        },
        {
          "name": "resolver_",
          "type": "address",
          "internalType": "address"
        },
        {
          "name": "auction_",
          "type": "address",
          "internalType": "contract INSAuction"
        },
        {
          "name": "domainPrice_",
          "type": "address",
          "internalType": "contract INSDomainPrice"
        }
      ],
      "stateMutability": "nonpayable"
    },
    {
      "type": "function",
      "name": "auction",
      "inputs": [],
      "outputs": [
        {
          "name": "",
          "type": "address",
          "internalType": "contract INSAuction"
        }
      ],
      "stateMutability": "view"
    },
    {
      "type": "function",
      "name": "bulkMint",
      "inputs": [
        {
          "name": "tos",
          "type": "address[]",
          "internalType": "address[]"
        },
        {
          "name": "labels",
          "type": "string[]",
          "internalType": "string[]"
        },
        {
          "name": "duration",
          "type": "uint64",
          "internalType": "uint64"
        }
      ],
      "outputs": [],
      "stateMutability": "nonpayable"
    },
    {
      "type": "function",
      "name": "bulkOverrideRenewalFees",
      "inputs": [
        {
          "name": "labels",
          "type": "string[]",
          "internalType": "string[]"
        },
        {
          "name": "yearlyUSDPrices",
          "type": "uint256[]",
          "internalType": "uint256[]"
        }
      ],
      "outputs": [],
      "stateMutability": "nonpayable"
    },
    {
      "type": "function",
      "name": "bulkOverrideTiers",
      "inputs": [
        {
          "name": "labels",
          "type": "string[]",
          "internalType": "string[]"
        },
        {
          "name": "tiers",
          "type": "uint256[]",
          "internalType": "uint256[]"
        }
      ],
      "outputs": [],
      "stateMutability": "nonpayable"
    },
    {
      "type": "function",
      "name": "bulkSetProtected",
      "inputs": [
        {
          "name": "labels",
          "type": "string[]",
          "internalType": "string[]"
        },
        {
          "name": "shouldProtect",
          "type": "bool",
          "internalType": "bool"
        }
      ],
      "outputs": [],
      "stateMutability": "nonpayable"
    },
    {
      "type": "function",
      "name": "domainPrice",
      "inputs": [],
      "outputs": [
        {
          "name": "",
          "type": "address",
          "internalType": "contract INSDomainPrice"
        }
      ],
      "stateMutability": "view"
    },
    {
      "type": "function",
      "name": "owner",
      "inputs": [],
      "outputs": [
        {
          "name": "",
          "type": "address",
          "internalType": "address"
        }
      ],
      "stateMutability": "view"
    },
    {
      "type": "function",
      "name": "reclaimUnbiddedNames",
      "inputs": [
        {
          "name": "tos",
          "type": "address[]",
          "internalType": "address[]"
        },
        {
          "name": "labels",
          "type": "string[]",
          "internalType": "string[]"
        },
        {
          "name": "allowFailure",
          "type": "bool",
          "internalType": "bool"
        }
      ],
      "outputs": [],
      "stateMutability": "nonpayable"
    },
    {
      "type": "function",
      "name": "renounceOwnership",
      "inputs": [],
      "outputs": [],
      "stateMutability": "nonpayable"
    },
    {
      "type": "function",
      "name": "resolver",
      "inputs": [],
      "outputs": [
        {
          "name": "",
          "type": "address",
          "internalType": "address"
        }
      ],
      "stateMutability": "view"
    },
    {
      "type": "function",
      "name": "rns",
      "inputs": [],
      "outputs": [
        {
          "name": "",
          "type": "address",
          "internalType": "contract INSUnified"
        }
      ],
      "stateMutability": "view"
    },
    {
      "type": "function",
      "name": "toIds",
      "inputs": [
        {
          "name": "labels",
          "type": "string[]",
          "internalType": "string[]"
        }
      ],
      "outputs": [
        {
          "name": "ids",
          "type": "uint256[]",
          "internalType": "uint256[]"
        }
      ],
      "stateMutability": "pure"
    },
    {
      "type": "function",
      "name": "transferOwnership",
      "inputs": [
        {
          "name": "newOwner",
          "type": "address",
          "internalType": "address"
        }
      ],
      "outputs": [],
      "stateMutability": "nonpayable"
    },
    {
      "type": "event",
      "name": "OwnershipTransferred",
      "inputs": [
        {
          "name": "previousOwner",
          "type": "address",
          "indexed": true,
          "internalType": "address"
        },
        {
          "name": "newOwner",
          "type": "address",
          "indexed": true,
          "internalType": "address"
        }
      ],
      "anonymous": false
    }
  ],
  "address": "0x764b68cb5ccc6605729C9eEA8B7bCb72C32ef55d",
  "args": "0x000000000000000000000000f0c99c9677eda0d13291c093b27e6512e4acdf83000000000000000000000000803c459dcb8771e5354d1fc567ecc6885a9fd5e6000000000000000000000000b962edded164f55d136e491a3022246815e1b5a800000000000000000000000051caf51678f469e9dd4c878a7b0cebebbd4a4ab5",
  "blockNumber": 24932278,
  "bytecode": "0x6101006040523480156200001257600080fd5b50604051620013c2380380620013c28339810160408190526200003591620000cd565b620000403362000064565b6001600160a01b0393841660805290831660c05290821660a0521660e05262000135565b600080546001600160a01b038381166001600160a01b0319831681178455604051919092169283917f8be0079c531659141344cd1fd0a4f28419497f9722a3daafe3b4186f6b6457e09190a35050565b6001600160a01b0381168114620000ca57600080fd5b50565b60008060008060808587031215620000e457600080fd5b8451620000f181620000b4565b60208601519094506200010481620000b4565b60408601519093506200011781620000b4565b60608601519092506200012a81620000b4565b939692955090935050565b60805160a05160c05160e05161122a620001986000396000818161016b01528181610362015261076d0152600081816101f401526103de01526000818160ee015261052e0152600081816101a5015281816104ba01526107e8015261122a6000f3fe608060405234801561001057600080fd5b50600436106100cf5760003560e01c80635ca032941161008c57806371e8704d1161006657806371e8704d146101cf5780637d9f6db5146101ef5780638da5cb5b14610216578063f2fde38b1461022757600080fd5b80635ca032941461018d578063663b44c5146101a0578063715018a6146101c757600080fd5b8063019a87dd146100d457806304f3bcec146100e957806319edebf21461012d57806338d73f63146101405780634c5e4e81146101535780635c97404a14610166575b600080fd5b6100e76100e2366004610c0e565b61023a565b005b6101107f000000000000000000000000000000000000000000000000000000000000000081565b6040516001600160a01b0390911681526020015b60405180910390f35b6100e761013b366004610c87565b6103d4565b6100e761014e366004610d1f565b610486565b6100e7610161366004610c0e565b6105eb565b6101107f000000000000000000000000000000000000000000000000000000000000000081565b6100e761019b366004610d94565b6107de565b6101107f000000000000000000000000000000000000000000000000000000000000000081565b6100e7610874565b6101e26101dd366004610dea565b610888565b6040516101249190610e66565b6101107f000000000000000000000000000000000000000000000000000000000000000081565b6000546001600160a01b0316610110565b6100e7610235366004610e95565b61098f565b610242610a08565b82811461026a5760405162461bcd60e51b815260040161026190610eb0565b60405180910390fd5b6000836001600160401b0381111561028457610284610ee7565b6040519080825280602002602001820160405280156102ad578160200160208202803683370190505b50905060005b815181101561034a5761031d8686838181106102d1576102d1610efd565b90506020028101906102e39190610f13565b8080601f016020809104026020016040519081016040528093929190818152602001838380828437600092019190915250610a6292505050565b82828151811061032f5761032f610efd565b602090810291909101015261034381610f59565b90506102b3565b5060405163cff8372f60e01b81526001600160a01b037f0000000000000000000000000000000000000000000000000000000000000000169063cff8372f9061039b90849087908790600401610f80565b600060405180830381600087803b1580156103b557600080fd5b505af11580156103c9573d6000803e3d6000fd5b505050505050505050565b6103dc610a08565b7f00000000000000000000000000000000000000000000000000000000000000006001600160a01b03166391a3823f86866104178787610888565b856040518563ffffffff1660e01b81526004016104379493929190610fca565b6000604051808303816000875af1158015610456573d6000803e3d6000fd5b505050506040513d6000823e601f3d908101601f1916820160405261047e919081019061103e565b505050505050565b61048e610a08565b8184146104ad5760405162461bcd60e51b815260040161026190610eb0565b60005b8281101561047e577f00000000000000000000000000000000000000000000000000000000000000006001600160a01b0316630570891f7fba69923fa107dbf5a25a073a10b7c9216ae39fbadc95dc891d460d9ae315d68886868581811061051a5761051a610efd565b905060200281019061052c9190610f13565b7f00000000000000000000000000000000000000000000000000000000000000008b8b8881811061055f5761055f610efd565b90506020020160208101906105749190610e95565b886040518763ffffffff1660e01b815260040161059696959493929190611102565b60408051808303816000875af11580156105b4573d6000803e3d6000fd5b505050506040513d601f19601f820116820180604052508101906105d8919061115e565b5050806105e490610f59565b90506104b0565b6105f3610a08565b8281146106125760405162461bcd60e51b815260040161026190610eb0565b6000836001600160401b0381111561062c5761062c610ee7565b604051908082528060200260200182016040528015610655578160200160208202803683370190505b50905060005b81518110156106a6576106798686838181106102d1576102d1610efd565b82828151811061068b5761068b610efd565b602090810291909101015261069f81610f59565b905061065b565b506000826001600160401b038111156106c1576106c1610ee7565b6040519080825280602002602001820160405280156106ea578160200160208202803683370190505b50905060005b81518110156107555761072885858381811061070e5761070e610efd565b90506020020135670de0b6b3a76400006301e13380610a6d565b82828151811061073a5761073a610efd565b602090810291909101015261074e81610f59565b90506106f0565b5060405163dd28776d60e01b81526001600160a01b037f0000000000000000000000000000000000000000000000000000000000000000169063dd28776d906107a4908590859060040161118c565b600060405180830381600087803b1580156107be57600080fd5b505af11580156107d2573d6000803e3d6000fd5b50505050505050505050565b6107e6610a08565b7f00000000000000000000000000000000000000000000000000000000000000006001600160a01b031663ec63b01f61081f8585610888565b836040518363ffffffff1660e01b815260040161083d9291906111ba565b600060405180830381600087803b15801561085757600080fd5b505af115801561086b573d6000803e3d6000fd5b50505050505050565b61087c610a08565b6108866000610b5d565b565b6060816001600160401b038111156108a2576108a2610ee7565b6040519080825280602002602001820160405280156108cb578160200160208202803683370190505b50905060005b828110156109885761095b7fba69923fa107dbf5a25a073a10b7c9216ae39fbadc95dc891d460d9ae315d68885858481811061090f5761090f610efd565b90506020028101906109219190610f13565b8080601f016020809104026020016040519081016040528093929190818152602001838380828437600092019190915250610bad92505050565b82828151811061096d5761096d610efd565b602090810291909101015261098181610f59565b90506108d1565b5092915050565b610997610a08565b6001600160a01b0381166109fc5760405162461bcd60e51b815260206004820152602660248201527f4f776e61626c653a206e6577206f776e657220697320746865207a65726f206160448201526564647265737360d01b6064820152608401610261565b610a0581610b5d565b50565b6000546001600160a01b031633146108865760405162461bcd60e51b815260206004820181905260248201527f4f776e61626c653a2063616c6c6572206973206e6f7420746865206f776e65726044820152606401610261565b805160209091012090565b6000808060001985870985870292508281108382030391505080600003610aa757838281610a9d57610a9d6111de565b0492505050610b56565b808411610aee5760405162461bcd60e51b81526020600482015260156024820152744d6174683a206d756c446976206f766572666c6f7760581b6044820152606401610261565b600084868809851960019081018716968790049682860381900495909211909303600082900391909104909201919091029190911760038402600290811880860282030280860282030280860282030280860282030280860282030280860290910302029150505b9392505050565b600080546001600160a01b038381166001600160a01b0319831681178455604051919092169283917f8be0079c531659141344cd1fd0a4f28419497f9722a3daafe3b4186f6b6457e09190a35050565b6000918252805160209182012090526040902090565b60008083601f840112610bd557600080fd5b5081356001600160401b03811115610bec57600080fd5b6020830191508360208260051b8501011115610c0757600080fd5b9250929050565b60008060008060408587031215610c2457600080fd5b84356001600160401b0380821115610c3b57600080fd5b610c4788838901610bc3565b90965094506020870135915080821115610c6057600080fd5b50610c6d87828801610bc3565b95989497509550505050565b8015158114610a0557600080fd5b600080600080600060608688031215610c9f57600080fd5b85356001600160401b0380821115610cb657600080fd5b610cc289838a01610bc3565b90975095506020880135915080821115610cdb57600080fd5b50610ce888828901610bc3565b9094509250506040860135610cfc81610c79565b809150509295509295909350565b6001600160401b0381168114610a0557600080fd5b600080600080600060608688031215610d3757600080fd5b85356001600160401b0380821115610d4e57600080fd5b610d5a89838a01610bc3565b90975095506020880135915080821115610d7357600080fd5b50610d8088828901610bc3565b9094509250506040860135610cfc81610d0a565b600080600060408486031215610da957600080fd5b83356001600160401b03811115610dbf57600080fd5b610dcb86828701610bc3565b9094509250506020840135610ddf81610c79565b809150509250925092565b60008060208385031215610dfd57600080fd5b82356001600160401b03811115610e1357600080fd5b610e1f85828601610bc3565b90969095509350505050565b600081518084526020808501945080840160005b83811015610e5b57815187529582019590820190600101610e3f565b509495945050505050565b602081526000610b566020830184610e2b565b80356001600160a01b0381168114610e9057600080fd5b919050565b600060208284031215610ea757600080fd5b610b5682610e79565b6020808252601d908201527f524e534f7065726174696f6e3a206c656e677468206d69736d61746368000000604082015260600190565b634e487b7160e01b600052604160045260246000fd5b634e487b7160e01b600052603260045260246000fd5b6000808335601e19843603018112610f2a57600080fd5b8301803591506001600160401b03821115610f4457600080fd5b602001915036819003821315610c0757600080fd5b600060018201610f7957634e487b7160e01b600052601160045260246000fd5b5060010190565b604081526000610f936040830186610e2b565b82810360208401528381526001600160fb1b03841115610fb257600080fd5b8360051b808660208401370160200195945050505050565b6060808252810184905260008560808301825b8781101561100b576001600160a01b03610ff684610e79565b16825260209283019290910190600101610fdd565b50838103602085015261101e8187610e2b565b92505050821515604083015295945050505050565b8051610e9081610c79565b6000602080838503121561105157600080fd5b82516001600160401b038082111561106857600080fd5b818501915085601f83011261107c57600080fd5b81518181111561108e5761108e610ee7565b8060051b604051601f19603f830116810181811085821117156110b3576110b3610ee7565b6040529182528482019250838101850191888311156110d157600080fd5b938501935b828510156110f6576110e785611033565b845293850193928501926110d6565b98975050505050505050565b86815260a060208201528460a0820152848660c0830137600060c08683018101919091526001600160a01b0394851660408301529290931660608401526001600160401b03166080830152601f909201601f1916010192915050565b6000806040838503121561117157600080fd5b825161117c81610d0a565b6020939093015192949293505050565b60408152600061119f6040830185610e2b565b82810360208401526111b18185610e2b565b95945050505050565b6040815260006111cd6040830185610e2b565b905082151560208301529392505050565b634e487b7160e01b600052601260045260246000fdfea2646970667358221220e75fce191e0239019d563ff07f621b97b928d249515b038941453dab790a7c8464736f6c63430008150033",
  "chainId": 2021,
  "contractAbsolutePath": "RNSOperation.sol",
  "deployer": "0x968D0Cd7343f711216817E617d3f92a23dC91c07",
  "devdoc": {
    "version": 1,
    "kind": "dev",
    "methods": {
      "bulkMint(address[],string[],uint64)": {
        "details": "Allows the owner to mint RNS domains in bulk with specified labels and durations.",
        "params": {
          "duration": "The duration for which the domains will be owned.",
          "labels": "The array of labels for the minted domains.",
          "tos": "The array of addresses to receive the minted domains."
        }
      },
      "bulkOverrideRenewalFees(string[],uint256[])": {
        "details": "Allows the owner to bulk override the renewal fees for specified RNS domains.The `yearlyUSDPrices` array should represent the yearly renewal fees in USD for each domain.",
        "params": {
          "labels": "The array of labels for the RNS domains.",
          "yearlyUSDPrices": "The array of yearly renewal fees in USD (no decimals) for the corresponding RNS domains."
        }
      },
      "bulkOverrideTiers(string[],uint256[])": {
        "details": "Allows the owner to bulk override the tiers for specified RNS domains.The `tiers` array should represent the tiers for each domain.",
        "params": {
          "labels": "The array of labels for the RNS domains.",
          "tiers": "The array of tiers for the corresponding RNS domains."
        }
      },
      "bulkSetProtected(string[],bool)": {
        "details": "Allows the owner to set the protection status of multiple RNS domains in bulk.",
        "params": {
          "labels": "The array of labels for the domains.",
          "shouldProtect": "A boolean indicating whether to protect or unprotect the specified domains."
        }
      },
      "owner()": {
        "details": "Returns the address of the current owner."
      },
      "reclaimUnbiddedNames(address[],string[],bool)": {
        "details": "Allows the owner to reclaim unbidded RNS domain names and transfer them to specified addresses.",
        "params": {
          "allowFailure": "Flag to indicate whether to allow failure if a domain is already being bid on.",
          "labels": "The array of labels for the unbidded domains to be reclaimed.",
          "tos": "The array of addresses to which the unbidded domains will be transferred."
        }
      },
      "renounceOwnership()": {
        "details": "Leaves the contract without owner. It will not be possible to call `onlyOwner` functions. Can only be called by the current owner. NOTE: Renouncing ownership will leave the contract without an owner, thereby disabling any functionality that is only available to the owner."
      },
      "toIds(string[])": {
        "details": "Converts an array of labels to an array of corresponding RNS domain IDs.",
        "params": {
          "labels": "The array of labels to be converted to IDs."
        },
        "returns": {
          "ids": "The array of RNS domain IDs."
        }
      },
      "transferOwnership(address)": {
        "details": "Transfers ownership of the contract to a new account (`newOwner`). Can only be called by the current owner."
      }
    }
  },
  "isFoundry": true,
  "nonce": 190767,
  "numDeployments": 4,
  "storageLayout": {
    "storage": [
      {
        "astId": 46382,
        "contract": "src/utils/RNSOperation.sol:RNSOperation",
        "label": "_owner",
        "offset": 0,
        "slot": "0",
        "type": "t_address"
      }
    ],
    "types": {
      "t_address": {
        "encoding": "inplace",
        "label": "address",
        "numberOfBytes": "20"
      }
    }
  },
  "timestamp": 1708499768,
  "userdoc": {
    "version": 1,
    "kind": "user"
  }
}