{
  "abi": [
    {
      "inputs": [],
      "stateMutability": "payable",
      "type": "constructor"
    },
    {
      "inputs": [],
      "name": "CannotSetImmutableField",
      "type": "error"
    },
    {
      "inputs": [],
      "name": "ExceedParentExpiry",
      "type": "error"
    },
    {
      "inputs": [],
      "name": "Expired",
      "type": "error"
    },
    {
      "inputs": [],
      "name": "ExpiryTimeMustBeLargerThanTheOldOne",
      "type": "error"
    },
    {
      "inputs": [],
      "name": "MissingControllerRole",
      "type": "error"
    },
    {
      "inputs": [],
      "name": "MissingProtectedSettlerRole",
      "type": "error"
    },
    {
      "inputs": [],
      "name": "NameMustBeRegisteredOrInGracePeriod",
      "type": "error"
    },
    {
      "inputs": [],
      "name": "ThirdLevelDomainUnallowed",
      "type": "error"
    },
    {
      "inputs": [],
      "name": "Unauthorized",
      "type": "error"
    },
    {
      "inputs": [],
      "name": "Unavailable",
      "type": "error"
    },
    {
      "inputs": [],
      "name": "Unexists",
      "type": "error"
    },
    {
      "anonymous": false,
      "inputs": [
        {
          "indexed": true,
          "internalType": "address",
          "name": "owner",
          "type": "address"
        },
        {
          "indexed": true,
          "internalType": "address",
          "name": "approved",
          "type": "address"
        },
        {
          "indexed": true,
          "internalType": "uint256",
          "name": "tokenId",
          "type": "uint256"
        }
      ],
      "name": "Approval",
      "type": "event"
    },
    {
      "anonymous": false,
      "inputs": [
        {
          "indexed": true,
          "internalType": "address",
          "name": "owner",
          "type": "address"
        },
        {
          "indexed": true,
          "internalType": "address",
          "name": "operator",
          "type": "address"
        },
        {
          "indexed": false,
          "internalType": "bool",
          "name": "approved",
          "type": "bool"
        }
      ],
      "name": "ApprovalForAll",
      "type": "event"
    },
    {
      "anonymous": false,
      "inputs": [
        {
          "indexed": true,
          "internalType": "address",
          "name": "operator",
          "type": "address"
        },
        {
          "indexed": false,
          "internalType": "string",
          "name": "newURI",
          "type": "string"
        }
      ],
      "name": "BaseURIUpdated",
      "type": "event"
    },
    {
      "anonymous": false,
      "inputs": [
        {
          "indexed": true,
          "internalType": "address",
          "name": "operator",
          "type": "address"
        },
        {
          "indexed": false,
          "internalType": "uint64",
          "name": "newGracePeriod",
          "type": "uint64"
        }
      ],
      "name": "GracePeriodUpdated",
      "type": "event"
    },
    {
      "anonymous": false,
      "inputs": [
        {
          "indexed": false,
          "internalType": "uint8",
          "name": "version",
          "type": "uint8"
        }
      ],
      "name": "Initialized",
      "type": "event"
    },
    {
      "anonymous": false,
      "inputs": [
        {
          "indexed": true,
          "internalType": "uint256",
          "name": "_tokenId",
          "type": "uint256"
        },
        {
          "indexed": true,
          "internalType": "uint256",
          "name": "_nonce",
          "type": "uint256"
        }
      ],
      "name": "NonceUpdated",
      "type": "event"
    },
    {
      "anonymous": false,
      "inputs": [
        {
          "indexed": false,
          "internalType": "address",
          "name": "account",
          "type": "address"
        }
      ],
      "name": "Paused",
      "type": "event"
    },
    {
      "anonymous": false,
      "inputs": [
        {
          "indexed": true,
          "internalType": "uint256",
          "name": "node",
          "type": "uint256"
        },
        {
          "indexed": false,
          "internalType": "ModifyingIndicator",
          "name": "indicator",
          "type": "uint256"
        },
        {
          "components": [
            {
              "components": [
                {
                  "internalType": "uint8",
                  "name": "depth",
                  "type": "uint8"
                },
                {
                  "internalType": "uint256",
                  "name": "parentId",
                  "type": "uint256"
                },
                {
                  "internalType": "string",
                  "name": "label",
                  "type": "string"
                }
              ],
              "internalType": "struct INSUnified.ImmutableRecord",
              "name": "immut",
              "type": "tuple"
            },
            {
              "components": [
                {
                  "internalType": "address",
                  "name": "resolver",
                  "type": "address"
                },
                {
                  "internalType": "address",
                  "name": "owner",
                  "type": "address"
                },
                {
                  "internalType": "uint64",
                  "name": "expiry",
                  "type": "uint64"
                },
                {
                  "internalType": "bool",
                  "name": "protected",
                  "type": "bool"
                }
              ],
              "internalType": "struct INSUnified.MutableRecord",
              "name": "mut",
              "type": "tuple"
            }
          ],
          "indexed": false,
          "internalType": "struct INSUnified.Record",
          "name": "record",
          "type": "tuple"
        }
      ],
      "name": "RecordUpdated",
      "type": "event"
    },
    {
      "anonymous": false,
      "inputs": [
        {
          "indexed": true,
          "internalType": "bytes32",
          "name": "role",
          "type": "bytes32"
        },
        {
          "indexed": true,
          "internalType": "bytes32",
          "name": "previousAdminRole",
          "type": "bytes32"
        },
        {
          "indexed": true,
          "internalType": "bytes32",
          "name": "newAdminRole",
          "type": "bytes32"
        }
      ],
      "name": "RoleAdminChanged",
      "type": "event"
    },
    {
      "anonymous": false,
      "inputs": [
        {
          "indexed": true,
          "internalType": "bytes32",
          "name": "role",
          "type": "bytes32"
        },
        {
          "indexed": true,
          "internalType": "address",
          "name": "account",
          "type": "address"
        },
        {
          "indexed": true,
          "internalType": "address",
          "name": "sender",
          "type": "address"
        }
      ],
      "name": "RoleGranted",
      "type": "event"
    },
    {
      "anonymous": false,
      "inputs": [
        {
          "indexed": true,
          "internalType": "bytes32",
          "name": "role",
          "type": "bytes32"
        },
        {
          "indexed": true,
          "internalType": "address",
          "name": "account",
          "type": "address"
        },
        {
          "indexed": true,
          "internalType": "address",
          "name": "sender",
          "type": "address"
        }
      ],
      "name": "RoleRevoked",
      "type": "event"
    },
    {
      "anonymous": false,
      "inputs": [
        {
          "indexed": true,
          "internalType": "address",
          "name": "from",
          "type": "address"
        },
        {
          "indexed": true,
          "internalType": "address",
          "name": "to",
          "type": "address"
        },
        {
          "indexed": true,
          "internalType": "uint256",
          "name": "tokenId",
          "type": "uint256"
        }
      ],
      "name": "Transfer",
      "type": "event"
    },
    {
      "anonymous": false,
      "inputs": [
        {
          "indexed": false,
          "internalType": "address",
          "name": "account",
          "type": "address"
        }
      ],
      "name": "Unpaused",
      "type": "event"
    },
    {
      "inputs": [],
      "name": "CONTROLLER_ROLE",
      "outputs": [
        {
          "internalType": "bytes32",
          "name": "",
          "type": "bytes32"
        }
      ],
      "stateMutability": "view",
      "type": "function"
    },
    {
      "inputs": [],
      "name": "DEFAULT_ADMIN_ROLE",
      "outputs": [
        {
          "internalType": "bytes32",
          "name": "",
          "type": "bytes32"
        }
      ],
      "stateMutability": "view",
      "type": "function"
    },
    {
      "inputs": [],
      "name": "MAX_EXPIRY",
      "outputs": [
        {
          "internalType": "uint64",
          "name": "",
          "type": "uint64"
        }
      ],
      "stateMutability": "view",
      "type": "function"
    },
    {
      "inputs": [],
      "name": "PAUSER_ROLE",
      "outputs": [
        {
          "internalType": "bytes32",
          "name": "",
          "type": "bytes32"
        }
      ],
      "stateMutability": "view",
      "type": "function"
    },
    {
      "inputs": [],
      "name": "PROTECTED_SETTLER_ROLE",
      "outputs": [
        {
          "internalType": "bytes32",
          "name": "",
          "type": "bytes32"
        }
      ],
      "stateMutability": "view",
      "type": "function"
    },
    {
      "inputs": [],
      "name": "RESERVATION_ROLE",
      "outputs": [
        {
          "internalType": "bytes32",
          "name": "",
          "type": "bytes32"
        }
      ],
      "stateMutability": "view",
      "type": "function"
    },
    {
      "inputs": [
        {
          "internalType": "address",
          "name": "to",
          "type": "address"
        },
        {
          "internalType": "uint256",
          "name": "tokenId",
          "type": "uint256"
        }
      ],
      "name": "approve",
      "outputs": [],
      "stateMutability": "nonpayable",
      "type": "function"
    },
    {
      "inputs": [
        {
          "internalType": "uint256",
          "name": "id",
          "type": "uint256"
        }
      ],
      "name": "available",
      "outputs": [
        {
          "internalType": "bool",
          "name": "",
          "type": "bool"
        }
      ],
      "stateMutability": "view",
      "type": "function"
    },
    {
      "inputs": [
        {
          "internalType": "address",
          "name": "owner",
          "type": "address"
        }
      ],
      "name": "balanceOf",
      "outputs": [
        {
          "internalType": "uint256",
          "name": "",
          "type": "uint256"
        }
      ],
      "stateMutability": "view",
      "type": "function"
    },
    {
      "inputs": [
        {
          "internalType": "uint256[]",
          "name": "ids",
          "type": "uint256[]"
        },
        {
          "internalType": "bool",
          "name": "protected",
          "type": "bool"
        }
      ],
      "name": "bulkSetProtected",
      "outputs": [],
      "stateMutability": "nonpayable",
      "type": "function"
    },
    {
      "inputs": [
        {
          "internalType": "uint256",
          "name": "tokenId",
          "type": "uint256"
        }
      ],
      "name": "burn",
      "outputs": [],
      "stateMutability": "nonpayable",
      "type": "function"
    },
    {
      "inputs": [
        {
          "internalType": "address",
          "name": "requester",
          "type": "address"
        },
        {
          "internalType": "uint256",
          "name": "id",
          "type": "uint256"
        },
        {
          "internalType": "ModifyingIndicator",
          "name": "indicator",
          "type": "uint256"
        }
      ],
      "name": "canSetRecord",
      "outputs": [
        {
          "internalType": "bool",
          "name": "allowed",
          "type": "bool"
        },
        {
          "internalType": "bytes4",
          "name": "",
          "type": "bytes4"
        }
      ],
      "stateMutability": "view",
      "type": "function"
    },
    {
      "inputs": [
        {
          "internalType": "uint256",
          "name": "tokenId",
          "type": "uint256"
        }
      ],
      "name": "getApproved",
      "outputs": [
        {
          "internalType": "address",
          "name": "",
          "type": "address"
        }
      ],
      "stateMutability": "view",
      "type": "function"
    },
    {
      "inputs": [
        {
          "internalType": "uint256",
          "name": "id",
          "type": "uint256"
        }
      ],
      "name": "getDomain",
      "outputs": [
        {
          "internalType": "string",
          "name": "domain",
          "type": "string"
        }
      ],
      "stateMutability": "view",
      "type": "function"
    },
    {
      "inputs": [],
      "name": "getGracePeriod",
      "outputs": [
        {
          "internalType": "uint64",
          "name": "",
          "type": "uint64"
        }
      ],
      "stateMutability": "view",
      "type": "function"
    },
    {
      "inputs": [
        {
          "internalType": "uint256",
          "name": "id",
          "type": "uint256"
        }
      ],
      "name": "getRecord",
      "outputs": [
        {
          "components": [
            {
              "components": [
                {
                  "internalType": "uint8",
                  "name": "depth",
                  "type": "uint8"
                },
                {
                  "internalType": "uint256",
                  "name": "parentId",
                  "type": "uint256"
                },
                {
                  "internalType": "string",
                  "name": "label",
                  "type": "string"
                }
              ],
              "internalType": "struct INSUnified.ImmutableRecord",
              "name": "immut",
              "type": "tuple"
            },
            {
              "components": [
                {
                  "internalType": "address",
                  "name": "resolver",
                  "type": "address"
                },
                {
                  "internalType": "address",
                  "name": "owner",
                  "type": "address"
                },
                {
                  "internalType": "uint64",
                  "name": "expiry",
                  "type": "uint64"
                },
                {
                  "internalType": "bool",
                  "name": "protected",
                  "type": "bool"
                }
              ],
              "internalType": "struct INSUnified.MutableRecord",
              "name": "mut",
              "type": "tuple"
            }
          ],
          "internalType": "struct INSUnified.Record",
          "name": "record",
          "type": "tuple"
        }
      ],
      "stateMutability": "view",
      "type": "function"
    },
    {
      "inputs": [
        {
          "internalType": "bytes32",
          "name": "role",
          "type": "bytes32"
        }
      ],
      "name": "getRoleAdmin",
      "outputs": [
        {
          "internalType": "bytes32",
          "name": "",
          "type": "bytes32"
        }
      ],
      "stateMutability": "view",
      "type": "function"
    },
    {
      "inputs": [
        {
          "internalType": "bytes32",
          "name": "role",
          "type": "bytes32"
        },
        {
          "internalType": "uint256",
          "name": "index",
          "type": "uint256"
        }
      ],
      "name": "getRoleMember",
      "outputs": [
        {
          "internalType": "address",
          "name": "",
          "type": "address"
        }
      ],
      "stateMutability": "view",
      "type": "function"
    },
    {
      "inputs": [
        {
          "internalType": "bytes32",
          "name": "role",
          "type": "bytes32"
        }
      ],
      "name": "getRoleMemberCount",
      "outputs": [
        {
          "internalType": "uint256",
          "name": "",
          "type": "uint256"
        }
      ],
      "stateMutability": "view",
      "type": "function"
    },
    {
      "inputs": [
        {
          "internalType": "bytes32",
          "name": "role",
          "type": "bytes32"
        },
        {
          "internalType": "address",
          "name": "account",
          "type": "address"
        }
      ],
      "name": "grantRole",
      "outputs": [],
      "stateMutability": "nonpayable",
      "type": "function"
    },
    {
      "inputs": [
        {
          "internalType": "bytes32",
          "name": "role",
          "type": "bytes32"
        },
        {
          "internalType": "address",
          "name": "account",
          "type": "address"
        }
      ],
      "name": "hasRole",
      "outputs": [
        {
          "internalType": "bool",
          "name": "",
          "type": "bool"
        }
      ],
      "stateMutability": "view",
      "type": "function"
    },
    {
      "inputs": [
        {
          "internalType": "address",
          "name": "admin",
          "type": "address"
        },
        {
          "internalType": "address",
          "name": "pauser",
          "type": "address"
        },
        {
          "internalType": "address",
          "name": "controller",
          "type": "address"
        },
        {
          "internalType": "address",
          "name": "protectedSettler",
          "type": "address"
        },
        {
          "internalType": "uint64",
          "name": "gracePeriod",
          "type": "uint64"
        },
        {
          "internalType": "string",
          "name": "baseTokenURI",
          "type": "string"
        }
      ],
      "name": "initialize",
      "outputs": [],
      "stateMutability": "nonpayable",
      "type": "function"
    },
    {
      "inputs": [
        {
          "internalType": "address",
          "name": "owner",
          "type": "address"
        },
        {
          "internalType": "address",
          "name": "operator",
          "type": "address"
        }
      ],
      "name": "isApprovedForAll",
      "outputs": [
        {
          "internalType": "bool",
          "name": "",
          "type": "bool"
        }
      ],
      "stateMutability": "view",
      "type": "function"
    },
    {
      "inputs": [
        {
          "internalType": "uint256",
          "name": "parentId",
          "type": "uint256"
        },
        {
          "internalType": "string",
          "name": "label",
          "type": "string"
        },
        {
          "internalType": "address",
          "name": "resolver",
          "type": "address"
        },
        {
          "internalType": "address",
          "name": "owner",
          "type": "address"
        },
        {
          "internalType": "uint64",
          "name": "duration",
          "type": "uint64"
        }
      ],
      "name": "mint",
      "outputs": [
        {
          "internalType": "uint64",
          "name": "expiryTime",
          "type": "uint64"
        },
        {
          "internalType": "uint256",
          "name": "id",
          "type": "uint256"
        }
      ],
      "stateMutability": "nonpayable",
      "type": "function"
    },
    {
      "inputs": [],
      "name": "name",
      "outputs": [
        {
          "internalType": "string",
          "name": "",
          "type": "string"
        }
      ],
      "stateMutability": "view",
      "type": "function"
    },
    {
      "inputs": [
        {
          "internalType": "string",
          "name": "str",
          "type": "string"
        }
      ],
      "name": "namehash",
      "outputs": [
        {
          "internalType": "bytes32",
          "name": "hashed",
          "type": "bytes32"
        }
      ],
      "stateMutability": "pure",
      "type": "function"
    },
    {
      "inputs": [
        {
          "internalType": "uint256",
          "name": "",
          "type": "uint256"
        }
      ],
      "name": "nonces",
      "outputs": [
        {
          "internalType": "uint256",
          "name": "",
          "type": "uint256"
        }
      ],
      "stateMutability": "view",
      "type": "function"
    },
    {
      "inputs": [
        {
          "internalType": "uint256",
          "name": "tokenId",
          "type": "uint256"
        }
      ],
      "name": "ownerOf",
      "outputs": [
        {
          "internalType": "address",
          "name": "",
          "type": "address"
        }
      ],
      "stateMutability": "view",
      "type": "function"
    },
    {
      "inputs": [],
      "name": "pause",
      "outputs": [],
      "stateMutability": "nonpayable",
      "type": "function"
    },
    {
      "inputs": [],
      "name": "paused",
      "outputs": [
        {
          "internalType": "bool",
          "name": "",
          "type": "bool"
        }
      ],
      "stateMutability": "view",
      "type": "function"
    },
    {
      "inputs": [
        {
          "internalType": "uint256",
          "name": "id",
          "type": "uint256"
        },
        {
          "internalType": "address",
          "name": "owner",
          "type": "address"
        }
      ],
      "name": "reclaim",
      "outputs": [],
      "stateMutability": "nonpayable",
      "type": "function"
    },
    {
      "inputs": [
        {
          "internalType": "uint256",
          "name": "id",
          "type": "uint256"
        },
        {
          "internalType": "uint64",
          "name": "duration",
          "type": "uint64"
        }
      ],
      "name": "renew",
      "outputs": [
        {
          "internalType": "uint64",
          "name": "expiry",
          "type": "uint64"
        }
      ],
      "stateMutability": "nonpayable",
      "type": "function"
    },
    {
      "inputs": [
        {
          "internalType": "bytes32",
          "name": "role",
          "type": "bytes32"
        },
        {
          "internalType": "address",
          "name": "account",
          "type": "address"
        }
      ],
      "name": "renounceRole",
      "outputs": [],
      "stateMutability": "nonpayable",
      "type": "function"
    },
    {
      "inputs": [
        {
          "internalType": "bytes32",
          "name": "role",
          "type": "bytes32"
        },
        {
          "internalType": "address",
          "name": "account",
          "type": "address"
        }
      ],
      "name": "revokeRole",
      "outputs": [],
      "stateMutability": "nonpayable",
      "type": "function"
    },
    {
      "inputs": [
        {
          "internalType": "address",
          "name": "from",
          "type": "address"
        },
        {
          "internalType": "address",
          "name": "to",
          "type": "address"
        },
        {
          "internalType": "uint256",
          "name": "tokenId",
          "type": "uint256"
        }
      ],
      "name": "safeTransferFrom",
      "outputs": [],
      "stateMutability": "nonpayable",
      "type": "function"
    },
    {
      "inputs": [
        {
          "internalType": "address",
          "name": "from",
          "type": "address"
        },
        {
          "internalType": "address",
          "name": "to",
          "type": "address"
        },
        {
          "internalType": "uint256",
          "name": "tokenId",
          "type": "uint256"
        },
        {
          "internalType": "bytes",
          "name": "data",
          "type": "bytes"
        }
      ],
      "name": "safeTransferFrom",
      "outputs": [],
      "stateMutability": "nonpayable",
      "type": "function"
    },
    {
      "inputs": [
        {
          "internalType": "address",
          "name": "operator",
          "type": "address"
        },
        {
          "internalType": "bool",
          "name": "approved",
          "type": "bool"
        }
      ],
      "name": "setApprovalForAll",
      "outputs": [],
      "stateMutability": "nonpayable",
      "type": "function"
    },
    {
      "inputs": [
        {
          "internalType": "string",
          "name": "baseTokenURI",
          "type": "string"
        }
      ],
      "name": "setBaseURI",
      "outputs": [],
      "stateMutability": "nonpayable",
      "type": "function"
    },
    {
      "inputs": [
        {
          "internalType": "uint256",
          "name": "id",
          "type": "uint256"
        },
        {
          "internalType": "uint64",
          "name": "expiry",
          "type": "uint64"
        }
      ],
      "name": "setExpiry",
      "outputs": [],
      "stateMutability": "nonpayable",
      "type": "function"
    },
    {
      "inputs": [
        {
          "internalType": "uint64",
          "name": "gracePeriod",
          "type": "uint64"
        }
      ],
      "name": "setGracePeriod",
      "outputs": [],
      "stateMutability": "nonpayable",
      "type": "function"
    },
    {
      "inputs": [
        {
          "internalType": "uint256",
          "name": "id",
          "type": "uint256"
        },
        {
          "internalType": "ModifyingIndicator",
          "name": "indicator",
          "type": "uint256"
        },
        {
          "components": [
            {
              "internalType": "address",
              "name": "resolver",
              "type": "address"
            },
            {
              "internalType": "address",
              "name": "owner",
              "type": "address"
            },
            {
              "internalType": "uint64",
              "name": "expiry",
              "type": "uint64"
            },
            {
              "internalType": "bool",
              "name": "protected",
              "type": "bool"
            }
          ],
          "internalType": "struct INSUnified.MutableRecord",
          "name": "mutRecord",
          "type": "tuple"
        }
      ],
      "name": "setRecord",
      "outputs": [],
      "stateMutability": "nonpayable",
      "type": "function"
    },
    {
      "inputs": [
        {
          "internalType": "uint256",
          "name": "tokenId",
          "type": "uint256"
        }
      ],
      "name": "stateOf",
      "outputs": [
        {
          "internalType": "bytes",
          "name": "",
          "type": "bytes"
        }
      ],
      "stateMutability": "view",
      "type": "function"
    },
    {
      "inputs": [
        {
          "internalType": "bytes4",
          "name": "interfaceId",
          "type": "bytes4"
        }
      ],
      "name": "supportsInterface",
      "outputs": [
        {
          "internalType": "bool",
          "name": "",
          "type": "bool"
        }
      ],
      "stateMutability": "view",
      "type": "function"
    },
    {
      "inputs": [],
      "name": "symbol",
      "outputs": [
        {
          "internalType": "string",
          "name": "",
          "type": "string"
        }
      ],
      "stateMutability": "view",
      "type": "function"
    },
    {
      "inputs": [
        {
          "internalType": "uint256",
          "name": "index",
          "type": "uint256"
        }
      ],
      "name": "tokenByIndex",
      "outputs": [
        {
          "internalType": "uint256",
          "name": "",
          "type": "uint256"
        }
      ],
      "stateMutability": "view",
      "type": "function"
    },
    {
      "inputs": [
        {
          "internalType": "address",
          "name": "owner",
          "type": "address"
        },
        {
          "internalType": "uint256",
          "name": "index",
          "type": "uint256"
        }
      ],
      "name": "tokenOfOwnerByIndex",
      "outputs": [
        {
          "internalType": "uint256",
          "name": "",
          "type": "uint256"
        }
      ],
      "stateMutability": "view",
      "type": "function"
    },
    {
      "inputs": [
        {
          "internalType": "uint256",
          "name": "tokenId",
          "type": "uint256"
        }
      ],
      "name": "tokenURI",
      "outputs": [
        {
          "internalType": "string",
          "name": "",
          "type": "string"
        }
      ],
      "stateMutability": "view",
      "type": "function"
    },
    {
      "inputs": [],
      "name": "totalMinted",
      "outputs": [
        {
          "internalType": "uint256",
          "name": "",
          "type": "uint256"
        }
      ],
      "stateMutability": "view",
      "type": "function"
    },
    {
      "inputs": [],
      "name": "totalSupply",
      "outputs": [
        {
          "internalType": "uint256",
          "name": "",
          "type": "uint256"
        }
      ],
      "stateMutability": "view",
      "type": "function"
    },
    {
      "inputs": [
        {
          "internalType": "address",
          "name": "from",
          "type": "address"
        },
        {
          "internalType": "address",
          "name": "to",
          "type": "address"
        },
        {
          "internalType": "uint256",
          "name": "tokenId",
          "type": "uint256"
        }
      ],
      "name": "transferFrom",
      "outputs": [],
      "stateMutability": "nonpayable",
      "type": "function"
    },
    {
      "inputs": [],
      "name": "unpause",
      "outputs": [],
      "stateMutability": "nonpayable",
      "type": "function"
    }
  ],
  "address": "0x454dD005E995dA3a3CafB30A2B6fe51A8C53862a",
  "args": "0x",
  "blockNumber": 21480763,
  "bytecode": "0x6000608081815260c060405260a09182529060036200001f8382620001b1565b5060046200002e8282620001b1565b5050603c805460ff1916905550620000456200004b565b6200027d565b600054610100900460ff1615620000b85760405162461bcd60e51b815260206004820152602760248201527f496e697469616c697a61626c653a20636f6e747261637420697320696e697469604482015266616c697a696e6760c81b606482015260840160405180910390fd5b60005460ff908116146200010a576000805460ff191660ff9081179091556040519081527f7f26b83ff96e1f2b6a682f133852f6798a09c465da95921460cefb38474024989060200160405180910390a15b565b634e487b7160e01b600052604160045260246000fd5b600181811c908216806200013757607f821691505b6020821081036200015857634e487b7160e01b600052602260045260246000fd5b50919050565b601f821115620001ac57600081815260208120601f850160051c81016020861015620001875750805b601f850160051c820191505b81811015620001a85782815560010162000193565b5050505b505050565b81516001600160401b03811115620001cd57620001cd6200010c565b620001e581620001de845462000122565b846200015e565b602080601f8311600181146200021d5760008415620002045750858301515b600019600386901b1c1916600185901b178555620001a8565b600085815260208120601f198616915b828110156200024e578886015182559484019460019091019084016200022d565b50858210156200026d5787850151600019600388901b60f8161c191681555b5050505050600190811b01905550565b61432a806200028d6000396000f3fe608060405234801561001057600080fd5b50600436106102f15760003560e01c806355a5133b1161019d578063abfaf005116100e9578063dbd18388116100a2578063ec63b01f1161007c578063ec63b01f1461072b578063f1e379081461073e578063fc284d1114610765578063fd3fa9191461077857600080fd5b8063dbd18388146106c9578063e63ab1e9146106da578063e985e9c5146106ef57600080fd5b8063abfaf0051461065c578063b88d4fde1461066f578063b967169014610682578063c87b56dd14610690578063ca15c873146106a3578063d547741f146106b657600080fd5b80639010d07c1161015657806396e494e81161013057806396e494e814610626578063a217fddf14610639578063a22cb46514610641578063a2309ff81461065457600080fd5b80639010d07c146105e157806391d14854146105f457806395d89b411461060757600080fd5b806355a5133b1461058257806355f804b3146105955780635c975abb146105a85780636352211e146105b357806370a08231146105c65780638456cb59146105d957600080fd5b80631cfa6ec01161025c57806333855d9f1161021557806342842e0e116101ef57806342842e0e1461051e57806342966c68146105315780634f6ccce7146105445780635569f33d1461055757600080fd5b806333855d9f146104ee57806336568abe146105035780633f4ba83a1461051657600080fd5b80631cfa6ec01461046b57806323b872dd1461047e578063248a9ca31461049157806328ed4f6c146104b55780632f2ff15d146104c85780632f745c59146104db57600080fd5b8063095ea7b3116102ae578063095ea7b3146103f5578063098799621461040a578063131a7e241461041d578063141a468c1461043057806318160ddd146104505780631a7a98e21461045857600080fd5b806301ffc9a7146102f657806303e9e6091461031e5780630570891f1461033e57806306fdde0314610370578063081812fc146103a7578063092c5b3b146103d2575b600080fd5b6103096103043660046134d1565b6107ab565b60405190151581526020015b60405180910390f35b61033161032c3660046134ee565b6107d7565b60405161031591906135db565b61035161034c366004613669565b61092d565b604080516001600160401b039093168352602083019190915201610315565b604080518082019091526012815271526f6e696e204e616d65205365727669636560701b60208201525b60405161031591906136e6565b6103ba6103b53660046134ee565b610c0b565b6040516001600160a01b039091168152602001610315565b6103e76000805160206142b583398151915281565b604051908152602001610315565b6104086104033660046136f9565b610c32565b005b6103e76104183660046137ae565b610d4c565b61039a61042b3660046134ee565b610d57565b6103e761043e3660046134ee565b60096020526000908152604090205481565b603f546103e7565b61039a6104663660046134ee565b610da4565b6104086104793660046137f6565b610eb0565b61040861048c366004613837565b611045565b6103e761049f3660046134ee565b6000908152600160208190526040909120015490565b6104086104c3366004613873565b611077565b6104086104d6366004613873565b6110d1565b6103e76104e93660046136f9565b6110f7565b6103e760008051602061429583398151915281565b610408610511366004613873565b61118d565b61040861120b565b61040861052c366004613837565b61122e565b61040861053f3660046134ee565b611249565b6103e76105523660046134ee565b611277565b61056a61056536600461389f565b61130a565b6040516001600160401b039091168152602001610315565b6104086105903660046138c2565b6113cf565b6104086105a33660046138dd565b6113f8565b603c5460ff16610309565b6103ba6105c13660046134ee565b61140d565b6103e76105d436600461391e565b61142e565b6104086114b4565b6103ba6105ef366004613939565b6114d4565b610309610602366004613873565b6114f3565b604080518082019091526003815262524e5360e81b602082015261039a565b6103096106343660046134ee565b61151e565b6103e7600081565b61040861064f36600461396b565b611549565b6073546103e7565b61040861066a366004613995565b611554565b61040861067d366004613a2b565b61176c565b61056a6001600160401b0381565b61039a61069e3660046134ee565b61179e565b6103e76106b13660046134ee565b611811565b6104086106c4366004613873565b611828565b60a7546001600160401b031661056a565b6103e76000805160206142d583398151915281565b6103096106fd366004613aa6565b6001600160a01b03918216600090815260086020908152604080832093909416825291909152205460ff1690565b610408610739366004613ad0565b61184e565b6103e77f87a2b33e0b98030e29c3d23d732aa654f29b298e3891758d5f02a8b01c4840b281565b61040861077336600461389f565b611938565b61078b610786366004613b53565b6119b9565b6040805192151583526001600160e01b0319909116602083015201610315565b60006107b682611afa565b806107d157506001600160e01b03198216630106c78f60e21b145b92915050565b6107df61345f565b600082815260a8602052604090819020815160a081018352815460ff1692810192835260018201546060820152600282018054919384929091849160808501919061082990613b86565b80601f016020809104026020016040519081016040528092919081815260200182805461085590613b86565b80156108a25780601f10610877576101008083540402835291602001916108a2565b820191906000526020600020905b81548152906001019060200180831161088557829003601f168201915b5050509190925250505081526040805160808101825260038401546001600160a01b039081168252600490940154938416602080830191909152600160a01b85046001600160401b031692820192909252600160e01b90930460ff16151560608401520152905061091282611b1f565b60208201516001600160401b03909116604090910152919050565b600080610938611b9b565b6109423389611be3565b61095e576040516282b42960e81b815260040160405180910390fd5b61099e8888888080601f016020809104026020016040519081016040528093929190818152602001838380828437600092019190915250611bff92505050565b90506109a98161151e565b6109c65760405163a3b8915f60e01b815260040160405180910390fd5b6000818152600560205260409020546001600160a01b0316156109ec576109ec81611c15565b6109f68482611c84565b610a0b426001600160401b0380861690611c97565b9150610a178883611ccd565b610a1f61345f565b604080516080810182526001600160a01b03808916825287166020808301919091526001600160401b03861682840152600085815260a88083528482206004015460ff600160e01b9091048116151560608087019190915287850195909552855194850186528e83529252929092205490918291610a9f91166001613bd0565b60ff1681526020018a815260200189898080601f016020809104026020016040519081016040528093929190818152602001838380828437600092019190915250505091525080825251600360ff90911610610b0e576040516378a0027360e11b815260040160405180910390fd5b600082815260a8602090815260409182902083518051825460ff191660ff909116178255918201516001820155918101518392919082906002820190610b549082613c37565b50505060209182015180516003830180546001600160a01b039283166001600160a01b031990911617905592810151600490920180546040808401516060909401511515600160e01b0260ff60e01b196001600160401b03909516600160a01b026001600160e01b0319909316959096169490941717919091169290921790915551829060008051602061427583398151915290610bf790600019908590613cf6565b60405180910390a250965096945050505050565b6000610c1682611d13565b506000908152600760205260409020546001600160a01b031690565b6000610c3d82611d72565b9050806001600160a01b0316836001600160a01b031603610caf5760405162461bcd60e51b815260206004820152602160248201527f4552433732313a20617070726f76616c20746f2063757272656e74206f776e656044820152603960f91b60648201526084015b60405180910390fd5b336001600160a01b0382161480610ccb5750610ccb81336106fd565b610d3d5760405162461bcd60e51b815260206004820152603d60248201527f4552433732313a20617070726f76652063616c6c6572206973206e6f7420746f60448201527f6b656e206f776e6572206f7220617070726f76656420666f7220616c6c0000006064820152608401610ca6565b610d478383611dd2565b505050565b60006107d182611e40565b606081610d6381611d13565b600083815260a8602090815260408083206009835292819020549051610d8c9392879101613d0f565b60405160208183030381529060405291505b50919050565b606081600003610dc257505060408051602081019091526000815290565b600082815260a860205260409020600281018054610ddf90613b86565b80601f0160208091040260200160405190810160405280929190818152602001828054610e0b90613b86565b8015610e585780601f10610e2d57610100808354040283529160200191610e58565b820191906000526020600020905b815481529060010190602001808311610e3b57829003601f168201915b50505050509150806001015492505b8215610d9e5750600082815260a860209081526040918290209151610e93918491600285019101613e1d565b604051602081830303815290604052915080600101549250610e67565b610eb8611b9b565b8282610ec48282611eb3565b610ecc61345f565b600086815260a860205260409020600301610ef1610eea6006611ed4565b8790611ef6565b15610f3257610f066080860160608701613ecf565b6020830151901515606090910181905260018201805460ff60e01b1916600160e01b9092029190911790555b610f3f610eea6005611ed4565b15610f7557610f7587610f5860608801604089016138c2565b60208501516001600160401b039091166040909101819052611f02565b610f82610eea6003611ed4565b15610fb857610f94602086018661391e565b60208301516001600160a01b039091169081905281546001600160a01b0319161781555b866000805160206142758339815191528784604051610fd8929190613cf6565b60405180910390a2610fed610eea6004611ed4565b1561103c57600087815260a860209081526040918290206004015461103c926001600160a01b039091169161102691890190890161391e565b8960405180602001604052806000815250611fdb565b50505050505050565b611050335b8261200e565b61106c5760405162461bcd60e51b8152600401610ca690613eea565b610d47838383612030565b61107f611b9b565b8161108a6004611ed4565b6110948282611eb3565b600084815260a8602090815260408083206004015481519283019091529181526110cb916001600160a01b03169085908790611fdb565b50505050565b600082815260016020819052604090912001546110ed8161212c565b610d478383612136565b60006111028361142e565b82106111645760405162461bcd60e51b815260206004820152602b60248201527f455243373231456e756d657261626c653a206f776e657220696e646578206f7560448201526a74206f6620626f756e647360a81b6064820152608401610ca6565b506001600160a01b03919091166000908152603d60209081526040808320938352929052205490565b6001600160a01b03811633146111fd5760405162461bcd60e51b815260206004820152602f60248201527f416363657373436f6e74726f6c3a2063616e206f6e6c792072656e6f756e636560448201526e103937b632b9903337b91039b2b63360891b6064820152608401610ca6565b6112078282612158565b5050565b6000805160206142d58339815191526112238161212c565b61122b61217a565b50565b610d478383836040518060200160405280600081525061176c565b6112523361104a565b61126e5760405162461bcd60e51b8152600401610ca690613eea565b61122b81611c15565b6000611282603f5490565b82106112e55760405162461bcd60e51b815260206004820152602c60248201527f455243373231456e756d657261626c653a20676c6f62616c20696e646578206f60448201526b7574206f6620626f756e647360a01b6064820152608401610ca6565b603f82815481106112f8576112f8613f37565b90600052602060002001549050919050565b6000611314611b9b565b6000805160206142b583398151915261132c8161212c565b61133461345f565b600085815260a86020526040902060040154611366906001600160401b03600160a01b90910481169086811690611c97565b6020820180516001600160401b0390921660409283015251015161138b908690611f02565b6020810151604001519250846000805160206142758339815191526113b06005611ed4565b836040516113bf929190613cf6565b60405180910390a2505092915050565b6113d7611b9b565b6000805160206142b58339815191526113ef8161212c565b611207826121cc565b60006114038161212c565b610d478383612224565b60006114188261226d565b1561142557506000919050565b6107d182611d72565b60006001600160a01b0382166114985760405162461bcd60e51b815260206004820152602960248201527f4552433732313a2061646472657373207a65726f206973206e6f7420612076616044820152683634b21037bbb732b960b91b6064820152608401610ca6565b506001600160a01b031660009081526006602052604090205490565b6000805160206142d58339815191526114cc8161212c565b61122b612289565b60008281526002602052604081206114ec90836122c6565b9392505050565b60009182526001602090815260408084206001600160a01b0393909316845291905290205460ff1690565b600061154161152c83611b1f565b60a7546001600160401b0391821691166122d2565b421192915050565b6112073383836122e6565b600054610100900460ff16158080156115745750600054600160ff909116105b8061158e5750303b15801561158e575060005460ff166001145b6115f15760405162461bcd60e51b815260206004820152602e60248201527f496e697469616c697a61626c653a20636f6e747261637420697320616c72656160448201526d191e481a5b9a5d1a585b1a5e995960921b6064820152608401610ca6565b6000805460ff191660011790558015611614576000805461ff0019166101001790555b61161f600089612136565b6116376000805160206142d583398151915288612136565b61164f6000805160206142b583398151915287612136565b61166760008051602061429583398151915286612136565b6116718383612224565b61167a846121cc565b611685886000611c84565b61168d61345f565b6020808201516001600160401b03604090910152600080805260a89091527f89f57ae4d64764caecd045b845cfc13a5b86ba807e4a61f32108661671e72867805467ffffffffffffffff60a01b191667ffffffffffffffff60a01b1790556000805160206142758339815191526117046005611ed4565b83604051611713929190613cf6565b60405180910390a2508015611762576000805461ff0019169055604051600181527f7f26b83ff96e1f2b6a682f133852f6798a09c465da95921460cefb38474024989060200160405180910390a15b5050505050505050565b611776338361200e565b6117925760405162461bcd60e51b8152600401610ca690613eea565b6110cb84848484611fdb565b6060816117aa81611d13565b60006117b46123b4565b905060008151116117d45760405180602001604052806000815250611809565b806117de30612446565b6117e78661245c565b6040516020016117f993929190613f4d565b6040516020818303038152906040525b949350505050565b60008181526002602052604081206107d1906124ee565b600082815260016020819052604090912001546118448161212c565b610d478383612158565b6000805160206142958339815191526118668161212c565b60006118726006611ed4565b9050600061187e61345f565b602081015185151560609091015260005b86811015611762578787828181106118a9576118a9613f37565b60209081029290920135600081815260a89093526040909220600401549194505060ff600160e01b9091041615158615151461193057600083815260a8602052604090819020600401805460ff60e01b1916600160e01b89151502179055518390600080516020614275833981519152906119279087908690613cf6565b60405180910390a25b60010161188f565b611940611b9b565b6000805160206142b58339815191526119588161212c565b61196061345f565b60208101516001600160401b0384166040909101819052611982908590611f02565b8360008051602061427583398151915261199c6005611ed4565b836040516119ab929190613cf6565b60405180910390a250505050565b6000806119c7836007611ef6565b156119de57506000905063da698a4d60e01b611af2565b6000848152600560205260409020546001600160a01b0316611a0c5750600090506304a3dbd560e51b611af2565b611a20611a196006611ed4565b8490611ef6565b8015611a415750611a3f600080516020614295833981519152866114f3565b155b15611a5857506000905063c24b0f3f60e01b611af2565b6000611a726000805160206142b5833981519152876114f3565b9050611a88611a816005611ed4565b8590611ef6565b8015611a92575080155b15611aab57506000915063ed4b948760e01b9050611af2565b611ab6846018611ef6565b8015611ad057508080611ace5750611ace8686611be3565b155b15611ae85750600091506282b42960e81b9050611af2565b5060019150600090505b935093915050565b60006001600160e01b0319821663780e9d6360e01b14806107d157506107d1826124f8565b600081815260056020526040812054611b62907f87a2b33e0b98030e29c3d23d732aa654f29b298e3891758d5f02a8b01c4840b2906001600160a01b03166114f3565b15611b7557506001600160401b03919050565b50600090815260a86020526040902060040154600160a01b90046001600160401b031690565b603c5460ff1615611be15760405162461bcd60e51b815260206004820152601060248201526f14185d5cd8589b194e881c185d5cd95960821b6044820152606401610ca6565b565b6000611bef838361200e565b806114ec57506114ec8383612538565b6000918252805160209182012090526040902090565b611c1e81612596565b600081815260a8602052604090206003810180546001600160a01b031916905560040180546001600160e81b0319169055611c5761345f565b81600080516020614275833981519152601883604051611c78929190613cf6565b60405180910390a25050565b6073805460010190556112078282612639565b600081841180611ca657508183115b15611cb25750806114ec565b611cbc84846122d2565b9050818111156114ec575092915050565b600082815260a860205260409020600401546001600160401b03600160a01b909104811690821611156112075760405163da87d84960e01b815260040160405180910390fd5b6000818152600560205260409020546001600160a01b031661122b5760405162461bcd60e51b8152602060048201526018602482015277115490cdcc8c4e881a5b9d985b1a59081d1bdad95b88125160421b6044820152606401610ca6565b6000818152600560205260408120546001600160a01b0316806107d15760405162461bcd60e51b8152602060048201526018602482015277115490cdcc8c4e881a5b9d985b1a59081d1bdad95b88125160421b6044820152606401610ca6565b600081815260076020526040902080546001600160a01b0319166001600160a01b0384169081179091558190611e0782611d72565b6001600160a01b03167f8c5be1e5ebec7d5bd14f71427d1e84f3dd0314c0f7b2291e5b200ac8c7c3b92560405160405180910390a45050565b600081518015611ea95760006020840160018303810160008052805b828110611ea457828114602e600183035160f81c1480821715611e9957600186848603030180842060205260406000206000526001810187019650505b505060001901611e5c565b505050505b5050600051919050565b600080611ec13385856119b9565b91509150816110cb578060005260046000fd5b6000816006811115611ee857611ee8613eb9565b60ff166001901b9050919050565b600082821615156114ec565b600082815260a86020526040902060010154611f1e9082611ccd565b611f278261151e565b15611f4557604051631395a92360e01b815260040160405180910390fd5b600082815260a860205260409020600401546001600160401b03600160a01b909104811690821611611f8a57604051631c21962760e11b815260040160405180910390fd5b611f9261345f565b6020908101516001600160401b03929092166040928301819052600093845260a89091529120600401805467ffffffffffffffff60a01b1916600160a01b909202919091179055565b611fe6848484612030565b611ff2848484846127d2565b6110cb5760405162461bcd60e51b8152600401610ca690613f9d565b60006120198261226d565b15612026575060006107d1565b6114ec83836128d3565b61203b838383612951565b61204361345f565b600061204f6004611ed4565b6020838101516001600160a01b038716908201819052600086815260a8909252604090912060040180546001600160a01b031916909117905590506120a2600080516020614295833981519152336114f3565b1580156120c75750600083815260a86020526040902060040154600160e01b900460ff165b156120fd57600083815260a860205260409020600401805460ff60e01b191690556120fa816120f66006611ed4565b1790565b90505b82600080516020614275833981519152828460405161211d929190613cf6565b60405180910390a25050505050565b61122b8133612ac2565b6121408282612b1b565b6000828152600260205260409020610d479082612b86565b6121628282612b9b565b6000828152600260205260409020610d479082612c02565b612182612c17565b603c805460ff191690557f5db9ee0a495bf2e6ff9c91a7834c1ba4fdd244a5e8aa4e537bd38aeae4b073aa335b6040516001600160a01b03909116815260200160405180910390a1565b60a780546001600160401b03831667ffffffffffffffff199091168117909155604080519182525133917f2f8e6689e76cebc7cf99a782594bd18a73b8d1a0fe640c99fc580dcd4de7cd1d919081900360200190a250565b6074612231828483613fef565b50336001600160a01b03167ff765b68b6ff897de964353a0eb194e46ecea8772879eb880b4b0fd277124922c8383604051611c789291906140ae565b600061227882611b1f565b6001600160401b0316421192915050565b612291611b9b565b603c805460ff191660011790557f62e78cea01bee320cd4e420270b5ea74000d11b0c9f74754ebdbfc544b05a2586121af3390565b60006114ec8383612c60565b818101828110156107d157506000196107d1565b816001600160a01b0316836001600160a01b0316036123475760405162461bcd60e51b815260206004820152601960248201527f4552433732313a20617070726f766520746f2063616c6c6572000000000000006044820152606401610ca6565b6001600160a01b03838116600081815260086020908152604080832094871680845294825291829020805460ff191686151590811790915591519182527f17307eab39ab6107e8899845ad3d59bd9653f200f220920489ca2b5937696c31910160405180910390a3505050565b6060607480546123c390613b86565b80601f01602080910402602001604051908101604052809291908181526020018280546123ef90613b86565b801561243c5780601f106124115761010080835404028352916020019161243c565b820191906000526020600020905b81548152906001019060200180831161241f57829003601f168201915b5050505050905090565b60606107d16001600160a01b0383166014612c8a565b6060600061246983612e25565b60010190506000816001600160401b0381111561248857612488613723565b6040519080825280601f01601f1916602001820160405280156124b2576020820181803683370190505b5090508181016020015b600019016f181899199a1a9b1b9c1cb0b131b232b360811b600a86061a8153600a85049450846124bc57509392505050565b60006107d1825490565b60006001600160e01b031982166380ac58cd60e01b148061252957506001600160e01b03198216635b5e139f60e01b145b806107d157506107d182612efd565b6000805b821561258c5750600082815260a860205260409020600401546001600160a01b0390811690841681036125735760019150506107d1565b600092835260a86020526040909220600101549161253c565b5060009392505050565b60006125a182611d72565b90506125b1816000846001612f22565b6125ba82611d72565b600083815260076020908152604080832080546001600160a01b03199081169091556001600160a01b0385168085526006845282852080546000190190558785526005909352818420805490911690555192935084927fddf252ad1be2c89b69c2b068fc378daa952ba7f163c4a11628f55a4df523b3ef908390a45050565b6001600160a01b03821661268f5760405162461bcd60e51b815260206004820181905260248201527f4552433732313a206d696e7420746f20746865207a65726f20616464726573736044820152606401610ca6565b6000818152600560205260409020546001600160a01b0316156126f45760405162461bcd60e51b815260206004820152601c60248201527f4552433732313a20746f6b656e20616c7265616479206d696e746564000000006044820152606401610ca6565b612702600083836001612f22565b6000818152600560205260409020546001600160a01b0316156127675760405162461bcd60e51b815260206004820152601c60248201527f4552433732313a20746f6b656e20616c7265616479206d696e746564000000006044820152606401610ca6565b6001600160a01b038216600081815260066020908152604080832080546001019055848352600590915280822080546001600160a01b0319168417905551839291907fddf252ad1be2c89b69c2b068fc378daa952ba7f163c4a11628f55a4df523b3ef908290a45050565b60006001600160a01b0384163b156128c857604051630a85bd0160e11b81526001600160a01b0385169063150b7a02906128169033908990889088906004016140dd565b6020604051808303816000875af1925050508015612851575060408051601f3d908101601f1916820190925261284e9181019061411a565b60015b6128ae573d80801561287f576040519150601f19603f3d011682016040523d82523d6000602084013e612884565b606091505b5080516000036128a65760405162461bcd60e51b8152600401610ca690613f9d565b805181602001fd5b6001600160e01b031916630a85bd0160e11b149050611809565b506001949350505050565b6000806128df83611d72565b9050806001600160a01b0316846001600160a01b0316148061292657506001600160a01b0380821660009081526008602090815260408083209388168352929052205460ff165b806118095750836001600160a01b031661293f84610c0b565b6001600160a01b031614949350505050565b826001600160a01b031661296482611d72565b6001600160a01b03161461298a5760405162461bcd60e51b8152600401610ca690614137565b6001600160a01b0382166129ec5760405162461bcd60e51b8152602060048201526024808201527f4552433732313a207472616e7366657220746f20746865207a65726f206164646044820152637265737360e01b6064820152608401610ca6565b6129f98383836001612f22565b826001600160a01b0316612a0c82611d72565b6001600160a01b031614612a325760405162461bcd60e51b8152600401610ca690614137565b600081815260076020908152604080832080546001600160a01b03199081169091556001600160a01b0387811680865260068552838620805460001901905590871680865283862080546001019055868652600590945282852080549092168417909155905184937fddf252ad1be2c89b69c2b068fc378daa952ba7f163c4a11628f55a4df523b3ef91a4505050565b612acc82826114f3565b61120757612ad981612446565b612ae4836020612c8a565b604051602001612af592919061417c565b60408051601f198184030181529082905262461bcd60e51b8252610ca6916004016136e6565b612b2582826114f3565b6112075760008281526001602081815260408084206001600160a01b0386168086529252808420805460ff19169093179092559051339285917f2f8788117e7eff1d82e926ec794901d17c78024a50270940304540a733656f0d9190a45050565b60006114ec836001600160a01b038416612f2e565b612ba582826114f3565b156112075760008281526001602090815260408083206001600160a01b0385168085529252808320805460ff1916905551339285917ff6391f5c32d9c69d2a47ea670b442974b53935d1edc7fd64eb21e047a839171b9190a45050565b60006114ec836001600160a01b038416612f7d565b603c5460ff16611be15760405162461bcd60e51b815260206004820152601460248201527314185d5cd8589b194e881b9bdd081c185d5cd95960621b6044820152606401610ca6565b6000826000018281548110612c7757612c77613f37565b9060005260206000200154905092915050565b60606000612c998360026141f1565b612ca4906002614208565b6001600160401b03811115612cbb57612cbb613723565b6040519080825280601f01601f191660200182016040528015612ce5576020820181803683370190505b509050600360fc1b81600081518110612d0057612d00613f37565b60200101906001600160f81b031916908160001a905350600f60fb1b81600181518110612d2f57612d2f613f37565b60200101906001600160f81b031916908160001a9053506000612d538460026141f1565b612d5e906001614208565b90505b6001811115612dd6576f181899199a1a9b1b9c1cb0b131b232b360811b85600f1660108110612d9257612d92613f37565b1a60f81b828281518110612da857612da8613f37565b60200101906001600160f81b031916908160001a90535060049490941c93612dcf8161421b565b9050612d61565b5083156114ec5760405162461bcd60e51b815260206004820181905260248201527f537472696e67733a20686578206c656e67746820696e73756666696369656e746044820152606401610ca6565b60008072184f03e93ff9f4daa797ed6e38ed64bf6a1f0160401b8310612e645772184f03e93ff9f4daa797ed6e38ed64bf6a1f0160401b830492506040015b6d04ee2d6d415b85acef81000000008310612e90576d04ee2d6d415b85acef8100000000830492506020015b662386f26fc100008310612eae57662386f26fc10000830492506010015b6305f5e1008310612ec6576305f5e100830492506008015b6127108310612eda57612710830492506004015b60648310612eec576064830492506002015b600a83106107d15760010192915050565b60006001600160e01b03198216635a05180f60e01b14806107d157506107d182613070565b6110cb848484846130a5565b6000818152600183016020526040812054612f75575081546001818101845560008481526020808220909301849055845484825282860190935260409020919091556107d1565b5060006107d1565b60008181526001830160205260408120548015613066576000612fa1600183614232565b8554909150600090612fb590600190614232565b905081811461301a576000866000018281548110612fd557612fd5613f37565b9060005260206000200154905080876000018481548110612ff857612ff8613f37565b6000918252602080832090910192909255918252600188019052604090208390555b855486908061302b5761302b614245565b6001900381819060005260206000200160009055905585600101600086815260200190815260200160002060009055600193505050506107d1565b60009150506107d1565b60006001600160e01b03198216637965db0b60e01b14806107d157506301ffc9a760e01b6001600160e01b03198316146107d1565b6130b1848484846131e5565b60018111156131205760405162461bcd60e51b815260206004820152603560248201527f455243373231456e756d657261626c653a20636f6e7365637574697665207472604482015274185b9cd9995c9cc81b9bdd081cdd5c1c1bdc9d1959605a1b6064820152608401610ca6565b816001600160a01b03851661317c5761317781603f80546000838152604060208190528120829055600182018355919091527fc03004e3ce0784bf68186394306849f9b7b1200073105cd9aeb554a1802b58fd0155565b61319f565b836001600160a01b0316856001600160a01b03161461319f5761319f8582613258565b6001600160a01b0384166131bb576131b6816132f5565b6131de565b846001600160a01b0316846001600160a01b0316146131de576131de84826133a4565b5050505050565b6131f1848484846133e8565b603c5460ff16156110cb5760405162461bcd60e51b815260206004820152602b60248201527f4552433732315061757361626c653a20746f6b656e207472616e73666572207760448201526a1a1a5b19481c185d5cd95960aa1b6064820152608401610ca6565b600060016132658461142e565b61326f9190614232565b6000838152603e60205260409020549091508082146132c2576001600160a01b0384166000908152603d602090815260408083208584528252808320548484528184208190558352603e90915290208190555b506000918252603e602090815260408084208490556001600160a01b039094168352603d81528383209183525290812055565b603f5460009061330790600190614232565b600083815260406020819052812054603f805493945090928490811061332f5761332f613f37565b9060005260206000200154905080603f838154811061335057613350613f37565b600091825260208083209091019290925582815260409182905281812084905585815290812055603f80548061338857613388614245565b6001900381819060005260206000200160009055905550505050565b60006133af8361142e565b6001600160a01b039093166000908152603d602090815260408083208684528252808320859055938252603e9052919091209190915550565b815b6133f48284614208565b81101561345957600081815260096020526040812080549091906134179061425b565b918290555060405182907fcc2c68164f9f7f0c063ba98bcf89498c0f3f5e3acc32bf4ab46195ecb489c13b90600090a3806134518161425b565b9150506133ea565b506110cb565b60405180604001604052806134916040518060600160405280600060ff16815260200160008152602001606081525090565b81526040805160808101825260008082526020828101829052928201819052606082015291015290565b6001600160e01b03198116811461122b57600080fd5b6000602082840312156134e357600080fd5b81356114ec816134bb565b60006020828403121561350057600080fd5b5035919050565b60005b8381101561352257818101518382015260200161350a565b50506000910152565b60008151808452613543816020860160208601613507565b601f01601f19169290920160200192915050565b805160a0808452815160ff1690840152602081015160c084015260400151606060e084015260009061358d61010085018261352b565b9050602083015160018060a01b03808251166020870152806020830151166040870152506001600160401b036040820151166060860152606081015115156080860152508091505092915050565b6020815260006114ec6020830184613557565b60008083601f84011261360057600080fd5b5081356001600160401b0381111561361757600080fd5b60208301915083602082850101111561362f57600080fd5b9250929050565b80356001600160a01b038116811461364d57600080fd5b919050565b80356001600160401b038116811461364d57600080fd5b60008060008060008060a0878903121561368257600080fd5b8635955060208701356001600160401b0381111561369f57600080fd5b6136ab89828a016135ee565b90965094506136be905060408801613636565b92506136cc60608801613636565b91506136da60808801613652565b90509295509295509295565b6020815260006114ec602083018461352b565b6000806040838503121561370c57600080fd5b61371583613636565b946020939093013593505050565b634e487b7160e01b600052604160045260246000fd5b60006001600160401b038084111561375357613753613723565b604051601f8501601f19908116603f0116810190828211818310171561377b5761377b613723565b8160405280935085815286868601111561379457600080fd5b858560208301376000602087830101525050509392505050565b6000602082840312156137c057600080fd5b81356001600160401b038111156137d657600080fd5b8201601f810184136137e757600080fd5b61180984823560208401613739565b600080600083850360c081121561380c57600080fd5b84359350602085013592506080603f198201121561382957600080fd5b506040840190509250925092565b60008060006060848603121561384c57600080fd5b61385584613636565b925061386360208501613636565b9150604084013590509250925092565b6000806040838503121561388657600080fd5b8235915061389660208401613636565b90509250929050565b600080604083850312156138b257600080fd5b8235915061389660208401613652565b6000602082840312156138d457600080fd5b6114ec82613652565b600080602083850312156138f057600080fd5b82356001600160401b0381111561390657600080fd5b613912858286016135ee565b90969095509350505050565b60006020828403121561393057600080fd5b6114ec82613636565b6000806040838503121561394c57600080fd5b50508035926020909101359150565b8035801515811461364d57600080fd5b6000806040838503121561397e57600080fd5b61398783613636565b91506138966020840161395b565b600080600080600080600060c0888a0312156139b057600080fd5b6139b988613636565b96506139c760208901613636565b95506139d560408901613636565b94506139e360608901613636565b93506139f160808901613652565b925060a08801356001600160401b03811115613a0c57600080fd5b613a188a828b016135ee565b989b979a50959850939692959293505050565b60008060008060808587031215613a4157600080fd5b613a4a85613636565b9350613a5860208601613636565b92506040850135915060608501356001600160401b03811115613a7a57600080fd5b8501601f81018713613a8b57600080fd5b613a9a87823560208401613739565b91505092959194509250565b60008060408385031215613ab957600080fd5b613ac283613636565b915061389660208401613636565b600080600060408486031215613ae557600080fd5b83356001600160401b0380821115613afc57600080fd5b818601915086601f830112613b1057600080fd5b813581811115613b1f57600080fd5b8760208260051b8501011115613b3457600080fd5b602092830195509350613b4a918601905061395b565b90509250925092565b600080600060608486031215613b6857600080fd5b613b7184613636565b95602085013595506040909401359392505050565b600181811c90821680613b9a57607f821691505b602082108103610d9e57634e487b7160e01b600052602260045260246000fd5b634e487b7160e01b600052601160045260246000fd5b60ff81811683821601908111156107d1576107d1613bba565b601f821115610d4757600081815260208120601f850160051c81016020861015613c105750805b601f850160051c820191505b81811015613c2f57828155600101613c1c565b505050505050565b81516001600160401b03811115613c5057613c50613723565b613c6481613c5e8454613b86565b84613be9565b602080601f831160018114613c995760008415613c815750858301515b600019600386901b1c1916600185901b178555613c2f565b600085815260208120601f198616915b82811015613cc857888601518255948401946001909101908401613ca9565b5085821015613ce65787850151600019600388901b60f8161c191681555b5050505050600190811b01905550565b8281526040602082015260006118096040830184613557565b6060815260a0606082015260ff845416610100820152600060018086015461012084015260028601606061014085015260008154613d4c81613b86565b8061016088015261018085831660008114613d6e5760018114613d8857613db9565b60ff1984168983015282151560051b890182019450613db9565b8560005260208060002060005b85811015613db05781548c8201860152908901908201613d95565b8b018401965050505b50505050613e096080860160038a0180546001600160a01b03908116835260019190910154908116602083015260a081901c6001600160401b0316604083015260e01c60ff161515606090910152565b602085019690965250505060400152919050565b600083516020613e308285838901613507565b8184019150601760f91b8252600160008654613e4b81613b86565b8184168015613e615760018114613e7a57613eaa565b60ff198316878601528115158202870185019350613eaa565b896000528560002060005b83811015613ea0578154898201880152908601908701613e85565b5050848288010193505b50919998505050505050505050565b634e487b7160e01b600052602160045260246000fd5b600060208284031215613ee157600080fd5b6114ec8261395b565b6020808252602d908201527f4552433732313a2063616c6c6572206973206e6f7420746f6b656e206f776e6560408201526c1c881bdc88185c1c1c9bdd9959609a1b606082015260800190565b634e487b7160e01b600052603260045260246000fd5b60008451613f5f818460208901613507565b845190830190613f73818360208901613507565b602f60f81b91019081528351613f90816001840160208801613507565b0160010195945050505050565b60208082526032908201527f4552433732313a207472616e7366657220746f206e6f6e20455243373231526560408201527131b2b4bb32b91034b6b83632b6b2b73a32b960711b606082015260800190565b6001600160401b0383111561400657614006613723565b61401a836140148354613b86565b83613be9565b6000601f84116001811461404e57600085156140365750838201355b600019600387901b1c1916600186901b1783556131de565b600083815260209020601f19861690835b8281101561407f578685013582556020948501946001909201910161405f565b508682101561409c5760001960f88860031b161c19848701351681555b505060018560011b0183555050505050565b60208152816020820152818360408301376000818301604090810191909152601f909201601f19160101919050565b6001600160a01b03858116825284166020820152604081018390526080606082018190526000906141109083018461352b565b9695505050505050565b60006020828403121561412c57600080fd5b81516114ec816134bb565b60208082526025908201527f4552433732313a207472616e736665722066726f6d20696e636f72726563742060408201526437bbb732b960d91b606082015260800190565b7f416363657373436f6e74726f6c3a206163636f756e74200000000000000000008152600083516141b4816017850160208801613507565b7001034b99036b4b9b9b4b733903937b6329607d1b60179184019182015283516141e5816028840160208801613507565b01602801949350505050565b80820281158282048414176107d1576107d1613bba565b808201808211156107d1576107d1613bba565b60008161422a5761422a613bba565b506000190190565b818103818111156107d1576107d1613bba565b634e487b7160e01b600052603160045260246000fd5b60006001820161426d5761426d613bba565b506001019056fe1c440effe366cd7c439a4890f8be2342fcaca9b4a192ce8cf2b0e76511b36eba9e4a939112df4627ab5078e49dd57d2c45b4cffd9ae0b912f9fc355e5b1080387b765e0e932d348852a6f810bfa1ab891e259123f02db8cdcde614c57022335765d7a28e3265b37a6474929f336521b332c1681b933f6cb9f3376673440d862aa2646970667358221220d5f365766b82098eda9a4e3b580d61cb61878c671f3dbf2c54b673d4d11f770064736f6c63430008150033",
  "chainId": 2021,
  "contractName": "RNSUnified",
  "deployer": "0x968D0Cd7343f711216817E617d3f92a23dC91c07",
  "devdoc": {
    "version": 1,
    "kind": "dev",
    "methods": {
      "approve(address,uint256)": {
        "details": "See {IERC721-approve}."
      },
      "available(uint256)": {
        "details": "Returns true if the specified name is available for registration. Note: Only available after passing the grace period."
      },
      "balanceOf(address)": {
        "details": "See {IERC721-balanceOf}."
      },
      "bulkSetProtected(uint256[],bool)": {
        "details": "Sets the protected status of a list of ids. Update operation for {Record.mut.protected}. Requirements: - The method caller must have protected setter role. Emits events {RecordUpdated}."
      },
      "burn(uint256)": {
        "details": "Burns `tokenId`. See {ERC721-_burn}. Requirements: - The caller must own `tokenId` or be an approved operator."
      },
      "canSetRecord(address,uint256,uint256)": {
        "details": "Returns whether the requester is able to modify the record based on the updated index. Note: This method strictly follows the permission of struct {MutableRecord}."
      },
      "getApproved(uint256)": {
        "details": "See {IERC721-getApproved}."
      },
      "getDomain(uint256)": {
        "details": "Returns the domain name of id."
      },
      "getGracePeriod()": {
        "details": "Returns the grace period in second(s). Note: This period affects the availability of the domain."
      },
      "getRecord(uint256)": {
        "details": "Returns all record of a domain. Reverts if the token is non existent."
      },
      "getRoleAdmin(bytes32)": {
        "details": "Returns the admin role that controls `role`. See {grantRole} and {revokeRole}. To change a role's admin, use {_setRoleAdmin}."
      },
      "getRoleMember(bytes32,uint256)": {
        "details": "Returns one of the accounts that have `role`. `index` must be a value between 0 and {getRoleMemberCount}, non-inclusive. Role bearers are not sorted in any particular way, and their ordering may change at any point. WARNING: When using {getRoleMember} and {getRoleMemberCount}, make sure you perform all queries on the same block. See the following https://forum.openzeppelin.com/t/iterating-over-elements-on-enumerableset-in-openzeppelin-contracts/2296[forum post] for more information."
      },
      "getRoleMemberCount(bytes32)": {
        "details": "Returns the number of accounts that have `role`. Can be used together with {getRoleMember} to enumerate all bearers of a role."
      },
      "grantRole(bytes32,address)": {
        "details": "Grants `role` to `account`. If `account` had not been already granted `role`, emits a {RoleGranted} event. Requirements: - the caller must have ``role``'s admin role. May emit a {RoleGranted} event."
      },
      "hasRole(bytes32,address)": {
        "details": "Returns `true` if `account` has been granted `role`."
      },
      "isApprovedForAll(address,address)": {
        "details": "See {IERC721-isApprovedForAll}."
      },
      "mint(uint256,string,address,address,uint64)": {
        "details": "Mints token for subnode. Requirements: - The token must be available. - The method caller must be (parent) owner or approved spender. See struct {MutableRecord}. Emits an event {RecordUpdated}.",
        "params": {
          "duration": "Duration in second(s) to expire. Leave 0 to set as parent.",
          "label": "The domain label. Eg, label is duke for domain duke.ron.",
          "owner": "The token owner.",
          "parentId": "The parent node to mint or create subnode.",
          "resolver": "The resolver address."
        }
      },
      "name()": {
        "details": "Override {IERC721Metadata-name}."
      },
      "namehash(string)": {
        "details": "Returns the name hash output of a domain."
      },
      "ownerOf(uint256)": {
        "details": "Override {ERC721-ownerOf}."
      },
      "pause()": {
        "details": "Pauses all token transfers. See {ERC721Pausable} and {Pausable-_pause}. Requirements: - the caller must have the `PAUSER_ROLE`."
      },
      "paused()": {
        "details": "Returns true if the contract is paused, and false otherwise."
      },
      "reclaim(uint256,address)": {
        "details": "Reclaims ownership. Update operation for {Record.mut.owner}. Requirements: - The method caller should have controller role. - The method caller should be (parent) owner or approved spender. See struct {MutableRecord}. Emits an event {RecordUpdated}."
      },
      "renew(uint256,uint64)": {
        "details": "Renews token. Update operation for {Record.mut.expiry}. Requirements: - The method caller should have controller role. Emits an event {RecordUpdated}."
      },
      "renounceRole(bytes32,address)": {
        "details": "Revokes `role` from the calling account. Roles are often managed via {grantRole} and {revokeRole}: this function's purpose is to provide a mechanism for accounts to lose their privileges if they are compromised (such as when a trusted device is misplaced). If the calling account had been revoked `role`, emits a {RoleRevoked} event. Requirements: - the caller must be `account`. May emit a {RoleRevoked} event."
      },
      "revokeRole(bytes32,address)": {
        "details": "Revokes `role` from `account`. If `account` had been granted `role`, emits a {RoleRevoked} event. Requirements: - the caller must have ``role``'s admin role. May emit a {RoleRevoked} event."
      },
      "safeTransferFrom(address,address,uint256)": {
        "details": "See {IERC721-safeTransferFrom}."
      },
      "safeTransferFrom(address,address,uint256,bytes)": {
        "details": "See {IERC721-safeTransferFrom}."
      },
      "setApprovalForAll(address,bool)": {
        "details": "See {IERC721-setApprovalForAll}."
      },
      "setBaseURI(string)": {
        "details": "Sets the base uri. Requirements: - The method caller must be contract owner."
      },
      "setExpiry(uint256,uint64)": {
        "details": "Sets expiry time for a token. Update operation for {Record.mut.expiry}. Requirements: - The method caller must have controller role. Emits an event {RecordUpdated}."
      },
      "setGracePeriod(uint64)": {
        "details": "Sets the grace period in second(s). Requirements: - The method caller must have controller role. Note: This period affects the availability of the domain."
      },
      "setRecord(uint256,uint256,(address,address,uint64,bool))": {
        "details": "Sets record of existing token. Update operation for {Record.mut}. Requirements: - The method caller must have role based on the corresponding `indicator`. See struct {MutableRecord}. Emits an event {RecordUpdated}."
      },
      "stateOf(uint256)": {
        "details": "Returns the state of the `_tokenId` ERC721. Requirements: - The token exists."
      },
      "supportsInterface(bytes4)": {
        "details": "Override {ERC165-supportsInterface}."
      },
      "symbol()": {
        "details": "Override {IERC721Metadata-symbol}."
      },
      "tokenByIndex(uint256)": {
        "details": "See {IERC721Enumerable-tokenByIndex}."
      },
      "tokenOfOwnerByIndex(address,uint256)": {
        "details": "See {IERC721Enumerable-tokenOfOwnerByIndex}."
      },
      "tokenURI(uint256)": {
        "details": "Override {IERC721Metadata-tokenURI}."
      },
      "totalMinted()": {
        "details": "Returns the total minted ids. Note: Burning id will not affect `totalMinted`."
      },
      "totalSupply()": {
        "details": "See {IERC721Enumerable-totalSupply}."
      },
      "transferFrom(address,address,uint256)": {
        "details": "See {IERC721-transferFrom}."
      },
      "unpause()": {
        "details": "Unpauses all token transfers. See {ERC721Pausable} and {Pausable-_unpause}. Requirements: - the caller must have the `PAUSER_ROLE`."
      }
    },
    "events": {
      "Approval(address,address,uint256)": {
        "details": "Emitted when `owner` enables `approved` to manage the `tokenId` token."
      },
      "ApprovalForAll(address,address,bool)": {
        "details": "Emitted when `owner` enables or disables (`approved`) `operator` to manage all of its assets."
      },
      "BaseURIUpdated(address,string)": {
        "details": "Emitted when a base URI is updated."
      },
      "GracePeriodUpdated(address,uint64)": {
        "details": "Emitted when the grace period for all domain is updated."
      },
      "Initialized(uint8)": {
        "details": "Triggered when the contract has been initialized or reinitialized."
      },
      "NonceUpdated(uint256,uint256)": {
        "details": "Emitted when the token nonce is updated"
      },
      "Paused(address)": {
        "details": "Emitted when the pause is triggered by `account`."
      },
      "RecordUpdated(uint256,uint256,((uint8,uint256,string),(address,address,uint64,bool)))": {
        "details": "Emitted when the record of node is updated.",
        "params": {
          "indicator": "The binary index of updated fields. Eg, 0b10101011 means fields at position 1, 2, 4, 6, 8 (right to left) needs to be updated.",
          "record": "The updated fields."
        }
      },
      "RoleAdminChanged(bytes32,bytes32,bytes32)": {
        "details": "Emitted when `newAdminRole` is set as ``role``'s admin role, replacing `previousAdminRole` `DEFAULT_ADMIN_ROLE` is the starting admin for all roles, despite {RoleAdminChanged} not being emitted signaling this. _Available since v3.1._"
      },
      "RoleGranted(bytes32,address,address)": {
        "details": "Emitted when `account` is granted `role`. `sender` is the account that originated the contract call, an admin role bearer except when using {AccessControl-_setupRole}."
      },
      "RoleRevoked(bytes32,address,address)": {
        "details": "Emitted when `account` is revoked `role`. `sender` is the account that originated the contract call:   - if using `revokeRole`, it is the admin role bearer   - if using `renounceRole`, it is the role bearer (i.e. `account`)"
      },
      "Transfer(address,address,uint256)": {
        "details": "Emitted when `tokenId` token is transferred from `from` to `to`."
      },
      "Unpaused(address)": {
        "details": "Emitted when the pause is lifted by `account`."
      }
    },
    "errors": {
      "CannotSetImmutableField()": [
        {
          "details": "Error: Attempting to set an immutable field, which cannot be modified."
        }
      ],
      "ExceedParentExpiry()": [
        {
          "details": "Error: The provided id expiry is greater than parent id expiry."
        }
      ],
      "Expired()": [
        {
          "details": "Error: The provided token id is expired."
        }
      ],
      "ExpiryTimeMustBeLargerThanTheOldOne()": [
        {
          "details": "Error: Attempting to set an expiry time that is not larger than the previous one."
        }
      ],
      "MissingControllerRole()": [
        {
          "details": "Error: Missing controller role required for modification."
        }
      ],
      "MissingProtectedSettlerRole()": [
        {
          "details": "Error: Missing protected settler role required for modification."
        }
      ],
      "NameMustBeRegisteredOrInGracePeriod()": [
        {
          "details": "Error: The provided name must be registered or is in a grace period."
        }
      ],
      "Unauthorized()": [
        {
          "details": "Error: The sender lacks the necessary permissions."
        }
      ],
      "Unavailable()": [
        {
          "details": "Error: The provided name is unavailable for registration."
        }
      ],
      "Unexists()": [
        {
          "details": "Error: The provided token id is unexists."
        }
      ]
    }
  },
  "isFoundry": true,
  "nonce": 182605,
  "numDeployments": 3,
  "storageLayout": {
    "storage": [
      {
        "astId": 50078,
        "contract": "src/RNSUnified.sol:RNSUnified",
        "label": "_initialized",
        "offset": 0,
        "slot": "0",
        "type": "t_uint8"
      },
      {
        "astId": 50081,
        "contract": "src/RNSUnified.sol:RNSUnified",
        "label": "_initializing",
        "offset": 1,
        "slot": "0",
        "type": "t_bool"
      },
      {
        "astId": 48551,
        "contract": "src/RNSUnified.sol:RNSUnified",
        "label": "_roles",
        "offset": 0,
        "slot": "1",
        "type": "t_mapping(t_bytes32,t_struct(RoleData)48546_storage)"
      },
      {
        "astId": 48861,
        "contract": "src/RNSUnified.sol:RNSUnified",
        "label": "_roleMembers",
        "offset": 0,
        "slot": "2",
        "type": "t_mapping(t_bytes32,t_struct(AddressSet)54430_storage)"
      },
      {
        "astId": 50439,
        "contract": "src/RNSUnified.sol:RNSUnified",
        "label": "_name",
        "offset": 0,
        "slot": "3",
        "type": "t_string_storage"
      },
      {
        "astId": 50441,
        "contract": "src/RNSUnified.sol:RNSUnified",
        "label": "_symbol",
        "offset": 0,
        "slot": "4",
        "type": "t_string_storage"
      },
      {
        "astId": 50445,
        "contract": "src/RNSUnified.sol:RNSUnified",
        "label": "_owners",
        "offset": 0,
        "slot": "5",
        "type": "t_mapping(t_uint256,t_address)"
      },
      {
        "astId": 50449,
        "contract": "src/RNSUnified.sol:RNSUnified",
        "label": "_balances",
        "offset": 0,
        "slot": "6",
        "type": "t_mapping(t_address,t_uint256)"
      },
      {
        "astId": 50453,
        "contract": "src/RNSUnified.sol:RNSUnified",
        "label": "_tokenApprovals",
        "offset": 0,
        "slot": "7",
        "type": "t_mapping(t_uint256,t_address)"
      },
      {
        "astId": 50459,
        "contract": "src/RNSUnified.sol:RNSUnified",
        "label": "_operatorApprovals",
        "offset": 0,
        "slot": "8",
        "type": "t_mapping(t_address,t_mapping(t_address,t_bool))"
      },
      {
        "astId": 439,
        "contract": "src/RNSUnified.sol:RNSUnified",
        "label": "nonces",
        "offset": 0,
        "slot": "9",
        "type": "t_mapping(t_uint256,t_uint256)"
      },
      {
        "astId": 444,
        "contract": "src/RNSUnified.sol:RNSUnified",
        "label": "______gap",
        "offset": 0,
        "slot": "10",
        "type": "t_array(t_uint256)50_storage"
      },
      {
        "astId": 50258,
        "contract": "src/RNSUnified.sol:RNSUnified",
        "label": "_paused",
        "offset": 0,
        "slot": "60",
        "type": "t_bool"
      },
      {
        "astId": 51519,
        "contract": "src/RNSUnified.sol:RNSUnified",
        "label": "_ownedTokens",
        "offset": 0,
        "slot": "61",
        "type": "t_mapping(t_address,t_mapping(t_uint256,t_uint256))"
      },
      {
        "astId": 51523,
        "contract": "src/RNSUnified.sol:RNSUnified",
        "label": "_ownedTokensIndex",
        "offset": 0,
        "slot": "62",
        "type": "t_mapping(t_uint256,t_uint256)"
      },
      {
        "astId": 51526,
        "contract": "src/RNSUnified.sol:RNSUnified",
        "label": "_allTokens",
        "offset": 0,
        "slot": "63",
        "type": "t_array(t_uint256)dyn_storage"
      },
      {
        "astId": 51530,
        "contract": "src/RNSUnified.sol:RNSUnified",
        "label": "_allTokensIndex",
        "offset": 0,
        "slot": "64",
        "type": "t_mapping(t_uint256,t_uint256)"
      },
      {
        "astId": 61903,
        "contract": "src/RNSUnified.sol:RNSUnified",
        "label": "____gap",
        "offset": 0,
        "slot": "65",
        "type": "t_array(t_uint256)50_storage"
      },
      {
        "astId": 61905,
        "contract": "src/RNSUnified.sol:RNSUnified",
        "label": "_idCounter",
        "offset": 0,
        "slot": "115",
        "type": "t_uint256"
      },
      {
        "astId": 61907,
        "contract": "src/RNSUnified.sol:RNSUnified",
        "label": "_baseTokenURI",
        "offset": 0,
        "slot": "116",
        "type": "t_string_storage"
      },
      {
        "astId": 62193,
        "contract": "src/RNSUnified.sol:RNSUnified",
        "label": "____gap",
        "offset": 0,
        "slot": "117",
        "type": "t_array(t_uint256)50_storage"
      },
      {
        "astId": 62195,
        "contract": "src/RNSUnified.sol:RNSUnified",
        "label": "_gracePeriod",
        "offset": 0,
        "slot": "167",
        "type": "t_uint64"
      },
      {
        "astId": 62201,
        "contract": "src/RNSUnified.sol:RNSUnified",
        "label": "_recordOf",
        "offset": 0,
        "slot": "168",
        "type": "t_mapping(t_uint256,t_struct(Record)65419_storage)"
      }
    ],
    "types": {
      "t_address": {
        "encoding": "inplace",
        "label": "address",
        "numberOfBytes": "20"
      },
      "t_array(t_bytes32)dyn_storage": {
        "encoding": "dynamic_array",
        "label": "bytes32[]",
        "numberOfBytes": "32",
        "base": "t_bytes32"
      },
      "t_array(t_uint256)50_storage": {
        "encoding": "inplace",
        "label": "uint256[50]",
        "numberOfBytes": "1600",
        "base": "t_uint256"
      },
      "t_array(t_uint256)dyn_storage": {
        "encoding": "dynamic_array",
        "label": "uint256[]",
        "numberOfBytes": "32",
        "base": "t_uint256"
      },
      "t_bool": {
        "encoding": "inplace",
        "label": "bool",
        "numberOfBytes": "1"
      },
      "t_bytes32": {
        "encoding": "inplace",
        "label": "bytes32",
        "numberOfBytes": "32"
      },
      "t_mapping(t_address,t_bool)": {
        "encoding": "mapping",
        "key": "t_address",
        "label": "mapping(address => bool)",
        "numberOfBytes": "32",
        "value": "t_bool"
      },
      "t_mapping(t_address,t_mapping(t_address,t_bool))": {
        "encoding": "mapping",
        "key": "t_address",
        "label": "mapping(address => mapping(address => bool))",
        "numberOfBytes": "32",
        "value": "t_mapping(t_address,t_bool)"
      },
      "t_mapping(t_address,t_mapping(t_uint256,t_uint256))": {
        "encoding": "mapping",
        "key": "t_address",
        "label": "mapping(address => mapping(uint256 => uint256))",
        "numberOfBytes": "32",
        "value": "t_mapping(t_uint256,t_uint256)"
      },
      "t_mapping(t_address,t_uint256)": {
        "encoding": "mapping",
        "key": "t_address",
        "label": "mapping(address => uint256)",
        "numberOfBytes": "32",
        "value": "t_uint256"
      },
      "t_mapping(t_bytes32,t_struct(AddressSet)54430_storage)": {
        "encoding": "mapping",
        "key": "t_bytes32",
        "label": "mapping(bytes32 => struct EnumerableSet.AddressSet)",
        "numberOfBytes": "32",
        "value": "t_struct(AddressSet)54430_storage"
      },
      "t_mapping(t_bytes32,t_struct(RoleData)48546_storage)": {
        "encoding": "mapping",
        "key": "t_bytes32",
        "label": "mapping(bytes32 => struct AccessControl.RoleData)",
        "numberOfBytes": "32",
        "value": "t_struct(RoleData)48546_storage"
      },
      "t_mapping(t_bytes32,t_uint256)": {
        "encoding": "mapping",
        "key": "t_bytes32",
        "label": "mapping(bytes32 => uint256)",
        "numberOfBytes": "32",
        "value": "t_uint256"
      },
      "t_mapping(t_uint256,t_address)": {
        "encoding": "mapping",
        "key": "t_uint256",
        "label": "mapping(uint256 => address)",
        "numberOfBytes": "32",
        "value": "t_address"
      },
      "t_mapping(t_uint256,t_struct(Record)65419_storage)": {
        "encoding": "mapping",
        "key": "t_uint256",
        "label": "mapping(uint256 => struct INSUnified.Record)",
        "numberOfBytes": "32",
        "value": "t_struct(Record)65419_storage"
      },
      "t_mapping(t_uint256,t_uint256)": {
        "encoding": "mapping",
        "key": "t_uint256",
        "label": "mapping(uint256 => uint256)",
        "numberOfBytes": "32",
        "value": "t_uint256"
      },
      "t_string_storage": {
        "encoding": "bytes",
        "label": "string",
        "numberOfBytes": "32"
      },
      "t_struct(AddressSet)54430_storage": {
        "encoding": "inplace",
        "label": "struct EnumerableSet.AddressSet",
        "numberOfBytes": "64",
        "members": [
          {
            "astId": 54429,
            "contract": "src/RNSUnified.sol:RNSUnified",
            "label": "_inner",
            "offset": 0,
            "slot": "0",
            "type": "t_struct(Set)54115_storage"
          }
        ]
      },
      "t_struct(ImmutableRecord)65402_storage": {
        "encoding": "inplace",
        "label": "struct INSUnified.ImmutableRecord",
        "numberOfBytes": "96",
        "members": [
          {
            "astId": 65397,
            "contract": "src/RNSUnified.sol:RNSUnified",
            "label": "depth",
            "offset": 0,
            "slot": "0",
            "type": "t_uint8"
          },
          {
            "astId": 65399,
            "contract": "src/RNSUnified.sol:RNSUnified",
            "label": "parentId",
            "offset": 0,
            "slot": "1",
            "type": "t_uint256"
          },
          {
            "astId": 65401,
            "contract": "src/RNSUnified.sol:RNSUnified",
            "label": "label",
            "offset": 0,
            "slot": "2",
            "type": "t_string_storage"
          }
        ]
      },
      "t_struct(MutableRecord)65412_storage": {
        "encoding": "inplace",
        "label": "struct INSUnified.MutableRecord",
        "numberOfBytes": "64",
        "members": [
          {
            "astId": 65405,
            "contract": "src/RNSUnified.sol:RNSUnified",
            "label": "resolver",
            "offset": 0,
            "slot": "0",
            "type": "t_address"
          },
          {
            "astId": 65407,
            "contract": "src/RNSUnified.sol:RNSUnified",
            "label": "owner",
            "offset": 0,
            "slot": "1",
            "type": "t_address"
          },
          {
            "astId": 65409,
            "contract": "src/RNSUnified.sol:RNSUnified",
            "label": "expiry",
            "offset": 20,
            "slot": "1",
            "type": "t_uint64"
          },
          {
            "astId": 65411,
            "contract": "src/RNSUnified.sol:RNSUnified",
            "label": "protected",
            "offset": 28,
            "slot": "1",
            "type": "t_bool"
          }
        ]
      },
      "t_struct(Record)65419_storage": {
        "encoding": "inplace",
        "label": "struct INSUnified.Record",
        "numberOfBytes": "160",
        "members": [
          {
            "astId": 65415,
            "contract": "src/RNSUnified.sol:RNSUnified",
            "label": "immut",
            "offset": 0,
            "slot": "0",
            "type": "t_struct(ImmutableRecord)65402_storage"
          },
          {
            "astId": 65418,
            "contract": "src/RNSUnified.sol:RNSUnified",
            "label": "mut",
            "offset": 0,
            "slot": "3",
            "type": "t_struct(MutableRecord)65412_storage"
          }
        ]
      },
      "t_struct(RoleData)48546_storage": {
        "encoding": "inplace",
        "label": "struct AccessControl.RoleData",
        "numberOfBytes": "64",
        "members": [
          {
            "astId": 48543,
            "contract": "src/RNSUnified.sol:RNSUnified",
            "label": "members",
            "offset": 0,
            "slot": "0",
            "type": "t_mapping(t_address,t_bool)"
          },
          {
            "astId": 48545,
            "contract": "src/RNSUnified.sol:RNSUnified",
            "label": "adminRole",
            "offset": 0,
            "slot": "1",
            "type": "t_bytes32"
          }
        ]
      },
      "t_struct(Set)54115_storage": {
        "encoding": "inplace",
        "label": "struct EnumerableSet.Set",
        "numberOfBytes": "64",
        "members": [
          {
            "astId": 54110,
            "contract": "src/RNSUnified.sol:RNSUnified",
            "label": "_values",
            "offset": 0,
            "slot": "0",
            "type": "t_array(t_bytes32)dyn_storage"
          },
          {
            "astId": 54114,
            "contract": "src/RNSUnified.sol:RNSUnified",
            "label": "_indexes",
            "offset": 0,
            "slot": "1",
            "type": "t_mapping(t_bytes32,t_uint256)"
          }
        ]
      },
      "t_uint256": {
        "encoding": "inplace",
        "label": "uint256",
        "numberOfBytes": "32"
      },
      "t_uint64": {
        "encoding": "inplace",
        "label": "uint64",
        "numberOfBytes": "8"
      },
      "t_uint8": {
        "encoding": "inplace",
        "label": "uint8",
        "numberOfBytes": "1"
      }
    }
  },
  "timestamp": 1698142362,
  "userdoc": {
    "version": 1,
    "kind": "user",
    "methods": {
      "CONTROLLER_ROLE()": {
        "notice": "Can set all fields {Record.mut} in token record, excepting {Record.mut.protected}."
      },
      "PROTECTED_SETTLER_ROLE()": {
        "notice": "Can set field {Record.mut.protected} in token record by using method `bulkSetProtected`."
      },
      "RESERVATION_ROLE()": {
        "notice": "Never expire for token owner has this role."
      },
      "stateOf(uint256)": {
        "notice": "The token state presents the properties of a token at a certain point in time, it should be unique. The token state helps other contracts can verify the token properties without getting and selecting properties from the base contract. For example: ```solidity contract Kitty {   function stateOf(uint256 _tokenId) external view returns (bytes memory) {     return abi.encodePacked(ownerOf(_tokenId), genesOf(_tokenId), levelOf(_tokenId));   } } interface Exchange {   // Buy NFT with the specificed state of `_tokenId`.   function buy(uint256 _tokenId, uint256 _price, bytes calldata _kittyState) external; } ```"
      }
    }
  }
}