{
  "abi": [
    {
      "inputs": [],
      "stateMutability": "payable",
      "type": "constructor"
    },
    {
      "inputs": [],
      "name": "CannotSetImmutableField",
      "type": "error"
    },
    {
      "inputs": [],
      "name": "ExceedParentExpiry",
      "type": "error"
    },
    {
      "inputs": [],
      "name": "Expired",
      "type": "error"
    },
    {
      "inputs": [],
      "name": "ExpiryTimeMustBeLargerThanTheOldOne",
      "type": "error"
    },
    {
      "inputs": [],
      "name": "MissingControllerRole",
      "type": "error"
    },
    {
      "inputs": [],
      "name": "MissingProtectedSettlerRole",
      "type": "error"
    },
    {
      "inputs": [],
      "name": "NameMustBeRegisteredOrInGracePeriod",
      "type": "error"
    },
    {
      "inputs": [],
      "name": "Unauthorized",
      "type": "error"
    },
    {
      "inputs": [],
      "name": "Unavailable",
      "type": "error"
    },
    {
      "inputs": [],
      "name": "Unexists",
      "type": "error"
    },
    {
      "anonymous": false,
      "inputs": [
        {
          "indexed": true,
          "internalType": "address",
          "name": "owner",
          "type": "address"
        },
        {
          "indexed": true,
          "internalType": "address",
          "name": "approved",
          "type": "address"
        },
        {
          "indexed": true,
          "internalType": "uint256",
          "name": "tokenId",
          "type": "uint256"
        }
      ],
      "name": "Approval",
      "type": "event"
    },
    {
      "anonymous": false,
      "inputs": [
        {
          "indexed": true,
          "internalType": "address",
          "name": "owner",
          "type": "address"
        },
        {
          "indexed": true,
          "internalType": "address",
          "name": "operator",
          "type": "address"
        },
        {
          "indexed": false,
          "internalType": "bool",
          "name": "approved",
          "type": "bool"
        }
      ],
      "name": "ApprovalForAll",
      "type": "event"
    },
    {
      "anonymous": false,
      "inputs": [
        {
          "indexed": true,
          "internalType": "address",
          "name": "operator",
          "type": "address"
        },
        {
          "indexed": false,
          "internalType": "string",
          "name": "newURI",
          "type": "string"
        }
      ],
      "name": "BaseURIUpdated",
      "type": "event"
    },
    {
      "anonymous": false,
      "inputs": [
        {
          "indexed": true,
          "internalType": "address",
          "name": "operator",
          "type": "address"
        },
        {
          "indexed": false,
          "internalType": "uint64",
          "name": "newGracePeriod",
          "type": "uint64"
        }
      ],
      "name": "GracePeriodUpdated",
      "type": "event"
    },
    {
      "anonymous": false,
      "inputs": [
        {
          "indexed": false,
          "internalType": "uint8",
          "name": "version",
          "type": "uint8"
        }
      ],
      "name": "Initialized",
      "type": "event"
    },
    {
      "anonymous": false,
      "inputs": [
        {
          "indexed": true,
          "internalType": "uint256",
          "name": "_tokenId",
          "type": "uint256"
        },
        {
          "indexed": true,
          "internalType": "uint256",
          "name": "_nonce",
          "type": "uint256"
        }
      ],
      "name": "NonceUpdated",
      "type": "event"
    },
    {
      "anonymous": false,
      "inputs": [
        {
          "indexed": false,
          "internalType": "address",
          "name": "account",
          "type": "address"
        }
      ],
      "name": "Paused",
      "type": "event"
    },
    {
      "anonymous": false,
      "inputs": [
        {
          "indexed": true,
          "internalType": "uint256",
          "name": "node",
          "type": "uint256"
        },
        {
          "indexed": false,
          "internalType": "ModifyingIndicator",
          "name": "indicator",
          "type": "uint256"
        },
        {
          "components": [
            {
              "components": [
                {
                  "internalType": "uint8",
                  "name": "depth",
                  "type": "uint8"
                },
                {
                  "internalType": "uint256",
                  "name": "parentId",
                  "type": "uint256"
                },
                {
                  "internalType": "string",
                  "name": "label",
                  "type": "string"
                }
              ],
              "internalType": "struct INSUnified.ImmutableRecord",
              "name": "immut",
              "type": "tuple"
            },
            {
              "components": [
                {
                  "internalType": "address",
                  "name": "resolver",
                  "type": "address"
                },
                {
                  "internalType": "address",
                  "name": "owner",
                  "type": "address"
                },
                {
                  "internalType": "uint64",
                  "name": "expiry",
                  "type": "uint64"
                },
                {
                  "internalType": "bool",
                  "name": "protected",
                  "type": "bool"
                }
              ],
              "internalType": "struct INSUnified.MutableRecord",
              "name": "mut",
              "type": "tuple"
            }
          ],
          "indexed": false,
          "internalType": "struct INSUnified.Record",
          "name": "record",
          "type": "tuple"
        }
      ],
      "name": "RecordUpdated",
      "type": "event"
    },
    {
      "anonymous": false,
      "inputs": [
        {
          "indexed": true,
          "internalType": "bytes32",
          "name": "role",
          "type": "bytes32"
        },
        {
          "indexed": true,
          "internalType": "bytes32",
          "name": "previousAdminRole",
          "type": "bytes32"
        },
        {
          "indexed": true,
          "internalType": "bytes32",
          "name": "newAdminRole",
          "type": "bytes32"
        }
      ],
      "name": "RoleAdminChanged",
      "type": "event"
    },
    {
      "anonymous": false,
      "inputs": [
        {
          "indexed": true,
          "internalType": "bytes32",
          "name": "role",
          "type": "bytes32"
        },
        {
          "indexed": true,
          "internalType": "address",
          "name": "account",
          "type": "address"
        },
        {
          "indexed": true,
          "internalType": "address",
          "name": "sender",
          "type": "address"
        }
      ],
      "name": "RoleGranted",
      "type": "event"
    },
    {
      "anonymous": false,
      "inputs": [
        {
          "indexed": true,
          "internalType": "bytes32",
          "name": "role",
          "type": "bytes32"
        },
        {
          "indexed": true,
          "internalType": "address",
          "name": "account",
          "type": "address"
        },
        {
          "indexed": true,
          "internalType": "address",
          "name": "sender",
          "type": "address"
        }
      ],
      "name": "RoleRevoked",
      "type": "event"
    },
    {
      "anonymous": false,
      "inputs": [
        {
          "indexed": true,
          "internalType": "address",
          "name": "from",
          "type": "address"
        },
        {
          "indexed": true,
          "internalType": "address",
          "name": "to",
          "type": "address"
        },
        {
          "indexed": true,
          "internalType": "uint256",
          "name": "tokenId",
          "type": "uint256"
        }
      ],
      "name": "Transfer",
      "type": "event"
    },
    {
      "anonymous": false,
      "inputs": [
        {
          "indexed": false,
          "internalType": "address",
          "name": "account",
          "type": "address"
        }
      ],
      "name": "Unpaused",
      "type": "event"
    },
    {
      "inputs": [],
      "name": "CONTROLLER_ROLE",
      "outputs": [
        {
          "internalType": "bytes32",
          "name": "",
          "type": "bytes32"
        }
      ],
      "stateMutability": "view",
      "type": "function"
    },
    {
      "inputs": [],
      "name": "DEFAULT_ADMIN_ROLE",
      "outputs": [
        {
          "internalType": "bytes32",
          "name": "",
          "type": "bytes32"
        }
      ],
      "stateMutability": "view",
      "type": "function"
    },
    {
      "inputs": [],
      "name": "MAX_EXPIRY",
      "outputs": [
        {
          "internalType": "uint64",
          "name": "",
          "type": "uint64"
        }
      ],
      "stateMutability": "view",
      "type": "function"
    },
    {
      "inputs": [],
      "name": "PAUSER_ROLE",
      "outputs": [
        {
          "internalType": "bytes32",
          "name": "",
          "type": "bytes32"
        }
      ],
      "stateMutability": "view",
      "type": "function"
    },
    {
      "inputs": [],
      "name": "PROTECTED_SETTLER_ROLE",
      "outputs": [
        {
          "internalType": "bytes32",
          "name": "",
          "type": "bytes32"
        }
      ],
      "stateMutability": "view",
      "type": "function"
    },
    {
      "inputs": [],
      "name": "RESERVATION_ROLE",
      "outputs": [
        {
          "internalType": "bytes32",
          "name": "",
          "type": "bytes32"
        }
      ],
      "stateMutability": "view",
      "type": "function"
    },
    {
      "inputs": [
        {
          "internalType": "address",
          "name": "to",
          "type": "address"
        },
        {
          "internalType": "uint256",
          "name": "tokenId",
          "type": "uint256"
        }
      ],
      "name": "approve",
      "outputs": [],
      "stateMutability": "nonpayable",
      "type": "function"
    },
    {
      "inputs": [
        {
          "internalType": "uint256",
          "name": "id",
          "type": "uint256"
        }
      ],
      "name": "available",
      "outputs": [
        {
          "internalType": "bool",
          "name": "",
          "type": "bool"
        }
      ],
      "stateMutability": "view",
      "type": "function"
    },
    {
      "inputs": [
        {
          "internalType": "address",
          "name": "owner",
          "type": "address"
        }
      ],
      "name": "balanceOf",
      "outputs": [
        {
          "internalType": "uint256",
          "name": "",
          "type": "uint256"
        }
      ],
      "stateMutability": "view",
      "type": "function"
    },
    {
      "inputs": [
        {
          "internalType": "uint256[]",
          "name": "ids",
          "type": "uint256[]"
        },
        {
          "internalType": "bool",
          "name": "protected",
          "type": "bool"
        }
      ],
      "name": "bulkSetProtected",
      "outputs": [],
      "stateMutability": "nonpayable",
      "type": "function"
    },
    {
      "inputs": [
        {
          "internalType": "uint256",
          "name": "tokenId",
          "type": "uint256"
        }
      ],
      "name": "burn",
      "outputs": [],
      "stateMutability": "nonpayable",
      "type": "function"
    },
    {
      "inputs": [
        {
          "internalType": "address",
          "name": "requester",
          "type": "address"
        },
        {
          "internalType": "uint256",
          "name": "id",
          "type": "uint256"
        },
        {
          "internalType": "ModifyingIndicator",
          "name": "indicator",
          "type": "uint256"
        }
      ],
      "name": "canSetRecord",
      "outputs": [
        {
          "internalType": "bool",
          "name": "allowed",
          "type": "bool"
        },
        {
          "internalType": "bytes4",
          "name": "",
          "type": "bytes4"
        }
      ],
      "stateMutability": "view",
      "type": "function"
    },
    {
      "inputs": [
        {
          "internalType": "uint256",
          "name": "tokenId",
          "type": "uint256"
        }
      ],
      "name": "getApproved",
      "outputs": [
        {
          "internalType": "address",
          "name": "",
          "type": "address"
        }
      ],
      "stateMutability": "view",
      "type": "function"
    },
    {
      "inputs": [
        {
          "internalType": "uint256",
          "name": "id",
          "type": "uint256"
        }
      ],
      "name": "getDomain",
      "outputs": [
        {
          "internalType": "string",
          "name": "domain",
          "type": "string"
        }
      ],
      "stateMutability": "view",
      "type": "function"
    },
    {
      "inputs": [],
      "name": "getGracePeriod",
      "outputs": [
        {
          "internalType": "uint64",
          "name": "",
          "type": "uint64"
        }
      ],
      "stateMutability": "view",
      "type": "function"
    },
    {
      "inputs": [
        {
          "internalType": "uint256",
          "name": "id",
          "type": "uint256"
        }
      ],
      "name": "getRecord",
      "outputs": [
        {
          "components": [
            {
              "components": [
                {
                  "internalType": "uint8",
                  "name": "depth",
                  "type": "uint8"
                },
                {
                  "internalType": "uint256",
                  "name": "parentId",
                  "type": "uint256"
                },
                {
                  "internalType": "string",
                  "name": "label",
                  "type": "string"
                }
              ],
              "internalType": "struct INSUnified.ImmutableRecord",
              "name": "immut",
              "type": "tuple"
            },
            {
              "components": [
                {
                  "internalType": "address",
                  "name": "resolver",
                  "type": "address"
                },
                {
                  "internalType": "address",
                  "name": "owner",
                  "type": "address"
                },
                {
                  "internalType": "uint64",
                  "name": "expiry",
                  "type": "uint64"
                },
                {
                  "internalType": "bool",
                  "name": "protected",
                  "type": "bool"
                }
              ],
              "internalType": "struct INSUnified.MutableRecord",
              "name": "mut",
              "type": "tuple"
            }
          ],
          "internalType": "struct INSUnified.Record",
          "name": "record",
          "type": "tuple"
        }
      ],
      "stateMutability": "view",
      "type": "function"
    },
    {
      "inputs": [
        {
          "internalType": "bytes32",
          "name": "role",
          "type": "bytes32"
        }
      ],
      "name": "getRoleAdmin",
      "outputs": [
        {
          "internalType": "bytes32",
          "name": "",
          "type": "bytes32"
        }
      ],
      "stateMutability": "view",
      "type": "function"
    },
    {
      "inputs": [
        {
          "internalType": "bytes32",
          "name": "role",
          "type": "bytes32"
        },
        {
          "internalType": "uint256",
          "name": "index",
          "type": "uint256"
        }
      ],
      "name": "getRoleMember",
      "outputs": [
        {
          "internalType": "address",
          "name": "",
          "type": "address"
        }
      ],
      "stateMutability": "view",
      "type": "function"
    },
    {
      "inputs": [
        {
          "internalType": "bytes32",
          "name": "role",
          "type": "bytes32"
        }
      ],
      "name": "getRoleMemberCount",
      "outputs": [
        {
          "internalType": "uint256",
          "name": "",
          "type": "uint256"
        }
      ],
      "stateMutability": "view",
      "type": "function"
    },
    {
      "inputs": [
        {
          "internalType": "bytes32",
          "name": "role",
          "type": "bytes32"
        },
        {
          "internalType": "address",
          "name": "account",
          "type": "address"
        }
      ],
      "name": "grantRole",
      "outputs": [],
      "stateMutability": "nonpayable",
      "type": "function"
    },
    {
      "inputs": [
        {
          "internalType": "bytes32",
          "name": "role",
          "type": "bytes32"
        },
        {
          "internalType": "address",
          "name": "account",
          "type": "address"
        }
      ],
      "name": "hasRole",
      "outputs": [
        {
          "internalType": "bool",
          "name": "",
          "type": "bool"
        }
      ],
      "stateMutability": "view",
      "type": "function"
    },
    {
      "inputs": [
        {
          "internalType": "address",
          "name": "admin",
          "type": "address"
        },
        {
          "internalType": "address",
          "name": "pauser",
          "type": "address"
        },
        {
          "internalType": "address",
          "name": "controller",
          "type": "address"
        },
        {
          "internalType": "address",
          "name": "protectedSettler",
          "type": "address"
        },
        {
          "internalType": "uint64",
          "name": "gracePeriod",
          "type": "uint64"
        },
        {
          "internalType": "string",
          "name": "baseTokenURI",
          "type": "string"
        }
      ],
      "name": "initialize",
      "outputs": [],
      "stateMutability": "nonpayable",
      "type": "function"
    },
    {
      "inputs": [
        {
          "internalType": "address",
          "name": "owner",
          "type": "address"
        },
        {
          "internalType": "address",
          "name": "operator",
          "type": "address"
        }
      ],
      "name": "isApprovedForAll",
      "outputs": [
        {
          "internalType": "bool",
          "name": "",
          "type": "bool"
        }
      ],
      "stateMutability": "view",
      "type": "function"
    },
    {
      "inputs": [
        {
          "internalType": "uint256",
          "name": "parentId",
          "type": "uint256"
        },
        {
          "internalType": "string",
          "name": "label",
          "type": "string"
        },
        {
          "internalType": "address",
          "name": "resolver",
          "type": "address"
        },
        {
          "internalType": "address",
          "name": "owner",
          "type": "address"
        },
        {
          "internalType": "uint64",
          "name": "duration",
          "type": "uint64"
        }
      ],
      "name": "mint",
      "outputs": [
        {
          "internalType": "uint64",
          "name": "expiryTime",
          "type": "uint64"
        },
        {
          "internalType": "uint256",
          "name": "id",
          "type": "uint256"
        }
      ],
      "stateMutability": "nonpayable",
      "type": "function"
    },
    {
      "inputs": [],
      "name": "name",
      "outputs": [
        {
          "internalType": "string",
          "name": "",
          "type": "string"
        }
      ],
      "stateMutability": "view",
      "type": "function"
    },
    {
      "inputs": [
        {
          "internalType": "string",
          "name": "str",
          "type": "string"
        }
      ],
      "name": "namehash",
      "outputs": [
        {
          "internalType": "bytes32",
          "name": "hashed",
          "type": "bytes32"
        }
      ],
      "stateMutability": "pure",
      "type": "function"
    },
    {
      "inputs": [
        {
          "internalType": "uint256",
          "name": "",
          "type": "uint256"
        }
      ],
      "name": "nonces",
      "outputs": [
        {
          "internalType": "uint256",
          "name": "",
          "type": "uint256"
        }
      ],
      "stateMutability": "view",
      "type": "function"
    },
    {
      "inputs": [
        {
          "internalType": "uint256",
          "name": "tokenId",
          "type": "uint256"
        }
      ],
      "name": "ownerOf",
      "outputs": [
        {
          "internalType": "address",
          "name": "",
          "type": "address"
        }
      ],
      "stateMutability": "view",
      "type": "function"
    },
    {
      "inputs": [],
      "name": "pause",
      "outputs": [],
      "stateMutability": "nonpayable",
      "type": "function"
    },
    {
      "inputs": [],
      "name": "paused",
      "outputs": [
        {
          "internalType": "bool",
          "name": "",
          "type": "bool"
        }
      ],
      "stateMutability": "view",
      "type": "function"
    },
    {
      "inputs": [
        {
          "internalType": "uint256",
          "name": "id",
          "type": "uint256"
        },
        {
          "internalType": "address",
          "name": "owner",
          "type": "address"
        }
      ],
      "name": "reclaim",
      "outputs": [],
      "stateMutability": "nonpayable",
      "type": "function"
    },
    {
      "inputs": [
        {
          "internalType": "uint256",
          "name": "id",
          "type": "uint256"
        },
        {
          "internalType": "uint64",
          "name": "duration",
          "type": "uint64"
        }
      ],
      "name": "renew",
      "outputs": [
        {
          "internalType": "uint64",
          "name": "expiry",
          "type": "uint64"
        }
      ],
      "stateMutability": "nonpayable",
      "type": "function"
    },
    {
      "inputs": [
        {
          "internalType": "bytes32",
          "name": "role",
          "type": "bytes32"
        },
        {
          "internalType": "address",
          "name": "account",
          "type": "address"
        }
      ],
      "name": "renounceRole",
      "outputs": [],
      "stateMutability": "nonpayable",
      "type": "function"
    },
    {
      "inputs": [
        {
          "internalType": "bytes32",
          "name": "role",
          "type": "bytes32"
        },
        {
          "internalType": "address",
          "name": "account",
          "type": "address"
        }
      ],
      "name": "revokeRole",
      "outputs": [],
      "stateMutability": "nonpayable",
      "type": "function"
    },
    {
      "inputs": [
        {
          "internalType": "address",
          "name": "from",
          "type": "address"
        },
        {
          "internalType": "address",
          "name": "to",
          "type": "address"
        },
        {
          "internalType": "uint256",
          "name": "tokenId",
          "type": "uint256"
        }
      ],
      "name": "safeTransferFrom",
      "outputs": [],
      "stateMutability": "nonpayable",
      "type": "function"
    },
    {
      "inputs": [
        {
          "internalType": "address",
          "name": "from",
          "type": "address"
        },
        {
          "internalType": "address",
          "name": "to",
          "type": "address"
        },
        {
          "internalType": "uint256",
          "name": "tokenId",
          "type": "uint256"
        },
        {
          "internalType": "bytes",
          "name": "data",
          "type": "bytes"
        }
      ],
      "name": "safeTransferFrom",
      "outputs": [],
      "stateMutability": "nonpayable",
      "type": "function"
    },
    {
      "inputs": [
        {
          "internalType": "address",
          "name": "operator",
          "type": "address"
        },
        {
          "internalType": "bool",
          "name": "approved",
          "type": "bool"
        }
      ],
      "name": "setApprovalForAll",
      "outputs": [],
      "stateMutability": "nonpayable",
      "type": "function"
    },
    {
      "inputs": [
        {
          "internalType": "string",
          "name": "baseTokenURI",
          "type": "string"
        }
      ],
      "name": "setBaseURI",
      "outputs": [],
      "stateMutability": "nonpayable",
      "type": "function"
    },
    {
      "inputs": [
        {
          "internalType": "uint256",
          "name": "id",
          "type": "uint256"
        },
        {
          "internalType": "uint64",
          "name": "expiry",
          "type": "uint64"
        }
      ],
      "name": "setExpiry",
      "outputs": [],
      "stateMutability": "nonpayable",
      "type": "function"
    },
    {
      "inputs": [
        {
          "internalType": "uint64",
          "name": "gracePeriod",
          "type": "uint64"
        }
      ],
      "name": "setGracePeriod",
      "outputs": [],
      "stateMutability": "nonpayable",
      "type": "function"
    },
    {
      "inputs": [
        {
          "internalType": "uint256",
          "name": "id",
          "type": "uint256"
        },
        {
          "internalType": "ModifyingIndicator",
          "name": "indicator",
          "type": "uint256"
        },
        {
          "components": [
            {
              "internalType": "address",
              "name": "resolver",
              "type": "address"
            },
            {
              "internalType": "address",
              "name": "owner",
              "type": "address"
            },
            {
              "internalType": "uint64",
              "name": "expiry",
              "type": "uint64"
            },
            {
              "internalType": "bool",
              "name": "protected",
              "type": "bool"
            }
          ],
          "internalType": "struct INSUnified.MutableRecord",
          "name": "mutRecord",
          "type": "tuple"
        }
      ],
      "name": "setRecord",
      "outputs": [],
      "stateMutability": "nonpayable",
      "type": "function"
    },
    {
      "inputs": [
        {
          "internalType": "uint256",
          "name": "tokenId",
          "type": "uint256"
        }
      ],
      "name": "stateOf",
      "outputs": [
        {
          "internalType": "bytes",
          "name": "",
          "type": "bytes"
        }
      ],
      "stateMutability": "view",
      "type": "function"
    },
    {
      "inputs": [
        {
          "internalType": "bytes4",
          "name": "interfaceId",
          "type": "bytes4"
        }
      ],
      "name": "supportsInterface",
      "outputs": [
        {
          "internalType": "bool",
          "name": "",
          "type": "bool"
        }
      ],
      "stateMutability": "view",
      "type": "function"
    },
    {
      "inputs": [],
      "name": "symbol",
      "outputs": [
        {
          "internalType": "string",
          "name": "",
          "type": "string"
        }
      ],
      "stateMutability": "view",
      "type": "function"
    },
    {
      "inputs": [
        {
          "internalType": "uint256",
          "name": "index",
          "type": "uint256"
        }
      ],
      "name": "tokenByIndex",
      "outputs": [
        {
          "internalType": "uint256",
          "name": "",
          "type": "uint256"
        }
      ],
      "stateMutability": "view",
      "type": "function"
    },
    {
      "inputs": [
        {
          "internalType": "address",
          "name": "owner",
          "type": "address"
        },
        {
          "internalType": "uint256",
          "name": "index",
          "type": "uint256"
        }
      ],
      "name": "tokenOfOwnerByIndex",
      "outputs": [
        {
          "internalType": "uint256",
          "name": "",
          "type": "uint256"
        }
      ],
      "stateMutability": "view",
      "type": "function"
    },
    {
      "inputs": [
        {
          "internalType": "uint256",
          "name": "tokenId",
          "type": "uint256"
        }
      ],
      "name": "tokenURI",
      "outputs": [
        {
          "internalType": "string",
          "name": "",
          "type": "string"
        }
      ],
      "stateMutability": "view",
      "type": "function"
    },
    {
      "inputs": [],
      "name": "totalMinted",
      "outputs": [
        {
          "internalType": "uint256",
          "name": "",
          "type": "uint256"
        }
      ],
      "stateMutability": "view",
      "type": "function"
    },
    {
      "inputs": [],
      "name": "totalSupply",
      "outputs": [
        {
          "internalType": "uint256",
          "name": "",
          "type": "uint256"
        }
      ],
      "stateMutability": "view",
      "type": "function"
    },
    {
      "inputs": [
        {
          "internalType": "address",
          "name": "from",
          "type": "address"
        },
        {
          "internalType": "address",
          "name": "to",
          "type": "address"
        },
        {
          "internalType": "uint256",
          "name": "tokenId",
          "type": "uint256"
        }
      ],
      "name": "transferFrom",
      "outputs": [],
      "stateMutability": "nonpayable",
      "type": "function"
    },
    {
      "inputs": [],
      "name": "unpause",
      "outputs": [],
      "stateMutability": "nonpayable",
      "type": "function"
    }
  ],
  "address": "0x713139B9F92d4f2BC54832a47200B7b8C6718158",
  "args": "0x",
  "blockNumber": 21224275,
  "bytecode": "0x6000608081815260c060405260a09182529060036200001f8382620001b1565b5060046200002e8282620001b1565b5050603c805460ff1916905550620000456200004b565b6200027d565b600054610100900460ff1615620000b85760405162461bcd60e51b815260206004820152602760248201527f496e697469616c697a61626c653a20636f6e747261637420697320696e697469604482015266616c697a696e6760c81b606482015260840160405180910390fd5b60005460ff908116146200010a576000805460ff191660ff9081179091556040519081527f7f26b83ff96e1f2b6a682f133852f6798a09c465da95921460cefb38474024989060200160405180910390a15b565b634e487b7160e01b600052604160045260246000fd5b600181811c908216806200013757607f821691505b6020821081036200015857634e487b7160e01b600052602260045260246000fd5b50919050565b601f821115620001ac57600081815260208120601f850160051c81016020861015620001875750805b601f850160051c820191505b81811015620001a85782815560010162000193565b5050505b505050565b81516001600160401b03811115620001cd57620001cd6200010c565b620001e581620001de845462000122565b846200015e565b602080601f8311600181146200021d5760008415620002045750858301515b600019600386901b1c1916600185901b178555620001a8565b600085815260208120601f198616915b828110156200024e578886015182559484019460019091019084016200022d565b50858210156200026d5787850151600019600388901b60f8161c191681555b5050505050600190811b01905550565b6142b3806200028d6000396000f3fe608060405234801561001057600080fd5b50600436106102f15760003560e01c806355a5133b1161019d578063abfaf005116100e9578063dbd18388116100a2578063ec63b01f1161007c578063ec63b01f1461072b578063f1e379081461073e578063fc284d1114610765578063fd3fa9191461077857600080fd5b8063dbd18388146106c9578063e63ab1e9146106da578063e985e9c5146106ef57600080fd5b8063abfaf0051461065c578063b88d4fde1461066f578063b967169014610682578063c87b56dd14610690578063ca15c873146106a3578063d547741f146106b657600080fd5b80639010d07c1161015657806396e494e81161013057806396e494e814610626578063a217fddf14610639578063a22cb46514610641578063a2309ff81461065457600080fd5b80639010d07c146105e157806391d14854146105f457806395d89b411461060757600080fd5b806355a5133b1461058257806355f804b3146105955780635c975abb146105a85780636352211e146105b357806370a08231146105c65780638456cb59146105d957600080fd5b80631cfa6ec01161025c57806333855d9f1161021557806342842e0e116101ef57806342842e0e1461051e57806342966c68146105315780634f6ccce7146105445780635569f33d1461055757600080fd5b806333855d9f146104ee57806336568abe146105035780633f4ba83a1461051657600080fd5b80631cfa6ec01461046b57806323b872dd1461047e578063248a9ca31461049157806328ed4f6c146104b55780632f2ff15d146104c85780632f745c59146104db57600080fd5b8063095ea7b3116102ae578063095ea7b3146103f5578063098799621461040a578063131a7e241461041d578063141a468c1461043057806318160ddd146104505780631a7a98e21461045857600080fd5b806301ffc9a7146102f657806303e9e6091461031e5780630570891f1461033e57806306fdde0314610370578063081812fc146103a7578063092c5b3b146103d2575b600080fd5b61030961030436600461345a565b6107ab565b60405190151581526020015b60405180910390f35b61033161032c366004613477565b6107d7565b6040516103159190613564565b61035161034c3660046135f2565b61092d565b604080516001600160401b039093168352602083019190915201610315565b604080518082019091526012815271526f6e696e204e616d65205365727669636560701b60208201525b604051610315919061366f565b6103ba6103b5366004613477565b610bba565b6040516001600160a01b039091168152602001610315565b6103e760008051602061423e83398151915281565b604051908152602001610315565b610408610403366004613682565b610be1565b005b6103e7610418366004613737565b610cfb565b61039a61042b366004613477565b610d06565b6103e761043e366004613477565b60096020526000908152604090205481565b603f546103e7565b61039a610466366004613477565b610d53565b61040861047936600461377f565b610e5f565b61040861048c3660046137c0565b610ff4565b6103e761049f366004613477565b6000908152600160208190526040909120015490565b6104086104c33660046137fc565b611026565b6104086104d63660046137fc565b611080565b6103e76104e9366004613682565b6110a6565b6103e760008051602061421e83398151915281565b6104086105113660046137fc565b61113c565b6104086111ba565b61040861052c3660046137c0565b6111dd565b61040861053f366004613477565b6111f8565b6103e7610552366004613477565b611226565b61056a610565366004613828565b6112b9565b6040516001600160401b039091168152602001610315565b61040861059036600461384b565b61137e565b6104086105a3366004613866565b6113a7565b603c5460ff16610309565b6103ba6105c1366004613477565b6113bc565b6103e76105d43660046138a7565b6113dd565b610408611463565b6103ba6105ef3660046138c2565b611483565b6103096106023660046137fc565b6114a2565b604080518082019091526003815262524e5360e81b602082015261039a565b610309610634366004613477565b6114cd565b6103e7600081565b61040861064f3660046138f4565b6114f8565b6073546103e7565b61040861066a36600461391e565b611503565b61040861067d3660046139b4565b61171b565b61056a6001600160401b0381565b61039a61069e366004613477565b61174d565b6103e76106b1366004613477565b6117c0565b6104086106c43660046137fc565b6117d7565b60a7546001600160401b031661056a565b6103e760008051602061425e83398151915281565b6103096106fd366004613a2f565b6001600160a01b03918216600090815260086020908152604080832093909416825291909152205460ff1690565b610408610739366004613a59565b6117fd565b6103e77f87a2b33e0b98030e29c3d23d732aa654f29b298e3891758d5f02a8b01c4840b281565b610408610773366004613828565b611907565b61078b610786366004613adc565b611988565b6040805192151583526001600160e01b0319909116602083015201610315565b60006107b682611aba565b806107d157506001600160e01b03198216630106c78f60e21b145b92915050565b6107df6133e8565b600082815260a8602052604090819020815160a081018352815460ff1692810192835260018201546060820152600282018054919384929091849160808501919061082990613b0f565b80601f016020809104026020016040519081016040528092919081815260200182805461085590613b0f565b80156108a25780601f10610877576101008083540402835291602001916108a2565b820191906000526020600020905b81548152906001019060200180831161088557829003601f168201915b5050509190925250505081526040805160808101825260038401546001600160a01b039081168252600490940154938416602080830191909152600160a01b85046001600160401b031692820192909252600160e01b90930460ff16151560608401520152905061091282611adf565b60208201516001600160401b03909116604090910152919050565b600080610938611b5b565b6109423389611ba3565b61095e576040516282b42960e81b815260040160405180910390fd5b61099e8888888080601f016020809104026020016040519081016040528093929190818152602001838380828437600092019190915250611bbf92505050565b90506109a9816114cd565b6109c65760405163a3b8915f60e01b815260040160405180910390fd5b6109cf81611bd5565b156109dd576109dd81611bf2565b6109e78482611c2e565b6109fc426001600160401b0380861690611c41565b9150610a088883611c77565b610a106133e8565b604080516080810182526001600160a01b03808916825287166020808301919091526001600160401b038616828401526000606080840182905285830193909352835192830184528c815260a890915291909120548190610a759060ff166001613b59565b60ff1681526020018a815260200189898080601f01602080910402602001604051908101604052809392919081815260200183838082843760009201829052509390945250509183525082815260a8602090815260409182902083518051825460ff191660ff909116178255918201516001820155918101518392919082906002820190610b039082613bc0565b50505060209182015180516003830180546001600160a01b039283166001600160a01b031990911617905592810151600490920180546040808401516060909401511515600160e01b0260ff60e01b196001600160401b03909516600160a01b026001600160e01b031990931695909616949094171791909116929092179091555182906000805160206141fe83398151915290610ba690600019908590613c7f565b60405180910390a250965096945050505050565b6000610bc582611cbd565b506000908152600760205260409020546001600160a01b031690565b6000610bec82611d0d565b9050806001600160a01b0316836001600160a01b031603610c5e5760405162461bcd60e51b815260206004820152602160248201527f4552433732313a20617070726f76616c20746f2063757272656e74206f776e656044820152603960f91b60648201526084015b60405180910390fd5b336001600160a01b0382161480610c7a5750610c7a81336106fd565b610cec5760405162461bcd60e51b815260206004820152603d60248201527f4552433732313a20617070726f76652063616c6c6572206973206e6f7420746f60448201527f6b656e206f776e6572206f7220617070726f76656420666f7220616c6c0000006064820152608401610c55565b610cf68383611d6d565b505050565b60006107d182611ddb565b606081610d1281611cbd565b600083815260a8602090815260408083206009835292819020549051610d3b9392879101613c98565b60405160208183030381529060405291505b50919050565b606081600003610d7157505060408051602081019091526000815290565b600082815260a860205260409020600281018054610d8e90613b0f565b80601f0160208091040260200160405190810160405280929190818152602001828054610dba90613b0f565b8015610e075780601f10610ddc57610100808354040283529160200191610e07565b820191906000526020600020905b815481529060010190602001808311610dea57829003601f168201915b50505050509150806001015492505b8215610d4d5750600082815260a860209081526040918290209151610e42918491600285019101613da6565b604051602081830303815290604052915080600101549250610e16565b610e67611b5b565b8282610e738282611e4e565b610e7b6133e8565b600086815260a860205260409020600301610ea0610e996006611e6f565b8790611e91565b15610ee157610eb56080860160608701613e58565b6020830151901515606090910181905260018201805460ff60e01b1916600160e01b9092029190911790555b610eee610e996005611e6f565b15610f2457610f2487610f07606088016040890161384b565b60208501516001600160401b039091166040909101819052611e9d565b610f31610e996003611e6f565b15610f6757610f4360208601866138a7565b60208301516001600160a01b039091169081905281546001600160a01b0319161781555b866000805160206141fe8339815191528784604051610f87929190613c7f565b60405180910390a2610f9c610e996004611e6f565b15610feb57600087815260a8602090815260409182902060040154610feb926001600160a01b0390911691610fd59189019089016138a7565b8960405180602001604052806000815250611f76565b50505050505050565b610fff335b82611fa9565b61101b5760405162461bcd60e51b8152600401610c5590613e73565b610cf6838383611fcb565b61102e611b5b565b816110396004611e6f565b6110438282611e4e565b600084815260a86020908152604080832060040154815192830190915291815261107a916001600160a01b03169085908790611f76565b50505050565b6000828152600160208190526040909120015461109c816120c7565b610cf683836120d1565b60006110b1836113dd565b82106111135760405162461bcd60e51b815260206004820152602b60248201527f455243373231456e756d657261626c653a206f776e657220696e646578206f7560448201526a74206f6620626f756e647360a81b6064820152608401610c55565b506001600160a01b03919091166000908152603d60209081526040808320938352929052205490565b6001600160a01b03811633146111ac5760405162461bcd60e51b815260206004820152602f60248201527f416363657373436f6e74726f6c3a2063616e206f6e6c792072656e6f756e636560448201526e103937b632b9903337b91039b2b63360891b6064820152608401610c55565b6111b682826120f3565b5050565b60008051602061425e8339815191526111d2816120c7565b6111da612115565b50565b610cf68383836040518060200160405280600081525061171b565b61120133610ff9565b61121d5760405162461bcd60e51b8152600401610c5590613e73565b6111da81611bf2565b6000611231603f5490565b82106112945760405162461bcd60e51b815260206004820152602c60248201527f455243373231456e756d657261626c653a20676c6f62616c20696e646578206f60448201526b7574206f6620626f756e647360a01b6064820152608401610c55565b603f82815481106112a7576112a7613ec0565b90600052602060002001549050919050565b60006112c3611b5b565b60008051602061423e8339815191526112db816120c7565b6112e36133e8565b600085815260a86020526040902060040154611315906001600160401b03600160a01b90910481169086811690611c41565b6020820180516001600160401b0390921660409283015251015161133a908690611e9d565b6020810151604001519250846000805160206141fe83398151915261135f6005611e6f565b8360405161136e929190613c7f565b60405180910390a2505092915050565b611386611b5b565b60008051602061423e83398151915261139e816120c7565b6111b682612167565b60006113b2816120c7565b610cf683836121bf565b60006113c782612214565b156113d457506000919050565b6107d182611d0d565b60006001600160a01b0382166114475760405162461bcd60e51b815260206004820152602960248201527f4552433732313a2061646472657373207a65726f206973206e6f7420612076616044820152683634b21037bbb732b960b91b6064820152608401610c55565b506001600160a01b031660009081526006602052604090205490565b60008051602061425e83398151915261147b816120c7565b6111da612230565b600082815260026020526040812061149b908361226d565b9392505050565b60009182526001602090815260408084206001600160a01b0393909316845291905290205460ff1690565b60006114f06114db83611adf565b60a7546001600160401b039182169116612279565b421192915050565b6111b633838361228d565b600054610100900460ff16158080156115235750600054600160ff909116105b8061153d5750303b15801561153d575060005460ff166001145b6115a05760405162461bcd60e51b815260206004820152602e60248201527f496e697469616c697a61626c653a20636f6e747261637420697320616c72656160448201526d191e481a5b9a5d1a585b1a5e995960921b6064820152608401610c55565b6000805460ff1916600117905580156115c3576000805461ff0019166101001790555b6115ce6000896120d1565b6115e660008051602061425e833981519152886120d1565b6115fe60008051602061423e833981519152876120d1565b61161660008051602061421e833981519152866120d1565b61162083836121bf565b61162984612167565b611634886000611c2e565b61163c6133e8565b6020808201516001600160401b03604090910152600080805260a89091527f89f57ae4d64764caecd045b845cfc13a5b86ba807e4a61f32108661671e72867805467ffffffffffffffff60a01b191667ffffffffffffffff60a01b1790556000805160206141fe8339815191526116b36005611e6f565b836040516116c2929190613c7f565b60405180910390a2508015611711576000805461ff0019169055604051600181527f7f26b83ff96e1f2b6a682f133852f6798a09c465da95921460cefb38474024989060200160405180910390a15b5050505050505050565b6117253383611fa9565b6117415760405162461bcd60e51b8152600401610c5590613e73565b61107a84848484611f76565b60608161175981611cbd565b600061176361235b565b9050600081511161178357604051806020016040528060008152506117b8565b8061178d306123ed565b61179686612403565b6040516020016117a893929190613ed6565b6040516020818303038152906040525b949350505050565b60008181526002602052604081206107d190612495565b600082815260016020819052604090912001546117f3816120c7565b610cf683836120f3565b60008051602061421e833981519152611815816120c7565b60006118216006611e6f565b9050600061182d6133e8565b602081015185151560609091015260005b868110156117115787878281811061185857611858613ec0565b90506020020135925061186a83611bd5565b611887576040516304a3dbd560e51b815260040160405180910390fd5b600083815260a8602052604090206004015460ff600160e01b909104161515861515146118ff57600083815260a8602052604090819020600401805460ff60e01b1916600160e01b891515021790555183906000805160206141fe833981519152906118f69087908690613c7f565b60405180910390a25b60010161183e565b61190f611b5b565b60008051602061423e833981519152611927816120c7565b61192f6133e8565b60208101516001600160401b0384166040909101819052611951908590611e9d565b836000805160206141fe83398151915261196b6005611e6f565b8360405161197a929190613c7f565b60405180910390a250505050565b600080611996836007611e91565b156119ad57506000905063da698a4d60e01b611ab2565b6119b684611bd5565b6119cc5750600090506304a3dbd560e51b611ab2565b6119e06119d96006611e6f565b8490611e91565b8015611a0157506119ff60008051602061421e833981519152866114a2565b155b15611a1857506000905063c24b0f3f60e01b611ab2565b6000611a3260008051602061423e833981519152876114a2565b9050611a48611a416005611e6f565b8590611e91565b8015611a52575080155b15611a6b57506000915063ed4b948760e01b9050611ab2565b611a76846018611e91565b8015611a9057508080611a8e5750611a8e8686611ba3565b155b15611aa85750600091506282b42960e81b9050611ab2565b5060019150600090505b935093915050565b60006001600160e01b0319821663780e9d6360e01b14806107d157506107d18261249f565b600081815260056020526040812054611b22907f87a2b33e0b98030e29c3d23d732aa654f29b298e3891758d5f02a8b01c4840b2906001600160a01b03166114a2565b15611b3557506001600160401b03919050565b50600090815260a86020526040902060040154600160a01b90046001600160401b031690565b603c5460ff1615611ba15760405162461bcd60e51b815260206004820152601060248201526f14185d5cd8589b194e881c185d5cd95960821b6044820152606401610c55565b565b6000611baf8383611fa9565b8061149b575061149b83836124df565b6000918252805160209182012090526040902090565b6000908152600560205260409020546001600160a01b0316151590565b611bfb8161253d565b600090815260a8602052604090206003810180546001600160a01b031916905560040180546001600160e81b0319169055565b6073805460010190556111b682826125e0565b600081841180611c5057508183115b15611c5c57508061149b565b611c668484612279565b90508181111561149b575092915050565b600082815260a860205260409020600401546001600160401b03600160a01b909104811690821611156111b65760405163da87d84960e01b815260040160405180910390fd5b611cc681611bd5565b6111da5760405162461bcd60e51b8152602060048201526018602482015277115490cdcc8c4e881a5b9d985b1a59081d1bdad95b88125160421b6044820152606401610c55565b6000818152600560205260408120546001600160a01b0316806107d15760405162461bcd60e51b8152602060048201526018602482015277115490cdcc8c4e881a5b9d985b1a59081d1bdad95b88125160421b6044820152606401610c55565b600081815260076020526040902080546001600160a01b0319166001600160a01b0384169081179091558190611da282611d0d565b6001600160a01b03167f8c5be1e5ebec7d5bd14f71427d1e84f3dd0314c0f7b2291e5b200ac8c7c3b92560405160405180910390a45050565b600081518015611e445760006020840160018303810160008052805b828110611e3f57828114602e600183035160f81c1480821715611e3457600186848603030180842060205260406000206000526001810187019650505b505060001901611df7565b505050505b5050600051919050565b600080611e5c338585611988565b915091508161107a578060005260046000fd5b6000816006811115611e8357611e83613e42565b60ff166001901b9050919050565b6000828216151561149b565b600082815260a86020526040902060010154611eb99082611c77565b611ec2826114cd565b15611ee057604051631395a92360e01b815260040160405180910390fd5b600082815260a860205260409020600401546001600160401b03600160a01b909104811690821611611f2557604051631c21962760e11b815260040160405180910390fd5b611f2d6133e8565b6020908101516001600160401b03929092166040928301819052600093845260a89091529120600401805467ffffffffffffffff60a01b1916600160a01b909202919091179055565b611f81848484611fcb565b611f8d8484848461275b565b61107a5760405162461bcd60e51b8152600401610c5590613f26565b6000611fb482612214565b15611fc1575060006107d1565b61149b838361285c565b611fd68383836128da565b611fde6133e8565b6000611fea6004611e6f565b6020838101516001600160a01b038716908201819052600086815260a8909252604090912060040180546001600160a01b0319169091179055905061203d60008051602061421e833981519152336114a2565b1580156120625750600083815260a86020526040902060040154600160e01b900460ff165b1561209857600083815260a860205260409020600401805460ff60e01b19169055612095816120916006611e6f565b1790565b90505b826000805160206141fe83398151915282846040516120b8929190613c7f565b60405180910390a25050505050565b6111da8133612a4b565b6120db8282612aa4565b6000828152600260205260409020610cf69082612b0f565b6120fd8282612b24565b6000828152600260205260409020610cf69082612b8b565b61211d612ba0565b603c805460ff191690557f5db9ee0a495bf2e6ff9c91a7834c1ba4fdd244a5e8aa4e537bd38aeae4b073aa335b6040516001600160a01b03909116815260200160405180910390a1565b60a780546001600160401b03831667ffffffffffffffff199091168117909155604080519182525133917f2f8e6689e76cebc7cf99a782594bd18a73b8d1a0fe640c99fc580dcd4de7cd1d919081900360200190a250565b60746121cc828483613f78565b50336001600160a01b03167ff765b68b6ff897de964353a0eb194e46ecea8772879eb880b4b0fd277124922c8383604051612208929190614037565b60405180910390a25050565b600061221f82611adf565b6001600160401b0316421192915050565b612238611b5b565b603c805460ff191660011790557f62e78cea01bee320cd4e420270b5ea74000d11b0c9f74754ebdbfc544b05a25861214a3390565b600061149b8383612be9565b818101828110156107d157506000196107d1565b816001600160a01b0316836001600160a01b0316036122ee5760405162461bcd60e51b815260206004820152601960248201527f4552433732313a20617070726f766520746f2063616c6c6572000000000000006044820152606401610c55565b6001600160a01b03838116600081815260086020908152604080832094871680845294825291829020805460ff191686151590811790915591519182527f17307eab39ab6107e8899845ad3d59bd9653f200f220920489ca2b5937696c31910160405180910390a3505050565b60606074805461236a90613b0f565b80601f016020809104026020016040519081016040528092919081815260200182805461239690613b0f565b80156123e35780601f106123b8576101008083540402835291602001916123e3565b820191906000526020600020905b8154815290600101906020018083116123c657829003601f168201915b5050505050905090565b60606107d16001600160a01b0383166014612c13565b6060600061241083612dae565b60010190506000816001600160401b0381111561242f5761242f6136ac565b6040519080825280601f01601f191660200182016040528015612459576020820181803683370190505b5090508181016020015b600019016f181899199a1a9b1b9c1cb0b131b232b360811b600a86061a8153600a850494508461246357509392505050565b60006107d1825490565b60006001600160e01b031982166380ac58cd60e01b14806124d057506001600160e01b03198216635b5e139f60e01b145b806107d157506107d182612e86565b6000805b82156125335750600082815260a860205260409020600401546001600160a01b03908116908416810361251a5760019150506107d1565b600092835260a8602052604090922060010154916124e3565b5060009392505050565b600061254882611d0d565b9050612558816000846001612eab565b61256182611d0d565b600083815260076020908152604080832080546001600160a01b03199081169091556001600160a01b0385168085526006845282852080546000190190558785526005909352818420805490911690555192935084927fddf252ad1be2c89b69c2b068fc378daa952ba7f163c4a11628f55a4df523b3ef908390a45050565b6001600160a01b0382166126365760405162461bcd60e51b815260206004820181905260248201527f4552433732313a206d696e7420746f20746865207a65726f20616464726573736044820152606401610c55565b61263f81611bd5565b1561268c5760405162461bcd60e51b815260206004820152601c60248201527f4552433732313a20746f6b656e20616c7265616479206d696e746564000000006044820152606401610c55565b61269a600083836001612eab565b6126a381611bd5565b156126f05760405162461bcd60e51b815260206004820152601c60248201527f4552433732313a20746f6b656e20616c7265616479206d696e746564000000006044820152606401610c55565b6001600160a01b038216600081815260066020908152604080832080546001019055848352600590915280822080546001600160a01b0319168417905551839291907fddf252ad1be2c89b69c2b068fc378daa952ba7f163c4a11628f55a4df523b3ef908290a45050565b60006001600160a01b0384163b1561285157604051630a85bd0160e11b81526001600160a01b0385169063150b7a029061279f903390899088908890600401614066565b6020604051808303816000875af19250505080156127da575060408051601f3d908101601f191682019092526127d7918101906140a3565b60015b612837573d808015612808576040519150601f19603f3d011682016040523d82523d6000602084013e61280d565b606091505b50805160000361282f5760405162461bcd60e51b8152600401610c5590613f26565b805181602001fd5b6001600160e01b031916630a85bd0160e11b1490506117b8565b506001949350505050565b60008061286883611d0d565b9050806001600160a01b0316846001600160a01b031614806128af57506001600160a01b0380821660009081526008602090815260408083209388168352929052205460ff165b806117b85750836001600160a01b03166128c884610bba565b6001600160a01b031614949350505050565b826001600160a01b03166128ed82611d0d565b6001600160a01b0316146129135760405162461bcd60e51b8152600401610c55906140c0565b6001600160a01b0382166129755760405162461bcd60e51b8152602060048201526024808201527f4552433732313a207472616e7366657220746f20746865207a65726f206164646044820152637265737360e01b6064820152608401610c55565b6129828383836001612eab565b826001600160a01b031661299582611d0d565b6001600160a01b0316146129bb5760405162461bcd60e51b8152600401610c55906140c0565b600081815260076020908152604080832080546001600160a01b03199081169091556001600160a01b0387811680865260068552838620805460001901905590871680865283862080546001019055868652600590945282852080549092168417909155905184937fddf252ad1be2c89b69c2b068fc378daa952ba7f163c4a11628f55a4df523b3ef91a4505050565b612a5582826114a2565b6111b657612a62816123ed565b612a6d836020612c13565b604051602001612a7e929190614105565b60408051601f198184030181529082905262461bcd60e51b8252610c559160040161366f565b612aae82826114a2565b6111b65760008281526001602081815260408084206001600160a01b0386168086529252808420805460ff19169093179092559051339285917f2f8788117e7eff1d82e926ec794901d17c78024a50270940304540a733656f0d9190a45050565b600061149b836001600160a01b038416612eb7565b612b2e82826114a2565b156111b65760008281526001602090815260408083206001600160a01b0385168085529252808320805460ff1916905551339285917ff6391f5c32d9c69d2a47ea670b442974b53935d1edc7fd64eb21e047a839171b9190a45050565b600061149b836001600160a01b038416612f06565b603c5460ff16611ba15760405162461bcd60e51b815260206004820152601460248201527314185d5cd8589b194e881b9bdd081c185d5cd95960621b6044820152606401610c55565b6000826000018281548110612c0057612c00613ec0565b9060005260206000200154905092915050565b60606000612c2283600261417a565b612c2d906002614191565b6001600160401b03811115612c4457612c446136ac565b6040519080825280601f01601f191660200182016040528015612c6e576020820181803683370190505b509050600360fc1b81600081518110612c8957612c89613ec0565b60200101906001600160f81b031916908160001a905350600f60fb1b81600181518110612cb857612cb8613ec0565b60200101906001600160f81b031916908160001a9053506000612cdc84600261417a565b612ce7906001614191565b90505b6001811115612d5f576f181899199a1a9b1b9c1cb0b131b232b360811b85600f1660108110612d1b57612d1b613ec0565b1a60f81b828281518110612d3157612d31613ec0565b60200101906001600160f81b031916908160001a90535060049490941c93612d58816141a4565b9050612cea565b50831561149b5760405162461bcd60e51b815260206004820181905260248201527f537472696e67733a20686578206c656e67746820696e73756666696369656e746044820152606401610c55565b60008072184f03e93ff9f4daa797ed6e38ed64bf6a1f0160401b8310612ded5772184f03e93ff9f4daa797ed6e38ed64bf6a1f0160401b830492506040015b6d04ee2d6d415b85acef81000000008310612e19576d04ee2d6d415b85acef8100000000830492506020015b662386f26fc100008310612e3757662386f26fc10000830492506010015b6305f5e1008310612e4f576305f5e100830492506008015b6127108310612e6357612710830492506004015b60648310612e75576064830492506002015b600a83106107d15760010192915050565b60006001600160e01b03198216635a05180f60e01b14806107d157506107d182612ff9565b61107a8484848461302e565b6000818152600183016020526040812054612efe575081546001818101845560008481526020808220909301849055845484825282860190935260409020919091556107d1565b5060006107d1565b60008181526001830160205260408120548015612fef576000612f2a6001836141bb565b8554909150600090612f3e906001906141bb565b9050818114612fa3576000866000018281548110612f5e57612f5e613ec0565b9060005260206000200154905080876000018481548110612f8157612f81613ec0565b6000918252602080832090910192909255918252600188019052604090208390555b8554869080612fb457612fb46141ce565b6001900381819060005260206000200160009055905585600101600086815260200190815260200160002060009055600193505050506107d1565b60009150506107d1565b60006001600160e01b03198216637965db0b60e01b14806107d157506301ffc9a760e01b6001600160e01b03198316146107d1565b61303a8484848461316e565b60018111156130a95760405162461bcd60e51b815260206004820152603560248201527f455243373231456e756d657261626c653a20636f6e7365637574697665207472604482015274185b9cd9995c9cc81b9bdd081cdd5c1c1bdc9d1959605a1b6064820152608401610c55565b816001600160a01b0385166131055761310081603f80546000838152604060208190528120829055600182018355919091527fc03004e3ce0784bf68186394306849f9b7b1200073105cd9aeb554a1802b58fd0155565b613128565b836001600160a01b0316856001600160a01b0316146131285761312885826131e1565b6001600160a01b0384166131445761313f8161327e565b613167565b846001600160a01b0316846001600160a01b03161461316757613167848261332d565b5050505050565b61317a84848484613371565b603c5460ff161561107a5760405162461bcd60e51b815260206004820152602b60248201527f4552433732315061757361626c653a20746f6b656e207472616e73666572207760448201526a1a1a5b19481c185d5cd95960aa1b6064820152608401610c55565b600060016131ee846113dd565b6131f891906141bb565b6000838152603e602052604090205490915080821461324b576001600160a01b0384166000908152603d602090815260408083208584528252808320548484528184208190558352603e90915290208190555b506000918252603e602090815260408084208490556001600160a01b039094168352603d81528383209183525290812055565b603f54600090613290906001906141bb565b600083815260406020819052812054603f80549394509092849081106132b8576132b8613ec0565b9060005260206000200154905080603f83815481106132d9576132d9613ec0565b600091825260208083209091019290925582815260409182905281812084905585815290812055603f805480613311576133116141ce565b6001900381819060005260206000200160009055905550505050565b6000613338836113dd565b6001600160a01b039093166000908152603d602090815260408083208684528252808320859055938252603e9052919091209190915550565b815b61337d8284614191565b8110156133e257600081815260096020526040812080549091906133a0906141e4565b918290555060405182907fcc2c68164f9f7f0c063ba98bcf89498c0f3f5e3acc32bf4ab46195ecb489c13b90600090a3806133da816141e4565b915050613373565b5061107a565b604051806040016040528061341a6040518060600160405280600060ff16815260200160008152602001606081525090565b81526040805160808101825260008082526020828101829052928201819052606082015291015290565b6001600160e01b0319811681146111da57600080fd5b60006020828403121561346c57600080fd5b813561149b81613444565b60006020828403121561348957600080fd5b5035919050565b60005b838110156134ab578181015183820152602001613493565b50506000910152565b600081518084526134cc816020860160208601613490565b601f01601f19169290920160200192915050565b805160a0808452815160ff1690840152602081015160c084015260400151606060e08401526000906135166101008501826134b4565b9050602083015160018060a01b03808251166020870152806020830151166040870152506001600160401b036040820151166060860152606081015115156080860152508091505092915050565b60208152600061149b60208301846134e0565b60008083601f84011261358957600080fd5b5081356001600160401b038111156135a057600080fd5b6020830191508360208285010111156135b857600080fd5b9250929050565b80356001600160a01b03811681146135d657600080fd5b919050565b80356001600160401b03811681146135d657600080fd5b60008060008060008060a0878903121561360b57600080fd5b8635955060208701356001600160401b0381111561362857600080fd5b61363489828a01613577565b90965094506136479050604088016135bf565b9250613655606088016135bf565b9150613663608088016135db565b90509295509295509295565b60208152600061149b60208301846134b4565b6000806040838503121561369557600080fd5b61369e836135bf565b946020939093013593505050565b634e487b7160e01b600052604160045260246000fd5b60006001600160401b03808411156136dc576136dc6136ac565b604051601f8501601f19908116603f01168101908282118183101715613704576137046136ac565b8160405280935085815286868601111561371d57600080fd5b858560208301376000602087830101525050509392505050565b60006020828403121561374957600080fd5b81356001600160401b0381111561375f57600080fd5b8201601f8101841361377057600080fd5b6117b8848235602084016136c2565b600080600083850360c081121561379557600080fd5b84359350602085013592506080603f19820112156137b257600080fd5b506040840190509250925092565b6000806000606084860312156137d557600080fd5b6137de846135bf565b92506137ec602085016135bf565b9150604084013590509250925092565b6000806040838503121561380f57600080fd5b8235915061381f602084016135bf565b90509250929050565b6000806040838503121561383b57600080fd5b8235915061381f602084016135db565b60006020828403121561385d57600080fd5b61149b826135db565b6000806020838503121561387957600080fd5b82356001600160401b0381111561388f57600080fd5b61389b85828601613577565b90969095509350505050565b6000602082840312156138b957600080fd5b61149b826135bf565b600080604083850312156138d557600080fd5b50508035926020909101359150565b803580151581146135d657600080fd5b6000806040838503121561390757600080fd5b613910836135bf565b915061381f602084016138e4565b600080600080600080600060c0888a03121561393957600080fd5b613942886135bf565b9650613950602089016135bf565b955061395e604089016135bf565b945061396c606089016135bf565b935061397a608089016135db565b925060a08801356001600160401b0381111561399557600080fd5b6139a18a828b01613577565b989b979a50959850939692959293505050565b600080600080608085870312156139ca57600080fd5b6139d3856135bf565b93506139e1602086016135bf565b92506040850135915060608501356001600160401b03811115613a0357600080fd5b8501601f81018713613a1457600080fd5b613a23878235602084016136c2565b91505092959194509250565b60008060408385031215613a4257600080fd5b613a4b836135bf565b915061381f602084016135bf565b600080600060408486031215613a6e57600080fd5b83356001600160401b0380821115613a8557600080fd5b818601915086601f830112613a9957600080fd5b813581811115613aa857600080fd5b8760208260051b8501011115613abd57600080fd5b602092830195509350613ad391860190506138e4565b90509250925092565b600080600060608486031215613af157600080fd5b613afa846135bf565b95602085013595506040909401359392505050565b600181811c90821680613b2357607f821691505b602082108103610d4d57634e487b7160e01b600052602260045260246000fd5b634e487b7160e01b600052601160045260246000fd5b60ff81811683821601908111156107d1576107d1613b43565b601f821115610cf657600081815260208120601f850160051c81016020861015613b995750805b601f850160051c820191505b81811015613bb857828155600101613ba5565b505050505050565b81516001600160401b03811115613bd957613bd96136ac565b613bed81613be78454613b0f565b84613b72565b602080601f831160018114613c225760008415613c0a5750858301515b600019600386901b1c1916600185901b178555613bb8565b600085815260208120601f198616915b82811015613c5157888601518255948401946001909101908401613c32565b5085821015613c6f5787850151600019600388901b60f8161c191681555b5050505050600190811b01905550565b8281526040602082015260006117b860408301846134e0565b6060815260a0606082015260ff845416610100820152600060018086015461012084015260028601606061014085015260008154613cd581613b0f565b8061016088015261018085831660008114613cf75760018114613d1157613d42565b60ff1984168983015282151560051b890182019450613d42565b8560005260208060002060005b85811015613d395781548c8201860152908901908201613d1e565b8b018401965050505b50505050613d926080860160038a0180546001600160a01b03908116835260019190910154908116602083015260a081901c6001600160401b0316604083015260e01c60ff161515606090910152565b602085019690965250505060400152919050565b600083516020613db98285838901613490565b8184019150601760f91b8252600160008654613dd481613b0f565b8184168015613dea5760018114613e0357613e33565b60ff198316878601528115158202870185019350613e33565b896000528560002060005b83811015613e29578154898201880152908601908701613e0e565b5050848288010193505b50919998505050505050505050565b634e487b7160e01b600052602160045260246000fd5b600060208284031215613e6a57600080fd5b61149b826138e4565b6020808252602d908201527f4552433732313a2063616c6c6572206973206e6f7420746f6b656e206f776e6560408201526c1c881bdc88185c1c1c9bdd9959609a1b606082015260800190565b634e487b7160e01b600052603260045260246000fd5b60008451613ee8818460208901613490565b845190830190613efc818360208901613490565b602f60f81b91019081528351613f19816001840160208801613490565b0160010195945050505050565b60208082526032908201527f4552433732313a207472616e7366657220746f206e6f6e20455243373231526560408201527131b2b4bb32b91034b6b83632b6b2b73a32b960711b606082015260800190565b6001600160401b03831115613f8f57613f8f6136ac565b613fa383613f9d8354613b0f565b83613b72565b6000601f841160018114613fd75760008515613fbf5750838201355b600019600387901b1c1916600186901b178355613167565b600083815260209020601f19861690835b828110156140085786850135825560209485019460019092019101613fe8565b50868210156140255760001960f88860031b161c19848701351681555b505060018560011b0183555050505050565b60208152816020820152818360408301376000818301604090810191909152601f909201601f19160101919050565b6001600160a01b0385811682528416602082015260408101839052608060608201819052600090614099908301846134b4565b9695505050505050565b6000602082840312156140b557600080fd5b815161149b81613444565b60208082526025908201527f4552433732313a207472616e736665722066726f6d20696e636f72726563742060408201526437bbb732b960d91b606082015260800190565b7f416363657373436f6e74726f6c3a206163636f756e742000000000000000000081526000835161413d816017850160208801613490565b7001034b99036b4b9b9b4b733903937b6329607d1b601791840191820152835161416e816028840160208801613490565b01602801949350505050565b80820281158282048414176107d1576107d1613b43565b808201808211156107d1576107d1613b43565b6000816141b3576141b3613b43565b506000190190565b818103818111156107d1576107d1613b43565b634e487b7160e01b600052603160045260246000fd5b6000600182016141f6576141f6613b43565b506001019056fe1c440effe366cd7c439a4890f8be2342fcaca9b4a192ce8cf2b0e76511b36eba9e4a939112df4627ab5078e49dd57d2c45b4cffd9ae0b912f9fc355e5b1080387b765e0e932d348852a6f810bfa1ab891e259123f02db8cdcde614c57022335765d7a28e3265b37a6474929f336521b332c1681b933f6cb9f3376673440d862aa2646970667358221220301f6572af699c777a4ce459646815492b8048541c5752ac22e91ffe87e5b23064736f6c63430008150033",
  "chainId": 2021,
  "contractName": "RNSUnified",
  "deployer": "0x968D0Cd7343f711216817E617d3f92a23dC91c07",
  "devdoc": {
    "version": 1,
    "kind": "dev",
    "methods": {
      "approve(address,uint256)": {
        "details": "See {IERC721-approve}."
      },
      "available(uint256)": {
        "details": "Returns true if the specified name is available for registration. Note: Only available after passing the grace period."
      },
      "balanceOf(address)": {
        "details": "See {IERC721-balanceOf}."
      },
      "bulkSetProtected(uint256[],bool)": {
        "details": "Sets the protected status of a list of ids. Update operation for {Record.mut.protected}. Requirements: - The method caller must have protected setter role. Emits events {RecordUpdated}."
      },
      "burn(uint256)": {
        "details": "Burns `tokenId`. See {ERC721-_burn}. Requirements: - The caller must own `tokenId` or be an approved operator."
      },
      "canSetRecord(address,uint256,uint256)": {
        "details": "Returns whether the requester is able to modify the record based on the updated index. Note: This method strictly follows the permission of struct {MutableRecord}."
      },
      "getApproved(uint256)": {
        "details": "See {IERC721-getApproved}."
      },
      "getDomain(uint256)": {
        "details": "Returns the domain name of id."
      },
      "getGracePeriod()": {
        "details": "Returns the grace period in second(s). Note: This period affects the availability of the domain."
      },
      "getRecord(uint256)": {
        "details": "Returns all record of a domain. Reverts if the token is non existent."
      },
      "getRoleAdmin(bytes32)": {
        "details": "Returns the admin role that controls `role`. See {grantRole} and {revokeRole}. To change a role's admin, use {_setRoleAdmin}."
      },
      "getRoleMember(bytes32,uint256)": {
        "details": "Returns one of the accounts that have `role`. `index` must be a value between 0 and {getRoleMemberCount}, non-inclusive. Role bearers are not sorted in any particular way, and their ordering may change at any point. WARNING: When using {getRoleMember} and {getRoleMemberCount}, make sure you perform all queries on the same block. See the following https://forum.openzeppelin.com/t/iterating-over-elements-on-enumerableset-in-openzeppelin-contracts/2296[forum post] for more information."
      },
      "getRoleMemberCount(bytes32)": {
        "details": "Returns the number of accounts that have `role`. Can be used together with {getRoleMember} to enumerate all bearers of a role."
      },
      "grantRole(bytes32,address)": {
        "details": "Grants `role` to `account`. If `account` had not been already granted `role`, emits a {RoleGranted} event. Requirements: - the caller must have ``role``'s admin role. May emit a {RoleGranted} event."
      },
      "hasRole(bytes32,address)": {
        "details": "Returns `true` if `account` has been granted `role`."
      },
      "isApprovedForAll(address,address)": {
        "details": "See {IERC721-isApprovedForAll}."
      },
      "mint(uint256,string,address,address,uint64)": {
        "details": "Mints token for subnode. Requirements: - The token must be available. - The method caller must be (parent) owner or approved spender. See struct {MutableRecord}. Emits an event {RecordUpdated}.",
        "params": {
          "duration": "Duration in second(s) to expire. Leave 0 to set as parent.",
          "label": "The domain label. Eg, label is duke for domain duke.ron.",
          "owner": "The token owner.",
          "parentId": "The parent node to mint or create subnode.",
          "resolver": "The resolver address."
        }
      },
      "name()": {
        "details": "Override {IERC721Metadata-name}."
      },
      "namehash(string)": {
        "details": "Returns the name hash output of a domain."
      },
      "ownerOf(uint256)": {
        "details": "Override {ERC721-ownerOf}."
      },
      "pause()": {
        "details": "Pauses all token transfers. See {ERC721Pausable} and {Pausable-_pause}. Requirements: - the caller must have the `PAUSER_ROLE`."
      },
      "paused()": {
        "details": "Returns true if the contract is paused, and false otherwise."
      },
      "reclaim(uint256,address)": {
        "details": "Reclaims ownership. Update operation for {Record.mut.owner}. Requirements: - The method caller should have controller role. - The method caller should be (parent) owner or approved spender. See struct {MutableRecord}. Emits an event {RecordUpdated}."
      },
      "renew(uint256,uint64)": {
        "details": "Renews token. Update operation for {Record.mut.expiry}. Requirements: - The method caller should have controller role. Emits an event {RecordUpdated}."
      },
      "renounceRole(bytes32,address)": {
        "details": "Revokes `role` from the calling account. Roles are often managed via {grantRole} and {revokeRole}: this function's purpose is to provide a mechanism for accounts to lose their privileges if they are compromised (such as when a trusted device is misplaced). If the calling account had been revoked `role`, emits a {RoleRevoked} event. Requirements: - the caller must be `account`. May emit a {RoleRevoked} event."
      },
      "revokeRole(bytes32,address)": {
        "details": "Revokes `role` from `account`. If `account` had been granted `role`, emits a {RoleRevoked} event. Requirements: - the caller must have ``role``'s admin role. May emit a {RoleRevoked} event."
      },
      "safeTransferFrom(address,address,uint256)": {
        "details": "See {IERC721-safeTransferFrom}."
      },
      "safeTransferFrom(address,address,uint256,bytes)": {
        "details": "See {IERC721-safeTransferFrom}."
      },
      "setApprovalForAll(address,bool)": {
        "details": "See {IERC721-setApprovalForAll}."
      },
      "setBaseURI(string)": {
        "details": "Sets the base uri. Requirements: - The method caller must be contract owner."
      },
      "setExpiry(uint256,uint64)": {
        "details": "Sets expiry time for a token. Update operation for {Record.mut.expiry}. Requirements: - The method caller must have controller role. Emits an event {RecordUpdated}."
      },
      "setGracePeriod(uint64)": {
        "details": "Sets the grace period in second(s). Requirements: - The method caller must have controller role. Note: This period affects the availability of the domain."
      },
      "setRecord(uint256,uint256,(address,address,uint64,bool))": {
        "details": "Sets record of existing token. Update operation for {Record.mut}. Requirements: - The method caller must have role based on the corresponding `indicator`. See struct {MutableRecord}. Emits an event {RecordUpdated}."
      },
      "stateOf(uint256)": {
        "details": "Returns the state of the `_tokenId` ERC721. Requirements: - The token exists."
      },
      "supportsInterface(bytes4)": {
        "details": "Override {ERC165-supportsInterface}."
      },
      "symbol()": {
        "details": "Override {IERC721Metadata-symbol}."
      },
      "tokenByIndex(uint256)": {
        "details": "See {IERC721Enumerable-tokenByIndex}."
      },
      "tokenOfOwnerByIndex(address,uint256)": {
        "details": "See {IERC721Enumerable-tokenOfOwnerByIndex}."
      },
      "tokenURI(uint256)": {
        "details": "Override {IERC721Metadata-tokenURI}."
      },
      "totalMinted()": {
        "details": "Returns the total minted ids. Note: Burning id will not affect `totalMinted`."
      },
      "totalSupply()": {
        "details": "See {IERC721Enumerable-totalSupply}."
      },
      "transferFrom(address,address,uint256)": {
        "details": "See {IERC721-transferFrom}."
      },
      "unpause()": {
        "details": "Unpauses all token transfers. See {ERC721Pausable} and {Pausable-_unpause}. Requirements: - the caller must have the `PAUSER_ROLE`."
      }
    },
    "events": {
      "Approval(address,address,uint256)": {
        "details": "Emitted when `owner` enables `approved` to manage the `tokenId` token."
      },
      "ApprovalForAll(address,address,bool)": {
        "details": "Emitted when `owner` enables or disables (`approved`) `operator` to manage all of its assets."
      },
      "BaseURIUpdated(address,string)": {
        "details": "Emitted when a base URI is updated."
      },
      "GracePeriodUpdated(address,uint64)": {
        "details": "Emitted when the grace period for all domain is updated."
      },
      "Initialized(uint8)": {
        "details": "Triggered when the contract has been initialized or reinitialized."
      },
      "NonceUpdated(uint256,uint256)": {
        "details": "Emitted when the token nonce is updated"
      },
      "Paused(address)": {
        "details": "Emitted when the pause is triggered by `account`."
      },
      "RecordUpdated(uint256,uint256,((uint8,uint256,string),(address,address,uint64,bool)))": {
        "details": "Emitted when the record of node is updated.",
        "params": {
          "indicator": "The binary index of updated fields. Eg, 0b10101011 means fields at position 1, 2, 4, 6, 8 (right to left) needs to be updated.",
          "record": "The updated fields."
        }
      },
      "RoleAdminChanged(bytes32,bytes32,bytes32)": {
        "details": "Emitted when `newAdminRole` is set as ``role``'s admin role, replacing `previousAdminRole` `DEFAULT_ADMIN_ROLE` is the starting admin for all roles, despite {RoleAdminChanged} not being emitted signaling this. _Available since v3.1._"
      },
      "RoleGranted(bytes32,address,address)": {
        "details": "Emitted when `account` is granted `role`. `sender` is the account that originated the contract call, an admin role bearer except when using {AccessControl-_setupRole}."
      },
      "RoleRevoked(bytes32,address,address)": {
        "details": "Emitted when `account` is revoked `role`. `sender` is the account that originated the contract call:   - if using `revokeRole`, it is the admin role bearer   - if using `renounceRole`, it is the role bearer (i.e. `account`)"
      },
      "Transfer(address,address,uint256)": {
        "details": "Emitted when `tokenId` token is transferred from `from` to `to`."
      },
      "Unpaused(address)": {
        "details": "Emitted when the pause is lifted by `account`."
      }
    },
    "errors": {
      "CannotSetImmutableField()": [
        {
          "details": "Error: Attempting to set an immutable field, which cannot be modified."
        }
      ],
      "ExceedParentExpiry()": [
        {
          "details": "Error: The provided id expiry is greater than parent id expiry."
        }
      ],
      "Expired()": [
        {
          "details": "Error: The provided token id is expired."
        }
      ],
      "ExpiryTimeMustBeLargerThanTheOldOne()": [
        {
          "details": "Error: Attempting to set an expiry time that is not larger than the previous one."
        }
      ],
      "MissingControllerRole()": [
        {
          "details": "Error: Missing controller role required for modification."
        }
      ],
      "MissingProtectedSettlerRole()": [
        {
          "details": "Error: Missing protected settler role required for modification."
        }
      ],
      "NameMustBeRegisteredOrInGracePeriod()": [
        {
          "details": "Error: The provided name must be registered or is in a grace period."
        }
      ],
      "Unauthorized()": [
        {
          "details": "Error: The sender lacks the necessary permissions."
        }
      ],
      "Unavailable()": [
        {
          "details": "Error: The provided name is unavailable for registration."
        }
      ],
      "Unexists()": [
        {
          "details": "Error: The provided token id is unexists."
        }
      ]
    }
  },
  "isFoundry": true,
  "nonce": 182495,
  "numDeployments": 1,
  "storageLayout": {
    "storage": [
      {
        "astId": 50000,
        "contract": "src/RNSUnified.sol:RNSUnified",
        "label": "_initialized",
        "offset": 0,
        "slot": "0",
        "type": "t_uint8"
      },
      {
        "astId": 50003,
        "contract": "src/RNSUnified.sol:RNSUnified",
        "label": "_initializing",
        "offset": 1,
        "slot": "0",
        "type": "t_bool"
      },
      {
        "astId": 48473,
        "contract": "src/RNSUnified.sol:RNSUnified",
        "label": "_roles",
        "offset": 0,
        "slot": "1",
        "type": "t_mapping(t_bytes32,t_struct(RoleData)48468_storage)"
      },
      {
        "astId": 48783,
        "contract": "src/RNSUnified.sol:RNSUnified",
        "label": "_roleMembers",
        "offset": 0,
        "slot": "2",
        "type": "t_mapping(t_bytes32,t_struct(AddressSet)54352_storage)"
      },
      {
        "astId": 50361,
        "contract": "src/RNSUnified.sol:RNSUnified",
        "label": "_name",
        "offset": 0,
        "slot": "3",
        "type": "t_string_storage"
      },
      {
        "astId": 50363,
        "contract": "src/RNSUnified.sol:RNSUnified",
        "label": "_symbol",
        "offset": 0,
        "slot": "4",
        "type": "t_string_storage"
      },
      {
        "astId": 50367,
        "contract": "src/RNSUnified.sol:RNSUnified",
        "label": "_owners",
        "offset": 0,
        "slot": "5",
        "type": "t_mapping(t_uint256,t_address)"
      },
      {
        "astId": 50371,
        "contract": "src/RNSUnified.sol:RNSUnified",
        "label": "_balances",
        "offset": 0,
        "slot": "6",
        "type": "t_mapping(t_address,t_uint256)"
      },
      {
        "astId": 50375,
        "contract": "src/RNSUnified.sol:RNSUnified",
        "label": "_tokenApprovals",
        "offset": 0,
        "slot": "7",
        "type": "t_mapping(t_uint256,t_address)"
      },
      {
        "astId": 50381,
        "contract": "src/RNSUnified.sol:RNSUnified",
        "label": "_operatorApprovals",
        "offset": 0,
        "slot": "8",
        "type": "t_mapping(t_address,t_mapping(t_address,t_bool))"
      },
      {
        "astId": 439,
        "contract": "src/RNSUnified.sol:RNSUnified",
        "label": "nonces",
        "offset": 0,
        "slot": "9",
        "type": "t_mapping(t_uint256,t_uint256)"
      },
      {
        "astId": 444,
        "contract": "src/RNSUnified.sol:RNSUnified",
        "label": "______gap",
        "offset": 0,
        "slot": "10",
        "type": "t_array(t_uint256)50_storage"
      },
      {
        "astId": 50180,
        "contract": "src/RNSUnified.sol:RNSUnified",
        "label": "_paused",
        "offset": 0,
        "slot": "60",
        "type": "t_bool"
      },
      {
        "astId": 51441,
        "contract": "src/RNSUnified.sol:RNSUnified",
        "label": "_ownedTokens",
        "offset": 0,
        "slot": "61",
        "type": "t_mapping(t_address,t_mapping(t_uint256,t_uint256))"
      },
      {
        "astId": 51445,
        "contract": "src/RNSUnified.sol:RNSUnified",
        "label": "_ownedTokensIndex",
        "offset": 0,
        "slot": "62",
        "type": "t_mapping(t_uint256,t_uint256)"
      },
      {
        "astId": 51448,
        "contract": "src/RNSUnified.sol:RNSUnified",
        "label": "_allTokens",
        "offset": 0,
        "slot": "63",
        "type": "t_array(t_uint256)dyn_storage"
      },
      {
        "astId": 51452,
        "contract": "src/RNSUnified.sol:RNSUnified",
        "label": "_allTokensIndex",
        "offset": 0,
        "slot": "64",
        "type": "t_mapping(t_uint256,t_uint256)"
      },
      {
        "astId": 61456,
        "contract": "src/RNSUnified.sol:RNSUnified",
        "label": "____gap",
        "offset": 0,
        "slot": "65",
        "type": "t_array(t_uint256)50_storage"
      },
      {
        "astId": 61458,
        "contract": "src/RNSUnified.sol:RNSUnified",
        "label": "_idCounter",
        "offset": 0,
        "slot": "115",
        "type": "t_uint256"
      },
      {
        "astId": 61460,
        "contract": "src/RNSUnified.sol:RNSUnified",
        "label": "_baseTokenURI",
        "offset": 0,
        "slot": "116",
        "type": "t_string_storage"
      },
      {
        "astId": 61746,
        "contract": "src/RNSUnified.sol:RNSUnified",
        "label": "____gap",
        "offset": 0,
        "slot": "117",
        "type": "t_array(t_uint256)50_storage"
      },
      {
        "astId": 61748,
        "contract": "src/RNSUnified.sol:RNSUnified",
        "label": "_gracePeriod",
        "offset": 0,
        "slot": "167",
        "type": "t_uint64"
      },
      {
        "astId": 61754,
        "contract": "src/RNSUnified.sol:RNSUnified",
        "label": "_recordOf",
        "offset": 0,
        "slot": "168",
        "type": "t_mapping(t_uint256,t_struct(Record)64941_storage)"
      }
    ],
    "types": {
      "t_address": {
        "encoding": "inplace",
        "label": "address",
        "numberOfBytes": "20"
      },
      "t_array(t_bytes32)dyn_storage": {
        "encoding": "dynamic_array",
        "label": "bytes32[]",
        "numberOfBytes": "32",
        "base": "t_bytes32"
      },
      "t_array(t_uint256)50_storage": {
        "encoding": "inplace",
        "label": "uint256[50]",
        "numberOfBytes": "1600",
        "base": "t_uint256"
      },
      "t_array(t_uint256)dyn_storage": {
        "encoding": "dynamic_array",
        "label": "uint256[]",
        "numberOfBytes": "32",
        "base": "t_uint256"
      },
      "t_bool": {
        "encoding": "inplace",
        "label": "bool",
        "numberOfBytes": "1"
      },
      "t_bytes32": {
        "encoding": "inplace",
        "label": "bytes32",
        "numberOfBytes": "32"
      },
      "t_mapping(t_address,t_bool)": {
        "encoding": "mapping",
        "key": "t_address",
        "label": "mapping(address => bool)",
        "numberOfBytes": "32",
        "value": "t_bool"
      },
      "t_mapping(t_address,t_mapping(t_address,t_bool))": {
        "encoding": "mapping",
        "key": "t_address",
        "label": "mapping(address => mapping(address => bool))",
        "numberOfBytes": "32",
        "value": "t_mapping(t_address,t_bool)"
      },
      "t_mapping(t_address,t_mapping(t_uint256,t_uint256))": {
        "encoding": "mapping",
        "key": "t_address",
        "label": "mapping(address => mapping(uint256 => uint256))",
        "numberOfBytes": "32",
        "value": "t_mapping(t_uint256,t_uint256)"
      },
      "t_mapping(t_address,t_uint256)": {
        "encoding": "mapping",
        "key": "t_address",
        "label": "mapping(address => uint256)",
        "numberOfBytes": "32",
        "value": "t_uint256"
      },
      "t_mapping(t_bytes32,t_struct(AddressSet)54352_storage)": {
        "encoding": "mapping",
        "key": "t_bytes32",
        "label": "mapping(bytes32 => struct EnumerableSet.AddressSet)",
        "numberOfBytes": "32",
        "value": "t_struct(AddressSet)54352_storage"
      },
      "t_mapping(t_bytes32,t_struct(RoleData)48468_storage)": {
        "encoding": "mapping",
        "key": "t_bytes32",
        "label": "mapping(bytes32 => struct AccessControl.RoleData)",
        "numberOfBytes": "32",
        "value": "t_struct(RoleData)48468_storage"
      },
      "t_mapping(t_bytes32,t_uint256)": {
        "encoding": "mapping",
        "key": "t_bytes32",
        "label": "mapping(bytes32 => uint256)",
        "numberOfBytes": "32",
        "value": "t_uint256"
      },
      "t_mapping(t_uint256,t_address)": {
        "encoding": "mapping",
        "key": "t_uint256",
        "label": "mapping(uint256 => address)",
        "numberOfBytes": "32",
        "value": "t_address"
      },
      "t_mapping(t_uint256,t_struct(Record)64941_storage)": {
        "encoding": "mapping",
        "key": "t_uint256",
        "label": "mapping(uint256 => struct INSUnified.Record)",
        "numberOfBytes": "32",
        "value": "t_struct(Record)64941_storage"
      },
      "t_mapping(t_uint256,t_uint256)": {
        "encoding": "mapping",
        "key": "t_uint256",
        "label": "mapping(uint256 => uint256)",
        "numberOfBytes": "32",
        "value": "t_uint256"
      },
      "t_string_storage": {
        "encoding": "bytes",
        "label": "string",
        "numberOfBytes": "32"
      },
      "t_struct(AddressSet)54352_storage": {
        "encoding": "inplace",
        "label": "struct EnumerableSet.AddressSet",
        "numberOfBytes": "64",
        "members": [
          {
            "astId": 54351,
            "contract": "src/RNSUnified.sol:RNSUnified",
            "label": "_inner",
            "offset": 0,
            "slot": "0",
            "type": "t_struct(Set)54037_storage"
          }
        ]
      },
      "t_struct(ImmutableRecord)64924_storage": {
        "encoding": "inplace",
        "label": "struct INSUnified.ImmutableRecord",
        "numberOfBytes": "96",
        "members": [
          {
            "astId": 64919,
            "contract": "src/RNSUnified.sol:RNSUnified",
            "label": "depth",
            "offset": 0,
            "slot": "0",
            "type": "t_uint8"
          },
          {
            "astId": 64921,
            "contract": "src/RNSUnified.sol:RNSUnified",
            "label": "parentId",
            "offset": 0,
            "slot": "1",
            "type": "t_uint256"
          },
          {
            "astId": 64923,
            "contract": "src/RNSUnified.sol:RNSUnified",
            "label": "label",
            "offset": 0,
            "slot": "2",
            "type": "t_string_storage"
          }
        ]
      },
      "t_struct(MutableRecord)64934_storage": {
        "encoding": "inplace",
        "label": "struct INSUnified.MutableRecord",
        "numberOfBytes": "64",
        "members": [
          {
            "astId": 64927,
            "contract": "src/RNSUnified.sol:RNSUnified",
            "label": "resolver",
            "offset": 0,
            "slot": "0",
            "type": "t_address"
          },
          {
            "astId": 64929,
            "contract": "src/RNSUnified.sol:RNSUnified",
            "label": "owner",
            "offset": 0,
            "slot": "1",
            "type": "t_address"
          },
          {
            "astId": 64931,
            "contract": "src/RNSUnified.sol:RNSUnified",
            "label": "expiry",
            "offset": 20,
            "slot": "1",
            "type": "t_uint64"
          },
          {
            "astId": 64933,
            "contract": "src/RNSUnified.sol:RNSUnified",
            "label": "protected",
            "offset": 28,
            "slot": "1",
            "type": "t_bool"
          }
        ]
      },
      "t_struct(Record)64941_storage": {
        "encoding": "inplace",
        "label": "struct INSUnified.Record",
        "numberOfBytes": "160",
        "members": [
          {
            "astId": 64937,
            "contract": "src/RNSUnified.sol:RNSUnified",
            "label": "immut",
            "offset": 0,
            "slot": "0",
            "type": "t_struct(ImmutableRecord)64924_storage"
          },
          {
            "astId": 64940,
            "contract": "src/RNSUnified.sol:RNSUnified",
            "label": "mut",
            "offset": 0,
            "slot": "3",
            "type": "t_struct(MutableRecord)64934_storage"
          }
        ]
      },
      "t_struct(RoleData)48468_storage": {
        "encoding": "inplace",
        "label": "struct AccessControl.RoleData",
        "numberOfBytes": "64",
        "members": [
          {
            "astId": 48465,
            "contract": "src/RNSUnified.sol:RNSUnified",
            "label": "members",
            "offset": 0,
            "slot": "0",
            "type": "t_mapping(t_address,t_bool)"
          },
          {
            "astId": 48467,
            "contract": "src/RNSUnified.sol:RNSUnified",
            "label": "adminRole",
            "offset": 0,
            "slot": "1",
            "type": "t_bytes32"
          }
        ]
      },
      "t_struct(Set)54037_storage": {
        "encoding": "inplace",
        "label": "struct EnumerableSet.Set",
        "numberOfBytes": "64",
        "members": [
          {
            "astId": 54032,
            "contract": "src/RNSUnified.sol:RNSUnified",
            "label": "_values",
            "offset": 0,
            "slot": "0",
            "type": "t_array(t_bytes32)dyn_storage"
          },
          {
            "astId": 54036,
            "contract": "src/RNSUnified.sol:RNSUnified",
            "label": "_indexes",
            "offset": 0,
            "slot": "1",
            "type": "t_mapping(t_bytes32,t_uint256)"
          }
        ]
      },
      "t_uint256": {
        "encoding": "inplace",
        "label": "uint256",
        "numberOfBytes": "32"
      },
      "t_uint64": {
        "encoding": "inplace",
        "label": "uint64",
        "numberOfBytes": "8"
      },
      "t_uint8": {
        "encoding": "inplace",
        "label": "uint8",
        "numberOfBytes": "1"
      }
    }
  },
  "timestamp": 1697372891,
  "userdoc": {
    "version": 1,
    "kind": "user",
    "methods": {
      "CONTROLLER_ROLE()": {
        "notice": "Can set all fields {Record.mut} in token record, excepting {Record.mut.protected}."
      },
      "PROTECTED_SETTLER_ROLE()": {
        "notice": "Can set field {Record.mut.protected} in token record by using method `bulkSetProtected`."
      },
      "RESERVATION_ROLE()": {
        "notice": "Never expire for token owner has this role."
      },
      "stateOf(uint256)": {
        "notice": "The token state presents the properties of a token at a certain point in time, it should be unique. The token state helps other contracts can verify the token properties without getting and selecting properties from the base contract. For example: ```solidity contract Kitty {   function stateOf(uint256 _tokenId) external view returns (bytes memory) {     return abi.encodePacked(ownerOf(_tokenId), genesOf(_tokenId), levelOf(_tokenId));   } } interface Exchange {   // Buy NFT with the specificed state of `_tokenId`.   function buy(uint256 _tokenId, uint256 _price, bytes calldata _kittyState) external; } ```"
      }
    }
  }
}