{
  "abi": [
    {
      "inputs": [],
      "stateMutability": "payable",
      "type": "constructor"
    },
    {
      "inputs": [
        {
          "internalType": "bytes32",
          "name": "commitment",
          "type": "bytes32"
        }
      ],
      "name": "CommitmentTooNew",
      "type": "error"
    },
    {
      "inputs": [
        {
          "internalType": "bytes32",
          "name": "commitment",
          "type": "bytes32"
        }
      ],
      "name": "CommitmentTooOld",
      "type": "error"
    },
    {
      "inputs": [
        {
          "internalType": "uint64",
          "name": "duration",
          "type": "uint64"
        }
      ],
      "name": "DurationTooShort",
      "type": "error"
    },
    {
      "inputs": [
        {
          "internalType": "string",
          "name": "name",
          "type": "string"
        },
        {
          "internalType": "address",
          "name": "requestOwner",
          "type": "address"
        },
        {
          "internalType": "bool",
          "name": "nameProtected",
          "type": "bool"
        },
        {
          "internalType": "bool",
          "name": "ownerWhitelisted",
          "type": "bool"
        }
      ],
      "name": "ErrInvalidRegisterProtectedName",
      "type": "error"
    },
    {
      "inputs": [
        {
          "internalType": "string",
          "name": "name",
          "type": "string"
        }
      ],
      "name": "ErrRequestedForProtectedName",
      "type": "error"
    },
    {
      "inputs": [],
      "name": "InsufficientValue",
      "type": "error"
    },
    {
      "inputs": [],
      "name": "InvalidArrayLength",
      "type": "error"
    },
    {
      "inputs": [],
      "name": "MaxCommitmentAgeTooHigh",
      "type": "error"
    },
    {
      "inputs": [],
      "name": "MaxCommitmentAgeTooLow",
      "type": "error"
    },
    {
      "inputs": [
        {
          "internalType": "string",
          "name": "name",
          "type": "string"
        }
      ],
      "name": "NameNotAvailable",
      "type": "error"
    },
    {
      "inputs": [],
      "name": "ResolverRequiredWhenDataSupplied",
      "type": "error"
    },
    {
      "inputs": [
        {
          "internalType": "bytes32",
          "name": "node",
          "type": "bytes32"
        }
      ],
      "name": "Unauthorized",
      "type": "error"
    },
    {
      "inputs": [
        {
          "internalType": "bytes32",
          "name": "commitment",
          "type": "bytes32"
        }
      ],
      "name": "UnexpiredCommitmentExists",
      "type": "error"
    },
    {
      "anonymous": false,
      "inputs": [
        {
          "indexed": true,
          "internalType": "address",
          "name": "operator",
          "type": "address"
        },
        {
          "indexed": false,
          "internalType": "uint256",
          "name": "minCommitmentAge",
          "type": "uint256"
        },
        {
          "indexed": false,
          "internalType": "uint256",
          "name": "maxCommitmentAge",
          "type": "uint256"
        }
      ],
      "name": "CommitmentAgeUpdated",
      "type": "event"
    },
    {
      "anonymous": false,
      "inputs": [
        {
          "indexed": true,
          "internalType": "address",
          "name": "operator",
          "type": "address"
        },
        {
          "indexed": false,
          "internalType": "contract INSDomainPrice",
          "name": "newDomainPrice",
          "type": "address"
        }
      ],
      "name": "DomainPriceUpdated",
      "type": "event"
    },
    {
      "anonymous": false,
      "inputs": [
        {
          "indexed": false,
          "internalType": "uint8",
          "name": "version",
          "type": "uint8"
        }
      ],
      "name": "Initialized",
      "type": "event"
    },
    {
      "anonymous": false,
      "inputs": [
        {
          "indexed": true,
          "internalType": "address",
          "name": "operator",
          "type": "address"
        },
        {
          "indexed": false,
          "internalType": "uint256",
          "name": "duration",
          "type": "uint256"
        }
      ],
      "name": "MinRegistrationDurationUpdated",
      "type": "event"
    },
    {
      "anonymous": false,
      "inputs": [
        {
          "indexed": false,
          "internalType": "string",
          "name": "name",
          "type": "string"
        },
        {
          "indexed": true,
          "internalType": "uint256",
          "name": "id",
          "type": "uint256"
        },
        {
          "indexed": true,
          "internalType": "address",
          "name": "owner",
          "type": "address"
        },
        {
          "indexed": false,
          "internalType": "uint256",
          "name": "ronPrice",
          "type": "uint256"
        },
        {
          "indexed": false,
          "internalType": "uint256",
          "name": "usdPrice",
          "type": "uint256"
        },
        {
          "indexed": false,
          "internalType": "uint64",
          "name": "expires",
          "type": "uint64"
        }
      ],
      "name": "NameRegistered",
      "type": "event"
    },
    {
      "anonymous": false,
      "inputs": [
        {
          "indexed": false,
          "internalType": "string",
          "name": "name",
          "type": "string"
        },
        {
          "indexed": true,
          "internalType": "uint256",
          "name": "id",
          "type": "uint256"
        },
        {
          "indexed": false,
          "internalType": "uint256",
          "name": "cost",
          "type": "uint256"
        },
        {
          "indexed": false,
          "internalType": "uint64",
          "name": "expires",
          "type": "uint64"
        }
      ],
      "name": "NameRenewed",
      "type": "event"
    },
    {
      "anonymous": false,
      "inputs": [
        {
          "indexed": false,
          "internalType": "address",
          "name": "account",
          "type": "address"
        }
      ],
      "name": "Paused",
      "type": "event"
    },
    {
      "anonymous": false,
      "inputs": [
        {
          "indexed": true,
          "internalType": "address",
          "name": "operator",
          "type": "address"
        },
        {
          "indexed": false,
          "internalType": "uint256[]",
          "name": "ids",
          "type": "uint256[]"
        },
        {
          "indexed": false,
          "internalType": "address[]",
          "name": "owners",
          "type": "address[]"
        },
        {
          "indexed": false,
          "internalType": "bool",
          "name": "status",
          "type": "bool"
        }
      ],
      "name": "ProtectedNamesWhitelisted",
      "type": "event"
    },
    {
      "anonymous": false,
      "inputs": [
        {
          "indexed": true,
          "internalType": "bytes32",
          "name": "role",
          "type": "bytes32"
        },
        {
          "indexed": true,
          "internalType": "bytes32",
          "name": "previousAdminRole",
          "type": "bytes32"
        },
        {
          "indexed": true,
          "internalType": "bytes32",
          "name": "newAdminRole",
          "type": "bytes32"
        }
      ],
      "name": "RoleAdminChanged",
      "type": "event"
    },
    {
      "anonymous": false,
      "inputs": [
        {
          "indexed": true,
          "internalType": "bytes32",
          "name": "role",
          "type": "bytes32"
        },
        {
          "indexed": true,
          "internalType": "address",
          "name": "account",
          "type": "address"
        },
        {
          "indexed": true,
          "internalType": "address",
          "name": "sender",
          "type": "address"
        }
      ],
      "name": "RoleGranted",
      "type": "event"
    },
    {
      "anonymous": false,
      "inputs": [
        {
          "indexed": true,
          "internalType": "bytes32",
          "name": "role",
          "type": "bytes32"
        },
        {
          "indexed": true,
          "internalType": "address",
          "name": "account",
          "type": "address"
        },
        {
          "indexed": true,
          "internalType": "address",
          "name": "sender",
          "type": "address"
        }
      ],
      "name": "RoleRevoked",
      "type": "event"
    },
    {
      "anonymous": false,
      "inputs": [
        {
          "indexed": false,
          "internalType": "address",
          "name": "account",
          "type": "address"
        }
      ],
      "name": "Unpaused",
      "type": "event"
    },
    {
      "inputs": [],
      "name": "DEFAULT_ADMIN_ROLE",
      "outputs": [
        {
          "internalType": "bytes32",
          "name": "",
          "type": "bytes32"
        }
      ],
      "stateMutability": "view",
      "type": "function"
    },
    {
      "inputs": [],
      "name": "MIN_DOMAIN_LENGTH",
      "outputs": [
        {
          "internalType": "uint8",
          "name": "",
          "type": "uint8"
        }
      ],
      "stateMutability": "view",
      "type": "function"
    },
    {
      "inputs": [],
      "name": "OPERATOR_ROLE",
      "outputs": [
        {
          "internalType": "bytes32",
          "name": "",
          "type": "bytes32"
        }
      ],
      "stateMutability": "view",
      "type": "function"
    },
    {
      "inputs": [],
      "name": "PAUSER_ROLE",
      "outputs": [
        {
          "internalType": "bytes32",
          "name": "",
          "type": "bytes32"
        }
      ],
      "stateMutability": "view",
      "type": "function"
    },
    {
      "inputs": [
        {
          "internalType": "string",
          "name": "name",
          "type": "string"
        }
      ],
      "name": "available",
      "outputs": [
        {
          "internalType": "bool",
          "name": "",
          "type": "bool"
        }
      ],
      "stateMutability": "view",
      "type": "function"
    },
    {
      "inputs": [
        {
          "internalType": "uint256[]",
          "name": "ids",
          "type": "uint256[]"
        },
        {
          "internalType": "address[]",
          "name": "owners",
          "type": "address[]"
        },
        {
          "internalType": "bool",
          "name": "status",
          "type": "bool"
        }
      ],
      "name": "bulkWhitelistProtectedNames",
      "outputs": [],
      "stateMutability": "nonpayable",
      "type": "function"
    },
    {
      "inputs": [
        {
          "internalType": "bytes32",
          "name": "commitment",
          "type": "bytes32"
        }
      ],
      "name": "commit",
      "outputs": [],
      "stateMutability": "nonpayable",
      "type": "function"
    },
    {
      "inputs": [
        {
          "internalType": "string",
          "name": "name",
          "type": "string"
        },
        {
          "internalType": "address",
          "name": "owner",
          "type": "address"
        },
        {
          "internalType": "uint64",
          "name": "duration",
          "type": "uint64"
        },
        {
          "internalType": "bytes32",
          "name": "secret",
          "type": "bytes32"
        },
        {
          "internalType": "address",
          "name": "resolver",
          "type": "address"
        },
        {
          "internalType": "bytes[]",
          "name": "data",
          "type": "bytes[]"
        },
        {
          "internalType": "bool",
          "name": "reverseRecord",
          "type": "bool"
        }
      ],
      "name": "computeCommitment",
      "outputs": [
        {
          "internalType": "bytes32",
          "name": "",
          "type": "bytes32"
        }
      ],
      "stateMutability": "pure",
      "type": "function"
    },
    {
      "inputs": [
        {
          "internalType": "string",
          "name": "name",
          "type": "string"
        }
      ],
      "name": "computeId",
      "outputs": [
        {
          "internalType": "uint256",
          "name": "id",
          "type": "uint256"
        }
      ],
      "stateMutability": "pure",
      "type": "function"
    },
    {
      "inputs": [],
      "name": "getCommitmentAgeRange",
      "outputs": [
        {
          "internalType": "uint256",
          "name": "minCommitmentAge",
          "type": "uint256"
        },
        {
          "internalType": "uint256",
          "name": "maxCommitmentAge",
          "type": "uint256"
        }
      ],
      "stateMutability": "view",
      "type": "function"
    },
    {
      "inputs": [],
      "name": "getMinRegistrationDuration",
      "outputs": [
        {
          "internalType": "uint256",
          "name": "",
          "type": "uint256"
        }
      ],
      "stateMutability": "view",
      "type": "function"
    },
    {
      "inputs": [],
      "name": "getNameChecker",
      "outputs": [
        {
          "internalType": "contract INameChecker",
          "name": "",
          "type": "address"
        }
      ],
      "stateMutability": "view",
      "type": "function"
    },
    {
      "inputs": [],
      "name": "getPriceOracle",
      "outputs": [
        {
          "internalType": "contract INSDomainPrice",
          "name": "",
          "type": "address"
        }
      ],
      "stateMutability": "view",
      "type": "function"
    },
    {
      "inputs": [],
      "name": "getRNSUnified",
      "outputs": [
        {
          "internalType": "contract INSUnified",
          "name": "",
          "type": "address"
        }
      ],
      "stateMutability": "view",
      "type": "function"
    },
    {
      "inputs": [],
      "name": "getReverseRegistrar",
      "outputs": [
        {
          "internalType": "contract INSReverseRegistrar",
          "name": "",
          "type": "address"
        }
      ],
      "stateMutability": "view",
      "type": "function"
    },
    {
      "inputs": [
        {
          "internalType": "bytes32",
          "name": "role",
          "type": "bytes32"
        }
      ],
      "name": "getRoleAdmin",
      "outputs": [
        {
          "internalType": "bytes32",
          "name": "",
          "type": "bytes32"
        }
      ],
      "stateMutability": "view",
      "type": "function"
    },
    {
      "inputs": [
        {
          "internalType": "bytes32",
          "name": "role",
          "type": "bytes32"
        },
        {
          "internalType": "uint256",
          "name": "index",
          "type": "uint256"
        }
      ],
      "name": "getRoleMember",
      "outputs": [
        {
          "internalType": "address",
          "name": "",
          "type": "address"
        }
      ],
      "stateMutability": "view",
      "type": "function"
    },
    {
      "inputs": [
        {
          "internalType": "bytes32",
          "name": "role",
          "type": "bytes32"
        }
      ],
      "name": "getRoleMemberCount",
      "outputs": [
        {
          "internalType": "uint256",
          "name": "",
          "type": "uint256"
        }
      ],
      "stateMutability": "view",
      "type": "function"
    },
    {
      "inputs": [],
      "name": "getTreasury",
      "outputs": [
        {
          "internalType": "address",
          "name": "",
          "type": "address"
        }
      ],
      "stateMutability": "view",
      "type": "function"
    },
    {
      "inputs": [
        {
          "internalType": "uint256",
          "name": "id",
          "type": "uint256"
        },
        {
          "internalType": "address",
          "name": "owner",
          "type": "address"
        }
      ],
      "name": "getWhitelistProtectedNameStatus",
      "outputs": [
        {
          "internalType": "bool",
          "name": "status",
          "type": "bool"
        }
      ],
      "stateMutability": "view",
      "type": "function"
    },
    {
      "inputs": [
        {
          "internalType": "bytes32",
          "name": "role",
          "type": "bytes32"
        },
        {
          "internalType": "address",
          "name": "account",
          "type": "address"
        }
      ],
      "name": "grantRole",
      "outputs": [],
      "stateMutability": "nonpayable",
      "type": "function"
    },
    {
      "inputs": [
        {
          "internalType": "bytes32",
          "name": "role",
          "type": "bytes32"
        },
        {
          "internalType": "address",
          "name": "account",
          "type": "address"
        }
      ],
      "name": "hasRole",
      "outputs": [
        {
          "internalType": "bool",
          "name": "",
          "type": "bool"
        }
      ],
      "stateMutability": "view",
      "type": "function"
    },
    {
      "inputs": [
        {
          "internalType": "address",
          "name": "admin",
          "type": "address"
        },
        {
          "internalType": "address",
          "name": "pauser",
          "type": "address"
        },
        {
          "internalType": "address payable",
          "name": "treasury",
          "type": "address"
        },
        {
          "internalType": "uint256",
          "name": "maxCommitmentAge",
          "type": "uint256"
        },
        {
          "internalType": "uint256",
          "name": "minCommitmentAge",
          "type": "uint256"
        },
        {
          "internalType": "uint256",
          "name": "minRegistrationDuration",
          "type": "uint256"
        },
        {
          "internalType": "contract INSUnified",
          "name": "rnsUnified",
          "type": "address"
        },
        {
          "internalType": "contract INameChecker",
          "name": "nameChecker",
          "type": "address"
        },
        {
          "internalType": "contract INSDomainPrice",
          "name": "priceOracle",
          "type": "address"
        },
        {
          "internalType": "contract INSReverseRegistrar",
          "name": "reverseRegistrar",
          "type": "address"
        }
      ],
      "name": "initialize",
      "outputs": [],
      "stateMutability": "nonpayable",
      "type": "function"
    },
    {
      "inputs": [],
      "name": "pause",
      "outputs": [],
      "stateMutability": "nonpayable",
      "type": "function"
    },
    {
      "inputs": [],
      "name": "paused",
      "outputs": [
        {
          "internalType": "bool",
          "name": "",
          "type": "bool"
        }
      ],
      "stateMutability": "view",
      "type": "function"
    },
    {
      "inputs": [
        {
          "internalType": "string",
          "name": "name",
          "type": "string"
        },
        {
          "internalType": "address",
          "name": "owner",
          "type": "address"
        },
        {
          "internalType": "uint64",
          "name": "duration",
          "type": "uint64"
        },
        {
          "internalType": "bytes32",
          "name": "secret",
          "type": "bytes32"
        },
        {
          "internalType": "address",
          "name": "resolver",
          "type": "address"
        },
        {
          "internalType": "bytes[]",
          "name": "data",
          "type": "bytes[]"
        },
        {
          "internalType": "bool",
          "name": "reverseRecord",
          "type": "bool"
        }
      ],
      "name": "register",
      "outputs": [],
      "stateMutability": "payable",
      "type": "function"
    },
    {
      "inputs": [
        {
          "internalType": "string",
          "name": "name",
          "type": "string"
        },
        {
          "internalType": "address",
          "name": "owner",
          "type": "address"
        },
        {
          "internalType": "uint64",
          "name": "duration",
          "type": "uint64"
        },
        {
          "internalType": "address",
          "name": "resolver",
          "type": "address"
        },
        {
          "internalType": "bytes[]",
          "name": "data",
          "type": "bytes[]"
        },
        {
          "internalType": "bool",
          "name": "reverseRecord",
          "type": "bool"
        }
      ],
      "name": "registerProtectedName",
      "outputs": [],
      "stateMutability": "payable",
      "type": "function"
    },
    {
      "inputs": [
        {
          "internalType": "string",
          "name": "name",
          "type": "string"
        },
        {
          "internalType": "uint64",
          "name": "duration",
          "type": "uint64"
        }
      ],
      "name": "renew",
      "outputs": [],
      "stateMutability": "payable",
      "type": "function"
    },
    {
      "inputs": [
        {
          "internalType": "bytes32",
          "name": "role",
          "type": "bytes32"
        },
        {
          "internalType": "address",
          "name": "account",
          "type": "address"
        }
      ],
      "name": "renounceRole",
      "outputs": [],
      "stateMutability": "nonpayable",
      "type": "function"
    },
    {
      "inputs": [
        {
          "internalType": "string",
          "name": "name",
          "type": "string"
        },
        {
          "internalType": "uint64",
          "name": "duration",
          "type": "uint64"
        }
      ],
      "name": "rentPrice",
      "outputs": [
        {
          "internalType": "uint256",
          "name": "usdPrice",
          "type": "uint256"
        },
        {
          "internalType": "uint256",
          "name": "ronPrice",
          "type": "uint256"
        }
      ],
      "stateMutability": "view",
      "type": "function"
    },
    {
      "inputs": [
        {
          "internalType": "bytes32",
          "name": "role",
          "type": "bytes32"
        },
        {
          "internalType": "address",
          "name": "account",
          "type": "address"
        }
      ],
      "name": "revokeRole",
      "outputs": [],
      "stateMutability": "nonpayable",
      "type": "function"
    },
    {
      "inputs": [
        {
          "internalType": "uint256",
          "name": "minCommitmentAge",
          "type": "uint256"
        },
        {
          "internalType": "uint256",
          "name": "maxCommitmentAge",
          "type": "uint256"
        }
      ],
      "name": "setCommitmentAge",
      "outputs": [],
      "stateMutability": "nonpayable",
      "type": "function"
    },
    {
      "inputs": [
        {
          "internalType": "uint256",
          "name": "duration",
          "type": "uint256"
        }
      ],
      "name": "setMinRegistrationDuration",
      "outputs": [],
      "stateMutability": "nonpayable",
      "type": "function"
    },
    {
      "inputs": [
        {
          "internalType": "contract INSDomainPrice",
          "name": "priceOracle",
          "type": "address"
        }
      ],
      "name": "setPriceOracle",
      "outputs": [],
      "stateMutability": "nonpayable",
      "type": "function"
    },
    {
      "inputs": [
        {
          "internalType": "address payable",
          "name": "addr",
          "type": "address"
        }
      ],
      "name": "setTreasury",
      "outputs": [],
      "stateMutability": "nonpayable",
      "type": "function"
    },
    {
      "inputs": [
        {
          "internalType": "bytes4",
          "name": "interfaceId",
          "type": "bytes4"
        }
      ],
      "name": "supportsInterface",
      "outputs": [
        {
          "internalType": "bool",
          "name": "",
          "type": "bool"
        }
      ],
      "stateMutability": "view",
      "type": "function"
    },
    {
      "inputs": [],
      "name": "unpause",
      "outputs": [],
      "stateMutability": "nonpayable",
      "type": "function"
    },
    {
      "inputs": [
        {
          "internalType": "string",
          "name": "name",
          "type": "string"
        }
      ],
      "name": "valid",
      "outputs": [
        {
          "internalType": "bool",
          "name": "",
          "type": "bool"
        }
      ],
      "stateMutability": "view",
      "type": "function"
    }
  ],
  "address": "0x942B2DC201bACF99fec1f877BDD30C394325F3Cc",
  "args": "0x",
  "blockNumber": 21224275,
  "bytecode": "0x60806040526000805460ff19169055600180556200001c62000022565b620000e9565b60005462010000900460ff1615620000905760405162461bcd60e51b815260206004820152602760248201527f496e697469616c697a61626c653a20636f6e747261637420697320696e697469604482015266616c697a696e6760c81b606482015260840160405180910390fd5b600054610100900460ff90811614620000e7576000805461ff00191661ff0017905560405160ff81527f7f26b83ff96e1f2b6a682f133852f6798a09c465da95921460cefb38474024989060200160405180910390a15b565b612f2d80620000f96000396000f3fe6080604052600436106102255760003560e01c80638ca3d18311610123578063cb80fe2f116100ab578063f0f442601161006f578063f0f4426014610668578063f14fcbc814610688578063f5b541a6146106a8578063fb021939146106dc578063fca513a8146106fc57600080fd5b8063cb80fe2f146105d3578063d547741f146105e6578063db9bf5ed14610606578063e4214b4614610626578063e63ab1e91461064657600080fd5b8063a217fddf116100f2578063a217fddf1461053e578063aeb8ce9b14610553578063b24b17b014610573578063c078f16a14610593578063ca15c873146105b357600080fd5b80638ca3d183146104cb5780639010d07c146104de57806391d14854146104fe5780639791c0971461051e57600080fd5b80633b6c2ea3116101b15780635c975abb116101755780635c975abb1461044057806364c65705146104585780636df99353146104785780638456cb59146104985780638c843314146104ad57600080fd5b80633b6c2ea31461039d5780633f4ba83a146103e357806342c20288146103f8578063530e784f1461040d5780635a7051691461042d57600080fd5b8063248a9ca3116101f8578063248a9ca3146102d857806329aa4f51146103165780632f2ff15d1461033d57806336568abe1461035f5780633b19e84a1461037f57600080fd5b806301ffc9a71461022a5780631321889f1461025f578063224b04de14610288578063237a78fb146102ba575b600080fd5b34801561023657600080fd5b5061024a610245366004612041565b61071a565b60405190151581526020015b60405180910390f35b34801561026b57600080fd5b506036546037545b60408051928352602083019190915201610256565b34801561029457600080fd5b50603b546001600160a01b03165b6040516001600160a01b039091168152602001610256565b3480156102c657600080fd5b50603d546001600160a01b03166102a2565b3480156102e457600080fd5b506103086102f336600461206b565b60009081526002602052604090206001015490565b604051908152602001610256565b34801561032257600080fd5b5061032b600381565b60405160ff9091168152602001610256565b34801561034957600080fd5b5061035d610358366004612099565b610745565b005b34801561036b57600080fd5b5061035d61037a366004612099565b61076f565b34801561038b57600080fd5b506039546001600160a01b03166102a2565b3480156103a957600080fd5b5061024a6103b8366004612099565b6000918252603f602090815260408084206001600160a01b0393909316845291905290205460ff1690565b3480156103ef57600080fd5b5061035d6107f2565b34801561040457600080fd5b50603854610308565b34801561041957600080fd5b5061035d6104283660046120c9565b610815565b61035d61043b3660046120fb565b610829565b34801561044c57600080fd5b5060005460ff1661024a565b34801561046457600080fd5b5061035d61047336600461217d565b6109d8565b34801561048457600080fd5b5061035d610493366004612284565b610b84565b3480156104a457600080fd5b5061035d610cbd565b3480156104b957600080fd5b50603a546001600160a01b03166102a2565b61035d6104d9366004612414565b610cdd565b3480156104ea57600080fd5b506102a26104f93660046124cf565b610e0b565b34801561050a57600080fd5b5061024a610519366004612099565b610e2a565b34801561052a57600080fd5b5061024a6105393660046124f1565b610e55565b34801561054a57600080fd5b50610308600081565b34801561055f57600080fd5b5061024a61056e3660046124f1565b610ee3565b34801561057f57600080fd5b5061027361058e36600461252d565b610f6e565b34801561059f57600080fd5b5061035d6105ae36600461206b565b61101e565b3480156105bf57600080fd5b506103086105ce36600461206b565b611032565b61035d6105e1366004612573565b611049565b3480156105f257600080fd5b5061035d610601366004612099565b611156565b34801561061257600080fd5b50610308610621366004612573565b61117b565b34801561063257600080fd5b5061035d6106413660046124cf565b6111fc565b34801561065257600080fd5b50610308600080516020612ed883398151915281565b34801561067457600080fd5b5061035d6106833660046120c9565b611211565b34801561069457600080fd5b5061035d6106a336600461206b565b61123f565b3480156106b457600080fd5b506103087f97667070c54ef182b0f5858b034beac1b6f3089aa2d3188bb1e8929f4fa9b92981565b3480156106e857600080fd5b506103086106f73660046124f1565b611298565b34801561070857600080fd5b50603c546001600160a01b03166102a2565b60006001600160e01b03198216635a05180f60e01b148061073f575061073f826112d5565b92915050565b6000828152600260205260409020600101546107608161130a565b61076a8383611314565b505050565b6001600160a01b03811633146107e45760405162461bcd60e51b815260206004820152602f60248201527f416363657373436f6e74726f6c3a2063616e206f6e6c792072656e6f756e636560448201526e103937b632b9903337b91039b2b63360891b60648201526084015b60405180910390fd5b6107ee8282611336565b5050565b600080516020612ed883398151915261080a8161130a565b610812611358565b50565b60006108208161130a565b6107ee826113aa565b610831611401565b610839611449565b600061087c84848080601f016020809104026020016040519081016040528093929190818152602001838380828437600092019190915250869250610f6e915050565b915050803410156108a05760405163044044a560e21b815260040160405180910390fd5b60006108ac823461264d565b905060006108ef86868080601f01602080910402602001604051908101604052809392919081815260200183838082843760009201919091525061129892505050565b603a54604051635569f33d60e01b8152600481018390526001600160401b03871660248201529192506000916001600160a01b0390911690635569f33d906044016020604051808303816000875af115801561094f573d6000803e3d6000fd5b505050506040513d601f19601f820116820180604052508101906109739190612660565b9050817fda0eda2cd32a098c8b27ed6a56aeb5c332b8abb98491f4357ea58e118b724c6d888887856040516109ab94939291906126a6565b60405180910390a282156109c3576109c333846114a2565b6109cb611507565b5050505061076a60018055565b60005462010000900460ff16158080156109fd5750600054600161010090910460ff16105b80610a1d5750303b158015610a1d575060005460ff610100909104166001145b610a805760405162461bcd60e51b815260206004820152602e60248201527f496e697469616c697a61626c653a20636f6e747261637420697320616c72656160448201526d191e481a5b9a5d1a585b1a5e995960921b60648201526084016107db565b6000805461ff0019166101001790558015610aa7576000805462ff00001916620100001790555b610abf600080516020612ed88339815191528b61151d565b610aca60008c61151d565b610ad3836113aa565b610adc86611527565b610ae6878961155e565b603980546001600160a01b03808c166001600160a01b031992831617909255603a8054888416908316179055603b8054878416908316179055603d8054928516929091169190911790558015610b77576000805462ff000019169055604051600181527f7f26b83ff96e1f2b6a682f133852f6798a09c465da95921460cefb38474024989060200160405180910390a15b5050505050505050505050565b7f97667070c54ef182b0f5858b034beac1b6f3089aa2d3188bb1e8929f4fa9b929610bae8161130a565b84801580610bbc5750808414155b15610bda57604051634ec4810560e11b815260040160405180910390fd5b60005b81811015610c6a5783603f60008a8a85818110610bfc57610bfc6126da565b9050602002013581526020019081526020016000206000888885818110610c2557610c256126da565b9050602002016020810190610c3a91906120c9565b6001600160a01b031681526020810191909152604001600020805460ff1916911515919091179055600101610bdd565b50336001600160a01b03167fb04cd4173c4030a0f2bf2acabc9484f9014ecf5654be55afb48f3694c0804e3b8888888888604051610cac9594939291906126f0565b60405180910390a250505050505050565b600080516020612ed8833981519152610cd58161130a565b6108126115e8565b610ce5611401565b610ced611449565b6000610cf888611298565b603a546040516303e9e60960e01b8152600481018390529192506000916001600160a01b03909116906303e9e60990602401600060405180830381865afa158015610d47573d6000803e3d6000fd5b505050506040513d6000823e601f3d908101601f19168201604052610d6f9190810190612868565b602090810151606001516000848152603f835260408082206001600160a01b038d168352909352919091205490915060ff16811580610dac575080155b15610dd25789898383604051631fc5717160e01b81526004016107db9493929190612976565b600080610ddf8c8b611625565b91509150610df48c8c8c8c8c8c8c898961167d565b5050505050610e0260018055565b50505050505050565b6000828152600360205260408120610e2390836117a7565b9392505050565b60009182526002602090815260408084206001600160a01b0393909316845291905290205460ff1690565b60006003610e62836117b3565b1015801561073f5750603b546040516303f6911960e21b81526001600160a01b0390911690630fda446490610e9b9085906004016129b0565b602060405180830381865afa158015610eb8573d6000803e3d6000fd5b505050506040513d601f19601f82011682018060405250810190610edc91906129c3565b1592915050565b6000610eee82610e55565b801561073f5750603a546001600160a01b03166396e494e8610f0f84611298565b6040518263ffffffff1660e01b8152600401610f2d91815260200190565b602060405180830381865afa158015610f4a573d6000803e3d6000fd5b505050506040513d601f19601f8201168201806040525081019061073f91906129c3565b603c5460405163f4651f4960e01b81526000918291829182916001600160a01b039091169063f4651f4990610fa990899089906004016129e0565b608060405180830381865afa158015610fc6573d6000803e3d6000fd5b505050506040513d601f19601f82011682018060405250810190610fea9190612a3b565b80518251929450909250610ffd91612a70565b9350806020015182602001516110139190612a70565b925050509250929050565b60006110298161130a565b6107ee82611527565b600081815260036020526040812061073f906118a1565b611051611401565b611059611449565b600061106489611298565b603a546040516303e9e60960e01b8152600481018390529192506001600160a01b0316906303e9e60990602401600060405180830381865afa1580156110ae573d6000803e3d6000fd5b505050506040513d6000823e601f3d908101601f191682016040526110d69190810190612868565b6020015160600151156110fe57886040516331597a5760e21b81526004016107db91906129b0565b60006111108a8a8a8a8a8a8a8a61117b565b905061111d8a89836118ab565b60008061112a8c8b611625565b9150915061113f8c8c8c8b8b8b8b898961167d565b5050505061114c60018055565b5050505050505050565b6000828152600260205260409020600101546111718161130a565b61076a8383611336565b6000821580159061119357506001600160a01b038516155b156111b1576040516334fd817160e21b815260040160405180910390fd5b6111ba89611298565b888888888888886040516020016111d8989796959493929190612b14565b60405160208183030381529060405280519060200120905098975050505050505050565b60006112078161130a565b61076a838361155e565b600061121c8161130a565b50603980546001600160a01b0319166001600160a01b0392909216919091179055565b611247611401565b6037546000828152603e6020526040902054429161126491612a70565b1061128557604051630a059d7160e01b8152600481018290526024016107db565b6000908152603e60205260409020429055565b600061073f7fba69923fa107dbf5a25a073a10b7c9216ae39fbadc95dc891d460d9ae315d688836000918252805160209182012090526040902090565b60006001600160e01b03198216637965db0b60e01b148061073f57506301ffc9a760e01b6001600160e01b031983161461073f565b6108128133611985565b61131e82826119b8565b600082815260036020526040902061076a9082611a3e565b6113408282611a53565b600082815260036020526040902061076a9082611aba565b611360611acf565b6000805460ff191690557f5db9ee0a495bf2e6ff9c91a7834c1ba4fdd244a5e8aa4e537bd38aeae4b073aa335b6040516001600160a01b03909116815260200160405180910390a1565b603c80546001600160a01b0319166001600160a01b03831690811790915560405190815233907fa0e5780c6b121c723ec81de517e849c838390affbdc0a70680a3065e47ff3655906020015b60405180910390a250565b60005460ff16156114475760405162461bcd60e51b815260206004820152601060248201526f14185d5cd8589b194e881c185d5cd95960821b60448201526064016107db565b565b60026001540361149b5760405162461bcd60e51b815260206004820152601f60248201527f5265656e7472616e637947756172643a207265656e7472616e742063616c6c0060448201526064016107db565b6002600155565b60006114ae8383611b18565b90508061076a576114c7836001600160a01b0316611b8e565b6114d083611ba4565b6040516020016114e1929190612b74565b60408051601f198184030181529082905262461bcd60e51b82526107db916004016129b0565b603954611447906001600160a01b0316476114a2565b6107ee8282611314565b603881905560405181815233907f59dadbf6542974405b3c262294675f8dd6fb933e6e6556b04b41aaac6e42352c906020016113f6565b4281111561157f57604051630b4319e560e21b815260040160405180910390fd5b81811161159f576040516307cb550760e31b815260040160405180910390fd5b60368290556037819055604080518381526020810183905233917f26a34e9441e83658dfe0e99d79186a1f7cb28c0867d3caddf5cd8b79844adf8f910160405180910390a25050565b6115f0611401565b6000805460ff191660011790557f62e78cea01bee320cd4e420270b5ea74000d11b0c9f74754ebdbfc544b05a25861138d3390565b6000806116328484610f6e565b9092509050348111156116585760405163044044a560e21b815260040160405180910390fd5b3481810390821461166d5761166d33826114a2565b50611676611507565b9250929050565b600080603a60009054906101000a90046001600160a01b03166001600160a01b0316630570891f7fba69923fa107dbf5a25a073a10b7c9216ae39fbadc95dc891d460d9ae315d6888d8b8e8e6040518663ffffffff1660e01b81526004016116e9959493929190612bf2565b60408051808303816000875af1158015611707573d6000803e3d6000fd5b505050506040513d601f19601f8201168201806040525081019061172b9190612c3d565b909250905085156117425761174288828989611bbb565b8415611752576117528b8b611c39565b896001600160a01b0316817f8b0e0cd1a643dbca06e60f7e03e5ff3c4e72b78e1c9842b5c3a29ad3ce8d384b8d8688876040516117929493929190612c6b565b60405180910390a35050505050505050505050565b6000610e238383611cd0565b600080600080845190505b808310156118995760008584815181106117da576117da6126da565b01602001516001600160f81b0319169050600160ff1b8110156118025760018401935061188d565b600760fd1b6001600160f81b0319821610156118235760028401935061188d565b600f60fc1b6001600160f81b0319821610156118445760038401935061188d565b601f60fb1b6001600160f81b0319821610156118655760048401935061188d565b603f60fa1b6001600160f81b0319821610156118865760058401935061188d565b6006840193505b506001909101906117be565b509392505050565b600061073f825490565b603854826001600160401b031610156118e2576040516378a3dfc160e11b81526001600160401b03831660048201526024016107db565b6118eb83610ee3565b61190a57826040516308eee0fd60e31b81526004016107db91906129b0565b6000818152603e6020526040812054611923904261264d565b905060365481101561194b57604051635320bcf960e01b8152600481018390526024016107db565b8060375410156119715760405163cb7690d760e01b8152600481018390526024016107db565b506000908152603e60205260408120555050565b61198f8282610e2a565b6107ee5761199c81611b8e565b6119a7836020611cfa565b6040516020016114e1929190612ca3565b6119c28282610e2a565b6107ee5760008281526002602090815260408083206001600160a01b03851684529091529020805460ff191660011790556119fa3390565b6001600160a01b0316816001600160a01b0316837f2f8788117e7eff1d82e926ec794901d17c78024a50270940304540a733656f0d60405160405180910390a45050565b6000610e23836001600160a01b038416611e95565b611a5d8282610e2a565b156107ee5760008281526002602090815260408083206001600160a01b0385168085529252808320805460ff1916905551339285917ff6391f5c32d9c69d2a47ea670b442974b53935d1edc7fd64eb21e047a839171b9190a45050565b6000610e23836001600160a01b038416611ee4565b60005460ff166114475760405162461bcd60e51b815260206004820152601460248201527314185d5cd8589b194e881b9bdd081c185d5cd95960621b60448201526064016107db565b604080516000808252602082019092526001600160a01b038416908390604051611b429190612d18565b60006040518083038185875af1925050503d8060008114611b7f576040519150601f19603f3d011682016040523d82523d6000602084013e611b84565b606091505b5090949350505050565b606061073f6001600160a01b0383166014611cfa565b606061073f82611bb384611fd7565b600101611cfa565b60405163e32954eb60e01b81526001600160a01b0385169063e32954eb90611beb90869086908690600401612d34565b6000604051808303816000875af1158015611c0a573d6000803e3d6000fd5b505050506040513d6000823e601f3d908101601f19168201604052611c329190810190612d57565b5050505050565b603d546040516001600160a01b039091169063c9119941908390611c61908690602001612e2e565b6040516020818303038152906040526040518363ffffffff1660e01b8152600401611c8d929190612e56565b6020604051808303816000875af1158015611cac573d6000803e3d6000fd5b505050506040513d601f19601f8201168201806040525081019061076a9190612e7a565b6000826000018281548110611ce757611ce76126da565b9060005260206000200154905092915050565b60606000611d09836002612e93565b611d14906002612a70565b6001600160401b03811115611d2b57611d2b612307565b6040519080825280601f01601f191660200182016040528015611d55576020820181803683370190505b509050600360fc1b81600081518110611d7057611d706126da565b60200101906001600160f81b031916908160001a905350600f60fb1b81600181518110611d9f57611d9f6126da565b60200101906001600160f81b031916908160001a9053506000611dc3846002612e93565b611dce906001612a70565b90505b6001811115611e46576f181899199a1a9b1b9c1cb0b131b232b360811b85600f1660108110611e0257611e026126da565b1a60f81b828281518110611e1857611e186126da565b60200101906001600160f81b031916908160001a90535060049490941c93611e3f81612eaa565b9050611dd1565b508315610e235760405162461bcd60e51b815260206004820181905260248201527f537472696e67733a20686578206c656e67746820696e73756666696369656e7460448201526064016107db565b6000818152600183016020526040812054611edc5750815460018181018455600084815260208082209093018490558454848252828601909352604090209190915561073f565b50600061073f565b60008181526001830160205260408120548015611fcd576000611f0860018361264d565b8554909150600090611f1c9060019061264d565b9050818114611f81576000866000018281548110611f3c57611f3c6126da565b9060005260206000200154905080876000018481548110611f5f57611f5f6126da565b6000918252602080832090910192909255918252600188019052604090208390555b8554869080611f9257611f92612ec1565b60019003818190600052602060002001600090559055856001016000868152602001908152602001600020600090556001935050505061073f565b600091505061073f565b600080608083901c15611fef5760809290921c916010015b604083901c156120045760409290921c916008015b602083901c156120195760209290921c916004015b601083901c1561202e5760109290921c916002015b600883901c1561073f5760010192915050565b60006020828403121561205357600080fd5b81356001600160e01b031981168114610e2357600080fd5b60006020828403121561207d57600080fd5b5035919050565b6001600160a01b038116811461081257600080fd5b600080604083850312156120ac57600080fd5b8235915060208301356120be81612084565b809150509250929050565b6000602082840312156120db57600080fd5b8135610e2381612084565b6001600160401b038116811461081257600080fd5b60008060006040848603121561211057600080fd5b83356001600160401b038082111561212757600080fd5b818601915086601f83011261213b57600080fd5b81358181111561214a57600080fd5b87602082850101111561215c57600080fd5b60209283019550935050840135612172816120e6565b809150509250925092565b6000806000806000806000806000806101408b8d03121561219d57600080fd5b8a356121a881612084565b995060208b01356121b881612084565b985060408b01356121c881612084565b975060608b0135965060808b0135955060a08b0135945060c08b01356121ed81612084565b935060e08b01356121fd81612084565b92506101008b013561220e81612084565b91506101208b013561221f81612084565b809150509295989b9194979a5092959850565b60008083601f84011261224457600080fd5b5081356001600160401b0381111561225b57600080fd5b6020830191508360208260051b850101111561167657600080fd5b801515811461081257600080fd5b60008060008060006060868803121561229c57600080fd5b85356001600160401b03808211156122b357600080fd5b6122bf89838a01612232565b909750955060208801359150808211156122d857600080fd5b506122e588828901612232565b90945092505060408601356122f981612276565b809150509295509295909350565b634e487b7160e01b600052604160045260246000fd5b604080519081016001600160401b038111828210171561233f5761233f612307565b60405290565b604051606081016001600160401b038111828210171561233f5761233f612307565b604051601f8201601f191681016001600160401b038111828210171561238f5761238f612307565b604052919050565b60006001600160401b038211156123b0576123b0612307565b50601f01601f191660200190565b600082601f8301126123cf57600080fd5b81356123e26123dd82612397565b612367565b8181528460208386010111156123f757600080fd5b816020850160208301376000918101602001919091529392505050565b600080600080600080600060c0888a03121561242f57600080fd5b87356001600160401b038082111561244657600080fd5b6124528b838c016123be565b985060208a0135915061246482612084565b909650604089013590612476826120e6565b90955060608901359061248882612084565b9094506080890135908082111561249e57600080fd5b506124ab8a828b01612232565b90945092505060a08801356124bf81612276565b8091505092959891949750929550565b600080604083850312156124e257600080fd5b50508035926020909101359150565b60006020828403121561250357600080fd5b81356001600160401b0381111561251957600080fd5b612525848285016123be565b949350505050565b6000806040838503121561254057600080fd5b82356001600160401b0381111561255657600080fd5b612562858286016123be565b92505060208301356120be816120e6565b60008060008060008060008060e0898b03121561258f57600080fd5b88356001600160401b03808211156125a657600080fd5b6125b28c838d016123be565b995060208b013591506125c482612084565b90975060408a0135906125d6826120e6565b90965060608a0135955060808a0135906125ef82612084565b90945060a08a0135908082111561260557600080fd5b506126128b828c01612232565b90945092505060c089013561262681612276565b809150509295985092959890939650565b634e487b7160e01b600052601160045260246000fd5b8181038181111561073f5761073f612637565b60006020828403121561267257600080fd5b8151610e23816120e6565b81835281816020850137506000828201602090810191909152601f909101601f19169091010190565b6060815260006126ba60608301868861267d565b90508360208301526001600160401b038316604083015295945050505050565b634e487b7160e01b600052603260045260246000fd5b6060808252810185905260006001600160fb1b0386111561271057600080fd5b8560051b8088608085013760809083018381038201602080860191909152918101869052869160009160a0015b8783101561276d57833561275081612084565b6001600160a01b031681529281019260019290920191810161273d565b8615156040870152935061278092505050565b9695505050505050565b60005b838110156127a557818101518382015260200161278d565b50506000910152565b60006127bc6123dd84612397565b90508281528383830111156127d057600080fd5b610e2383602083018461278a565b6000608082840312156127f057600080fd5b604051608081018181106001600160401b038211171561281257612812612307565b8060405250809150825161282581612084565b8152602083015161283581612084565b60208201526040830151612848816120e6565b6040820152606083015161285b81612276565b6060919091015292915050565b6000602080838503121561287b57600080fd5b82516001600160401b038082111561289257600080fd5b9084019060a082870312156128a657600080fd5b6128ae61231d565b8251828111156128bd57600080fd5b8301606081890312156128cf57600080fd5b6128d7612345565b815160ff811681146128e857600080fd5b8152818601518682015260408201518481111561290457600080fd5b82019350601f8401891361291757600080fd5b6129258985518887016127ae565b6040820152825250612939878486016127de565b848201528094505050505092915050565b6000815180845261296281602086016020860161278a565b601f01601f19169290920160200192915050565b608081526000612989608083018761294a565b6001600160a01b039590951660208301525091151560408301521515606090910152919050565b602081526000610e23602083018461294a565b6000602082840312156129d557600080fd5b8151610e2381612276565b6040815260006129f3604083018561294a565b90506001600160401b03831660208301529392505050565b600060408284031215612a1d57600080fd5b612a2561231d565b9050815181526020820151602082015292915050565b60008060808385031215612a4e57600080fd5b612a588484612a0b565b9150612a678460408501612a0b565b90509250929050565b8082018082111561073f5761073f612637565b81835260006020808501808196508560051b810191508460005b87811015612b075782840389528135601e19883603018112612abe57600080fd5b870185810190356001600160401b03811115612ad957600080fd5b803603821315612ae857600080fd5b612af386828461267d565b9a87019a9550505090840190600101612a9d565b5091979650505050505050565b8881526001600160a01b0388811660208301526001600160401b0388166040830152606082018790528516608082015260e060a08201819052600090612b5d9083018587612a83565b905082151560c08301529998505050505050505050565b7f5472616e7366657248656c7065723a20636f756c64206e6f74207472616e7366815269032b9102927a7103a37960b51b602082015260008351612bbf81602a85016020880161278a565b660103b30b63ab2960cd1b602a918401918201528351612be681603184016020880161278a565b01603101949350505050565b85815260a060208201526000612c0b60a083018761294a565b6001600160a01b0395861660408401529390941660608201526001600160401b03919091166080909101529392505050565b60008060408385031215612c5057600080fd5b8251612c5b816120e6565b6020939093015192949293505050565b608081526000612c7e608083018761294a565b60208301959095525060408101929092526001600160401b0316606090910152919050565b7f416363657373436f6e74726f6c3a206163636f756e7420000000000000000000815260008351612cdb81601785016020880161278a565b7001034b99036b4b9b9b4b733903937b6329607d1b6017918401918201528351612d0c81602884016020880161278a565b01602801949350505050565b60008251612d2a81846020870161278a565b9190910192915050565b838152604060208201526000612d4e604083018486612a83565b95945050505050565b60006020808385031215612d6a57600080fd5b82516001600160401b0380821115612d8157600080fd5b818501915085601f830112612d9557600080fd5b815181811115612da757612da7612307565b8060051b612db6858201612367565b9182528381018501918581019089841115612dd057600080fd5b86860192505b83831015612e2157825185811115612dee5760008081fd5b8601603f81018b13612e005760008081fd5b612e118b89830151604084016127ae565b8352509186019190860190612dd6565b9998505050505050505050565b60008251612e4081846020870161278a565b63173937b760e11b920191825250600401919050565b6001600160a01b03831681526040602082018190526000906125259083018461294a565b600060208284031215612e8c57600080fd5b5051919050565b808202811582820484141761073f5761073f612637565b600081612eb957612eb9612637565b506000190190565b634e487b7160e01b600052603160045260246000fdfe65d7a28e3265b37a6474929f336521b332c1681b933f6cb9f3376673440d862aa26469706673582212206a3d52d10991a468c57c6615bb62fcc62fde33eb734d4cc15addc19f2f75fb7b64736f6c63430008150033",
  "chainId": 2021,
  "contractName": "RONRegistrarController",
  "deployer": "0x968D0Cd7343f711216817E617d3f92a23dC91c07",
  "devdoc": {
    "version": 1,
    "kind": "dev",
    "details": "A registrar controller for registering and renewing names at fixed cost.",
    "methods": {
      "available(string)": {
        "details": "Checks if a name is available for registration.",
        "params": {
          "name": "The name to check availability for."
        },
        "returns": {
          "_0": "A boolean indicating whether the name is available."
        }
      },
      "bulkWhitelistProtectedNames(uint256[],address[],bool)": {
        "details": "Bulk (de)whitelist for buying protected names. Requirements: - The method caller is contract operator. Emits an event {ProtectedNamesWhitelisted}."
      },
      "commit(bytes32)": {
        "details": "Commits to a registration using the commitment hash.",
        "params": {
          "commitment": "The commitment hash."
        }
      },
      "computeCommitment(string,address,uint64,bytes32,address,bytes[],bool)": {
        "details": "Generates the commitment hash for a registration.",
        "params": {
          "data": "Additional data associated with the registration.",
          "duration": "The duration of the registration.",
          "name": "The name to be registered.",
          "owner": "The owner of the name.",
          "resolver": "The resolver contract address.",
          "reverseRecord": "Whether to use reverse record for additional data.",
          "secret": "The secret used for the commitment."
        },
        "returns": {
          "_0": "The commitment hash."
        }
      },
      "computeId(string)": {
        "details": "Calculate the corresponding id given RON_ID and name."
      },
      "getCommitmentAgeRange()": {
        "details": "Returns the range of commitment ages allowed."
      },
      "getMinRegistrationDuration()": {
        "details": "Returns the minimum registration duration."
      },
      "getNameChecker()": {
        "details": "Returns the INameChecker contract associated with this controller."
      },
      "getPriceOracle()": {
        "details": "Returns the INSDomainPrice contract associated with this controller."
      },
      "getRNSUnified()": {
        "details": "Returns the INSUnified contract associated with this controller."
      },
      "getReverseRegistrar()": {
        "details": "Returns the IReverseRegistrar contract associated with this controller."
      },
      "getRoleAdmin(bytes32)": {
        "details": "Returns the admin role that controls `role`. See {grantRole} and {revokeRole}. To change a role's admin, use {_setRoleAdmin}."
      },
      "getRoleMember(bytes32,uint256)": {
        "details": "Returns one of the accounts that have `role`. `index` must be a value between 0 and {getRoleMemberCount}, non-inclusive. Role bearers are not sorted in any particular way, and their ordering may change at any point. WARNING: When using {getRoleMember} and {getRoleMemberCount}, make sure you perform all queries on the same block. See the following https://forum.openzeppelin.com/t/iterating-over-elements-on-enumerableset-in-openzeppelin-contracts/2296[forum post] for more information."
      },
      "getRoleMemberCount(bytes32)": {
        "details": "Returns the number of accounts that have `role`. Can be used together with {getRoleMember} to enumerate all bearers of a role."
      },
      "getTreasury()": {
        "details": "Returns the treasury address."
      },
      "getWhitelistProtectedNameStatus(uint256,address)": {
        "details": "Returns the whitelist status for registering protected name."
      },
      "grantRole(bytes32,address)": {
        "details": "Grants `role` to `account`. If `account` had not been already granted `role`, emits a {RoleGranted} event. Requirements: - the caller must have ``role``'s admin role. May emit a {RoleGranted} event."
      },
      "hasRole(bytes32,address)": {
        "details": "Returns `true` if `account` has been granted `role`."
      },
      "pause()": {
        "details": "Pauses the registrar controller's functionality. Requirements: - The caller must have the admin role."
      },
      "paused()": {
        "details": "Returns true if the contract is paused, and false otherwise."
      },
      "register(string,address,uint64,bytes32,address,bytes[],bool)": {
        "details": "Registers a new name.",
        "params": {
          "data": "Additional data associated with the registration.",
          "duration": "The duration of the registration.",
          "name": "The name to be registered.",
          "owner": "The owner of the name.",
          "resolver": "The resolver contract address.",
          "reverseRecord": "Whether to use reverse record for additional data.",
          "secret": "The secret used for the commitment."
        }
      },
      "registerProtectedName(string,address,uint64,address,bytes[],bool)": {
        "details": "Registers a protected name. Requirements: - The owner is whitelisted for registering."
      },
      "renew(string,uint64)": {
        "details": "Renews an existing name registration.",
        "params": {
          "duration": "The duration of the renewal.",
          "name": "The name to be renewed."
        }
      },
      "renounceRole(bytes32,address)": {
        "details": "Revokes `role` from the calling account. Roles are often managed via {grantRole} and {revokeRole}: this function's purpose is to provide a mechanism for accounts to lose their privileges if they are compromised (such as when a trusted device is misplaced). If the calling account had been revoked `role`, emits a {RoleRevoked} event. Requirements: - the caller must be `account`. May emit a {RoleRevoked} event."
      },
      "rentPrice(string,uint64)": {
        "details": "Retrieves the rent price for a given name and duration.",
        "params": {
          "duration": "The duration of the rent.",
          "name": "The name for which to calculate the rent price."
        },
        "returns": {
          "ronPrice": "rent price in ron.",
          "usdPrice": "rent price in usd."
        }
      },
      "revokeRole(bytes32,address)": {
        "details": "Revokes `role` from `account`. If `account` had been granted `role`, emits a {RoleRevoked} event. Requirements: - the caller must have ``role``'s admin role. May emit a {RoleRevoked} event."
      },
      "setCommitmentAge(uint256,uint256)": {
        "details": "Sets the minimum and maximum commitment ages. Requirements: - Caller must have the DEFAULT_ADMIN_ROLE. - The `maxCommitmentAge` must be less than or equal to the current block timestamp. - The `maxCommitmentAge` must be greater than the `minCommitmentAge`. Emits a {CommitmentAgeUpdated} event indicating the successful update of the age range.",
        "params": {
          "maxCommitmentAge": "The maximum commitment age in seconds.",
          "minCommitmentAge": "The minimum commitment age in seconds."
        }
      },
      "setMinRegistrationDuration(uint256)": {
        "details": "Updates min registration duration. Requirements: - The caller must have the admin role."
      },
      "setPriceOracle(address)": {
        "details": "Updates price oracle address. Requirements: - The caller must have the admin role."
      },
      "setTreasury(address)": {
        "details": "Updates treasury address. Requirements: - The caller must have the admin role."
      },
      "supportsInterface(bytes4)": {
        "details": "See {IERC165-supportsInterface}."
      },
      "unpause()": {
        "details": "Unpauses the registrar controller's functionality. Requirements: - The caller must have the admin role."
      },
      "valid(string)": {
        "details": "Checks if a name is valid.",
        "params": {
          "name": "The name to check validity for."
        },
        "returns": {
          "_0": "A boolean indicating whether the name is available."
        }
      }
    },
    "events": {
      "CommitmentAgeUpdated(address,uint256,uint256)": {
        "details": "Emitted when the commitment age range is updated.",
        "params": {
          "maxCommitmentAge": "The new maximum commitment age in seconds.",
          "minCommitmentAge": "The new minimum commitment age in seconds.",
          "operator": "The address of the operator who triggered the update."
        }
      },
      "DomainPriceUpdated(address,address)": {
        "details": "Emitted when RNSDomainPrice contract is updated.",
        "params": {
          "newDomainPrice": "The new duration domain price contract.",
          "operator": "The address of the operator who triggered the update."
        }
      },
      "Initialized(uint8)": {
        "details": "Triggered when the contract has been initialized or reinitialized."
      },
      "MinRegistrationDurationUpdated(address,uint256)": {
        "details": "Emitted when the min registration duration is updated.",
        "params": {
          "duration": "The new duration in seconds.",
          "operator": "The address of the operator who triggered the update."
        }
      },
      "NameRegistered(string,uint256,address,uint256,uint256,uint64)": {
        "details": "Emitted when a new name is successfully registered.",
        "params": {
          "expires": "The expiration timestamp of the registration.",
          "id": "The namehash of the registered name.",
          "name": "The registered name.",
          "owner": "The owner of the registered name.",
          "ronPrice": "The cost of the registration in RON.",
          "usdPrice": "The cost of the registration in USD."
        }
      },
      "NameRenewed(string,uint256,uint256,uint64)": {
        "details": "Emitted when a name is renewed.",
        "params": {
          "cost": "The cost of renewal.",
          "expires": "The new expiration timestamp after renewal.",
          "id": "The namehash of the registered name.",
          "name": "The renewed name."
        }
      },
      "Paused(address)": {
        "details": "Emitted when the pause is triggered by `account`."
      },
      "ProtectedNamesWhitelisted(address,uint256[],address[],bool)": {
        "details": "Emitted the whitelist status is updated for the owners of the protected names.",
        "params": {
          "operator": "The address of the operator who triggered the update."
        }
      },
      "RoleAdminChanged(bytes32,bytes32,bytes32)": {
        "details": "Emitted when `newAdminRole` is set as ``role``'s admin role, replacing `previousAdminRole` `DEFAULT_ADMIN_ROLE` is the starting admin for all roles, despite {RoleAdminChanged} not being emitted signaling this. _Available since v3.1._"
      },
      "RoleGranted(bytes32,address,address)": {
        "details": "Emitted when `account` is granted `role`. `sender` is the account that originated the contract call, an admin role bearer except when using {AccessControl-_setupRole}."
      },
      "RoleRevoked(bytes32,address,address)": {
        "details": "Emitted when `account` is revoked `role`. `sender` is the account that originated the contract call:   - if using `revokeRole`, it is the admin role bearer   - if using `renounceRole`, it is the role bearer (i.e. `account`)"
      },
      "Unpaused(address)": {
        "details": "Emitted when the pause is lifted by `account`."
      }
    },
    "errors": {
      "CommitmentTooNew(bytes32)": [
        {
          "details": "Error: The provided commitment timestamp is too new for registration."
        }
      ],
      "CommitmentTooOld(bytes32)": [
        {
          "details": "Error: The provided commitment timestamp is too old for registration."
        }
      ],
      "DurationTooShort(uint64)": [
        {
          "details": "Error: The requested duration for registration is too short."
        }
      ],
      "ErrInvalidRegisterProtectedName(string,address,bool,bool)": [
        {
          "details": "Thrown when received invalid params for registering protected name"
        }
      ],
      "ErrRequestedForProtectedName(string)": [
        {
          "details": "Thrown when some one requests for protected names"
        }
      ],
      "InsufficientValue()": [
        {
          "details": "Error: Insufficient value (RON) provided for registration."
        }
      ],
      "InvalidArrayLength()": [
        {
          "details": "Thrown when received invalid array length"
        }
      ],
      "MaxCommitmentAgeTooHigh()": [
        {
          "details": "Error: The maximum commitment age is set too high."
        }
      ],
      "MaxCommitmentAgeTooLow()": [
        {
          "details": "Error: The maximum commitment age is set too low."
        }
      ],
      "NameNotAvailable(string)": [
        {
          "details": "Error: The requested name is not available for registration."
        }
      ],
      "ResolverRequiredWhenDataSupplied()": [
        {
          "details": "Error: A resolver is required when additional data is supplied during registration."
        }
      ],
      "Unauthorized(bytes32)": [
        {
          "details": "Error: The sender is not authorized for the given RNS node."
        }
      ],
      "UnexpiredCommitmentExists(bytes32)": [
        {
          "details": "Error: An unexpired commitment already exists for the given commitment."
        }
      ]
    },
    "title": "RONRegistrarController"
  },
  "isFoundry": true,
  "nonce": 182507,
  "numDeployments": 1,
  "storageLayout": {
    "storage": [
      {
        "astId": 50180,
        "contract": "src/RONRegistrarController.sol:RONRegistrarController",
        "label": "_paused",
        "offset": 0,
        "slot": "0",
        "type": "t_bool"
      },
      {
        "astId": 50000,
        "contract": "src/RONRegistrarController.sol:RONRegistrarController",
        "label": "_initialized",
        "offset": 1,
        "slot": "0",
        "type": "t_uint8"
      },
      {
        "astId": 50003,
        "contract": "src/RONRegistrarController.sol:RONRegistrarController",
        "label": "_initializing",
        "offset": 2,
        "slot": "0",
        "type": "t_bool"
      },
      {
        "astId": 50281,
        "contract": "src/RONRegistrarController.sol:RONRegistrarController",
        "label": "_status",
        "offset": 0,
        "slot": "1",
        "type": "t_uint256"
      },
      {
        "astId": 48473,
        "contract": "src/RONRegistrarController.sol:RONRegistrarController",
        "label": "_roles",
        "offset": 0,
        "slot": "2",
        "type": "t_mapping(t_bytes32,t_struct(RoleData)48468_storage)"
      },
      {
        "astId": 48783,
        "contract": "src/RONRegistrarController.sol:RONRegistrarController",
        "label": "_roleMembers",
        "offset": 0,
        "slot": "3",
        "type": "t_mapping(t_bytes32,t_struct(AddressSet)54352_storage)"
      },
      {
        "astId": 63015,
        "contract": "src/RONRegistrarController.sol:RONRegistrarController",
        "label": "____gap",
        "offset": 0,
        "slot": "4",
        "type": "t_array(t_uint256)50_storage"
      },
      {
        "astId": 63018,
        "contract": "src/RONRegistrarController.sol:RONRegistrarController",
        "label": "_minCommitmentAge",
        "offset": 0,
        "slot": "54",
        "type": "t_uint256"
      },
      {
        "astId": 63021,
        "contract": "src/RONRegistrarController.sol:RONRegistrarController",
        "label": "_maxCommitmentAge",
        "offset": 0,
        "slot": "55",
        "type": "t_uint256"
      },
      {
        "astId": 63024,
        "contract": "src/RONRegistrarController.sol:RONRegistrarController",
        "label": "_minRegistrationDuration",
        "offset": 0,
        "slot": "56",
        "type": "t_uint256"
      },
      {
        "astId": 63027,
        "contract": "src/RONRegistrarController.sol:RONRegistrarController",
        "label": "_treasury",
        "offset": 0,
        "slot": "57",
        "type": "t_address_payable"
      },
      {
        "astId": 63031,
        "contract": "src/RONRegistrarController.sol:RONRegistrarController",
        "label": "_rnsUnified",
        "offset": 0,
        "slot": "58",
        "type": "t_contract(INSUnified)65128"
      },
      {
        "astId": 63035,
        "contract": "src/RONRegistrarController.sol:RONRegistrarController",
        "label": "_nameChecker",
        "offset": 0,
        "slot": "59",
        "type": "t_contract(INameChecker)65247"
      },
      {
        "astId": 63039,
        "contract": "src/RONRegistrarController.sol:RONRegistrarController",
        "label": "_priceOracle",
        "offset": 0,
        "slot": "60",
        "type": "t_contract(INSDomainPrice)64755"
      },
      {
        "astId": 63043,
        "contract": "src/RONRegistrarController.sol:RONRegistrarController",
        "label": "_reverseRegistrar",
        "offset": 0,
        "slot": "61",
        "type": "t_contract(INSReverseRegistrar)64874"
      },
      {
        "astId": 63048,
        "contract": "src/RONRegistrarController.sol:RONRegistrarController",
        "label": "_committedAt",
        "offset": 0,
        "slot": "62",
        "type": "t_mapping(t_bytes32,t_uint256)"
      },
      {
        "astId": 63055,
        "contract": "src/RONRegistrarController.sol:RONRegistrarController",
        "label": "_protectedNamesWhitelisted",
        "offset": 0,
        "slot": "63",
        "type": "t_mapping(t_uint256,t_mapping(t_address,t_bool))"
      }
    ],
    "types": {
      "t_address": {
        "encoding": "inplace",
        "label": "address",
        "numberOfBytes": "20"
      },
      "t_address_payable": {
        "encoding": "inplace",
        "label": "address payable",
        "numberOfBytes": "20"
      },
      "t_array(t_bytes32)dyn_storage": {
        "encoding": "dynamic_array",
        "label": "bytes32[]",
        "numberOfBytes": "32",
        "base": "t_bytes32"
      },
      "t_array(t_uint256)50_storage": {
        "encoding": "inplace",
        "label": "uint256[50]",
        "numberOfBytes": "1600",
        "base": "t_uint256"
      },
      "t_bool": {
        "encoding": "inplace",
        "label": "bool",
        "numberOfBytes": "1"
      },
      "t_bytes32": {
        "encoding": "inplace",
        "label": "bytes32",
        "numberOfBytes": "32"
      },
      "t_contract(INSDomainPrice)64755": {
        "encoding": "inplace",
        "label": "contract INSDomainPrice",
        "numberOfBytes": "20"
      },
      "t_contract(INSReverseRegistrar)64874": {
        "encoding": "inplace",
        "label": "contract INSReverseRegistrar",
        "numberOfBytes": "20"
      },
      "t_contract(INSUnified)65128": {
        "encoding": "inplace",
        "label": "contract INSUnified",
        "numberOfBytes": "20"
      },
      "t_contract(INameChecker)65247": {
        "encoding": "inplace",
        "label": "contract INameChecker",
        "numberOfBytes": "20"
      },
      "t_mapping(t_address,t_bool)": {
        "encoding": "mapping",
        "key": "t_address",
        "label": "mapping(address => bool)",
        "numberOfBytes": "32",
        "value": "t_bool"
      },
      "t_mapping(t_bytes32,t_struct(AddressSet)54352_storage)": {
        "encoding": "mapping",
        "key": "t_bytes32",
        "label": "mapping(bytes32 => struct EnumerableSet.AddressSet)",
        "numberOfBytes": "32",
        "value": "t_struct(AddressSet)54352_storage"
      },
      "t_mapping(t_bytes32,t_struct(RoleData)48468_storage)": {
        "encoding": "mapping",
        "key": "t_bytes32",
        "label": "mapping(bytes32 => struct AccessControl.RoleData)",
        "numberOfBytes": "32",
        "value": "t_struct(RoleData)48468_storage"
      },
      "t_mapping(t_bytes32,t_uint256)": {
        "encoding": "mapping",
        "key": "t_bytes32",
        "label": "mapping(bytes32 => uint256)",
        "numberOfBytes": "32",
        "value": "t_uint256"
      },
      "t_mapping(t_uint256,t_mapping(t_address,t_bool))": {
        "encoding": "mapping",
        "key": "t_uint256",
        "label": "mapping(uint256 => mapping(address => bool))",
        "numberOfBytes": "32",
        "value": "t_mapping(t_address,t_bool)"
      },
      "t_struct(AddressSet)54352_storage": {
        "encoding": "inplace",
        "label": "struct EnumerableSet.AddressSet",
        "numberOfBytes": "64",
        "members": [
          {
            "astId": 54351,
            "contract": "src/RONRegistrarController.sol:RONRegistrarController",
            "label": "_inner",
            "offset": 0,
            "slot": "0",
            "type": "t_struct(Set)54037_storage"
          }
        ]
      },
      "t_struct(RoleData)48468_storage": {
        "encoding": "inplace",
        "label": "struct AccessControl.RoleData",
        "numberOfBytes": "64",
        "members": [
          {
            "astId": 48465,
            "contract": "src/RONRegistrarController.sol:RONRegistrarController",
            "label": "members",
            "offset": 0,
            "slot": "0",
            "type": "t_mapping(t_address,t_bool)"
          },
          {
            "astId": 48467,
            "contract": "src/RONRegistrarController.sol:RONRegistrarController",
            "label": "adminRole",
            "offset": 0,
            "slot": "1",
            "type": "t_bytes32"
          }
        ]
      },
      "t_struct(Set)54037_storage": {
        "encoding": "inplace",
        "label": "struct EnumerableSet.Set",
        "numberOfBytes": "64",
        "members": [
          {
            "astId": 54032,
            "contract": "src/RONRegistrarController.sol:RONRegistrarController",
            "label": "_values",
            "offset": 0,
            "slot": "0",
            "type": "t_array(t_bytes32)dyn_storage"
          },
          {
            "astId": 54036,
            "contract": "src/RONRegistrarController.sol:RONRegistrarController",
            "label": "_indexes",
            "offset": 0,
            "slot": "1",
            "type": "t_mapping(t_bytes32,t_uint256)"
          }
        ]
      },
      "t_uint256": {
        "encoding": "inplace",
        "label": "uint256",
        "numberOfBytes": "32"
      },
      "t_uint8": {
        "encoding": "inplace",
        "label": "uint8",
        "numberOfBytes": "1"
      }
    }
  },
  "timestamp": 1697372891,
  "userdoc": {
    "version": 1,
    "kind": "user",
    "notice": "Customized version of ETHRegistrarController: https://github.com/ensdomains/ens-contracts/blob/45455f1229556ed4f416ef7225d4caea2c1bc0b5/contracts/ethregistrar/ETHRegistrarController.sol"
  }
}