{
  "abi": [
    {
      "inputs": [],
      "stateMutability": "payable",
      "type": "constructor"
    },
    {
      "inputs": [
        {
          "internalType": "bytes32",
          "name": "commitment",
          "type": "bytes32"
        }
      ],
      "name": "CommitmentTooNew",
      "type": "error"
    },
    {
      "inputs": [
        {
          "internalType": "bytes32",
          "name": "commitment",
          "type": "bytes32"
        }
      ],
      "name": "CommitmentTooOld",
      "type": "error"
    },
    {
      "inputs": [
        {
          "internalType": "uint64",
          "name": "duration",
          "type": "uint64"
        }
      ],
      "name": "DurationTooShort",
      "type": "error"
    },
    {
      "inputs": [
        {
          "internalType": "string",
          "name": "name",
          "type": "string"
        },
        {
          "internalType": "address",
          "name": "requestOwner",
          "type": "address"
        },
        {
          "internalType": "bool",
          "name": "nameProtected",
          "type": "bool"
        },
        {
          "internalType": "bool",
          "name": "ownerWhitelisted",
          "type": "bool"
        }
      ],
      "name": "ErrInvalidRegisterProtectedName",
      "type": "error"
    },
    {
      "inputs": [
        {
          "internalType": "string",
          "name": "name",
          "type": "string"
        }
      ],
      "name": "ErrRequestedForProtectedName",
      "type": "error"
    },
    {
      "inputs": [],
      "name": "InsufficientValue",
      "type": "error"
    },
    {
      "inputs": [],
      "name": "InvalidArrayLength",
      "type": "error"
    },
    {
      "inputs": [],
      "name": "MaxCommitmentAgeTooHigh",
      "type": "error"
    },
    {
      "inputs": [],
      "name": "MaxCommitmentAgeTooLow",
      "type": "error"
    },
    {
      "inputs": [
        {
          "internalType": "string",
          "name": "name",
          "type": "string"
        }
      ],
      "name": "NameNotAvailable",
      "type": "error"
    },
    {
      "inputs": [],
      "name": "ResolverRequiredWhenDataSupplied",
      "type": "error"
    },
    {
      "inputs": [
        {
          "internalType": "bytes32",
          "name": "node",
          "type": "bytes32"
        }
      ],
      "name": "Unauthorized",
      "type": "error"
    },
    {
      "inputs": [
        {
          "internalType": "bytes32",
          "name": "commitment",
          "type": "bytes32"
        }
      ],
      "name": "UnexpiredCommitmentExists",
      "type": "error"
    },
    {
      "anonymous": false,
      "inputs": [
        {
          "indexed": true,
          "internalType": "address",
          "name": "operator",
          "type": "address"
        },
        {
          "indexed": false,
          "internalType": "uint256",
          "name": "minCommitmentAge",
          "type": "uint256"
        },
        {
          "indexed": false,
          "internalType": "uint256",
          "name": "maxCommitmentAge",
          "type": "uint256"
        }
      ],
      "name": "CommitmentAgeUpdated",
      "type": "event"
    },
    {
      "anonymous": false,
      "inputs": [
        {
          "indexed": true,
          "internalType": "address",
          "name": "operator",
          "type": "address"
        },
        {
          "indexed": false,
          "internalType": "contract INSDomainPrice",
          "name": "newDomainPrice",
          "type": "address"
        }
      ],
      "name": "DomainPriceUpdated",
      "type": "event"
    },
    {
      "anonymous": false,
      "inputs": [
        {
          "indexed": false,
          "internalType": "uint8",
          "name": "version",
          "type": "uint8"
        }
      ],
      "name": "Initialized",
      "type": "event"
    },
    {
      "anonymous": false,
      "inputs": [
        {
          "indexed": true,
          "internalType": "address",
          "name": "operator",
          "type": "address"
        },
        {
          "indexed": false,
          "internalType": "uint256",
          "name": "duration",
          "type": "uint256"
        }
      ],
      "name": "MinRegistrationDurationUpdated",
      "type": "event"
    },
    {
      "anonymous": false,
      "inputs": [
        {
          "indexed": false,
          "internalType": "string",
          "name": "name",
          "type": "string"
        },
        {
          "indexed": true,
          "internalType": "uint256",
          "name": "id",
          "type": "uint256"
        },
        {
          "indexed": true,
          "internalType": "address",
          "name": "owner",
          "type": "address"
        },
        {
          "indexed": false,
          "internalType": "uint256",
          "name": "ronPrice",
          "type": "uint256"
        },
        {
          "indexed": false,
          "internalType": "uint256",
          "name": "usdPrice",
          "type": "uint256"
        },
        {
          "indexed": false,
          "internalType": "uint64",
          "name": "expires",
          "type": "uint64"
        }
      ],
      "name": "NameRegistered",
      "type": "event"
    },
    {
      "anonymous": false,
      "inputs": [
        {
          "indexed": false,
          "internalType": "string",
          "name": "name",
          "type": "string"
        },
        {
          "indexed": true,
          "internalType": "uint256",
          "name": "id",
          "type": "uint256"
        },
        {
          "indexed": false,
          "internalType": "uint256",
          "name": "cost",
          "type": "uint256"
        },
        {
          "indexed": false,
          "internalType": "uint64",
          "name": "expires",
          "type": "uint64"
        }
      ],
      "name": "NameRenewed",
      "type": "event"
    },
    {
      "anonymous": false,
      "inputs": [
        {
          "indexed": false,
          "internalType": "address",
          "name": "account",
          "type": "address"
        }
      ],
      "name": "Paused",
      "type": "event"
    },
    {
      "anonymous": false,
      "inputs": [
        {
          "indexed": true,
          "internalType": "address",
          "name": "operator",
          "type": "address"
        },
        {
          "indexed": false,
          "internalType": "uint256[]",
          "name": "ids",
          "type": "uint256[]"
        },
        {
          "indexed": false,
          "internalType": "address[]",
          "name": "owners",
          "type": "address[]"
        },
        {
          "indexed": false,
          "internalType": "bool",
          "name": "status",
          "type": "bool"
        }
      ],
      "name": "ProtectedNamesWhitelisted",
      "type": "event"
    },
    {
      "anonymous": false,
      "inputs": [
        {
          "indexed": true,
          "internalType": "bytes32",
          "name": "role",
          "type": "bytes32"
        },
        {
          "indexed": true,
          "internalType": "bytes32",
          "name": "previousAdminRole",
          "type": "bytes32"
        },
        {
          "indexed": true,
          "internalType": "bytes32",
          "name": "newAdminRole",
          "type": "bytes32"
        }
      ],
      "name": "RoleAdminChanged",
      "type": "event"
    },
    {
      "anonymous": false,
      "inputs": [
        {
          "indexed": true,
          "internalType": "bytes32",
          "name": "role",
          "type": "bytes32"
        },
        {
          "indexed": true,
          "internalType": "address",
          "name": "account",
          "type": "address"
        },
        {
          "indexed": true,
          "internalType": "address",
          "name": "sender",
          "type": "address"
        }
      ],
      "name": "RoleGranted",
      "type": "event"
    },
    {
      "anonymous": false,
      "inputs": [
        {
          "indexed": true,
          "internalType": "bytes32",
          "name": "role",
          "type": "bytes32"
        },
        {
          "indexed": true,
          "internalType": "address",
          "name": "account",
          "type": "address"
        },
        {
          "indexed": true,
          "internalType": "address",
          "name": "sender",
          "type": "address"
        }
      ],
      "name": "RoleRevoked",
      "type": "event"
    },
    {
      "anonymous": false,
      "inputs": [
        {
          "indexed": false,
          "internalType": "address",
          "name": "account",
          "type": "address"
        }
      ],
      "name": "Unpaused",
      "type": "event"
    },
    {
      "inputs": [],
      "name": "DEFAULT_ADMIN_ROLE",
      "outputs": [
        {
          "internalType": "bytes32",
          "name": "",
          "type": "bytes32"
        }
      ],
      "stateMutability": "view",
      "type": "function"
    },
    {
      "inputs": [],
      "name": "MIN_DOMAIN_LENGTH",
      "outputs": [
        {
          "internalType": "uint8",
          "name": "",
          "type": "uint8"
        }
      ],
      "stateMutability": "view",
      "type": "function"
    },
    {
      "inputs": [],
      "name": "OPERATOR_ROLE",
      "outputs": [
        {
          "internalType": "bytes32",
          "name": "",
          "type": "bytes32"
        }
      ],
      "stateMutability": "view",
      "type": "function"
    },
    {
      "inputs": [],
      "name": "PAUSER_ROLE",
      "outputs": [
        {
          "internalType": "bytes32",
          "name": "",
          "type": "bytes32"
        }
      ],
      "stateMutability": "view",
      "type": "function"
    },
    {
      "inputs": [
        {
          "internalType": "string",
          "name": "name",
          "type": "string"
        }
      ],
      "name": "available",
      "outputs": [
        {
          "internalType": "bool",
          "name": "",
          "type": "bool"
        }
      ],
      "stateMutability": "view",
      "type": "function"
    },
    {
      "inputs": [
        {
          "internalType": "uint256[]",
          "name": "ids",
          "type": "uint256[]"
        },
        {
          "internalType": "address[]",
          "name": "owners",
          "type": "address[]"
        },
        {
          "internalType": "bool",
          "name": "status",
          "type": "bool"
        }
      ],
      "name": "bulkWhitelistProtectedNames",
      "outputs": [],
      "stateMutability": "nonpayable",
      "type": "function"
    },
    {
      "inputs": [
        {
          "internalType": "bytes32",
          "name": "commitment",
          "type": "bytes32"
        }
      ],
      "name": "commit",
      "outputs": [],
      "stateMutability": "nonpayable",
      "type": "function"
    },
    {
      "inputs": [
        {
          "internalType": "string",
          "name": "name",
          "type": "string"
        },
        {
          "internalType": "address",
          "name": "owner",
          "type": "address"
        },
        {
          "internalType": "uint64",
          "name": "duration",
          "type": "uint64"
        },
        {
          "internalType": "bytes32",
          "name": "secret",
          "type": "bytes32"
        },
        {
          "internalType": "address",
          "name": "resolver",
          "type": "address"
        },
        {
          "internalType": "bytes[]",
          "name": "data",
          "type": "bytes[]"
        },
        {
          "internalType": "bool",
          "name": "reverseRecord",
          "type": "bool"
        }
      ],
      "name": "computeCommitment",
      "outputs": [
        {
          "internalType": "bytes32",
          "name": "",
          "type": "bytes32"
        }
      ],
      "stateMutability": "view",
      "type": "function"
    },
    {
      "inputs": [
        {
          "internalType": "string",
          "name": "name",
          "type": "string"
        }
      ],
      "name": "computeId",
      "outputs": [
        {
          "internalType": "uint256",
          "name": "id",
          "type": "uint256"
        }
      ],
      "stateMutability": "pure",
      "type": "function"
    },
    {
      "inputs": [],
      "name": "getCommitmentAgeRange",
      "outputs": [
        {
          "internalType": "uint256",
          "name": "minCommitmentAge",
          "type": "uint256"
        },
        {
          "internalType": "uint256",
          "name": "maxCommitmentAge",
          "type": "uint256"
        }
      ],
      "stateMutability": "view",
      "type": "function"
    },
    {
      "inputs": [],
      "name": "getMinRegistrationDuration",
      "outputs": [
        {
          "internalType": "uint256",
          "name": "",
          "type": "uint256"
        }
      ],
      "stateMutability": "view",
      "type": "function"
    },
    {
      "inputs": [],
      "name": "getNameChecker",
      "outputs": [
        {
          "internalType": "contract INameChecker",
          "name": "",
          "type": "address"
        }
      ],
      "stateMutability": "view",
      "type": "function"
    },
    {
      "inputs": [],
      "name": "getPriceOracle",
      "outputs": [
        {
          "internalType": "contract INSDomainPrice",
          "name": "",
          "type": "address"
        }
      ],
      "stateMutability": "view",
      "type": "function"
    },
    {
      "inputs": [],
      "name": "getRNSUnified",
      "outputs": [
        {
          "internalType": "contract INSUnified",
          "name": "",
          "type": "address"
        }
      ],
      "stateMutability": "view",
      "type": "function"
    },
    {
      "inputs": [],
      "name": "getReverseRegistrar",
      "outputs": [
        {
          "internalType": "contract INSReverseRegistrar",
          "name": "",
          "type": "address"
        }
      ],
      "stateMutability": "view",
      "type": "function"
    },
    {
      "inputs": [
        {
          "internalType": "bytes32",
          "name": "role",
          "type": "bytes32"
        }
      ],
      "name": "getRoleAdmin",
      "outputs": [
        {
          "internalType": "bytes32",
          "name": "",
          "type": "bytes32"
        }
      ],
      "stateMutability": "view",
      "type": "function"
    },
    {
      "inputs": [
        {
          "internalType": "bytes32",
          "name": "role",
          "type": "bytes32"
        },
        {
          "internalType": "uint256",
          "name": "index",
          "type": "uint256"
        }
      ],
      "name": "getRoleMember",
      "outputs": [
        {
          "internalType": "address",
          "name": "",
          "type": "address"
        }
      ],
      "stateMutability": "view",
      "type": "function"
    },
    {
      "inputs": [
        {
          "internalType": "bytes32",
          "name": "role",
          "type": "bytes32"
        }
      ],
      "name": "getRoleMemberCount",
      "outputs": [
        {
          "internalType": "uint256",
          "name": "",
          "type": "uint256"
        }
      ],
      "stateMutability": "view",
      "type": "function"
    },
    {
      "inputs": [],
      "name": "getTreasury",
      "outputs": [
        {
          "internalType": "address",
          "name": "",
          "type": "address"
        }
      ],
      "stateMutability": "view",
      "type": "function"
    },
    {
      "inputs": [
        {
          "internalType": "uint256",
          "name": "id",
          "type": "uint256"
        },
        {
          "internalType": "address",
          "name": "owner",
          "type": "address"
        }
      ],
      "name": "getWhitelistProtectedNameStatus",
      "outputs": [
        {
          "internalType": "bool",
          "name": "status",
          "type": "bool"
        }
      ],
      "stateMutability": "view",
      "type": "function"
    },
    {
      "inputs": [
        {
          "internalType": "bytes32",
          "name": "role",
          "type": "bytes32"
        },
        {
          "internalType": "address",
          "name": "account",
          "type": "address"
        }
      ],
      "name": "grantRole",
      "outputs": [],
      "stateMutability": "nonpayable",
      "type": "function"
    },
    {
      "inputs": [
        {
          "internalType": "bytes32",
          "name": "role",
          "type": "bytes32"
        },
        {
          "internalType": "address",
          "name": "account",
          "type": "address"
        }
      ],
      "name": "hasRole",
      "outputs": [
        {
          "internalType": "bool",
          "name": "",
          "type": "bool"
        }
      ],
      "stateMutability": "view",
      "type": "function"
    },
    {
      "inputs": [
        {
          "internalType": "address",
          "name": "admin",
          "type": "address"
        },
        {
          "internalType": "address",
          "name": "pauser",
          "type": "address"
        },
        {
          "internalType": "address payable",
          "name": "treasury",
          "type": "address"
        },
        {
          "internalType": "uint256",
          "name": "maxCommitmentAge",
          "type": "uint256"
        },
        {
          "internalType": "uint256",
          "name": "minCommitmentAge",
          "type": "uint256"
        },
        {
          "internalType": "uint256",
          "name": "minRegistrationDuration",
          "type": "uint256"
        },
        {
          "internalType": "contract INSUnified",
          "name": "rnsUnified",
          "type": "address"
        },
        {
          "internalType": "contract INameChecker",
          "name": "nameChecker",
          "type": "address"
        },
        {
          "internalType": "contract INSDomainPrice",
          "name": "priceOracle",
          "type": "address"
        },
        {
          "internalType": "contract INSReverseRegistrar",
          "name": "reverseRegistrar",
          "type": "address"
        }
      ],
      "name": "initialize",
      "outputs": [],
      "stateMutability": "nonpayable",
      "type": "function"
    },
    {
      "inputs": [],
      "name": "pause",
      "outputs": [],
      "stateMutability": "nonpayable",
      "type": "function"
    },
    {
      "inputs": [],
      "name": "paused",
      "outputs": [
        {
          "internalType": "bool",
          "name": "",
          "type": "bool"
        }
      ],
      "stateMutability": "view",
      "type": "function"
    },
    {
      "inputs": [
        {
          "internalType": "string",
          "name": "name",
          "type": "string"
        },
        {
          "internalType": "address",
          "name": "owner",
          "type": "address"
        },
        {
          "internalType": "uint64",
          "name": "duration",
          "type": "uint64"
        },
        {
          "internalType": "bytes32",
          "name": "secret",
          "type": "bytes32"
        },
        {
          "internalType": "address",
          "name": "resolver",
          "type": "address"
        },
        {
          "internalType": "bytes[]",
          "name": "data",
          "type": "bytes[]"
        },
        {
          "internalType": "bool",
          "name": "reverseRecord",
          "type": "bool"
        }
      ],
      "name": "register",
      "outputs": [],
      "stateMutability": "payable",
      "type": "function"
    },
    {
      "inputs": [
        {
          "internalType": "string",
          "name": "name",
          "type": "string"
        },
        {
          "internalType": "address",
          "name": "owner",
          "type": "address"
        },
        {
          "internalType": "uint64",
          "name": "duration",
          "type": "uint64"
        },
        {
          "internalType": "address",
          "name": "resolver",
          "type": "address"
        },
        {
          "internalType": "bytes[]",
          "name": "data",
          "type": "bytes[]"
        },
        {
          "internalType": "bool",
          "name": "reverseRecord",
          "type": "bool"
        }
      ],
      "name": "registerProtectedName",
      "outputs": [],
      "stateMutability": "payable",
      "type": "function"
    },
    {
      "inputs": [
        {
          "internalType": "string",
          "name": "name",
          "type": "string"
        },
        {
          "internalType": "uint64",
          "name": "duration",
          "type": "uint64"
        }
      ],
      "name": "renew",
      "outputs": [],
      "stateMutability": "payable",
      "type": "function"
    },
    {
      "inputs": [
        {
          "internalType": "bytes32",
          "name": "role",
          "type": "bytes32"
        },
        {
          "internalType": "address",
          "name": "account",
          "type": "address"
        }
      ],
      "name": "renounceRole",
      "outputs": [],
      "stateMutability": "nonpayable",
      "type": "function"
    },
    {
      "inputs": [
        {
          "internalType": "string",
          "name": "name",
          "type": "string"
        },
        {
          "internalType": "uint64",
          "name": "duration",
          "type": "uint64"
        }
      ],
      "name": "rentPrice",
      "outputs": [
        {
          "internalType": "uint256",
          "name": "usdPrice",
          "type": "uint256"
        },
        {
          "internalType": "uint256",
          "name": "ronPrice",
          "type": "uint256"
        }
      ],
      "stateMutability": "view",
      "type": "function"
    },
    {
      "inputs": [
        {
          "internalType": "bytes32",
          "name": "role",
          "type": "bytes32"
        },
        {
          "internalType": "address",
          "name": "account",
          "type": "address"
        }
      ],
      "name": "revokeRole",
      "outputs": [],
      "stateMutability": "nonpayable",
      "type": "function"
    },
    {
      "inputs": [
        {
          "internalType": "uint256",
          "name": "minCommitmentAge",
          "type": "uint256"
        },
        {
          "internalType": "uint256",
          "name": "maxCommitmentAge",
          "type": "uint256"
        }
      ],
      "name": "setCommitmentAge",
      "outputs": [],
      "stateMutability": "nonpayable",
      "type": "function"
    },
    {
      "inputs": [
        {
          "internalType": "uint256",
          "name": "duration",
          "type": "uint256"
        }
      ],
      "name": "setMinRegistrationDuration",
      "outputs": [],
      "stateMutability": "nonpayable",
      "type": "function"
    },
    {
      "inputs": [
        {
          "internalType": "contract INSDomainPrice",
          "name": "priceOracle",
          "type": "address"
        }
      ],
      "name": "setPriceOracle",
      "outputs": [],
      "stateMutability": "nonpayable",
      "type": "function"
    },
    {
      "inputs": [
        {
          "internalType": "address payable",
          "name": "addr",
          "type": "address"
        }
      ],
      "name": "setTreasury",
      "outputs": [],
      "stateMutability": "nonpayable",
      "type": "function"
    },
    {
      "inputs": [
        {
          "internalType": "bytes4",
          "name": "interfaceId",
          "type": "bytes4"
        }
      ],
      "name": "supportsInterface",
      "outputs": [
        {
          "internalType": "bool",
          "name": "",
          "type": "bool"
        }
      ],
      "stateMutability": "view",
      "type": "function"
    },
    {
      "inputs": [],
      "name": "unpause",
      "outputs": [],
      "stateMutability": "nonpayable",
      "type": "function"
    },
    {
      "inputs": [
        {
          "internalType": "string",
          "name": "name",
          "type": "string"
        }
      ],
      "name": "valid",
      "outputs": [
        {
          "internalType": "bool",
          "name": "",
          "type": "bool"
        }
      ],
      "stateMutability": "view",
      "type": "function"
    }
  ],
  "address": "0x4d3a1C1C7EAe7E4e68fc0eFF8d721B0140793244",
  "args": "0x",
  "blockNumber": 21481353,
  "bytecode": "0x60806040526000805460ff19169055600180556200001c62000022565b620000e9565b60005462010000900460ff1615620000905760405162461bcd60e51b815260206004820152602760248201527f496e697469616c697a61626c653a20636f6e747261637420697320696e697469604482015266616c697a696e6760c81b606482015260840160405180910390fd5b600054610100900460ff90811614620000e7576000805461ff00191661ff0017905560405160ff81527f7f26b83ff96e1f2b6a682f133852f6798a09c465da95921460cefb38474024989060200160405180910390a15b565b612f6980620000f96000396000f3fe6080604052600436106102255760003560e01c80638ca3d18311610123578063cb80fe2f116100ab578063f0f442601161006f578063f0f4426014610668578063f14fcbc814610688578063f5b541a6146106a8578063fb021939146106dc578063fca513a8146106fc57600080fd5b8063cb80fe2f146105d3578063d547741f146105e6578063db9bf5ed14610606578063e4214b4614610626578063e63ab1e91461064657600080fd5b8063a217fddf116100f2578063a217fddf1461053e578063aeb8ce9b14610553578063b24b17b014610573578063c078f16a14610593578063ca15c873146105b357600080fd5b80638ca3d183146104cb5780639010d07c146104de57806391d14854146104fe5780639791c0971461051e57600080fd5b80633b6c2ea3116101b15780635c975abb116101755780635c975abb1461044057806364c65705146104585780636df99353146104785780638456cb59146104985780638c843314146104ad57600080fd5b80633b6c2ea31461039d5780633f4ba83a146103e357806342c20288146103f8578063530e784f1461040d5780635a7051691461042d57600080fd5b8063248a9ca3116101f8578063248a9ca3146102d857806329aa4f51146103165780632f2ff15d1461033d57806336568abe1461035f5780633b19e84a1461037f57600080fd5b806301ffc9a71461022a5780631321889f1461025f578063224b04de14610288578063237a78fb146102ba575b600080fd5b34801561023657600080fd5b5061024a61024536600461207d565b61071a565b60405190151581526020015b60405180910390f35b34801561026b57600080fd5b506036546037545b60408051928352602083019190915201610256565b34801561029457600080fd5b50603b546001600160a01b03165b6040516001600160a01b039091168152602001610256565b3480156102c657600080fd5b50603d546001600160a01b03166102a2565b3480156102e457600080fd5b506103086102f33660046120a7565b60009081526002602052604090206001015490565b604051908152602001610256565b34801561032257600080fd5b5061032b600381565b60405160ff9091168152602001610256565b34801561034957600080fd5b5061035d6103583660046120d5565b610745565b005b34801561036b57600080fd5b5061035d61037a3660046120d5565b61076f565b34801561038b57600080fd5b506039546001600160a01b03166102a2565b3480156103a957600080fd5b5061024a6103b83660046120d5565b6000918252603f602090815260408084206001600160a01b0393909316845291905290205460ff1690565b3480156103ef57600080fd5b5061035d6107f2565b34801561040457600080fd5b50603854610308565b34801561041957600080fd5b5061035d610428366004612105565b610815565b61035d61043b366004612137565b610829565b34801561044c57600080fd5b5060005460ff1661024a565b34801561046457600080fd5b5061035d6104733660046121b9565b6109d8565b34801561048457600080fd5b5061035d6104933660046122c0565b610b84565b3480156104a457600080fd5b5061035d610cbd565b3480156104b957600080fd5b50603a546001600160a01b03166102a2565b61035d6104d9366004612450565b610cdd565b3480156104ea57600080fd5b506102a26104f936600461250b565b610e3e565b34801561050a57600080fd5b5061024a6105193660046120d5565b610e5d565b34801561052a57600080fd5b5061024a61053936600461252d565b610e88565b34801561054a57600080fd5b50610308600081565b34801561055f57600080fd5b5061024a61056e36600461252d565b610f16565b34801561057f57600080fd5b5061027361058e366004612569565b610fa1565b34801561059f57600080fd5b5061035d6105ae3660046120a7565b611051565b3480156105bf57600080fd5b506103086105ce3660046120a7565b611065565b61035d6105e13660046125af565b61107c565b3480156105f257600080fd5b5061035d6106013660046120d5565b611188565b34801561061257600080fd5b506103086106213660046125af565b6111ad565b34801561063257600080fd5b5061035d61064136600461250b565b611239565b34801561065257600080fd5b50610308600080516020612f1483398151915281565b34801561067457600080fd5b5061035d610683366004612105565b61124e565b34801561069457600080fd5b5061035d6106a33660046120a7565b61127c565b3480156106b457600080fd5b506103087f97667070c54ef182b0f5858b034beac1b6f3089aa2d3188bb1e8929f4fa9b92981565b3480156106e857600080fd5b506103086106f736600461252d565b6112d5565b34801561070857600080fd5b50603c546001600160a01b03166102a2565b60006001600160e01b03198216635a05180f60e01b148061073f575061073f82611312565b92915050565b60008281526002602052604090206001015461076081611347565b61076a8383611351565b505050565b6001600160a01b03811633146107e45760405162461bcd60e51b815260206004820152602f60248201527f416363657373436f6e74726f6c3a2063616e206f6e6c792072656e6f756e636560448201526e103937b632b9903337b91039b2b63360891b60648201526084015b60405180910390fd5b6107ee8282611373565b5050565b600080516020612f1483398151915261080a81611347565b610812611395565b50565b600061082081611347565b6107ee826113e7565b61083161143e565b610839611486565b600061087c84848080601f016020809104026020016040519081016040528093929190818152602001838380828437600092019190915250869250610fa1915050565b915050803410156108a05760405163044044a560e21b815260040160405180910390fd5b60006108ac8234612689565b905060006108ef86868080601f0160208091040260200160405190810160405280939291908181526020018383808284376000920191909152506112d592505050565b603a54604051635569f33d60e01b8152600481018390526001600160401b03871660248201529192506000916001600160a01b0390911690635569f33d906044016020604051808303816000875af115801561094f573d6000803e3d6000fd5b505050506040513d601f19601f82011682018060405250810190610973919061269c565b9050817fda0eda2cd32a098c8b27ed6a56aeb5c332b8abb98491f4357ea58e118b724c6d888887856040516109ab94939291906126e2565b60405180910390a282156109c3576109c333846114df565b6109cb611544565b5050505061076a60018055565b60005462010000900460ff16158080156109fd5750600054600161010090910460ff16105b80610a1d5750303b158015610a1d575060005460ff610100909104166001145b610a805760405162461bcd60e51b815260206004820152602e60248201527f496e697469616c697a61626c653a20636f6e747261637420697320616c72656160448201526d191e481a5b9a5d1a585b1a5e995960921b60648201526084016107db565b6000805461ff0019166101001790558015610aa7576000805462ff00001916620100001790555b610abf600080516020612f148339815191528b61155a565b610aca60008c61155a565b610ad3836113e7565b610adc86611564565b610ae6878961159b565b603980546001600160a01b03808c166001600160a01b031992831617909255603a8054888416908316179055603b8054878416908316179055603d8054928516929091169190911790558015610b77576000805462ff000019169055604051600181527f7f26b83ff96e1f2b6a682f133852f6798a09c465da95921460cefb38474024989060200160405180910390a15b5050505050505050505050565b7f97667070c54ef182b0f5858b034beac1b6f3089aa2d3188bb1e8929f4fa9b929610bae81611347565b84801580610bbc5750808414155b15610bda57604051634ec4810560e11b815260040160405180910390fd5b60005b81811015610c6a5783603f60008a8a85818110610bfc57610bfc612716565b9050602002013581526020019081526020016000206000888885818110610c2557610c25612716565b9050602002016020810190610c3a9190612105565b6001600160a01b031681526020810191909152604001600020805460ff1916911515919091179055600101610bdd565b50336001600160a01b03167fb04cd4173c4030a0f2bf2acabc9484f9014ecf5654be55afb48f3694c0804e3b8888888888604051610cac95949392919061272c565b60405180910390a250505050505050565b600080516020612f14833981519152610cd581611347565b610812611625565b610ce561143e565b610ced611486565b86610cf781611662565b610d0088610f16565b610d1f57876040516308eee0fd60e31b81526004016107db9190612816565b6000610d2a896112d5565b603a546040516303e9e60960e01b8152600481018390529192506000916001600160a01b03909116906303e9e60990602401600060405180830381865afa158015610d79573d6000803e3d6000fd5b505050506040513d6000823e601f3d908101601f19168201604052610da191908101906128e3565b602090810151606001516000848152603f835260408082206001600160a01b038e168352909352919091205490915060ff16811580610dde575080155b15610e04578a8a8383604051631fc5717160e01b81526004016107db94939291906129c5565b600080610e118d8c61168a565b91509150610e268d8d8d8d8d8d8d89896116e2565b505050505050610e3560018055565b50505050505050565b6000828152600360205260408120610e56908361180c565b9392505050565b60009182526002602090815260408084206001600160a01b0393909316845291905290205460ff1690565b60006003610e9583611818565b1015801561073f5750603b546040516303f6911960e21b81526001600160a01b0390911690630fda446490610ece908590600401612816565b602060405180830381865afa158015610eeb573d6000803e3d6000fd5b505050506040513d601f19601f82011682018060405250810190610f0f91906129ff565b1592915050565b6000610f2182610e88565b801561073f5750603a546001600160a01b03166396e494e8610f42846112d5565b6040518263ffffffff1660e01b8152600401610f6091815260200190565b602060405180830381865afa158015610f7d573d6000803e3d6000fd5b505050506040513d601f19601f8201168201806040525081019061073f91906129ff565b603c5460405163f4651f4960e01b81526000918291829182916001600160a01b039091169063f4651f4990610fdc9089908990600401612a1c565b608060405180830381865afa158015610ff9573d6000803e3d6000fd5b505050506040513d601f19601f8201168201806040525081019061101d9190612a77565b8051825192945090925061103091612aac565b9350806020015182602001516110469190612aac565b925050509250929050565b600061105c81611347565b6107ee82611564565b600081815260036020526040812061073f90611906565b61108461143e565b61108c611486565b6000611097896112d5565b603a546040516303e9e60960e01b8152600481018390529192506001600160a01b0316906303e9e60990602401600060405180830381865afa1580156110e1573d6000803e3d6000fd5b505050506040513d6000823e601f3d908101601f1916820160405261110991908101906128e3565b60200151606001511561113157886040516331597a5760e21b81526004016107db9190612816565b60006111438a8a8a8a8a8a8a8a6111ad565b905061114f8882611910565b60008061115c8c8b61168a565b915091506111718c8c8c8b8b8b8b89896116e2565b5050505061117e60018055565b5050505050505050565b6000828152600260205260409020600101546111a381611347565b61076a8383611373565b6000886111b981611662565b83158015906111cf57506001600160a01b038616155b156111ed576040516334fd817160e21b815260040160405180910390fd5b6111f68a6112d5565b89898989898989604051602001611214989796959493929190612b50565b6040516020818303038152906040528051906020012091505098975050505050505050565b600061124481611347565b61076a838361159b565b600061125981611347565b50603980546001600160a01b0319166001600160a01b0392909216919091179055565b61128461143e565b6037546000828152603e602052604090205442916112a191612aac565b106112c257604051630a059d7160e01b8152600481018290526024016107db565b6000908152603e60205260409020429055565b600061073f7fba69923fa107dbf5a25a073a10b7c9216ae39fbadc95dc891d460d9ae315d688836000918252805160209182012090526040902090565b60006001600160e01b03198216637965db0b60e01b148061073f57506301ffc9a760e01b6001600160e01b031983161461073f565b61081281336119c1565b61135b82826119f4565b600082815260036020526040902061076a9082611a7a565b61137d8282611a8f565b600082815260036020526040902061076a9082611af6565b61139d611b0b565b6000805460ff191690557f5db9ee0a495bf2e6ff9c91a7834c1ba4fdd244a5e8aa4e537bd38aeae4b073aa335b6040516001600160a01b03909116815260200160405180910390a1565b603c80546001600160a01b0319166001600160a01b03831690811790915560405190815233907fa0e5780c6b121c723ec81de517e849c838390affbdc0a70680a3065e47ff3655906020015b60405180910390a250565b60005460ff16156114845760405162461bcd60e51b815260206004820152601060248201526f14185d5cd8589b194e881c185d5cd95960821b60448201526064016107db565b565b6002600154036114d85760405162461bcd60e51b815260206004820152601f60248201527f5265656e7472616e637947756172643a207265656e7472616e742063616c6c0060448201526064016107db565b6002600155565b60006114eb8383611b54565b90508061076a57611504836001600160a01b0316611bca565b61150d83611be0565b60405160200161151e929190612bb0565b60408051601f198184030181529082905262461bcd60e51b82526107db91600401612816565b603954611484906001600160a01b0316476114df565b6107ee8282611351565b603881905560405181815233907f59dadbf6542974405b3c262294675f8dd6fb933e6e6556b04b41aaac6e42352c90602001611433565b428111156115bc57604051630b4319e560e21b815260040160405180910390fd5b8181116115dc576040516307cb550760e31b815260040160405180910390fd5b60368290556037819055604080518381526020810183905233917f26a34e9441e83658dfe0e99d79186a1f7cb28c0867d3caddf5cd8b79844adf8f910160405180910390a25050565b61162d61143e565b6000805460ff191660011790557f62e78cea01bee320cd4e420270b5ea74000d11b0c9f74754ebdbfc544b05a2586113ca3390565b61166b81610f16565b61081257806040516308eee0fd60e31b81526004016107db9190612816565b6000806116978484610fa1565b9092509050348111156116bd5760405163044044a560e21b815260040160405180910390fd5b348181039082146116d2576116d233826114df565b506116db611544565b9250929050565b600080603a60009054906101000a90046001600160a01b03166001600160a01b0316630570891f7fba69923fa107dbf5a25a073a10b7c9216ae39fbadc95dc891d460d9ae315d6888d8b8e8e6040518663ffffffff1660e01b815260040161174e959493929190612c2e565b60408051808303816000875af115801561176c573d6000803e3d6000fd5b505050506040513d601f19601f820116820180604052508101906117909190612c79565b909250905085156117a7576117a788828989611bf7565b84156117b7576117b78b8b611c75565b896001600160a01b0316817f8b0e0cd1a643dbca06e60f7e03e5ff3c4e72b78e1c9842b5c3a29ad3ce8d384b8d8688876040516117f79493929190612ca7565b60405180910390a35050505050505050505050565b6000610e568383611d0c565b600080600080845190505b808310156118fe57600085848151811061183f5761183f612716565b01602001516001600160f81b0319169050600160ff1b811015611867576001840193506118f2565b600760fd1b6001600160f81b031982161015611888576002840193506118f2565b600f60fc1b6001600160f81b0319821610156118a9576003840193506118f2565b601f60fb1b6001600160f81b0319821610156118ca576004840193506118f2565b603f60fa1b6001600160f81b0319821610156118eb576005840193506118f2565b6006840193505b50600190910190611823565b509392505050565b600061073f825490565b603854826001600160401b03161015611947576040516378a3dfc160e11b81526001600160401b03831660048201526024016107db565b6000818152603e60205260408120546119609042612689565b905060365481101561198857604051635320bcf960e01b8152600481018390526024016107db565b8060375410156119ae5760405163cb7690d760e01b8152600481018390526024016107db565b506000908152603e602052604081205550565b6119cb8282610e5d565b6107ee576119d881611bca565b6119e3836020611d36565b60405160200161151e929190612cdf565b6119fe8282610e5d565b6107ee5760008281526002602090815260408083206001600160a01b03851684529091529020805460ff19166001179055611a363390565b6001600160a01b0316816001600160a01b0316837f2f8788117e7eff1d82e926ec794901d17c78024a50270940304540a733656f0d60405160405180910390a45050565b6000610e56836001600160a01b038416611ed1565b611a998282610e5d565b156107ee5760008281526002602090815260408083206001600160a01b0385168085529252808320805460ff1916905551339285917ff6391f5c32d9c69d2a47ea670b442974b53935d1edc7fd64eb21e047a839171b9190a45050565b6000610e56836001600160a01b038416611f20565b60005460ff166114845760405162461bcd60e51b815260206004820152601460248201527314185d5cd8589b194e881b9bdd081c185d5cd95960621b60448201526064016107db565b604080516000808252602082019092526001600160a01b038416908390604051611b7e9190612d54565b60006040518083038185875af1925050503d8060008114611bbb576040519150601f19603f3d011682016040523d82523d6000602084013e611bc0565b606091505b5090949350505050565b606061073f6001600160a01b0383166014611d36565b606061073f82611bef84612013565b600101611d36565b60405163e32954eb60e01b81526001600160a01b0385169063e32954eb90611c2790869086908690600401612d70565b6000604051808303816000875af1158015611c46573d6000803e3d6000fd5b505050506040513d6000823e601f3d908101601f19168201604052611c6e9190810190612d93565b5050505050565b603d546040516001600160a01b039091169063c9119941908390611c9d908690602001612e6a565b6040516020818303038152906040526040518363ffffffff1660e01b8152600401611cc9929190612e92565b6020604051808303816000875af1158015611ce8573d6000803e3d6000fd5b505050506040513d601f19601f8201168201806040525081019061076a9190612eb6565b6000826000018281548110611d2357611d23612716565b9060005260206000200154905092915050565b60606000611d45836002612ecf565b611d50906002612aac565b6001600160401b03811115611d6757611d67612343565b6040519080825280601f01601f191660200182016040528015611d91576020820181803683370190505b509050600360fc1b81600081518110611dac57611dac612716565b60200101906001600160f81b031916908160001a905350600f60fb1b81600181518110611ddb57611ddb612716565b60200101906001600160f81b031916908160001a9053506000611dff846002612ecf565b611e0a906001612aac565b90505b6001811115611e82576f181899199a1a9b1b9c1cb0b131b232b360811b85600f1660108110611e3e57611e3e612716565b1a60f81b828281518110611e5457611e54612716565b60200101906001600160f81b031916908160001a90535060049490941c93611e7b81612ee6565b9050611e0d565b508315610e565760405162461bcd60e51b815260206004820181905260248201527f537472696e67733a20686578206c656e67746820696e73756666696369656e7460448201526064016107db565b6000818152600183016020526040812054611f185750815460018181018455600084815260208082209093018490558454848252828601909352604090209190915561073f565b50600061073f565b60008181526001830160205260408120548015612009576000611f44600183612689565b8554909150600090611f5890600190612689565b9050818114611fbd576000866000018281548110611f7857611f78612716565b9060005260206000200154905080876000018481548110611f9b57611f9b612716565b6000918252602080832090910192909255918252600188019052604090208390555b8554869080611fce57611fce612efd565b60019003818190600052602060002001600090559055856001016000868152602001908152602001600020600090556001935050505061073f565b600091505061073f565b600080608083901c1561202b5760809290921c916010015b604083901c156120405760409290921c916008015b602083901c156120555760209290921c916004015b601083901c1561206a5760109290921c916002015b600883901c1561073f5760010192915050565b60006020828403121561208f57600080fd5b81356001600160e01b031981168114610e5657600080fd5b6000602082840312156120b957600080fd5b5035919050565b6001600160a01b038116811461081257600080fd5b600080604083850312156120e857600080fd5b8235915060208301356120fa816120c0565b809150509250929050565b60006020828403121561211757600080fd5b8135610e56816120c0565b6001600160401b038116811461081257600080fd5b60008060006040848603121561214c57600080fd5b83356001600160401b038082111561216357600080fd5b818601915086601f83011261217757600080fd5b81358181111561218657600080fd5b87602082850101111561219857600080fd5b602092830195509350508401356121ae81612122565b809150509250925092565b6000806000806000806000806000806101408b8d0312156121d957600080fd5b8a356121e4816120c0565b995060208b01356121f4816120c0565b985060408b0135612204816120c0565b975060608b0135965060808b0135955060a08b0135945060c08b0135612229816120c0565b935060e08b0135612239816120c0565b92506101008b013561224a816120c0565b91506101208b013561225b816120c0565b809150509295989b9194979a5092959850565b60008083601f84011261228057600080fd5b5081356001600160401b0381111561229757600080fd5b6020830191508360208260051b85010111156116db57600080fd5b801515811461081257600080fd5b6000806000806000606086880312156122d857600080fd5b85356001600160401b03808211156122ef57600080fd5b6122fb89838a0161226e565b9097509550602088013591508082111561231457600080fd5b506123218882890161226e565b9094509250506040860135612335816122b2565b809150509295509295909350565b634e487b7160e01b600052604160045260246000fd5b604080519081016001600160401b038111828210171561237b5761237b612343565b60405290565b604051606081016001600160401b038111828210171561237b5761237b612343565b604051601f8201601f191681016001600160401b03811182821017156123cb576123cb612343565b604052919050565b60006001600160401b038211156123ec576123ec612343565b50601f01601f191660200190565b600082601f83011261240b57600080fd5b813561241e612419826123d3565b6123a3565b81815284602083860101111561243357600080fd5b816020850160208301376000918101602001919091529392505050565b600080600080600080600060c0888a03121561246b57600080fd5b87356001600160401b038082111561248257600080fd5b61248e8b838c016123fa565b985060208a013591506124a0826120c0565b9096506040890135906124b282612122565b9095506060890135906124c4826120c0565b909450608089013590808211156124da57600080fd5b506124e78a828b0161226e565b90945092505060a08801356124fb816122b2565b8091505092959891949750929550565b6000806040838503121561251e57600080fd5b50508035926020909101359150565b60006020828403121561253f57600080fd5b81356001600160401b0381111561255557600080fd5b612561848285016123fa565b949350505050565b6000806040838503121561257c57600080fd5b82356001600160401b0381111561259257600080fd5b61259e858286016123fa565b92505060208301356120fa81612122565b60008060008060008060008060e0898b0312156125cb57600080fd5b88356001600160401b03808211156125e257600080fd5b6125ee8c838d016123fa565b995060208b01359150612600826120c0565b90975060408a01359061261282612122565b90965060608a0135955060808a01359061262b826120c0565b90945060a08a0135908082111561264157600080fd5b5061264e8b828c0161226e565b90945092505060c0890135612662816122b2565b809150509295985092959890939650565b634e487b7160e01b600052601160045260246000fd5b8181038181111561073f5761073f612673565b6000602082840312156126ae57600080fd5b8151610e5681612122565b81835281816020850137506000828201602090810191909152601f909101601f19169091010190565b6060815260006126f66060830186886126b9565b90508360208301526001600160401b038316604083015295945050505050565b634e487b7160e01b600052603260045260246000fd5b6060808252810185905260006001600160fb1b0386111561274c57600080fd5b8560051b8088608085013760809083018381038201602080860191909152918101869052869160009160a0015b878310156127a957833561278c816120c0565b6001600160a01b0316815292810192600192909201918101612779565b861515604087015293506127bc92505050565b9695505050505050565b60005b838110156127e15781810151838201526020016127c9565b50506000910152565b600081518084526128028160208601602086016127c6565b601f01601f19169290920160200192915050565b602081526000610e5660208301846127ea565b6000612837612419846123d3565b905082815283838301111561284b57600080fd5b610e568360208301846127c6565b60006080828403121561286b57600080fd5b604051608081018181106001600160401b038211171561288d5761288d612343565b806040525080915082516128a0816120c0565b815260208301516128b0816120c0565b602082015260408301516128c381612122565b604082015260608301516128d6816122b2565b6060919091015292915050565b600060208083850312156128f657600080fd5b82516001600160401b038082111561290d57600080fd5b9084019060a0828703121561292157600080fd5b612929612359565b82518281111561293857600080fd5b83016060818903121561294a57600080fd5b612952612381565b815160ff8116811461296357600080fd5b8152818601518682015260408201518481111561297f57600080fd5b82019350601f8401891361299257600080fd5b6129a0898551888701612829565b60408201528252506129b487848601612859565b848201528094505050505092915050565b6080815260006129d860808301876127ea565b6001600160a01b039590951660208301525091151560408301521515606090910152919050565b600060208284031215612a1157600080fd5b8151610e56816122b2565b604081526000612a2f60408301856127ea565b90506001600160401b03831660208301529392505050565b600060408284031215612a5957600080fd5b612a61612359565b9050815181526020820151602082015292915050565b60008060808385031215612a8a57600080fd5b612a948484612a47565b9150612aa38460408501612a47565b90509250929050565b8082018082111561073f5761073f612673565b81835260006020808501808196508560051b810191508460005b87811015612b435782840389528135601e19883603018112612afa57600080fd5b870185810190356001600160401b03811115612b1557600080fd5b803603821315612b2457600080fd5b612b2f8682846126b9565b9a87019a9550505090840190600101612ad9565b5091979650505050505050565b8881526001600160a01b0388811660208301526001600160401b0388166040830152606082018790528516608082015260e060a08201819052600090612b999083018587612abf565b905082151560c08301529998505050505050505050565b7f5472616e7366657248656c7065723a20636f756c64206e6f74207472616e7366815269032b9102927a7103a37960b51b602082015260008351612bfb81602a8501602088016127c6565b660103b30b63ab2960cd1b602a918401918201528351612c228160318401602088016127c6565b01603101949350505050565b85815260a060208201526000612c4760a08301876127ea565b6001600160a01b0395861660408401529390941660608201526001600160401b03919091166080909101529392505050565b60008060408385031215612c8c57600080fd5b8251612c9781612122565b6020939093015192949293505050565b608081526000612cba60808301876127ea565b60208301959095525060408101929092526001600160401b0316606090910152919050565b7f416363657373436f6e74726f6c3a206163636f756e7420000000000000000000815260008351612d178160178501602088016127c6565b7001034b99036b4b9b9b4b733903937b6329607d1b6017918401918201528351612d488160288401602088016127c6565b01602801949350505050565b60008251612d668184602087016127c6565b9190910192915050565b838152604060208201526000612d8a604083018486612abf565b95945050505050565b60006020808385031215612da657600080fd5b82516001600160401b0380821115612dbd57600080fd5b818501915085601f830112612dd157600080fd5b815181811115612de357612de3612343565b8060051b612df28582016123a3565b9182528381018501918581019089841115612e0c57600080fd5b86860192505b83831015612e5d57825185811115612e2a5760008081fd5b8601603f81018b13612e3c5760008081fd5b612e4d8b8983015160408401612829565b8352509186019190860190612e12565b9998505050505050505050565b60008251612e7c8184602087016127c6565b63173937b760e11b920191825250600401919050565b6001600160a01b0383168152604060208201819052600090612561908301846127ea565b600060208284031215612ec857600080fd5b5051919050565b808202811582820484141761073f5761073f612673565b600081612ef557612ef5612673565b506000190190565b634e487b7160e01b600052603160045260246000fdfe65d7a28e3265b37a6474929f336521b332c1681b933f6cb9f3376673440d862aa264697066735822122006f996c081232038f43c5a1b7c3f11015820d9739a2a8d4b25e938ce2da8ea5764736f6c63430008150033",
  "chainId": 2021,
  "contractName": "RONRegistrarController",
  "deployer": "0x968D0Cd7343f711216817E617d3f92a23dC91c07",
  "devdoc": {
    "version": 1,
    "kind": "dev",
    "details": "A registrar controller for registering and renewing names at fixed cost.",
    "methods": {
      "available(string)": {
        "details": "Checks if a name is available for registration.",
        "params": {
          "name": "The name to check availability for."
        },
        "returns": {
          "_0": "A boolean indicating whether the name is available."
        }
      },
      "bulkWhitelistProtectedNames(uint256[],address[],bool)": {
        "details": "Bulk (de)whitelist for buying protected names. Requirements: - The method caller is contract operator. Emits an event {ProtectedNamesWhitelisted}."
      },
      "commit(bytes32)": {
        "details": "Commits to a registration using the commitment hash.",
        "params": {
          "commitment": "The commitment hash."
        }
      },
      "computeCommitment(string,address,uint64,bytes32,address,bytes[],bool)": {
        "details": "Generates the commitment hash for a registration.",
        "params": {
          "data": "Additional data associated with the registration.",
          "duration": "The duration of the registration.",
          "name": "The name to be registered.",
          "owner": "The owner of the name.",
          "resolver": "The resolver contract address.",
          "reverseRecord": "Whether to use reverse record for additional data.",
          "secret": "The secret used for the commitment."
        },
        "returns": {
          "_0": "The commitment hash."
        }
      },
      "computeId(string)": {
        "details": "Calculate the corresponding id given RON_ID and name."
      },
      "getCommitmentAgeRange()": {
        "details": "Returns the range of commitment ages allowed."
      },
      "getMinRegistrationDuration()": {
        "details": "Returns the minimum registration duration."
      },
      "getNameChecker()": {
        "details": "Returns the INameChecker contract associated with this controller."
      },
      "getPriceOracle()": {
        "details": "Returns the INSDomainPrice contract associated with this controller."
      },
      "getRNSUnified()": {
        "details": "Returns the INSUnified contract associated with this controller."
      },
      "getReverseRegistrar()": {
        "details": "Returns the IReverseRegistrar contract associated with this controller."
      },
      "getRoleAdmin(bytes32)": {
        "details": "Returns the admin role that controls `role`. See {grantRole} and {revokeRole}. To change a role's admin, use {_setRoleAdmin}."
      },
      "getRoleMember(bytes32,uint256)": {
        "details": "Returns one of the accounts that have `role`. `index` must be a value between 0 and {getRoleMemberCount}, non-inclusive. Role bearers are not sorted in any particular way, and their ordering may change at any point. WARNING: When using {getRoleMember} and {getRoleMemberCount}, make sure you perform all queries on the same block. See the following https://forum.openzeppelin.com/t/iterating-over-elements-on-enumerableset-in-openzeppelin-contracts/2296[forum post] for more information."
      },
      "getRoleMemberCount(bytes32)": {
        "details": "Returns the number of accounts that have `role`. Can be used together with {getRoleMember} to enumerate all bearers of a role."
      },
      "getTreasury()": {
        "details": "Returns the treasury address."
      },
      "getWhitelistProtectedNameStatus(uint256,address)": {
        "details": "Returns the whitelist status for registering protected name."
      },
      "grantRole(bytes32,address)": {
        "details": "Grants `role` to `account`. If `account` had not been already granted `role`, emits a {RoleGranted} event. Requirements: - the caller must have ``role``'s admin role. May emit a {RoleGranted} event."
      },
      "hasRole(bytes32,address)": {
        "details": "Returns `true` if `account` has been granted `role`."
      },
      "pause()": {
        "details": "Pauses the registrar controller's functionality. Requirements: - The caller must have the admin role."
      },
      "paused()": {
        "details": "Returns true if the contract is paused, and false otherwise."
      },
      "register(string,address,uint64,bytes32,address,bytes[],bool)": {
        "details": "Registers a new name.",
        "params": {
          "data": "Additional data associated with the registration.",
          "duration": "The duration of the registration.",
          "name": "The name to be registered.",
          "owner": "The owner of the name.",
          "resolver": "The resolver contract address.",
          "reverseRecord": "Whether to use reverse record for additional data.",
          "secret": "The secret used for the commitment."
        }
      },
      "registerProtectedName(string,address,uint64,address,bytes[],bool)": {
        "details": "Registers a protected name. Requirements: - The owner is whitelisted for registering."
      },
      "renew(string,uint64)": {
        "details": "Renews an existing name registration.",
        "params": {
          "duration": "The duration of the renewal.",
          "name": "The name to be renewed."
        }
      },
      "renounceRole(bytes32,address)": {
        "details": "Revokes `role` from the calling account. Roles are often managed via {grantRole} and {revokeRole}: this function's purpose is to provide a mechanism for accounts to lose their privileges if they are compromised (such as when a trusted device is misplaced). If the calling account had been revoked `role`, emits a {RoleRevoked} event. Requirements: - the caller must be `account`. May emit a {RoleRevoked} event."
      },
      "rentPrice(string,uint64)": {
        "details": "Retrieves the rent price for a given name and duration.",
        "params": {
          "duration": "The duration of the rent.",
          "name": "The name for which to calculate the rent price."
        },
        "returns": {
          "ronPrice": "rent price in ron.",
          "usdPrice": "rent price in usd."
        }
      },
      "revokeRole(bytes32,address)": {
        "details": "Revokes `role` from `account`. If `account` had been granted `role`, emits a {RoleRevoked} event. Requirements: - the caller must have ``role``'s admin role. May emit a {RoleRevoked} event."
      },
      "setCommitmentAge(uint256,uint256)": {
        "details": "Sets the minimum and maximum commitment ages. Requirements: - Caller must have the DEFAULT_ADMIN_ROLE. - The `maxCommitmentAge` must be less than or equal to the current block timestamp. - The `maxCommitmentAge` must be greater than the `minCommitmentAge`. Emits a {CommitmentAgeUpdated} event indicating the successful update of the age range.",
        "params": {
          "maxCommitmentAge": "The maximum commitment age in seconds.",
          "minCommitmentAge": "The minimum commitment age in seconds."
        }
      },
      "setMinRegistrationDuration(uint256)": {
        "details": "Updates min registration duration. Requirements: - The caller must have the admin role."
      },
      "setPriceOracle(address)": {
        "details": "Updates price oracle address. Requirements: - The caller must have the admin role."
      },
      "setTreasury(address)": {
        "details": "Updates treasury address. Requirements: - The caller must have the admin role."
      },
      "supportsInterface(bytes4)": {
        "details": "See {IERC165-supportsInterface}."
      },
      "unpause()": {
        "details": "Unpauses the registrar controller's functionality. Requirements: - The caller must have the admin role."
      },
      "valid(string)": {
        "details": "Checks if a name is valid.",
        "params": {
          "name": "The name to check validity for."
        },
        "returns": {
          "_0": "A boolean indicating whether the name is available."
        }
      }
    },
    "events": {
      "CommitmentAgeUpdated(address,uint256,uint256)": {
        "details": "Emitted when the commitment age range is updated.",
        "params": {
          "maxCommitmentAge": "The new maximum commitment age in seconds.",
          "minCommitmentAge": "The new minimum commitment age in seconds.",
          "operator": "The address of the operator who triggered the update."
        }
      },
      "DomainPriceUpdated(address,address)": {
        "details": "Emitted when RNSDomainPrice contract is updated.",
        "params": {
          "newDomainPrice": "The new duration domain price contract.",
          "operator": "The address of the operator who triggered the update."
        }
      },
      "Initialized(uint8)": {
        "details": "Triggered when the contract has been initialized or reinitialized."
      },
      "MinRegistrationDurationUpdated(address,uint256)": {
        "details": "Emitted when the min registration duration is updated.",
        "params": {
          "duration": "The new duration in seconds.",
          "operator": "The address of the operator who triggered the update."
        }
      },
      "NameRegistered(string,uint256,address,uint256,uint256,uint64)": {
        "details": "Emitted when a new name is successfully registered.",
        "params": {
          "expires": "The expiration timestamp of the registration.",
          "id": "The namehash of the registered name.",
          "name": "The registered name.",
          "owner": "The owner of the registered name.",
          "ronPrice": "The cost of the registration in RON.",
          "usdPrice": "The cost of the registration in USD."
        }
      },
      "NameRenewed(string,uint256,uint256,uint64)": {
        "details": "Emitted when a name is renewed.",
        "params": {
          "cost": "The cost of renewal.",
          "expires": "The new expiration timestamp after renewal.",
          "id": "The namehash of the registered name.",
          "name": "The renewed name."
        }
      },
      "Paused(address)": {
        "details": "Emitted when the pause is triggered by `account`."
      },
      "ProtectedNamesWhitelisted(address,uint256[],address[],bool)": {
        "details": "Emitted the whitelist status is updated for the owners of the protected names.",
        "params": {
          "operator": "The address of the operator who triggered the update."
        }
      },
      "RoleAdminChanged(bytes32,bytes32,bytes32)": {
        "details": "Emitted when `newAdminRole` is set as ``role``'s admin role, replacing `previousAdminRole` `DEFAULT_ADMIN_ROLE` is the starting admin for all roles, despite {RoleAdminChanged} not being emitted signaling this. _Available since v3.1._"
      },
      "RoleGranted(bytes32,address,address)": {
        "details": "Emitted when `account` is granted `role`. `sender` is the account that originated the contract call, an admin role bearer except when using {AccessControl-_setupRole}."
      },
      "RoleRevoked(bytes32,address,address)": {
        "details": "Emitted when `account` is revoked `role`. `sender` is the account that originated the contract call:   - if using `revokeRole`, it is the admin role bearer   - if using `renounceRole`, it is the role bearer (i.e. `account`)"
      },
      "Unpaused(address)": {
        "details": "Emitted when the pause is lifted by `account`."
      }
    },
    "errors": {
      "CommitmentTooNew(bytes32)": [
        {
          "details": "Error: The provided commitment timestamp is too new for registration."
        }
      ],
      "CommitmentTooOld(bytes32)": [
        {
          "details": "Error: The provided commitment timestamp is too old for registration."
        }
      ],
      "DurationTooShort(uint64)": [
        {
          "details": "Error: The requested duration for registration is too short."
        }
      ],
      "ErrInvalidRegisterProtectedName(string,address,bool,bool)": [
        {
          "details": "Thrown when received invalid params for registering protected name"
        }
      ],
      "ErrRequestedForProtectedName(string)": [
        {
          "details": "Thrown when some one requests for protected names"
        }
      ],
      "InsufficientValue()": [
        {
          "details": "Error: Insufficient value (RON) provided for registration."
        }
      ],
      "InvalidArrayLength()": [
        {
          "details": "Thrown when received invalid array length"
        }
      ],
      "MaxCommitmentAgeTooHigh()": [
        {
          "details": "Error: The maximum commitment age is set too high."
        }
      ],
      "MaxCommitmentAgeTooLow()": [
        {
          "details": "Error: The maximum commitment age is set too low."
        }
      ],
      "NameNotAvailable(string)": [
        {
          "details": "Error: The requested name is not available for registration."
        }
      ],
      "ResolverRequiredWhenDataSupplied()": [
        {
          "details": "Error: A resolver is required when additional data is supplied during registration."
        }
      ],
      "Unauthorized(bytes32)": [
        {
          "details": "Error: The sender is not authorized for the given RNS node."
        }
      ],
      "UnexpiredCommitmentExists(bytes32)": [
        {
          "details": "Error: An unexpired commitment already exists for the given commitment."
        }
      ]
    },
    "title": "RONRegistrarController"
  },
  "isFoundry": true,
  "nonce": 182607,
  "numDeployments": 2,
  "storageLayout": {
    "storage": [
      {
        "astId": 49882,
        "contract": "src/RONRegistrarController.sol:RONRegistrarController",
        "label": "_paused",
        "offset": 0,
        "slot": "0",
        "type": "t_bool"
      },
      {
        "astId": 49702,
        "contract": "src/RONRegistrarController.sol:RONRegistrarController",
        "label": "_initialized",
        "offset": 1,
        "slot": "0",
        "type": "t_uint8"
      },
      {
        "astId": 49705,
        "contract": "src/RONRegistrarController.sol:RONRegistrarController",
        "label": "_initializing",
        "offset": 2,
        "slot": "0",
        "type": "t_bool"
      },
      {
        "astId": 49983,
        "contract": "src/RONRegistrarController.sol:RONRegistrarController",
        "label": "_status",
        "offset": 0,
        "slot": "1",
        "type": "t_uint256"
      },
      {
        "astId": 48175,
        "contract": "src/RONRegistrarController.sol:RONRegistrarController",
        "label": "_roles",
        "offset": 0,
        "slot": "2",
        "type": "t_mapping(t_bytes32,t_struct(RoleData)48170_storage)"
      },
      {
        "astId": 48485,
        "contract": "src/RONRegistrarController.sol:RONRegistrarController",
        "label": "_roleMembers",
        "offset": 0,
        "slot": "3",
        "type": "t_mapping(t_bytes32,t_struct(AddressSet)54054_storage)"
      },
      {
        "astId": 62816,
        "contract": "src/RONRegistrarController.sol:RONRegistrarController",
        "label": "____gap",
        "offset": 0,
        "slot": "4",
        "type": "t_array(t_uint256)50_storage"
      },
      {
        "astId": 62819,
        "contract": "src/RONRegistrarController.sol:RONRegistrarController",
        "label": "_minCommitmentAge",
        "offset": 0,
        "slot": "54",
        "type": "t_uint256"
      },
      {
        "astId": 62822,
        "contract": "src/RONRegistrarController.sol:RONRegistrarController",
        "label": "_maxCommitmentAge",
        "offset": 0,
        "slot": "55",
        "type": "t_uint256"
      },
      {
        "astId": 62825,
        "contract": "src/RONRegistrarController.sol:RONRegistrarController",
        "label": "_minRegistrationDuration",
        "offset": 0,
        "slot": "56",
        "type": "t_uint256"
      },
      {
        "astId": 62828,
        "contract": "src/RONRegistrarController.sol:RONRegistrarController",
        "label": "_treasury",
        "offset": 0,
        "slot": "57",
        "type": "t_address_payable"
      },
      {
        "astId": 62832,
        "contract": "src/RONRegistrarController.sol:RONRegistrarController",
        "label": "_rnsUnified",
        "offset": 0,
        "slot": "58",
        "type": "t_contract(INSUnified)64975"
      },
      {
        "astId": 62836,
        "contract": "src/RONRegistrarController.sol:RONRegistrarController",
        "label": "_nameChecker",
        "offset": 0,
        "slot": "59",
        "type": "t_contract(INameChecker)65094"
      },
      {
        "astId": 62840,
        "contract": "src/RONRegistrarController.sol:RONRegistrarController",
        "label": "_priceOracle",
        "offset": 0,
        "slot": "60",
        "type": "t_contract(INSDomainPrice)64599"
      },
      {
        "astId": 62844,
        "contract": "src/RONRegistrarController.sol:RONRegistrarController",
        "label": "_reverseRegistrar",
        "offset": 0,
        "slot": "61",
        "type": "t_contract(INSReverseRegistrar)64718"
      },
      {
        "astId": 62849,
        "contract": "src/RONRegistrarController.sol:RONRegistrarController",
        "label": "_committedAt",
        "offset": 0,
        "slot": "62",
        "type": "t_mapping(t_bytes32,t_uint256)"
      },
      {
        "astId": 62856,
        "contract": "src/RONRegistrarController.sol:RONRegistrarController",
        "label": "_protectedNamesWhitelisted",
        "offset": 0,
        "slot": "63",
        "type": "t_mapping(t_uint256,t_mapping(t_address,t_bool))"
      }
    ],
    "types": {
      "t_address": {
        "encoding": "inplace",
        "label": "address",
        "numberOfBytes": "20"
      },
      "t_address_payable": {
        "encoding": "inplace",
        "label": "address payable",
        "numberOfBytes": "20"
      },
      "t_array(t_bytes32)dyn_storage": {
        "encoding": "dynamic_array",
        "label": "bytes32[]",
        "numberOfBytes": "32",
        "base": "t_bytes32"
      },
      "t_array(t_uint256)50_storage": {
        "encoding": "inplace",
        "label": "uint256[50]",
        "numberOfBytes": "1600",
        "base": "t_uint256"
      },
      "t_bool": {
        "encoding": "inplace",
        "label": "bool",
        "numberOfBytes": "1"
      },
      "t_bytes32": {
        "encoding": "inplace",
        "label": "bytes32",
        "numberOfBytes": "32"
      },
      "t_contract(INSDomainPrice)64599": {
        "encoding": "inplace",
        "label": "contract INSDomainPrice",
        "numberOfBytes": "20"
      },
      "t_contract(INSReverseRegistrar)64718": {
        "encoding": "inplace",
        "label": "contract INSReverseRegistrar",
        "numberOfBytes": "20"
      },
      "t_contract(INSUnified)64975": {
        "encoding": "inplace",
        "label": "contract INSUnified",
        "numberOfBytes": "20"
      },
      "t_contract(INameChecker)65094": {
        "encoding": "inplace",
        "label": "contract INameChecker",
        "numberOfBytes": "20"
      },
      "t_mapping(t_address,t_bool)": {
        "encoding": "mapping",
        "key": "t_address",
        "label": "mapping(address => bool)",
        "numberOfBytes": "32",
        "value": "t_bool"
      },
      "t_mapping(t_bytes32,t_struct(AddressSet)54054_storage)": {
        "encoding": "mapping",
        "key": "t_bytes32",
        "label": "mapping(bytes32 => struct EnumerableSet.AddressSet)",
        "numberOfBytes": "32",
        "value": "t_struct(AddressSet)54054_storage"
      },
      "t_mapping(t_bytes32,t_struct(RoleData)48170_storage)": {
        "encoding": "mapping",
        "key": "t_bytes32",
        "label": "mapping(bytes32 => struct AccessControl.RoleData)",
        "numberOfBytes": "32",
        "value": "t_struct(RoleData)48170_storage"
      },
      "t_mapping(t_bytes32,t_uint256)": {
        "encoding": "mapping",
        "key": "t_bytes32",
        "label": "mapping(bytes32 => uint256)",
        "numberOfBytes": "32",
        "value": "t_uint256"
      },
      "t_mapping(t_uint256,t_mapping(t_address,t_bool))": {
        "encoding": "mapping",
        "key": "t_uint256",
        "label": "mapping(uint256 => mapping(address => bool))",
        "numberOfBytes": "32",
        "value": "t_mapping(t_address,t_bool)"
      },
      "t_struct(AddressSet)54054_storage": {
        "encoding": "inplace",
        "label": "struct EnumerableSet.AddressSet",
        "numberOfBytes": "64",
        "members": [
          {
            "astId": 54053,
            "contract": "src/RONRegistrarController.sol:RONRegistrarController",
            "label": "_inner",
            "offset": 0,
            "slot": "0",
            "type": "t_struct(Set)53739_storage"
          }
        ]
      },
      "t_struct(RoleData)48170_storage": {
        "encoding": "inplace",
        "label": "struct AccessControl.RoleData",
        "numberOfBytes": "64",
        "members": [
          {
            "astId": 48167,
            "contract": "src/RONRegistrarController.sol:RONRegistrarController",
            "label": "members",
            "offset": 0,
            "slot": "0",
            "type": "t_mapping(t_address,t_bool)"
          },
          {
            "astId": 48169,
            "contract": "src/RONRegistrarController.sol:RONRegistrarController",
            "label": "adminRole",
            "offset": 0,
            "slot": "1",
            "type": "t_bytes32"
          }
        ]
      },
      "t_struct(Set)53739_storage": {
        "encoding": "inplace",
        "label": "struct EnumerableSet.Set",
        "numberOfBytes": "64",
        "members": [
          {
            "astId": 53734,
            "contract": "src/RONRegistrarController.sol:RONRegistrarController",
            "label": "_values",
            "offset": 0,
            "slot": "0",
            "type": "t_array(t_bytes32)dyn_storage"
          },
          {
            "astId": 53738,
            "contract": "src/RONRegistrarController.sol:RONRegistrarController",
            "label": "_indexes",
            "offset": 0,
            "slot": "1",
            "type": "t_mapping(t_bytes32,t_uint256)"
          }
        ]
      },
      "t_uint256": {
        "encoding": "inplace",
        "label": "uint256",
        "numberOfBytes": "32"
      },
      "t_uint8": {
        "encoding": "inplace",
        "label": "uint8",
        "numberOfBytes": "1"
      }
    }
  },
  "timestamp": 1698144132,
  "userdoc": {
    "version": 1,
    "kind": "user",
    "notice": "Customized version of ETHRegistrarController: https://github.com/ensdomains/ens-contracts/blob/45455f1229556ed4f416ef7225d4caea2c1bc0b5/contracts/ethregistrar/ETHRegistrarController.sol"
  }
}